:10039D00435A434A4A510030333032006D696C651F
:1003AD00A3BA202020202020206B6D00636F737472
:1003BD00A3BA20202020207975616E0064656C61E0
:0C03CD007920A3BA202020206D696E006A
:100282000130000231000002380000023300000297
:100292002E0006013501012C08012D00023A000052
:10022A00E4F594F593F592F591F596F595F5B2F511
:10023A00B1F5B4F5B3F5CAF5C9F5CCF5CBF5E2F5E8
:10024A00E15395FB4396045395FD4396025395FE5D
:10025A004396015391F74392085391EF43921053F7
:10026A0091FD4392025391FB43920453C9DF43CA5F
:08027A002053C9FB43CA042212
:1005100012022A12063F7B017D0A7F641203D92052
:0A0520008104C28080F9D28080F5CA
:0300130002064E94
:0D064E00C0E0053BE53B7002053AD0E0320C
:10054400E4FDFCC3ED9FEC9E500DE4FB0BBB03FCF0
:070554000DBD00010C80EC5D
:01055B00227D
:04043E008E498F4A0A
:10044200E4F54BF54CC3E54C954AE54B9549501103
:100452007FFA7E00120574054CE54C70E8054B806E
:01046200E4B5
:010463002276
:10055C00E4FDFCC3ED9FEC9E500DE4FB0BBB01FCDA
:07056C000DBD00010C80EC45
:010573002265
:10057400E4FDFCC3ED9FEC9E500DE4FB0BBB05FCBE
:070584000DBD00010C80EC2D
:01058B00224D
:0404F3008E548F553F
:1004F700900000C3E5829555E5839554500A7FFA2D
:080507007E00120574A380EBD5
:01050F0022C9
:0E06300000007F0A7E1F7D93DDFEDEFCDFFAF8
:01063E002299
:1006200000010200030000000400000000000000C0
:0C02A200014E00014D00015000014F0012
:04000E007F3CDFFE56
:0100120022CB
:1000F200AE5075F8F012000EE5F854F0F55075F8B0
:100102000F12000EE5F8540F42506350FFEE655097
:10011200704BAE4D85504DE54D603FC2D5EE70043B
:10012200D2D58012EEB54D0E054FE54FC394144063
:1001320005754F12D2D530D524E54DC4540F900623
:100142002093FE6018E54D540F93FF6010EE1425C6
:10015200E025E0FEEF2EF54E8003E4F54F75F8FF43
:01016200227A
:100314007FA01205A0E55690039D93FF6007120588
:10032400B3055680F0E4F5567FB01205A0E556906B
:1003340003A493FF60071205B3055680F0E4F55655
:10034400AF561205C61206300556E556C394214031
:06035400EF7F300205A05E
:0C048A00C2A1C2A28B80D2A27F057E001E
:10049600D3EF9400EE9400400F7DC77C01DCFEDDB7
:0804A600FAEF1F70EB1E80E865
:0104AE00222B
:0205A000AB07A7
:1005A200E4F5487F14FE120496C2A012048AC2A285
:0105B2002226
:0205B300AB0794
:1005B500E4F5577F14FE120496D2A012048AC2A253
:0105C5002213
:1004AF00E4F5487F14FE120496D2A0D2A1C2A27F17
:1004BF00017E00120496D2A27F017E00120496AF35
:0304CF0080C2A246
:0104D2002207
:0F063F007F301205A07F0C1205A07F010205A0DD
:100412007F341205A0E4FAEA2480FF1205A07F804F
:100422001205A0E4F97FFF1205B309B920F70ABA51
:0C04320020E57F361205A07F300205A0F7
:1004D300EF70047F808013BF01047F90800CBF0204
:1004E300047F888005BF03027F98EF2DFF0205A0DC
:1005C600AA077F341205A07F031205A0EA4440FF64
:0305D6000205A07B
:0A067500AA031204D3AF020205A08D
:09067F001204D31204AF0204AF0F
:0603D9008B46AA05A907EE
:1003DF00EA131313541FF547AD01FF12067FAB0746
:1003EF00EA5407FFF87401088002C333D8FCFFE515
:1003FF00466005EF42038004EFF45203AD01AF47AF
:03040F000206756D
:04052A008F518D520E
:10052E00E4F553AB52AD51AF531203D90553E55316
:05053E00C3948040EEB3
:010543002295
:08000300080C040602030109C8
:1002AE00023C0000014300014000023E00000241FA
:0202BE0000003E
:1005FE00EFA2E39291A2E29292A2E19293139294CD
:01060E0022C9
:10060F00538E7F5389F0758AE0758CB1C28DD28C71
:01061F0022B8
:0D065B00538EFB75D70C75D6FE438E102212
:03000B0002066882
:0D066800C0E00542E54270020541D0E032DD
:0300630002001682
:10001600C0E0C083C082C0D075D000C007053DE5F2
:100026003D7002053CD3952CE53C940040140540F8
:10003600753C00753D00E540540790000393FF12A0
:1000460005FEE540543FFFBF3F06754000752D0194
:0B005600D007D0D0D082D083D0E032A1
:10046400759D01EF4488F5BC00000000E5BC30E454
:10047400FB53BCEFAFBDEF75F004A4ADBE7C002D03
:05048400FFEC35F0FE65
:010489002250
:1005D900E4FEC2B5EF1392B6EFC313FFD2B50EBE58
:0205E90008F018
:0105EB0022ED
:10058C00C2CC00C2B500D2CC001205D9AF05120501
:04059C00D9C2CC22D2
:10035A00E4FDC2CC0000C2B50000D2CC00001205F8
:10036A00D9E4FF30B603430580C2B5EDC313FD00DF
:10037A000000D2B50FBF08EBC2CC0000C2CCC2B598
:10038A0000000000D2B50000C2B60000D2B60000DC
:02039A00AF05AD
:01039C00223E
:1005EC0012035AEFC4540F75F00AA4FEEF540F2EE9
:0105FC00FFFF
:0105FD0022DB
:1001D0007F851205EC8F58E4FD7F031204D3E558A8
:1001E00075F00A8475F00A84E5F02430FF1205B337
:1001F000E55875F00A84E5F02430FF1205B37F3A24
:100200001205B37F831205EC8F58E55875F00A8408
:1002100075F00A84E5F02430FF1205B3E55875F057
:0A0220000A84E5F02430FF0205B364
:0A02C00001080005195253323332D1
:070688007F0A7E0002055C01
:1002CB00E4F559751102209107AF110511EF70F686
:1002DB00120688120688120688E4F516309103750B
:1002EB001601751102309107AF110511EF70F6E58C
:1002FB001164016013E52125E0F521E51642210586
:08030B0059E559C3940840BBF9
:0103130022C7
:10016300C2917F127E001204F3D291120688120606
:1001730088D291209156751102209107AF11051174
:10018300EF70F6751102309107AF110511EF70F69C
:100193001202CB85211E1202CB85211F1202CB85B1
:1001A300210B1202CB85210C1202CB852115D29192
:1001B300E50B250C251E251FF516B5150F851E17F6
:0D01C300851F18850B09850C0A8515132270
:0300000002006695
:0C006600787FE4F6D8FD7581590200ADEA
:10007200020510E493A3F8E493A34003F68001F28F
:1000820008DFF48029E493A3F85407240CC8C3338F
:10009200C4540F4420C8834004F456800146F6DF5E
:1000A200E4800B0102040810204080900282E47E6A
:1000B200019360BCA3FF543F30E509541FFEE49353
:1000C200A360010ECF54C025E060A840B8E493A31A
:1000D200FAE493A3F8E493A3C8C582C8CAC583CA45
:1000E200F0A3C8C582C8CAC583CADFE9DEE780BEFD
:0102CA000033
:00000001FF
