:100B8200435A434A4A510030333032006D696C6532
:100B9200A3BA202020202020206B6D00636F737485
:100BA200A3BA20202020207975616E0064656C61F3
:0C0BB2007920A3BA202020206D696E007D
:100A670001300002310000023800000233000002AA
:100A77002E0006013501012C08012D00023A000065
:1009C400E4F594F593F592F591F596F595F5B2F570
:1009D400B1F5B4F5B3F5CAF5C9F5CCF5CBF5E2F547
:1009E400E15395FB4396045395FD4396025395FEBC
:1009F4004396015391F74392085391EF4392105356
:100A040091FD4392025391FB43920453C9DF43CABD
:080A14002053C9FB43CA042270
:100CF5001209C4120E247B017D0A7F64120BBE20EB
:0A0D05008104C28080F9D28080F5DD
:03001300020E33A7
:0D0E3300C0E0053BE53B7002053AD0E0321F
:100D2900E4FDFCC3ED9FEC9E500DE4FB0BBB03FC03
:070D39000DBD00010C80EC70
:010D40002290
:040C23008E498F4A1D
:100C2700E4F54BF54CC3E54C954AE54B9549501116
:100C37007FFA7E00120D59054CE54C70E8054B8094
:010C4700E4C8
:010C48002289
:100D4100E4FDFCC3ED9FEC9E500DE4FB0BBB01FCED
:070D51000DBD00010C80EC58
:010D58002278
:100D5900E4FDFCC3ED9FEC9E500DE4FB0BBB05FCD1
:070D69000DBD00010C80EC40
:010D70002260
:040CD8008E548F5552
:100CDC00900000C3E5829555E5839554500A7FFA40
:080CEC007E00120D59A380EBFC
:010CF40022DD
:0E0E150000007F0A7E1F7D93DDFEDEFCDFFA0B
:010E230022AC
:100E050000010200030000000400000000000000D3
:0C0A8700014E00014D00015000014F0025
:040E7C007F3CDFFEDA
:010E8000224F
:10088C00AE5075F8F0120E7CE5F854F0F55075F892
:10089C000F120E7CE5F8540F42506350FFEE65507A
:1008AC00704BAE4D85504DE54D603FC2D5EE70049A
:1008BC00D2D58012EEB54D0E054FE54FC3941440C2
:1008CC0005754F12D2D530D524E54DC4540F900E7A
:1008DC000593FE6018E54D540F93FF6010EE142540
:1008EC00E025E0FEEF2EF54E8003E4F54F75F8FFA2
:0108FC0022D9
:100AF9007FA0120D85E556900B8293FF6007120DBA
:100B090098055680F0E4F5567FB0120D85E55690AC
:100B19000B8993FF6007120D98055680F0E4F5568E
:100B2900AF56120DAB120E150556E556C39421406A
:060B3900EF7F30020D8584
:0C0C6F00C2A1C2A28B80D2A27F057E0031
:100C7B00D3EF9400EE9400400F7DC77C01DCFEDDCA
:080C8B00FAEF1F70EB1E80E878
:010C9300223E
:020D8500AB07BA
:100D8700E4F5487F14FE120C7BC2A0120C6FC2A2BE
:010D97002239
:020D9800AB07A7
:100D9A00E4F5577F14FE120C7BD2A0120C6FC2A28C
:010DAA002226
:100C9400E4F5487F14FE120C7BD2A0D2A1C2A27F3D
:100CA400017E00120C7BD2A27F017E00120C7BAF6E
:030CB40080C2A259
:010CB700221A
:0F0E24007F30120D857F0C120D857F01020D8529
:100BF7007F34120D85E4FAEA2480FF120D857F8089
:100C0700120D85E4F97FFF120D9809B920F70ABA8A
:0C0C170020E57F36120D857F30020D8530
:100CB800EF70047F808013BF01047F90800CBF0217
:100CC800047F888005BF03027F98EF2DFF020D8502
:100DAB00AA077F34120D857F03120D85EA4440FF9D
:030DBB00020D85A1
:0A0E5A00AA03120CB8AF02020D85C6
:090E6400120CB8120C94020C945B
:060BBE008B46AA05A90701
:100BC400EA131313541FF547AD01FF120E64AB076C
:100BD400EA5407FFF87401088002C333D8FCFFE528
:100BE400466005EF42038004EFF45203AD01AF47C2
:030BF400020E5A94
:040D0F008F518D5221
:100D1300E4F553AB52AD51AF53120BBE0553E5533C
:050D2300C3948040EEC6
:010D280022A8
:080E6D00080C04060203010950
:100A9300023C0000014300014000023E000002410D
:020AA300000051
:100DE300EFA2E39291A2E29292A2E19293139294E0
:010DF30022DD
:100DF400538E7F5389F0758AE0758CB1C28DD28C85
:010E040022CB
:0D0E4000538EFB75D70C75D6FE438E102225
:03000B00020E4D95
:0D0E4D00C0E00542E54270020541D0E032F0
:03006300020A1C72
:100A1C00C0E0C083C082C0D075D000C007053DE5E2
:100A2C003D7002053CD3952CE53C940040140540E8
:100A3C00753C00753D00E5405407900E6D93FF1218
:100A4C000DE3E540543FFFBF3F06754000752D0197
:0B0A5C00D007D0D0D082D083D0E03291
:100C4900759D01EF4488F5BC00000000E5BC30E467
:100C5900FB53BCEFAFBDEF75F004A4ADBE7C002D16
:050C6900FFEC35F0FE78
:010C6E002263
:100DBE00E4FEC2B5EF1392B6EFC313FFD2B50EBE6B
:020DCE0008F02B
:010DD0002200
:100D7100C2CC00C2B500D2CC00120DBEAF05120D1F
:040D8100BEC2CC2200
:100B3F00E4FDC2CC0000C2B50000D2CC0000120D03
:100B4F00BEE4FF30B603430580C2B5EDC313FD000D
:100B5F000000D2B50FBF08EBC2CC0000C2CCC2B5AB
:100B6F0000000000D2B50000C2B60000D2B60000EF
:020B7F00AF05C0
:010B81002251
:100DD100120B3FEFC4540F75F00AA4FEEF540F2E0F
:010DE100FF12
:010DE20022EE
:10096A007F85120DD18F58E4FD7F03120CB8E5582C
:10097A0075F00A8475F00A84E5F02430FF120D98A8
:10098A00E55875F00A84E5F02430FF120D987F3A95
:10099A00120D987F83120DD18F58E55875F00A848D
:1009AA0075F00A84E5F02430FF120D98E55875F0C9
:0A09BA000A84E5F02430FF020D98D6
:0A0AA50001080005195253323332E4
:070E75007F0A7E00020D411F
:100AB000E4F559751102209107AF110511EF70F699
:100AC000120E75120E75120E75E4F516309103753F
:100AD0001601751102309107AF110511EF70F6E59F
:100AE0001164016013E52125E0F521E51642210599
:080AF00059E559C3940840BB0D
:010AF80022DB
:1008FD00C2917F127E00120CD8D291120E75120E7B
:10090D0075D291209156751102209107AF110511E5
:10091D00EF70F6751102309107AF110511EF70F6FA
:10092D00120AB085211E120AB085211F120AB08548
:10093D00210B120AB085210C120AB0852115D29116
:10094D00E50B250C251E251FF516B5150F851E1754
:0D095D00851F18850B09850C0A85151322CE
:03000000020800F3
:0C080000787FE4F6D8FD758159020847A6
:10080C00020CF5E493A3F8E493A34003F68001F201
:10081C0008DFF48029E493A3F85407240CC8C333ED
:10082C00C4540F4420C8834004F456800146F6DFBC
:10083C00E4800B0102040810204080900A67E47EDB
:10084C00019360BCA3FF543F30E509541FFEE493B1
:10085C00A360010ECF54C025E060A840B8E493A378
:10086C00FAE493A3F8E493A3C8C582C8CAC583CAA3
:10087C00F0A3C8C582C8CAC583CADFE9DEE780BE5B
:010AAF000046
:00000001FF
