:100C9900435A434A4A510030333032006D696C651A
:100CA900A3BA202020202020206B6D00636F73746D
:100CB900A3BA20202020207975616E0064656C61DB
:0C0CC9007920A3BA202020206D696E0065
:100B7E000130000231000002380000023300000292
:100B8E002E0006013501012C08012D00023A00004D
:100B2600E4F594F593F592F591F596F595F5B2F50C
:100B3600B1F5B4F5B3F5CAF5C9F5CCF5CBF5E2F5E3
:100B4600E15395FB4396045395FD4396025395FE58
:100B56004396015391F74392085391EF43921053F2
:100B660091FD4392025391FB43920453C9DF43CA5A
:080B76002053C9FB43CA04220D
:100C10007FA0120D89E54A900C9993FF6007120D91
:100C20009C054A80F0E4F54A7FB0120D89E54A90B0
:100C30000CA093FF6007120D9C054A80F0E4F54A72
:100C4000AF4A120DAF120E19054AE54AC39421406E
:060C5000EF7F30020D8968
:10006600120A5F120B26120E28E4FF120DE7120C7D
:1000760010120E197F01120D89E4FDFF120D20E505
:1000860048900CA593FF6007120D9C054880F0E48C
:10009600F548FD7F01120D20E548900CB593FF60F1
:1000A60007120D9C054880F0E4F5481209EE120A85
:1000B600CC7F0A7E00120D40E54564017049F54586
:1000C600E530702C753001F543F53CF53DF53AF514
:1000D6003BF541F542F531F532F538F539F533F5AD
:1000E60034120E4443AF04D28AD2AAD2AF0202D24D
:1000F600E530640160030202D2F53053AFFBC2AFB4
:10010600FF120DE70202D2E545640260030201D345
:10011600F545E5306401703075300253AFFBFF12D0
:100126000DE7120DF8D2A9D28CD2AFE4FD7F0212F0
:100136000D20E548900CC593FF6007120D9C0548FD
:1001460080F0E4F5480202D2E53064026003020260
:10015600D2753001C2A9C28C43AF047D047F02125E
:100166000D20AE41AF427C007D141208FF8E338F06
:10017600347C037DE81208FF7C007D0A1208FFED3F
:100186002430FF120D9CAE33AF347C007D64120820
:10019600FF7C007D0A1208FFED2430FF120D9CAE95
:1001A60033AF347C007D0A1208FF7C007D0A1208FA
:1001B600FFED2430FF120D9CAE33AF347C007D0A78
:1001C6001208FFED2430FF120D9C0202D2E545B461
:1001D6000320E4F545E535B4010C753502752E00AE
:1001E600752F070202D2753501752E00752F06028E
:1001F60002D2E545640D7017F5457F85120DD58F42
:1002060049E549B41705E4F549801E0549801AE514
:1002160045640E7036F5457F85120DD58F49E54943
:10022600700575491780021549E54975F00A84C4B9
:1002360054F0FFE54975F00A84EF25F0F549E4FD31
:100246007F8E120D75AD497F848077E545640F700A
:1002560037F5457F83120DD58F49E549B43B05E453
:10026600F54980020549E54975F00A84C454F0FF52
:10027600E54975F00A84EF25F0F549E4FD7F8E1215
:100286000D75AD497F82803AE5456410703EF545AF
:100296007F83120DD58F49E549700575493B80026C
:1002A6001549E54975F00A84C454F0FFE54975F02F
:1002B6000A84EF25F0F549E4FD7F8E120D75AD49F0
:1002C6007F82120D757D807F8E120D75E53064017B
:1002D60060030204ACE52DD39400402DE4F52DFF18
:1002E600120CD58E368F37AC36AD37E41208337B19
:1002F600CD7ACC794C783D120728E4FBFA79507810
:10030600C112063712086C8F2CAE3AAF3B7C007DCB
:10031600051208ED8E318F327D03E4FF120D20AEFB
:1003260031AF327C277D101208FF7C007D0A12084F
:10033600FFED2430FF120D9CAE31AF327C037DE819
:100346001208FF7C007D0A1208FFED2430FF120D13
:100356009CAE31AF327C007D641208FF7C007D0AC2
:100366001208FFED2430FF120D9C7F2E120D9CAE5D
:1003760031AF327C007D0A1208FF7C007D0A12082C
:10038600FFED2430FF120D9CAE31AF327C007D0AAA
:100396001208FFED2430FF120D9CD3E532942CE5B4
:1003A6003194015022AE33AF347C007D141208ED37
:1003B600AA06AB07AE2EAF2F7D641208EDEF2BF524
:1003C60039EE3AF538806CE53224D4FDE53134FE59
:1003D600FCE41208337B9A7A997999783F120728B8
:1003E600C004C005C006C007AE2EAF2F7C007D64DA
:1003F6001208EDAC06AD07E4120833D003D002D0E4
:1004060001D000120637C004C005C006C007AE33CF
:10041600AF347C007D141208EDAC06AD07E412087B
:1004260033D003D002D001D00012063712086C8EEA
:10043600388F397D037F01120D20AE38AF397C2706
:100446007D101208FF7C007D0A1208FFED2430FFA4
:10045600120D9CAE38AF397C037DE81208FF7C0094
:100466007D0A1208FFED2430FF120D9CAE38AF391D
:100476007C007D641208FF7C007D0A1208FFED24D3
:1004860030FF120D9C7F2E120D9CAE38AF397C00CA
:100496007D0A1208FF7C007D0A1208FFED2430FF5A
:1004A600120D9C0200B1E530640260030200B17DCA
:1004B600047F02120D20AE41AF427C007D1412086B
:1004C600FF8E338F347C037DE81208FF7C007D0AA3
:1004D6001208FFED2430FF120D9CAE33AF347C00C2
:1004E6007D641208FF7C007D0A1208FFED2430FFB0
:1004F600120D9CAE33AF347C007D0A1208FF7C00DF
:100506007D0A1208FFED2430FF120D9CAE33AF3486
:100516007C007D0A1208FFED2430FF120D9CD3E506
:1005260032942CE53194015022AE33AF347C007DF9
:10053600141208EDAA06AB07AE2EAF2F7D64120883
:10054600EDEF2BF539EE3AF538806CE53224D4FD23
:10055600E53134FEFCE41208337B9A7A997999786E
:100566003F120728C004C005C006C007AE2EAF2F35
:100576007C007D641208EDAC06AD07E4120833D0AA
:1005860003D002D001D000120637C004C005C00651
:10059600C007AE33AF347C007D141208EDAC06AD57
:1005A60007E4120833D003D002D001D00012063778
:1005B60012086C8E388F397D037F01120D20AE38FC
:1005C600AF397C277D101208FF7C007D0A1208FFD8
:1005D600ED2430FF120D9CAE38AF397C037DE81256
:1005E60008FF7C007D0A1208FFED2430FF120D9CE7
:1005F600AE38AF397C007D641208FF7C007D0A129C
:1006060008FFED2430FF120D9C7F2E120D9CAE3894
:10061600AF397C007D0A1208FF7C007D0A1208FFB4
:0A062600ED2430FF120D9C0200B11C
:03001300020E37A3
:0D0E3700C0E0053BE53B7002053AD0E0321B
:100D5D00E4FDFCC3ED9FEC9E500DE4FB0BBB05FCCD
:070D6D000DBD00010C80EC3C
:010D7400225C
:040D40008E4A8F4BFD
:100D4400900000C3E582954BE583954A500A7FFAEB
:080D54007E00120D5DA380EB8F
:010D5C002274
:0E0E190000007F0A7E1F7D93DDFEDEFCDFFA07
:010E270022A8
:100E090000010200030000000400000000000000CF
:0C0B9E0001450001440001470001460031
:04000E007F3CDFFE56
:0100120022CB
:1009EE00AE4775F8F012000EE5F854F0F54775F8BD
:1009FE000F12000EE5F8540F42476347FFEE6547AE
:100A0E00704BAE44854744E544603FC2D5EE70045A
:100A1E00D2D58012EEB5440E0546E546C394144079
:100A2E0005754612D2D530D524E544C4540F900E28
:100A3E000993FE6018E544540F93FF6010EE1425E1
:100A4E00E025E0FEEF2EF5458003E4F54675F8FF50
:010A5E002275
:0C0CFB00C2A1C2A28B80D2A27F057E00A5
:100D0700D3EF9400EE9400400F7DC77C01DCFEDD3D
:080D1700FAEF1F70EB1E80E8EB
:010D1F0022B1
:020D8900AB07B6
:100D8B00E4F54B7F14FE120D07C2A0120CFBC2A29E
:010D9B002235
:020D9C00AB07A3
:100D9E00E4F54B7F14FE120D07D2A0120CFBC2A27B
:010DAE002222
:0F0E28007F30120D897F0C120D897F01020D8919
:100D2000EF70047F808013BF01047F90800CBF02AE
:100D3000047F888005BF03027F98EF2DFF020D8995
:100DAF00AA077F34120D897F03120D89EA4440FF91
:030DBF00020D8999
:08000300080C040602030109C8
:100BAA00023C0000014300014000023E00000241F5
:020BBA00000039
:100DE700EFA2E39291A2E29292A2E19293139294DC
:010DF70022D9
:100DF800538E7F5389F0758AE0758CB1C28DD28C81
:010E080022C7
:0D0E4400538EFB75D70C75D6FE438E102221
:03000B00020E5191
:0D0E5100C0E00542E54270020541D0E032EC
:0300630002001682
:10001600C0E0C083C082C0D075D000C007053DE5F2
:100026003D7002053CD3952CE53C940040140540F8
:10003600753C00753D00E540540790000393FF12A0
:100046000DE7E540543FFFBF3F06754000752D01A3
:0B005600D007D0D0D082D083D0E032A1
:100CD500759D01EF4488F5BC00000000E5BC30E4DB
:100CE500FB53BCEFAFBDEF75F004A4ADBE7C002D8A
:050CF500FFEC35F0FEEC
:010CFA0022D7
:100DC200E4FEC2B5EF1392B6EFC313FFD2B50EBE67
:020DD20008F027
:010DD40022FC
:100D7500C2CC00C2B500D2CC00120DC2AF05120D17
:040D8500C2C2CC22F8
:100C5600E4FDC2CC0000C2B50000D2CC0000120DEB
:100C6600C2E4FF30B603430580C2B5EDC313FD00F1
:100C76000000D2B50FBF08EBC2CC0000C2CCC2B593
:100C860000000000D2B50000C2B60000D2B60000D7
:020C9600AF05A8
:010C98002239
:100DD500120C56EFC4540F75F00AA4FEEF540F2EF3
:010DE500FF0E
:010DE60022EA
:100ACC007F85120DD58F4AE4FD7F03120D20E54A78
:100ADC0075F00A8475F00A84E5F02430FF120D9C41
:100AEC00E54A75F00A84E5F02430FF120D9C7F3A3C
:100AFC00120D9C7F83120DD58F4AE54A75F00A843E
:100B0C0075F00A84E5F02430FF120D9CE54A75F06F
:0A0B1C000A84E5F02430FF020D9C6E
:0A0BBC0001080005195253323332CC
:070E5E007F057E0002000089
:100BC700E4F54A751102209107AF110511EF70F690
:100BD700120E5E120E5E120E5EE4F516309103756C
:100BE7001601751102309107AF110511EF70F6E587
:100BF7001164016013E52125E0F521E51642210581
:080C07004AE54AC3940840BB12
:010C0F0022C2
:100A5F00C2917F127E00120D40D291120E5E120EC5
:100A6F005ED291209156751102209107AF11051199
:100A7F00EF70F6751102309107AF110511EF70F697
:100A8F00120BC785211E120BC785211F120BC7859D
:100A9F00210B120BC785210C120BC7852115D29183
:100AAF00E50B250C251E251FF516B5150F851E17F1
:0D0ABF00851F18850B09850C0A851513226B
:100630000208D8E86480F8E933E83360110460F018
:10064000ED33EC337009E8FCE9FDEAFEEBFF220430
:1006500060DED3EB9FEA9EE99DE8C2E78CF0C2F72B
:1006600095F0400CE8CCF8E9CDF9EACEFAEBCFFBF7
:100670001208A385D0F05804700320D5B3E80470A5
:10068000075002B2D50208E292D5EC0460F7E4CC40
:10069000C0E0C398F8603B94186008400DD0E0FBC0
:1006A0000208BAE4FBFAC9FC8028E830E406E4C991
:1006B000FBE4CAFCE830E305E4C9CACBFCE8540714
:1006C0006010F8C3E913F9EA13FAEB13FBEC13FC1F
:1006D000D8F130F52FC3E49CFCEF9BFFEE9AFEEDC2
:1006E00099FDD0E0FBEF4E4D4C701222DB03020867
:1006F000DFEC2CFCEF33FFEE33FEED33FDED30E7A6
:10070000EB0208BAEF2BFFEE3AFEED39FDD0E0FB2D
:1007100050130BBB00030208E2ED13FDEE13FEEFD6
:0807200013FFEC13FC0208BA00
:10072800EC4D6011E8497017ED33EC3304600DE4CB
:10073800FCFFFEFD22E933E8330470F80208D81202
:1007480008A358046009E4CC248150062850090203
:1007580008E22840030208DFC0E0EB4A7044B98091
:1007680006D0E0FB0208CEEF4E701CBD8008EBFF00
:10077800EAFEE9FD80EBE98DF0A4FEE5F002081140
:10078800E9CDF9EAFEEBFFEF89F0A4FCE5F0CE89AC
:10079800F0A42EFFE435F0CD89F0A42DFEE435F069
:1007A8008067EF4E7005BD80D780C3EF8BF0A4AC97
:1007B800F0EE8BF0A42CFCE435F0F8EF8AF0A42CD2
:1007C800E5F038FCE433CB8DF0A42CFCE5F03BF8E5
:1007D800EE8AF0A42CFCE5F038F8E433CF89F0A4D5
:1007E8002CFCE5F038CF3400CE89F0A42FFFE5F0DB
:1007F8003EFEE433C98DF0A42EFEE5F039CD8AF033
:10080800A42FFFE5F03EFEE43DFD33D0E0FB5007AA
:100818000BBB000F0208E2EC2CFCEF33FFEE33FEBB
:06082800ED33FD0208BAE9
:10082E0075F020800E75F010800575F0087D007E45
:10083E00007F003392D530D503120954EC334010AB
:10084E00EF33FFEE33FEED33FDEC33FCD5F0ED224E
:0E085E00E5F0247EA2D513CC92E7CDCEFF228A
:10086C00EDD2E7CD33EC3392D524814006E4FFFE84
:10087C00FDFC22FCE4CFCECDCC24E0501174FF80E3
:10088C00EDC3CC13CCCD13CDCE13CECF13CF047080
:07089C00F030D5DE02095423
:1008A300E9D2E7C933E833F892D5EDD2E7CD33EC9B
:0708B30033FC5002B2D52214
:1008BA00EC30E7100FBF000C0EBE00080DBD00049F
:1008CA000BEB6014A2D5EB13FCED92E7FD2274FF4B
:1008DA00FCFDFEFF22E480F8A2D574FF13FC7D80A4
:0308EA00E480EFB8
:0300000002096290
:0C096200787FE4F6D8FD75814B0209A9EE
:1008ED00EF8DF0A4A8F0CF8CF0A428CE8DF0A42E1F
:0208FD00FE22D9
:1008FF00BC000BBE0029EF8DF084FFADF022E4CCDD
:10090F00F875F008EF2FFFEE33FEEC33FCEE9DECA5
:10091F00984005FCEE9DFE0FD5F0E9E4CEFD22EDEB
:10092F00F8F5F0EE8420D21CFEADF075F008EF2F35
:10093F00FFED33FD4007985006D5F0F222C398FD26
:05094F000FD5F0EA22C3
:0E095400C3E49FFFE49EFEE49DFDE49CFC22B4
:10096E00020066E493A3F8E493A34003F68001F239
:10097E0008DFF48029E493A3F85407240CC8C3338A
:10098E00C4540F4420C8834004F456800146F6DF59
:10099E00E4800B0102040810204080900B7EE47E60
:1009AE00019360BCA3FF543F30E509541FFEE4934E
:1009BE00A360010ECF54C025E060A840B8E493A315
:1009CE00FAE493A3F8E493A3C8C582C8CAC583CA40
:1009DE00F0A3C8C582C8CAC583CADFE9DEE780BEF8
:010BC600002E
:00000001FF
