:100B8200435A434A4A510030333032006D696C6532
:100B9200A3BA202020202020206B6D00636F737485
:100BA200A3BA20202020207975616E0064656C61F3
:0C0BB2007920A3BA202020206D696E007D
:100A670001300002310000023800000233000002AA
:100A77002E0006013501012C08012D00023A000065
:1009C400E4F594F593F592F591F596F595F5B2F570
:1009D400B1F5B4F5B3F5CAF5C9F5CCF5CBF5E2F547
:1009E400E15395FB4396045395FD4396025395FEBC
:1009F4004396015391F74392085391EF4392105356
:100A040091FD4392025391FB43920453C9DF43CABD
:080A14002053C9FB43CA042270
:100CBC001209C4120DD37F34120D34120BBE120A5A
:0C0CCC00F9208104C2CB80F9D2CB80F566
:03001300020DE2F9
:0D0DE200C0E0053BE53B7002053AD0E03271
:100CD800E4FDFCC3ED9FEC9E500DE4FB0BBB03FC55
:070CE8000DBD00010C80ECC2
:010CEF0022E2
:040BEA008E448F4561
:100BEE00E4F546F547C3E5479545E546954450116E
:100BFE007FFA7E00120D080547E54770E80546802E
:010C0E00E401
:010C0F0022C2
:100CF000E4FDFCC3ED9FEC9E500DE4FB0BBB01FC3F
:070D00000DBD00010C80ECA9
:010D070022C9
:100D0800E4FDFCC3ED9FEC9E500DE4FB0BBB05FC22
:070D18000DBD00010C80EC91
:010D1F0022B1
:040C9F008E508F5193
:100CA300900000C3E5829551E5839550500A7FFA81
:080CB3007E00120D08A380EB86
:010CBB002216
:0E0DC40000007F0A7E1F7D93DDFEDEFCDFFA5D
:010DD20022FE
:100DB4000001020003000000040000000000000025
:0C0A8700014900014800014B00014A0039
:040E18007F3CDFFE3E
:010E1C0022B3
:10088C00AE4B75F8F0120E18E5F854F0F54B75F800
:10089C000F120E18E5F8540F424B634BFFEE654BED
:1008AC00704BAE48854B48E548603FC2D5EE7004AE
:1008BC00D2D58012EEB5480E054AE54AC3941440D1
:1008CC0005754A12D2D530D524E548C4540F900D85
:1008DC00B493FE6018E548540F93FF6010EE142596
:1008EC00E025E0FEEF2EF5498003E4F54A75F8FFAC
:0108FC0022D9
:100AF9007FA0120D34E54E900B8293FF6007120D13
:100B090047054E80F0E4F54E7FB0120D34E54E9066
:100B19000B8993FF6007120D47054E80F0E4F54EEF
:100B2900AF4E120D5A120DC4054EE54EC394214025
:060B3900EF7F30020D34D5
:0C0C3600C2A1C2A28B80D2A27F057E006A
:100C4200D3EF9400EE9400400F7DC77C01DCFEDD03
:080C5200FAEF1F70EB1E80E8B1
:010C5A002277
:020D3400AB070B
:100D3600E4F54F7F14FE120C42C2A0120C36C2A27A
:010D4600228A
:020D4700AB07F8
:100D4900E4F54F7F14FE120C42D2A0120C36C2A257
:010D59002277
:100C5B00E4F5527F14FE120C42D2A0D2A1C2A27FA5
:100C6B00017E00120C42D2A27F017E00120C42AF19
:030C7B0080C2A292
:010C7E002253
:0F0DD3007F30120D347F0C120D347F01020D346E
:100BBE007F34120D34E4FAEA2480FF120D347F8064
:100BCE00120D34E4F9E4FF120D4709B920F70ABA01
:0C0BDE0020E57F36120D347F30020D340C
:100C7F00EF70047F808013BF01047F90800CBF0250
:100C8F00047F888005BF03027F98EF2DFF020D348C
:100D5A00AA077F34120D347F03120D34EA4440FF90
:030D6A00020D3443
:080E0900080C040602030109B4
:100A9300023C0000014300014000023E000002410D
:020AA300000051
:100D9200EFA2E39291A2E29292A2E1929313929431
:010DA200222E
:100DA300538E7F5389F0758AE0758CB1C28DD28CD6
:010DB300221D
:0D0DEF00538EFB75D70C75D6FE438E102277
:03000B00020DFCE7
:0D0DFC00C0E00542E54270020541D0E03242
:03006300020A1C72
:100A1C00C0E0C083C082C0D075D000C007053DE5E2
:100A2C003D7002053CD3952CE53C940040140540E8
:100A3C00753C00753D00E5405407900E0993FF127C
:100A4C000D92E540543FFFBF3F06754000752D01E8
:0B0A5C00D007D0D0D082D083D0E03291
:100C1000759D01EF4488F5BC00000000E5BC30E4A0
:100C2000FB53BCEFAFBDEF75F004A4ADBE7C002D4F
:050C3000FFEC35F0FEB1
:010C3500229C
:100D6D00E4FEC2B5EF1392B6EFC313FFD2B50EBEBC
:020D7D0008F07C
:010D7F002251
:100D2000C2CC00C2B500D2CC00120D6DAF05120DC1
:040D30006DC2CC22A2
:100B3F00E4FDC2CC0000C2B50000D2CC0000120D03
:100B4F006DE4FF30B603430580C2B5EDC313FD005E
:100B5F000000D2B50FBF08EBC2CC0000C2CCC2B5AB
:100B6F0000000000D2B50000C2B60000D2B60000EF
:020B7F00AF05C0
:010B81002251
:100D8000120B3FEFC4540F75F00AA4FEEF540F2E60
:010D9000FF63
:010D9100223F
:10096A007F85120D808F53E4FD7F03120C7FE553C0
:10097A0075F00A8475F00A84E5F02430FF120D47F9
:10098A00E55375F00A84E5F02430FF120D477F3AEB
:10099A00120D477F83120D808F53E55375F00A8439
:1009AA0075F00A84E5F02430FF120D47E55375F01F
:0A09BA000A84E5F02430FF020D4727
:0A0AA50001080005195253323332E4
:070E11007F0A7E00020CF0D5
:100AB000E4F554751102209107AF110511EF70F69E
:100AC000120E11120E11120E11E4F516309103756B
:100AD0001601751102309107AF110511EF70F6E59F
:100AE0001164016013E52125E0F521E51642210599
:080AF00054E554C3940840BB17
:010AF80022DB
:1008FD00C2917F127E00120C9FD291120E11120E18
:10090D0011D291209156751102209107AF11051149
:10091D00EF70F6751102309107AF110511EF70F6FA
:10092D00120AB085211E120AB085211F120AB08548
:10093D00210B120AB085210C120AB0852115D29116
:10094D00E50B250C251E251FF516B5150F851E1754
:0D095D00851F18850B09850C0A85151322CE
:03000000020800F3
:0C080000787FE4F6D8FD758154020847AB
:10080C00020CBCE493A3F8E493A34003F68001F23A
:10081C0008DFF48029E493A3F85407240CC8C333ED
:10082C00C4540F4420C8834004F456800146F6DFBC
:10083C00E4800B0102040810204080900A67E47EDB
:10084C00019360BCA3FF543F30E509541FFEE493B1
:10085C00A360010ECF54C025E060A840B8E493A378
:10086C00FAE493A3F8E493A3C8C582C8CAC583CAA3
:10087C00F0A3C8C582C8CAC583CADFE9DEE780BE5B
:010AAF000046
:00000001FF
