:0C101000435A434A4A510030333032004A
:100BA000E4F594F593F592F591F596F595F5B2F592
:100BB000B1F5B4F5B3F5CAF5C9F5CCF5CBF5E2F569
:100BC000E15395FB4396045395FD4396025395FEDE
:100BD0004396015391F74392085391FD4392025378
:060BE00091FB4392042288
:100B0300120BA0120FCA121003120DB57FE87E0359
:100B1300120CDB7F3B120D70AA06AB07750C05E4C4
:100B2300FDFF1208007F3D120D70AA06AB07750C7E
:100B330005E4FD7F011208007F3F120D70AA06AB8A
:100B430007750C05E4FD7F021208007FC87E0012C2
:040B53000CDB80BF78
:0300130002105286
:01105200326B
:100EA300E4FDFCC3ED9FEC9E500DE4FB0BBB03FC88
:070EB3000DBD00010C80ECF5
:010EBA002215
:040CDB008E088F09E7
:100CDF00E4F50AF50BC3E50B9509E50A95085011E4
:100CEF007FFA7E00120ED3050BE50B70E8050A8024
:010CFF00E410
:010D000022D0
:100EBB00E4FDFCC3ED9FEC9E500DE4FB0BBB01FC72
:070ECB000DBD00010C80ECDD
:010ED20022FD
:100ED300E4FDFCC3ED9FEC9E500DE4FB0BBB05FC56
:070EE3000DBD00010C80ECC5
:010EEA0022E5
:040E54008E488F49EC
:100E5800900000C3E5829549E5839548500A7FFADA
:080E68007E00120ED3A380EB03
:010E7000225F
:0E0FBB0000007F0A7E1F7D93DDFEDEFCDFFA64
:010FC9002205
:100FAB00000102000300000004000000000000002C
:0C0DD700011C00011B00011E00011D009A
:041043007F3CDFFE11
:011047002286
:1009B700AE1E75F8F0121043E5F854F0F51E75F801
:1009C7000F121043E5F8540F421E631EFFEE651E1B
:1009D700704BAE1B851E1BE51B603FC2D5EE700436
:1009E700D2D58012EEB51B0E051DE51DC39414402C
:1009F70005751D12D2D530D524E51BC4540F900FB1
:100A0700AB93FE6018E51B540F93FF6010EE14259F
:100A1700E025E0FEEF2EF51C8003E4F51D75F8FFD9
:010A270022AC
:100BE6007FA0120F2BE51F90101093FF6007120FC6
:100BF6003E051F80F0E4F51F7FB0120F2BE51F9016
:100C0600101793FF6007120F3E051F80F0E4F51FD3
:100C1600AF1F120F51120FBB051FE51FC3942140D2
:060C2600EF7F30020F2BEE
:0C0D2700C2A1C2A28B80D2A27F057E0078
:100D3300D3EF9400EE9400400F7DC77C01DCFEDD11
:080D4300FAEF1F70EB1E80E8BF
:010D4B002285
:020F2B00AB0712
:100F2D00E4F5137F14FE120D33C2A0120D27C2A2D9
:010F3D002291
:020F3E00AB07FF
:100F4000E4F5137F14FE120D33D2A0120D27C2A2B6
:010F5000227E
:100D4C00E4F54A7F14FE120D33D2A0D2A1C2A27FC9
:100D5C00017E00120D33D2A27F017E00120D33AF43
:030D6C0080C2A2A0
:010D6F002261
:0F0FCA007F30120F2B7F0C120F2B7F01020F2B8A
:100CAF007F34120F2BE4FAEA2480FF120F2B7F8080
:100CBF00120F2BE4F9E4FF120F3E09B920F70ABA1D
:0C0CCF0020E57F36120F2B7F30020F2B28
:100DF700EF70047F808013BF01047F90800CBF02D7
:100E0700047F888005BF03027F98EF2DFF020F2B19
:100F5100AA077F34120F2B7F03120F2BEA4440FFA5
:030F6100020F2B51
:060E17008B458A46894765
:100E1D00120A28FF6012120F3EAB450547E54770D9
:080E2D00020546F9AA4680E81F
:010E3500229A
:080800008F088D098A0A8B0B99
:10080800120DF77A06780DE4F608DAFCE4FAAE0A77
:10081800AF0B7C007D0A120A41EF4E6023AE0AAF8F
:100828000B7C007D0A120A41740D2AF8A605AE0A4F
:10083800AF0B7C007D0A120A418E0A8F0B0A80CE0C
:10084800740D2AF8A60BA902C3EA64809480400BB1
:10085800740D2AF8743026F61A80EDE4FAEAFD33AE
:1008680095E0FCC3ED950C7480F86C9850087F20D7
:10087800120F3E0A80E7AD09AF08120DF7AA01C3AF
:10088800EA64809480400C740D2AF8E6FF120F3E4B
:030898001A80ECD7
:01089B00223A
:08103400080C04060203010987
:100F8900EFA2E39291A2E29292A2E1929313929438
:010F99002235
:100F9A00538E7F5389F0758AE0758CB1C28DD28CDD
:010FAA002224
:0D0FF600538EFB75D70C75D6FE438E10226E
:03000B000210538D
:01105300326A
:0300630002105434
:011054003269
:100D0100759D01EF4488F5BC00000000E5BC30E4AE
:100D1100FB53BCEFAFBDEF75F004A4ADBE7C002D5D
:050D2100FFEC35F0FEBF
:010D260022AA
:100F0200C4E3BAC3A3A10080828486888A8C8183C9
:050F12008587898B8D2D
:090DE3000714320302140506177F
:100F6400E4FEC2B5EF1392B6EFC313FFD2B50EBEC3
:020F740008F083
:010F76002258
:100F1700C2CC00C2B500D2CC00120F64AF05120FCD
:040F270064C2CC22B2
:100C2C00E4FDC2CC0000C2B50000D2CC0000120F13
:100C3C0064E4FF30B603430580C2B5EDC313FD0079
:100C4C000000D2B50FBF08EBC2CC0000C2CCC2B5BD
:100C5C0000000000D2B50000C2B60000D2B6000001
:020C6C00AF05D2
:010C6E002263
:100F7700120C2CEFC4540F75F00AA4FEEF540F2E79
:010F8700FF6A
:010F88002246
:100C6F00E4FC74142CF8E6FF75F00A84C454F0FE0B
:100C7F00EF75F00A84EE25F0F60CBC07E5E4FD7F76
:100C8F008E120F17E4FCEC900F0993FF74142CF8DD
:100C9F00E6FD120F170CBC07ED7D807F8E020F173C
:10089C007F85120F778F4BE4FD7F03120DF7E54B2D
:1008AC0075F00A8475F00A84E5F02430FF120F3ECF
:1008BC00E54B75F00A84E5F02430FF120F3E7F3AC9
:1008CC00120F3E7F83120F778F4BE54B75F00A8426
:1008DC0075F00A84E5F02430FF120F3EE54B75F0FD
:1008EC000A84E5F02430FF120F3E7F81120F778FC0
:1008FC004B7F3A120F3EE54B75F00A8475F00A8473
:10090C00E5F02430FF120F3EE54B75F00A84E5F05C
:0F091C002430FF120F3E7BFF7A0F7902020E1775
:0A0DEC000121000532525332333268
:07103C007F0A7E00020EBBDB
:100B5700E4F54C752A02209107AF2A052AEF70F6B3
:100B670012103C12103C12103CE4F52F3091037523
:100B77002F01752A02309107AF2A052AEF70F6E593
:100B87002A64016013E53A25E0F53AE52F423A0574
:080B97004CE54CC3940840BB7F
:010B9F002233
:100A9600C2917F127E00120E54D29112103C121097
:100AA6003CD291209156752A02209107AF2A052A39
:100AB600EF70F6752A02309107AF2A052AEF70F615
:100AC600120B57853A37120B57853A38120B578552
:100AD6003A24120B57853A25120B57853A2ED29196
:100AE600E524252525372538F52FB52E0F853730F2
:0D0AF600853831852422852523852E2C226C
:0D1003005391DF4392205391BF439240224E
:05104800C295C29622D2
:05104D00D295D29622AD
:100E71000000000000000000000000000000000071
:090E810000000000000000002246
:0F0FD900D2EED2EF120E71C2EE120E71C2EF22E3
:0C101C00C2EED2EF120E71D2EE020E7185
:0E0FE800A20092EED2EF120E71C2EF020E7155
:0C102800D2EF120E71A2EEC2EF020E71A8
:100E8A00E4FEEF25E0FF92EED2EF120E71C2EF12EE
:090E9A000E710EBE08EC021028D6
:100E3600E4FFD2EEFEEF25E0FFD2EF120E71A2EE36
:0D0E4600E4334207C2EF120E710EBE08E841
:010E5300227C
:100EEB00AC07120FD97FD0120E8AAF04120E8AAF45
:070EFB0005120E8A02101C13
:020D9300AD07AA
:100D9500120FD97FD0120E8AAF05120E8A120FD903
:100DA5007FD1120E8A120E36D200120FE802101CE5
:100DB500E4FD7F6B120EEB7D077F19120EEB1D7F95
:100DC5001A120EEB7D187F1B120EEB7D017F1C02A4
:020DD5000EEB23
:020D7000AC07CE
:100D7200120D93AB07EC04FF120D93AD07AF03EF17
:100D82003395E0EFFEED3395E0FCE42DFFEE3CFE03
:010D9200223E
:0300000002092BC7
:0C092B00787FE4F6D8FD75814C0209725B
:100A2800BB010689828A83E0225002E722BBFE02CC
:090A3800E32289828A83E49322FF
:100A4100BC000BBE0029EF8DF084FFADF022E4CC99
:100A5100F875F008EF2FFFEE33FEEC33FCEE9DEC62
:100A6100984005FCEE9DFE0FD5F0E9E4CEFD22EDA8
:100A7100F8F5F0EE8420D21CFEADF075F008EF2FF2
:100A8100FFED33FD4007985006D5F0F222C398FDE3
:050A91000FD5F0EA2280
:10093700020B03E493A3F8E493A34003F68001F2C8
:1009470008DFF48029E493A3F85407240CC8C333C1
:10095700C4540F4420C8834004F456800146F6DF90
:10096700E4800B0102040810204080900DD7E47E3C
:10097700019360BCA3FF543F30E509541FFEE49385
:10098700A360010ECF54C025E060A840B8E493A34C
:10099700FAE493A3F8E493A3C8C582C8CAC583CA77
:1009A700F0A3C8C582C8CAC583CADFE9DEE780BE2F
:010DF60000FC
:00000001FF
