:106FB1004641465320206F6B0046525F4449534B74
:106FC1005F45525220206572720046525F4E4F5407
:106FD1005F524541445920206572720046525F4E0E
:106FE1004F5F46494C4520206572720046525F4E04
:106FF1004F545F4F50454E45442020657272004604
:10700100525F4E4F545F454E41424C4544202065EE
:1070110072720046525F4E4F5F46494C4553595379
:0970210054454D202065727200F7
:1077E900E4F594F593F592F591F596F595F5B2F5DD
:1077F900B1F5B4F5B3F5CAF5C9F5CCF5CBF5E2F5B4
:02780900E1227A
:105879001277E91259D51279E174FFFFFE126F30E0
:1058890012540F7B017A00790012269690022AEFB2
:10589900F0702374FF900259F0A3F0A3F0A3746F82
:1058A900F0A374B1F0A37410F0A37401F0E4FBFA4F
:1058B9007D92FC0259CE90022AE06401702674FFA1
:1058C900900259F0A3F0A3F0A3746FF0A374BAF097
:1058D900A37410F0A37401F07B007AF87D927C0028
:1058E900E40259CE90022AE06402702674FF900205
:1058F90059F0A3F0A3F0A3746FF0A374CBF0A374D1
:1059090010F0A37401F07B007AF87D927C00E40228
:1059190059CE90022AE06403702674FF900259F070
:10592900A3F0A3F0A3746FF0A374DDF0A37410F0D7
:10593900A37401F07B007AF87D927C00E40259CED1
:1059490090022AE06405702574FF900259F0A3F0D3
:10595900A3F0A3746FF0A374EDF0A37410F0A37413
:1059690001F07B007AF87D927C00E4805890022A4D
:10597900E06406702574FF900259F0A3F0A3F0A328
:105989007470F0A37400F0A37410F0A37401F07B99
:10599900007AF87D927C00E4802B90022AE064076B
:1059A900702874FF900259F0A3F0A3F0A37470F06B
:1059B900A37414F0A37410F0A37401F07B007AF8B7
:0C59C9007D927C00E4FFFE123CE680FEB4
:10782D00E4FDFCC3ED9FEC9E5016E4FBEBC394030B
:10783D007480948050030B80F30DBD00010C80E328
:01784D002218
:10784E00E4FDFCC3ED9FEC9E5016E4FBEBC39405E8
:10785E007480948050030B80F30DBD00010C80E307
:01786E0022F7
:087567009005A5EEF0A3EFF082
:10756F00E4A3F0A3F09005A5E0FEA3E0FFC3900510
:10757F00A8E09F9005A7E09E50157FFA7E00127835
:0F758F004EA3E004F070DE9005A7E004F080D674
:01759E0022CA
:08759F00900253EEF0A3EFF09F
:1075A700E4A3F0A3F0900253E0FEA3E0FFC3900230
:1075B70056E09F900255E09E50157FFA7E001278A4
:0F75C7004EA3E004F070DE900255E004F080D691
:0175D6002292
:10786F00E4FDFCC3ED9FEC9E5016E4FBEBC39401CB
:10787F007480948050030B80F30DBD00010C80E3E6
:01788F0022D6
:047A4A000000000038
:0A75D7004204540000420456FFFF76
:0F79B600C2E8C2C28FA0AF058F80D2C2D2E82232
:1078E700C2E8C2C47F017E0012786FAFA0EFFEAD81
:0778F70080EDFFD2C4D2E8CE
:0178FE002267
:0B79FA00AD07AC06C2E9ECFF0279B655
:057976001279FAE4FFA4
:0B797B00AD07AC06D2E9ECFF0279B6C4
:057A4000D2E90278E725
:0B7A0500AD07AC06D2E9ECFF0279B639
:10789000AA07ED54FC75F008A4FDEA54F845F0FE83
:0F78A000EDFFEB54F8131313541FFDEF4DFF22B0
:10702A00D2E9C2E8C2C47F017E0012786FAFA09095
:10703A0005BCE4F0A3EFF0E0FFAD80ED9005BCCF16
:10704A00F0A3EFF0D2C4C2C47F017E0012786FAF02
:10705A00A09005BCE4F0A3EFF0E0FFAD80ED900551
:10706A00BCCFF0A3EFF0D2C4C2C47F017E00127875
:10707A006FAFA0AD07EDAD80FCD2C4ECFB7A007C0B
:10708A00009005BDE0FD9005BCE0FF7E00EEF0A398
:07709A00EFF0D2E80278904C
:0E79C500AB05AA041279FAAE02AF0302797B79
:10746C00900579EBF0A3EAF0A3E9F01279FA75A094
:10747C00FF7580FF90057C74FFF5F0121B9B45F0A7
:10748C006019127A40900579E0FBA3E475F00112C3
:10749C001B9BA9F0FAEF121B3F80D975A0FF7580DA
:0274AC00FF22BD
:0B7A100090045FE0FEA3E0FF0279FAA3
:0B7A1B00900461E0FEA3E0FF0279FA96
:086F3000900253EEF0A3EFF014
:106F3800900459E024FFFB900458E034FFFA9004D1
:106F48005BE024FFFE90045AE034FF90027DF0A33A
:106F5800CEF0E4FDFCFFFE1271EFE4900255F0A3C1
:106F6800F0900458E0FEA3E0FFC3900256E09F9023
:106F78000255E09E5032E4FBFAD390045BE09B900C
:106F8800045AE09A4012900253E0FEA3E0FF127AFE
:106F9800050BBB00010A80E1900256E004F070C1C5
:086FA800900255E004F080B9ED
:016FB00022BE
:1076DB00AB07AA068D828C83C006C007AE83AF8230
:1076EB0090027DEEF0A3EFF0D007D0061271EF9071
:0A76FB000454E0FEA3E0FF027A054C
:0873E4009005BEEEF0A3EFF0EE
:1073EC00D3900459E09F900458E09E400DD3900434
:1073FC005BE09D90045AE09C5004E4FEFF22900553
:10740C00BEE0FEA3E0FF1278AF127A1B75A0FF75E9
:0B741C0080FF12702A75A0FF7580FF32
:017427002242
:1078CE007F327E0012759FC2EA7F327E0012759F54
:0978DE00D2EA7F327E0002759FA0
:1059D5001278CE7FF77E001279FA7FA912797B7F44
:1059E5005112797B7F2C12797B7F8212797B7FC064
:1059F5001279FA7F1112797B7F0912797B7FC112A7
:105A050079FA7F4112797B7FC51279767F0A1279FF
:105A15007B7F8012797B7FB11279FA7FB012797B17
:105A25007F1112797B7FB41279FA7F0212797B7F1D
:105A3500B61279FA7F0212797B7F2212797B7FB7C2
:105A45001279FA7FC612797B7FBE1279767F0412AE
:105A5500797B7FE91279767F361279FA7F08127998
:105A65007B7F3A1279FA7F5512797B7FE01279763E
:105A75007F0712797B7F1012797B7F0912797B7FF3
:105A85001712797B7F0B12797B7F4112797B7F8996
:105A950012797B7F4B12797B7F0A12797B7F0C12FF
:105AA500797B7F0E12797B7F1812797B7F1B1279A8
:105AB5007B7F0F12797B7FE11279767F1712797BD5
:105AC5007F1A12797B7F0412797B7F0E12797B7F97
:105AD5000612797B7F2F12797B7F4512797B7F4375
:105AE50012797B7F0212797B7F0A12797B7F0912FB
:105AF500797B7F3212797B7F3612797B7F0F127922
:105B05007B7F111279FA7F7812759F7F297E0012AB
:075B150079FA7F01026CE93F
:1071EF00900277EEF0A3EFF0A3ECF0A3EDF0900494
:1071FF0063E0FEA3E0FF1279FA900277E0FF7E00D2
:10720F0012797BA3E0FF12797BEAFF12797BAF0340
:10721F007E0012797B900465E0FEA3E0FF1279FAFD
:10722F00900279E0FF7E0012797BA3E0FF12797B59
:10723F0090027DE0FF12797BA3E0FF12797B027A47
:01724F00102E
:1078AF00AB07AA068D828C83C006C007AE83AF825A
:0F78BF0090027DEEF0A3EFF0D007D0060271EF3C
:106CE900900463E4F0A3742AF0A3E4F0A3742BF0F6
:106CF90090045FE4F0A3742CF0A3E4F0A3742EF0E5
:106D0900EF14602414603B14605324037072E49000
:106D1900045EF090045804F0A37440F0A37401F0E9
:106D2900A374E0F07D08804F90045E7401F0900434
:106D390058F0A374E0F0A37401F0A37440F07D68E7
:106D4900803590045E7402F090045814F0A37440E6
:106D5900F0A37401F0A374E0F07DC8801A90045E7A
:106D69007403F09004587401F0A374E0F0A3740163
:106D7900F0A37440F07DA87C007F367E001279C5AF
:016D890022E7
:1076440078A97C057D017BFF7A7A794A7E007F04E4
:10765400121AD37B017A0579A990057CE4F0A3740E
:1076640004F07FD37E0012746C9005ABE0FEA3E0BF
:03767400FDEDFF2A
:0176770022F0
:1079650049443A25730D0A004552520000000000B3
:017975000011
:1075E1004A05068150815881608168817041050595
:0175F1000099
:0C79EE00C2B212759F43B10453B2FB22D9
:10752E009005C6EFF0D2B2D2EB7F147E0012759F9B
:10753E00C2EBC2B27F147E0012759F9005C6E06446
:10754E00287003D38001C392B27F147E0012759F00
:09755E00D2EB7F147E0002759F40
:10795300C2EB7F0A7E0012759FD2EB7F0A7E000284
:02796300759F0E
:067A3400127A45027953AD
:0877C5009005C0EEF0A3EFF007
:1077CD0012793F7FBA12739D9005C0E0FF12739D31
:0B77DD009005C0A3E0FF12739D7F0128
:0177E800227E
:0B7705009005ADEEF0A3EFF0A3EDF057
:1077100012793F9005ADE0FEA3E0FF1277C590051A
:0B772000AFE0FF12739D1278FF7F01A5
:01772B00223B
:086EA8007B017D017F4E7E811C
:106EB00090055FEEF0A3EFF0A3EDF0A3EBF0A3EAF3
:046EC000F0A3E9F062
:106EC400E4A3F012793F90055FE0FEA3E0FF1277A0
:106ED400C512793F7F147E0012786F7FBB12739DB9
:106EE400E4900566F0900561E0FF900566E0FEC35E
:106EF4009F502EEF14B50604E4FF80027F01127246
:106F040050900562E0FBA3E0FAA3E0F9900566E087
:106F1400F582758300EF121B51900566E004F08042
:0B6F2400C41278FF9005657401F0FFB7
:016F2F00223F
:1068850078407C047D017BFF7A7979717E007F04F5
:10689500121AD3127A347FBA12752E7F327E001205
:1068A50079EE7B017A0479407D047F407E81126E0A
:1068B500B0900440E06439900380704B74FFF0A3FE
:1068C5007479F0A37465F0A37401F0A37404F0A3C4
:1068D5007440F07B017A04794412337F900459E0C7
:1068E50024C8FF900458E034FFFE90055B7401F066
:1068F500A37404F0A37444F0A37401F07B10E4FDC9
:10690500FC1269577F012274FFF0A37479F0A37418
:1069150065F0A37401F0A37404F0A37440F07B0147
:106925007A04794412337F900459E024C8FF900417
:1069350058E034FFFE90055B74FFF0A37479F0A373
:10694500746DF0A37401F07B10E4FDFC1269577FB0
:016955000041
:01695600221E
:10780B0078C77C057D017BFF7A7979757E007F01D6
:10781B00121AD37A0579C7126EA89005C7E0540FD8
:01782B00FF5D
:01782C002239
:1039CE00E4900551F0A3F0900555F0900505E00444
:1039DE00F0E0FF75F00A84E5F0600DC3EF940A7411
:1039EE008094804003023CA57A057955126EA8900A
:1039FE000555E030E718540FC39406748094805038
:103A0E000DE4900553F0FD7F4E7E811277059005F3
:103A1E0055E0540F7003023CA5C394067480948045
:103A2E004003023CA5E0540FFFF874FF088002C368
:103A3E0033D8FCFF900553F090043FE0900554F00E
:103A4E00EFF444C090043FF090042BE0FFA3E0900D
:103A5E000433CFF0A3EFF0A3E0FFA3E090043DCF3B
:103A6E00F0A3EFF0E4900551F0900551E0FFC39400
:103A7E0005748094804003023C147E007401A807F4
:103A8E00088005C333CE33CED8F9FF90043FE0FD56
:103A9E00EF5D7003023C0B900551E025E02406F526
:103AAE0082E43405F583E0FEA3E0FF7B017A05791D
:103ABE004D7D04126EB090045EE0FD703790054EA1
:103ACE00E0FE90054DE07A002400FFEA3EFE9005F0
:103ADE0051E0FC25E0242BF582E43404F583EEF06E
:103AEE00A3EFF0900550E0FE90054FE02400FFEAB2
:103AFE003E023BA4ED6401704690054EE0FE90053B
:103B0E004DE07C002400FFEC3EFEC390045BE09F82
:103B1E00FF90045AE09EFE900551E0FD25E024350D
:103B2E00F582E43404F583EEF0A3EFF0900550E057
:103B3E00FE90054FE07A002400FFEA3E023BF9902A
:103B4E00045EE0FD6402705B90054EE0FE90054D54
:103B5E00E07A002400FFEA3EFEC3900459E09FFF86
:103B6E00900458E09EFE900551E0FC25E0242BF5D4
:103B7E0082E43404F583EEF0A3EFF0900550E0FEFE
:103B8E0090054FE02400FFEA3EFEC390045BE09FE9
:103B9E00FF90045AE09EFEEC25E02435F582E434D5
:103BAE00048053ED6403705590054EE0FE90054D74
:103BBE00E07C002400FFEC3EFE900551E0FD25E088
:103BCE002435F582E43404F583EEF0A3EFF090058E
:103BDE0050E0FE90054FE07A002400FFEA3EFEC35F
:103BEE00900459E09FFF900458E09EFEED25E024DE
:103BFE002BF582E43404F583EEF0A3EFF09005513B
:103C0E00E004F0023A779005527401F0900458E007
:103C1E00FEA3E0FFD390042CE09F90042BE09E5077
:103C2E001490045AE0FEA3E0FF900436E09F900447
:103C3E0035E09E405D900555E0540FD3940174809D
:103C4E009480402090042DE0FFA3E090042BCFF051
:103C5E00A3EFF0900437E0FFA3E0900435CFF0A37C
:103C6E00EFF0802E900433E0FFA3E090042BCFF012
:103C7E00A3EFF090043DE0FFA3E0900435CFF0A356
:103C8E00EFF09005557480F0900554E090043FF0ED
:103C9E008005E4900505F0900555E0548F64807022
:103CAE002190043FE030E705547FF0801574FF90BB
:103CBE00042BF0A3F0900435F0A3F090043FE054F1
:103CCE00E0F0900505E0D394F07480948040037486
:073CDE000AF0900552E0FF1F
:013CE50022BC
:077A26007F017E0002786F72
:04791500C2EDE4FFDC
:10791900EF6401700543CB10800353CBEF53CCEFD9
:01792900223B
:057A4500D2EDD2EC229D
:10793F00E4FF127919D2ECD2ED127A26C2EC127A48
:04794F0026C2ED223D
:1078FF00E4FF127919C2EDC2EC127A26D2ED127A98
:06790F0026D2EC027A26EC
:10760F00E49005C8F07F01127919D2EC127A26D2D4
:10761F00ED127A2630EC1A9005C8E004F0E0D3940E
:10762F00FA7480948040ED1278FFE4FF1279190FFD
:04763F002212791585
:017643002224
:10798600127915C2EC127A26D2ED127A26C2ED22AF
:10799600127915D2EC127A26D2ED127A26C2ED228F
:05739D009005C2EFF0B5
:1073A200E4FF127919C2EDE4A3F09005C3E0C3949F
:1073B200087480948050289005C2E0FF5480FEC477
:1073C200131313540124FF92ECEF25E0F0D2ED12D7
:1073D2007A26C2ED127A269005C3E004F080CB0231
:0273E200760F24
:057250009005B0EFF015
:10725500E49005B2F07F01127919E49005B1F09040
:1072650005B1E0C39408748094805021C2ED7F017C
:107275007E0012784ED2ED9005B2E0FF25E0F030A9
:10728500EC03E004F09005B1E004F080D29005B085
:10729500E070051279968003127986E4FF12791958
:0572A5009005B2E0FFBE
:0172AA0022C1
:1075F20055042B0000000000000000000000000005
:08760200000000000000000080
:067A3A001268857F0022A6
:037A4E000239CE2C
:10777A00759D01EF4488F5BC00000000E5BC30E4CB
:10778A00FB53BCEFAFBDEF75F004A4ADBE7C002D7A
:05779A00FFEC35F0FEDC
:01779F0022C7
:04760A004105C9006D
:107302009002A9121EE3000000007FFF1279D3EF62
:10731200F47002FF229002A9E0FCA3E0FDA3E0FECC
:10732200A3E02401FFE43EFEE43DFDE43CFC9002C8
:10733200A9121ED774FFFFFEFD7C009002A9E0F89F
:10734200A3E0F9A3E0FAA3E0FBC3121DC240BB7F96
:017352000139
:017353002217
:077A2D00D2C67FFF0279D3EE
:1079A600C2C6127302EF7002FF22127A2D7F0122E5
:056B90009002A2EFF0ED
:106B9500E49002A8F0127A2D1279A6EF60037FFF28
:106BA50022D2C67FFF1279D37FFF1279D37FFF12DE
:106BB50079D3C2C69002A2E04440FF1279D3900275
:106BC500A3E0FCA3E0FDA3E0FEA3E0FF7818121DFF
:106BD500D31279D39002A3E0FCA3E0FDA3E0FEA3CA
:106BE500E0FF7810121DD31279D39002A3E0FCA325
:106BF500E0FDA3E0FEA3E0FF7808121DD31279D3D0
:106C05009002A3A3A3A3E0FF1279D39002A7E0FF0C
:106C15001279D39002A2E0640C70057FFF1279D33C
:106C25009002A8741FF07FFF1279D3EF30E70A9026
:096C350002A8E0FE14F0EE70ED7F
:016C3E002233
:10540F007F0312772CE4900292F0900292E0C39403
:10541F000A74809480500D7FFF1279D3900292E02E
:10542F0004F080E690028CE4F0A37414F09002A3D1
:10543F00121EE3000000009002A77495F0E4FF1223
:10544F006B9090028BEFF07E006401600CA374FFF1
:10545F00F5F0121B9B45F070D4E49005C9F0EF6492
:10546F00014E60030255829002A3121EE300000159
:10547F00AA9002A77487F07F08126B90EF64016007
:10548F0003025582900292F0900292E0C39404744A
:10549F00809480501C7FFF1279D3900292E0248E6B
:1054AF00F582E43402F583EFF0900292E004F0808D
:1054BF00D7900290E064016003025582A3E064AAD2
:1054CF00600302558290028C74FFF0A314F09002D7
:1054DF00A3121EE3000000009002A77401F07F37B3
:1054EF00126B909002A3121EE3400000009002A7DF
:1054FF007401F07F29126B9090028BEFF0600CA378
:10550F0074FFF5F0121B9B45F070C390028CE07096
:10551F0002A3E060599002A3121EE3000000009066
:10552F0002A77401F07F3A126B90EF7041900292D4
:10553F00F0900292E0C3940474809480501C7FFF1B
:10554F001279D3900292E0248EF582E43402F5832F
:10555F00EFF0900292E004F080D790028EE0900579
:10556F00C930E6057406F0800A7404F08005E490F3
:10557F0005C9F0127A2D9005C9E060037F002290D3
:09558F00028BE0FF6001227FAAFB
:0155980022F0
:106AD50090051B121ED790051FEBF0A3EAF0A3E962
:016AE500F0C0
:106AE600127A2D1279A6EF60037FFF229005C9E086
:106AF6006406601990051BE0FCA3E0FDA3E0FEA37D
:106B0600E0FF7809121DE690051B121ED790051BA3
:106B1600E0FCA3E0FDA3E0FEA3E0FF9002A3121EAB
:106B2600D79002A77401F07F11126B90900524EFA5
:106B3600F0704E7FFF1279D3EF64FE70F690052257
:106B4600F0A3F07FFF1279D390051FE0FBA3E0FAD4
:106B5600A3E0F9A3E0FCA3E0F5828C83EF121B51BE
:106B6600900523E004F07006900522E004F0C3903F
:106B76000522E0940240CC7FFF1279D37FFF127981
:096B8600D3127A2D900524E0FFE2
:016B8F0022E3
:0574AE009005B3EFF0B2
:1074B300A3740FF0A374FFF07FFF1279D39005B389
:1074C300E06F6018A3E07002A3E060109005B5E0E0
:1074D30024FFF09005B4E034FFF080DC9005B4E0C5
:0B74E3007002A3E070037FFF227F0017
:0174EE00227B
:10718500900593EBF0A3EAF0A3E9F0A3ECF0A3EDEF
:10719500F0C2C67FFE1274AEEF6005D2C67F012233
:1071A50090059674FFF5F0121B9B45F060207FFF5C
:1071B5001279D3900593E0FBA3E0FAA3E0F9EF126F
:1071C5001B3F900594E475F001121B8580D27FFF6B
:1071D5001279D37FFF1279D3900598E06401700787
:0A71E500D2C67FFF1279D37F00228B
:0B74EF009005B6EBF0A3EAF0A3E9F073
:1074FA009002A3121EE3000000009002A774FFF09E
:10750A007F09126B90EF6001229005B6E0FBA3E0C1
:10751A00FAA3E0F99005987401F07D107C001271CD
:03752A00857F005A
:01752D00223B
:105715007B017A0479151274EFEF6006E4FFFEFD54
:10572500FC22900415E054C06440707A90041DE09A
:10573500FFE4FCFDFE7808121DE6900425121ED735
:10574500900425E0F8A3E0F9A3E0FAA3E0FB9004B8
:105755001EE0FFEF2401FFE433FEE433FDE433FCF8
:10576500EB2FFFEA3EFEE93DFDE83CFC90042512E7
:105775001ED7900425E0FCA3E0FDA3E0FEA3E0FF17
:10578500E4FB7A04F9F8121C98900425121ED790B0
:105795000425E0FCA3E0FDA3E0FEA3E0FFE4FB7A23
:1057A50002F9F802586190041BE054037D00FCA344
:1057B500E02DFDE43CFCFEED7802C333CE33CED8BC
:1057C500F9FDAC0690041DE054C0C4131354032D19
:1057D500FDE43CFCA3E0540325E0FBA3E05480C4B6
:1057E50013131354012BFB0B0B900429E4F0A304B2
:1057F500F0EB601090042AE025E0F0900429E033F6
:10580500F01B80EDED2401FFE43CFE900429E0FC53
:10581500A3E0FD12203C900425121ED790041AE047
:10582500540F7C00FD900429E4F0A304F0ED4C60D6
:105835001490042AE025E0F0900429E033F0ED1DF2
:1058450070EB1C80E8900425E0F8A3E0F9A3E0FAEA
:10585500A3E0FBA3E0FEA3E0FFE4FCFD121C98908F
:105865000425121ED7900425E0FCA3E0FDA3E0FE6D
:03587500A3E0FFAE
:01587800220D
:0D79E10043A208E4F5CF75CDC075CED022CD
:0E79D3008FCFE5CD548060FA75CDC0AFCF22C6
:10772C00EF14600E1460121460162403701853CEFC
:10773C00FC2253CEFC43CE012253CEFC43CE02227C
:07774C0053CEFC43CE0322E3
:1000030000000000000000000000000000000404E5
:10001300040404040004000000140A0A00000000A1
:1000230000000000000014143F140A3F0A0A0000F5
:1000330000041E1505060C14150F0400000012150C
:100043000D0A142C2A1200000000040A0A1E1515BA
:100053000936000000020201000000000000000059
:1000630000201008080808080810200000020408EF
:10007300080808080804020000000004150E0E1505
:100083000400000000000404041F04040400000032
:100093000000000000000000000202010000000058
:1000A300001F00000000000000000000000000002E
:1000B3000002000000100808080404020202010004
:1000C30000000E1111111111110E000000000406A1
:1000D30004040404040E000000000E1111080402BD
:1000E300011F000000000E11100C1010110E000073
:1000F3000000080C0A0A091E0818000000001F016E
:10010300010F1010110E000000000E09010F111154
:10011300110E000000001F09080404040404000079
:1001230000000E11110E1111110E000000000E112E
:1001330011111E10120E0000000000000400000048
:10014300000400000000000000040000000404009C
:100153000020100804020408102000000000000022
:100163001F00001F000000000002040810201008F8
:100173000402000000000E11110804040004000032
:1001830000000E111915151D011E000000000404C6
:100193000C0A0A1E1233000000000F12120E121274
:1001A300120F000000001E1101010101110E0000D9
:1001B30000000F1212121212120F000000001F1281
:1001C3000A0E0A02121F000000001F120A0E0A0282
:1001D3000207000000001C1201013911120C00007B
:1001E30000003312121E12121233000000001F040B
:1001F30004040404041F000000003E080808080863
:1002030008090700000037120A060A0A123700001D
:100213000000070202020202223F000000001B1B33
:100223001B1B15151515000000003B1216161A1A94
:100233001217000000000E1111111111110E000010
:1002430000000F12120E02020207000000000E113E
:1002530011111117190E180000000F12120E0A12B5
:100263001237000000001E1101060810110F0000D4
:1002730000001F1504040404040E000000003312E0
:1002830012121212120C000000003312120A0A0C8E
:100293000404000000001515150E0A0A0A0A0000DE
:1002A30000001B0A0A04040A0A1B000000001B0AC0
:1002B3000A040404040E000000001F0908040402D9
:1002C300121F0000001C04040404040404041C00A2
:1002D300000202020404080808100000000E0808C7
:1002E3000808080808080E0000040A0000000000BF
:1002F3000000000000000000000000000000003FBC
:1003030000040000000000000000000000000000E6
:10031300000C121C123C000000000302020E121219
:10032300120E000000000000001C1202021C00005C
:1003330000001810101C1212123C000000000000F4
:10034300000C121E021C000000003804041E0404EA
:10035300041E000000000000003C120C021E221CC0
:1003630000000302020E1212123700000000040004
:1003730000060404040E000000000800000C080836
:100383000808080700000302023A0A0E12370000A9
:100393000000070404040404041F0000000000001C
:1003A300000F15151515000000000000000F1212B4
:1003B3001237000000000000000C1212120C0000A3
:1003C30000000000000F1212120E020700000000CE
:1003D300001C1212121C103800000000001B060241
:1003E3000207000000000000001E020C101E0000A7
:1003F30000000004040E04040418000000000000C0
:10040300001B1212123C0000000000000037120A09
:100413000C040000000000000015150E0A0A00007D
:1004230000000000001B0A040A1B0000000000007B
:100433000037120A0C04040300000000001E080425
:10044300041E00000018080808040808080818001B
:10045300080808080808080808080808000604042B
:100463000408040404040600022518000000000028
:100473000000000000000000000000000000000079
:100483000000000000000008080808080808000031
:100493001818000000486C2412000000000000003F
:1004A300000000000000002424247F1212127F1297
:1004B300121200000000081C2A2A0A0C1828282AF5
:1004C3002A1C080800000022251515152A58545423
:1004D300542200000000000C1212120A7625291182
:1004E300916E0000000606040300000000000000F7
:1004F3000000000000402010100808080808081039
:1005030010204000000204080810101010101008FA
:10051300080402000000000008086B1C1C6B08089C
:100523000000000000000000080808087F08080811
:1005330008000000000000000000000000000000B0
:10054300060604030000000000000000FE00000097
:100553000000000000000000000000000000000098
:100563000606000000008040402020101008080408
:100573000402020000000018244242424242424266
:1005830024180000000000080E08080808080808DE
:10059300083E00000000003C4242422020100804B4
:1005A300427E00000000003C4242201820404042AE
:1005B300221C0000000000203028242422227E2058
:1005C300207800000000007E0202021A264040420A
:1005D300221C0000000000382402021A2642424274
:1005E300241800000000007E2222101008080808CA
:1005F300080800000000003C424242241824424202
:10060300423C00000000001824424242645840402B
:10061300241C000000000000000018180000000067
:10062300181800000000000000000008000000008F
:100633000008080400000040201008040204081009
:10064300204000000000000000007F0000007F0049
:1006530000000000000000020408102040201008E1
:10066300040200000000003C4242464020101000FB
:10067300181800000000001C225A555555552D42EC
:10068300221C00000000000808181414243C224215
:1006930042E700000000001F2222221E22424242A3
:1006A300221F00000000007C4242010101010142BF
:1006B300221C00000000001F2242424242424242EA
:1006C300221F00000000003F4212121E12120242BB
:1006D300423F00000000003F4212121E12120202AB
:1006E300020700000000003C2222010101712122C7
:1006F300221C0000000000E7424242427E42424286
:1007030042E700000000003E08080808080808083F
:10071300083E00000000007C101010101010101094
:100723001010110F0000007722120A0E0A12122273
:100733002277000000000007020202020202020206
:10074300427F000000000077363636362A2A2A2AEE
:100753002A6B0000000000E346464A4A52525262A6
:10076300624700000000001C2241414141414141D8
:10077300221C00000000003F424242423E020202AD
:10078300020700000000001C2241414141414D533A
:10079300321C60000000003F4242423E12122222FD
:1007A30042C700000000007C42420204182040427D
:1007B300423E00000000007F4908080808080808B6
:1007C300081C0000000000E742424242424242420B
:1007D300423C0000000000E7424222242414141883
:1007E300080800000000006B494949495555362265
:1007F30022220000000000E74224241818182424B1
:1008030042E70000000000772222141408080808B9
:10081300081C00000000007E212010100804044280
:10082300423F00000078080808080808080808087C
:1008330008087800000002020404080808101020C9
:1008430020204040001E1010101010101010101027
:1008530010101E00003844000000000000000000DB
:100863000000000000000000000000000000000085
:10087300000000FF00060800000000000000000068
:1008830000000000000000000000003C42784442E9
:1008930042FC0000000000030202021A2642424208
:1008A300261A000000000000000000384402020283
:1008B3004438000000000060404040784442424217
:1008C30064D80000000000000000003C427E0202E9
:1008D300423C0000000000F08808087E0808080871
:1008E300083E0000000000000000007C22221C02E1
:1008F3003C42423C000000030202023A46424242AA
:1009030042E700000000000C0C00000E0808080875
:10091300083E000000000030300000382020202076
:100923002020221E0000000302020272120A161285
:10093300227700000000000E0808080808080808CD
:10094300083E0000000000000000007F9292929297
:1009530092B70000000000000000003B4642424204
:1009630042E70000000000000000003C4242424217
:10097300423C0000000000000000001B26424242EF
:10098300221E020700000000000000784442424299
:10099300447840E000000000000000774C040404A9
:1009A300041F0000000000000000007C42023C40E5
:1009B300423E0000000000000008083E0808080846
:1009C3000830000000000000000000634242424281
:1009D30062DC000000000000000000E74224241451
:1009E3000808000000000000000000EB49495555CD
:1009F30022220000000000000000007624181818CE
:100A0300246E000000000000000000E742242414CC
:100A130018080807000000000000007E22100808E4
:100A2300447E000000C02020202020102020202011
:100A33002020C000101010101010101010101010F3
:100A43001010101000060808080808100808080805
:100A5300080806000C32C20000000000000000007D
:100A630000000000C9EE000027FC140414A4811048
:100A730042084040104017FC2040E0E0215022484B
:100A83002C4620400040DBDA1104112411241124E8
:100A93001124FD24112411241124112411241D24B3
:100AA300E124422402040404CAD00200010000002D
:100AB3007FFC0100010001003FF821082108210803
:100AC30021082128211001000100C8AB000000000B
:100AD300018002400430180860061FF9010001007C
:100AE30001003FF80100010001007FFEB6AF0000E6
:100AF300000000203E20007C002200227F221022E2
:100B0300102212221222224223423D82009CB5E788
:100B13000000010001001FF0610C410441047FFC4F
:100B23004104410441047FFC01000102010201FC74
:100B3300D7D3000000003FF80010006000800100E0
:100B430000807FFE0040004000200020002018406D
:100B53000780BCBC00000000104013FE10407C4026
:100B6300104013FC1104190830885050106010D045
:100B730013087C06CAF500000100013001080100DA
:100B83007FFE018003400540052009101108210460
:100B9300410201000100D3D00000010002007FFEEA
:100BA300040008001FFC700490041FFC10041004D0
:100BB3001FFC10041004103CCFDE000000007BFC7F
:100BC3004A044A044BFC52044A044BFC4A404A443C
:100BD3007A2842304210420843C6B9AB00000000F5
:100BE30004400420081010101008210442020220BF
:100BF30004100810080810081FFC0004CBBE0000F6
:100C030000003FFC000400043FF400043FE4202400
:100C130020242024202420241FC40004007CBBB6ED
:100C23000000000000807EFC02A202A222A4152480
:100C330014240C300C300C481248228442840102E4
:100C4300D3AD000000002398246414440444644496
:100C5300144414441444144415C4125C1040284032
:100C630047FEC4FA00000000120013FE24222522CE
:100C7300652862242224242020E0050814842444C7
:100C8300241A47F2B4BF00000020102013FE2020D6
:100C930026244A247A241224222423FC7C200022A2
:100CA30004227822003CC9AB0000000004000FF0CE
:100CB300102020207FFC20842084208420843FF87F
:100CC3002000200220021FFECCEE00000000204086
:100CD30023FE204079FC220423FC220423FC22046B
:100CE30023FC3A0465FA01980204B3E4000001000E
:100CF30001007FFE02200410040808043FFC0442A4
:100D030004400440044208421042607EBED8000002
:100D13000000207E3E804880488048FE48827F82D3
:100D230008820C8214FA12842280218040FED0CEE5
:100D3300000000007F842208223022C02202220405
:100D43007FC8223022C222022204220822304040DD
:100D5300BBAD000000007FFE00000FF0111011106A
:100D6300111051125FF25112511251124FF24002FF
:100D73007FFCD4B2000000007FFE47E24812481215
:100D830047E24FF2501250125112511242924472E2
:100D9300580A3FFCC800000000007FFC0000000070
:100DA300000000003FF80000000000000000000009
:100DB300FFFE00000000BDC7080008001FE0202060
:100DC3004040BFF8210821083FF8210821083FF8D7
:100DD3002108410841288010CDBC000000003FFEDF
:100DE300440247F24C225362408243625E1A4182BC
:100DF3004062430240C240223FFCC6AC00000040B8
:100E03002040204020403FFE2000200020003FE003
:100E1300201020102010201040104010CFD40000CC
:100E230000003FFC200420043FFC200420041FF8A2
:100E330024441448144814480C5004407FFECABE8E
:100E4300000000003FFC0000000000007FFE008067
:100E530008900888108810842084208240820780AC
:100E6300B2CB0000002008207FFE002000783F88DE
:100E73001108089009207FFE018003400D30310CDA
:100E83004002B5A500000010081004203FF821041B
:100E930021043FFC210421043FF801007FFE0100EF
:100EA30001000100D6D000000100010001003FFC59
:100EB3002104210421042104210421043FFC010015
:100EC300010001000100D3A20000000008207FFE02
:100ED3000820092001003FF82108210821081FF4F8
:100EE300014002200C10700ECEC40000010001006E
:100EF30000803F7C081008100410042002200240E8
:100F03000180018002601C18E006D7DB00000000AE
:100F1300102011FE2202220249FC5800300013FE69
:100F23002528792401240D24722202A2BACF0000BD
:100F33000000018002400430180860061FF800001A
:100F43001FF8200420042004200420041FF8C1C13A
:100F53000000010001007FFE00003FF820083FF879
:100F63003FF8400647C24824082008221022603E6A
:100F7300B6C80000000000803FFE44105FFC441030
:100F8300441043F040005FF84408423041C04360DE
:100F9300BC1EB2E20000000067C2145205520552A3
:100FA300C55225520552055215521752228222422A
:100FB3004442483ECAD4000000002014101417FE17
:100FC30000120010601013F0109010901090149203
:100FD30014EA1F0A0006B3CC0000000019FE7202D7
:100FE300120212027DFC18001BFE3420502053FE17
:100FF30010201020102013FED0F20000000000800B
:101003003FFE400047FC4208413040C05FFE404283
:1010130040424044404840404440B5F7000000008F
:1010230023FE122202FA0222E22212FE1272128A14
:10103300128A128A16BA1A421202040EB9E2000088
:101043000100010411080908091009207FFE04406A
:10105300044004400440084208421042607CB0E669
:101063000000000048FE4900490049007EFE41821D
:101073004144794445284528451045284644038280
:10108300C8A800001000100013FC7D04110419040B
:10109300188434885048505010201050108813047E
:1010A3001402CBF9000000003F7C204020403E406A
:1010B300227E2244224422443E842084208440848D
:1010C30041044204C6C100003FF8200820083FF84D
:1010D300241022202FF8222022203FFC222042200D
:1010E300442084200820C4BB04407FFC04401FF03C
:1010F30010101FF010101FF00400FFFE11103FF836
:10110300D116115011200100D0002080108010FE54
:101113000100FE0021FC20243C2424A024A024BCA4
:1011230024A024A04560553E8A00D7AA2020202071
:101133002020FDFC4020504093FEFC40108011FC19
:101143001C04F0885050102010101010BFAA00008B
:101153007FFC08200820082008200820FFFE082024
:101163000820082008201020102020204020D4B47C
:10117300000027FE1420144085FC450445FC15049B
:1011830015FC2524E42024A829242A2230A0004089
:10119300D2BA0080204017FE11208120423C4244F5
:1011A300166412942348E2482230222022502288D7
:1011B3000306BEA70FE0082008200FE00820082040
:1011C3000FE000007EFC428442847EFC4284428421
:1011D3007EFC4284CDF800007FFC400440044214AE
:1011E30052944A54442444244A544A545294610421
:1011F300400440144008D5BE1020082008207E205B
:10120300003E04204420442025FC290429040F0423
:10121300F104410401FC0104B0B41040102010207B
:1012230013FEFA02144410401BFE3088D0881108C4
:1012330010D01020105050882304BCFC2010201024
:101243003B7C211441FE7A14A27C2710F97C2510E3
:1012530025FE22102A10350028FE0000D0A31040DE
:101263001020102011FEFC00108831043A0254882B
:101273005088905010501020105010881306D7BC7F
:1012830001404120212023FE022016201BFC1220B6
:10129300222023FCE2202220222023FE220002001F
:1012A300B4A520202020782049FC91247D245524B6
:1012B30055247DFC552454207C28542457FE450294
:1012C3008C00C3FE1110111017FC1110FC0013F851
:1012D300120817F81A0833F8D04017FC10A01110A1
:1012E30052082406B6C10020202011FC1020002043
:1012F30003FEF002109410501110109013FE1428E6
:10130300184410820302BACD04000E007800087C52
:101313000844FF44084418441C442A442A444844CB
:10132300887C084408000800D1D5100008FE7F100F
:101333002220147C7F444454485452544454485407
:1013430051544228442488423082D6B5084008408C
:101353000FFC1040104033F8320853F8920813F88A
:10136300120813F8120812081FFE1000C8DD02004D
:1013730001007FFE400288241110228804400820C7
:101383003018DFF61010101010101FF01010D6A731
:101393000100010001007FFC0100010001003FF09A
:1013A3001010082004400280010006C01830E00E2F
:1013B300B3D610201020102011FCFC20102013FEA7
:1013C3001008180833FED008108810481008502859
:1013D3002010B5E302000200020003FC0200020039
:1013E3003FF02010201020103FF0000024882244FA
:1013F30042448004D1A722081108111000207FFE67
:10140300400280041FE000400180FFFE0100010054
:10141300010005000200F3BB0FE010201FC00040D5
:10142300FFFE0C1073200DC072B00C8EF3207CF8FD
:1014330054A87CF81224FEFCBFC608101D10F090BF
:1014430010901010FD10109038903410501E53F06F
:1014530090101010101010101010C9EE00000000B2
:1014630000001000000800080C7FFC04401001C8B5
:10147300A002186042301832231812C3001403006C
:1014830004030C047FF0080F80080B4078136018E6
:10149300332018631818831C19030818030000036A
:1014A30000000000DBDA00000000000004100C0460
:1014B300180C04108C04108C04108C04108C04D0B1
:1014C3008C3F108C04108C04108C04108C04108C32
:1014D30004108C04108C05F08C0E208C78208C204A
:1014E300408C00808C01000C02000C000000CAD06C
:1014F3000000000000000030000018000018080081
:10150300001C1FFFE000180000182007FFF004185C
:10151300200418200418200418200418200418207C
:101523000418200418200418200418E004184000AC
:101533001800001800000000D6D0000000000000D2
:101543000000000000000018000018000018000050
:1015530018003FFFFE301806301806301806301802
:10156300063018063FFFFE3018060018000018006A
:101573000018000018000018000000000000000020
:101583000000CEC40000000000000000000038008E
:10159300001C00000600FFFFFF06003006003003BA
:1015A30000600300600180C000C18000E3000036DA
:1015B30000001C0000770003C1E01E003C60000730
:1015C300000000000000000000000000B2E2000084
:1015D3000000000000000000000040000321FF3372
:1015E300398333118333019B33C19B33719B33198C
:1015F3009B33019B33019B33119B3319B33330303E
:1016030033306C0330C6036383032E01BE00000036
:10161300000000000000CAD4000000000000000029
:10162300000000004000D83000CE1800C21C00C0EB
:1016330001FFFF0000C0F800C01800C019FFC01868
:1016430018401818601918601B18611E18311C1FE8
:10165300B139F01910000F00000000000000000075
:10166300D1A70000000060E00630F00738E003BDBA
:10167300C0039D801B9B8C1FFFFE38001E3800D8C3
:101683007FFFF02203E0000780001E00001C1C7F88
:10169300FFFE201C00001C00001C00001C0001FCBD
:1016A3000000F800003800000000F3BB0000000158
:1016B300C18001FFC003818003FF8003038C7FFF90
:1016C300FE20F0E007FBE03EFF0007FFC03CFFFE0B
:1016D30007CE7E3F7FCC03BDC83FFFFC3B7DDC3B99
:1016E3007DDC3FFFFC3BEDF80371DC7FFFFE3C3FFD
:1016F3000E000000D7D60000000000060000000323
:1017030000000000C0000001C0C0000107C00001CC
:10171300FF00021FFE0007F01C0007C070000F004F
:10172300E0000E03F0001C0FF0003C0F70003C00C3
:10173300E0001800C0000000C0000000C00000006E
:10174300600000002000000037000001FF00007F60
:10175300F80007F830001F8030000080300000C020
:101763003000006060000018E000000FC0000006B9
:10177300000000000000CCE50000000000000000B5
:10178300000000C0000000E0002001B800703FF836
:101793000061FFC000C3030001C60600038C0600FE
:1017A30003080C0006080C000E18183F1E101BF34C
:1017B3001F903F0700803C1C0190707C019060FEED
:1017C30001A0C3F801A00FD803A0081803600018F4
:1017D3000340001803C0001803800018030000181A
:1017E300000000180000001000000030000000306E
:1017F3000000000000000000B2E200000000000052
:1018030000000000000000000000020C1008071F89
:10181300F80403BFF00201BC300303EC3003015CA6
:10182300600300D8600300D860038098620361B846
:10183300430771B14306313243063376C3063A6434
:10184300C7063EECC0063E78C0063C3040067C70BE
:10185300000678E060067BFFF006F7C00006E400B0
:10186300000640000006000000060000007C0000A7
:101873008FF000007C0000000000CAD400000000CC
:10188300000000000000000000003F0000007F8017
:1018930000000180000000C0000000C0000000CE76
:1018A300038000CFFFC000DD41800FFE0007FFFC77
:1018B300000C00F000180FC03E19FF40F311BC608C
:1018C30083307FE003B1FE200333802003700030B8
:1018D300036000100360001807C0000C07C0000479
:1018E3000780000201000003000000010000000067
:1018F300000000000000000000000000D1A700006D
:101903000000000000000003840000038FC00003F8
:1019130083E0003FC1C0003FFFC00077EF8000EFCE
:10192300DF0001FD9F0003FBFF0000EFFF0000FF4E
:10193300FFF000FF3FFC0061FC3C0077E07E007F8E
:101943003EF80DFC7EC01FE3F8001D9FF000381F1A
:10195300E0007819F00070007F000007FF00000F1F
:10196300F000000470000000700000007000000030
:10197300E0000001E0000007C000001FC000F3BB4F
:1019830000000000000600000007E0000007F00070
:10199300000EF000001DE000001FC000003F9FC0CC
:1019A300007FFFC0007FE000001F3C0000FE1E0020
:1019B3000FFFBC000F3FFF8000FFFF8000FFF00020
:1019C300003E7000007EF000003FFFE0007FFFE07C
:1019D300007FBDC007F77F8003FFFF8003FFDF8029
:1019E30001FDFF0001FFF9C001FFF8E0007F3FF0B8
:1019F30001E33E380F83F8380E07E0380003800018
:10767800900529FEE0FCA3E0FD900528E02DFD9093
:0D7688000527E03CFC90052DE0FAA3E0FB97
:107695009005C4EAF0A3EBF01278AF9005C4E0FEC4
:0676A500A3E0FF027A05DC
:105D9F00900365E0FCA3E0FD900363E0FAA3E0FB52
:105DAF00A3E0FFA3E090046DCFF0A3EFF0900454B5
:105DBF00E0FFA3E090046FCFF0A3EFF0900361E05A
:045DCF00FEA3E0FF50
:0E5DD300900467EEF0A3EFF0A3ECF0A3EDF068
:105DE100900467E0FEA3E0FFC3EB9FFFEA9ECF2490
:105DF10001CF3400900475F0A3EFF0900469E0FE48
:105E0100A3E0FFC390046EE09FFF90046DE09ECF7E
:105E11002401CF3400900477F0A3EFF0900469E0FF
:105E2100FCA3E0FD90046DE0FFA3E090027DCFF0C4
:105E3100A3EFF0900467E0FEA3E0FF1271EFE4909E
:105E41000471F0A3F0900477E0FEA3E0FFC3900497
:105E510072E09F900471E09E5047E4900473F0A3B8
:105E6100F0900475E0FEA3E0FFC3900474E09F90FE
:105E71000473E09E501B90046FE0FEA3E0FF127AD2
:105E810005900474E004F070D8900473E004F0808D
:105E9100D0900472E004F070AC900471E004F080E2
:105EA100A4900459E024FFFB900458E034FFFA90D9
:105EB100045BE024FFFE90045AE034FF90027DF081
:0B5EC100A3CEF0E4FDFCFFFE0271EF39
:0E4EE5009003E2EEF0A3EFF0A3ECF0A3EDF0EB
:104EF300E49003ECF0A3F0A3F0A3F09003E2E0FE50
:104F0300A3E0FFC3EB9FFFEA9E9003F0F0A3EFF053
:104F13009003E4E0FAA3E0FBC39003E9E09BFE9077
:104F230003E8E09A9003F2F0A3CEF09003E2E0FFEF
:104F3300A3E09003FACFF0A3EFF0A3EAF0A3EBF022
:104F43009003F0E0FEA3E0FFD39400EE648094802E
:104F5300400A9003F6E4F0A304F08021EF4E7008BA
:104F63009003F6F0A3F0801574FF9003F6F0A3F01E
:104F7300C3E49FFFE49E9003F0F0A3EFF09003F2ED
:104F8300E0FEA3E0FFD39400EE64809480400A9097
:104F930003F8E4F0A304F08021EF4E70089003F8C7
:104FA300F0A3F0801574FF9003F8F0A3F0C3E49F1F
:104FB300FFE49E9003F2F0A3EFF09003F2E0FEA370
:104FC300E0FF9003F0E0FCA3E0FDD39FEE6480F8E4
:104FD300EC6480989003F44007ECF0A3EDF08005B7
:104FE300EEF0A3EFF0E49003EAF0A3F09003F5E012
:104FF3002401FF9003F4E03400FED39003EBE09F21
:105003009003EAE09E40030250CF9003FAE0FEA330
:10501300E0FFA3E0FCA3E0FD1276DB9003F0E0FEEB
:10502300A3E0FF9003EDE02FF09003ECE03EF0905F
:1050330003F2E0FEA3E0FF9003EFE02FF09003EE16
:10504300E03EF09003F4E0FEA3E0FF9003ECE0FC0D
:10505300A3E0FDD39FEE6480F8EC6480984020EDDC
:105063009FFFEC9E9003ECF0A3EFF09003F6E0FEBD
:10507300A3E0FF9003FBE02FF09003FAE03EF090F3
:1050830003F4E0FEA3E0FF9003EEE0FCA3E0FDD316
:105093009FEE6480F8EC6480984020ED9FFFEC9EC7
:1050A3009003EEF0A3EFF09003F8E0FEA3E0FF908F
:1050B30003FDE02FF09003FCE03EF09003EBE004EF
:0C50C300F070069003EAE004F0024FEFEA
:0150CF0022BE
:0E4AE5009003A5EEF0A3EFF0A3ECF0A3EDF02C
:104AF300E49003B3F0A3F0A3F0A3F09003A5E0FECA
:104B0300A3E0FFC3EB9FFFEA9E9003B7F0A3EFF090
:104B13009003A7E0FAA3E0FBC39003ACE09BFE90F5
:104B230003ABE09A9003B9F0A3CEF09003A5E0FFA6
:104B3300A3E09003C1CFF0A3EFF0A3EAF0A3EBF05F
:104B43009003B7E0FEA3E0FFD39400EE648094806B
:104B5300400A9003BDE4F0A304F08021EF4E7008F7
:104B63009003BDF0A3F0801574FF9003BDF0A3F094
:104B7300C3E49FFFE49E9003B7F0A3EFF09003B963
:104B8300E0FEA3E0FFD39400EE64809480400A909B
:104B930003BFE4F0A304F08021EF4E70089003BF3D
:104BA300F0A3F0801574FF9003BFF0A3F0C3E49F5C
:104BB300FFE49E9003B9F0A3EFF09003B9E0FEA3E6
:104BC300E0FF9003B7E0FCA3E0FDD39FEE6480F821
:104BD300EC6480989003BB4007ECF0A3EDF08005F4
:104BE300EEF0A3EFF0E49003B1F0A3F09003BCE088
:104BF3002401FF9003BBE03400FED39003B2E09F97
:104C03009003B1E09E4003024CEE9003C3E0FCA38B
:104C1300E0FD9003AFE0FAA3E0FB9003ADE0FFA358
:104C2300E090047FCFF0A3EFF0A3E4F0A304F090AF
:104C330003C1E0FEA3E0FF124CEF9003B7E0FEA335
:104C4300E0FF9003B4E02FF09003B3E03EF0900355
:104C5300B9E0FEA3E0FF9003B6E02FF09003B5E0C8
:104C63003EF09003BBE0FEA3E0FF9003B3E0FCA3A0
:104C7300E0FDD39FEE6480F8EC6480984020ED9FC4
:104C8300FFEC9E9003B3F0A3EFF09003BDE0FEA30F
:104C9300E0FF9003C2E02FF09003C1E03EF09003E9
:104CA300BBE0FEA3E0FF9003B5E0FCA3E0FDD39FD0
:104CB300EE6480F8EC6480984020ED9FFFEC9E90BA
:104CC30003B5F0A3EFF09003BFE0FEA3E0FF900372
:104CD300C4E02FF09003C3E03EF09003B2E004F091
:0B4CE30070069003B1E004F0024BEFFC
:014CEE0022A3
:106C3F0090056BEAF0A3EBF0900567EEF0A3EFF091
:106C4F00A3ECF0A3EDF0C007A3E0FAA3E0FB9005DF
:106C5F0069E0FFA3E09003E8CFF0A3EFF0D00712B5
:106C6F004EE5900567E0FAA3E0FBFFAE02C007A375
:106C7F00E0FCA3E0FD90056DE0FFA3E09003E8CFFB
:106C8F00F0A3EFF0D007124EE590056DE0FCA3E006
:106C9F00FD90056BE0FAA3E0FBA3E0FFA3E09003F8
:106CAF00E8CFF0A3EFF0900567E0FEA3E0FF124EF0
:106CBF00E590056BE0FAA3E0FBFFAE02C00790057D
:106CCF0069E0FCA3E0FD90056DE0FFA3E09003E811
:0A6CDF00CFF0A3EFF0D007024EE55E
:1077A000C007900575E0FFA3E090046DCFF0A3EF54
:1077B000F0900454E0FFA3E090046FCFF0A3EFF04B
:0577C000D007025DD3BB
:105C620090052BF0A3EFF090047DE0FFA3E09005F8
:0E5C72002DCFF0A3EFF0900479E0FEA3E0FF49
:105C8000900527ECF0A3EDF0900525EEF0A3EFF0E2
:105C9000900529EAF0A3EBF02FFFEE3AA312767BF2
:105CA000900529E0FEA3E0FFC3900526E09FFF904A
:105CB0000525E09EFE90052B12767C900529E0FEDE
:105CC000A3E0FF900526E02FFF900525E03EFE9023
:105CD000052BE0FCA3E0FDC3900528E09DFD9005A9
:105CE00027E09C12768C900529E0FEA3E0FFC3908C
:105CF0000526E09FFF900525E09EFE90052BE0FC29
:105D0000A3E0FDC3900528E09DFD900527E09C12CF
:105D1000768C90052BE0FEA3E0FF900526E02FFF98
:105D2000900525E03E12767890052BE0FEA3E0FF7B
:105D3000C3900526E09FFF900525E09E127678909F
:105D4000052BE0FEA3E0FF900526E02FFF90052540
:105D5000E03EFE900529E0FCA3E0FDC3900528E0AD
:105D60009DFD900527E09C12768C90052BE0FEA30C
:105D7000E0FFC3900526E09FFF900525E09EFE9082
:105D80000529E0FCA3E0FDC3900528E09DFD9005FA
:0F5D900027E09CFC90052DE0FAA3E0FB0276953E
:104CEF00900479EEF0A3EFF0A3ECF0A3EDF0A3EABC
:044CFF00F0A3EBF043
:104D0300E4900483F0A3F090047FE0FEA3E0FF901F
:104D13000485EEF0A3EFF025E0FFEE33FEC374034A
:104D23009F90048AF0E49E900489F0900481E070DF
:104D330002A3E07003024E32900485E0FEA3E0FF7D
:104D4300900483E0FCA3E0FDD39FEE6480F8EC6461
:104D530080984003024EE4900487ECF0A3EDF090BA
:104D63000485E0FEA3E0FFD3900488E09FEE648017
:104D7300F8900487E0648098502B90047BE0FCA3B8
:104D8300E0FD900483E0FAA3E0FB900487E0FFA337
:104D9300E0CF125C62900488E004F070C290048754
:104DA300E004F080BA900489E0FCA3E0FDC3EC6466
:104DB3008094805023900483E0FEA3E07802C33301
:104DC300CE33CED8F92DFFEC3ECF2406CF3400905E
:104DD3000489F0A3EFF08043900485E0FEA3E0FF95
:104DE300C3900484E09FFF900483E09EFEEF78026B
:104DF300C333CE33CED8F9FF90048AE02FFF90045B
:104E030089E03ECF240ACF3400F0A3EFF09004866C
:104E1300E024FFF0900485E034FFF0900484E00484
:104E2300F06003024D3B900483E004F0024D3B909D
:104E33000485E0FEA3E0FF900483E0FAA3E0FBD344
:104E43009FEE6480F8EA6480984003024EE4900485
:104E53007BE0FCA3E0FDEE125C62900489E0FCA31E
:104E6300E0FDC3EC648094805023900483E0FEA3B0
:104E7300E07802C333CE33CED8F92DFFEC3ECF24F6
:104E830006CF3400900489F0A3EFF08043900485AB
:104E9300E0FEA3E0FFC3900484E09FFF900483E05F
:104EA3009EFEEF7802C333CE33CED8F9FF90048A47
:104EB300E02FFF900489E03ECF240ACF3400F0A313
:104EC300EFF0900486E024FFF0900485E034FFF0D7
:104ED300900484E004F07006900483E004F0024E32
:014EE300329C
:014EE40022AB
:1070A1009004EDEEF0A3EFF0A3ECF0A3EDF0A3EA72
:1070B100F0A3EBF0C007A3E0FFA3E09003E8CFF05B
:1070C100A3EFF0D007124EE59004F3E0FCA3E0FD3E
:1070D100A3E0FAA3E0FBA3E0FFA3E09003E8CFF075
:1070E100A3EFF09004F1E0FEA3E0FF124EE590045F
:1070F100F7E0FCA3E0FD9004EDE0FAA3E0FBA3E0E0
:10710100FFA3E09003E8CFF0A3EFF09004F5E0FED9
:06711100A3E0FF024EE5C1
:1072AB0090059C7401F0A37403F0A3745BF07B0155
:0472BB007A03795782
:0B72BF00900599EBF0A3EAF0A3E9F0C2
:1072CA00121BB1FFAEF090059CE0FBA3E0FAA3E02D
:1072DA00F9121BB1FD900599E0FBA3E0FAA3E0F9CE
:1072EA00E5F08DF0121C4C90059CE0FBA3E0FAA39C
:0872FA00E0F9EE8FF0021C4CDC
:10219C00900355EEF0A3EFF0A3ECF0A3EDF0A3EA5F
:0421AC00F0A3EBF0C1
:1021B000900375121EE300000000900379121EE3E5
:1021C0000000000090035BE0FEA3E0FF900357E0F7
:1021D000FCA3E0D39FEC9E401A1272AB90059C7456
:1021E00001F0A37403F0A37459F07B017A037955CD
:1021F0001272BF90035FE0FEA3E0FF90035BE0FC80
:10220000A3E0D39FEC9E402E90059C7401F0A37434
:1022100003F0A3745BF07B017A03795F1272BF90C5
:10222000059C7401F0A37403F0A37459F07B017A48
:1022300003795D1272BF90035BE0FEA3E0FF9003A1
:1022400057E0FCA3E0D39FEC9E401A1272AB9005BE
:102250009C7401F0A37403F0A37459F07B017A031A
:1022600079551272BF90035FE0FEA3E0FF90035721
:10227000E0FCA3E0FD6F7002EC6E6003022344906B
:102280000355E0FEA3E0FF900363EEF0A3EFF090B0
:102290000361EEF0A3EFF0900361E0FEA3E0FF9096
:1022A0000359E0FAA3E0FBC39FEA9E500A90036142
:1022B000EAF0A3EBF0801E900363E0FEA3E0FFD3FF
:1022C000EB9FEA9E400F900359E0FFA3E090036369
:1022D000CFF0A3EFF0900361E0FEA3E0FF90035D79
:1022E000E0FAA3E0FBC39FEA9E500A900361EAF084
:1022F000A3EBF0801E900363E0FEA3E0FFD3EB9F0F
:10230000EA9E400F90035DE0FFA3E0900363CFF0EF
:10231000A3EFF0900363E0FAA3E0FB900357E0FF24
:10232000A3E090046DCFF0A3EFF0900454E0FFA37E
:10233000E090046FCFF0A3EFF0900361E0FEA3E024
:10234000FF025DD3900355E0FAA3E0FB900359E050
:10235000FEA3E0C39BFFEE9A900369F0A3EFF09019
:102360000357E0FEA3E0FF90035BE0FCA3E0C39F04
:10237000FFEC9E90036BF0A3EFF090035DE0FEA3F3
:10238000E0C39BFFEE9A90036DF0A3EFF09003572C
:10239000E0FEA3E0FF90035FE0FCA3E0C39FFFEC3F
:1023A0009E90036FF0A3EFF0900359E0FEA3E0FFCF
:1023B00090035DE0FCA3E0C39FFFEC9E900371F0EF
:1023C000A3EFF090035BE0FAA3E0FB90035FE0FC77
:1023D000A3E0FDC39BFEEC9A900373F0A3CEF0EB59
:1023E000B50510EAB5040C90035BFFA3E09003670A
:1023F000CF801090035BE0FEA3E024FFFFEE34FFEC
:10240000900367F0A3EFF0900357E0FFA3E0900381
:1024100065CFF0A3EFF0900367E0FEA3E0FF900329
:1024200065E0FCA3E0D39FEC9E40030225309003BF
:102430006BE0FEA3E0FBAA06EA3395E0F9F890030F
:1024400075E0FCA3E0FDA3E0FEA3E0FF127428907A
:102450000355E0FCA3E02FFFEC3E900361F0A3EFF7
:10246000F090036FE0FEA3E0FBAA06EA3395E0F9E3
:10247000F8900379E0FCA3E0FDA3E0FEA3E0FF12E7
:102480007428900355E0FCA3E02FFFEC3E9003631B
:10249000F0A3EFF0900375E0F8A3E0F9A3E0FAA34E
:1024A000E0FB900369E0FEA3E0FFEE3395E0FDFC66
:1024B000EB2FFFEA3EFEE93DFDE83CFC9003751280
:1024C0001ED7900379E0F8A3E0F9A3E0FAA3E0FBBC
:1024D00090036DE0FEA3E0FFEE3395E0FDFCEB2FF3
:1024E000FFEA3EFEE93DFDE83CFC900379121ED771
:1024F000900363E0FEA3E0FF900361E0FCA3E0D360
:102500009FEC9E401790059C7401F0A37403F0A308
:102510007463F07B017A0379611272BF125D9F9040
:102520000366E004F07006900365E004F0022416F0
:1025300090035BE0FEA3E0FF900365E0FAA3E0FBFD
:10254000C39FFFEA9EFE900371E0FCA3E0FD121B17
:1025500073E4FCFD900375121ED7900357E0FEA3B1
:10256000E0FFC3EB9FFFEA9EFE90036DE0FCA3E05B
:10257000FD121B73E4FCFD900379121ED790035FDC
:10258000E0FEA3E0FF900365E0FCA3E0D39FEC9E98
:102590004003022695900373E0FEA3E0FBAA06EA3F
:1025A0003395E0F9F8A3E0FCA3E0FDA3E0FEA3E08F
:1025B000FF127428900359E0FCA3E02FFFEC3E903B
:1025C0000361F0A3EFF090036FE0FEA3E0FBAA0627
:1025D000EA3395E0F9F8900379E0FCA3E0FDA3E08D
:1025E000FEA3E0FF127428900355E0FCA3E02FFF48
:1025F000EC3E900363F0A3EFF0900375E0F8A3E0E6
:10260000F9A3E0FAA3E0FB900371E0FEA3E0FFEE84
:102610003395E0FDFCEB2FFFEA3EFEE93DFDE83C93
:10262000FC900375121ED7900379E0F8A3E0F9A39C
:10263000E0FAA3E0FB90036DE0FEA3E0FFEE33952C
:10264000E0FDFCEB2FFFEA3EFEE93DFDE83CFC909F
:102650000379121ED7900363E0FEA3E0FF900361AD
:10266000E0FCA3E0D39FEC9E401790059C7401F022
:10267000A37403F0A37463F07B017A03796112728F
:10268000BF125D9F900366E004F07006900365E062
:0526900004F002257DAD
:012695002222
:1048CB00F090025FE090026DF0900257E0FAA3E0E7
:0148DB00FBE1
:1048DC00900263EEF0A3EFF0900267EAF0A3EBF026
:0848EC00900265ECF0A3EDF071
:1048F400900454E0FFA3E0900271CFF0A3EFF09096
:10490400026BE024E0F0A3E0F9C313FF7E00900201
:1049140063E0FAA3E02FFFEE3ACF24FFFBEF34FF6E
:10492400FAE9FFA3E0F8A3E02FFFEE38CF24FFCF8E
:1049340034FF90027DF0A3EFF0900263E0FEA3E069
:10494400FF1271EF90026DE060030249EC90026F78
:10495400F090026CE0FF90026FE0FEC39F40030200
:104964004AACEF640C701790026BE075F00CA42451
:1049740003F582E5F03400F583E5822E801A900277
:104984006FE0FF90026BE075F010A42477F582E5E8
:10499400F03404F583E5822FF582E43583F583E46E
:1049A4009390026EF0E4900270F090026CE0C313F6
:1049B400FF900270E0C39F502690026EE030E00545
:1049C4009002678003900269E0FEA3E0FF127A057B
:1049D40090026EE0C313F0900270E004F080CB907C
:1049E400026FE004F0024955E490026FF090026C0B
:1049F400E0FF90026FE0FEC39F4003024AACEF6405
:104A04000C701790026BE075F00CA42403F582E59A
:104A1400F03400F583E5822E801A90026FE0FF9057
:104A2400026BE075F010A42477F582E5F03404F508
:104A340083E5822FF582E43583F583E49390026E57
:104A4400F0E4900270F090026CE0C313FF900270E7
:104A5400E0FEC39F5049900267E0FDA3E090045438
:104A6400CDF0A3EDF090026EE030E024EEFF900272
:104A740064E02FFF900263E03400FE90026FE0FDDB
:104A8400900266E02DFD900265E03400FC1276DBB6
:104A940090026EE0C313F0900270E004F080A790DF
:104AA400026FE004F00249F1900271E0FFA3E0908C
:104AB4000454CFF0A3EFF0900459E024FFFB9004DA
:104AC40058E034FFFA90045BE024FFFE90045AE0BF
:104AD40034FF90027DF0A3CEF0E4FDFCFFFE0271F2
:014AE400EFE2
:10695700900556EEF0A3EFF0A3ECF0A3EDF0A3EB58
:10696700F090055BE0FBA3E0FAA3E0F9121AF9FF48
:10697700D3947E4003026A15EFC394205003026A42
:1069870015900459E024FFFD900458E034FFFC9073
:106997000556E0FEA3E0FFD39DEE9C507190045B8B
:1069A700E024FFFB90045AE034FFFA900558E0FC1E
:1069B700A3E0FDD39BEC9A5055900456E0FBA3E06F
:1069C700900269CBF0A3EBF090055BE0FBA3E0FA44
:1069D700121AF990026BF090055AE090026CF09051
:1069E700055EE090026DF09004541248D790055A66
:1069F700E0C313FF900557E02FF0900556E03400F1
:0F6A0700F090055CE475F001121B8502696822AE
:0873540090059FEFF0A3EDF09E
:10735C00A3121EE3000000019005A0E0FF14F0EF63
:10736C006020A3E0F8A3E0F9A3E0FAA3E0FB90050A
:10737C009FE0FFE4FCFDFE121C989005A1121ED7A5
:10738C0080D69005A1E0FCA3E0FDA3E0FEA3E0FF06
:01739C0022CE
:0E5FE0009004C6EEF0A3EFF0A3ECF0A3EDF0FA
:105FEE00E49004D2F09004D0F09004CEE0FF900440
:105FFE00D0E0FEC39F40030260F0C3EF9E14FD7F0E
:10600E000A127354A804A905AA06AB079004CAE0A5
:10601E00FCA3E0FDA3E0FEA3E0FF121D23E47B0A38
:10602E00FAF9F8121D239004D1EBF0A3E07057900B
:10603E0004CEE014FF9004D0E0FEC39F5048A3E0CE
:10604E00703E9004CFE0F9C3138EF0A4FF9004C706
:10605E00E02FFF9004C6E035F0FEC0079004C8E0C4
:10606E00FCA3E0FD900454E0FAA3E0FB900456E09C
:10607E00FFA3E0900269CFF0A3EFF0A37420804D50
:10608E009004D27401F09004CFE0F9C313FFA3E0A3
:10609E00FEEF8EF0A4FF9004C7E02FFF9004C6E041
:1060AE0035F0FEC0079004C8E0FCA3E0FD90045458
:1060BE00E0FAA3E0FB900456E0FFA3E0900269CF64
:1060CE00F0A3EFF09004D1E0243090026BF0A3E93E
:1060DE00F0E4A3F0D0071248DC9004D0E004F00204
:0260EE005FF75A
:0160F000228D
:1041DE00900265ECF0A3EDF0A3EAF0A3EBF09002F1
:0641EE0063EEF0A3EFF008
:1041F400900275EEF0A3EFF0900273E4F0A3744B19
:10420400F0E4900271F0A3F0900273E0FEA3E0FFEB
:10421400900271E0FCA3E0FDC39FEC9E40030244C6
:104224000390026BE0FBA3E0FAA3E0F9121AF9FF92
:10423400900A6775F022ED121F38EC75F022A42560
:1042440083F583E4936F60030243F2900001121B31
:1042540012FF900271A3E0900A6875F022121F38D1
:10426400EC75F022A42583F583E4936F6003024385
:10427400F2900263E0FAA3E0FBFFAE02C006C007BF
:10428400A3E0FCA3E0FDEB240FFBE43AFA90026503
:10429400E0FEA3E0240FFFE43E90027DF0A3EFF0E4
:1042A400D007D0061271EFE490026FF090026FE035
:1042B400C394207480948040030243F2E4A3F090FA
:1042C4000270E0FFC394087480948040030243E9C1
:1042D40090026EE0705AA3E0FE900271E0FCA3E04D
:1042E400900A6975F022121F38EC75F022A4258318
:1042F400F583E5822EF582E43583F583E493FD337B
:1043040095E0FC7E007480A807088006CEA2E7131F
:10431400CE13D8F8FFEE5CFEEF5D4E6005900267A9
:104324008003900269E0FEA3E0FF127A050243E0F5
:10433400900267E0FFA3E0900454CFF0A3EFF09065
:10434400026FE0FF900271E0FCA3E0900A6975F04F
:1043540022121F38EC75F022A42583F583E5822F01
:10436400F582E43583F583E493FD3395E0FC900214
:1043740070E0FF7E007480A807088006CEA2E713D1
:10438400CE13D8F8FFEE5CFEEF5D4E601190026331
:10439400E0FEA3E0FFA3E0FCA3E0FD1276DB9002C5
:1043A40064E004F07006900263E004F0900275E0AB
:1043B400FEA3E0FFC3900264E09FFD900263E09ED1
:1043C400FCED64104C7015EEF0A3EFF0900266E083
:1043D40004F07011900265E004F08009900270E02E
:1043E40004F00242C390026FE004F00242B0900273
:1043F40072E004F07006900271E004F002420C9046
:104404000459E024FFFB900458E034FFFA90045B65
:10441400E024FFFE90045AE034FF90027DF0A3CE26
:09442400F0E4FDFCFFFE0271EF63
:10442D00900265ECF0A3EDF0A3EAF0A3EBF090029F
:06443D0063EEF0A3EFF0B6
:10444300900275EEF0A3EFF0900273E4F0A3740909
:10445300F0E4900271F0A3F0900273E0FEA3E0FF9A
:10446300900271E0FCA3E0FDC39FEC9E4003024673
:104473005290026BE0FBA3E0FAA3E0F9121AF9FFF2
:1044830090145D75F04AED121F38EC75F04AA425BF
:1044930083F583E4936F6003024641900001121B8E
:1044A30012FF900271A3E090145E75F04A121F3858
:1044B300EC75F04AA42583F583E4936F6003024609
:1044C30041900263E0FAA3E0FBFFAE02C006C0071F
:1044D300A3E0FCA3E0FDEB2417FBE43AFA900265AA
:1044E300E0FEA3E02417FFE43E90027DF0A3EFF08B
:1044F300D007D0061271EFE490026FF090026FE0E4
:10450300C39448748094804003024641E4A3F0902E
:104513000270E0FFC394087480948040030246381D
:1045230090026EE0705AA3E0FE900271E0FCA3E0FB
:1045330090145F75F04A121F38EC75F04AA4258376
:10454300F583E5822EF582E43583F583E493FD3329
:1045530095E0FC7E007480A807088006CEA2E713CE
:10456300CE13D8F8FFEE5CFEEF5D4E600590026758
:104573008003900269E0FEA3E0FF127A0502462F52
:10458300900267E0FFA3E0900454CFF0A3EFF09014
:10459300026FE0FF900271E0FCA3E090145F75F0FE
:1045A3004A121F38EC75F04AA42583F583E5822F60
:1045B300F582E43583F583E493FD3395E0FC9002C3
:1045C30070E0FF7E007480A807088006CEA2E71380
:1045D300CE13D8F8FFEE5CFEEF5D4E6011900263E0
:1045E300E0FEA3E0FFA3E0FCA3E0FD1276DB900274
:1045F30064E004F07006900263E004F0900275E05A
:10460300FEA3E0FFC3900264E09FFD900263E09E7F
:10461300FCED64184C7015EEF0A3EFF0900266E029
:1046230004F07011900265E004F08009900270E0DC
:1046330004F002451290026FE004F00244FF90027E
:1046430072E004F07006900271E004F002445B90A3
:104653000459E024FFFB900458E034FFFA90045B14
:10466300E024FFFE90045AE034FF90027DF0A3CED5
:09467300F0E4FDFCFFFE0271EF12
:10467C00900265ECF0A3EDF0A3EAF0A3EBF090024E
:06468C0063EEF0A3EFF065
:10469200900275EEF0A3EFF0900273E4F0A37406BB
:1046A200F0E4900271F0A3F0900273E0FEA3E0FF49
:1046B200900271E0FCA3E0FDC39FEC9E4003024820
:1046C200A190026BE0FBA3E0FAA3E0F9121AF9FF52
:1046D2009016F775F082ED121F38EC75F082A42562
:1046E20083F583E4936F6003024890900001121BEC
:1046F20012FF900271A3E09016F875F082121F3833
:10470200EC75F082A42583F583E4936F600302487D
:1047120090900263E0FAA3E0FBFFAE02C006C0077E
:10472200A3E0FCA3E0FDEB241FFBE43AFA90026550
:10473200E0FEA3E0241FFFE43E90027DF0A3EFF031
:10474200D007D0061271EFE490026FF090026FE092
:10475200C39480748094804003024890E4A3F09054
:104762000270E0FFC394087480948040030248877B
:1047720090026EE0705AA3E0FE900271E0FCA3E0AA
:104782009016F975F082121F38EC75F082A4258319
:10479200F583E5822EF582E43583F583E493FD33D8
:1047A20095E0FC7E007480A807088006CEA2E7137D
:1047B200CE13D8F8FFEE5CFEEF5D4E600590026707
:1047C2008003900269E0FEA3E0FF127A0502487EB0
:1047D200900267E0FFA3E0900454CFF0A3EFF090C3
:1047E200026FE0FF900271E0FCA3E09016F975F011
:1047F20082121F38EC75F082A42583F583E5822F9F
:10480200F582E43583F583E493FD3395E0FC900271
:1048120070E0FF7E007480A807088006CEA2E7132E
:10482200CE13D8F8FFEE5CFEEF5D4E60119002638E
:10483200E0FEA3E0FFA3E0FCA3E0FD1276DB900222
:1048420064E004F07006900263E004F0900275E008
:10485200FEA3E0FFC3900264E09FFD900263E09E2E
:10486200FCED64204C7015EEF0A3EFF0900266E0D0
:1048720004F07011900265E004F08009900270E08B
:1048820004F002476190026FE004F002474E90028A
:1048920072E004F07006900271E004F00246AA9001
:1048A2000459E024FFFB900458E034FFFA90045BC3
:1048B200E024FFFE90045AE034FF90027DF0A3CE84
:0948C200F0E4FDFCFFFE0271EFC1
:103CE600900255ECF0A3EDF0A3EAF0A3EBF09002FE
:063CF60053EEF0A3EFF015
:103CFC00900260EEF0A3EFF0E4A3F090025BE0FB27
:103D0C00A3E0FAA3E0F9121AF97003023F7C9002C7
:103D1C0062E06003023E3D90025EE0FFC313FDC310
:103D2C00900459E09DFD900458E09400FCD390025F
:103D3C0054E09D900253E09C4003023F7CC39004EE
:103D4C005BE09FFF90045AE09400FED3900256E093
:103D5C009F900255E09E4003023F7C121AF9FF7EB1
:103D6C0000D394807480948040089002627401F0B7
:103D7C008089EF640D4E702E90025EE0FF9002562B
:103D8C00E02FF0900255E03400F0900260E0FFA3C9
:103D9C00E0900253CFF0A3EFF090025CE475F001D9
:103DAC00121B85023E3090025EE0D3941074809416
:103DBC0080900253E0FEA3E0FFA3E0FCA3E0FD90A3
:103DCC000259E0FBA3E0900269CB4024F0A3EBF096
:103DDC0090025BE0FBA3E0FAA3E0F9121AF990025F
:103DEC006BF0A374101248CB900254E02408802C82
:103DFC00F0A3EBF090025BE0FBA3E0FAA3E0F91276
:103E0C001AF990026BF090025EE090026C1248CBB3
:103E1C0090025EE0C313FF900254E02FF090025327
:103E2C00E03400F090025CE475F001121B85023D59
:103E3C000790025EE0F9FF7E00C3900459E09FFDFD
:103E4C00900458E09EFCD3900254E09D900253E005
:103E5C009C4003023F7CC390045BE09FFF90045A9C
:103E6C00E09EFE900255E0FCA3E0FDD39FEC9E404B
:103E7C0003023F7CE4900262F0E9642070429002FD
:103E8C0053E0FEA3E0FF900259E0FBA3E09002692F
:103E9C00CBF0A3EBF090025BE0F9A3E0FAA3E09087
:103EAC00026BC9F0A3EAF0A3E9F090025FE0900284
:103EBC006EF0900257E0FAA3E0FB12467C023F5DE5
:103ECC0090025EE064189002537044E0FEA3E0FFA1
:103EDC00A3E0FCA3E0FD900259E0FBA3E090026993
:103EEC00CBF0A3EBF090025BE0F9A3E0FAA3E09037
:103EFC00026BC9F0A3EAF0A3E9F090025FE0900234
:103F0C006EF0900257E0FAA3E0FB12442D8042E0E1
:103F1C00FEA3E0FFA3E0FCA3E0FD900259E0FBA3AD
:103F2C00E0900269CBF0A3EBF090025BE0F9A3E028
:103F3C00FAA3E090026BC9F0A3EAF0A3E9F09002B7
:103F4C005FE090026EF0900257E0FAA3E0FB1241A2
:103F5C00DE90025CE475F002121B8590025EE0FFBD
:103F6C00900254E02FF0900253E03400F0023D0731
:013F7C002222
:106D8A009004D3EEF0A3EFF0A3ECF0A3EDF0A3EAA6
:046D9A00F0A3EBF087
:106D9E009004DBE0FBA3E0FAA3E0F912792AEF7886
:106DAE0003C333CE33CED8F9FFC3900459E09FFF0F
:106DBE00900458E09EC313FEEF13FF9004D4E02F0F
:106DCE00FF9004D3E03EFE9004D5E0FCA3E0FD90DE
:106DDE0004D9E0FBA3E0900259CBF0A3EBF09004B2
:106DEE00DBE0F9A3E0FAA3E090025BC9F0A3EAF0BE
:106DFE00A3E9F09004DEE090025EF09004DFE090F4
:0E6E0E00025FF09004D7E0FAA3E0FB023CE63E
:1067B200900510EEF0A3EFF0900514EBF0A3EAF0D1
:0B67C200A3E9F0900512ECF0A3EDF04D
:1067CD00900510E0FAA3E0FFAE02C006C007242733
:1067DD00FBE43AFAA3E0FEA3E02427FFE43E900297
:1067ED007DF0A3EFF0D007D0061271EFE4900517FE
:1067FD00F0A3F0900518E025E0FF900517E033FEBB
:10680D00900514E0FBA3E0FAA3E0F98F828E8312CA
:10681D001B1290051AF0E92FF9EA3EFA90000112C9
:10682D001B12900519F0FEA3E0FDEDFF127A059005
:10683D000518E004F07006900517E004F0C390050C
:10684D0018E09440900517E06480948640A590046C
:10685D0059E024FFFB900458E034FFFA90045BE00C
:10686D0024FFFE90045AE034FF90027DF0A3CEF099
:08687D00E4FDFCFFFE0271EFD7
:037A510002540FCD
:0F559900900292EBF0A3EAF0A3E9F0A3121ED761
:1055A80090029D7401F0900295E0FCA3E0FDA3E059
:1055B800FEA3E0FF7809121DE69002A3121ED79001
:1055C80002A77401F07F11126B90EF600302570578
:1055D8007FFF1279D3EF64FE70F6900299E07002B3
:1055E800A3E06076E49002A0F0A3F0900299E0FEB8
:1055F800A3E0FFC39002A1E09F9002A0E09E501597
:105608007FFF1279D39002A1E004F070DE9002A02F
:10561800E004F080D6E49002A0F0A3F090029BE0B2
:10562800FEA3E0FFC39002A1E09F9002A0E09E507D
:105638006E7FFF1279D3900292E0FBA3E475F0012C
:10564800121B9BA9F0FAEF121B3F9002A1E004F095
:1056580070CA9002A0E004F080C2E49002A0F0A317
:10566800F090029BE0FEA3E0FFC39002A1E09F90B0
:1056780002A0E09E50297FFF1279D3900292E0FBAE
:10568800A3E475F001121B9BA9F0FAEF121B3F90DF
:1056980002A1E004F070CA9002A0E004F080C29079
:1056A8000299E0FEA3E0FFC3E49FFF74029EFEA3FD
:1056B800E0FCA3E0FDC3EF9DFFEE9C90029EF0A3EB
:1056C800EFF0E4A3F0A3F090029EE0FEA3E0FFC396
:1056D8009002A1E09F9002A0E09E50157FFF1279F2
:1056E800D39002A1E004F070DE9002A0E004F08004
:1056F800D67FFF1279D37FFF1279D3800690029D5F
:0C570800E0FF22127A2DE490029DF0FFD9
:015714002272
:1060F10090048E121ED790048BEBF0A3EAF0A3E973
:01610100F0AD
:106102009004927401F0EA494B60030261C1900469
:106112008EE0FCA3E0FDA3E0FEA3E0FFEC4D4E4FBA
:10612200607190048EA3A3A3E07809121DE6900289
:10613200A3121ED79002A77401F07F18126B9090E1
:106142000493EFF060030261FB7FFF1279D3EFF457
:10615200603A900496E0FCA3E0FDA3E0FEA3E024F5
:1061620001FFE43EFEE43DFDE43CFC900496121E79
:10617200D774FFFFFEFD7C00900496E0F8A3E0F9DF
:10618200A3E0FAA3E0FBC3121DC240BD7FFE127959
:10619200D380617FFF1279D37FFF1279D37FFF1201
:1061A20079D3900493EFF0541F64056005127A2DA1
:1061B20080477FFF1279D3EF60F8127A2D8035E4A1
:1061C200900494F0A3F090048BE0FBA3E475F0013B
:1061D200121B9BA9F0FA121AF9FF1279D3900495B7
:1061E200E004F07006900494E004F0C3900494E09C
:0E61F200940240D2E4900492F0900492E0FFF8
:01620000227B
:1076AB00900536EBF0A3EAF0A3E9F090053474FFF4
:1076BB00F5F0121B9B45F06016900536E0FBA3E43A
:0F76CB0075F001121B9BA9F0FAED121B3F80DC3A
:0176DA00228D
:107117009004C0EBF0A3EAF0A3E9F09004BBE0F918
:10712700A3E0FAA3E09004C3C9F0A3EAF0A3E9F04F
:10713700E4FFFE9004BE74FFF5F0121B9B45F06060
:107147003C9004C3E0FBA3E475F001121B9BA9F07C
:10715700FA121AF9FF3395E0FE9004C0E0FBA3E4AE
:1071670075F001121B9BA9F0FA121AF9FD3395E08D
:0D717700FCC3ED9FFDEC9EFEAF054D60B624
:0171840022E8
:06367F0090049A121ED710
:103685009005B9E0F9A3E0FAA3E09004A6C9F0A378
:10369500EAF0A3E9F0E47F02FEFDFC90049AE0F86D
:1036A500A3E0F9A3E0FAA3E0FBC3121DC2402590F5
:1036B50004A6E0FBA3E0FAA3E0F9900006121E19A8
:1036C50090049AE0F8A3E0F9A3E0FAA3E0FBC312A3
:1036D5001DC240030239C79004A6E0FBA3E0FAA38C
:1036E500E0F9121AF924FE7003023855147003022A
:1036F50038E2240260030239C790049AA3A3E0FFCD
:10370500A3E0A3CFF0A3EFF090049EE0C313FEA3C4
:10371500E013FFE02FF090049EE03EF0E0FEA3E012
:10372500FFEE5401FCAD07A3F0A3EDF0EEC313FFCC
:1037350090049EE4F0A3EFF0EDF47003EC640160F7
:103745004B9004A6E0FBA3E0FAA3E0F990000A126F
:103755001EA790049EE0FEA3E0FFEF2BFFEE3AFECE
:10376500E439FDE438FCA3E0FBA3E0900299CBF03B
:10377500A3EBF0A3E4F0A37402F07B017A0479A231
:10378500125599EF70030238200239C79004A6E05C
:10379500FBA3E0FAA3E0F990000A121EA790049E8D
:1037A500E0FEA3E0FFEF2BFFEE3AFEE439FDE4383F
:1037B500FC9002997401F0A374FFF0A3E4F0A30454
:1037C500F0FB7A0479A2125599EF60030239C7908C
:1037D50004A6E0FBA3E0FAA3E0F990000A121EA7F5
:1037E50090049EE0FEA3E0FFEF2BFFEE3AFEE439E6
:1037F500FDE438FCEF2401FFE43EFEE43DFDE43C3E
:10380500FCE4900299F0A3F0A3F0A304F0FB7A0482
:1038150079A3125599EF60030239C79004A3E0FE1E
:103825009004A2E0FDEDFBAA0690049AA3A3A3E0F1
:103835005401FFEF6011EAC4F854F0C868FEEBC408
:10384500540F48FF0238DEAF03EA540FFE0238DE9C
:103855009004A6E0FBA3E0FAA3E0F990000A121E8B
:1038650019C004C005C006C007E4FB7A01F9F89049
:10387500049AE0FCA3E0FDA3E0FEA3E0FF121D23F4
:10388500A804A905AA06AB07D007D006D005D00421
:10389500EB2FFFEA3EFEE93DFDE83CFCC006C00714
:1038A50090049AA3A3A3E025E0FEE433900299F0E7
:1038B500A3CEF0A3E4F0A37402F07B017A0479A20D
:1038C500D007D006125599EF60030239C79004A3BB
:1038D500E0FE9004A2E0FDEDFFE4FCFD229004A6CD
:1038E500E0FBA3E0FAA3E0F990000A121E19C00458
:1038F500C005C006C007E47B80FAF9F890049AE099
:10390500FCA3E0FDA3E0FEA3E0FF121D23A804A98C
:1039150005AA06AB07D007D006D005D004EB2FFFCC
:10392500EA3EFEE93DFDE83CFCC004C005C006C01A
:103935000790049AA3A3A3E07E00547F7802C333C3
:10394500CE33CED8F9FF900299EEF0A3EFF0A3E4C1
:10395500F0A37404F07B017A0479A2D007D006D0D5
:1039650005D004125599EF70599004A4E0FFE4FCCA
:10397500FDFE7810121DE6C004C005C006C007A3F1
:10398500E0FFE4FCFDFE7818121DE6D003D002D05E
:1039950001D000EF4BFFEE4AFEED49FDEC48FCA8D7
:1039A50004A905AA06AB079004A3E0FEEA4EFA9027
:1039B50004A2E0FFEB4FFFEAFEE9FDE8FCEC540F43
:0839C500FC22E47F01FEFDFC81
:0139CD0022D7
:0B6A1600E0FCA3E0FDA3E0FEA3E0FF16
:066A210090057E121ED755
:106A27009005B9E0FBA3E0FAA3E0F9900582EBF04B
:106A3700A3EAF0A3E9F090057EE0FCA3E0FDA3E064
:106A4700FEA3E0C39402FFEE9400FEED9400FDEC7C
:106A57009400FC90057E121ED7900006121E19EFB7
:106A670024FEFFEE34FFFEED34FFFDEC34FFFC9017
:106A7700057EE0F8A3E0F9A3E0FAA3E0FBC3121D4B
:106A8700C24006E4FFFEFDFC22900582E0FBA3E086
:106A9700FAA3E0F9900002121B12FFE4FCFDFE903E
:106AA700057EE0F8A3E0F9A3E0FAA3E0FB121C9847
:106AB700900582E0FBA3E0FAA3E0F9900012121E12
:0D6AC700A7EF2BFFEE3AFEED39FDEC38FC99
:016AD400229F
:085ECC00E0FBA3E0FAA3E0F9FA
:0B5ED400900539EBF0A3EAF0A3E9F021
:105EDF009005B9E0F9A3E0FAA3E0900540C9F0A35B
:105EEF00EAF0A3E9F0900539E0FBA3E0FAA3E0F9AB
:105EFF00E4F5F0121C4C900539E0FBA3E0FAA3E0A7
:105F0F00F9900005121E1990053C121ED7E47F016F
:105F1F00FEFDFC90053CE0F8A3E0F9A3E0FAA3E056
:105F2F00FBC3121DC26025900540E0FBA3E0FAA35E
:105F3F00E0F9900006121E1990053CE0F8A3E0F975
:105F4F00A3E0FAA3E0FBC3121DC240037F0122901E
:105F5F00053CE0FCA3E0FDA3E0FEA3E0FFEC4D4E0B
:105F6F004F701CA3E0FBA3E0FAA3E0F9121AF96447
:105F7F0003700C90000E121E1990053C121ED79044
:105F8F00053CE0FCA3E0FDA3E0FEA3E0FF90053994
:105F9F00E0FBA3E0FAA3E0F9900009121E63EC4DB9
:105FAF004E4F600890053C126A168011900540E034
:105FBF00FBA3E0FAA3E0F990000E121E1990053929
:105FCF00E0FBA3E0FAA3E0F990000D121E637F003F
:015FDF00229F
:08527C00E0FBA3E0FAA3E0F956
:0B5284009004F9EBF0A3EAF0A3E9F0BE
:10528F009005B9E0F9A3E0FAA3E0900502C9F0A3F5
:10529F00EAF0A3E9F09004F9E0FBA3E0FAA3E0F948
:1052AF00121BB12401FFE435F0FE900500F0A3EFCF
:1052BF00F04E600C90000D121E19EC4D4E4F700306
:1052CF007F0322900501E0540F60030253F4900016
:1052DF000D121E19EF2401FFE43EFEE43DFDE43CF8
:1052EF00FC90000D121E63900009121E19E4FBFAC8
:1052FF00F9F8C3121DC27026900502E0FBA3E0FA75
:10530F00A3E0F9900004121BDCFFC3900501E09F9E
:10531F00900500E095F050030253F47F03229005AF
:10532F0002E0FBA3E0FAA3E0F9900002121B1224A3
:10533F00FFFDE434FFFC900500E0C4F854F0C868AA
:10534F00FEA3E0C4540F48FFEE5CFEEF5D4E60031A
:10535F000253F49004F9E0FBA3E0FAA3E0F9900004
:10536F0009121E1912367F9004FC121ED7E47F011A
:10537F00FEFDFC9004FCE0F8A3E0F9A3E0FAA3E043
:10538F00FBD3121DC250037F0122900502E0FBA345
:10539F00E0FAA3E0F9900006121E199004FCE0F861
:1053AF00A3E0F9A3E0FAA3E0FBC3121DC240037F01
:1053BF0003229004FCE0FCA3E0FDA3E0FEA3E0FFCA
:1053CF009004F9E0FBA3E0FAA3E0F9900009121EA4
:1053DF0063126A219004F9E0FBA3E0FAA3E0F990CD
:1053EF00000D121E63900500E0F9A3E0FF9004F991
:0F53FF00E0FBA3E0FAA3E0C98FF0121C4C7F0083
:01540E00227B
:0B65EC00900585EBF0A3EAF0A3E9F0B6
:1065F700125ED490058BEFF06003E0FF22900585D3
:10660700E0FBA3E0FAA3E0F990000D121E19C00405
:10661700C005C006C007121BB17E00540F7805C322
:1066270033CE33CED8F9FF900299EEF0A3EFF0A363
:10663700E4F0A37420F0900588E0FBA3E0FAA3E060
:10664700F9D007D006D005D004125599EF60047F22
:106657000180027F0090058BEFF07067900588E05E
:10666700FBA3E0FAA3E0F9121AF9700890058B74FE
:1066770003F0804F90000B121B1220E336C003C0BB
:1066870002C001900585E0FBA3E0FAA3E0F99000C2
:1066970002121FB39004BBEBF0A3EAF0A3E9F0A347
:1066A700E4F0A3740BF0D001D002D003127117EFFE
:1066B7004E601090058512527C90058BEFF07003A9
:0866C70002660490058BE0FF60
:0166CF0022A8
:0B66D00090058CEBF0A3EAF0A3E9F0CA
:1066DB009005927403F090058CE0FBA3E0FAA3E025
:1066EB00F990000D121E19EC4D4E4F700302679579
:1066FB0090058CA3A3E090000D121E19C004C005D9
:10670B00C006C007121BB17E00540F7805C333CEF1
:10671B0033CED8F9FF900299EEF0A3EFF0A3E4F09B
:10672B00A37420F090058FE0FBA3E0FAA3E0F9D06F
:10673B0007D006D005D004125599EF60047F018075
:10674B00027F00900592EFF0704090058FE0FBA365
:10675B00E0FAA3E0F9121AF9FF700890059274039E
:10676B00F0802790000B121B12543FFEEF64E56084
:10677B0009EF642E6004EE30E31090058C12527C0E
:10678B00900592EFF070030266E1900592E0FF60D6
:10679B001590058CE0FBA3E0FAA3E0F990000D1235
:0667AB001F1400000000B5
:0167B10022C5
:10630E00900002121FB39004B2EBF0A3EAF0A3E9DF
:10631E00F0900534E4F0A3740BF07D207C0012762F
:10632E00ABE49004B1F09004B0F07F089004ACE0C0
:10633E00FBA3E0FAA3E0F9121F449004B5EBF0A31F
:10634E00EAF0A3E9F09004B5E0FBA3E0FAA3E0F9CC
:10635E009004B0E0FE04F08E82758300121B12FED4
:10636E00D394204052EE642F604DEE642E60079061
:10637E0004B1E09F4014EF6408703CEE642E703759
