:105232006F7574206F662072616E67652100646904
:105242007374616E63653A20202020434D00554CF3
:09525200545241205465737400AC
:104F830041018A00420184000044018600000000C0
:024F9300C10952
:1046AB00900184E0FCA3E0FDE4121BD17B9A7A9984
:1046BB0079D9783F121A26E4FBFA79207841121B3C
:1046CB002F121C0A900186122269E4900184F0A338
:1046DB00F07FBC7E02FDFCA3E0F8A3E0F9A3E0FAB7
:1046EB00A3E0FBC3122258500330092FC2099000DC
:1046FB003774FFF0A374E0F0A374FFF0A37452F0CF
:10470B00A37432F0A37410F0A37401F07B1F7A0032
:10471B007D1E7C007F147E00022F8D90003774FF6E
:10472B00F0A374E0F0A374FFF0A37452F0A37440F1
:10473B00F0A37410F0A37401F07B1F7A007D1E7C34
:10474B00007F147E00122F8D900186E0FCA3E0FD0C
:10475B00A3E0FEA3E0FF90003512226990003974AC
:10476B0004F0A37410F07D1E7C007F5C7E0012446D
:02477B00C72253
:03000B000253B5E8
:1053B500C0E0C083C082900185E004F070069001D2
:0B53C50084E004F0D082D083D0E032FE
:0C550800D2957F0A7E00125335C2952216
:1051D800E4F594F593F592F591F596F595F5B2F514
:1051E800B1F5B4F5B3F5CAF5C9F5CCF5CBF5E2F5EB
:1051F800E15391DF43922043B11053B2EFC295229D
:104D6D001251D81241167F0A7E001250CC74FFFFEB
:104D7D00FE124BFF7FC87E001250CC90003774FF9F
:104D8D00F0A374E0F0A374FFF0A37452F0A3745079
:104D9D00F0A37410F0A37401F07B1F7A00E4FDFC06
:104DAD007F14FE122F8D538E7F5389F0758AEC750B
:104DBD008CFFD2A9D2AF12550830B4FDD2A9D28C36
:104DCD0020B4FDC2A9C28C1246AB7F507E0012509A
:034DDD00CC80E3A4
:10531400E4FDFCC3ED9FEC9E5016E4FBEBC3940349
:105324007480948050030B80F30DBD00010C80E366
:015334002256
:10533500E4FDFCC3ED9FEC9E5016E4FBEBC3940526
:105345007480948050030B80F30DBD00010C80E345
:015355002235
:0850CC00900031EEF0A3EFF0BB
:1050D400E4A3F0A3F0900031E0FEA3E0FFC390004E
:1050E40034E09F900033E09E50157FFA7E00125307
:0F50F40035A3E004F070DE900033E004F080D6C6
:015103002289
:08510400900031EEF0A3EFF082
:10510C00E4A3F0A3F0900031E0FEA3E0FFC3900015
:10511C0034E09F900033E09E50157FFA7E001253CE
:0F512C0035A3E004F070DE900033E004F080D68D
:01513B002251
:10535600E4FDFCC3ED9FEC9E5016E4FBEBC3940109
:105366007480948050030B80F30DBD00010C80E324
:015376002214
:04556900000000003E
:0A4F95004200EA00004200ECFFFFBA
:0F54EB00C2E8C2C28FA0AF058F80D2C2D2E82222
:1053E900C2E8C2C47F017E00125356AFA0EFFEADE2
:0753F90080EDFFD2C4D2E8F1
:015400002289
:0B552000AD07AC06C2E9ECFF0254EB43
:0554BB00125520E4FF82
:0B54C000AD07AC06D2E9ECFF0254EB94
:05555F00D2E90253E94E
:0B552B00AD07AC06D2E9ECFF0254EB28
:10537700AA07ED54FC75F008A4FDEA54F845F0FEC1
:0F538700EDFFEB54F8131313541FFDEF4DFF22EE
:104C8000D2E9C2E8C2C47F017E00125356AFA090A1
:104C900001A2E4F0A3EFF0E0FFAD80ED9001A2CF20
:104CA000F0A3EFF0D2C4C2C47F017E00125356AF0E
:104CB000A09001A2E4F0A3EFF0E0FFAD80ED900141
:104CC000A2CFF0A3EFF0D2C4C2C47F017E00125382
:104CD00056AFA0AD07EDAD80FCD2C4ECFB7A007CF2
:104CE000009001A3E0FD9001A2E0FF7E00EEF0A3A2
:074CF000EFF0D2E802537758
:0E54FA00AB05AA04125520AE02AF030254C047
:1050510090018DEBF0A3EAF0A3E9F012552075A0C1
:10506100FF7580FF90019074FFF5F01220CD45F09F
:10507100601912555F90018DE0FBA3E475F00112F8
:1050810020CDA9F0FAEF12207180D975A0FF7580AB
:02509100FF22FC
:0B5536009000F5E0FEA3E0FF0255200E
:0B5541009000F7E0FEA3E0FF02552001
:084BFF00900031EEF0A3EFF08D
:104C07009000EFE024FFFB9000EEE034FFFA900005
:104C1700F1E024FFFE9000F0E034FF90005BF0A38A
:104C2700CEF0E4FDFCFFFE124DE0E4900033F0A36C
:104C3700F09000EEE0FEA3E0FFC3900034E09F9009
:104C47000033E09E5032E4FBFAD39000F1E09B90F2
:104C570000F0E09A4012900031E0FEA3E0FF125509
:104C67002B0BBB00010A80E1900034E004F070C117
:084C7700900033E004F080B965
:014C7F002212
:10520800AB07AA068D828C83C006C007AE83AF8227
:1052180090005BEEF0A3EFF0D007D006124DE090BF
:0A52280000EAE0FEA3E0FF02552BB0
:084FC9009001A4EEF0A3EFF04B
:104FD100D39000EFE09F9000EEE09E400DD3900053
:104FE100F1E09D9000F0E09C5004E4FEFF2290016E
:104FF100A4E0FEA3E0FF12539612554175A0FF7580
:0B50010080FF124C8075A0FF7580FF3F
:01500C002281
:1053D0007F327E00125104C2EA7F327E00125104F5
:0953E000D2EA7F327E0002510482
:104116001253D07FF77E001255207FA91254C07F1C
:10412600511254C07F2C1254C07F821254C07FC0DB
:104136001255207F111254C07F091254C07FC1123C
:1041460055207F411254C07FC51254BB7F0A1254BA
:10415600C07F801254C07FB11255207FB01254C068
:104166007F111254C07FB41255207F021254C07FB3
:10417600B61255207F021254C07F221254C07FB758
:104186001255207FC61254C07FBE1254BB7F041244
:1041960054C07FE91254BB7F361255207F08125453
:1041A600C07F3A1255207F551254C07FE01254BB8F
:1041B6007F071254C07F101254C07F091254C07F6B
:1041C600171254C07F0B1254C07F411254C07F890E
:1041D6001254C07F4B1254C07F0A1254C07F0C1277
:1041E60054C07F0E1254C07F181254C07F1B125445
:1041F600C07F0F1254C07FE11254BB7F171254C008
:104206007F1A1254C07F041254C07F0E1254C07F0E
:10421600061254C07F2F1254C07F451254C07F43EC
:104226001254C07F021254C07F0A1254C07F091272
:1042360054C07F321254C07F361254C07F0F1254BE
:10424600C07F111255207F781251047F297E0012FB
:0742560055207F010249B869
:104DE000900055EEF0A3EFF0A3ECF0A3EDF09000EF
:104DF000F9E0FEA3E0FF125520900055E0FF7E0091
:104E00001254C0A3E0FF1254C0EAFF1254C0AF0313
:104E10007E001254C09000FBE0FEA3E0FF1255207C
:104E2000900057E0FF7E001254C0A3E0FF1254C070
:104E300090005BE0FF1254C0A3E0FF1254C0025583
:014E4000363B
:10539600AB07AA068D828C83C006C007AE83AF8298
:0F53A60090005BEEF0A3EFF0D007D006024DE0D1
:1049B8009000F9E4F0A3742AF0A3E4F0A3742BF0B8
:1049C8009000F5E4F0A3742CF0A3E4F0A3742EF0A7
:1049D800EF14602414603B14605324037072E49055
:1049E80000F4F09000EE04F0A37440F0A37401F01A
:1049F800A374E0F07D08804F9000F47401F09000FB
:104A0800EEF0A374E0F0A37401F0A37440F07D68A5
:104A180080359000F47402F09000EE14F0A3744016
:104A2800F0A37401F0A374E0F07DC8801A9000F43C
:104A38007403F09000EE7401F0A374E0F0A3740125
:104A4800F0A37440F07DA87C007F367E001254FAF3
:014A5800223B
:1051710078987C017D017BFF7A5579697E007F04F7
:105181001220057B017A017998900190E4F0A374D3
:1051910004F07FD37E0012505190019AE0FEA3E00B
:0351A100FDEDFF22
:0151A40022E8
:1054AA0049443A25730D0A00455252000000000093
:0154BA0000F1
:104F9F004A013B8150815881608168817041013A9B
:014FAF000001
:0C551400C2B212510443B10453B2FB2296
:105093009001ACEFF0D2B2D2EB7F147E0012510438
:1050A300C2EBC2B27F147E001251049001ACE064E3
:1050B300287003D38001C392B27F147E001251047F
:0950C300D2EB7F147E00025104BF
:10549800C2EB7F0A7E00125104D2EB7F0A7E000223
:0254A8005104AD
:0655530012556402549899
:0852CE009001A6EEF0A3EFF041
:1052D6001254717FBA124F3C9001A6E0FF124F3C68
:0B52E6009001A6A3E0FF124F3C7F01E7
:0152F100229A
:0B525B0090019CEEF0A3EFF0A3EDF03B
:1052660012547190019CE0FEA3E0FF1252CE900111
:0B5276009EE0FF124F3C1254307F01FD
:01528100220A
:084B77007B017D017F4E7E8170
:104B7F0090016CEEF0A3EFF0A3EDF0A3EBF0A3EA3E
:044B8F00F0A3E9F0B6
:104B9300E4A3F012547190016CE0FEA3E0FF125203
:104BA300CE1254717F147E001253567FBB124F3CBA
:104BB300E4900173F090016EE0FF900173E0FEC397
:104BC3009F502EEF14B50604E4FF80027F01124EBE
:104BD3004190016FE0FBA3E0FAA3E0F9900173E0D9
:104BE300F582758300EF122083900173E004F08057
:0B4BF300C41254309001727401F0FFF6
:014BFE002294
:10477D0078D67C007D017BFF7A5479B67E007F046C
:10478D001220051255537FBA1250937F327E0012BC
:10479D0055147B017A0079D67D047F407E81124BC2
:1047AD007F9000D6E06439900003704B74FFF0A346
:1047BD007454F0A374AAF0A37401F0A37400F0A3D1
:1047CD0074D6F07B017A0079DA1228579000EFE069
:1047DD0024C8FF9000EEE034FFFE9001687401F0F4
:1047ED00A37400F0A374DAF0A37401F07B10E4FD60
:1047FD00FC12484F7F012274FFF0A37454F0A37490
:10480D00AAF0A37401F0A37400F0A374D6F07B0199
:10481D007A0079DA1228579000EFE024C8FF900053
:10482D00EEE034FFFE90016874FFF0A37454F0A322
:10483D0074B2F0A37401F07B10E4FDFC12484F7FBD
:01484D00006A
:01484E002247
:1052F20078AD7C017D017BFF7A5479BA7E007F0113
:105302001220057A0179AD124B779001ADE0540F6E
:01531200FF9B
:015313002277
:102C7500E490015EF0A3F0900162F090013AE00467
:102C8500F0E0FF75F00A84E5F0600DC3EF940A7477
:102C95008094804003022F4C7A017962124B779021
:102CA5000162E030E718540FC39406748094805095
:102CB5000DE4900160F0FD7F4E7E8112525B900124
:102CC50062E0540F7003022F4CC394067480948005
:102CD5004003022F4CE0540FFFF874FF088002C335
:102CE50033D8FCFF900160F09000D5E0900161F0D1
:102CF500EFF444C09000D5F09000C1E0FFA3E09050
:102D050000C9CFF0A3EFF0A3E0FFA3E09000D3CF7D
:102D1500F0A3EFF0E490015EF090015EE0FFC39454
:102D250005748094804003022EBB7E007401A807C1
:102D3500088005C333CE33CED8F9FF9000D5E0FD2A
:102D4500EF5D7003022EB290015EE025E0243BF5B5
:102D550082E43401F583E0FEA3E0FF7B017A01798B
:102D65005A7D04124B7F9000F4E0FD703790015BB3
:102D7500E0FE90015AE07A002400FFEA3EFE900151
:102D85005EE0FC25E024C1F582E43400F583EEF035
:102D9500A3EFF090015DE0FE90015CE02400FFEA06
:102DA5003E022E4BED6401704690015BE0FE900102
:102DB5005AE07C002400FFEC3EFEC39000F1E09F4A
:102DC500FF9000F0E09EFE90015EE0FD25E024CB43
:102DD500F582E43400F583EEF0A3EFF090015DE0B9
:102DE500FE90015CE07A002400FFEA3E022EA090EE
:102DF50000F4E0FD6402705B90015BE0FE90015A17
:102E0500E07A002400FFEA3EFEC39000EFE09FFF5A
:102E15009000EEE09EFE90015EE0FC25E024C1F509
:102E250082E43400F583EEF0A3EFF090015DE0FE5F
:102E350090015CE02400FFEA3EFEC39000F1E09FB4
:102E4500FF9000F0E09EFEEC25E024CBF582E43413
:102E5500008053ED6403705590015BE0FE90015ACC
:102E6500E07C002400FFEC3EFE90015EE0FD25E0E5
:102E750024CBF582E43400F583EEF0A3EFF0900166
:102E85005DE0FE90015CE07A002400FFEA3EFEC3AF
:102E95009000EFE09FFF9000EEE09EFEED25E02420
:102EA500C1F582E43400F583EEF0A3EFF090015E06
:102EB500E004F0022D1E90015F7401F09000EEE039
:102EC500FEA3E0FFD39000C2E09F9000C1E09E50BA
:102ED500149000F0E0FEA3E0FF9000CCE09F90008E
:102EE500CBE09E405D900162E0540FD39401748065
:102EF500948040209000C3E0FFA3E09000C1CFF094
:102F0500A3EFF09000CDE0FFA3E09000CBCFF0A3BE
:102F1500EFF0802E9000C9E0FFA3E09000C1CFF054
:102F2500A3EFF09000D3E0FFA3E09000CBCFF0A398
:102F3500EFF09001627480F0900161E09000D5F0AF
:102F45008005E490013AF0900162E0548F6480704E
:102F5500219000D5E030E705547FF0801574FF908F
:102F650000C1F0A3F09000CBF0A3F09000D5E054A1
:102F7500E0F090013AE0D394F074809480400374BB
:072F85000AF090015FE0FF7C
:012F8C002222
:07554C007F017E00025356AF
:04000E00C2EDE4FF5C
:10001200EF6401700543CB10800353CBEF53CCEF59
:0100220022BB
:05556400D2EDD2EC22A3
:10547100E4FF120012D2ECD2ED12554CC2EC1255DF
:045481004CC2ED220A
:10543000E4FF120012C2EDC2EC12554CD2ED12552F
:065440004CD2EC02554CB9
:10513C00E49001AEF07F01120012D2EC12554CD269
:10514C00ED12554C30EC1A9001AEE004F0E0D39423
:10515C00FA7480948040ED125430E4FF1200120F68
:04516C002212000EFD
:01517000221C
:1054CB0012000EC2EC12554CD2ED12554CC2ED220D
:1054DB0012000ED2EC12554CD2ED12554CC2ED22ED
:054F3C009001A8EFF058
:104F4100E4FF120012C2EDE4A3F09001A9E0C394C2
:104F5100087480948050289001A8E0FF5480FEC41A
:104F6100131313540124FF92ECEF25E0F0D2ED125C
:104F7100554CC2ED12554C9001A9E004F080CB02D2
:024F8100513CA1
:054E410090019FEFF05D
:104E4600E49001A1F07F01120012E49001A0F0901D
:104E560001A0E0C39408748094805021C2ED7F01C4
:104E66007E00125335D2ED9001A1E0FF25E0F0302F
:104E7600EC03E004F09001A0E004F080D290019FE2
:104E8600E070051254DB80031254CBE4FF120012CB
:054E96009001A1E0FF06
:014E9B0022F4
:104FB0005500C100000000000000000000000000DB
:084FC0000000000000000000E9
:0655590012477D7F0022D5
:03556D00022C7598
:10544600759850E4F589758E40758B8E758DFDD2F5
:065456008ED2ACD2AF22A1
:080003008F993099FDC299228A
:1054850012202BFF600C120003740129F9E43AFA8B
:0354950080EE2284
:10541900AF051DEF601012202BFF12000374012944
:07542900F9E43AFA80EA22DF
:0300230002540183
:06540100C0E0C083C08280
:0B540700309808C298900030E599F042
:07541200D082D083D0E0320C
:1000260000000000000000000000000000000404C2
:10003600040404040004000000140A0A000000007E
:1000460000000000000014143F140A3F0A0A0000D2
:1000560000041E1505060C14150F040000001215E9
:100066000D0A142C2A1200000000040A0A1E151597
:100076000936000000020201000000000000000036
:1000860000201008080808080810200000020408CC
:10009600080808080804020000000004150E0E15E2
:1000A6000400000000000404041F0404040000000F
:1000B6000000000000000000000202010000000035
:1000C600001F00000000000000000000000000000B
:1000D60000020000001008080804040202020100E1
:1000E60000000E1111111111110E0000000004067E
:1000F60004040404040E000000000E11110804029A
:10010600011F000000000E11100C1010110E00004F
:100116000000080C0A0A091E0818000000001F014A
:10012600010F1010110E000000000E09010F111131
:10013600110E000000001F09080404040404000056
:1001460000000E11110E1111110E000000000E110B
:1001560011111E10120E0000000000000400000025
:100166000004000000000000000400000004040079
:1001760000201008040204081020000000000000FF
:100186001F00001F000000000002040810201008D5
:100196000402000000000E1111080404000400000F
:1001A60000000E111915151D011E000000000404A3
:1001B6000C0A0A1E1233000000000F12120E121251
:1001C600120F000000001E1101010101110E0000B6
:1001D60000000F1212121212120F000000001F125E
:1001E6000A0E0A02121F000000001F120A0E0A025F
:1001F6000207000000001C1201013911120C000058
:1002060000003312121E12121233000000001F04E7
:1002160004040404041F000000003E08080808083F
:1002260008090700000037120A060A0A12370000FA
:100236000000070202020202223F000000001B1B10
:100246001B1B15151515000000003B1216161A1A71
:100256001217000000000E1111111111110E0000ED
:1002660000000F12120E02020207000000000E111B
:1002760011111117190E180000000F12120E0A1292
:100286001237000000001E1101060810110F0000B1
:1002960000001F1504040404040E000000003312BD
:1002A60012121212120C000000003312120A0A0C6B
:1002B6000404000000001515150E0A0A0A0A0000BB
:1002C60000001B0A0A04040A0A1B000000001B0A9D
:1002D6000A040404040E000000001F0908040402B6
:1002E600121F0000001C04040404040404041C007F
:1002F600000202020404080808100000000E0808A4
:100306000808080808080E0000040A00000000009B
:100316000000000000000000000000000000003F98
:1003260000040000000000000000000000000000C3
:10033600000C121C123C000000000302020E1212F6
:10034600120E000000000000001C1202021C000039
:1003560000001810101C1212123C000000000000D1
:10036600000C121E021C000000003804041E0404C7
:10037600041E000000000000003C120C021E221C9D
:1003860000000302020E12121237000000000400E1
:1003960000060404040E000000000800000C080813
:1003A6000808080700000302023A0A0E1237000086
:1003B6000000070404040404041F000000000000F9
:1003C600000F15151515000000000000000F121291
:1003D6001237000000000000000C1212120C000080
:1003E60000000000000F1212120E020700000000AB
:1003F600001C1212121C103800000000001B06021E
:100406000207000000000000001E020C101E000083
:1004160000000004040E040404180000000000009C
:10042600001B1212123C0000000000000037120AE6
:100436000C040000000000000015150E0A0A00005A
:1004460000000000001B0A040A1B00000000000058
:100456000037120A0C04040300000000001E080402
:10046600041E0000001808080804080808081800F8
:100476000808080808080808080808080006040408
:100486000408040404040600022518000000000005
:100496000000000000000000000000000000000056
:1004A600000000000000000808080808080800000E
:1004B6001818000000486C2412000000000000001C
:1004C600000000000000002424247F1212127F1274
:1004D600121200000000081C2A2A0A0C1828282AD2
:1004E6002A1C080800000022251515152A58545400
:1004F600542200000000000C1212120A762529115F
:10050600916E0000000606040300000000000000D3
:100516000000000000402010100808080808081015
:1005260010204000000204080810101010101008D7
:10053600080402000000000008086B1C1C6B080879
:100546000000000000000000080808087F080808EE
:10055600080000000000000000000000000000008D
:10056600060604030000000000000000FE00000074
:100576000000000000000000000000000000000075
:1005860006060000000080404020201010080804E5
:100596000402020000000018244242424242424243
:1005A60024180000000000080E08080808080808BB
:1005B600083E00000000003C424242202010080491
:1005C600427E00000000003C42422018204040428B
:1005D600221C0000000000203028242422227E2035
:1005E600207800000000007E0202021A26404042E7
:1005F600221C0000000000382402021A2642424251
:10060600241800000000007E2222101008080808A6
:10061600080800000000003C4242422418244242DE
:10062600423C000000000018244242426458404008
:10063600241C000000000000000018180000000044
:10064600181800000000000000000008000000006C
:1006560000080804000000402010080402040810E6
:10066600204000000000000000007F0000007F0026
:1006760000000000000000020408102040201008BE
:10068600040200000000003C4242464020101000D8
:10069600181800000000001C225A555555552D42C9
:1006A600221C00000000000808181414243C2242F2
:1006B60042E700000000001F2222221E2242424280
:1006C600221F00000000007C42420101010101429C
:1006D600221C00000000001F2242424242424242C7
:1006E600221F00000000003F4212121E1212024298
:1006F600423F00000000003F4212121E1212020288
:10070600020700000000003C2222010101712122A3
:10071600221C0000000000E7424242427E42424262
:1007260042E700000000003E08080808080808081C
:10073600083E00000000007C101010101010101071
:100746001010110F0000007722120A0E0A12122250
:1007560022770000000000070202020202020202E3
:10076600427F000000000077363636362A2A2A2ACB
:100776002A6B0000000000E346464A4A5252526283
:10078600624700000000001C2241414141414141B5
:10079600221C00000000003F424242423E0202028A
:1007A600020700000000001C2241414141414D5317
:1007B600321C60000000003F4242423E12122222DA
:1007C60042C700000000007C42420204182040425A
:1007D600423E00000000007F490808080808080893
:1007E600081C0000000000E74242424242424242E8
:1007F600423C0000000000E7424222242414141860
:10080600080800000000006B494949495555362241
:1008160022220000000000E742242418181824248D
:1008260042E7000000000077222214140808080896
:10083600081C00000000007E21201010080404425D
:10084600423F000000780808080808080808080859
:1008560008087800000002020404080808101020A6
:1008660020204040001E1010101010101010101004
:1008760010101E00003844000000000000000000B8
:100886000000000000000000000000000000000062
:10089600000000FF00060800000000000000000045
:1008A60000000000000000000000003C42784442C6
:1008B60042FC0000000000030202021A26424242E5
:1008C600261A000000000000000000384402020260
:1008D60044380000000000604040407844424242F4
:1008E60064D80000000000000000003C427E0202C6
:1008F600423C0000000000F08808087E080808084E
:10090600083E0000000000000000007C22221C02BD
:100916003C42423C000000030202023A4642424286
:1009260042E700000000000C0C00000E0808080852
:10093600083E000000000030300000382020202053
:100946002020221E0000000302020272120A161262
:10095600227700000000000E0808080808080808AA
:10096600083E0000000000000000007F9292929274
:1009760092B70000000000000000003B46424242E1
:1009860042E70000000000000000003C42424242F4
:10099600423C0000000000000000001B26424242CC
:1009A600221E020700000000000000784442424276
:1009B600447840E000000000000000774C04040486
:1009C600041F0000000000000000007C42023C40C2
:1009D600423E0000000000000008083E0808080823
:1009E600083000000000000000000063424242425E
:1009F60062DC000000000000000000E7422424142E
:100A06000808000000000000000000EB49495555A9
:100A160022220000000000000000007624181818AA
:100A2600246E000000000000000000E742242414A9
:100A360018080807000000000000007E22100808C1
:100A4600447E000000C020202020201020202020EE
:100A56002020C000101010101010101010101010D0
:100A660010101010000608080808081008080808E2
:100A7600080806000C32C20000000000000000005A
:100A860000000000C9EE000027FC140414A4811025
:100A960042084040104017FC2040E0E02150224828
:100AA6002C4620400040DBDA1104112411241124C5
:100AB6001124FD24112411241124112411241D2490
:100AC600E124422402040404CAD00200010000000A
:100AD6007FFC0100010001003FF8210821082108E0
:100AE60021082128211001000100C8AB00000000E8
:100AF600018002400430180860061FF90100010059
:100B060001003FF80100010001007FFEB6AF0000C2
:100B1600000000203E20007C002200227F221022BE
:100B2600102212221222224223423D82009CB5E765
:100B36000000010001001FF0610C410441047FFC2C
:100B46004104410441047FFC01000102010201FC51
:100B5600D7D3000000003FF80010006000800100BD
:100B660000807FFE0040004000200020002018404A
:100B76000780BCBC00000000104013FE10407C4003
:100B8600104013FC1104190830885050106010D022
:100B960013087C06CAF500000100013001080100B7
:100BA6007FFE01800340054005200910110821043D
:100BB600410201000100D3D00000010002007FFEC7
:100BC600040008001FFC700490041FFC10041004AD
:100BD6001FFC10041004103CCFDE000000007BFC5C
:100BE6004A044A044BFC52044A044BFC4A404A4419
:100BF6007A2842304210420843C6B9AB00000000D2
:100C0600044004200810101010082104420202209B
:100C160004100810080810081FFC0004CBBE0000D2
:100C260000003FFC000400043FF400043FE42024DD
:100C360020242024202420241FC40004007CBBB6CA
:100C46000000000000807EFC02A202A222A415245D
:100C560014240C300C300C481248228442840102C1
:100C6600D3AD000000002398246414440444644473
:100C7600144414441444144415C4125C104028400F
:100C860047FEC4FA00000000120013FE24222522AB
:100C9600652862242224242020E0050814842444A4
:100CA600241A47F2B4BF00000020102013FE2020B3
:100CB60026244A247A241224222423FC7C2000227F
:100CC60004227822003CC9AB0000000004000FF0AB
:100CD600102020207FFC20842084208420843FF85C
:100CE6002000200220021FFECCEE00000000204063
:100CF60023FE204079FC220423FC220423FC220448
:100D060023FC3A0465FA01980204B3E400000100EA
:100D160001007FFE02200410040808043FFC044280
:100D260004400440044208421042607EBED80000DF
:100D36000000207E3E804880488048FE48827F82B0
:100D460008820C8214FA12842280218040FED0CEC2
:100D5600000000007F842208223022C022022204E2
:100D66007FC8223022C222022204220822304040BA
:100D7600BBAD000000007FFE00000FF01110111047
:100D8600111051125FF25112511251124FF24002DC
:100D96007FFCD4B2000000007FFE47E248124812F2
:100DA60047E24FF2501250125112511242924472BF
:100DB600580A3FFCC8FD000000007FFC0000000050
:100DC600000000003FF800000000000000000000E6
:100DD600FFFE00000000BDC7080008001FE020203D
:100DE6004040BFF8210821083FF8210821083FF8B4
:100DF6002108410841288010CDBC000000003FFEBC
:100E0600440247F24C225362408243625E1A418298
:100E16004062430240C240223FFCC6AC0000004094
:100E26002040204020403FFE2000200020003FE0E0
:100E3600201020102010201040104010CFD40000A9
:100E460000003FFC200420043FFC200420041FF87F
:100E560024441448144814480C5004407FFECABE6B
:100E6600000000003FFC0000000000007FFE008044
:100E76000890088810881084208420824082078089
:100E8600B2CB0000002008207FFE002000783F88BB
:100E96001108089009207FFE018003400D30310CB7
:100EA6004002B5A500000010081004203FF82104F8
:100EB60021043FFC210421043FF801007FFE0100CC
:100EC60001000100D6D000000100010001003FFC36
:100ED6002104210421042104210421043FFC0100F2
:100EE600010001000100D3A20000000008207FFEDF
:100EF6000820092001003FF82108210821081FF4D5
:100F0600014002200C10700ECEC40000010001004A
:100F160000803F7C081008100410042002200240C4
:100F26000180018002601C18E006D7DB000000008B
:100F3600102011FE2202220249FC5800300013FE46
:100F46002528792401240D24722202A2BACF00009A
:100F56000000018002400430180860061FF80000F7
:100F66001FF8200420042004200420041FF8C1C117
:100F76000000010001007FFE00003FF820083FF856
:100F86003FF8400647C24824082008221022603E47
:100F9600B6C80000000000803FFE44105FFC44100D
:100FA600441043F040005FF84408423041C04360BB
:100FB600BC1EB2E20000000067C214520552055280
:100FC600C552255205520552155217522282224207
:100FD6004442483ECAD4000000002014101417FEF4
:100FE60000120010601013F01090109010901492E0
:100FF60014EA1F0A0006B3CC0000000019FE7202B4
:10100600120212027DFC18001BFE3420502053FEF3
:1010160010201020102013FED0F2000000000080E7
:101026003FFE400047FC4208413040C05FFE404260
:1010360040424044404840404440B5F7000000006C
:1010460023FE122202FA0222E22212FE1272128AF1
:10105600128A128A16BA1A421202040EB9E2000065
:101066000100010411080908091009207FFE044047
:10107600044004400440084208421042607CB0E646
:101086000000000048FE4900490049007EFE4182FA
:10109600414479444528452845104528464403825D
:1010A600C8A800001000100013FC7D0411041904E8
:1010B600188434885048505010201050108813045B
:1010C6001402CBF9000000003F7C204020403E4047
:1010D600227E2244224422443E842084208440846A
:1010E60041044204C6C100003FF8200820083FF82A
:1010F600241022202FF8222022203FFC22204220EA
:10110600442084200820C4BB04407FFC04401FF018
:1011160010101FF010101FF00400FFFE11103FF812
:10112600D116115011200100D0FD2080108010FE34
:101136000100FE0021FC20243C2424A024A024BC81
:1011460024A024A04560553E8A00D7AA202020204E
:101156002020FDFC4020504093FEFC40108011FCF6
:101166001C04F0885050102010101010BFAA000068
:101176007FFC08200820082008200820FFFE082001
:101186000820082008201020102020204020D4B459
:10119600000027FE1420144085FC450445FC150478
:1011A60015FC2524E42024A829242A2230A0004066
:1011B600D2BA0080204017FE11208120423C4244D2
:1011C600166412942348E2482230222022502288B4
:1011D6000306BEA70FE0082008200FE0082008201D
:1011E6000FE000007EFC428442847EFC42844284FE
:1011F6007EFC4284CDF800007FFC4004400442148B
:1012060052944A54442444244A544A5452946104FD
:10121600400440144008D5BE1020082008207E2037
:10122600003E04204420442025FC290429040F0400
:10123600F104410401FC0104B0B410401020102058
:1012460013FEFA02144410401BFE3088D0881108A1
:1012560010D01020105050882304BCFC2010201001
:101266003B7C211441FE7A14A27C2710F97C2510C0
:1012760025FE22102A10350028FE0000D0A31040BB
:101286001020102011FEFC00108831043A02548808
:101296005088905010501020105010881306D7BC5C
:1012A60001404120212023FE022016201BFC122093
:1012B600222023FCE2202220222023FE22000200FC
:1012C600B4A520202020782049FC91247D24552493
:1012D60055247DFC552454207C28542457FE450271
:1012E6008C00C3FE1110111017FC1110FC0013F82E
:1012F600120817F81A0833F8D04017FC10A011107E
:1013060052082406B6C10020202011FC102000201F
:1013160003FEF002109410501110109013FE1428C2
:10132600184410820302BACD04000E007800087C2F
:101336000844FF44084418441C442A442A444844A8
:10134600887C084408000800D1D5100008FE7F10EC
:101356002220147C7F4444544854525444544854E4
:1013660051544228442488423082D6B50840084069
:101376000FFC1040104033F8320853F8920813F867
:10138600120813F8120812081FFE1000C8DD02002A
:1013960001007FFE400288241110228804400820A4
:1013A6003018DFF61010101010101FF01010D6A70E
:1013B6000100010001007FFC0100010001003FF077
:1013C6001010082004400280010006C01830E00E0C
:1013D600B3D610201020102011FCFC20102013FE84
:1013E6001008180833FED008108810481008502836
:1013F6002010B5E302000200020003FC0200020016
:101406003FF02010201020103FF0000024882244D6
:1014160042448004D1A722081108111000207FFE43
:10142600400280041FE000400180FFFE0100010031
:10143600010005000200F3BB0FE010201FC00040B2
:10144600FFFE0C1073200DC072B00C8EF3207CF8DA
:1014560054A87CF81224FEFCBFC608101D10F0909C
:1014660010901010FD10109038903410501E53F04C
:1014760090101010101010101010C9EE000000008F
:1014860000001000000800080C7FFC04401001C892
:10149600A002186042301832231812C30014030049
:1014A60004030C047FF0080F80080B4078136018C3
:1014B600332018631818831C190308180300000347
:1014C60000000000DBDA00000000000004100C043D
:1014D600180C04108C04108C04108C04108C04D08E
:1014E6008C3F108C04108C04108C04108C04108C0F
:1014F60004108C04108C05F08C0E208C78208C2027
:10150600408C00808C01000C02000C000000CAD048
:10151600000000000000003000001800001808005D
:10152600001C1FFFE000180000182007FFF0041839
:101536002004182004182004182004182004182059
:101546000418200418200418200418E00418400089
:101556001800001800000000D6D0000000000000AF
:10156600000000000000001800001800001800002D
:1015760018003FFFFE3018063018063018063018DF
:10158600063018063FFFFE30180600180000180047
:1015960000180000180000180000000000000000FD
:1015A6000000CEC40000000000000000000038006B
:1015B600001C00000600FFFFFF0600300600300397
:1015C60000600300600180C000C18000E3000036B7
:1015D60000001C0000770003C1E01E003C6000070D
:1015E600000000000000000000000000B2E2000061
:1015F6000000000000000000000040000321FF334F
:10160600398333118333019B33C19B33719B331968
:101616009B33019B33019B33119B3319B33330301A
:1016260033306C0330C6036383032E01BE00000013
:10163600000000000000CAD4000000000000000006
:10164600000000004000D83000CE1800C21C00C0C8
:1016560001FFFF0000C0F800C01800C019FFC01845
:1016660018401818601918601B18611E18311C1FC5
:10167600B139F01910000F00000000000000000052
:10168600D1A70000000060E00630F00738E003BD97
:10169600C0039D801B9B8C1FFFFE38001E3800D8A0
:1016A6007FFFF02203E0000780001E00001C1C7F65
:1016B600FFFE201C00001C00001C00001C0001FC9A
:1016C6000000F800003800000000F3BB0000000135
:1016D600C18001FFC003818003FF8003038C7FFF6D
:1016E600FE20F0E007FBE03EFF0007FFC03CFFFEE8
:1016F60007CE7E3F7FCC03BDC83FFFFC3B7DDC3B76
:101706007DDC3FFFFC3BEDF80371DC7FFFFE3C3FD9
:101716000E000000D7D600000000000600000003FF
:1017260000000000C0000001C0C0000107C00001A9
:10173600FF00021FFE0007F01C0007C070000F002C
:10174600E0000E03F0001C0FF0003C0F70003C00A0
:10175600E0001800C0000000C0000000C00000004B
:10176600600000002000000037000001FF00007F3D
:10177600F80007F830001F8030000080300000C0FD
:101786003000006060000018E000000FC000000696
:10179600000000000000CCE5000000000000000092
:1017A600000000C0000000E0002001B800703FF813
:1017B6000061FFC000C3030001C60600038C0600DB
:1017C60003080C0006080C000E18183F1E101BF329
:1017D6001F903F0700803C1C0190707C019060FECA
:1017E60001A0C3F801A00FD803A0081803600018D1
:1017F6000340001803C000180380001803000018F7
:10180600000000180000001000000030000000304A
:101816000000000000000000B2E20000000000002E
:1018260000000000000000000000020C1008071F66
:10183600F80403BFF00201BC300303EC3003015C83
:10184600600300D8600300D860038098620361B823
:10185600430771B14306313243063376C3063A6411
:10186600C7063EECC0063E78C0063C3040067C709B
:10187600000678E060067BFFF006F7C00006E4008D
:10188600000640000006000000060000007C000084
:101896008FF000007C0000000000CAD400000000A9
:1018A600000000000000000000003F0000007F80F4
:1018B60000000180000000C0000000C0000000CE53
:1018C600038000CFFFC000DD41800FFE0007FFFC54
:1018D600000C00F000180FC03E19FF40F311BC6069
:1018E60083307FE003B1FE20033380200370003095
:1018F600036000100360001807C0000C07C0000456
:101906000780000201000003000000010000000043
:10191600000000000000000000000000D1A7000049
:101926000000000000000003840000038FC00003D5
:1019360083E0003FC1C0003FFFC00077EF8000EFAB
:10194600DF0001FD9F0003FBFF0000EFFF0000FF2B
:10195600FFF000FF3FFC0061FC3C0077E07E007F6B
:101966003EF80DFC7EC01FE3F8001D9FF000381FF7
:10197600E0007819F00070007F000007FF00000FFC
:10198600F00000047000000070000000700000000D
:10199600E0000001E0000007C000001FC000F3BB2C
:1019A60000000000000600000007E0000007F0004D
:1019B600000EF000001DE000001FC000003F9FC0A9
:1019C600007FFFC0007FE000001F3C0000FE1E00FD
:1019D6000FFFBC000F3FFF8000FFFF8000FFF000FD
:1019E600003E7000007EF000003FFFE0007FFFE059
:1019F600007FBDC007F77F8003FFFF8003FFDF8006
:101A060001FDFF0001FFF9C001FFF8E0007F3FF094
:101A160001E33E380F83F8380E07E03800038000F4
:1051A500900154FEE0FCA3E0FD900153E02DFD903D
:0D51B5000152E03CFC900158E0FAA3E0FB41
:1051C2009001AAEAF0A3EBF01253969001AAE0FE36
:0651D200A3E0FF02552BD3
:10439A0090006DE0FCA3E0FD90006BE0FAA3E0FB67
:1043AA00A3E0FFA3E0900103CFF0A3EFF09000EAAF
:1043BA00E0FFA3E0900105CFF0A3EFF0900069E0E1
:0443CA00FEA3E0FF6F
:0E43CE009000FDEEF0A3EFF0A3ECF0A3EDF0F5
:1043DC009000FDE0FEA3E0FFC3EB9FFFEA9ECF241D
:1043EC0001CF340090010BF0A3EFF09000FFE0FE42
:1043FC00A3E0FFC3900104E09FFF900103E09ECF78
:10440C002401CF340090010DF0A3EFF09000FFE0F9
:10441C00FCA3E0FD900103E0FFA3E090005BCFF074
:10442C00A3EFF09000FDE0FEA3E0FF124DE0E4905E
:10443C000107F0A3F090010DE0FEA3E0FFC3900193
:10444C0008E09F900107E09E5047E4900109F0A31B
:10445C00F090010BE0FEA3E0FFC390010AE09F90F7
:10446C000109E09E501B900105E0FEA3E0FF1255F0
:10447C002B90010AE004F070D8900109E004F08060
:10448C00D0900108E004F070AC900107E004F080DB
:10449C00A49000EFE024FFFB9000EEE034FFFA90D4
:1044AC0000F1E024FFFE9000F0E034FF90005BF0A0
:0B44BC00A3CEF0E4FDFCFFFE024DE08B
:0E3F2B009000A5EEF0A3EFF0A3ECF0A3EDF0F4
:103F3900E49000AFF0A3F0A3F0A3F09000A5E0FE99
:103F4900A3E0FFC3EB9FFFEA9E9000B3F0A3EFF05D
:103F59009000A7E0FAA3E0FBC39000ACE09BFE90C1
:103F690000ABE09A9000B5F0A3CEF09000A5E0FF79
:103F7900A3E09000BDCFF0A3EFF0A3EAF0A3EBF02C
:103F89009000B3E0FEA3E0FFD39400EE6480948038
:103F9900400A9000B9E4F0A304F08021EF4E7008C4
:103FA9009000B9F0A3F0801574FF9000B9F0A3F068
:103FB900C3E49FFFE49E9000B3F0A3EFF09000B537
:103FC900E0FEA3E0FFD39400EE64809480400A9061
:103FD90000BBE4F0A304F08021EF4E70089000BB11
:103FE900F0A3F0801574FF9000BBF0A3F0C3E49F29
:103FF900FFE49E9000B5F0A3EFF09000B5E0FEA3BA
:10400900E0FF9000B3E0FCA3E0FDD39FEE6480F8ED
:10401900EC6480989000B74007ECF0A3EDF08005C0
:10402900EEF0A3EFF0E49000ADF0A3F09000B8E05B
:104039002401FF9000B7E03400FED39000AEE09F6A
:104049009000ADE09E40030241159000BDE0FEA343
:10405900E0FFA3E0FCA3E0FD1252089000B3E0FEEC
:10406900A3E0FF9000B0E02FF09000AFE03EF090A9
:1040790000B5E0FEA3E0FF9000B2E02FF09000B1A0
:10408900E03EF09000B7E0FEA3E0FF9000AFE0FC57
:10409900A3E0FDD39FEE6480F8EC6480984020EDA6
:1040A9009FFFEC9E9000AFF0A3EFF09000B9E0FE07
:1040B900A3E0FF9000BEE02FF09000BDE03EF0903D
:1040C90000B7E0FEA3E0FF9000B1E0FCA3E0FDD360
:1040D9009FEE6480F8EC6480984020ED9FFFEC9E91
:1040E9009000B1F0A3EFF09000BBE0FEA3E0FF90D9
:1040F90000C0E02FF09000BFE03EF09000AEE00479
:0C410900F070069000ADE004F0024035BC
:014115002287
:0E3B2B00900085EEF0A3EFF0A3ECF0A3EDF018
:103B3900E4900093F0A3F0A3F0A3F0900085E0FED9
:103B4900A3E0FFC3EB9FFFEA9E900097F0A3EFF07D
:103B5900900087E0FAA3E0FBC390008CE09BFE9005
:103B6900008BE09A900099F0A3CEF0900085E0FFD9
:103B7900A3E09000A1CFF0A3EFF0A3EAF0A3EBF04C
:103B8900900097E0FEA3E0FFD39400EE6480948058
:103B9900400A90009DE4F0A304F08021EF4E7008E4
:103BA90090009DF0A3F0801574FF90009DF0A3F0A4
:103BB900C3E49FFFE49E900097F0A3EFF090009973
:103BC900E0FEA3E0FFD39400EE64809480400A9065
:103BD900009FE4F0A304F08021EF4E700890009F4D
:103BE900F0A3F0801574FF90009FF0A3F0C3E49F49
:103BF900FFE49E900099F0A3EFF0900099E0FEA3F6
:103C0900E0FF900097E0FCA3E0FDD39FEE6480F80D
:103C1900EC64809890009B4007ECF0A3EDF08005E0
:103C2900EEF0A3EFF0E4900091F0A3F090009CE097
:103C39002401FF90009BE03400FED3900092E09FA6
:103C4900900091E09E4003023D349000A3E0FCA364
:103C5900E0FD90008FE0FAA3E0FB90008DE0FFA368
:103C6900E0900115CFF0A3EFF0A3E4F0A304F090E6
:103C790000A1E0FEA3E0FF123D35900097E0FEA30E
:103C8900E0FF900094E02FF0900093E03EF0900068
:103C990099E0FEA3E0FF900096E02FF0900095E0F8
:103CA9003EF090009BE0FEA3E0FF900093E0FCA3B0
:103CB900E0FDD39FEE6480F8EC6480984020ED9F8E
:103CC900FFEC9E900093F0A3EFF090009DE0FEA31F
:103CD900E0FF9000A2E02FF09000A1E03EF09000FC
:103CE9009BE0FEA3E0FF900095E0FCA3E0FDD39FDD
:103CF900EE6480F8EC6480984020ED9FFFEC9E9084
:103D09000095F0A3EFF090009FE0FEA3E0FF900084
:103D1900A4E02FF09000A3E03EF0900092E004F0C0
:0B3D29007006900091E004F0023C35B1
:013D3400226C
:10490E00900178EAF0A3EBF0900174EEF0A3EFF0D3
:10491E00A3ECF0A3EDF0C007A3E0FAA3E0FB900137
:10492E0076E0FFA3E09000ABCFF0A3EFF0D007123C
:10493E003F2B900174E0FAA3E0FBFFAE02C007A389
:10494E00E0FCA3E0FD90017AE0FFA3E09000ABCF86
:10495E00F0A3EFF0D007123F2B90017AE0FCA3E01A
:10496E00FD900178E0FAA3E0FBA3E0FFA3E0900046
:10497E00ABCFF0A3EFF0900174E0FEA3E0FF123F87
:10498E002B900178E0FAA3E0FBFFAE02C007900186
:10499E0076E0FCA3E0FD90017AE0FFA3E09000AB8F
:0A49AE00CFF0A3EFF0D007023F2B7B
:1052A900C007900182E0FFA3E0900103CFF0A3EFD4
:1052B900F09000EAE0FFA3E0900105CFF0A3EFF042
:0552C900D0070243CEF6
:10425D00900156F0A3EFF0900113E0FFA3E0900161
:0E426D0058CFF0A3EFF090010FE0FEA3E0FFAA
:10427B00900152ECF0A3EDF0900150EEF0A3EFF0B3
:10428B00900154EAF0A3EBF02FFFEE3AA31251A8E2
:10429B00900154E0FEA3E0FFC3900151E09FFF901B
:1042AB000150E09EFE9001561251A9900154E0FE80
:1042BB00A3E0FF900151E02FFF900150E03EFE90F4
:1042CB000156E0FCA3E0FDC3900153E09DFD90017E
:1042DB0052E09C1251B9900154E0FEA3E0FFC39051
:1042EB000151E09FFF900150E09EFE900156E0FCD3
:1042FB00A3E0FDC3900153E09DFD900152E09C12A1
:10430B0051B9900156E0FEA3E0FF900151E02FFF61
:10431B00900150E03E1251A5900156E0FEA3E0FF44
:10432B00C3900151E09FFF900150E09E1251A59068
:10433B000156E0FEA3E0FF900151E02FFF900150EA
:10434B00E03EFE900154E0FCA3E0FDC3900153E07E
:10435B009DFD900152E09C1251B9900156E0FEA3D5
:10436B00E0FFC3900151E09FFF900150E09EFE9053
:10437B000154E0FCA3E0FDC3900153E09DFD9001CF
:0F438B0052E09CFC900158E0FAA3E0FB0251C203
:103D350090010FEEF0A3EFF0A3ECF0A3EDF0A3EAF2
:043D4500F0A3EBF00C
:103D4900E4900119F0A3F0900115E0FEA3E0FF90C3
:103D5900011BEEF0A3EFF025E0FFEE33FEC3740381
:103D69009F900120F0E49E90011FF0900117E070F0
:103D790002A3E07003023E7890011BE0FEA3E0FF7E
:103D8900900119E0FCA3E0FDD39FEE6480F8EC6498
:103D990080984003023F2A90011DECF0A3EDF090BA
:103DA900011BE0FEA3E0FFD390011EE09FEE6480BB
:103DB900F890011DE0648098502B900111E0FCA35C
:103DC900E0FD900119E0FAA3E0FB90011DE0FFA3DB
:103DD900E0CF12425D90011EE004F070C290011D17
:103DE900E004F080BA90011FE0FCA3E0FDC3EC649D
:103DF9008094805023900119E0FEA3E07802C33338
:103E0900CE33CED8F92DFFEC3ECF2406CF34009027
:103E1900011FF0A3EFF0804390011BE0FEA3E0FF38
:103E2900C390011AE09FFF900119E09EFEEF78020E
:103E3900C333CE33CED8F9FF900120E02FFF900194
:103E49001FE03ECF240ACF3400F0A3EFF090011C0D
:103E5900E024FFF090011BE034FFF090011AE00428
:103E6900F06003023D81900119E004F0023D819068
:103E7900011BE0FEA3E0FF900119E0FAA3E0FBD3E8
:103E89009FEE6480F8EA6480984003023F2A90011B
:103E990011E0FCA3E0FDEE12425D90011FE0FCA3DE
:103EA900E0FDC3EC648094805023900119E0FEA3E7
:103EB900E07802C333CE33CED8F92DFFEC3ECF24C0
:103EC90006CF340090011FF0A3EFF0804390011B4F
:103ED900E0FEA3E0FFC390011AE09FFF900119E003
:103EE9009EFEEF7802C333CE33CED8F9FF9001207E
:103EF900E02FFF90011FE03ECF240ACF3400F0A34A
:103F0900EFF090011CE024FFF090011BE034FFF07A
:103F190090011AE004F07006900119E004F0023EE5
:013F2900781F
:013F2A002274
:104CF70090012EEEF0A3EFF0A3ECF0A3EDF0A3EA02
:104D0700F0A3EBF0C007A3E0FFA3E09000ABCFF068
:104D1700A3EFF0D007123F2B900134E0FCA3E0FD96
:104D2700A3E0FAA3E0FBA3E0FFA3E09000ABCFF082
:104D3700A3EFF0900132E0FEA3E0FF123F2B9001BA
:104D470038E0FCA3E0FD90012EE0FAA3E0FBA3E02E
:104D5700FFA3E09000ABCFF0A3EFF0900136E0FEA9
:064D6700A3E0FF023F2B58
:104E9C009001957401F0A37400F0A37463F07B018E
:044EAC007A00795FB0
:0B4EB000900192EBF0A3EAF0A3E9F000
:104EBB001220E3FFAEF0900195E0FBA3E0FAA3E034
:104ECB00F91220E3FD900192E0FBA3E0FAA3E0F9D5
:104EDB00E5F08DF012210E900195E0FBA3E0FAA313
:084EEB00E0F9EE8FF002210E48
:1022F80090005DEEF0A3EFF0A3ECF0A3EDF0A3EAFD
:04230800F0A3EBF063
:10230C0090007D1222750000000090008112227551
:10231C0000000000900063E0FEA3E0FF90005FE08F
:10232C00FCA3E0D39FEC9E401A124E9C9001957436
:10233C0001F0A37400F0A37461F07B017A00795D65
:10234C00124EB0900067E0FEA3E0FF900063E0FC4B
:10235C00A3E0D39FEC9E402E9001957401F0A374E2
:10236C0000F0A37463F07B017A007967124EB09091
:10237C0001957401F0A37400F0A37461F07B017AF1
:10238C00007965124EB0900063E0FEA3E0FF900070
:10239C005FE0FCA3E0D39FEC9E401A124E9C900190
:1023AC00957401F0A37400F0A37461F07B017A00C2
:1023BC00795D124EB0900067E0FEA3E0FF90005FE5
:1023CC00E0FCA3E0FD6F7002EC6E60030224A090B1
:1023DC00005DE0FEA3E0FF90006BEEF0A3EFF09049
:1023EC000069EEF0A3EFF0900069E0FEA3E0FF902F
:1023FC000061E0FAA3E0FBC39FEA9E500A900069DB
:10240C00EAF0A3EBF0801E90006BE0FEA3E0FFD39C
:10241C00EB9FEA9E400F900061E0FFA3E090006B01
:10242C00CFF0A3EFF0900069E0FEA3E0FF90006511
:10243C00E0FAA3E0FBC39FEA9E500A900069EAF021
:10244C00A3EBF0801E90006BE0FEA3E0FFD3EB9FAC
:10245C00EA9E400F900065E0FFA3E090006BCFF088
:10246C00A3EFF090006BE0FAA3E0FB90005FE0FFBD
:10247C00A3E0900103CFF0A3EFF09000EAE0FFA3FC
:10248C00E0900105CFF0A3EFF0900069E0FEA3E02F
:10249C00FF0243CE90005DE0FAA3E0FB900061E008
:1024AC00FEA3E0C39BFFEE9A900071F0A3EFF090B7
:1024BC00005FE0FEA3E0FF900063E0FCA3E0C39F9D
:1024CC00FFEC9E900073F0A3EFF0900065E0FEA38C
:1024DC00E0C39BFFEE9A900075F0A3EFF090005FC5
:1024EC00E0FEA3E0FF900067E0FCA3E0C39FFFECDD
:1024FC009E900077F0A3EFF0900061E0FEA3E0FF68
:10250C00900065E0FCA3E0C39FFFEC9E900079F087
:10251C00A3EFF0900063E0FAA3E0FB900067E0FC0F
:10252C00A3E0FDC39BFEEC9A90007BF0A3CEF0EBF6
:10253C00B50510EAB5040C900063FFA3E090006FA2
:10254C00CF8010900063E0FEA3E024FFFFEE34FF89
:10255C0090006FF0A3EFF090005FE0FFA3E090001D
:10256C006DCFF0A3EFF090006FE0FEA3E0FF9000C2
:10257C006DE0FCA3E0D39FEC9E400302268C900000
:10258C0073E0FEA3E0FBAA06EA3395E0F9F89000AD
:10259C007DE0FCA3E0FDA3E0FEA3E0FF12500D9054
:1025AC00005DE0FCA3E02FFFEC3E900069F0A3EF90
:1025BC00F0900077E0FEA3E0FBAA06EA3395E0F981
:1025CC00F8900081E0FCA3E0FDA3E0FEA3E0FF1285
:1025DC00500D90005DE0FCA3E02FFFEC3E90006BF3
:1025EC00F0A3EFF090007DE0F8A3E0F9A3E0FAA3EC
:1025FC00E0FB900071E0FEA3E0FFEE3395E0FDFC04
:10260C00EB2FFFEA3EFEE93DFDE83CFC90007D121D
:10261C002269900081E0F8A3E0F9A3E0FAA3E0FBC3
:10262C00900075E0FEA3E0FFEE3395E0FDFCEB2F90
:10263C00FFEA3EFEE93DFDE83CFC90008112226978
:10264C0090006BE0FEA3E0FF900069E0FCA3E0D3F8
:10265C009FEC9E40179001957401F0A37400F0A3B9
:10266C00746BF07B017A007969124EB012439A9028
:10267C00006EE004F0700690006DE004F00225722C
:10268C00900063E0FEA3E0FF90006DE0FAA3E0FB96
:10269C00C39FFFEA9EFE900079E0FCA3E0FD1220B0
:1026AC00A5E4FCFD90007D12226990005FE0FEA382
:1026BC00E0FFC3EB9FFFEA9EFE900075E0FCA3E0F9
:1026CC00FD1220A5E4FCFD900081122269900067A8
:1026DC00E0FEA3E0FF90006DE0FCA3E0D39FEC9E36
:1026EC0040030227F190007BE0FEA3E0FBAA06EA80
:1026FC003395E0F9F8A3E0FCA3E0FDA3E0FEA3E032
:10270C00FF12500D900061E0FCA3E02FFFEC3E9017
:10271C000069F0A3EFF0900077E0FEA3E0FBAA06BF
:10272C00EA3395E0F9F8900081E0FCA3E0FDA3E02A
:10273C00FEA3E0FF12500D90005DE0FCA3E02FFF24
:10274C00EC3E90006BF0A3EFF090007DE0F8A3E07E
:10275C00F9A3E0FAA3E0FB900079E0FEA3E0FFEE22
:10276C003395E0FDFCEB2FFFEA3EFEE93DFDE83C36
:10277C00FC90007D122269900081E0F8A3E0F9A39F
:10278C00E0FAA3E0FB900075E0FEA3E0FFEE3395CA
:10279C00E0FDFCEB2FFFEA3EFEE93DFDE83CFC9042
:1027AC00008112226990006BE0FEA3E0FF900069AB
:1027BC00E0FCA3E0D39FEC9E40179001957401F0D0
:1027CC00A37400F0A3746BF07B017A007969124E4C
:1027DC00B012439A90006EE004F0700690006DE029
:0527EC0004F00226D9F3
:0127F10022C5
:10391100F090003DE090004BF0900035E0FAA3E01C
:01392100FBAA
:10392200900041EEF0A3EFF0900045EAF0A3EBF037
:08393200900043ECF0A3EDF05E
:10393A009000EAE0FFA3E090004FCFF0A3EFF090F1
:10394A000049E024E0F0A3E0F9C313FF7E009000F1
:10395A0041E0FAA3E02FFFEE3ACF24FFFBEF34FF5A
:10396A00FAE9FFA3E0F8A3E02FFFEE38CF24FFCF58
:10397A0034FF90005BF0A3EFF0900041E0FEA3E07B
:10398A00FF124DE090004BE06003023A3290004D86
:10399A00F090004AE0FF90004DE0FEC39F40030212
:1039AA003AF2EF640C7017900049E075F00CA42409
:1039BA0026F582E5F03400F583E5822E801A900020
:1039CA004DE0FF900049E075F010A4249AF582E5D5
:1039DA00F03404F583E5822FF582E43583F583E438
:1039EA009390004CF0E490004EF090004AE0C3132C
:1039FA00FF90004EE0C39F502690004CE030E00557
:103A0A009000458003900047E0FEA3E0FF12552B8B
:103A1A0090004CE0C313F090004EE004F080CB908D
:103A2A00004DE004F002399BE490004DF090004A0A
:103A3A00E0FF90004DE0FEC39F4003023AF2EF64BC
:103A4A000C7017900049E075F00CA42426F582E565
:103A5A00F03400F583E5822E801A90004DE0FF9045
:103A6A000049E075F010A4249AF582E5F03404F5D3
:103A7A0083E5822FF582E43583F583E49390004C45
:103A8A00F0E490004EF090004AE0C313FF90004E1D
:103A9A00E0FEC39F5049900045E0FDA3E09000EA94
:103AAA00CDF0A3EDF090004CE030E024EEFF900062
:103ABA0042E02FFF900041E03400FE90004DE0FD0F
:103ACA00900044E02DFD900043E03400FC125208BF
:103ADA0090004CE0C313F090004EE004F080A790F1
:103AEA00004DE004F0023A3790004FE0FFA3E09067
:103AFA0000EACFF0A3EFF09000EFE024FFFB900084
:103B0A00EEE034FFFA9000F1E024FFFE9000F0E0CE
:103B1A0034FF90005BF0A3CEF0E4FDFCFFFE024D03
:013B2A00E0BA
:10484F00900163EEF0A3EFF0A3ECF0A3EDF0A3EB78
:10485F00F0900168E0FBA3E0FAA3E0F912202BFF30
:10486F00D3947E400302490DEFC3942050030249B5
:10487F000D9000EFE024FFFD9000EEE034FFFC9080
:10488F000163E0FEA3E0FFD39DEE9C50719000F119
:10489F00E024FFFB9000F0E034FFFA900165E0FCAC
:1048AF00A3E0FDD39BEC9A50559000ECE0FBA3E006
:1048BF00900047CBF0A3EBF0900168E0FBA3E0FA88
:1048CF0012202B900049F0900167E090004AF09081
:1048DF00016BE090004BF09000EA12391D900167D8
:1048EF00E0C313FF900164E02FF0900163E0340008
:0F48FF00F0900169E475F0011220B702486022C1
:084EF30090003EEFF0A3EDF08A
:104EFB00A31222750000000190003FE0FF14F0EFB9
:104F0B006020A3E0F8A3E0F9A3E0FAA3E0FB900094
:104F1B003EE0FFE4FCFDFE12212D900040122269C1
:104F2B0080D6900040E0FCA3E0FDA3E0FEA3E0FFF1
:014F3B002253
:0E44C700900031EEF0A3EFF0A3ECF0A3EDF0C7
:1044D500E490003DF090003BF0900039E0FF900043
:1044E5003BE0FEC39F40030245D7C3EF9E14FD7F0B
:1044F5000A124EF3A804A905AA06AB07900035E0F9
:10450500FCA3E0FDA3E0FEA3E0FF1221B8E47B0AD3
:10451500FAF9F81221B890003CEBF0A3E07057903F
:104525000039E014FF90003BE0FEC39F5048A3E034
:10453500703E90003AE0F9C3138EF0A4FF9000326C
:10454500E02FFF900031E035F0FEC007900033E02A
:10455500FCA3E0FD9000EAE0FAA3E0FB9000ECE0AC
:10456500FFA3E0900047CFF0A3EFF0A37420804DA8
:1045750090003D7401F090003AE0F9C313FFA3E009
:10458500FEEF8EF0A4FF900032E02FFF900031E0A7
:1045950035F0FEC007900033E0FCA3E0FD9000EA93
:1045A500E0FAA3E0FB9000ECE0FFA3E0900047CF2A
:1045B500F0A3EFF090003CE02430900049F0A3E92F
:1045C500F0E4A3F0D00712392290003BE004F0029A
:0245D50044DEC2
:0145D70022C1
:10322400900043ECF0A3EDF0A3EAF0A3EBF09000E0
:0632340041EEF0A3EFF0F3
:10323A00900053EEF0A3EFF0900051E4F0A3744B2A
:10324A00F0E490004FF0A3F0900051E0FEA3E0FFFD
:10325A0090004FE0FCA3E0FDC39FEC9E40030234C4
:10326A0049900049E0FBA3E0FAA3E0F912202BFF02
:10327A00900A8A75F022ED1222A6EC75F022A42596
:10328A0083F583E4936F60030234389000011220BF
:10329A0044FF90004FA3E0900A8B75F0221222A6F9
:1032AA00EC75F022A42583F583E4936F600302345E
:1032BA0038900041E0FAA3E0FBFFAE02C006C00767
:1032CA00A3E0FCA3E0FDEB240FFBE43AFA900043F1
:1032DA00E0FEA3E0240FFFE43E90005BF0A3EFF0D2
:1032EA00D007D006124DE0E490004DF090004DE07A
:1032FA00C39420748094804003023438E4A3F0908D
:10330A00004EE0FFC3940874809480400302342F77
:10331A0090004CE0705AA3E0FE90004FE0FCA3E05E
:10332A00900A8C75F0221222A6EC75F022A425834D
:10333A00F583E5822EF582E43583F583E493FD3344
:10334A0095E0FC7E007480A807088006CEA2E713E9
:10335A00CE13D8F8FFEE5CFEEF5D4E600590004597
:10336A008003900047E0FEA3E0FF12552B023426AB
:10337A00900045E0FFA3E09000EACFF0A3EFF090C1
:10338A00004DE0FF90004FE0FCA3E0900A8C75F03E
:10339A00221222A6EC75F022A42583F583E5822F5A
:1033AA00F582E43583F583E493FD3395E0FC9000E0
:1033BA004EE0FF7E007480A807088006CEA2E713BD
:1033CA00CE13D8F8FFEE5CFEEF5D4E60119000411F
:1033DA00E0FEA3E0FFA3E0FCA3E0FD125208900088
:1033EA0042E004F07006900041E004F0900053E0DF
:1033FA00FEA3E0FFC3900042E09FFD900041E09EE3
:10340A00FCED64104C7015EEF0A3EFF0900044E070
:10341A0004F07011900043E004F0800990004EE03F
:10342A0004F002330990004DE004F00232F69000F5
:10343A0050E004F0700690004FE004F0023252901F
:10344A0000EFE024FFFB9000EEE034FFFA9000F179
:10345A00E024FFFE9000F0E034FF90005BF0A3CE82
:09346A00F0E4FDFCFFFE024DE060
:10347300900043ECF0A3EDF0A3EAF0A3EBF090008F
:0634830041EEF0A3EFF0A2
:10348900900053EEF0A3EFF0900051E4F0A374091B
:10349900F0E490004FF0A3F0900051E0FEA3E0FFAC
:1034A90090004FE0FCA3E0FDC39FEC9E4003023671
:1034B90098900049E0FBA3E0FAA3E0F912202BFF62
:1034C90090148075F04AED1222A6EC75F04AA425F5
:1034D90083F583E4936F600302368790000112201D
:1034E90044FF90004FA3E090148175F04A1222A680
:1034F900EC75F04AA42583F583E4936F60030236E3
:1035090087900041E0FAA3E0FBFFAE02C006C007C6
:10351900A3E0FCA3E0FDEB2417FBE43AFA90004397
:10352900E0FEA3E02417FFE43E90005BF0A3EFF078
:10353900D007D006124DE0E490004DF090004DE028
:10354900C39448748094804003023687E4A3F090C2
:10355900004EE0FFC3940874809480400302367ED5
:1035690090004CE0705AA3E0FE90004FE0FCA3E00D
:1035790090148275F04A1222A6EC75F04AA42583AC
:10358900F583E5822EF582E43583F583E493FD33F3
:1035990095E0FC7E007480A807088006CEA2E71398
:1035A900CE13D8F8FFEE5CFEEF5D4E600590004546
:1035B9008003900047E0FEA3E0FF12552B02367509
:1035C900900045E0FFA3E09000EACFF0A3EFF09070
:1035D900004DE0FF90004FE0FCA3E090148275F0ED
:1035E9004A1222A6EC75F04AA42583F583E5822FB9
:1035F900F582E43583F583E493FD3395E0FC90008F
:103609004EE0FF7E007480A807088006CEA2E7136B
:10361900CE13D8F8FFEE5CFEEF5D4E6011900041CD
:10362900E0FEA3E0FFA3E0FCA3E0FD125208900036
:1036390042E004F07006900041E004F0900053E08D
:10364900FEA3E0FFC3900042E09FFD900041E09E91
:10365900FCED64184C7015EEF0A3EFF0900044E017
:1036690004F07011900043E004F0800990004EE0EE
:1036790004F002355890004DE004F0023545900001
:1036890050E004F0700690004FE004F00234A1907D
:1036990000EFE024FFFB9000EEE034FFFA9000F128
:1036A900E024FFFE9000F0E034FF90005BF0A3CE31
:0936B900F0E4FDFCFFFE024DE00F
:1036C200900043ECF0A3EDF0A3EAF0A3EBF090003E
:0636D20041EEF0A3EFF051
:1036D800900053EEF0A3EFF0900051E4F0A37406CD
:1036E800F0E490004FF0A3F0900051E0FEA3E0FF5B
:1036F80090004FE0FCA3E0FDC39FEC9E400302381E
:10370800E7900049E0FBA3E0FAA3E0F912202BFFC1
:1037180090171A75F082ED1222A6EC75F082A42596
:1037280083F583E4936F60030238D690000112207A
:1037380044FF90004FA3E090171B75F0821222A659
:10374800EC75F082A42583F583E4936F6003023857
:10375800D6900041E0FAA3E0FBFFAE02C006C00726
:10376800A3E0FCA3E0FDEB241FFBE43AFA9000433E
:10377800E0FEA3E0241FFFE43E90005BF0A3EFF01F
:10378800D007D006124DE0E490004DF090004DE0D7
:10379800C394807480948040030238D6E4A3F090E8
:1037A800004EE0FFC394087480948040030238CD33
:1037B80090004CE0705AA3E0FE90004FE0FCA3E0BC
:1037C80090171C75F0821222A6EC75F082A425834E
:1037D800F583E5822EF582E43583F583E493FD33A2
:1037E80095E0FC7E007480A807088006CEA2E71347
:1037F800CE13D8F8FFEE5CFEEF5D4E6005900045F5
:103808008003900047E0FEA3E0FF12552B0238C466
:10381800900045E0FFA3E09000EACFF0A3EFF0901E
:10382800004DE0FF90004FE0FCA3E090171C75F0FE
:10383800821222A6EC75F082A42583F583E5822FF7
:10384800F582E43583F583E493FD3395E0FC90003D
:103858004EE0FF7E007480A807088006CEA2E7131A
:10386800CE13D8F8FFEE5CFEEF5D4E60119000417C
:10387800E0FEA3E0FFA3E0FCA3E0FD1252089000E5
:1038880042E004F07006900041E004F0900053E03C
:10389800FEA3E0FFC3900042E09FFD900041E09E40
:1038A800FCED64204C7015EEF0A3EFF0900044E0BE
:1038B80004F07011900043E004F0800990004EE09D
:1038C80004F00237A790004DE004F002379490000E
:1038D80050E004F0700690004FE004F00236F090DB
:1038E80000EFE024FFFB9000EEE034FFFA9000F1D7
:1038F800E024FFFE9000F0E034FF90005BF0A3CEE0
:09390800F0E4FDFCFFFE024DE0BD
:102F8D00900033ECF0A3EDF0A3EAF0A3EBF090008A
:062F9D0031EEF0A3EFF09D
:102FA30090003EEEF0A3EFF0E4A3F0900039E0FBD5
:102FB300A3E0FAA3E0F912202B700302322390005E
:102FC30040E060030230E490003CE0FFC313FDC324
:102FD3009000EFE09DFD9000EEE09400FCD39000A4
:102FE30032E09D900031E09C4003023223C3900005
:102FF300F1E09FFF9000F0E09400FED3900034E0F6
:103003009F900033E09E400302322312202BFF7E69
:1030130000D394807480948040089000407401F041
:103023008089EF640D4E702E90003CE0FF900034D9
:10303300E02FF0900033E03400F090003EE0FFA377
:10304300E0900031CFF0A3EFF090003AE475F00187
:103053001220B70230D790003CE0D39410748094D0
:1030630080900031E0FEA3E0FFA3E0FCA3E0FD902D
:103073000037E0FBA3E0900047CB4024F0A3EBF044
:10308300900039E0FBA3E0FAA3E0F912202B9000B3
:1030930049F0A37410123911900032E02408802CF7
:1030A300F0A3EBF0900039E0FBA3E0FAA3E0F91200
:1030B300202B900049F090003CE090004A12391117
:1030C30090003CE0C313FF900032E02FF0900031FA
:1030D300E03400F090003AE475F0011220B7022FBB
:1030E300AE90003CE0F9FF7E00C39000EFE09FFD4F
:1030F3009000EEE09EFCD3900032E09D900031E022
:103103009C4003023223C39000F1E09FFF9000F044
:10311300E09EFE900033E0FCA3E0FDD39FEC9E40D5
:1031230003023223E4900040F0E9642070429000EF
:1031330031E0FEA3E0FF900037E0FBA3E0900047FF
:10314300CBF0A3EBF0900039E0F9A3E0FAA3E09011
:103153000049C9F0A3EAF0A3E9F090003DE0900034
:103163004CF0900035E0FAA3E0FB1236C2023204C1
:1031730090003CE064189000317044E0FEA3E0FF4F
:10318300A3E0FCA3E0FD900037E0FBA3E090004741
:10319300CBF0A3EBF0900039E0F9A3E0FAA3E090C1
:1031A3000049C9F0A3EAF0A3E9F090003DE09000E4
:1031B3004CF0900035E0FAA3E0FB1234738042E058
:1031C300FEA3E0FFA3E0FCA3E0FD900037E0FBA338
:1031D300E0900047CBF0A3EBF0900039E0F9A3E0D7
:1031E300FAA3E0900049C9F0A3EAF0A3E9F0900044
:1031F3003DE090004CF0900035E0FAA3E0FB123282
:103203002490003AE475F0021220B790003CE0FFEE
:10321300900032E02FF0900031E03400F0022FAE46
:013223002288
:104A5900900121EEF0A3EFF0A3ECF0A3EDF0A3EAAF
:044A6900F0A3EBF0DB
:104A6D00900129E0FBA3E0FAA3E0F912545CEF7882
:104A7D0003C333CE33CED8F9FFC39000EFE09FFFD1
:104A8D009000EEE09EC313FEEF13FF900122E02F86
:104A9D00FF900121E03EFE900123E0FCA3E0FD909C
:104AAD000127E0FBA3E0900037CBF0A3EBF09001E2
:104ABD0029E0F9A3E0FAA3E0900039C9F0A3EAF0E8
:104ACD00A3E9F090012CE090003CF090012DE090D6
:0E4ADD00003DF0900125E0FAA3E0FB022F8DD2
:1045D800900145EEF0A3EFF0900149EBF0A3EAF06B
:0B45E800A3E9F0900147ECF0A3EDF018
:1045F300900145E0FAA3E0FFAE02C006C0072427FE
:10460300FBE43AFAA3E0FEA3E02427FFE43E900094
:104613005BF0A3EFF0D007D006124DE0E490014C1D
:10462300F0A3F090014DE025E0FF90014CE033FE54
:10463300900149E0FBA3E0FAA3E0F98F828E831295
:10464300204490014FF0E92FF9EA3EFA900001125D
:10465300204490014EF0FEA3E0FDEDFF12552B9098
:10466300014DE004F0700690014CE004F0C39001AA
:104673004DE0944090014CE06480948640A5900006
:10468300EFE024FFFB9000EEE034FFFA9000F1E04E
:1046930024FFFE9000F0E034FF90005BF0A3CEF027
:0846A300E4FDFCFFFE024DE006
:101A2600EC4D6011E8497017ED33EC3304600DE4BA
:101A3600FCFFFEFD22E933E8330470F8021C76123F
:101A46001C4158046009E4CC248150062850090240
:101A56001C80284003021C7DC0E0EB4A7044B9801C
:101A660006D0E0FB021C6CEF4E701CBD8008EBFF3D
:101A7600EAFEE9FD80EBE98DF0A4FEE5F0021B0F1E
:101A8600E9CDF9EAFEEBFFEF89F0A4FCE5F0CE899B
:101A9600F0A42EFFE435F0CD89F0A42DFEE435F058
:101AA6008067EF4E7005BD80D780C3EF8BF0A4AC86
:101AB600F0EE8BF0A42CFCE435F0F8EF8AF0A42CC1
:101AC600E5F038FCE433CB8DF0A42CFCE5F03BF8D4
:101AD600EE8AF0A42CFCE5F038F8E433CF89F0A4C4
:101AE6002CFCE5F038CF3400CE89F0A42FFFE5F0CA
:101AF6003EFEE433C98DF0A42EFEE5F039CD8AF022
:101B0600A42FFFE5F03EFEE43DFD33D0E0FB500799
:101B16000BBB000F021C80EC2CFCEF33FFEE33FEF8
:061B2600ED33FD021C5826
:101B2C00021C80EC5D046005E859047003021C760D
:101B3C00121C41580460F6EC4860F2EC7004FDFE97
:101B4C00FF22C860DB2481C85009C398600250068C
:101B5C00021C7D9850CAF582E9294B4A7005AB826C
:101B6C00021C6C75F0007C1A7880C3EF9BEE9AED2A
:101B7C0099400DC3EF9BFFEE9AFEED99FDE842F004
:101B8C00DC23ACF0D0E0FFD0E0FED0E0FDAB822057
:101B9C00E7101BEB60BAEC2CFCEF33FFEE33FEEDE1
:101BAC0033FD021C58E803F830E705C0F075F0006F
:101BBC00EF2FFFEE33FEED33FD40B830E7C280AAC5
:101BCC0075F020800E75F010800575F0087D007E94
:101BDC00007F003392D530D50312224AEC334010EB
:101BEC00EF33FFEE33FEED33FDEC33FCD5F0ED229D
:0E1BFC00E5F0247EA2D513CC92E7CDCEFF22D9
:101C0A00EDD2E7CD33EC3392D524814006E4FFFED2
:101C1A00FDFC22FCE4CFCECDCC24E0501174FF8031
:101C2A00EDC3CC13CCCD13CDCE13CECF13CF0470CE
:071C3A00F030D5DE02224A62
:1027F200E5082403F582E43400F583E0050822901D
:102802000000300703900003E475F0011222B202C7
:10281200202B2000E97F2ED2008018EF540F249045
:10282200D43440D4FF30040BEF24BFB41A00500359
:102832002461FFE50960021509050CE50C7002052B
:102842000B30070E900000E475F0011222B2EF0285
:1028520020710252827403D2078003E4C207F50892
:102862009000001222C9E4F509F50BF50CE50960A8
:10287200077F2012283580F5750AFFC201C200C207
:1028820002C203C205C206C208122801FF700D303F
:1028920007057F00122846AF0CAE0B22B4255FC29B
:1028A200D5C204122801FF24D0B40A00501A75F0D0
:1028B2000A780930D50508B6FF0106C6A426F62017
:1028C200D5047002D20380D924CFB41A00EF500489
:1028D200C2E5D204022B38D20180C6D20080C0D217
:1028E2000280BCD2D580BAD20580B47F20122835AE
:1028F2002002077401B5090040F11227F2FF1228E5
:102902003502286FD208D20680951227F2FB1227D1
:10291200F2FA1227F2F94A4B700679367A2C7BFFCB
:1029220020022EE509602A7E008E82758300122025
:102932004460060EEE650A70F0C2D5EBC0E0EAC054
:10294200E0E9C0E0EE122B99D0E0F9D0E0FAD0E055
:10295200FB12202BFF60AAEBC0E0EAC0E0E9C0E076
:10296200122835D0E02401F9D0E03400FAD0E0FB9F
:10297200E50A0460DCD50AD98087D20280A2122B34
:102982007B60F7E50A700104121C8BA90A600DE551
:102992000A600914F50A122C23EF60F3EA30E70209
:1029A200F404C3995079EAF4250A0430E701E404F7
:1029B200F50A800D122B7B60C1EA050A250A121C5A
:1029C2008BEA90002FF030E701E4250A04D50A04CF
:1029D20020050114122B99E4C0E0122C2390002F41
:1029E200E0601320E70714F012281D802204F0D0C3
:1029F200E014C0E07F0012281DE50A6007122814C7
:102A0200150A800B300503122814D0E002286FD07B
:102A1200E00480C4122B7B609EE50A04121C8B909A
:102A2200002FEAF0E50A2005026001042404122BBB
:012A3200990A
:102A330074FF04C0E0122C2312281DE50A200502AE
:102A43006003122814D0E0B50AE87F4512282790C6
:102A5300002FE07F2B30E7047F2DF404C0E0122821
:102A630035D0E075F00A84C0F012281ED0E0122899
:102A73001E02286F791080027908C206C2088008F6
:102A8300D2D5790A8004790AC2D5E50A047002F521
:102A93000AE4FAFDFEFF1227F2FC7B082001131261
:102AA30027F2FD7B1030000A1227F2FE1227F2FFF5
:102AB3007B20EC3382D592D55013C3E43000069FBC
:102AC300FFE49EFEE42001039DFDE49CFCE4CBF8BF
:102AD300C201EC700CCFCECDCCE824F8F870F380B3
:102AE30017C3EF33FFEE33FEED33FDEC33FCEB3373
:102AF300FB994002FB0FD8E9EB300105F8D0E0C4A5
:102B030048B201C0E00AEC4D4E4F78207B0070C202
:102B1300EAB50A0040BCC0E0122B9BD0F0D0E02005
:102B23000104C4C0E0C4B201C0F012281ED0F0D525
:102B3300F0EB02286F1222D2290C532A775828DD92
:102B43004C28D9422A7B4F2A83442A834928F243BB
:102B53002A895529B6462A16452980472C565028D6
:102B6300E12D28E52E29082B28E9232906202C3FCF
:102B73002A28A14800002900E50AB4FF03750A06C4
:102B83001227F2FC1227F2FD1227F2FE1227F2FFA0
:102B9300900028021CC8790AA2D520031430050925
:102BA300B910020404B9080104A2D5200602500199
:102BB300042002689202B509005034C0E07F20303F
:102BC30003197F30A20272067205500F122BF2C254
:102BD30002C206C205C2087F30800F300503E9C078
:102BE300E0122835300503D0E0F9D0E0B509CC3048
:102BF30005177F30B9100C1228357F583004077F32
:102C0300788003B908031228353002057F2D022886
:102C1300357F202008F87F2B2006F322920280CFF5
:102C23007F00B40700500B2428F582E43400F583B9
:102C3300E0FF22286E756C6C2900D2011227F23056
:102C430001F8C201780930D50108F60228A12D50F8
:102C53004349581227F22403B405004001E4902CA1
:102C63005193122826743A122826D20375090402B6
:022C73002A77BE
:101C4100E9D2E7C933E833F892D5EDD2E7CD33ECE9
:071C510033FC5002B2D52262
:101C5800EC30E7100FBF000C0EBE00080DBD0004ED
:101C68000BEB6014A2D5EB13FCED92E7FD2274FF99
:101C7800FCFDFEFF22E480F8A2D574FF13FC7D80F2
:031C8800E480EF06
:101C8B00F920E73624F950037907E4F42402FBE545
:101C9B0082158270021583DBF6E024FB501BE96092
:101CAB0014E4F0E582158270021583E004F0B40AA7
:0D1CBB0008E4F0D9EE7401F00A22C2D5222F
:101CC800ED33EC3392D5FA602AB4FF33EDC2E77BEB
:101CD800FF60067A1C79EDE4227A1C79F620D50497
:101CE8007A1C79F1224E614E002B494E46002D494F
:101CF8004E4600E47A08F0A3DAFC7B00740722C0A1
:101D080083C082ECC0E0EDC0E0EEC0E0EFC0E0EAE6
:101D180075F010A4CAABF075F04DA42BFBE435F0B8
:101D2800FCEA2410FAEB34C5FBEC34D9FCEDC2E72D
:101D3800FF75F056A4F42411C5F0F434C58FF0A44F
:101D48002AE5F03BE43CF020E714121EF5D0E0FF52
:101D5800D0E0FED0E0FDD0E0FC121B2F8014F4048C
:101D6800121EF5D0E0FFD0E0FED0E0FDD0E0FC127E
:101D78001A26D082D083E0FAEDD2E7CD33EC3324B3
:101D880082FBE4C3CF33CFCE33CECD33CD33DBF3B9
:101D98007B0775F00A846004F0A31B0AE5F0F0A342
:101DA8008FF0740AA4FFACF08EF0740AA42CFEAC79
:101DB800F050010C8DF0740AA42CFDE435F0F0A36A
:051DC800DBDE740722C0
:101DCD00021C76E86480F8E933E83360110460F0B2
:101DDD00ED33EC337009E8FCE9FDEAFEEBFF22047C
:101DED0060DED3EB9FEA9EE99DE8C2E78CF0C2F777
:101DFD0095F0400CE8CCF8E9CDF9EACEFAEBCFFB43
:101E0D00121C4185D0F05804700320D5B3E804703E
:101E1D00075002B2D5021C8092D5EC0460F7E4CCD9
:101E2D00C0E0C398F8603B94186008400DD0E0FB0B
:101E3D00021C58E4FBFAC9FC8028E830E406E4C92A
:101E4D00FBE4CAFCE830E305E4C9CACBFCE854075F
:101E5D006010F8C3E913F9EA13FAEB13FBEC13FC6A
:101E6D00D8F130F52FC3E49CFCEF9BFFEE9AFEED0D
:101E7D0099FDD0E0FBEF4E4D4C701222DB03021C9E
:101E8D007DEC2CFCEF33FFEE33FEED33FDED30E753
:101E9D00EB021C58EF2BFFEE3AFEED39FDD0E0FBC7
:101EAD0050130BBB0003021C80ED13FDEE13FEEF70
:081EBD0013FFEC13FC021C589A
:101EC5003F8000004120000042C80000447A000025
:101ED500461C400047C35000497424004B189680A7
:101EE5004CBEBC205A0E1BCA6753C21C749DC5AE9E
:101EF500FB60065407601C2323121F23EB54386034
:101F050009121F0F121F1E121A26ECF8EDF9EEFA30
:101F1500EFCB22EB121F1E80F1543803241C901EB8
:101F2500C5FE93FC0EEE93FD0EEE930ECE93FF22AF
:03000000024AEBC6
:0C4AEB00787FE4F6D8FD758121024B3283
:101F3500E709F608DFFA8046E709F208DFFA803E8E
:101F450088828C83E709F0A3DFFA8032E309F6087B
:101F5500DFFA8078E309F208DFFA807088828C83E3
:101F6500E309F0A3DFFA806489828A83E0A3F60897
:101F7500DFFA805889828A83E0A3F208DFFA804C71
:101F850080D280FA80C680D4806980F28033801048
:101F950080A680EA809A80A880DA80E280CA8033B1
:101FA50089828A83ECFAE493A3C8C582C8CCC58329
:101FB500CCF0A3C8C582C8CCC583CCDFE9DEE780F9
:101FC5000D89828A83E493A3F608DFF9ECFAA9F078
:101FD500EDFB2289828A83ECFAE0A3C8C582C8CCCE
:101FE500C583CCF0A3C8C582C8CCC583CCDFEADEE7
:101FF500E880DB89828A83E493A3F208DFF980CC49
:1020050088F0EF60010E4E60C388F0ED2402B40441
:102015000050B9F582EB2402B4040050AF232345E8
:062025008223901F857369
:10202B00BB010689828A83E0225002E722BBFE02B3
:09203B00E32289828A83E49322E6
:10204400BB010CE58229F582E5833AF583E0225051
:1020540006E92582F8E622BBFE06E92582F8E2229B
:0D206400E58229F582E5833AF583E49322B5
:10207100BB010689828A83F0225002F722BBFE014E
:02208100F32248
:10208300F8BB010DE58229F582E5833AF583E8F093
:10209300225006E92582C8F622BBFE05E92582C83F
:0220A300F22227
:1020A500EF8DF0A4A8F0CF8CF0A428CE8DF0A42E4F
:0220B500FE2209
:1020B700C5F0F8A3E028F0C5F0F8E58215827002B4
:0620C7001583E038F02251
:1020CD00A3F8E0C5F025F0F0E582158270021583C6
:0620DD00E0C838F0E82223
:1020E300BB010A89828A83E0F5F0A3E022500687C8
:1020F300F009E71922BBFE07E3F5F009E31922898A
:0B210300828A83E493F5F074019322BC
:10210E00BB010A89828A83F0E5F0A3F0225006F71C
:0F211E0009A7F01922BBFE06F3E5F009F3192219
:10212D00E88FF0A4CC8BF0A42CFCE98EF0A42CFC51
:10213D008AF0EDA42CFCEA8EF0A4CDA8F08BF0A4CF
:10214D002DCC3825F0FDE98FF0A42CCD35F0FCEB2E
:10215D008EF0A4FEA9F0EB8FF0A4CFC5F02ECD39F3
:0F216D00FEE43CFCEAA42DCE35F0FDE43CFC2260
:10217C0075F008758200EF2FFFEE33FECD33CDCC1A
:10218C0033CCC58233C5829BED9AEC99E58298409D
:10219C000CF582EE9BFEED9AFDEC99FC0FD5F0D67A
:1021AC00E4CEFBE4CDFAE4CCF9A88222B800C1B9A4
:1021BC000059BA002DEC8BF084CFCECDFCE5F0CBE2
:1021CC00F97818EF2FFFEE33FEED33FDEC33FCEB1B
:1021DC0033FB10D703994004EB99FB0FD8E5E4F9D6
:1021EC00FA227818EF2FFFEE33FEED33FDEC33FCC3
:1021FC00C933C910D7059BE99A4007EC9BFCE99AB7
:10220C00F90FD8E0E4C9FAE4CCFB2275F010EF2FFB
:10221C00FFEE33FEED33FDCC33CCC833C810D707FB
:10222C009BEC9AE899400AED9BFDEC9AFCE899F836
:0E223C000FD5F0DAE4CDFBE4CCFAE4C8F922C9
:10500D00C2D5E830E70FB2D5E4C39BFBE49AFAE4CE
:10501D0099F9E498F8EC30E717B2D5125043122104
:10502D00B8E4C39BFBE49AFAE499F9E498F8800399
:10503D001221B830D50DE4C39FFFE49EFEE49DFD23
:04504D00E49CFC22C1
:0E224A00C3E49FFFE49EFEE49DFDE49CFC22A5
:10225800EB9FF5F0EA9E42F0E99D42F0E89C45F0DC
:012268002253
:0C226900ECF0A3EDF0A3EEF0A3EFF022E8
:10227500A8828583F0D083D08212228C12228C1200
:10228500228C12228CE473E493A3C583C5F0C58325
:10229500C8C582C8F0A3C583C5F0C583C8C582C8B3
:0122A5002216
:0C22A600A42582F582E5F03583F5832243
:1022B200F8E0FBA3A3E0F925F0F0E58215827002B5
:0722C2001583E0FA38F02259
:0922C900EBF0A3EAF0A3E9F02216
:1022D200D083D082F8E4937012740193700DA3A39B
:1022E20093F8740193F5828883E4737402936860AF
:0622F200EFA3A3A380DFAF
:10528200EFB40A07740D12528D740A309811A8995E
:10529200B8130CC2983098FDA899C298B811F6308C
:0752A20099FDC299F5992264
:10545C00E4FFFE12202B600C0FEF70010E09E970B7
:05546C00F20A80EF22AE
:104AF700024D6DE493A3F8E493A34003F68001F21B
:104B070008DFF48029E493A3F85407240CC8C333BF
:104B1700C4540F4420C8834004F456800146F6DF8E
:104B2700E4800B0102040810204080904F83E47E4C
:104B3700019360BCA3FF543F30E509541FFEE49383
:104B4700A360010ECF54C025E060A840B8E493A34A
:104B5700FAE493A3F8E493A3C8C582C8CAC583CA75
:104B6700F0A3C8C582C8CAC583CADFE9DEE780BE2D
:014FC80000E8
:00000001FF
