:020000040800F2
:1000000070070020B9570008A9030008AB030008D7
:10001000AF030008B3030008B703000800000000A6
:10002000000000000000000000000000BB0300080A
:10003000BD03000800000000BF030008C103000862
:10004000D3570008D3570008D3570008D3570008E8
:10005000D3570008D3570008D3570008D3570008D8
:10006000D3570008D3570008D3570008D3570008C8
:10007000D3570008D3570008D3570008D3570008B8
:10008000D3570008D3570008D3570008D3570008A8
:10009000D3570008D3570008D3570008D357000898
:1000A000D3570008D3570008D3570008D357000888
:1000B000D3570008D3570008D3570008D357000878
:1000C000D3570008D3570008D3570008D357000868
:1000D000D35700082D570008D3570008D3570008FE
:1000E000D3570008D3570008D3570008D357000848
:1000F000D3570008D3570008D3570008D357000838
:10010000D3570008D3570008D3570008D357000827
:10011000D3570008D3570008D3570008D357000817
:10012000D3570008D3570008D3570008D357000807
:1001300000F002F800F03FF80AA090E8000C8244BA
:100140008344AAF10107DA4501D100F034F8AFF297
:10015000090EBAE80F0013F0010F18BFFB1A43F0A5
:1001600001031847B4860000D4860000103A24BF6B
:1001700078C878C1FAD8520724BF30C830C144BF0C
:1001800004680C607047000000230024002500264E
:10019000103A28BF78C1FBD8520728BF30C148BFEA
:1001A0000B607047782906F06184002070471FB506
:1001B0001FBD10B510BD06F011FD1146FFF7F7FF8A
:1001C00000F008F806F02FFD03B4FFF7F2FF03BCC0
:1001D00005F052FA1CB5002505F0E4F94FF4A060D3
:1001E00005F00AFB4FF4E13005F054FA01F028F96C
:1001F0004FF478405349088053A010210B46C82281
:10020000CDE9001032211E2005F062F850A0102127
:100210000B46C822CDE9001046211E2005F058F8F3
:100220004FA010210B46C822CDE900105A211E20F4
:1002300005F04EF84EA010210B46C822CDE9001063
:100240006E211E2005F044F818E04CA010210B464A
:10025000C822CDE9001082211E2005F039F8C820FF
:1002600005F0DDF94FF6FF709223EF228221009016
:100270001E2004F095FDC82005F0D1F905F027F9FE
:100280000028E2D141A010210B46C822CDE9001080
:1002900082211E2005F01CF81F202A4908803EA05C
:1002A00010210B46C822CDE9001096211E2005F032
:1002B0000FF845E00A2095FBF0F100FB115078BBE8
:1002C00005F024F90446002C0ADA002010232D2220
:1002D00096210090462004F0B0FE604204B207E090
:1002E00000201023202296210090462004F0A5FE35
:1002F0000A2094FBF0F6102002233246962100904B
:100300004E2004F02DFF0A2094FBF0F100FB114673
:1003100010200123324696210090662004F020FF31
:100320000A2005F07CF9681CC5B2142D08D10025FF
:100330001C48006808B9012000E000201949086045
:10034000B8E700001400002053544D333200000081
:100350004453313842323020544553540000000099
:1003600053544D3332463130335A45543600000031
:10037000323031352F312F313600000044533138BF
:10038000423230204572726F72000000445331389F
:10039000423230204F4B000054656D703A202020CF
:1003A0002E204300BC012142704700BFFEE700BF82
:1003B000FEE700BFFEE700BFFEE7704770477047EB
:1003C000704700000CB50020019000906C48006858
:1003D00040F480306A49086000BF6948006800F452
:1003E000003000900198401C0190009818B90198C5
:1003F000B0F5A06FF1D16248006800F4003010B190
:100400000120009001E0002000900098012843D1D5
:100410005C48006840F010005A49086008460068CF
:1004200020F0030008600846006840F00200086001
:10043000534840685249486008464068486008464A
:10044000406840F4806048600846406820F47C10B2
:1004500048600846406840F4E81048600846006874
:1004600040F08070086000BF4548006800F00070F0
:100470000028F9D04248406820F003004049486015
:100480000846406840F00200486000BF3C484068B1
:1004900000F00C000828F9D10CBD10B5FFF792FF51
:1004A00010BD10B53648006840F0010034490860BE
:1004B00008464068344908403149486008460068A9
:1004C000324908402E4908600846006820F4802020
:1004D00008600846406820F4FE0048604FF41F00A2
:1004E0008860FFF7DAFF4FF000602949086010BD0F
:1004F00010B5002100200022214B5B6803F00C01A5
:1005000021B1042906D0082928D107E0214B224C2B
:10051000236027E01F4B204C236023E0184B5B68CF
:1005200003F47010164B5B6803F48032022303EB74
:10053000904022B9194B4343174C23600DE0104BF8
:100540005B6803F4003323B1144B4343124C236024
:1005500003E0104B4343104C236003E00D4B0E4C63
:10056000236000BF00BF064B5B68C3F303130C4C52
:10057000E15C094B1B68CB40074C236010BD0000B9
:1005800000100240002002400000FFF8FFFFF6FECE
:1005900008ED00E000127A000000002000093D0094
:1005A00004000020FE4908807047FD49891C08802E
:1005B000704708B5FA48801C00880090BDF800001C
:1005C00008BDF74A1080921C1180704710B5044690
:1005D0002046FFF7E7FF052004F0FDFFFFF7E9FFE6
:1005E00010BDF0480089EE4908807047EC49891C2D
:1005F0000880704730B5014601F01F04C1F3451370
:10060000CA0AE50205EB43151544A8B230BD00BF88
:10061000011EA0F10102D0B2FAD1704710B5034615
:100620000C46E048808849F24131884205D0DD48D7
:10063000808845F21031884214D1DA494889FFF7A1
:10064000B1FF1812FFF7B1FFD8B2FFF7AEFFD549DF
:100650008889FFF7A7FF2012FFF7A7FFE0B2FFF797
:10066000A4FFE0E0CF48808846F6040188421DD10F
:10067000CC488079012804D1CA480088401EC01A9D
:1006800083B2C8494889FFF78DFF1812FFF78DFF25
:10069000D8B2FFF78AFFC3498889FFF783FF20128A
:1006A000FFF783FFE0B2FFF780FFBCE0BD48808822
:1006B00041F66311884247D1BA488079A8B9B94850
:1006C0000088401EC01A83B2B6494889FFF76AFF06
:1006D0000020FFF76AFF0020FFF767FF1812FFF7FF
:1006E00064FFD8B2FFF761FF16E0AE494889FFF713
:1006F00059FF1812FFF759FFD8B2FFF756FFA94963
:100700000988491EC1F30F20FFF74FFFA54909785B
:10071000491EC8B2FFF749FFA2498889FFF742FF87
:100720002012FFF742FFE0B2FFF73FFF9D494988E3
:10073000491EC1F30F20FFF738FF9A498978491EF7
:10074000C8B2FFF732FF6EE09648808845F210513C
:10075000884220D193494889FFF724FF1812FFF7F8
:1007600024FF90494989491C88B2FFF71BFFD8B282
:10077000FFF71BFF8B498889FFF714FF2012FFF753
:1007800014FF88498989491C88B2FFF70BFFE0B242
:10079000FFF70BFF47E08348808849F28841884291
:1007A0002ED180494889FFF7FDFE1812FFF7FDFEA4
:1007B000D8B2FFF7FAFE7B490988491EC1F30F2022
:1007C000FFF7F3FE77490978491EC8B2FFF7EDFE3F
:1007D00074498889FFF7E6FE2012FFF7E6FEE0B2D3
:1007E000FFF7E3FE6F494988491EC1F30F20FFF769
:1007F000DCFE6C498978491EC8B2FFF7D6FE12E0CC
:1008000068488079012804D166480088401EC01AD3
:1008100083B2644948891946FFF7D3FE6149888944
:100820002146FFF7CEFE10BD2DE9F04105460E46EC
:1008300000240027A0465B480088A84203DD5948F1
:100840004088B04202DC0020BDE8F08131462846F5
:10085000FFF7E4FE5348808849F24131884217D0BF
:100860005048808846F60401884211D04D4880885F
:1008700045F2103188420BD04A48808841F6631116
:10088000884205D04748808849F28841884203D190
:100890002E20FFF787FE0DE04248808845F2105178
:1008A000884204D14FF43850FFF77CFE02E022204A
:1008B000FFF778FE3B48808849F22031884202D118
:1008C0000220FFF7A4FEFFF774FE04463548808837
:1008D00041F66311884201D12046B5E70220FFF7B7
:1008E00096FEFFF766FE04462E48808849F24131A5
:1008F000884211D02B48808845F2103188420BD0B5
:100900002848808845F21051884205D025488088C3
:1009100049F2884188420AD10220FFF778FEFFF7AA
:1009200048FE8046E7B24FF6FF7000EA07271D48F1
:10093000808849F22531884216D01A48808844F2CE
:100940003551884210D017488088091F88420BD043
:10095000144880884BF20551884205D011488088A0
:100960004CF20551884201D120466DE70D48808840
:1009700049F24131884211D00A48808845F210314D
:1009800088420BD00748808845F21051884205D034
:100990000448808849F2884188420CD1E01203E083
:1009A000FE07006C38000020C002B91240EA411076
:1009B00040EAE82048E72046FFF71CFE44E700B580
:1009C000F648808849F24131884217D0F348808840
:1009D00046F60401884211D0F048808845F2103173
:1009E00088420BD0ED48808841F66311884205D0DB
:1009F000EA48808849F28841884203D12920FFF7DC
:100A0000D1FD0FE0E548808845F21051884204D1BD
:100A10004FF42450FFF7C6FD04E040F273110720A5
:100A2000FFF7CFFD00BD00B5DC48808849F24131B9
:100A3000884217D0D948808846F60401884211D0F0
:100A4000D648808845F2103188420BD0D348808840
:100A500041F66311884205D0D048808849F2884128
:100A6000884203D12820FFF79DFD0EE0CB48808807
:100A700045F21051884204D14FF42050FFF792FD07
:100A800003E000210720FFF79CFD00BD70B5044680
:100A900000230026C148807901280BD1BF488088F7
:100AA00046F60401884205D0BC48808841F66311AF
:100AB000884208D1B9488079F0B9B848808841F6B1
:100AC0006311884218D1082C15D2DFE804F004061F
:100AD000080A0C0E101206240DE007240BE0042473
:100AE00009E0052407E0012405E0002403E00324D5
:100AF00001E0022400BF00BFA848808849F24131CC
:100B000088421DD0A548808846F60401884217D047
:100B1000A248808845F21031884211D09F488088D1
:100B200045F2105188420BD09C48808841F66311F1
:100B3000884205D09948808849F2884188427DD111
:100B4000082C1CD2DFE804F00406090C0F1215185B
:100B500000BF14E043F0800311E043F040030EE0D7
:100B600043F0C0030BE043F0200308E043F06003D0
:100B700005E043F0A00302E043F0E00300BF00BF44
:100B80008648808845F21051884202D14FF4585669
:100B900000E036268148808845F2103188420DD029
:100BA0007E48808845F21051884207D07B48808873
:100BB00041F66311884201D043F0080377488088EA
:100BC00046F60401884201D143F00203194630463B
:100BD000FFF7F7FC7148808841F6631188421DD009
:100BE00003F0200068B16D4800886C49498888424C
:100BF00014DA6A48058840886849088008464580B4
:100C00000CE06648008865494988884206DD6348EB
:100C10000588408861490880084645805F4880888B
:100C200045F21051884254D15C494889FFF7BAFC1B
:100C30000020FFF7BAFC5949498900E078E0491CD7
:100C400088B2FFF7AFFC0020FFF7AFFC534949899A
:100C5000891C88B2FFF7A6FC50490988491EC1F3D8
:100C60000F20FFF7A2FC4D494989C91C88B2FFF744
:100C700099FC4A490978491EC8B2FFF796FC4749D2
:100C80008889FFF78FFC0020FFF78FFC4349898993
:100C9000491C88B2FFF786FC0020FFF786FC3F491D
:100CA0008989891C88B2FFF77DFC3C494988491E27
:100CB000C1F30F20FFF779FC38498989C91C88B234
:100CC000FFF770FC35498978491EC8B2FFF76DFC03
:100CD00055E032494889FFF765FC0020FFF765FCC5
:100CE0000020FFF762FC2D490988491EC1F30F203F
:100CF000FFF75BFC29490978491EC8B2FFF755FC8C
:100D000026498889FFF74EFC0020FFF74EFC0020A3
:100D1000FFF74BFC21494988491EC1F30F20FFF71B
:100D200044FC1E498978491EC8B2FFF73EFC26E004
:100D3000082C1CD2DFE804F004070A0D0F12151866
:100D400043F0300313E043F0100310E043F02003BE
:100D50000DE000BF0BE043F0380308E043F0280348
:100D600005E043F0180302E043F0080300BF00BFB2
:100D7000032643F4805319463046FFF722FC70BD2A
:100D800030B504460D4629462046FFF747FCFFF7DD
:100D900028FC034800880349088030BD3800002043
:100DA000140000200008006C30B503460C461546C0
:100DB000FE48808849F24131884205D0FB4880884E
:100DC00045F21031884214D1F8494889FFF7EAFB0F
:100DD0001812FFF7EAFBD8B2FFF7E7FBF34988895F
:100DE000FFF7E0FB2012FFF7E0FBE0B2FFF7DDFBCF
:100DF000B3E0EE48808845F21051884220D1EB499B
:100E00004889FFF7CFFB1812FFF7CFFBE749498965
:100E1000491C88B2FFF7C6FBD8B2FFF7C6FBE3490F
:100E20008889FFF7BFFB2012FFF7BFFBDF498989E5
:100E3000491C88B2FFF7B6FBE0B2FFF7B6FB8CE0C7
:100E4000DA48808841F66311884228D1D7488079F2
:100E500020B9D6480088401EC01A83B2D3494889B9
:100E6000FFF7A0FB1812FFF7A0FBD8B2FFF79DFB1E
:100E70001812FFF79AFBD8B2FFF797FBCB49888986
:100E8000FFF790FB2012FFF790FBE0B2FFF78DFB1E
:100E90002012FFF78AFBE0B2FFF787FB5DE0C34853
:100EA000808846F6040188421DD1C0488079012817
:100EB00004D1BE480088401EC01A83B2BB4948898D
:100EC000FFF770FB1812FFF770FBD8B2FFF76DFB4E
:100ED000B6498889FFF766FB2012FFF766FBE0B290
:100EE000FFF763FB39E0B148808849F288418842C6
:100EF00020D1AE494889FFF755FB1812FFF755FB83
:100F0000D8B2FFF752FB1812FFF74FFBD8B2FFF72A
:100F10004CFBA6498889FFF745FB2012FFF745FBEC
:100F2000E0B2FFF742FB2012FFF73FFBE0B2FFF712
:100F30003CFB12E09D488079012804D19B48008841
:100F4000401EC01A83B2994948891946FFF739FBF8
:100F5000964988892146FFF734FB944800899449D3
:100F60000880881C058030BD2DE9F0470446BE206E
:100F7000FFF718FB0520FFF718FB204605F0BDFE24
:100F800007464FF066328B4B05F0CAFE054605F06A
:100F900087FE1FFA80F94846FFF707FB0120FFF79D
:100FA00004FBFF20FFF701FB0020FFF7FEFA002003
:100FB000FFF7FBFABDE8F08710B50446002C73D1AB
:100FC0007A498871F02008804FF4A0704880084664
:100FD000808849F24131884211D07448808846F6B1
:100FE000040188420BD07148808845F21031884254
:100FF00005D06E48808849F28841884220D12C2053
:101000006A4908812A2048812B20888108468088E7
:1010100046F6040188420BD06448808845F21031BE
:10102000884205D06148808849F28841884206D1CB
:101030004FF4A0705D4908804FF4F0704880B4E030
:101040005A48808845F21051884210D14FF43050F0
:10105000564908814FF4285048814FF42C5088811C
:101060004FF4F07008804FF4487048809DE04F487E
:10107000808841F6631188420DD12C204B490881AC
:101080002B2048812A2088814FF4F07008804FF48B
:101090004870488089E02220444908812020488106
:1010A0002120888181E0FFE70120404988714FF4C9
:1010B000A0700880F02048800846808849F24131BD
:1010C00088420BD03948808845F21031884205D0DB
:1010D0003648808849F2884188420DD12C20334916
:1010E00008812A2048812B2088814FF4F0700880E5
:1010F0004FF4A07048803FE02C48808846F60401F9
:10110000884207D12C20294908812B2048812A2098
:10111000888131E02548808845F21051884210D1FD
:101120004FF43050214908814FF4285048814FF442
:101130002C5088814FF4487008804FF4F07048803C
:101140001AE01A48808841F6631188420DD12C209C
:10115000164908812A2048812B2088814FF4487045
:1011600008804FF4F070488006E022200F49088183
:1011700021204881202088810C48808846F604017F
:1011800088420BD00948808845F21031884205D04A
:101190000648808849F28841884206D14FF4F070B1
:1011A000024908804FF4A070488005E03800002014
:1011B000FE07006C666604400320FFF767FC10BD65
:1011C0002DE9F04F86B004460D469046994604EB53
:1011D0000800401E86B205EB0900401E87B2FE489B
:1011E000808849F2413188421BD0FB48808845F213
:1011F0001031884215D0F848808846F604018842AC
:101200000FD0F5488079012805D1F348808841F650
:101210006311884205D0F048808849F288418842AD
:1012200020D1ED494889FFF7BDF92012FFF7BDF93C
:10123000E0B2FFF7BAF93012FFF7B7F9F0B2FFF7F3
:10124000B4F9E5498889FFF7ADF92812FFF7ADF940
:10125000E8B2FFF7AAF93812FFF7A7F9F8B2FFF7DB
:10126000A4F9B8E0DC48808841F66311884234D1A3
:10127000D9480088A0EB0800001B84B205EB0900E8
:10128000401E1FFA80F9D4494889FFF78BF92012D4
:10129000FFF78BF9E0B2FFF788F904EB0801491E6C
:1012A000C1F30F20FFF781F904EB0801491EC8B212
:1012B000FFF77BF9C8498889FFF774F92812FFF70F
:1012C00074F9E8B2FFF771F94FEA2920FFF76DF9D9
:1012D00009F0FF00FFF769F97DE0BF48808845F21B
:1012E0001051884244D1BC494889FFF75BF920126C
:1012F000FFF75BF9B8494989491C88B2FFF752F9F1
:10130000E0B2FFF752F9B4494989891C88B2FFF766
:1013100049F93012FFF749F9AF494989C91C88B228
:10132000FFF740F9F0B2FFF740F9AB498889FFF7C2
:1013300039F92812FFF739F9A7498989491C88B278
:10134000FFF730F9E8B2FFF730F9A3498989891C22
:1013500088B2FFF727F93812FFF727F99E498989E4
:10136000C91C88B2FFF71EF9F8B2FFF71EF932E088
:101370009948807901280ED1AA46BB469648008834
:10138000801B401E80B2019093480088001B401EC5
:1013900080B2009003E0A246B3460195009750202A
:1013A0000590512004905220039053200290514602
:1013B0000598FFF706F959460498FFF702F90199D5
:1013C0000398FFF7FEF800990298FFF7FAF829460C
:1013D0002046FFF723F906B0BDE8F08F70B504464C
:1013E00000267D480588408845437B48808846F62E
:1013F0000401884216D178488079012812D1002052
:10140000754988712A2048812B208881002108464F
:10141000FFF704F90120704988712B2048812A20A8
:10142000888103E000210846FFF7F8F8FFF7D9F8B4
:10143000002602E069480480761CAE42FAD370BDF3
:1014400000B59FB00121080205F05DFA01214FF4BB
:10145000F47005F065FA0420ADF8780010208DF8DE
:101460007B0003208DF87A001EA95D4804F098FDEA
:10147000642004F0D4F80421594804F040FE6420AC
:1014800004F0CDF80421564804F037FE642004F03F
:10149000C6F84FF40040ADF8780010208DF87B00BE
:1014A00003208DF87A001EA94E4804F079FD4CF215
:1014B0003370ADF8780018208DF87B0003208DF88C
:1014C0007A001EA9484804F06BFD4FF68070ADF815
:1014D000780018208DF87B0003208DF87A001EA973
:1014E0003F4804F05DFD41F20100ADF8780018209E
:1014F0008DF87B0003208DF87A001EA93B4804F08C
:101500004FFD01200890002009900F200A90002034
:101510000B900C900D900E90019002900320039080
:101520000020049005900690079006200F90002060
:10153000109011901020129000201390159014908C
:10154000169017904FF480501890002019904FF487
:1015500080401A9000201B9008A81C9001A81D90A4
:101560000FA804F003FA0121062004F067FB3220E3
:1015700004F055F849F28840174988800846808869
:10158000FF280ADB084680884FF6FF71884204D0A6
:1015900011488088B0F5134F7ED1D320FFF702F8B1
:1015A000FFF707F80C498880FFF703F80A4988809D
:1015B000FEF7FFFF08498880084680884FF6FF71D4
:1015C00001EA002004498880FEF7F3FF0249898878
:1015D0000843014988800BE0380000200008006CB7
:1015E00000180140000C014000140140002001409F
:1015F0000846808849F2413188424DD0FE488088B3
:1016000049F288418842F8D0BF20FEF7CBFFFEF7B1
:10161000D0FFF9498880FEF7CCFFF7498880FEF7B4
:10162000C8FFF5498880FEF7C4FFF3498880084663
:1016300080884FF6FF7101EA0020EF498880FEF7AD
:10164000B8FFED4989880843EB49888008468088BF
:1016500046F6040188427AD0D420FEF7A3FFFEF7B5
:10166000A8FFE5498880FEF7A4FFE3498880FEF7DC
:10167000A0FFE1498880084680884FF6FF7101EAA3
:101680000020DD498880FEF794FFDB498988084304
:10169000D9498880084600E059E0808845F2103139
:1016A000884254D04FF45A40FEF77CFFFEF781FF8A
:1016B000D14988804FF45B40FEF774FFFEF779FF55
:1016C000CD498880084680884FF6FF7101EA0020E6
:1016D000C94988804FF45C40FEF764FFFEF769FF5C
:1016E000C54989880843C449888008468088B0F580
:1016F000004F02D145F210508880BF48808845F2E3
:101700001051884223D0A120FEF74CFFFEF751FF75
:10171000B9498880FEF74DFFB74988800846808820
:101720004FF6FF7101EA0020B3498880FEF741FFC0
:10173000B14989880843B04988800846808845F2C5
:101740006171884203D141F66310AB498880AA4891
:101750008188AAA005F04AF9A748808849F241315A
:1017600088427CD1CF20FEF71DFF0020FEF71DFF31
:10177000C120FEF71AFF3020FEF717FFED20FEF71D
:1017800011FF6420FEF711FF0320FEF70EFF122069
:10179000FEF70BFF8120FEF708FFE820FEF702FFAF
:1017A0008520FEF702FF1020FEF7FFFE7A20FEF7ED
:1017B000FCFECB20FEF7F6FE3920FEF7F6FE2C20CD
:1017C000FEF7F3FE0020FEF7F0FE3420FEF7EDFEFC
:1017D0000220FEF7EAFEF720FEF7E4FE2020FEF7E7
:1017E000E4FEEA20FEF7DEFE0020FEF7DEFE00202B
:1017F000FEF7DBFEC020FEF7D5FE1B20FEF7D5FE70
:10180000C120FEF7CFFE0120FEF7CFFEC520FEF778
:10181000C9FE3020FEF7C9FE3020FEF7C6FEC72005
:10182000FEF7C0FEB720FEF7C0FE3620FEF7BAFE78
:101830004820FEF7BAFE3A20FEF7B4FE5520FEF728
:10184000B4FEB120FEF7AEFE0020FEF7AEFE1A2079
:10185000FEF7ABFEB620FEF7A5FE0A2000E099E0F9
:10186000FEF7A3FEA220FEF7A0FEF220FEF79AFEEE
:101870000020FEF79AFE2620FEF794FE0120FEF7D8
:1018800094FEE020FEF78EFE0F20FEF78EFE2A204B
:10189000FEF78BFE2820FEF788FE0820FEF785FE67
:1018A0000E20FEF782FE0820FEF77FFE5420FEF792
:1018B0007CFEA920FEF779FE4320FEF776FE0A2083
:1018C000FEF773FE0F20FEF770FE0020FEF76DFEA0
:1018D0000020FEF76AFE0020FEF767FE0020FEF7FC
:1018E00064FEE120FEF75EFE0020FEF75EFE15209E
:1018F000FEF75BFE1720FEF758FE0720FEF755FEA9
:101900001120FEF752FE0620FEF74FFE2B20FEF7B9
:101910004CFE5620FEF749FE3C20FEF746FE052011
:10192000FEF743FE1020FEF740FE0F20FEF73DFEBF
:101930003F20FEF73AFE3F20FEF737FE0F20FEF76E
:1019400034FE2B20FEF72EFE0020FEF72EFE002098
:10195000FEF72BFE0120FEF728FE3F20FEF725FEB6
:101960002A20FEF71FFE0020FEF71FFE0020FEF7D4
:101970001CFE0020FEF719FEEF20FEF716FE1120D8
:10198000FEF710FE782003F04AFE2920FEF70AFE3B
:1019900003F0FDB91848808849F2884188427DD11A
:1019A000F720FEF7FFFDA920FEF7FFFD5120FEF70F
:1019B000FCFD2C20FEF7F9FD8220FEF7F6FDC0208D
:1019C000FEF7F0FD1120FEF7F0FD0920FEF7EDFD1A
:1019D000C120FEF7E7FD4120FEF7E7FDC520FEF739
:1019E000E1FD0020FEF7E1FD0A20FEF7DEFD80208C
:1019F000FEF7DBFDB12009E038000020204C434415
:101A00002049443A25780D0A00000000FEF7CAFD7F
:101A1000B020FEF7CAFD1120FEF7C7FDB420FEF787
:101A2000C1FD0220FEF7C1FDB620FEF7BBFD02207E
:101A3000FEF7BBFD2220FEF7B8FDB720FEF7B2FD92
:101A4000C620FEF7B2FDBE20FEF7ACFD0020FEF77B
:101A5000ACFD0420FEF7A9FDE920FEF7A3FD002060
:101A6000FEF7A3FD3620FEF79DFD0820FEF79DFD45
:101A70003A20FEF797FD5520FEF797FDE020FEF790
:101A800091FD0020FEF791FD0720FEF78EFD10204E
:101A9000FEF78BFD0920FEF788FD00E05AE01720D5
:101AA000FEF783FD0B20FEF780FD4120FEF77DFD54
:101AB0008920FEF77AFD4B20FEF777FD0A20FEF71E
:101AC00074FD0C20FEF771FD0E20FEF76EFD182050
:101AD000FEF76BFD1B20FEF768FD0F20FEF765FD8E
:101AE000E120FEF75FFD0020FEF75FFD1720FEF707
:101AF0005CFD1A20FEF759FD0420FEF756FD0E206E
:101B0000FEF753FD0620FEF750FD2F20FEF74DFD9A
:101B10004520FEF74AFD4320FEF747FD0220FEF771
:101B200044FD0A20FEF741FD0920FEF73EFD32206C
:101B3000FEF73BFD3620FEF738FD0F20FEF735FDA2
:101B40001120FEF72FFD782003F069FD2920FEF714
:101B500029FD1DE7FE48808846F6040188427CD1B5
:101B60001120FEF71FFD142003F059FDD020FEF7D1
:101B700019FD0720FEF719FD4220FEF716FD1D2076
:101B8000FEF713FDD120FEF70DFD0020FEF70DFD41
:101B90001A20FEF70AFD0920FEF707FDD220FEF706
:101BA00001FD0120FEF701FD2220FEF7FEFCC02012
:101BB000FEF7F8FC1020FEF7F8FC3B20FEF7F5FCE2
:101BC0000020FEF7F2FC0220FEF7EFFC1120FEF7EA
:101BD000ECFCC520FEF7E6FC0320FEF7E6FCC8207F
:101BE000FEF7E0FC0020FEF7E0FC2520FEF7DDFC20
:101BF0002120FEF7DAFC0520FEF7D7FC0020FEF7D7
:101C0000D4FC0A20FEF7D1FC6520FEF7CEFC25208F
:101C1000FEF7CBFC7720FEF7C8FC5020FEF7C5FC92
:101C20000F20FEF7C2FC0020FEF7BFFCF820FEF7F5
:101C3000B9FC0120FEF7B9FCFE20FEF7B3FC002042
:101C4000FEF7B3FC0220FEF7B0FC2020FEF7AAFC52
:101C50003620FEF7A7FC082000E02CE0FEF7A5FCEC
:101C60003A20FEF79FFC5520FEF79FFC2B20FEF745
:101C700099FC0020FEF799FC0020FEF796FC01205D
:101C8000FEF793FC3F20FEF790FC2A20FEF78AFC2B
:101C90000020FEF78AFC0020FEF787FC0120FEF7FB
:101CA00084FCDF20FEF781FC782003F0B8FC2920BB
:101CB000FEF778FC6CE6A648808845F21031884231
:101CC00040F07C87ED20FEF76DFC0120FEF76DFCF7
:101CD000FE20FEF76AFCEE20FEF764FCDE20FEF735
:101CE00064FC2120FEF761FCF120FEF75BFC012083
:101CF000FEF75BFCDF20FEF755FC1020FEF755FCDD
:101D0000C420FEF74FFC8F20FEF74FFCC620FEF7E5
:101D100049FC0020FEF749FCE220FEF746FCE220E9
:101D2000FEF743FCE220FEF740FCBF20FEF73AFC42
:101D3000AA20FEF73AFCB020FEF734FC0D20FEF797
:101D400034FC0020FEF731FC0D20FEF72EFC0020B5
:101D5000FEF72BFC1120FEF728FC0020FEF725FCE7
:101D60001920FEF722FC0020FEF71FFC2120FEF7C1
:101D70001CFC0020FEF719FC2D20FEF716FC0020AD
:101D8000FEF713FC3D20FEF710FC0020FEF70DFCD3
:101D90005D20FEF70AFC0020FEF707FC5D20FEF741
:101DA00004FC0020FEF701FCB120FEF7FBFB8020C5
:101DB000FEF7FBFB0020FEF7F8FB8B20FEF7F5FBA0
:101DC0000020FEF7F2FB9620FEF7EFFB0020FEF767
:101DD000ECFBB220FEF7E6FB0020FEF7E6FB00205E
:101DE000FEF7E3FB0220FEF7E0FB0020FEF7DDFB41
:101DF0000320FEF7DAFB0020FEF7D7FBB320FEF747
:101E0000D1FB0020FEF7D1FB0020FEF7CEFB002027
:101E1000FEF7CBFB0020FEF7C8FB0020FEF7C5FB5A
:101E20000020FEF7C2FB0020FEF7BFFB0020FEF7FC
:101E3000BCFB0020FEF7B9FB0020FEF7B6FB00203C
:101E4000FEF7B3FB0020FEF7B0FB0020FEF7ADFB72
:101E50000020FEF7AAFB0020FEF7A7FB0020FEF7FC
:101E6000A4FB0020FEF7A1FB0020FEF79EFB002054
:101E7000FEF79BFB0020FEF798FB0020FEF795FB8A
:101E80000020FEF792FB0020FEF78FFB0020FEF7FC
:101E90008CFBB420FEF786FB8B20FEF786FB002030
:101EA000FEF783FB9620FEF780FB0020FEF77DFB0C
:101EB000A120FEF77AFB0020FEF777FBB520FEF7A6
:101EC00071FB0220FEF771FB0020FEF76EFB032082
:101ED000FEF76BFB0020FEF768FB0420FEF765FBB6
:101EE0000020FEF762FBB620FEF75CFB0020FEF749
:101EF0005CFB0020FEF759FBB720FEF753FB0020E8
:101F0000FEF753FB0020FEF750FB3F20FEF74DFB92
:101F10000020FEF74AFB5E20FEF747FB0020FEF79D
:101F200044FB6420FEF741FB0020FEF73EFB8C20C3
:101F3000FEF73BFB0020FEF738FBAC20FEF735FB3D
:101F40000020FEF732FBDC20FEF72FFB002001E033
:101F500038000020FEF729FB7020FEF726FB00204A
:101F6000FEF723FB9020FEF720FB0020FEF71DFB71
:101F7000EB20FEF71AFB0020FEF717FBDC20FEF734
:101F800014FB0020FEF711FBB820FEF70BFB00202E
:101F9000FEF70BFB0020FEF708FB0020FEF705FB19
:101FA0000020FEF702FB0020FEF7FFFA0020FEF7FC
:101FB000FCFA0020FEF7F9FA0020FEF7F6FABA2044
:101FC000FEF7F0FA2420FEF7F0FA0020FEF7EDFA13
:101FD0000020FEF7EAFA0020FEF7E7FAC120FEF73C
:101FE000E1FA2020FEF7E1FA0020FEF7DEFA5420A5
:101FF000FEF7DBFA0020FEF7D8FAFF20FEF7D5FA4D
:102000000020FEF7D2FAC220FEF7CCFA0A20FEF733
:10201000CCFA0020FEF7C9FA0420FEF7C6FA002029
:10202000FEF7C3FAC320FEF7BDFA3C20FEF7BDFA67
:102030000020FEF7BAFA3A20FEF7B7FA0020FEF7C2
:10204000B4FA3920FEF7B1FA0020FEF7AEFA3720D5
:10205000FEF7ABFA0020FEF7A8FA3C20FEF7A5FA3F
:102060000020FEF7A2FA3620FEF79FFA0020FEF7C6
:102070009CFA3220FEF799FA0020FEF796FA2F20FC
:10208000FEF793FA0020FEF790FA2C20FEF78DFA67
:102090000020FEF78AFA2920FEF787FA0020FEF7D3
:1020A00084FA2620FEF781FA0020FEF77EFA24202B
:1020B000FEF77BFA0020FEF778FA2420FEF775FA87
:1020C0000020FEF772FA2320FEF76FFA0020FEF7D9
:1020D0006CFA3C20FEF769FA0020FEF766FA36201B
:1020E000FEF763FA0020FEF760FA3220FEF75DFA91
:1020F0000020FEF75AFA2F20FEF757FA0020FEF7CD
:1021000054FA2C20FEF751FA0020FEF74EFA29204F
:10211000FEF74BFA0020FEF748FA2620FEF745FAB4
:102120000020FEF742FA2420FEF73FFA0020FEF7D7
:102130003CFA2420FEF739FA0020FEF736FA232075
:10214000FEF733FA0020FEF730FAC420FEF72AFA31
:102150006220FEF72AFA0020FEF727FA0520FEF794
:1021600024FA0020FEF721FA8420FEF71EFA002050
:10217000FEF71BFAF020FEF718FA0020FEF715FA1A
:102180001820FEF712FA0020FEF70FFAA420FEF73F
:102190000CFA0020FEF709FA1820FEF706FA0020D4
:1021A000FEF703FA5020FEF700FA0020FEF7FDF9D3
:1021B0000C20FEF7FAF90020FEF7F7F91720FEF7DA
:1021C000F4F90020FEF7F1F99520FEF7EEF9002072
:1021D000FEF7EBF9F320FEF7E8F90020FEF7E5F94A
:1021E000E620FEF7E2F90020FEF7DFF9C520FEF752
:1021F000D9F93220FEF7D9F90020FEF7D6F94420AC
:10220000FEF7D3F90020FEF7D0F96520FEF7CDF9EF
:102210000020FEF7CAF97620FEF7C7F90020FEF786
:10222000C4F98820FEF7C1F90020FEF7BEF9C620E8
:10223000FEF7B8F92020FEF7B8F90020FEF7B5F94F
:102240001720FEF7B2F90020FEF7AFF90120FEF7E4
:10225000ACF90020FEF7A9F9C720FEF7A3F900208A
:10226000FEF7A3F90020FEF7A0F90020FEF79DF984
:102270000020FEF79AF9C820FEF794F90020FEF737
:1022800094F90020FEF791F90020FEF78EF9002066
:10229000FEF78BF9C920FEF785F90020FEF785F9D6
:1022A0000020FEF782F90020FEF77FF90020FEF7FC
:1022B0007CF90020FEF779F90020FEF776F900207E
:1022C000FEF773F90020FEF770F90020FEF76DF9B4
:1022D0000020FEF76AF90020FEF767F90020FEF7FC
:1022E00064F90020FEF761F90020FEF75EF9002096
:1022F000FEF75BF90020FEF758F9E020FEF752F9EF
:102300001620FEF752F90020FEF74FF91C20FEF7C9
:102310004CF90020FEF749F92120FEF746F900208C
:10232000FEF743F93620FEF740F90020FEF73DF9AD
:102330004620FEF73AF90020FEF737F95220FEF763
:1023400034F90020FEF731F96420FEF72EF9002061
:10235000FEF72BF97A20FEF728F90020FEF725F981
:102360008B20FEF722F90020FEF71FF99920FEF7D7
:102370001CF90020FEF719F9A820FEF716F9002035
:10238000FEF713F9B920FEF710F90020FEF70DF95A
:10239000C420FEF70AF90020FEF707F9CA20FEF76D
:1023A00004F90020FEF701F9D220FEF7FEF8002024
:1023B000FEF7FBF8D920FEF7F8F80020FEF7F5F855
:1023C000E020FEF7F2F80020FEF7EFF8F320FEF72A
:1023D000ECF80020FEF7E9F8E120FEF7E3F816201C
:1023E000FEF7E3F80020FEF7E0F81C20FEF7DDF82A
:1023F0000020FEF7DAF82220FEF7D7F80020FEF7DB
:10240000D4F83620FEF7D1F80020FEF7CEF84520AC
:10241000FEF7CBF80020FEF7C8F85220FEF7C5F80B
:102420000020FEF7C2F86420FEF7BFF80020FEF798
:10243000BCF87A20FEF7B9F80020FEF7B6F88B203A
:10244000FEF7B3F80020FEF7B0F89920FEF7ADF8DC
:102450000020FEF7AAF8A820FEF7A7F80020FEF754
:10246000A4F8B920FEF7A1F80020FEF79EF8C420DA
:10247000FEF79BF80020FEF798F8CA20FEF795F8C3
:102480000020FEF792F8D220FEF78FF80020FEF72A
:102490008CF8D820FEF789F80020FEF786F8E020B7
:1024A000FEF783F80020FEF780F8F320FEF77DF8B2
:1024B0000020FEF77AF8E220FEF774F80520FEF718
:1024C00074F80020FEF771F80B20FEF76EF800207C
:1024D000FEF76BF81B20FEF768F80020FEF765F8A2
:1024E0003420FEF762F80020FEF75FF84420FEF784
:1024F0005CF80020FEF759F84F20FEF756F8002050
:10250000FEF753F86120FEF750F80020FEF74DF873
:102510007920FEF74AF80020FEF747F88820FEF7FA
:1025200044F80020FEF741F89720FEF73EF800201F
:10253000FEF73BF8A620FEF738F80020FEF735F846
:10254000B720FEF732F80020FEF72FF8C220FEF782
:102550002CF80020FEF729F8C720FEF726F8002007
:10256000FEF723F8D120FEF720F80020FEF71DF833
:10257000D620FEF71AF80020FEF717F8DD20FEF748
:1025800014F80020FEF711F8F320FEF70EF80020F3
:10259000FEF70BF8E320FEF705F80520FEF705F837
:1025A0000020FEF702F80A20FDF7FFFF0020FDF7EC
:1025B000FCFF1C20FDF7F9FF0020FDF7F6FF33209C
:1025C000FDF7F3FF0020FDF7F0FF4420FDF7EDFFDE
:1025D0000020FDF7EAFF5020FDF7E7FF0020FDF7A0
:1025E000E4FF6220FDF7E1FF0020FDF7DEFF782029
:1025F000FDF7DBFF0020FDF7D8FF8820FDF7D5FFB2
:102600000020FDF7D2FF9720FDF7CFFF0020FDF758
:10261000CCFFA620FDF7C9FF0020FDF7C6FFB720BD
:10262000FDF7C3FF0020FDF7C0FFC220FDF7BDFF8F
:102630000020FDF7BAFFC720FDF7B7FF0020FDF728
:10264000B4FFD120FDF7B1FF0020FDF7AEFFD5208C
:10265000FDF7ABFF0020FDF7A8FFDD20FDF7A5FF8C
:102660000020FDF7A2FFF320FDF79FFF0020FDF7FC
:102670009CFFE420FDF796FF0120FDF796FF002068
:10268000FDF793FF0120FDF790FF0020FDF78DFF80
:102690000220FDF78AFF0020FDF787FF2A20FDF7C3
:1026A00084FF0020FDF781FF3C20FDF77EFF002026
:1026B000FDF77BFF4B20FDF778FF0020FDF775FF4E
:1026C0005D20FDF772FF0020FDF76FFF7420FDF71E
:1026D0006CFF0020FDF769FF8420FDF766FF0020F6
:1026E000FDF763FF9320FDF760FF0020FDF75DFF1E
:1026F000A220FDF75AFF0020FDF757FFB320FDF79A
:1027000054FF0020FDF751FFBE20FDF74EFF0020D3
:10271000FDF74BFFC420FDF748FF0020FDF745FF04
:10272000CD20FDF742FF0020FDF73FFFD320FDF74E
:102730003CFF0020FDF739FFDD20FDF736FF0020CC
:10274000FDF733FFF320FDF730FF0020FDF72DFFED
:10275000E520FDF727FF0020FDF727FF0020FDF70C
:1027600024FF0020FDF721FF0020FDF71EFF0220BF
:10277000FDF71BFF0020FDF718FF2920FDF715FFCF
:102780000020FDF712FF3C20FDF70FFF0020FDF7B2
:102790000CFF4B20FDF709FF0020FDF706FF5D2031
:1027A000FDF703FF0020FDF700FF7420FDF7FDFE9D
:1027B0000020FDF7FAFE8420FDF7F7FE0020FDF76C
:1027C000F4FE9320FDF7F1FE0020FDF7EEFEA220BF
:1027D000FDF7EBFE0020FDF7E8FEB320FDF7E5FE78
:1027E0000020FDF7E2FEBE20FDF7DFFE0020FDF732
:1027F000DCFEC420FDF7D9FE0020FDF7D6FECD207B
:10280000FDF7D3FE0020FDF7D0FED320FDF7CDFE6F
:102810000020FDF7CAFEDC20FDF7C7FE0020FDF713
:10282000C4FEF320FDF7C1FE0020FDF7BEFEE6204A
:10283000FDF7B8FE1120FDF7B8FE0020FDF7B5FE4C
:102840003420FDF7B2FE0020FDF7AFFE5620FDF765
:10285000ACFE0020FDF7A9FE7620FDF7A6FE0020C5
:10286000FDF7A3FE7720FDF7A0FE0020FDF79DFEFB
:102870006620FDF79AFE0020FDF797FE8820FDF701
:1028800094FE0020FDF791FE9920FDF78EFE0020BA
:10289000FDF78BFEBB20FDF788FE0020FDF785FECF
:1028A0009920FDF782FE0020FDF77FFE6620FDF7F0
:1028B0007CFE0020FDF779FE5520FDF776FE002016
:1028C000FDF773FE5520FDF770FE0020FDF76DFE4D
:1028D0004520FDF76AFE0020FDF767FE4320FDF767
:1028E00064FE0020FDF761FE4420FDF75EFE00203F
:1028F000FDF75BFEE720FDF755FE3220FDF755FEA4
:102900000020FDF752FE5520FDF74FFE0020FDF799
:102910004CFE7620FDF749FE0020FDF746FE6620BE
:10292000FDF743FE0020FDF740FE6720FDF73DFE6A
:102930000020FDF73AFE6720FDF737FE0020FDF787
:1029400034FE8720FDF731FE0020FDF72EFE992092
:10295000FDF72BFE0020FDF728FEBB20FDF725FE2E
:102960000020FDF722FE9920FDF71FFE0020FDF755
:102970001CFE7720FDF719FE0020FDF716FE44200F
:10298000FDF713FE0020FDF710FE5620FDF70DFEAB
:102990000020FDF70AFE2320FDF707FE0020FDF7CB
:1029A00004FE3320FDF701FE0020FDF7FEFD45206B
:1029B000FDF7FBFD0020FDF7F8FDE820FDF7F2FD37
:1029C0000020FDF7F2FD0020FDF7EFFD9920FDF757
:1029D000ECFD0020FDF7E9FD8720FDF7E6FD002076
:1029E000FDF7E3FD8820FDF7E0FD0020FDF7DDFDAC
:1029F0007720FDF7DAFD0020FDF7D7FD6620FDF713
:102A0000D4FD0020FDF7D1FD8820FDF7CEFD00208C
:102A1000FDF7CBFDAA20FDF7C8FD0020FDF7C5FDA1
:102A2000BB20FDF7C2FD0020FDF7BFFD9920FDF79B
:102A3000BCFD0020FDF7B9FD6620FDF7B6FD0020C6
:102A4000FDF7B3FD5520FDF7B0FD0020FDF7ADFD0E
:102A50005520FDF7AAFD0020FDF7A7FD4420FDF756
:102A6000A4FD0020FDF7A1FD4420FDF79EFD002000
:102A7000FDF79BFD5520FDF798FD0020FDF795FD26
:102A8000E920FDF78FFDAA20FDF78FFD0020FDF75F
:102A90008CFD0020FDF789FD0020FDF786FD00205C
:102AA000FDF780FDAA20FDF780FDCF20FDF77AFD20
:102AB0000020FDF77AFD0020FDF777FD0020FDF7EF
:102AC00074FD0020FDF771FD0020FDF76EFD002074
:102AD000FDF76BFD0020FDF768FD0020FDF765FDAB
:102AE0000020FDF762FD0020FDF75FFD0020FDF7EF
:102AF0005CFD0020FDF759FD0020FDF756FD00208C
:102B0000FDF753FD0020FDF750FD0020FDF74DFDC2
:102B10000020FDF74AFDF020FDF744FD0020FDF701
:102B200044FD5020FDF741FD0020FDF73EFD002053
:102B3000FDF73BFD0020FDF738FDF320FDF732FDEA
:102B40000020FDF732FDF920FDF72CFD0620FDF7F2
:102B50002CFD1020FDF729FD2920FDF726FD002082
:102B6000FDF723FD3A20FDF71DFD5520FDF71DFD66
:102B70001120FDF717FD642002F051FD2920FDF71B
:102B800011FD3520FDF70EFD0020FDF70EFD512053
:102B9000FDF708FDFF20FDF708FD5320FDF702FDBE
:102BA0002C20FDF702FD5520FDF7FCFC8220FDF7EF
:102BB000FCFC2C20FDF7F6FC02F0E9B8FE4880880A
:102BC00045F2105188427DD155214FF47040FDF7F8
:102BD000F8FCAA214FF20100FDF7F3FC52214FF25D
:102BE0000200FDF7EEFC08214FF20300FDF7E9FCBF
:102BF00001214FF20400FDF7E4FC0D214FF43040B9
:102C0000FDF7DFFC0D214BF20100FDF7DAFC0D2191
:102C10004BF20200FDF7D5FC34214FF43640FDF7AE
:102C2000D0FC34214BF20160FDF7CBFC34214BF298
:102C30000260FDF7C6FC0D214FF43140FDF7C1FCE9
:102C40000D214BF20110FDF7BCFC0D214BF20210DF
:102C5000FDF7B7FC34214FF43740FDF7B2FC3421C7
:102C60004BF20170FDF7ADFC34214BF20270FDF721
:102C7000A8FC00214FF43240FDF7A3FC00214BF2E9
:102C80000120FDF79EFC00214BF20220FDF799FC8C
:102C900024214FF43840FDF794FC24214BF6010029
:102CA000FDF78FFC24214BF60200FDF78AFC012181
:102CB0004FF43F40FDF785FC0F214FF43340FDF703
:102CC00080FC00E0FDE30F214BF20130FDF779FCC1
:102CD0000F214BF20230FDF774FC34214FF43940E0
:102CE000FDF76FFC34214BF60110FDF76AFC34212F
:102CF0004BF60210FDF765FC08214FF43540FDF757
:102D000060FC08214BF20150FDF75BFC08214BF2FF
:102D10000250FDF756FC03214FF44240FDF751FCF1
:102D200024214FF43A40FDF74CFC24214BF60120BE
:102D3000FDF747FC24214BF60220FDF742FC002161
:102D40004FF43C40FDF73DFC78214BF60140FDF788
:102D500038FC00214BF60240FDF733FC00214FF414
:102D60003D40FDF72EFC78214BF60150FDF729FC84
:102D700000214BF60250FDF724FC00214FF43E40A9
:102D8000FDF71FFC64214BF60160FDF71AFC0021E2
:102D90004FF45140FDF715FC33214DF20110FDF7C2
:102DA00010FC00214DF20210FDF70BFC34214DF216
:102DB0000310FDF706FC00214DF20410FDF701FCA5
:102DC0003A214DF20510FDF7FCFB00214DF20610F3
:102DD000FDF7F7FB4A214DF20710FDF7F2FB00214A
:102DE0004DF20810FDF7EDFB5C214DF20910FDF7E7
:102DF000E8FB00214DF20A10FDF7E3FB81214DF2C3
:102E00000B10FDF7DEFB00214DF20C10FDF7D9FB96
:102E1000A6214DF20D10FDF7D4FB00214DF20E104E
:102E2000FDF7CFFBE5214DF20F10FDF7CAFB0121A5
:102E30004DF21010FDF7C5FB13214DF21110FDF7F7
:102E4000C0FB01214DF21210FDF7BBFB54214DF2E6
:102E50001310FDF7B6FB01214DF21410FDF7B1FB85
:102E600082214DF21510FDF7ACFB01214DF2161039
:102E7000FDF7A7FBCA214DF21710FDF7A2FB0221B7
:102E80004DF21810FDF79DFB00214DF21910FDF7D2
:102E900098FB02214DF21A10FDF793FB01214DF230
:102EA0001B10FDF78EFB02214DF21C10FDF789FB74
:102EB00034214DF21D10FDF784FB02214DF21E104E
:102EC000FDF77FFB67214DF21F10FDF77AFB022112
:102ED0004DF22010FDF775FB84214DF22110FDF716
:102EE00070FB02214DF22210FDF76BFBA4214DF285
:102EF0002310FDF766FB02214DF22410FDF761FB64
:102F0000B7214DF22510FDF75CFB02214DF2261092
:102F1000FDF757FBCF214DF22710FDF752FB0221A1
:102F20004DF22810FDF74DFBDE214DF22910FDF783
:102F300048FB02214DF22A10FDF743FBF2214DF22E
:102F40002B10FDF73EFB02214DF22C10FDF739FB53
:102F5000FE214DF22D10FDF734FB03214DF22E1012
:102F6000FDF72FFB10214DF22F10FDF72AFB032157
:102F70004DF23010FDF725FB33214DF23110FDF7F6
:102F800020FB03214DF23210FDF71BFB6D214DF2AA
:102F90003310FDF716FB00214FF45240FDF711FBF3
:102FA00033214DF20120FDF70CFB00214DF20220F0
:102FB000FDF707FB342101E0380000204DF203202B
:102FC000FDF7FFFA00214DF20420FDF7FAFA3A214D
:102FD0004DF20520FDF7F5FA00214DF20620FDF730
:102FE000F0FA4A214DF20720FDF7EBFA00214DF2ED
:102FF0000820FDF7E6FA5C214DF20920FDF7E1FA21
:1030000000214DF20A20FDF7DCFA81214DF20B2060
:10301000FDF7D7FA00214DF20C20FDF7D2FAA621D8
:103020004DF20D20FDF7CDFA00214DF20E20FDF7F7
:10303000C8FAE5214DF20F20FDF7C3FA01214DF248
:103040001020FDF7BEFA13214DF21120FDF7B9FA59
:1030500001214DF21220FDF7B4FA54214DF2132054
:10306000FDF7AFFA01214DF21420FDF7AAFA8221F3
:103070004DF21520FDF7A5FA01214DF21620FDF7BE
:10308000A0FACA214DF21720FDF79BFA02214DF25A
:103090001820FDF796FA00214DF21920FDF791FA5C
:1030A00002214DF21A20FDF78CFA01214DF21B206E
:1030B000FDF787FA02214DF21C20FDF782FA342138
:1030C0004DF21D20FDF77DFA02214DF21E20FDF785
:1030D00078FA67214DF21F20FDF773FA02214DF2B5
:1030E0002020FDF76EFA84214DF22120FDF769FAC8
:1030F00002214DF22220FDF764FAA4214DF2232093
:10310000FDF75FFA02214DF22420FDF75AFAB721AC
:103110004DF22520FDF755FA02214DF22620FDF74C
:1031200050FACF214DF22720FDF74BFA02214DF244
:103130002820FDF746FADE214DF22920FDF741FA5D
:1031400002214DF22A20FDF73CFAF2214DF22B200C
:10315000FDF737FA02214DF22C20FDF732FAFE215D
:103160004DF22D20FDF72DFA03214DF22E20FDF713
:1031700028FA10214DF22F20FDF723FA03214DF2FA
:103180003020FDF71EFA33214DF23120FDF719FAF8
:1031900003214DF23220FDF714FA6D214DF2332058
:1031A000FDF70FFA00214FF45340FDF70AFA3321DF
:1031B0004DF20130FDF705FA00214DF20230FDF726
:1031C00000FA34214DF20330FDF7FBF900214DF2F6
:1031D0000430FDF7F6F93A214DF20530FDF7F1F92B
:1031E00000214DF20630FDF7ECF94A214DF207308F
:1031F000FDF7E7F900214DF20830FDF7E2F95C2117
:103200004DF20930FDF7DDF900214DF20A30FDF7EE
:10321000D8F981214DF20B30FDF7D3F900214DF2A1
:103220000C30FDF7CEF9A6214DF20D30FDF7C9F9AE
:1032300000214DF20E30FDF7C4F9E5214DF20F30BB
:10324000FDF7BFF901214DF21030FDF7BAF9132156
:103250004DF21130FDF7B5F901214DF21230FDF7B5
:10326000B0F954214DF21330FDF7ABF901214DF2C5
:103270001430FDF7A6F982214DF21530FDF7A1F9C2
:1032800001214DF21630FDF79CF9CA214DF217309D
:10329000FDF797F902214DF21830FDF792F9002160
:1032A0004DF21930FDF78DF902214DF21A30FDF77C
:1032B00088F901214DF21B30FDF783F902214DF20F
:1032C0001C30FDF77EF934214DF21D30FDF779F900
:1032D00002214DF21E30FDF774F967214DF21F30C7
:1032E000FDF76FF902214DF22030FDF76AF98421D4
:1032F0004DF22130FDF765F902214DF22230FDF744
:1033000060F9A4214DF22330FDF75BF902214DF263
:103310002430FDF756F9B7214DF22530FDF751F96C
:1033200002214DF22630FDF74CF9CF214DF2273026
:10333000FDF747F902214DF22830FDF742F9DE2171
:103340004DF22930FDF73DF902214DF22A30FDF70B
:1033500038F9F2214DF22B30FDF733F902214DF20D
:103360002C30FDF72EF9FE214DF22D30FDF729F915
:1033700003214DF22E30FDF724F910214DF22F30AC
:10338000FDF71FF903214DF23030FDF71AF9332113
:103390004DF23130FDF715F903214DF23230FDF7D2
:1033A00010F96D214DF23330FDF70BF900214FF488
:1033B0005440FDF706F933214DF20140FDF701F9C4
:1033C00000214DF20240FDF7FCF834214DF203409C
:1033D000FDF7F7F800214DF20440FDF7F2F83A212D
:1033E0004DF20540FDF7EDF800214DF20640FDF7E6
:1033F000E8F84A214DF20740FDF7E3F800214DF2CD
:103400000840FDF7DEF85C214DF20940FDF7D9F8E0
:1034100000214DF20A40FDF7D4F881214DF20B4016
:10342000FDF7CFF800214DF20C40FDF7CAF8A621B8
:103430004DF20D40FDF7C5F800214DF20E40FDF7AD
:10344000C0F8E5214DF20F40FDF7BBF801214DF228
:103450001040FDF7B6F813214DF21140FDF7B1F819
:1034600001214DF21240FDF7ACF854214DF213400A
:10347000FDF7A7F801214DF21440FDF7A2F88221D3
:103480004DF21540FDF79DF801214DF21640FDF774
:1034900098F8CA214DF21740FDF793F802214DF23A
:1034A0001840FDF78EF800214DF21940FDF789F81C
:1034B00002214DF21A40FDF784F801214DF21B4024
:1034C00000E006E3FDF77DF802214DF21C40FDF718
:1034D00078F834214DF21D40FDF773F802214DF2CA
:1034E0001E40FDF76EF867214DF21F40FDF769F8A9
:1034F00002214DF22040FDF764F884214DF2214075
:10350000FDF75FF802214DF22240FDF75AF8A421A1
:103510004DF22340FDF755F802214DF22440FDF70E
:1035200050F8B7214DF22540FDF74BF802214DF23E
:103530002640FDF746F8CF214DF22740FDF741F830
:1035400002214DF22840FDF73CF8DE214DF22940E2
:10355000FDF737F802214DF22A40FDF732F8F2214B
:103560004DF22B40FDF72DF802214DF22C40FDF7D6
:1035700028F8FE214DF22D40FDF723F803214DF2EE
:103580002E40FDF71EF810214DF22F40FDF719F8DF
:1035900003214DF23040FDF714F833214DF2314054
:1035A000FDF70FF803214DF23240FDF70AF86D21C7
:1035B0004DF23340FDF705F800214FF45540FDF77B
:1035C00000F833214DF20150FCF7FBFF00214DF2D2
:1035D0000250FCF7F6FF34214DF20350FCF7F1FFE7
:1035E00000214DF20450FCF7ECFF3A214DF205505A
:1035F000FCF7E7FF00214DF20650FCF7E2FF4A21FD
:103600004DF20750FCF7DDFF00214DF20850FCF7AA
:10361000D8FF5C214DF20950FCF7D3FF00214DF299
:103620000A50FCF7CEFF81214DF20B50FCF7C9FF89
:1036300000214DF20C50FCF7C4FFA6214DF20D50B5
:10364000FCF7BFFF00214DF20E50FCF7BAFFE52159
:103650004DF20F50FCF7B5FF01214DF21050FCF771
:10366000B0FF13214DF21150FCF7ABFF01214DF2D9
:103670001250FCF7A6FF54214DF21350FCF7A1FFA6
:1036800001214DF21450FCF79CFF82214DF21550A0
:10369000FCF797FF01214DF21650FCF792FFCA216B
:1036A0004DF21750FCF78DFF02214DF21850FCF738
:1036B00088FF00214DF21950FCF783FF02214DF2E3
:1036C0001A50FCF77EFF01214DF21B50FCF779FFE9
:1036D00002214DF21C50FCF774FF34214DF21D50B5
:1036E000FCF76FFF02214DF21E50FCF76AFF6721C5
:1036F0004DF21F50FCF765FF02214DF22050FCF700
:1037000060FF84214DF22150FCF75BFF02214DF256
:103710002250FCF756FFA4214DF22350FCF751FF35
:1037200002214DF22450FCF74CFFB7214DF22550F9
:10373000FCF747FF02214DF22650FCF742FFCF2154
:103740004DF22750FCF73DFF02214DF22850FCF7C7
:1037500038FFDE214DF22950FCF733FF02214DF2F4
:103760002A50FCF72EFFF2214DF22B50FCF729FFD7
:1037700002214DF22C50FCF724FFFE214DF22D507A
:10378000FCF71FFF03214DF22E50FCF71AFF10210A
:103790004DF22F50FCF715FF03214DF23050FCF78E
:1037A00010FF33214DF23150FCF70BFF03214DF296
:1037B0003250FCF706FF6D214DF23350FCF701FF4C
:1037C00000214FF45640FCF7FCFE33214DF201601E
:1037D000FCF7F7FE00214DF20260FCF7F2FE342107
:1037E0004DF20360FCF7EDFE00214DF20460FCF7A2
:1037F000E8FE3A214DF20560FCF7E3FE00214DF2B0
:103800000660FCF7DEFE4A214DF20760FCF7D9FEA8
:1038100000214DF20860FCF7D4FE5C214DF20960F6
:10382000FCF7CFFE00214DF20A60FCF7CAFE8121B1
:103830004DF20B60FCF7C5FE00214DF20C60FCF769
:10384000C0FEA6214DF20D60FCF7BBFE00214DF23B
:103850000E60FCF7B6FEE5214DF20F60FCF7B1FEFD
:1038600001214DF21060FCF7ACFE13214DF2116006
:10387000FCF7A7FE01214DF21260FCF7A2FE5421D5
:103880004DF21360FCF79DFE01214DF21460FCF730
:1038900098FE82214DF21560FCF793FE01214DF256
:1038A0001660FCF78EFECA214DF21760FCF789FE08
:1038B00002214DF21860FCF784FE00214DF21960E0
:1038C000FCF77FFE02214DF21A60FCF77AFE01211F
:1038D0004DF21B60FCF775FE02214DF21C60FCF7F7
:1038E00070FE34214DF21D60FCF76BFE02214DF29B
:1038F0001E60FCF766FE67214DF21F60FCF761FE5B
:1039000002214DF22060FCF75CFE84214DF2216023
:10391000FCF757FE02214DF22260FCF752FEA42173
:103920004DF22360FCF74DFE02214DF22460FCF7BE
:1039300048FEB7214DF22560FCF743FE02214DF20F
:103940002660FCF73EFECF214DF22760FCF739FEE2
:1039500002214DF22860FCF734FEDE214DF2296091
:10396000FCF72FFE02214DF22A60FCF72AFEF2211D
:103970004DF22B60FCF725FE02214DF22C60FCF786
:1039800020FEFE214DF22D60FCF71BFE03214DF2BF
:103990002E60FCF716FE10214DF22F60FCF711FE91
:1039A00003214DF23060FCF70CFE33214DF2316003
:1039B000FCF707FE03214DF23260FCF702FE6D2199
:1039C0004DF23360FCF7FDFD55214FF47040FCF7DC
:1039D000F8FDAA214FF20100FCF7F3FD52214FF24E
:1039E0000200FCF7EEFD08214FF20300FCF7E9FDB1
:1039F00000214FF20400FCF7E4FDCC214FF43140EC
:103A0000FCF7DFFD00214BF20110FCF7DAFD052188
:103A10004FF43640FCF7D5FD70214FF43740FCF7EA
:103A2000D0FD70214BF20170FCF7CBFD01214FF46A
:103A30003840FCF7C6FD03214BF60100FCF7C1FD41
:103A400003214BF60200FCF7BCFD03214BF60300FB
:103A5000FCF7B7FD02214FF43C40FCF7B2FD00211A
:103A60004BF60140FCF7ADFD00214BF60240FCF7A0
:103A7000A8FDD0214FF44940FCF7A3FD02214CF6EC
:103A80000110FCF79EFD50214CF60210FCF799FD49
:103A900050214CF60310FCF794FD50214CF6041015
:103AA000FCF78FFD00214FF45450FCF78AFD55219F
:103AB0004FF46850FCF785FD4FF48850FCF772FD19
:103AC000782001F088FD4FF42450FCF76BFD01F0E5
:103AD0005EB9FE48808849F2253188427ED147F69A
:103AE000F001E520FCF76DFD4FF480710120FCF73B
:103AF00068FD4FF4E0610220FCF763FD41F2300104
:103B00000320FCF75EFD00210420FCF75AFD40F283
:103B100002210820FCF755FD00210920FCF751FD8A
:103B200000210A20FCF74DFD00210C20FCF749FD87
:103B300000210D20FCF745FD00210F20FCF741FD81
:103B400000211020FCF73DFD07211120FCF739FD75
:103B500000211220FCF735FD00211320FCF731FD78
:103B600000210720FCF72DFD41F290611020FCF7A9
:103B700028FD40F227211120FCF723FD9D21122072
:103B8000FCF71FFD4FF4C8511320FCF71AFD252147
:103B90002920FCF716FD0D212B20FCF712FD072133
:103BA0003020FCF70EFD40F203313120FCF709FD17
:103BB00003213220FCF705FD40F206213520FCF7F9
:103BC00000FD08213620FCF7FCFC40F206413720BE
:103BD000FCF7F7FC4FF44171382000E057E0FCF7A8
:103BE000F0FC07213920FCF7ECFC40F202613C209C
:103BF000FCF7E7FC08213D20FCF7E3FC0021502006
:103C0000FCF7DFFCEF215120FCF7DBFC0021522008
:103C1000FCF7D7FC40F23F115320FCF7D2FC4FF4E5
:103C200027416020FCF7CDFC01216120FCF7C9FC95
:103C300000216A20FCF7C5FC00218020FCF7C1FCB4
:103C400000218120FCF7BDFC00218220FCF7B9FC9B
:103C500000218320FCF7B5FC00218420FCF7B1FC97
:103C600000218520FCF7ADFC10219020FCF7A9FC79
:103C70004FF4C0619220FCF7A4FC40F233110720FE
:103C8000FCF79FFC22210020FCF79BFC1FE78F48DC
:103C9000808849F2283188427ED141F28F01EC20A0
:103CA000FCF78FFC41F23421EF20FCF78AFC4FF443
:103CB00080710120FCF785FC4FF4E0610220FCF7E5
:103CC00080FC41F230010320FCF77BFC0021042042
:103CD000FCF777FC40F202210820FCF772FC00217F
:103CE0000920FCF76EFC00210A20FCF76AFC012188
:103CF0000C20FCF766FC00210D20FCF762FC002183
:103D00000F20FCF75EFC00211020FCF75AFC072175
:103D10001120FCF756FC00211220FCF752FC002178
:103D20001320FCF74EFC01210720FCF74AFC32204F
:103D300001F075FC41F290411020FCF742FC40F28A
:103D400027211120FCF73DFC322001F068FC8A217C
:103D50001220FCF736FC322001F061FC4FF4D05108
:103D60001320FCF72EFC06212920FCF72AFC0D214C
:103D70002B20FCF726FC322001F051FC00212020F2
:103D8000FCF71FFC00212120FCF71BFC322001F076
:103D900046FC0021302000E074E0FCF712FC40F209
:103DA00004613120FCF70DFC40F205313220FCF7B4
:103DB00008FC00213520FCF704FC40F609413620C0
:103DC000FCF7FFFB4FF401713720FCF7FAFB40F2E0
:103DD00001313820FCF7F5FB40F207713920FCF780
:103DE000F0FB00213C20FCF7ECFB40F60A213D20D3
:103DF000FCF7E7FB322001F012FC00215020FCF719
:103E0000E0FBEF215120FCF7DCFB00215220FCF706
:103E1000D8FB40F23F115320FCF7D3FB4FF427416E
:103E20006020FCF7CEFB01216120FCF7CAFB0021DA
:103E30006A20FCF7C6FB00218020FCF7C2FB0021B2
:103E40008120FCF7BEFB00218220FCF7BAFB002199
:103E50008320FCF7B6FB00218420FCF7B2FB002195
:103E60008520FCF7AEFB10219020FCF7AAFB4FF455
:103E7000C0619220FCF7A5FB40F233110720FCF74C
:103E8000A0FB24E61148808849F2203188427DD188
:103E900000210846FCF795FB4FF480710120FCF7E8
:103EA00090FB4FF4E0610220FCF78BFB41F2300104
:103EB0000320FCF786FB00210420FCF782FB40F284
:103EC00002210820FCF77DFB002101E038000020E2
:103ED0000920FCF776FB00210A20FCF772FB012188
:103EE0000C20FCF76EFB00210D20FCF76AFB002183
:103EF0000F20FCF766FB322001F091FB40F201112C
:103F00000720FCF75EFB322001F089FB4FF486515D
:103F10001020FCF756FB07211120FCF752FB4FF451
:103F200088711220FCF74DFB4FF430611320FCF731
:103F300048FB00212920FCF744FB44F210012B2010
:103F4000FCF73FFB00215020FCF73BFBEF21512009
:103F5000FCF737FB00215220FCF733FB40F23F1106
:103F60005320FCF72EFB4FF41C516020FCF729FB7B
:103F700001216120FCF725FB00216A20FCF721FBD1
:103F800000218020FCF71DFB002100E031E08120B2
:103F9000FCF717FB00218220FCF713FB0021832094
:103FA000FCF70FFB00218420FCF70BFB0021852090
:103FB000FCF707FB10219020FCF703FB0021922067
:103FC000FCF7FFFA01219320FCF7FBFA4FF488710C
:103FD0009520FCF7F6FA00219720FCF7F2FA002171
:103FE0009820FCF7EEFA40F273110720FCF7E9FA8B
:103FF0006DE5FE48808849F2313188427DD141F239
:104000001401E720FCF7DDFA4FF480710120FCF782
:10401000D8FA4FF400710220FCF7D3FA41F23801CC
:104020000320FCF7CEFA40F202210820FCF7C9FA7F
:1040300000210920FCF7C5FA00210A20FCF7C1FA8B
:1040400000210C20FCF7BDFA00210D20FCF7B9FA85
:1040500000210F20FCF7B5FA00211020FCF7B1FA7F
:1040600007211120FCF7ADFA00211220FCF7A9FA74
:1040700000211320FCF7A5FAC82001F0D0FA41F284
:1040800090611020FCF79DFA40F227211120FCF7E7
:1040900098FA322001F0C3FA0C211220FCF791FAB1
:1040A000322001F0BCFA4FF400611320FCF789FACA
:1040B00011212920FCF785FA0B212B20FCF781FA2E
:1040C000322001F0ACFA00212020FCF77AFA40F20D
:1040D0003F112120FCF775FA00213020FCF771FA1E
:1040E0004FF483713120FCF76CFA00213220FCF789
:1040F00068FA4FF40171352000E064E0FCF761FAE2
:1041000041F20A613620FCF75CFA40F20771372071
:10411000FCF757FA4FF483713820FCF752FA40F25B
:1041200007713920FCF74DFA40F202413C20FCF7C0
:1041300048FA40F60F413D20FCF743FA0021502099
:10414000FCF73FFAEF215120FCF73BFA0021522007
:10415000FCF737FA40F23F115320FCF732FA4FF4E4
:104160001C516020FCF72DFA01216120FCF729FA8F
:1041700000216A20FCF725FA00218020FCF721FAB3
:1041800000218120FCF71DFA00218220FCF719FA9A
:1041900000218320FCF715FA00218420FCF711FA96
:1041A00000218520FCF70DFA10219020FCF709FA78
:1041B0004FF4C0619220FCF704FA40F2331107205B
:1041C000FCF7FFF983E48948808845F2084188427A
:1041D0007ED14FF480710120FCF7F3F94FF4E061D8
:1041E0000220FCF7EEF941F230010320FCF7E9F977
:1041F00000210420FCF7E5F940F207210820FCF734
:10420000E0F900210920FCF7DCF900210A20FCF785
:10421000D8F900210C20FCF7D4F900210D20FCF77F
:10422000D0F900210F20FCF7CCF9142001F0F7F9A8
:1042300041F2B0611020FCF7C4F901211120FCF714
:10424000C0F901211720FCF7BCF94FF49C71122032
:10425000FCF7B7F94FF400611320FCF7B2F909211C
:104260002920FCF7AEF909212A20FCF7AAF9002140
:10427000A420FCF7A6F900215020FCF7A2F9EF21B9
:104280005120FCF79EF900215220FCF79AF940F2E8
:104290003F115320FCF795F94FF41C516020FCF7B7
:1042A00090F901216120FCF78CF900216A20FCF7CC
:1042B00088F900218020FCF784F900218120FCF797
:1042C00080F900218220FCF77CF90021832000E0A6
:1042D00023E0FCF776F900218420FCF772F9002135
:1042E0008520FCF76EF913219020FCF76AF9002174
:1042F0009220FCF766F903219320FCF762F94FF452
:1043000088719520FCF75DF940F273110720FCF7E6
:1043100058F9322001F083F9B8E43448808841F23A
:10432000055188427ED100210720FCF74AF932204E
:1043300001F075F94FF48E711220FCF742F901215A
:10434000A420FCF73EF90F210820FCF73AF90821D8
:104350000A20FCF736F908210D20FCF732F940F26B
:1043600007713020FCF72DF907213120FCF729F9DE
:1043700040F203613220FCF724F94FF4E06133206E
:10438000FCF71FF940F202213420FCF71AF9022150
:104390003520FCF716F941F60F713620FCF711F9BC
:1043A00040F207713720FCF70CF900213820FCF7A8
:1043B00008F900213920FCF704F940F207713A208E
:1043C000FCF7FFF800213B20FCF7FBF807213C201D
:1043D000FCF7F7F800213D20FCF7F3F8322001F05C
:1043E0001EF901210720FCF7ECF801E0380000205D
:1043F00001211720FCF7E5F8322001F010F94FF405
:10440000BD511020FCF7DDF840F217211120FCF718
:10441000D8F84FF48F711220FCF7D3F84FF4706185
:10442000132000E097E0FCF7CCF800212A20FCF7ED
:10443000C8F80A212920FCF7C4F84FF49F71122014
:10444000FCF7BFF800215020FCF7BBF8EF2151200A
:10445000FCF7B7F800215220FCF7B3F840F23F1107
:104460005320FCF7AEF84FF41C516020FCF7A9F87C
:1044700001216120FCF7A5F800216A20FCF7A1F8D2
:1044800000218020FCF79DF800218120FCF799F89D
:1044900000218220FCF795F800218320FCF791F899
:1044A00000218420FCF78DF800218520FCF789F895
:1044B00013219020FCF785F84FF440719220FCF70F
:1044C00080F805219320FCF77CF800219520FCF76B
:1044D00078F800219720FCF774F800219820FCF769
:1044E00070F84FF480710120FCF76BF84FF4E06135
:1044F0000220FCF766F841F238010320FCF761F86E
:1045000000210420FCF75DF800210C20FCF759F88D
:1045100000210F20FCF755F800212020FCF751F86E
:1045200000212120FCF74DF821210720FCF749F854
:10453000142001F074F861210720FCF742F81420E0
:1045400001F06DF840F273110720FCF73AF81420DF
:1045500001F065F895E4FE4880884BF205518842E9
:104560007ED100210846FCF72CF800210846FCF714
:1045700028F800210846FCF724F800210846FCF73B
:1045800020F80121A420FCF71CF8142001F047F8C2
:104590004FF41C516020FCF714F840F2022108206F
:1045A000FCF70FF84FF405713020FCF70AF843F2DE
:1045B00015713120FCF705F840F204613220FCF758
:1045C00000F840F616613320FBF7FBFF42F21121A1
:1045D0003420FBF7F6FF4FF4A8513520FBF7F1FF2D
:1045E00048F207513620FBF7ECFF41F20741372034
:1045F000FBF7E7FF41F203413820FBF7E2FF202100
:104600003920FBF7DEFF1A219020FBF7DAFF0021AB
:104610001020FBF7D6FF07211120FBF7D2FF002166
:104620001220FBF7CEFF00211320FBF7CAFF142056
:1046300000F0F5FF4FF4E6611020FBF7C2FF40F2F7
:1046400037111120FBF7BDFF142000F0E8FF4FF4F5
:10465000DC711220FBF7B5FF142000F0E0FF00E052
:1046600083E04FF470611320FBF7ABFF80212A2019
:10467000FBF7A7FF48212920FBF7A3FF142000F038
:10468000CEFF4FF480710120FBF79BFF4FF4E061F8
:104690000220FBF796FF41F238010320FBF791FF60
:1046A00040F202210820FBF78CFF00210A20FBF7D3
:1046B00088FF00210C20FBF784FF00210D20FBF771
:1046C00080FF30210E20FBF77CFF00215020FBF7FC
:1046D00078FFEF215120FBF774FF00215220FBF7F8
:1046E00070FF40F23F115320FBF76BFF4FF41C515A
:1046F0006020FBF766FF01216120FBF762FF0021CC
:104700006A20FBF75EFF11219020FBF75AFF4FF460
:10471000C0619220FBF755FF40F202419320FBF766
:1047200050FF02219420FBF74CFF142000F077FF8C
:1047300001210720FBF745FF142000F070FF6121E5
:104740000720FBF73EFF40F273110720FBF739FF0C
:1047500000212020FBF735FF00212120FBF731FF4E
:1047600022210020FBF72DFF11E3794880884CF2CD
:10477000055188427ED100210846FBF722FF002127
:104780000846FBF71EFF142000F049FF00210846F1
:10479000FBF717FF00210846FBF713FF002108462F
:1047A000FBF70FFF00210846FBF70BFF0121A420B8
:1047B000FBF707FF142000F032FF4FF41C5160207C
:1047C000FBF7FFFE40F606010820FBF7FAFE40F279
:1047D00003713020FBF7F5FE01213120FBF7F1FEDC
:1047E00004213220FBF7EDFE4FF481713320FBF7FB
:1047F000E8FE4FF440713420FBF7E3FE40F2031172
:104800003520FBF7DEFE1F213620FBF7DAFE40F2F3
:1048100003713720FBF7D5FE01213820FBF7D1FECD
:1048200004213920FBF7CDFE15219020FBF7C9FEAE
:104830004FF482611020FBF7C4FE40F247211120A3
:10484000FBF7BFFE4FF4DE711220FBF7BAFE4FF408
:1048500060611320FBF7B5FE782000F0E0FE4FF416
:1048600080710120FBF7ADFE4FF400710220FBF7D1
:10487000A8FE00E050E041F230010320FBF7A1FE6A
:1048800008210A20FBF79DFE00210C20FBF799FE72
:1048900020210E20FBF795FE00210F20FBF791FE53
:1048A00000212020FBF78DFE00212120FBF789FE4F
:1048B0003D212A20FBF785FE142000F0B0FE2D21BB
:1048C0002920FBF77EFE00215020FBF77AFE4DF2F7
:1048D000EF015120FBF775FE00215220FBF771FE1E
:1048E00040F23F115320FBF76CFE00216120FBF7E3
:1048F00068FE00216A20FBF764FE4FF440719220AD
:10490000FBF75FFE05219320FBF75BFE4FF4807100
:104910000720FBF756FE3AE20D48808844F23151F9
:1049200088427CD101210020FBF74BFE0A2000F0D9
:1049300076FE41F228611020FBF743FE0E21122083
:10494000FBF73FFE40F639211320FBF73AFE01E06A
:10495000380000200A2000F062FE40211120FBF701
:1049600030FE50211520FBF72CFE0A2000F057FEE8
:104970001E211220FBF725FE0A2000F050FE4FF406
:10498000B1511020FBF71DFE42F639211320FBF731
:1049900018FE0A2000F043FE4FF480710120FBF75F
:1049A00010FE4FF440710220FBF70BFE41F238017C
:1049B0000320FBF706FE40F202210820FBF701FE70
:1049C00008210A20FBF7FDFD00213020FBF7F9FD4F
:1049D00040F202413120FBF7F4FD4FF483713220A5
:1049E000FBF7EFFD40F203513320FBF7EAFD4FF4F4
:1049F00082713420FBF7E5FD40F201313520FBF7F1
:104A0000E0FD40F207713620FBF7DBFD40F2053197
:104A10003720FBF7D6FD4FF40271382000E040E06C
:104A2000FBF7CFFD40F60B713920FBF7CAFD0221E1
:104A30004120FBF7C6FD4FF41C516020FBF7C1FD80
:104A400001216120FBF7BDFD4FF404719020FBF7BD
:104A5000B8FD4FF485719220FBF7B3FD042193203C
:104A6000FBF7AFFD4FF48071A020FBF7AAFD0121F9
:104A70000720FBF7A6FD21210720FBF7A2FD23213C
:104A80000720FBF79EFD33210720FBF79AFD40F23C
:104A900033110720FBF795FD0021A020FBF791FDC6
:104AA00075E1FA48808844F2355188427ED1302140
:104AB0001520FBF786FD10219A20FBF782FD2021AF
:104AC0001120FBF77EFD43F228411020FBF779FD12
:104AD00002211220FBF775FD41F238011320FBF78C
:104AE00070FD282000F09BFD12210846FBF769FDB0
:104AF000282000F094FD43F220411020FBF761FDD7
:104B000043F238011320FBF75CFD462000F087FDDF
:104B100000213020FBF755FD40F202413120FBF728
:104B200050FD40F207313220FBF74BFD4FF441714D
:104B30003320FBF746FD04213420FBF742FD40F211
:104B400001413520FBF73DFD40F207713620FBF7B0
:104B500038FD40F205313720FBF733FD4FF4C261D9
:104B60003820FBF72EFD4FF4C2613920FBF729FDF9
:104B70004FF480710120FBF724FD4FF440710220B7
:104B8000FBF71FFD41F230010320FBF71AFD40F651
:104B900008010820FBF715FD08210A20FBF711FD8D
:104BA0004FF41C516020FBF70CFD00E031E00121C7
:104BB0006120FBF706FD4FF49F719020FBF701FD8C
:104BC0004FF480719220FBF7FCFC4FF4807193202E
:104BD000FBF7F7FC4FF44051A020FBF7F2FC10214B
:104BE000A320FBF7EEFC01210720FBF7EAFC2121C3
:104BF0000720FBF7E6FC23210720FBF7E2FC33212B
:104C00000720FBF7DEFC40F233110720FBF7D9FC4D
:104C1000BDE09E48808841F663118842F8D1E220C9
:104C2000FBF7C0FC1D20FBF7C0FC0220FBF7BDFC1E
:104C30000420FBF7BAFC642000F0CDFCE020FBF779
:104C4000B1FC0120FBF7B1FC0A2000F0E8FCE020F9
:104C5000FBF7A8FC0320FBF7A8FC0C2000F0DFFC0E
:104C60000120FBF79FFC0A2000F0D9FCE620FBF7AF
:104C700099FC2F20FBF799FCFF20FBF796FCFF2007
:104C8000FBF793FCB020FBF78DFC2020FBF78DFC9D
:104C90000020FBF78AFC0320FBF787FC40F21F3063
:104CA000FBF783FC0120FBF780FC40F2DF10FBF7F1
:104CB0007CFC0020FBF779FCB420FBF773FC04209C
:104CC000FBF773FC40F21F40FBF76FFC0020FBF783
:104CD0006CFC2E20FBF769FC0020FBF766FC002033
:104CE000FBF763FC0020FBF760FC0020FBF75DFC9A
:104CF000B620FBF757FC0220FBF757FC4FF403707C
:104D0000FBF753FC0020FBF750FC1720FBF74DFC92
:104D10001520FBF74AFC0020FBF747FC0020FBF7BF
:104D200044FCF020FBF73EFC0320FBF73EFC29206F
:104D3000FBF738FCD020FBF735FC0020FBF735FCF7
:104D4000BE20FBF72FFC0520FBF72FFCFE20FBF716
:104D50002CFC0120FBF729FC0020FBF726FC00209F
:104D6000FBF723FC0020FBF720FCB820FBF71AFC24
:104D70000320FBF71AFC0120FBF717FCBA20FBF716
:104D800011FC0120FBF711FC6420FCF7EDF8012079
:104D9000FCF712F94FF6FF70FCF720FB1FB000BDC7
:104DA0002DE9FC4F05460E4617469846DDF82C9037
:104DB000002001903548808846F60401884229D1B8
:104DC00032488079012825D1AB4635462F480088E6
:104DD000C01B401E86B247462C480088A0EB0B0043
:104DE000401E1FFA80F80020284988712A20488137
:104DF0002B20888143463A4631462846CDF800901C
:104E0000FFF7CEFF0120214988712B2048812A20FD
:104E100088811CE0781B401C80B20190344614E06D
:104E200021462846FBF7FAFBFBF7DBFB4FF0000AB5
:104E300006E01748A0F800900AF101001FFA80FA76
:104E400001988245F5DB601C84B24445E8DDBDE88D
:104E5000FC8F2DE9F84F07460D4690469946DDF840
:104E600028B0A8EB0700401C1FFA80FAA9EB050048
:104E7000401C80B20090002418E0281981B2384606
:104E8000FBF7CCFBFBF7ADFB00260BE03800002066
:104E90000008006C04FB0A603BF81000F74908802A
:104EA000701C86B25645F5DB601C84B200988442C3
:104EB000E3DBBDE8F88F2DE9FF4F84B081468A46D9
:104EC0000020039002900698A0EB09050798A0EB3C
:104ED0000A06CDF80490CDF800A0002D01DD0127D1
:104EE00005E00DB9002702E04FF0FF376D42002EBC
:104EF00002DD4FF0010806E016B94FF0000802E0AD
:104F00004FF0FF387642B54201DD2C4600E03446D2
:104F10004FF0000B21E0009A91B2019A90B2FBF79A
:104F20002FFF03982844039002983044029003987E
:104F3000A04205DD0398001B0390019838440190BE
:104F40000298A04205DD0298001B029000984044A0
:104F500000900BF101001FFA80FB601C8345DADD35
:104F600008B0BDE8F08FF0B504460D4616461F4662
:104F70002B46324629462046FFF79DFF3B462246F8
:104F800029462046FFF797FF3B46324639462046E2
:104F9000FFF791FF3B46324629463046FFF78BFF2D
:104FA000F0BD2DE9F04306460F46904600244546E5
:104FB0000320A0EB48093CE07A1B91B2321990B271
:104FC000FBF7DEFE3A1B91B2721990B2FBF7D8FEE6
:104FD0003A1991B2721990B2FBF7D2FE7A1991B2D6
:104FE000321990B2FBF7CCFE7A1991B2321B90B213
:104FF000FBF7C6FE3A1991B2721B90B2FBF7C0FEE6
:105000007A1B91B2321B90B2FBF7BAFE3A1B91B2F7
:10501000721B90B2FBF7B4FE641CB9F1000F03DA07
:10502000A000801D814404E0601B80000A308144A0
:105030006D1EAC42C0DDBDE8F0832DE9F84F80461F
:105040000E4617461C46B3462046E31704EB53733F
:10505000DB1021464FEAE47C04EB5C7C4FEAEC0C6D
:10506000A4EBCC0CBCF1000F02D04FF0010C01E01E
:105070004FF0000C6344224604EBD27C4FEA6C0CE8
:1050800003FB0CF3DBB20093A7F12000C7B20025AD
:1050900056E00C2C07D107EB4700794901EB800063
:1050A00010F8059013E0102C05D1764800EB07109E
:1050B00010F805900BE0182C07D107EBC7007249D8
:1050C00001EB800010F8059001E0BDE8F88F4FF08B
:1050D000000A2FE009F0800030B16C4802883146A8
:1050E0004046FBF761FE07E00A9828B96848028845
:1050F00031464046FBF758FE4FEA49604FEA1069D7
:10510000701C86B263484088B04200DCDDE7A6EB45
:105110000B00A0420AD15E4608F101001FFA80F898
:105120005C480088404500DCCFE706E00AF101005A
:1051300000F0FF0ABAF1080FCCDB00BF681CC5B253
:1051400000988542A5DB00BFBFE710B502460120ED
:1051500000E050430B1EA1F10104E1B2F9D110BDF2
:105160002DE9FF4F81B0074691461E460E9D4FF038
:10517000000A002439E0301B401EC1B20A20FFF7AC
:10518000E4FFB9FBF0F00A21B0FBF1F201FB1208D9
:10519000BAF1000F16D1701EA04213DDB8F1000F56
:1051A0000ED10020AB4605EBDB71491001FB047109
:1051B000009088B22B4620220299FFF73EFF12E0B2
:1051C0004FF0010A0020AB4605EBDB71491001FBF3
:1051D0000471009088B208F13001CAB22B460299DE
:1051E000FFF72BFF00BF601CC4B2B442C3DB05B0A5
:1051F000BDE8F08F2DE9FF4F82B0064692461F466C
:10520000DDE90F480020019000255CE0781B401E7E
:10521000C1B20A20FFF799FFBAFBF0F00A21B0FBF8
:10522000F1F201FB12090198B0BB781EA84236DDED
:10523000B9F1000F31D108F0800078B108F0010019
:10524000A34604EBDB71491001FB0561009088B2B5
:10525000234630220399FFF7F0FE0EE008F001002C
:10526000A34604EBDB71491001FB0561009088B295
:10527000234620220399FFF7E0FE22E00008006C9D
:1052800030700008A4740008947A0008140000200C
:10529000160000203800002001E00120019008F0F5
:1052A0000100A34604EBDB71491001FB056100908E
:1052B00088B209F13001CAB223460399FFF7BDFE57
:1052C00000BF681CC5B2BD42A0DB06B0BDE8F08FD0
:1052D0002DE9F84704460D4690469946DDE90967F1
:1052E00004F0FF0A08EB04001FFA80F809EB050040
:1052F0001FFA80F916E0444502DB5446A81985B22E
:105300004D4500DB14E0002000903A7833462946F2
:105310002046FFF792FE304606EBD07104EB6101A8
:105320008CB27F1C38787E2802DC38782028E2DABC
:1053300000BFBDE8F887000010B59648006820F06F
:105340007060944908600846006840F0407008604A
:1053500000209149086040F2EE2000F03CF9012065
:105360008E49C1F8B8010F2000F035F910BD10B515
:1053700000248848006820F070608649086008466C
:10538000006840F00060086004E0601CC4B20120C6
:1053900000F021F980488038006808B1C82CF4DB9F
:1053A000C82C01DB012010BD002404E0601CC4B245
:1053B000012000F010F978488038006808B9F02C16
:1053C000F4DBF02C01DB0120EDE70020EBE710B56A
:1053D0007048006820F070606E49086008460068F8
:1053E00040F04070086000206B490860022000F027
:1053F000F2F801206949C1F8B8016648006820F058
:105400007060644908600846006840F00060086009
:105410000C2000F0E0F860488038006808B10124F2
:1054200000E00024322000F0D6F8204610BD70B510
:105430000026012508E0FFF7CAFF0446E00140EA24
:105440006600C6B2681CC5B2082DF4DD304670BDDA
:1054500070B504464F48006820F070604D49086000
:105460000846006840F040700860012520E004F024
:10547000010664106EB1002047490860022000F068
:10548000AAF801204549C1F8B8013C2000F0A3F872
:105490000CE00020404908603C2000F09CF801200E
:1054A0003E49C1F8B801022000F095F8681CC5B269
:1054B000082DDCDD70BD10B5FFF73EFFFFF757FF8D
:1054C000CC20FFF7C5FF4420FFF7C2FF10BD08B591
:1054D0000121082001F024FA4FF48040ADF80000CB
:1054E00010208DF8030003208DF80200694629483A
:1054F000001F00F055FD4FF480412648001F00F0CA
:10550000FCFDFFF719FFFFF732FF08BD2DE9F84F4B
:10551000FFF7D1FFFFF710FFFFF729FFCC20FFF7C0
:1055200097FFBE20FFF794FFFFF781FF8346FFF749
:105530007EFF0446072C08DDE043C4B26FEA0B008F
:1055400000F0FF0B4FF0000A01E04FF0010AA14606
:105550004FEA09200FFA80F909EB0B000FFA80F9E6
:10556000484601F007FD009001F0D8FC07460022F4
:105570000B4B01F0D5FB054601F062FB0FFA80F9F9
:10558000BAF1000F02D04846BDE8F88FC9F100001B
:1055900000B2F9E7040C0140B881214200802142A9
:1055A0000000E43F10B56FF0040000F074F92E48DD
:1055B00000682E49B0FBF1F02D49087008460078CC
:1055C00000EB4001C1EBC0104FF6FF7101EAC000D3
:1055D0002849088010BD0146254A12784A434FF0F9
:1055E000E0235A6100229A611A46126942F00102D0
:1055F0001A6100BF4FF0E022106900F001021AB1F9
:1056000000F48032002AF5D04FF0E022126922F037
:1056100001024FF0E0231A6100229A6170470146AF
:10562000144A12884A434FF0E0235A6100229A61DB
:105630001A46126942F001021A6100BF4FF0E022DF
:10564000106900F001021AB100F48032002AF5D08E
:105650004FF0E022126922F001024FF0E0231A61BC
:1056600000229A61704700000000002000127A00BA
:10567000180000201A00002000BF704700BF4A4AEF
:10568000128802F04002002AF9D0C2B2464B1B1D1C
:105690001A80704710B586B00446012144F2040018
:1056A00001F03EF94FF40070ADF8140003208DF8BE
:1056B000160018208DF8170005A93C4800F070FC72
:1056C0004FF48060ADF8140004208DF8170005A990
:1056D000364800F065FC25208DF8000003208DF889
:1056E00001008DF8020001208DF80300684600F0EB
:1056F00088F801940020ADF80800ADF80A00ADF874
:105700000C00ADF810000C20ADF80E0001A92648E1
:1057100000F0D7FD012240F22551234800F069FE38
:105720000121214800F059FE06B010BD10B540F22D
:1057300025511D4800F042FF10B31B4800F0BEFE8B
:10574000C4B21B48008800F40040C8B9184800885B
:1057500000F4804060B10A2C03D000201449088076
:1057600020E01348008840F400401149088019E007
:105770000D2C06D10E48008840F480400C4908806A
:1057800010E00B480088C0F30D000A490C5408488B
:105790000088401C0649088008460088C72801DDAB
:1057A0000020088010BD00000038014000080140C2
:1057B0002000002046000020094880470948004793
:1057C000FEE7FEE7FEE7FEE7FEE7FEE7FEE7FEE7B1
:1057D000FEE7FEE704480549054A064B704700000E
:1057E000A3040008310100087001002070070020A8
:1057F000700300207003002031490143314A1160D9
:10580000704770B5002100230F22C47804B32D4CDB
:10581000246804F4E064C4F5E064210AC1F10403DF
:10582000CA40447804FA03F1847814402143090102
:10583000254C0678A155047804F01F050124AC40DE
:1058400005786D11AD0005F1E025C5F8004109E0CE
:10585000047804F01F050124AC401C4D0678761135
:1058600045F8264070BD1A4A0A400243154B1B1FDB
:105870001A60704739B1134A121D12680243114B66
:105880001B1D1A6006E00F4A121D126882430D4B61
:105890001B1D1A607047042808D14FF0E0210969E8
:1058A00041F004014FF0E022116107E04FF0E021E8
:1058B000096921F004014FF0E022116170470000F6
:1058C0000000FA050CED00E000E400E080E100E0FB
:1058D00080FFFF1F30B943F2DB028100A1F1C0411C
:1058E0000A6005E043F2D2028100A1F1C0410A60E2
:1058F0006FF07042411C8900A1F1C0410A60810033
:10590000A1F1C041C1F80421704710280AD1182123
:105910004FF020421166402151664FF0FC319166F4
:10592000D16610E01821F74A116040214FF0204263
:10593000C2F884104FF0FC31F24A083211604FF087
:105940002042C2F88C1070471820EE4920310860C0
:1059500000200906C1F8A4004FF0FC30E9492831C5
:105960000860091D0860091D08607047D0E9011230
:105970001143C268114302691143426911438269AC
:105980001143C2691143026A1143426A1143826A98
:105990001143C26A1143026B114302689200A2F1E3
:1059A000C0421160816808290BD101688900A1F10A
:1059B000C041096841F0400201688900A1F1C0417D
:1059C0000A60416B0968426B526841EA0211426BFE
:1059D000926841EA0221426B928941EA0241426B9C
:1059E000128A41EA0251426B127D41EA0261426B26
:1059F000926911430268521C9200A2F1C0421160E8
:105A0000C16AB1F5804F1BD1816B0968826B526806
:105A100041EA0211826B926841EA0221826B128A8A
:105A200041EA0251826B127D41EA0261826B926906
:105A3000114302689200A2F1C042C2F8041107E0CB
:105A40006FF0704201688900A1F1C041C1F80421E2
:105A5000704730B5002100220023446844F0080458
:105A600085682C43C5682C4305692C43456944EA85
:105A70004524856944EA4531C4692468C5696D686F
:105A800044EA0524C5692D8944EA0544C5692D7B8E
:105A900044EA0562046A2468056A6D6844EA0524DC
:105AA000056A2D8944EA0544056A2D7B44EA0563AD
:105AB0000468102C05D14FF020442166A266E366ED
:105AC00008E0904C21604FF02044C4F888208D4CB1
:105AD0000C34236030BD016841F01001426841EA96
