:10766900B0B4BCFCB2E2CAD40D0A004B455920B2F1
:10767900E2CAD4B3CCD0F2004B6579436F64653A62
:107689000070726573736564003100320033003431
:1076990000000102000300000004000000000000D7
:0176A90000E0
:047B36007F78DFFE77
:017B3A002228
:1071CE00900E9DE0FE75F8F0127B36E5F854F0F067
:1071DE0075F80F127B36E0FFE5F8540FFDEF4DF01A
:1071EE00E0F4FFF0EE6F705C900E9AE0FE900E9D54
:1071FE00E0900E9AF06048C2D5EE7004D2D580179A
:10720E00900E9AE0B50610900E9CE004F0C3941414
:10721E0040057412F0D2D530D52A900E9AE0FFC4F4
:10722E00540F90769A93FE601BEF540F93FF6014E9
:10723E00EE1425E025E0FEEF2E900E9BF08005E487
:07724E00900E9CF075F8FFA3
:017255002216
:1078E900E4F594F593F592F591F596F595F5B2F5DC
:1078F900B1F5B4F5B3F5CAF5C9F5CCF5CBF5E2F5B3
:02790900E12279
:106764001278E91262A27F0A7E001276E874FFFFB3
:10677400FE1272DE127A0D7BFF7A767969127A60E4
:10678400E4900E9BF0900E9AF0900E9DF0900E9C6B
:10679400F0900CD3F0A3741FF0A374FFF0A37476ED
:1067A400F0A37474F0A37410F0A37401F07B007A66
:1067B400F87D107C00E4FFFE1270B0900CE074FFD2
:1067C400F0A374E0F0A374FFF0A37476F0A37481D3
:1067D400F0A37410F0E4A3F07B1FFA7D38FC7F145F
:1067E400FE1245661271CE900E9BE0D39400402DAC
:1067F4007BFF7A76798A127A60900E9BE0FFE4FC44
:10680400FDFE900CD1123E74900CD57402F0A3746A
:1068140010F07D387C007F647E00126653900E9BDE
:10682400E0B401097BFF7A767992127A60900E9B2C
:10683400E0B402097BFF7A767994127A60900E9B19
:10684400E0B403097BFF7A767996127A60900E9B06
:10685400E0B404097BFF7A767998127A60E4900EAA
:0B6864009BF07F64FE1276E80267E8FC
:101A2600687474703A2F2F7777772E6C63647769B2
:101A36006B692E636F6D00C8ABB6AFB5E7D7D3D76A
:101A4600DBBACFB2E2CAD4B3CCD0F200C8ABB6AFE1
:101A5600B5E7D7D300D7DBBACFB2E2CAD4B3CCD07E
:101A6600F200332E352220494C4939343838203398
:101A7600323058343830007869616F46656E674099
:101A860051447465636820323031392D30362D3239
:101A96003000424C20546573740052454420004780
:101AA6005245454E2000424C55452000B2E2CAD46C
:101AB600333A475549BED8D0CECCEEB3E4B2E2CAEB
:101AC600D400B2E2CAD4343A475549BBADD4B2CCFD
:101AD600EEB3E4B2E2CAD400B2E2CAD4353A47550C
:101AE6004920547269616E676C65CCEEB3E4B2E26C
:101AF600CAD400B2E2CAD4363AD3A2CEC4CFD4CA2C
:101B0600BEB2E2CAD400365831323A6162636465C5
:101B1600666768696A6B6C6D6E6F707172737475E7
:101B2600767778797A00365831323A4142434445DD
:101B3600464748494A4B4C4D4E4F5030313233346C
:101B4600353637383900365831323A7E214023242B
:101B5600255E262A28295F2B7B7D3A3C3E3F2F7C3B
:101B66002D2B2E00385831363A61626364656667FC
:101B760068696A6B6C6D6E6F707172737475767767
:101B860000385831363A4142434445464748494A67
:101B96004B4C4D4E303132333435363700385831B0
:101BA600363A7E21402324255E262A28295F2B7B70
:101BB6007D3A3C3E3F2F7C00B2E2CAD4373AD6D0BB
:101BC600CEC4CFD4CABEB2E2CAD4003136583136FA
:101BD6003AD1A7F3BBBFC6BCBCBBB6D3ADC4FA00F3
:101BE60031365831363A57656C636F6D65D1A7F358
:101BF600BBBFC6BCBC0032345832343AD1A7F3BBA3
:101C0600D6D0CEC4B2E2CAD40033325833323AD137
:101C1600A7F3BBD7D6CCE5B2E2CAD400B2E2CAD4A7
:101C2600383ACDBCC6ACCFD4CABEB2E2CAD4004C98
:101C3600696E757800526F746174696F6E3A300020
:101C4600526F746174696F6E3A393000526F746105
:101C560074696F6E3A31383000526F746174696F0F
:101C66006E3A32373000B2E2CAD4393AC6C1C4BB82
:101C7600BDC7B6C8B2E2CAD400B2E2CAD431303A5D
:101C8600B5E7C8DD546F756368B2E2CAD428D6A733
:101C9600B3D635B5E3B4A5C3FE292020005253546C
:101CA60000B2E2CAD4323AB6C14944BACDD1D5C996
:101CB600ABD6B5B2E2CAD40049443A3078257800AA
:101CC6007265616420636F6C6F723A3078257800B4
:101CD600FFFFFFFFFFFFFFFFFFFFFFFFFFFFFFFF0E
:101CE600FFFFFFFFFFFFFFFFFFFFFFFFFFFFBEF747
:101CF600FFFFDEFF38C6928C8E6B6E6B107C96AD46
:101D06003CE7FFFFFFFFFFFFFFFFFFFFFFFFFFFFB8
:101D1600FFFFFFFFFFFFFFFFFFFFFFFFFFFFFFFFCD
:101D2600FFFFFFFFFFFFFFFFFFFFFFFFFFFFFFFFBD
:101D3600FFFFFFFFFFFFFFFFFFFFFFFFFFFF5DEF5F
:101D4600159D4F636C420A3288294619251945218B
:101D5600E8318E6B38C6FFFFFFFFFFFFFFFFFFFF77
:101D6600FFFFFFFFFFFFFFFFFFFFFFFFFFFFFFFF7D
:101D7600FFFFFFFFFFFFFFFFFFFFFFFFFFFFFFFF6D
:101D8600FFFFFFFFFFFFFFFFFFFFFFFF36A510531B
:101D9600104B51530F4B6C3AE93167212519E4106A
:101DA600A30862008308CB529AD6FFFFFFFFFFFF0E
:101DB600FFFFFFFFFFFFFFFFFFFFFFFFFFFFFFFF2D
:101DC600FFFFFFFFFFFFFFFFFFFFFFFFFFFFFFFF1D
:101DD600FFFFFFFFFFFFFFFF3CE77063B363B87CC5
:101DE600F56311434D32EA2988212619051905198B
:101DF60004110411E4108300A308728CFFFFFFFF97
:101E0600FFFFFFFFFFFFFFFFFFFFFFFFFFFFFFFFDC
:101E1600FFFFFFFFFFFFFFFFFFFFFFFFFFFFFFFFCC
:101E2600FFFFFFFFFFFFDBDE4B3AF042356C544B02
:101E3600B1322E2AEB21A9216719051904110411C3
:101E46000411041104110519E4104200AF73FFFFD9
:101E5600FFFFFFFFFFFFFFFFFFFFFFFFFFFFFFFF8C
:101E6600FFFFFFFFFFFFFFFFFFFFFFFFFFFFFFFF7C
:101E7600FFFFFFFF5DEF09324C32104B8F324F2AC6
:101E86002E2ACC198919892147190519041104111B
:101E9600C410C410041104110411E410420031846A
:101EA600FFFFFFFFFFFFFFFFFFFFFFFFFFFFFFFF3C
:101EB600FFFFFFFFFFFFFFFFFFFFFFFFFFFFFFFF2C
:101EC600FFFFFFFFEC5247194C320B2AEC21EC21A5
:101ED6000C22915BEE4A061126190419E410E4104F
:101EE600A7296621A308051904110411E41082002C
:101EF600F7BDFFFFFFFFFFFFFFFFFFFFFFFFFFFF36
:101F0600FFFFFFFFFFFFFFFFFFFFFFFFFFFFFFFFDB
:101F1600FFFF35A58308882188218921AA218A21E6
:101F26006B42718CFFFF728C83080411C40829422E
:101F3600FBDE5DEFEC5A83080411041104118308DB
:101F4600E831DFFFFFFFFFFFFFFFFFFFFFFFFFFFA0
:101F5600FFFFFFFFFFFFFFFFFFFFFFFFFFFFFFFF8B
:101F6600BEF7C731C4102519261947194719A829DC
:101F76008A52284A55ADFFFFE831A30805194D6B73
:101F86004D6BFFFF7DEF4521C410041104110411B0
:101F9600620076ADFFFFFFFFFFFFFFFFFFFFFFFFC2
:101FA600FFFFFFFFFFFFFFFFFFFFFFFFFFFFFFFF3B
:101FB60096B562000411041905110519C4088B4A67
:101FC600B6B55DEFF7BDFFFF8E6B62002942AA5AD8
:101FD6000842FFFFFFFFCC528308041104110411CD
:101FE600A308AD52FFFFFFFFFFFFFFFFFFFFFFFF4D
:101FF600FFFFFFFFFFFF1CE7FFFFFFFFFFFFFFFFE6
:102006004E636200041104110411E41062008E6331
:10201600FFFFFFFFFFFFFFFFCF730100F39C2C6361
:1020260096B5FFFFFFFF2D5B830004110411041119
:10203600E41067213DEFFFFFFFFFFFFFFFFFFFFFFC
:10204600F8BDB7B59EEFCB52B394FFFFFFFFDFFF9E
:10205600E831A3080411041104110411A30849422C
:10206600FFF7FFF7FFFFFFFF6A4A01007284FFFFD9
:10207600FFFFFFF7DFEF093AA3080411041104116B
:102086000411051118BEFFFFFFFFFFFFFFFFFFFF53
:10209600F07B6200E831C731410035A5FFFF5DEFF7
:1020A6004621C4100411041104110411E410A308FC
:1020B600769DFFF7FFFFB7ADA308A308C7319EE7DC
:1020C600FFF7FFF776A5A308E41004110411041125
:1020D6000511051135A5FFFFFFFFFFFFFFFFFFFFFE
:1020E600DBDEA7298300C410C410C4101CE79EEFD2
:1020F6000511E41004110411041104110419C40893
:10210600E510D16BD16BC5086400A50843002B32DE
:10211600779DB3842519C410041104110411041108
:1021260025192609359DFFFFFFFFFFFFFFFFFFFF74
:10213600FFFFAF7362000419051982000D5B8E9BC9
:1021460062100511041104110419E410850005112B
:10215600C439815A407B229C43AC03A4839B827280
:102166008249C218A400C500E41004190411051917
:1021760047196711EC5ABEFFFFFFFFFFFFFFFFFF86
:10218600DFFFDBDEC410E41004110511A41801C042
:102196008388E40005190419C5084421438323D51F
:1021A60042FEE4FE27FF07FFA4FE64FE03FEA3FD36
:1021B600E2FC42EC83B32462E510C4080419261934
:1021C600A81987210090D3BCFFFFFFFFFFFFFFFF89
:1021D600DFFFFFFF107C420005190511832801D09F
:1021E60044F8A348E400C508445A02EDE2FD02FEA5
:1021F60066FE74FFB8FF73FFE7F6A6F645F6A4F58C
:10220600C3FC62FCC2FCC2FCE3CBC44906118819BC
:102216008701A49001F8EC9AFFFFFFFFFFFFFFFF85
:10222600FFFFFFFFBEF7E83183000509824001C0CA
:1022360023F885F0A348A400445A02FD23CCC2DC4F
:1022460004FE28FE48F646F624F6E4F564FDE3FCB3
:1022560062FCC2FC02E402DCE2FCA47A48016701EB
:10226600C47824F802F884B07DE7FFFFFFFFFFFF84
:10227600FFFFFFFFFFFFDBDE2519A300C43802E0E6
:1022860022D844F8A6F8A4786300432183728339E0
:10229600829B21F561FD22FDE2FCA2FC42FC42FC90
:1022A60042FC22AB8341C392045226012519A4980D
:1022B60044F823F802F8A4D09EEFFFFFFFFFFFFFCC
:1022C600FFFFFFFFFFFFFFFF9AD68729A50043B850
:1022D60022F823E065F8E8F807C983484200A3001E
:1022E60084006329A27A62B3A2CB62D302BB828A3C
:1022F6008339A400E500E500E508C46064D844F825
:1023060024F823F802F88388DBC6FFFFFFFFFFFFF0
:10231600FFFFFFFFFFFFFFFFFFFF3DE7505B0831B9
:1023260023E843F844F065F809F9ABF989D1068941
:10233600A348421802004200610082006200620067
:102346008300A320C450A58885D865F844F844F8CE
:1023560023F823F803D08210C7295DEFFFFFFFFFA4
:10236600FFFFFFFFFFFFFFFFFFFFFFFFFFFF6C32D7
:10237600A53802D823F865F866F8A7F84AF90CFAE2
:102386004DFA4CEA0BD2A9B968B147A927B107B9EA
:1023960007D1E7E8C7F8A7F865F865F844F823F821
:1023A60003F802D0A3280509C408EC5AFFFFFFFF73
:1023B600FFFFFFFFFFFFFFFFFFFFFFFFFBDE05192C
:1023C600C400A741E6C003F886F8A7F887F886F8A0
:1023D600C7F829F98AF9ABF9ABF98BF96AF929F942
:1023E60008F9C7F8A6F886F865F864F823F802F045
:1023F60006B12529E400E41025192519149DFFFFCF
:10240600FFFFFFFFFFFFFFFFFFFFFFFF96AD62002D
:1024160082083595BACE8BA244D025F887F8A7F85E
:10242600C7F8A7F887F886F886F886F887F8A7F831
:10243600A7F8A6F885F865F864F824F064B80D9353
:10244600BBB6CF6383080411E4106621493A5DEFF9
:10245600FFFFFFFFFFFFFFFFFFFFFFFFD3944200D9
:10246600E410BBCEFFFFBEE776B5CCAA07C145E0B8
:1024760045F846F866F886F886F886F886F865F828
:1024860045F865F865E844D043A8018882903CD7B2
:10249600FFEF559583080411041105194619B394E5
:1024A600FFFFFFFFFFFFFFFFFFFFFFFFB3944100AA
:1024B60086215DDFFFFFFFFFFFFFDFE77AC6D3B4AC
:1024C6004EB32AC268D1E6E0A6E8A5E8A5E8E6D8B4
:1024D60088C906A922A802A800A000C800D8F7E566
:1024E600FFE7F8ADC410E4100411E41005118B4A9F
:1024F600FFFFFFFFFFFFFFFFFFFFFFFF55A54100A7
:10250600A7295DDFFFF7FFFFFFFFFFFFFFFFFFFFCD
:10251600FFEF7DDFDBCE59CEF8CDD7CDF7C579CE2F
:10252600FBBEABA203F045F842D043E800F072D4FC
:10253600FFDF39AEE410E4100411E4100511872919
:10254600FFFFFFFFFFFFFFFFFFFFFFFF59CE8308DF
:1025560046211CD7FFF7FFFFFFFFFFFFFFFFFFFF2F
:10256600FFFFFFFFFFFFFFFFFFFFFFFFFFFFFFFF75
:10257600FFEF8BBA04F845F862E044F000F88EDB12
:10258600FFDFF8A5C410E410E4100411E4102519C7
:10259600FFFFFFFFFFFFFFFFFFFFFFFFBEF78729DC
:1025A600830839B6FFF7DFF7FFFFFFFFFFFFFFFFE7
:1025B600FFFFFFFFFFFFFFFFFFFFFFFFFFFFFFFF25
:1025C600BEE74ABA03F845F864F844F800F86EE343
:1025D600FFD7F48C83080411E410E410E410051905
:1025E600FFFFFFFFFFFFFFFFFFFFFFFFFFFFEF7391
:1025F60000007284FFEFBEEFDFFFFFFFFFFFFFFF6C
:10260600FFFFFFFFFFFFFFFFFFFFFFFFFFFFFFFFD4
:10261600DFE78BBA03F845F845F823F800F8D3D47A
:10262600FFD74E5B2100293A55A58308C41025190A
:10263600FFFFFFFFFFFFFFFFFFFFFFFFFFFFFBDEC9
:10264600A308E8319EDF9EE7BFEFFFFFFFFFFFFF16
:10265600FFFFFFFFFFFFFFFFFFFFFFFFFFFFFFFF84
:10266600FFF751BC02E003F803F043E0ECC27ECF73
:10267600FCBE46212100D394FFFF51840000872928
:10268600FFFFFFFFFFFFFFFFFFFFFFFFFFFFFFFF54
:1026960051840000F48CFFEF9EE7BFEFDFFFFFFFE2
:1026A600FFFFFFFFFFFFFFFFFFFFFFFFFFFFFFFF34
:1026B600FFFF3DDF55BD52BC72BCB7B55DC7FFDF3E
:1026C600F06B0000093ABFF7FFFFFFFF149D55A509
:1026D600FFFFFFFFFFFFFFFFFFFFFFFFFFFFFFFF04
:1026E600FFFFAC4AA408BBBEDFE77EE7BEEFDFF71D
:1026F600DFFFFFFFFFFFFFFFFFFFFFFFFFFFFFFF04
:10270600DFFFDFF7FFEFDFDFBFD79ED7DFDFD8A51D
:1027160083082611DBD6FFFFFFFFFFFFFFFFFFFF4A
:10272600FFFFFFFFFFFFFFFFFFFFFFFFFFFFFFFFB3
:1027360079EE8BDC2131A9213DCFBFDF7EDF9EE71D
:10274600BEEFBFEFDFF7DFF7DFF7DFF7DFF7BFEF4C
:10275600BEEF9EE77EDF5ED75ED7DFDF9AB626192D
:102766004208EDA3BFFFFFFFFFFFFFFFFFFFFFFFD5
:10277600FFFFFFFFFFFFFFFFFFFFFFFFFFFF74DD10
:10278600C0DB00FE42EE024289217BB6DFDF7ED748
:102796007EDF7EDF9EE79EE79EE79EE79EE77EDF83
:1027A6007EDF5DD75DD79EDFFFE7F8A50711E3184B
:1027B60002C560FDE6D3DBEEFFFFFFFFFFFFFFFF75
:1027C600FFFFFFFFFFFFFFFFFFFFFFFF9EF784BA3C
:1027D600C1FC42FE82FEA2FE8183452174745EC75F
:1027E600DFDF7ED75ED75DD75ED75ED75DD75DD795
:1027F6005ED79EDFFFE73DC7F1638408425226E6B7
:1028060029FF86FEE0F36AC3FFFFFFFFFFFFFFFF1E
:10281600FFFFFFFFFFFFFFFFFFFFFFFF18DEC1D235
:10282600A2FD22FE42FE42FE62FEE2D4416A494217
:1028360053743BA63EC7BFD7BFD7BFD7BFDFBFD7EF
:102846003EC71AA6F263A729824122B462FE83FE1E
:10285600AAFE0FFF67FD63BA3CEFFFFFFFFFFFFF16
:10286600FFFFFFFFFFFFFFFFFFFFFFFF9AE680D29C
:1028760021FDC2FDE2F5C2F582F582FD62FD61DC55
:10288600219B846AE96A2C63AF6311746E632C63BF
:10289600895A0452817AC2CBE2FC62FD82FDC2FDF6
:1028A600C2FDE4FD24FD62CA1CE7FFFFFFFFFFFF38
:1028B600FFFFFFFFFFFFFFFFFFFFFFFFFFFFB1CCA3
:1028C60081D2C0F3C1FC02FD02FDE2FCC2FCC2FCE7
:1028D60081FC80FBC0C9A48135AD59CE719C218194
:1028E60000DAA1FB82FCA2FC82FCA2FC02FD22FD16
:1028F600E2FC00FC60DA90CCFFFFFFFFFFFFFFFF6A
:10290600FFFFFFFFFFFFFFFFFFFFFFFFFFFFFFFFD1
:1029160059DE0DC406CBE4D203DB03DBE3DAC3D214
:10292600A4C209B3D2BC9EF7FFFFFFFFFFFFFBE681
:102936000EB4A6BA83D2E3E202EB22EB22E303DB78
:10294600E4D26AC3B6D5FFFFFFFFFFFFFFFFFFFF1D
:10295600FF1C3BFF1C46FF1C52FF1C5F00000000D3
:102966000000000000000000000000000000000061
:0A2976000000000000000000000057
:102980006C800024FFFFFFFFFFFFFFFFFFFFFFFF43
:10299000FFFFFFFFFFFFFFFFFFFFFFFFFFFFFFFF47
:1029A000FFFFFFFFFFFFFFFFB5AD8E6B528C7ACEAE
:1029B000FFFFFFFFFFFFFFFFFFFFFFFFFFFFFFFF27
:1029C000FFFFFFFFFFFFFFFFFFFFFFFFFFFFFFFF17
:1029D000FFFFFFFFFFFFFFFFFFFFFFFFFFFFFFFF07
:1029E000FFFFFFFFFFFFFFFFFFFFFFFFFFFFFFFFF7
:1029F000FFFFFFFFAD7300000000000000000000BB
:102A0000C31879CEFFFFFFFFFFFFFFFFFFFFFFFFB0
:102A1000FFFFFFFFFFFFFFFFFFFFFFFFFFFFFFFFC6
:102A2000FFFFFFFFFFFFFFFFFFFFFFFFFFFFFFFFB6
:102A3000FFFFFFFFFFFFFFFFFFFFFFFFFFFFFFFFA6
:102A4000FFFFCB5A000000000000000000008310D0
:102A50000521000096B5FFFFFFFFFFFFFFFFFFFF0F
:102A6000FFFFFFFFFFFFFFFFFFFFFFFFFFFFFFFF76
:102A7000FFFFFFFFFFFFFFFFFFFFFFFFFFFFFFFF66
:102A8000FFFFFFFFFFFFFFFFFFFFFFFFFFFFFFFF56
:102A90007EEF0000000000000000000000000000C9
:102AA000000000000000FFFFFFFFFFFFFFFFFFFF30
:102AB000FFFFFFFFFFFFFFFFFFFFFFFFFFFFFFFF26
:102AC000FFFFFFFFFFFFFFFFFFFFFFFFFFFFFFFF16
:102AD000FFFFFFFFFFFFFFFFFFFFFFFFFFFFFFFF06
:102AE000D49400000000000000000000000000007E
:102AF000000000000000518CFFFFFFFFFFFFFFFF01
:102B0000FFFFFFFFFFFFFFFFFFFFFFFFFFFFFFFFD5
:102B1000FFFFFFFFFFFFFFFFFFFFFFFFFFFFFFFFC5
:102B2000FFFFFFFFFFFFFFFFFFFFFFFFFFFFFFFFB5
:102B3000AF73000000000000000000000000600013
:102B40000000000000006631FFFFFFFFFFFFFFFFF6
:102B5000FFFFFFFFFFFFFFFFFFFFFFFFFFFFFFFF85
:102B6000FFFFFFFFFFFFFFFFFFFFFFFFFFFFFFFF75
:102B7000FFFFFFFFFFFFFFFFFFFFFFFFFFFFFFFF65
:102B8000EB5A82101BDF894A000000003AE7FFFF82
:102B9000CE73000000000000FFFFFFFFFFFFFFFFFC
:102BA000FFFFFFFFFFFFFFFFFFFFFFFFFFFFFFFF35
:102BB000FFFFFFFFFFFFFFFFFFFFFFFFFFFFFFFF25
:102BC000FFFFFFFFFFFFFFFFFFFFFFFFFFFFFFFF15
:102BD0000B632B63B09CF7DE0000AEA434CE296BF0
:102BE000FFFF000000000000FFFFFFFFFFFFFFFFEF
:102BF000FFFFFFFFFFFFFFFFFFFFFFFFFFFFFFFFE5
:102C0000FFFFFFFFFFFFFFFFFFFFFFFFFFFFFFFFD4
:102C1000FFFFFFFFFFFFFFFFFFFFFFFFFFFFFFFFC4
:102C2000CD834231000089AC6049ABCD60410000EA
:102C300018EF032900000000FFFFFFFFFFFFFFFF69
:102C4000FFFFFFFFFFFFFFFFFFFFFFFFFFFFFFFF94
:102C5000FFFFFFFFFFFFFFFFFFFFFFFFFFFFFFFF84
:102C6000FFFFFFFFFFFFFFFFFFFFFFFFFFFFFFFF74
:102C7000CC834031828B86D529FFA8FE62B42183A4
:102C800032DE000000000000FFFFFFFFFFFFFFFF3C
:102C9000FFFFFFFFFFFFFFFFFFFFFFFFFFFFFFFF44
:102CA000FFFFFFFFFFFFFFFFFFFFFFFFFFFFFFFF34
:102CB000FFFFFFFFFFFFFFFFFFFFFFFFFFFFFFFF24
:102CC000D0A4A0204AFF24FF23FF23FFC8FFADFFAD
:102CD0008BC50000000000001BDFFFFFFFFFFFFFB0
:102CE000FFFFFFFFFFFFFFFFFFFFFFFFFFFFFFFFF4
:102CF000FFFFFFFFFFFFFFFFFFFFFFFFFFFFFFFFE4
:102D0000FFFFFFFFFFFFFFFFFFFFFFFFFFFFFFFFD3
:102D100072B5C26A29FF84FF41FF21FFC2FE86F619
:102D2000AAC50000000000002F7CFFFFFFFFFFFF8F
:102D3000FFFFFFFFFFFFFFFFFFFFFFFFFFFFFFFFA3
:102D4000FFFFFFFFFFFFFFFFFFFFFFFFFFFFFFFF93
:102D5000FFFFFFFFFFFFFFFFFFFFFFFFFFFFFFFF83
:102D600098D6E02804C564FE81FE61FEE3ED49EEDD
:102D7000ADC500002000C639C210FFFFFFFFFFFFF6
:102D8000FFFFFFFFFFFFFFFFFFFFFFFFFFFFFFFF53
:102D9000FFFFFFFFFFFFFFFFFFFFFFFFFFFFFFFF43
:102DA000FFFFFFFFFFFFFFFFFFFFFFFFFFFFFFFF33
:102DB00090948131CCCD83B464DD43D509E6F6FF30
:102DC000FFFF085B000000000000F7BDFFFFFFFFF2
:102DD000FFFFFFFFFFFFFFFFFFFFFFFFFFFFFFFF03
:102DE000FFFFFFFFFFFFFFFFFFFFFFFFFFFFFFFFF3
:102DF000FFFFFFFFFFFFFFFFFFFFFFFFFFFFFFFFE3
:102E000000002E84FFFFABA449A472EEFEFFFFFF7B
:102E1000FFFFFFFF0000000000000000FFFFFFFFBA
:102E2000FFFFFFFFFFFFFFFFFFFFFFFFFFFFFFFFB2
:102E3000FFFFFFFFFFFFFFFFFFFFFFFFFFFFFFFFA2
:102E4000FFFFFFFFFFFFFFFFFFFFFFFFFFFF494AFD
:102E50000000FFFFFFFFFFFFDDFFFFFFFFFFFFFFA2
:102E6000FFFFFFFFEC5A0000000000002C6BFFFF8B
:102E7000FFFFFFFFFFFFFFFFFFFFFFFFFFFFFFFF62
:102E8000FFFFFFFFFFFFFFFFFFFFFFFFFFFFFFFF52
:102E9000FFFFFFFFFFFFFFFFFFFFFFFF15A5000084
:102EA00018BEFFFFFFFFFFFFFFFFFFFFFFFFFFFF5A
:102EB000FFFFFFFF5ACE000000000000000038C6F0
:102EC000FFFFFFFFFFFFFFFFFFFFFFFFFFFFFFFF12
:102ED000FFFFFFFFFFFFFFFFFFFFFFFFFFFFFFFF02
:102EE000FFFFFFFFFFFFFFFFFFFFFFFF00000000EE
:102EF0009EEFFFFFFFFFFFFFFFFFFFFFFFFFFFFF53
:102F0000FFFF7DEFFFFF0000000000000000000059
:102F1000FFFFFFFFFFFFFFFFFFFFFFFFFFFFFFFFC1
:102F2000FFFFFFFFFFFFFFFFFFFFFFFFFFFFFFFFB1
:102F3000FFFFFFFFFFFFFFFFFFFF484A0000653173
:102F40009DF7FFFFFFFFFFFFFFFFFFFFFFFFFFFFFB
:102F50003DEFB7BDD8C5CF830000000000000000E2
:102F6000694AFFFFFFFFFFFFFFFFFFFFFFFFFFFFBC
:102F7000FFFFFFFFFFFFFFFFFFFFFFFFFFFFFFFF61
:102F8000FFFFFFFFFFFFFFFF9DEF0000000078CE77
:102F9000FFFFFFFFFFFFFFFFFFFFFFFFFFFFFFFF41
:102FA000FFFFFFFFFFFF18CE000000000000000041
:102FB00000005CE7FFFFFFFFFFFFFFFFFFFFFFFFDA
:102FC000FFFFFFFFFFFFFFFFFFFFFFFFFFFFFFFF11
:102FD000FFFFFFFFFFFFFFFFAE730000E741FFFFB2
:102FE000FFFFFFFFFFFFFFFFFFFFFFFFFFFFFFFFF1
:102FF000FFFFFFFFFFFFFFFF6E73000000000000F8
:103000000000C731FFFFFFFFFFFFFFFFFFFFFFFFD4
:10301000FFFFFFFFFFFFFFFFFFFFFFFFFFFFFFFFC0
:10302000FFFFFFFFFFFFFFFF610800001DEFFFFF35
:10303000FFFFFFFFFFFFFFFFFFFFFFFFFFFFFFFFA0
:10304000FFFFFFFFFFFFFFFFFBE6000000000000A7
:1030500000000000FFFFFFFFFFFFFFFFFFFFFFFF7C
:10306000FFFFFFFFFFFFFFFFFFFFFFFFFFFFFFFF70
:10307000FFFFFFFFFFFF39C600000521FFFFFFFF35
:10308000FFFFFFFFFFFFFFFFFFFFFFFFFFFFFFFF50
:10309000FFFFFFFFFFFFFFFFFFFF0000000000003A
:1030A00000000000928CFFFFFFFFFFFFFFFFFFFF0C
:1030B000FFFFFFFFFFFFFFFFFFFFFFFFFFFFFFFF20
:1030C000FFFFFFFFFFFF452900006E6BFFFFFFFFC3
:1030D000FFFFFFFFFFFFFFFFFFFFFFFFFFFFFFFF00
:1030E000FFFFFFFFFFFFFFFFFFFF000000000000EA
:1030F000000000004529FFFFFFFFFFFFFFFFFFFF6C
:10310000FFFFFFFFFFFFFFFFFFFFFFFFFFFFFFFFCF
:10311000FFFFFFFFF7BD0000000095B5FFFFFFFFB9
:10312000FFFFFFFFFFFFFFFFFFFFFFFFFFFFFFFFAF
:10313000FFFFFFFFFFFFFFFFFFFF81080000000010
:10314000000000000000FFFFFFFFFFFFFFFFFFFF89
:10315000FFFFFFFFFFFFFFFFFFFFFFFFFFFFFFFF7F
:10316000FFFFFFFF654A0000000056D6FFFFFFFF8C
:10317000FFFFFFFFBFFFFFFFFFFFFFFFFFFFFFFF9F
:10318000FFFFFFFFFFFFFFFFFFFF801000000000B9
:10319000000000000000FFFFFFFFFFFFFFFFFFFF39
:1031A000FFFFFFFFFFFFFFFFFFFFFFFFFFFFFFFF2F
:1031B000FFFFFFFF2AB5617BC0284EBDFFFFFFFF69
:1031C000FFFFFFFFFFFFFFFFFFFFFFFFFFFFFFFF0F
:1031D000FFFFFFFFFFFFFFFFFFFF000800000000F1
:1031E000000000006329FFFFFFFFFFFFFFFFFFFF5D
:1031F000FFFFFFFFFFFFFFFFFFFFFFFFFFFFFFFFDF
:10320000FEFFFBFFAEFFCCFFEBFEE05994E6FFFFB5
:10321000FFFFFFFFFFFFFFFFFFFFFFFFFFFFFFFFBE
:10322000FFFFFFFFFFFFFAFF35FF00310000000046
:103230000000201012CEFFFFFFFFFFFFFFFFFFFF88
:10324000FFFFFFFFFFFFFFFFFFFFFFFFFFFFFCFF91
:10325000F8FF0BFF26FFC7FF87FFA5DD000092C523
:10326000FFFFFFFFFFFFFFFFFFFFFFFFFFFFFFFF6E
:10327000FFFFFFFFFDFF53FF0FFF004100000000B5
:103280000000E8B4F5FFFCFFFFFFFFFFFFFFFFFFBB
:10329000FFFFFFFFFFFFFFFFFFFFFFFFF7FF4FFFF6
:1032A00047EE64FEA5FF42FFA4FFA8FF808B00004D
:1032B0004E94FFFFFFFFFFFFFFFFFFFFFFFFFFFF3A
:1032C000FFFFFFFFD7FF69CD0AFFC0A340380028EA
:1032D000C0AB2BFF2CFFF8FFFEFFFFFFFFFFFFFF40
:1032E000FFFFFFFFFFFFFFFFFFFFFDFF8AF607FF66
:1032F00046FF44FF42FF82FFA3FF85FF8BFFC030E4
:103300000000AB62FFFFFFFFFFFFFFFFFFFFFFFFBC
:10331000FFFFFFFFB7FFA5BC26FFC0FEA0EDE0FD4D
:1033200045FF46FF88FFEFFFFAFFFFFFFFFFFFFFAC
:10333000FFFFFFFFFFFFFFFFFFFFFBFF09FF43FF53
:1033400022FF62FF83FF82FF41FF84FFC8FFC6D5D3
:1033500000000000FFFFFFFFFFFFFFFFFFFFFFFF79
:10336000FFFFFFFFB7FFE1A324FF60FF40FF40FF27
:1033700041FF84FF65FF69FFF3FFFDFFFFFFFFFFD4
:10338000FFFFFFFFFFFFFFFFFFFFFCFF28FF42FFE4
:1033900082FF61FF61FF82FF82FF42FF84FFA9FF7E
:1033A000408B489CFFFFFFFFFFFFFFFFFFFFFFFF7A
:1033B000FFFFFFFF2162807266FF40FF80FF60FF1A
:1033C00062FF62FF83FF86FF2BFFD4FFFFFFFFFF3B
:1033D000FFFFFFFFFFFFFFFFFFFFFBFF28FF63FF74
:1033E000C3FF61FF83FF62FF62FF83FF82FF64FF11
:1033F00008FFF2FFFFFFFFFFFFFFFFFFFFFFFFFFE1
:103400007DF7A341000083B425FF61FF61FF81FFC9
:10341000A3FF63FF44FF67FF6DFFF5FFFFFFFFFFA3
:10342000FFFFFFFFFFFFFFFFFFFFF9FF29FF02FF85
:1034300022FF82FF62FFA3FF82FF61FF81FF62FF25
:1034400086FFA1B48BA43CEFDFFFDBDEF39CE73902
:1034500000000000001026D546FF63FF61FF61FFFA
:1034600063FF87FF89FF0CFFF4FFFEFFFFFFFFFFF5
:10347000FFFFFFFFFFFFFFFFFFFFF9FFAAFE85FE33
:10348000C5FEC4FE65FF85FF43FF42FF61FF41FFAC
:1034900024FFA5E50000000000000000000000007F
:1034A00000000000001866DD27FF44FF64FFA6FF50
:1034B00026FF87FE6BEED4FFFCFFFFFFFFFFFFFF41
:1034C000FFFFFFFFFFFFFFFFFFFFFEFF74FF0CE6A4
:1034D000C6C4C3C4C0C481E583FE04FFE2FE23FF6B
:1034E00002FE21BC00100000000001006210042157
:1034F000600800006028C3CC64FE62FE06FFA3EDF6
:1035000004D5EBE5B7FFFCFFFFFFFFFFFFFFFFFF69
:10351000FFFFFFFFFFFFFFFFFFFFFFFFFDFFFBFFC1
:1035200077FF91EECBD566CD61BC40C401DDE1DC17
:10353000E0BB03B4F1D59CFF9EFFDFFFFFFFFFFF61
:103540005CEF75DE2CBD208B20BCA0CC00B443B456
:10355000B0FEB8FFFDFFFFFFFFFFFFFFFFFFFFFF14
:10356000FFFFFFFFFFFFFFFFFFFFFFFFFFFFFFFF6B
:10357000FFFFFEFFFBFFF9FF55FF91EEACD588B4CE
:10358000AED5FAFFFEFFFFFFFFFFFFFFFFFFFFFFCC
:10359000FFFFDDFFBAFF52E6C9BCA8BC6DD556FFE0
:1035A000FDFFFFFFFFFFFFFFFFFFFFFFFFFFFFFF2D
:1035B000FFFFFFFFFFFFFFFFFFFFFFFFFFFFFFFF1B
:1035C000FFFFFFFFFFFFFFFFFFFFFFFFFDFFFEFF0E
:1035D000FFFFFFFFFFFFFFFFFFFFFFFFFFFFFFFFFB
:1035E000FFFFFFFFFFFFFFFFFDFFFDFFFFFFFFFFEF
:1035F000FFFFFFFFFFFFFFFFFFFFFFFFFFFFFFFFDB
:10360000FFFFFFFF4A0010F80007E0001FFFE0F88F
:103610001F4A001AF80007E0001FBC40FFE05000FE
:1036200000F800F81F07E001CF001F0000841F0012
:013630000099
:06686F007BFF7A1C797F1B
:10687500900EA2EBF0A3EAF0A3E9F074FFFFFE127D
:1068850072DE900DF7E0FAA3E0FB900E0CE4F0A3A6
:106895007414F0A3E4F0A3741FF0E4FDFCFFFE12F2
:1068A500655A900DF9E0FEA3E0FF24ECFDEE34FF00
:1068B500FC900DF7E0FAA3E0FB900E0CEEF0A3EFD1
:1068C500F0A3E4F0A3741FF0E4FFFE12655A74FF11
:1068D500900DF3F0A3F0900CD3E4F0A3741FF090A7
:1068E5000EA2E0F9A3E0FAA3E0900CD5C9F0A3EA63
:1068F500F0A3E9F0A37410F0A37401F074FFFBFAA0
:106905007D027C00E4FFFE1270B0900DFAE024EEEB
:10691500FD900DF9E034FFFC900CD3E4F0A3741F57
:10692500F0A374FFF0A3741AF0A37426F0A37410F7
:0F693500F0A37401F074FFFBFAE4FFFE0270B0F0
:106C82007BFF7A1A793D126875900CD3E4F0A374F5
:106C92001FF0A374FFF0A3741AF0A37452F0A3744C
:106CA20010F0A37401F07B007AF87D1E7C00E4FFF3
:106CB200FE1270B0900CD3E4F0A3741FF0A374FF23
:106CC200F0A3741AF0A3745BF0A37410F0A3740120
:106CD200F07B007AF87D3C7C00E4FFFE1270B090FD
:106CE2000CD3E4F0A3741FF0A374FFF0A3741AF0A2
:106CF200A37468F0A37410F0A37401F07B1F7AF8F8
:106D02007D5A7C00E4FFFE1270B0900CD3E4F0A335
:106D1200741FF0A374FFF0A3741AF0A3747DF0A3A0
:106D22007410F0A37401F07B1F7A007D787C00E47C
:106D3200FFFE1270B07FDC7E051277207FDC7E05BD
:036D4200027720B5
:10614300900DF7E0FAA3E0FBA3E0FFA3E0900E0CB1
:10615300CFF0A3EFF074FFA3F0A3F0E4FDFCFFFE88
:1061630012655A900CE074FFF0A374E0F0A374FF7F
:10617300F0A3741AF0A37498F0A37410F0A374013D
:10618300F07B1F7A007D1E7C007F147E0012456623
:106193007F207E03127720900DF7E0FAA3E0FBA3A4
:1061A300E0FFA3E0900E0CCFF0A3EFF0A374F8F0A0
:1061B300A3E4F0FDFCFFFE12655A900CE074FFF0BF
:1061C300A374E0F0A374FFF0A3741AF0A374A0F017
:1061D300A37410F0A37401F07B1F7A007D1E7C0072
:1061E3007F147E001245667F207E03127720900D78
:1061F300F7E0FAA3E0FBA3E0FFA3E0900E0CCFF0DF
:10620300A3EFF0A37407F0A374E0F0E4FDFCFFFE3A
:1062130012655A900CE074FFF0A374E0F0A374FFCE
:10622300F0A3741AF0A374A5F0A37410F0A374017F
:10623300F07B1F7A007D1E7C007F147E0012456672
:106243007F207E03127720900DF7E0FAA3E0FBA3F3
:10625300E0FFA3E0900E0CCFF0A3EFF0A3E4F0A3D4
:10626300741FF0E4FDFCFFFE12655A900CE074FF0E
:10627300F0A374E0F0A374FFF0A3741AF0A374AC5A
:10628300F0A37410F0A37401F07B007AF87D1E7CF8
:0F629300007F147E001245667F207E0302772075
:105DF800E4900EB5F07BFF7A1A79B2126875900DAF
:105E0800F7E0FAA3E0FB900DFAE024ECFE900DF920
:105E1800E034FF900E0CF0A3CEF074FFA3F0A3F0D3
:105E28007D147C00E4FFFE12655AE4900EB5F090F4
:105E38000EB5E0FD25E02410F582E43400F583E09A
:105E4800FFA3E0900DF3CFF0A3EFF0900DF7E0C3C0
:105E580013FEA3E01324B0FBEE34FFFAED75F00F48
:105E6800A4FDACF02BFFEC3AFEC006C007A3E0C3CC
:105E780013FEA3E01324B0FFEE34FFCF2DFDEF3C5B
:105E8800FCC004C005900DF7E0C313FCA3E013FDAC
:105E9800900EB5E0F975F00FA42DFFE5F03CCF2486
:105EA800ECFBEF34FFFA900DF9E0C313FCA3E01309
:105EB800FDE975F00FA42DFFE5F03CCF24ECCF34BD
:105EC800FF900E83F0A3EFF0D005D004D007D006E2
:105ED800126EC0900EB5E004F0E0C39405500302C2
:105EE8005E377FDC7E05127720900DF8E024FFFBFB
:105EF800900DF7E034FFFA900DFAE024ECFE900DD7
:105F0800F9E034FF900E0CF0A3CEF074FFA3F0A3D9
:105F1800F07D147C00E4FFFE12655AE4900EB5F0A3
:105F2800900EB5E0FD25E02410F582E43400F583F9
:105F3800E0FFA3E0900DF3CFF0A3EFF0900DF7E0B2
:105F4800C313FEA3E01324B0FBEE34FFFAED75F0A3
:105F58000FA4FDACF02BFFEC3AFEC006C007A3E08F
:105F6800C313FEA3E01324B0FFEE34FFCF2DFDEFE3
:105F78003CFCC004C005900DF7E0C313FCA3E0137C
:105F8800FD900EB5E0F975F00FA42DFFE5F03CCFBC
:105F980024ECFBEF34FFFA900DF9E0C313FCA3E007
:105FA80013FDE975F00FA42DFFE5F03CCF24ECCFED
:105FB80034FF900E8BF0A3EFF0D005D004D007D0BB
:105FC800061278A0900EB5E004F0E0C394055003E3
:0A5FD800025F287FDC7E05027720BF
:105FE200E4900EB6F07BFF7A1A79C8126875900DAC
:105FF200F7E0FAA3E0FB900DFAE024ECFE900DF935
:10600200E034FF900E0CF0A3CEF074FFA3F0A3F0E7
:106012007D147C00E4FFFE12655AE4900EB6F09007
:106022000DF7E0C313FEA3E01324B0FDEE34FFFC32
:10603200900EB6E0F975F019A4FBAAF02DFFEA3C28
:10604200FEC006C007900DF9E0C313FEA3E01324BF
:10605200CEFFEE34FFCF2BFDEF3AFCE925E0241012
:10606200F582E43400F583E0FAA3E0FB900E1EE42F
:10607200F0A3741EF0E4A3F0A3F0D007D006125AE6
:1060820017900EB6E004F0E0C3940540927FDC7EE8
:1060920005127720900DF8E024FFFB900DF7E03415
:1060A200FFFA900DFAE024ECFE900DF9E034FF9037
:1060B2000E0CF0A3CEF074FFA3F0A3F07D147C00CD
:1060C200E4FFFE12655AE4900EB6F0900DF7E0C3BD
:1060D20013FEA3E01324B0FDEE34FFFC900EB6E0F5
:1060E200F975F019A4FBAAF02DFFEA3CFEC006C028
:1060F20007900DF9E0C313FEA3E01324CEFFEE34A4
:10610200FFCF2BFDEF3AFCE925E02410F582E434C1
:1061120000F583E0FAA3E0FB900E1EE4F0A3741EE8
:10612200F0A3E4F0A304F0D007D006125A17900EA1
:10613200B6E004F0E0C3940540917FDC7E0502776F
:01614200203C
:1047FC00E4900EB7F07BFF7A1A79DE126875900D93
:10480C00F7E0FAA3E0FB900DFAE024ECFE900DF932
:10481C00E034FF900E0CF0A3CEF074FFA3F0A3F0E5
:10482C007D147C00E4FFFE12655AE4900EB7F09004
:10483C000EB7E0F9C39405400302493CE925E02496
:10484C0010F582E43400F583E0FFA3E0900DF3CF84
:10485C00F0A3EFF0900DF7E0C313FAA3E013FB24E1
:10486C00B0FDEA34FFFCE975F014A42DFFE5F03C33
:10487C00FEC006C007A3E0C313FEA3E01324ECFDA7
:10488C00EE34FFFCE975F00FA42DFDE5F03CFCC007
:10489C0004C005EB24CDFDEA34FFFCE975F014A44B
:1048AC002DFBE5F03CFAC002C003900DF9E0C313F8
:1048BC00FEA3E01324B7FDEE34FFFCE975F00FA462
:1048CC002DFDE5F03CFCC005C004900DF7E0C313D2
:1048DC00FEA3E01324EBFDEE34FFFCE975F014A409
:1048EC002DFDE5F03CFCA3E0C313FEA3E01324EC88
:1048FC00FBEE34FFFAE975F00FA42BFEE5F03A90CD
:10490C000E41F0A3CEF0900E3FECF0A3EDF0900E24
:10491C003DD0E0F0A3D0E0F0D003D002D005D0041D
:10492C00D007D0061273D6900EB7E004F002483BC5
:10493C007FDC7E05127720900DF8E024FFFB900DB4
:10494C00F7E034FFFA900DFAE024ECFE900DF9E05C
:10495C0034FF900E0CF0A3CEF074FFA3F0A3F07D07
:10496C00147C00E4FFFE12655AE4900EB7F0900E32
:10497C00B7E0F9C394054003024A7BE925E0241013
:10498C00F582E43400F583E0FFA3E0900DF3CFF063
:10499C00A3EFF0900DF7E0C313FAA3E013FB24B0E0
:1049AC00FDEA34FFFCE975F014A42DFFE5F03CFEA4
:1049BC00C006C007A3E0C313FEA3E01324ECFDEE76
:1049CC0034FFFCE975F00FA42DFDE5F03CFCC004B0
:1049DC00C005EB24CDFDEA34FFFCE975F014A42DE1
:1049EC00FBE5F03CFAC002C003900DF9E0C313FEE6
:1049FC00A3E01324B7FDEE34FFFCE975F00FA42DF2
:104A0C00FDE5F03CFCC005C004900DF7E0C313FEBF
:104A1C00A3E01324EBFDEE34FFFCE975F014A42D98
:104A2C00FDE5F03CFCA3E0C313FEA3E01324ECFB78
:104A3C00EE34FFFAE975F00FA42BFEE5F03A900D79
:104A4C0010F0A3CEF0900D0EECF0A3EDF0900D0C49
:104A5C00D0E0F0A3D0E0F0D003D002D005D004D049
:104A6C0007D006123665900EB7E004F002497A7F43
:064A7C00DC7E050277203C
:106AE9007BFF7A1A79F9126875900DF374F8F0A39F
:106AF900E4F0900DF5F0A3741FF0900E7174FFF09F
:106B0900A3741BF0A3740CF0E4A3F07B0C7D1EFCB2
:106B19007F0AFE126D45900E7174FFF0A3741BF08D
:106B2900A3742CF0A37401F07B0C7D2D7C007F0AEB
:106B39007E00126D45900E7174FFF0A3741BF0A3D3
:106B4900744CF0E4A3F07B0C7D3CFC7F0AFE126DD3
:106B590045900E7174FFF0A3741BF0A3746AF0E4FE
:106B6900A3F07B107D50FC7F0AFE126D45900E71DB
:106B790074FFF0A3741BF0A37487F0A37401F07B76
:106B8900107D647C007F0A7E00126D45900E717441
:106B9900FFF0A3741BF0A374A3F0E4A3F07B107DB2
:0F6BA90078FC7F0AFE126D457FB07E04027720D4
:106E04007BFF7A1B79BE126875900CE074FFF0A3C7
:106E140074E0F0A374FFF0A3741BF0A374D1F0A387
:106E24007410F0E4A3F07B1FFA7D1EFC7F0AFE12AF
:106E34004566900CE074FFF0A374E0F0A374FFF0D7
:106E4400A3741BF0A374E6F0A37410F0E4A3F07B26
:106E54001FFA7D32FC7F0AFE124566900CE074FF37
:106E6400F0A374E0F0A374FFF0A3741BF0A374FC0C
:106E7400F0A37418F0A37401F07B1F7A007D467CA4
:106E8400007F0A7E00124566900CE074FFF0A37444
:106E9400E0F0A374FFF0A3741CF0A3740FF0A374C8
:106EA40020F0A37401F07B1F7A007D647C007F0ACC
:0C6EB4007E001245667FB07E040277204D
:106BB8007BFF7A1C79221268757BFF7A1C79D67D57
:106BC8001E7C007F1E7E00126944900CE074FFF06A
:106BD800A374E0F0A374FFF0A3741CF0A37435F061
:106BE800A37410F0A37401F07B1F7A007D4B7C0026
:106BF8007F2A7E001245667BFF7A1C79D67D1E7C33
:106C0800007F5A7E00126944900CE074FFF0A37470
:106C1800E0F0A374FFF0A3741CF0A37435F0A37420
:106C280010F0A37401F07B1F7A007D4B7C007F6617
:106C38007E001245667BFF7A1C79D67D1E7C007F1C
:106C4800967E00126944900CE074FFF0A374E0F0A3
:106C5800A374FFF0A3741CF0A37435F0A37410F0B0
:106C6800A37401F07B1F7A007D4B7C007FA27E001D
:0A6C78001245667FB07E040277200B
:106F6A00E4900E2AF0782B7C0E7D017BFF7A29793A
:106F7A0056FE7F0C123C2FE4900E2AF0900E2AE067
:106F8A00FFC39404507A12700F7BFF7A1C796C123B
:106F9A006875900E2AE075F003A4242BF582E43478
:106FAA000EF583E0F9A3E0FAA3E0900CE2C9F0A39E
:106FBA00EAF0A3E9F0900CE074FFF0A374E0F0901B
:106FCA000CE57410F0A37401F07B1F7A007D1E7C1F
:106FDA00007F147E001245667BFF7A1C79D67D32CB
:106FEA007C007F1E7E001269447FE87E03127720B0
:106FFA007FE87E03127720900E2AE004F0026F8663
:05700A007F0102700F80
:104A8200E4900DB3F0A3F0A3F012686F127B3090A4
:104A92000DF374F8F0A3E4F0900DB5E004F0127B8E
:104AA20049900DB3E0FD7E007401A805088005C39E
:104AB20033CE33CED8F9FF900DDEE0FBEF5B70030F
:104AC200024CD1ED25E024CAF582E4340DF583E0F1
:104AD200FEA3E0FF900DF7E0FCA3E0FDC3EF9DEE27
:104AE2009C4003024CE7900DB3E0FF25E024D4F58F
:104AF20082E4340DF583E0FCA3E0FD900DF9E0FAC9
:104B0200A3E0FBC3ED9BEC9A4003024CE7EF25E0E8
:104B120025E024B6F582E4340DF583E0FEA3E0F44B
:104B22007002EEF4704F900DB3E025E024CAF582D6
:104B3200E4340DF583E0FCA3E0FDEF25E025E0245D
:104B4200B6F582E4340DF583ECF0A3EDF0900DB3ED
:104B5200E0FF25E024D4F582E4340DF583E0FCA3E4
:104B6200E0FDEF25E025E024B8F582E4340DF5837D
:104B7200ECF0A3EDF0900DF8E024E8FF900DF7E0E3
:104B820034FFFE900DB3E0FD25E024CAF582E43443
:104B92000DF583E0FAA3E0D39FEA9E405AED25E0AB
:104BA20024D4F582E4340DF583E0FEA3E0C394102F
:104BB200EE94005042900DB5E094014003024A9AEF
:104BC20012686F900DF8E024E8FF900DF7E034FFD3
:104BD200FE900E7174FFF0A3741CF0A374A3F0A3F3
:104BE2007401F07B10E4FDFC126D45900DF374F836
:104BF200F0A3E4F0024C7F900DB3E0FD25E025E048
:104C020024B6F582E4340DF583E0FEA3E0FFC0068E
:104C1200C007ED25E025E024B8F582E4340DF583E4
:104C2200E0FCA3E0FDC005900DB3E0F925E024CA45
:104C3200F582E4340DF583E0FAA3E0FBE925E024F4
:104C4200D4F582E4340DF583E0FEA3E0FFE925E02C
:104C5200241AF582E43400F583E0FDA3E0900D818F
:104C6200CDF0A3EDF0900D7DEEF0A3EFF0A3E4F014
:104C7200A37402F0D005D007D00612580D900DB3E0
:104C8200E0FF25E024CAF582E4340DF583E0FCA3BD
:104C9200E0FDEF25E025E024B6F582E4340DF5834E
:104CA200ECF0A3EDF0900DB3E0FF25E024D4F58203
:104CB200E4340DF583E0FCA3E0FDEF25E025E024DC
:104CC200B8F582E4340DF583ECF0A3EDF080169094
:104CD2000DB3E025E025E024B6F582E4340DF5833A
:104CE20074FFF0A3F0900DB5E0D394045003024A90
:064CF2009AE4F0024A9A68
:1053C10078587C0D7D017BFF7A2979627E007F0A06
:1053D100123C2F78637C0D7D017BFF7A29796C7EED
:1053E100007F14123C2F7BFF7A1C79A712687590FD
:1053F1000DF7E0FAA3E0FB900DFAE024ECFE900D2E
:10540100F9E034FF900E0CF0A3CEF074FFA3F0A3EB
:10541100F07D147C00E4FFFE12655A127790900D26
:105421003174FFF0A3741CF0A374BEF0A3EEF0A3DB
:10543100EFF07B017A0D7958123F68900CE074FF10
:10544100F0A374E0F0A37401F0A3740DF0A37458F9
:10545100F0A37410F0E4A3F07B1FFA7D19FC7F32F6
:10546100FE124566E4900D62F0900D62E0FD25E0CC
:105471002400F582E43400F583E0FFA3E0900DF30E
:10548100CFF0A3EFF0900DF7E0C313FEA3E01324D8
:10549100B0FBEE34FFFAED75F00FA4FDACF02BFF7D
:1054A100EC3AFEC006C007A3E0C313FEA3E0132439
:1054B100B0FFEE34FFCF2DFDEF3CFCC004C00590E2
:1054C1000DF7E0C313FCA3E013FD900D62E0F97545
:1054D100F00FA42DFFE5F03CCF24ECFBEF34FFFAF5
:1054E100900DF9E0C313FCA3E013FDE975F00FA4DF
:1054F1002DFFE5F03CCF24ECCF34FF900E8BF0A3D1
:10550100EFF0D005D004D007D0061278A0900DF7A7
:10551100E0C313FEA3E01324B0FDEE34FFFC900DB5
:1055210062E0F975F00FA42DFBE5F03CFA900DF95E
:10553100E0C313FEA3E01324B0FDEE34FFFCE975D4
:10554100F00FA42DFDE5F03CFCAF03AE0212759FF8
:10555100900D56EEF0A3EFF0900D3174FFF0A374AF
:105561001CF0A374C6F0A3EEF0A3EFF07B017A0D5B
:105571007963123F68900DF7E0C313FEA3E0132493
:10558100B0FDEE34FFFC900D62E075F00FA4FBAAB4
:10559100F02DFFEA3CFEC006C007900DF9E0C313F1
:1055A100FEA3E0132BFFEA3ECF24A8FDEF34FFFC5E
:1055B100900CE074FFF0A374E0F0A37401F0A37405
:1055C1000DF0A37463F0A37410F0E4A3F0900DF355
:1055D100E0FAA3E0FBD007D0061245667FE87E0320
:1055E100127720900D62E004F0E0C39407500302AB
:0455F100546A80FE7A
:10794C00E4FDFCC3ED9FEC9E500EE4FB0BEBB4038B
:08795C00FB0DBD00010C80EBE6
:017964002200
:10796500E4FDFCC3ED9FEC9E500EE4FB0BEBB40570
:08797500FB0DBD00010C80EBCD
:01797D0022E7
:0876E800900CCDEEF0A3EFF0D1
:1076F000E4A3F0A3F0900CCDE0FEA3E0FFC3900C58
:10770000D0E09F900CCFE09E50157FFA7E0012795A
:0F77100065A3E004F070DE900CCFE004F080D6AB
:01771F002247
:08772000900CCDEEF0A3EFF098
:10772800E4A3F0A3F0900CCDE0FEA3E0FFC3900C1F
:10773800D0E09F900CCFE09E50157FFA7E00127922
:0F77480065A3E004F070DE900CCFE004F080D673
:01775700220F
:10797E00E4FDFCC3ED9FEC9E500EE4FB0BEBB4015B
:08798E00FB0DBD00010C80EBB4
:0179960022CE
:047B4500000000003C
:0A363100420DF30000420DF5FFFF0B
:0F7AC600C2E8C2C28FA0AF058F80D2C2D2E82221
:1079B000C2E8C2C47F017E0012797EAFA0EFFEADA7
:0779C00080EDFFD2C4D2E804
:0179C700229D
:0B7AEF00AD07AC06C2E9ECFF027AC64E
:057A9600127AEFE4FF8D
:0B7A9B00AD07AC06D2E9ECFF027AC692
:057B3B00D2E90279B05F
:0B7AFA00AD07AC06D2E9ECFF027AC633
:10000300AA07ED54FC75F008A4FDEA54F845F0FE88
:0F001300EDFFEB54F8131313541FFDEF4DFF22B5
:10735F00D2E9C2E8C2C47F017E0012797EAFA0904D
:10736F000EABE4F0A3EFF0E0FFAD80ED900EABCFEE
:10737F00F0A3EFF0D2C4C2C47F017E0012797EAFBA
:10738F00A0900EABE4F0A3EFF0E0FFAD80ED900E18
:10739F00ABCFF0A3EFF0D2C4C2C47F017E0012794D
:1073AF007EAFA0AD07EDAD80FCD2C4ECFB7A007CC4
:1073BF0000900EACE0FD900EABE0FF7E00EEF0A370
:0773CF00EFF0D2E802000319
:0E7AD500AB05AA04127AEFAE02AF03027A9B51
:10762700900E8FEBF0A3EAF0A3E9F0127AEF75A0C2
:10763700FF7580FF900E9274FFF5F0123CF745F04E
:107647006019127B3B900E8FE0FBA3E475F00112EB
:107657003CF7A9F0FAEF123C9B80D975A0FF758023
:02766700FF2200
:0B7B0500900DFEE0FEA3E0FF027AEF0F
:0B7B1000900E00E0FEA3E0FF027AEF01
:0872DE00900CCDEEF0A3EFF0DF
:1072E600900DF8E024FFFB900DF7E034FFFA900DC7
:1072F600FAE024FFFE900DF9E034FF900D04F0A3B0
:10730600CEF0E4FDFCFFFE12744CE4900CCFF0A32B
:10731600F0900DF7E0FEA3E0FFC3900CD0E09F9045
:107326000CCFE09E5032E4FBFAD3900DFAE09B902E
:107336000DF9E09A4012900CCDE0FEA3E0FF127A20
:10734600FA0BBB00010A80E1900CD0E004F070C19A
:08735600900CCFE004F080B9B7
:01735E00220C
:10782800AB07AA068D828C83C006C007AE83AF82E1
:10783800900D04EEF0A3EFF0D007D00612744C9030
:0A7848000DF3E0FEA3E0FF027AFA60
:08759F00900EADEEF0A3EFF039
:1075A700D3900DF8E09F900DF7E09E400DD3900D1E
:1075B700FAE09D900DF9E09C5004E4FEFF22900E46
:1075C700ADE0FEA3E0FF12792D127B1075A0FF75C9
:0B75D70080FF12735F75A0FF7580FF3E
:0175E2002286
:107997007F327E00127720C2EA7F327E0012772084
:0979A700D2EA7F327E0002772053
:1062A2001279977FF77E00127AEF7FA9127A9B7F8D
:1062B20051127A9B7F2C127A9B7F82127A9B7FC02B
:1062C200127AEF7F11127A9B7F09127A9B7FC11299
:1062D2007AEF7F41127A9B7FC5127A967F0A127AF1
:1062E2009B7F80127A9B7FB1127AEF7FB0127A9BEA
:1062F2007F11127A9B7FB4127AEF7F02127A9B7F10
:10630200B6127AEF7F02127A9B7F22127A9B7FB7B4
:10631200127AEF7FC6127A9B7FBE127A967F0412A0
:106322007A9B7FE9127A967F36127AEF7F08127A89
:106332009B7F3A127AEF7F55127A9B7FE0127A9610
:106342007F07127A9B7F10127A9B7F09127A9B7FBA
:1063520017127A9B7F0B127A9B7F41127A9B7F895D
:10636200127A9B7F4B127A9B7F0A127A9B7F0C12C6
:106372007A9B7F0E127A9B7F18127A9B7F1B127A6E
:106382009B7F0F127A9B7FE1127A967F17127A9B7C
:106392007F1A127A9B7F04127A9B7F0E127A9B7F5E
:1063A20006127A9B7F2F127A9B7F45127A9B7F433C
:1063B200127A9B7F02127A9B7F0A127A9B7F0912C2
:1063C2007A9B7F32127A9B7F36127A9B7F0F127AE8
:1063D2009B7F11127AEF7F781277207F297E00123D
:0763E2007AEF7F0102700F4A
:10744C00900CFEEEF0A3EFF0A3ECF0A3EDF0900E99
:10745C0002E0FEA3E0FF127AEF900CFEE0FF7E004C
:10746C00127A9BA3E0FF127A9BEAFF127A9BAF037E
:10747C007E00127A9B900E04E0FEA3E0FF127AEFDE
:10748C00900D00E0FF7E00127A9BA3E0FF127A9B26
:10749C00900D04E0FF127A9BA3E0FF127A9B027B13
:0174AC0005DA
:10792D00AB07AA068D828C83C006C007AE83AF82DB
:0F793D00900D04EEF0A3EFF0D007D00602744CCB
:10700F00900E02E4F0A3742AF0A3E4F0A3742BF023
:10701F00900DFEE4F0A3742CF0A3E4F0A3742EF013
:10702F00EF14602414603B14605324037072E490D7
:10703F000DFDF0900DF704F0A37440F0A37401F070
:10704F00A374E0F07D08804F900DFD7401F0900D5A
:10705F00F7F0A374E0F0A37401F0A37440F07D681F
:10706F008035900DFD7402F0900DF714F0A374406D
:10707F00F0A37401F0A374E0F07DC8801A900DFDA9
:10708F007403F0900DF77401F0A374E0F0A3740192
:10709F00F0A37440F07DA87C007F367E00127AD575
:0170AF0022BE
:10779000789E7C0E7D017BFF7A7B79457E007F049D
:1077A000123C2F7B017A0E799E900E92E4F0A37426
:1077B00004F07FD37E00127627900EA0E0FEA3E0B7
:0377C000FDEDFFDD
:0177C30022A3
:107A850049443A25730D0A00455252000000000092
:017A950000F0
:10363B004A0E4481508158816081688170410E43EC
:01364B00007E
:0C7AE300C2B212772043B10453B2FB2260
:10775800900EB8EFF0D2B2D2EB7F147E00127720F1
:10776800C2EBC2B27F147E00127720900EB8E0B44C
:107778002803D38001C392B27F147E00127720D2EF
:08778800EB7F147E0002772064
:107A7300C2EB7F0A7E00127720D2EB7F0A7E0002E0
:027A830077206A
:067B2A00127B40027A7399
:0878C500900EAFEEF0A3EFF00E
:1078CD00127A4C7FBA1276AA900EAFE0FF1276AA0A
:0B78DD00900EAFA3E0FF1276AA7F011F
:0178E800227D
:0B785200900EA5EEF0A3EFF0A3EDF008
:10785D00127A4C900EA5E0FEA3E0FF1278C5900EB3
:0B786D00A7E0FF1276AA1279F77F0156
:0178780022ED
:087256007B017D017F4E7E816A
:10725E00900E75EEF0A3EFF0A3EDF0A3EBF0A3EA22
:04726E00F0A3E9F0B0
:10727200E4A3F0127A4C900E75E0FEA3E0FF1278C0
:10728200C5127A4C7F147E0012797E7FBB1276AAD9
:10729200E4900E7CF0900E77E0FF900E7CE0FEC34F
:1072A2009F502EEF14B50604E4FF80027F01127591
:1072B20004900E78E0FBA3E0FAA3E0F9900E7CE0E4
:1072C200F582758300EF123CAD900E7CE004F080F5
:0B72D200C41279F7900E7B7401F0FFEE
:0172DD00228E
:106A170078DF7C0D7D017BFF7A7A79917E007F0498
:106A2700123C2F127B2A7FBA1277587F327E0012D0
:106A37007AE37B017A0D79DF7D047F407E811272D4
:106A47005E900DDFE06439900D31704B74FFF0A359
:106A5700747AF0A37485F0A37401F0A3740DF0A306
:106A670074DFF07B017A0D79E3123F68900DF8E04F
:106A770024C8FF900DF7E034FFFE900E717401F00B
:106A8700A3740DF0A374E3F0A37401F07B10E4FD8D
:106A9700FC126D457F012274FFF0A3747AF0A37492
:106AA70085F0A37401F0A3740DF0A374DFF07B01EC
:106AB7007A0D79E3123F68900DF8E024C8FF900D36
:106AC700F7E034FFFE900E7174FFF0A3747AF0A321
:106AD700748DF0A37401F07B10E4FDFC126D457F0B
:016AE70000AE
:016AE800228B
:10790B0078B97C0E7D017BFF7A7A79957E007F01B9
:10791B00123C2F7A0E79B9127256900EB9E0540FB1
:01792B00FF5C
:01792C002238
:10426800E4900E67F0A3F0900E6BF0900E43E0041C
:10427800F0E0FF75F00A84E5F06009EFC3940A40A6
:10428800030245297A0E796B127256900E6BE03054
:10429800E714540FC39406500DE4900E69F0FD7FA7
:1042A8004E7E81127852900E6BE0540FFF7003021D
:1042B8004529C394064003024529A80774FF0880CE
:1042C80002C333D8FCFF900E69F0900DDEE0900E2B
:1042D8006AF0EFF444C0900DDEF0900DCAE0FFA341
:1042E800E0900DD2CFF0A3EFF0A3E0FFA3E0900D94
:1042F800DCCFF0A3EFF0E4900E67F0900E67E0FFDC
:10430800C39405400302449C7E007401A8070880FA
:1043180005C333CE33CED8F9FF900DDEE0FDEF5D57
:104328007003024493900E67E025E02444F582E48C
:10433800340EF583E0FEA3E0FF7B017A0E79637DFE
:104348000412725E900DFDE0FD7037900E64E0FE81
:10435800900E63E07A002400FFEA3EFE900E67E0CC
:10436800FC25E024CAF582E4340DF583EEF0A3EFD2
:10437800F0900E66E0FE900E65E02400FFEA3E0233
:10438800442CED64017046900E64E0FE900E63E0EC
:104398007C002400FFEC3EFEC3900DFAE09FFF90E6
:1043A8000DF9E09EFE900E67E0FD25E024D4F5822D
:1043B800E4340DF583EEF0A3EFF0900E66E0FE9086
:1043C8000E65E07A002400FFEA3E024481900DFD6C
:1043D800E0FD6402705B900E64E0FE900E63E07A8C
:1043E800002400FFEA3EFEC3900DF8E09FFF900D09
:1043F800F7E09EFE900E67E0FC25E024CAF582E413
:10440800340DF583EEF0A3EFF0900E66E0FE900E0B
:1044180065E02400FFEA3EFEC3900DFAE09FFF909E
:104428000DF9E09EFEEC25E024D4F582E4340D80FD
:1044380053ED64037055900E64E0FE900E63E07CCB
:10444800002400FFEC3EFE900E67E0FD25E024D43A
:10445800F582E4340DF583EEF0A3EFF0900E66E0FC
:10446800FE900E65E07A002400FFEA3EFEC3900D40
:10447800F8E09FFF900DF7E09EFEED25E024CAF5D9
:1044880082E4340DF583EEF0A3EFF0900E67E004BC
:10449800F0024303900E687401F0900DF7E0FEA35C
:1044A800E0FFD3900DCBE09F900DCAE09E50149092
:1044B8000DF9E0FEA3E0FF900DD5E09F900DD4E04C
:1044C8009E4059900E6BE0540FD394014020900DFC
:1044D800CCE0FFA3E0900DCACFF0A3EFF0900DD68B
:1044E800E0FFA3E0900DD4CFF0A3EFF0802E900D65
:1044F800D2E0FFA3E0900DCACFF0A3EFF0900DDC5F
:10450800E0FFA3E0900DD4CFF0A3EFF0900E6B7412
:1045180080F0900E6AE0900DDEF08005E4900E4386
:10452800F0900E6BE0548FFFBF8021900DDEE030DD
:10453800E705547FF0801574FF900DCAF0A3F09042
:104548000DD4F0A3F0900DDEE054E0F0900E43E0BF
:0D455800D394F04003740AF0900E68E0FF69
:014565002233
:077B23007F017E0002797E64
:047A3800C2EDE4FFB8
:107A3C00EFB4010543CB10800353CBEF53CCEF22B3
:057B4000D2EDD2EC22A1
:107A4C00E4FF127A3CD2ECD2ED127B23C2EC127B17
:047A5C0023C2ED2232
:1079F700E4FF127A3CC2EDC2EC127B23D2ED127B7C
:067A070023D2EC027B23F8
:1077F700E4900EBAF07F01127A3CD2EC127B23D2CE
:10780700ED127B2330EC16900EBAE004F0E0D3942F
:10781700FA40F11279F7E4FF127A3C0F22127A3814
:01782700223E
:107AA600127A38C2EC127B23D2ED127B23C2ED226E
:107AB600127A38D2EC127B23D2ED127B23C2ED224E
:0576AA00900EB1EFF0AD
:1076AF00E4FF127A3CC2EDE4A3F0900EB1E0FF5478
:1076BF0080FEC4131313540124FF92ECEF25E0F066
:1076CF00D2ED127B23C2ED127B23900EB2E004F0B9
:0976DF00E0C3940840D40277F7DF
:05750400900EA8EFF05D
:10750900E4900EAAF07F01127A3CE4900EA9F0C231
:10751900ED7F017E00127965D2ED900EAAE0FF257C
:10752900E0F030EC03E004F0900EA9E004F0E0C3D1
:10753900940840DB900EA8E07005127AB680031219
:0C7549007AA6E4FF127A3C900EAAE0FF44
:017555002213
:10364C00550DCA0000000000000000000000000042
:08365C00000000000000000066
:067B3000126A177F00221B
:037B49000242688D
:107A0D00759850E4F589758E40758B8E758DFDD208
:067A1D008ED2ACD2AF22B4
:087B1B008F993099FDC29922F7
:107A6000123C55FF600C127B1B740129F9E43AFAB1
:037A700080EE2283
:1079E000AF051DEF6010123C55FF127B1B7401297F
:0779F000F9E43AFA80EA22F3
:030023000279C897
:0679C800C0E0C083C08294
:0B79CE00309808C298900CA4E599F0D6
:0779D900D082D083D0E03220
:1000260000000000000000000000000000000404C2
:10003600040404040004000000140A0A000000007E
:1000460000000000000014143F140A3F0A0A0000D2
:1000560000041E1505060C14150F040000001215E9
:100066000D0A142C2A1200000000040A0A1E151597
:100076000936000000020201000000000000000036
:1000860000201008080808080810200000020408CC
:10009600080808080804020000000004150E0E15E2
:1000A6000400000000000404041F0404040000000F
:1000B6000000000000000000000202010000000035
:1000C600001F00000000000000000000000000000B
:1000D60000020000001008080804040202020100E1
:1000E60000000E1111111111110E0000000004067E
:1000F60004040404040E000000000E11110804029A
:10010600011F000000000E11100C1010110E00004F
:100116000000080C0A0A091E0818000000001F014A
:10012600010F1010110E000000000E09010F111131
:10013600110E000000001F09080404040404000056
:1001460000000E11110E1111110E000000000E110B
:1001560011111E10120E0000000000000400000025
:100166000004000000000000000400000004040079
:1001760000201008040204081020000000000000FF
:100186001F00001F000000000002040810201008D5
:100196000402000000000E1111080404000400000F
:1001A60000000E111915151D011E000000000404A3
:1001B6000C0A0A1E1233000000000F12120E121251
:1001C600120F000000001E1101010101110E0000B6
:1001D60000000F1212121212120F000000001F125E
:1001E6000A0E0A02121F000000001F120A0E0A025F
:1001F6000207000000001C1201013911120C000058
:1002060000003312121E12121233000000001F04E7
:1002160004040404041F000000003E08080808083F
:1002260008090700000037120A060A0A12370000FA
:100236000000070202020202223F000000001B1B10
:100246001B1B15151515000000003B1216161A1A71
:100256001217000000000E1111111111110E0000ED
:1002660000000F12120E02020207000000000E111B
:1002760011111117190E180000000F12120E0A1292
:100286001237000000001E1101060810110F0000B1
:1002960000001F1504040404040E000000003312BD
:1002A60012121212120C000000003312120A0A0C6B
:1002B6000404000000001515150E0A0A0A0A0000BB
:1002C60000001B0A0A04040A0A1B000000001B0A9D
:1002D6000A040404040E000000001F0908040402B6
:1002E600121F0000001C04040404040404041C007F
:1002F600000202020404080808100000000E0808A4
:100306000808080808080E0000040A00000000009B
:100316000000000000000000000000000000003F98
:1003260000040000000000000000000000000000C3
:10033600000C121C123C000000000302020E1212F6
:10034600120E000000000000001C1202021C000039
:1003560000001810101C1212123C000000000000D1
:10036600000C121E021C000000003804041E0404C7
:10037600041E000000000000003C120C021E221C9D
:1003860000000302020E12121237000000000400E1
:1003960000060404040E000000000800000C080813
:1003A6000808080700000302023A0A0E1237000086
:1003B6000000070404040404041F000000000000F9
:1003C600000F15151515000000000000000F121291
:1003D6001237000000000000000C1212120C000080
:1003E60000000000000F1212120E020700000000AB
:1003F600001C1212121C103800000000001B06021E
:100406000207000000000000001E020C101E000083
:1004160000000004040E040404180000000000009C
:10042600001B1212123C0000000000000037120AE6
:100436000C040000000000000015150E0A0A00005A
:1004460000000000001B0A040A1B00000000000058
:100456000037120A0C04040300000000001E080402
:10046600041E0000001808080804080808081800F8
:100476000808080808080808080808080006040408
:100486000408040404040600022518000000000005
:100496000000000000000000000000000000000056
:1004A600000000000000000808080808080800000E
:1004B6001818000000486C2412000000000000001C
:1004C600000000000000002424247F1212127F1274
:1004D600121200000000081C2A2A0A0C1828282AD2
:1004E6002A1C080800000022251515152A58545400
:1004F600542200000000000C1212120A762529115F
:10050600916E0000000606040300000000000000D3
:100516000000000000402010100808080808081015
:1005260010204000000204080810101010101008D7
:10053600080402000000000008086B1C1C6B080879
:100546000000000000000000080808087F080808EE
:10055600080000000000000000000000000000008D
:10056600060604030000000000000000FE00000074
:100576000000000000000000000000000000000075
:1005860006060000000080404020201010080804E5
:100596000402020000000018244242424242424243
:1005A60024180000000000080E08080808080808BB
:1005B600083E00000000003C424242202010080491
:1005C600427E00000000003C42422018204040428B
:1005D600221C0000000000203028242422227E2035
:1005E600207800000000007E0202021A26404042E7
:1005F600221C0000000000382402021A2642424251
:10060600241800000000007E2222101008080808A6
:10061600080800000000003C4242422418244242DE
:10062600423C000000000018244242426458404008
:10063600241C000000000000000018180000000044
:10064600181800000000000000000008000000006C
:1006560000080804000000402010080402040810E6
:10066600204000000000000000007F0000007F0026
:1006760000000000000000020408102040201008BE
:10068600040200000000003C4242464020101000D8
:10069600181800000000001C225A555555552D42C9
:1006A600221C00000000000808181414243C2242F2
:1006B60042E700000000001F2222221E2242424280
:1006C600221F00000000007C42420101010101429C
:1006D600221C00000000001F2242424242424242C7
:1006E600221F00000000003F4212121E1212024298
:1006F600423F00000000003F4212121E1212020288
:10070600020700000000003C2222010101712122A3
:10071600221C0000000000E7424242427E42424262
:1007260042E700000000003E08080808080808081C
:10073600083E00000000007C101010101010101071
:100746001010110F0000007722120A0E0A12122250
:1007560022770000000000070202020202020202E3
:10076600427F000000000077363636362A2A2A2ACB
:100776002A6B0000000000E346464A4A5252526283
:10078600624700000000001C2241414141414141B5
:10079600221C00000000003F424242423E0202028A
:1007A600020700000000001C2241414141414D5317
:1007B600321C60000000003F4242423E12122222DA
:1007C60042C700000000007C42420204182040425A
:1007D600423E00000000007F490808080808080893
:1007E600081C0000000000E74242424242424242E8
:1007F600423C0000000000E7424222242414141860
:10080600080800000000006B494949495555362241
:1008160022220000000000E742242418181824248D
:1008260042E7000000000077222214140808080896
:10083600081C00000000007E21201010080404425D
:10084600423F000000780808080808080808080859
:1008560008087800000002020404080808101020A6
:1008660020204040001E1010101010101010101004
:1008760010101E00003844000000000000000000B8
:100886000000000000000000000000000000000062
:10089600000000FF00060800000000000000000045
:1008A60000000000000000000000003C42784442C6
:1008B60042FC0000000000030202021A26424242E5
:1008C600261A000000000000000000384402020260
:1008D60044380000000000604040407844424242F4
:1008E60064D80000000000000000003C427E0202C6
:1008F600423C0000000000F08808087E080808084E
:10090600083E0000000000000000007C22221C02BD
:100916003C42423C000000030202023A4642424286
:1009260042E700000000000C0C00000E0808080852
:10093600083E000000000030300000382020202053
:100946002020221E0000000302020272120A161262
:10095600227700000000000E0808080808080808AA
:10096600083E0000000000000000007F9292929274
:1009760092B70000000000000000003B46424242E1
:1009860042E70000000000000000003C42424242F4
:10099600423C0000000000000000001B26424242CC
:1009A600221E020700000000000000784442424276
:1009B600447840E000000000000000774C04040486
:1009C600041F0000000000000000007C42023C40C2
:1009D600423E0000000000000008083E0808080823
:1009E600083000000000000000000063424242425E
:1009F60062DC000000000000000000E7422424142E
:100A06000808000000000000000000EB49495555A9
:100A160022220000000000000000007624181818AA
:100A2600246E000000000000000000E742242414A9
:100A360018080807000000000000007E22100808C1
:100A4600447E000000C020202020201020202020EE
:100A56002020C000101010101010101010101010D0
:100A660010101010000608080808081008080808E2
:100A7600080806000C32C20000000000000000005A
:100A860000000000C9EE000027FC140414A4811025
:100A960042084040104017FC2040E0E02150224828
:100AA6002C4620400040DBDA1104112411241124C5
:100AB6001124FD24112411241124112411241D2490
:100AC600E124422402040404CAD00200010000000A
:100AD6007FFC0100010001003FF8210821082108E0
:100AE60021082128211001000100C8AB00000000E8
:100AF600018002400430180860061FF90100010059
:100B060001003FF80100010001007FFEB6AF0000C2
:100B1600000000203E20007C002200227F221022BE
:100B2600102212221222224223423D82009CB5E765
:100B36000000010001001FF0610C410441047FFC2C
:100B46004104410441047FFC01000102010201FC51
:100B5600D7D3000000003FF80010006000800100BD
:100B660000807FFE0040004000200020002018404A
:100B76000780BCBC00000000104013FE10407C4003
:100B8600104013FC1104190830885050106010D022
:100B960013087C06CAF500000100013001080100B7
:100BA6007FFE01800340054005200910110821043D
:100BB600410201000100D3D00000010002007FFEC7
:100BC600040008001FFC700490041FFC10041004AD
:100BD6001FFC10041004103CCFDE000000007BFC5C
:100BE6004A044A044BFC52044A044BFC4A404A4419
:100BF6007A2842304210420843C6B9AB00000000D2
:100C0600044004200810101010082104420202209B
:100C160004100810080810081FFC0004CBBE0000D2
:100C260000003FFC000400043FF400043FE42024DD
:100C360020242024202420241FC40004007CBBB6CA
:100C46000000000000807EFC02A202A222A415245D
:100C560014240C300C300C481248228442840102C1
:100C6600D3AD000000002398246414440444644473
:100C7600144414441444144415C4125C104028400F
:100C860047FEC4FA00000000120013FE24222522AB
:100C9600652862242224242020E0050814842444A4
:100CA600241A47F2B4BF00000020102013FE2020B3
:100CB60026244A247A241224222423FC7C2000227F
:100CC60004227822003CC9AB0000000004000FF0AB
:100CD600102020207FFC20842084208420843FF85C
:100CE6002000200220021FFECCEE00000000204063
:100CF60023FE204079FC220423FC220423FC220448
:100D060023FC3A0465FA01980204B3E400000100EA
:100D160001007FFE02200410040808043FFC044280
:100D260004400440044208421042607EBED80000DF
:100D36000000207E3E804880488048FE48827F82B0
:100D460008820C8214FA12842280218040FED0CEC2
:100D5600000000007F842208223022C022022204E2
:100D66007FC8223022C222022204220822304040BA
:100D7600BBAD000000007FFE00000FF01110111047
:100D8600111051125FF25112511251124FF24002DC
:100D96007FFCD4B2000000007FFE47E248124812F2
:100DA60047E24FF2501250125112511242924472BF
:100DB600580A3FFCC800000000007FFC000000004D
:100DC600000000003FF800000000000000000000E6
:100DD600FFFE00000000BDC7080008001FE020203D
:100DE6004040BFF8210821083FF8210821083FF8B4
:100DF6002108410841288010CDBC000000003FFEBC
:100E0600440247F24C225362408243625E1A418298
:100E16004062430240C240223FFCC6AC0000004094
:100E26002040204020403FFE2000200020003FE0E0
:100E3600201020102010201040104010CFD40000A9
:100E460000003FFC200420043FFC200420041FF87F
:100E560024441448144814480C5004407FFECABE6B
:100E6600000000003FFC0000000000007FFE008044
:100E76000890088810881084208420824082078089
:100E8600B2CB0000002008207FFE002000783F88BB
:100E96001108089009207FFE018003400D30310CB7
:100EA6004002B5A500000010081004203FF82104F8
:100EB60021043FFC210421043FF801007FFE0100CC
:100EC60001000100D6D000000100010001003FFC36
:100ED6002104210421042104210421043FFC0100F2
:100EE600010001000100D3A20000000008207FFEDF
:100EF6000820092001003FF82108210821081FF4D5
:100F0600014002200C10700ECEC40000010001004A
:100F160000803F7C081008100410042002200240C4
:100F26000180018002601C18E006D7DB000000008B
:100F3600102011FE2202220249FC5800300013FE46
:100F46002528792401240D24722202A2BACF00009A
:100F56000000018002400430180860061FF80000F7
:100F66001FF8200420042004200420041FF8C1C117
:100F76000000010001007FFE00003FF820083FF856
:100F86003FF8400647C24824082008221022603E47
:100F9600B6C80000000000803FFE44105FFC44100D
:100FA600441043F040005FF84408423041C04360BB
:100FB600BC1EB2E20000000067C214520552055280
:100FC600C552255205520552155217522282224207
:100FD6004442483ECAD4000000002014101417FEF4
:100FE60000120010601013F01090109010901492E0
:100FF60014EA1F0A0006B3CC0000000019FE7202B4
:10100600120212027DFC18001BFE3420502053FEF3
:1010160010201020102013FED0F2000000000080E7
:101026003FFE400047FC4208413040C05FFE404260
:1010360040424044404840404440B5F7000000006C
:1010460023FE122202FA0222E22212FE1272128AF1
:10105600128A128A16BA1A421202040EB9E2000065
:101066000100010411080908091009207FFE044047
:10107600044004400440084208421042607CB0E646
:101086000000000048FE4900490049007EFE4182FA
:10109600414479444528452845104528464403825D
:1010A600C8A800001000100013FC7D0411041904E8
:1010B600188434885048505010201050108813045B
:1010C6001402CBF9000000003F7C204020403E4047
:1010D600227E2244224422443E842084208440846A
:1010E60041044204C6C100003FF8200820083FF82A
:1010F600241022202FF8222022203FFC22204220EA
:10110600442084200820C4BB04407FFC04401FF018
:1011160010101FF010101FF00400FFFE11103FF812
:10112600D116115011200100D0002080108010FE31
:101136000100FE0021FC20243C2424A024A024BC81
:1011460024A024A04560553E8A00D7AA202020204E
:101156002020FDFC4020504093FEFC40108011FCF6
:101166001C04F0885050102010101010BFAA000068
:101176007FFC08200820082008200820FFFE082001
:101186000820082008201020102020204020D4B459
:10119600000027FE1420144085FC450445FC150478
:1011A60015FC2524E42024A829242A2230A0004066
:1011B600D2BA0080204017FE11208120423C4244D2
:1011C600166412942348E2482230222022502288B4
:1011D6000306BEA70FE0082008200FE0082008201D
:1011E6000FE000007EFC428442847EFC42844284FE
:1011F6007EFC4284CDF800007FFC4004400442148B
:1012060052944A54442444244A544A5452946104FD
:10121600400440144008D5BE1020082008207E2037
:10122600003E04204420442025FC290429040F0400
:10123600F104410401FC0104B0B410401020102058
:1012460013FEFA02144410401BFE3088D0881108A1
:1012560010D01020105050882304BCFC2010201001
:101266003B7C211441FE7A14A27C2710F97C2510C0
:1012760025FE22102A10350028FE0000D0A31040BB
:101286001020102011FEFC00108831043A02548808
:101296005088905010501020105010881306D7BC5C
:1012A60001404120212023FE022016201BFC122093
:1012B600222023FCE2202220222023FE22000200FC
:1012C600B4A520202020782049FC91247D24552493
:1012D60055247DFC552454207C28542457FE450271
:1012E6008C00C3FE1110111017FC1110FC0013F82E
:1012F600120817F81A0833F8D04017FC10A011107E
:1013060052082406B6C10020202011FC102000201F
:1013160003FEF002109410501110109013FE1428C2
:10132600184410820302BACD04000E007800087C2F
:101336000844FF44084418441C442A442A444844A8
:10134600887C084408000800D1D5100008FE7F10EC
:101356002220147C7F4444544854525444544854E4
:1013660051544228442488423082D6B50840084069
:101376000FFC1040104033F8320853F8920813F867
:10138600120813F8120812081FFE1000C8DD02002A
:1013960001007FFE400288241110228804400820A4
:1013A6003018DFF61010101010101FF01010D6A70E
:1013B6000100010001007FFC0100010001003FF077
:1013C6001010082004400280010006C01830E00E0C
:1013D600B3D610201020102011FCFC20102013FE84
:1013E6001008180833FED008108810481008502836
:1013F6002010B5E302000200020003FC0200020016
:101406003FF02010201020103FF0000024882244D6
:1014160042448004D1A722081108111000207FFE43
:10142600400280041FE000400180FFFE0100010031
:10143600010005000200F3BB0FE010201FC00040B2
:10144600FFFE0C1073200DC072B00C8EF3207CF8DA
:1014560054A87CF81224FEFCBFC608101D10F0909C
:1014660010901010FD10109038903410501E53F04C
:1014760090101010101010101010C9EE000000008F
:1014860000001000000800080C7FFC04401001C892
:10149600A002186042301832231812C30014030049
:1014A60004030C047FF0080F80080B4078136018C3
:1014B600332018631818831C190308180300000347
:1014C60000000000DBDA00000000000004100C043D
:1014D600180C04108C04108C04108C04108C04D08E
:1014E6008C3F108C04108C04108C04108C04108C0F
:1014F60004108C04108C05F08C0E208C78208C2027
:10150600408C00808C01000C02000C000000CAD048
:10151600000000000000003000001800001808005D
:10152600001C1FFFE000180000182007FFF0041839
:101536002004182004182004182004182004182059
:101546000418200418200418200418E00418400089
:101556001800001800000000D6D0000000000000AF
:10156600000000000000001800001800001800002D
:1015760018003FFFFE3018063018063018063018DF
:10158600063018063FFFFE30180600180000180047
:1015960000180000180000180000000000000000FD
:1015A6000000CEC40000000000000000000038006B
:1015B600001C00000600FFFFFF0600300600300397
:1015C60000600300600180C000C18000E3000036B7
:1015D60000001C0000770003C1E01E003C6000070D
:1015E600000000000000000000000000B2E2000061
:1015F6000000000000000000000040000321FF334F
:10160600398333118333019B33C19B33719B331968
:101616009B33019B33019B33119B3319B33330301A
:1016260033306C0330C6036383032E01BE00000013
:10163600000000000000CAD4000000000000000006
:10164600000000004000D83000CE1800C21C00C0C8
:1016560001FFFF0000C0F800C01800C019FFC01845
:1016660018401818601918601B18611E18311C1FC5
:10167600B139F01910000F00000000000000000052
:10168600D1A70000000060E00630F00738E003BD97
:10169600C0039D801B9B8C1FFFFE38001E3800D8A0
:1016A6007FFFF02203E0000780001E00001C1C7F65
:1016B600FFFE201C00001C00001C00001C0001FC9A
:1016C6000000F800003800000000F3BB0000000135
:1016D600C18001FFC003818003FF8003038C7FFF6D
:1016E600FE20F0E007FBE03EFF0007FFC03CFFFEE8
:1016F60007CE7E3F7FCC03BDC83FFFFC3B7DDC3B76
:101706007DDC3FFFFC3BEDF80371DC7FFFFE3C3FD9
:101716000E000000D7D600000000000600000003FF
:1017260000000000C0000001C0C0000107C00001A9
:10173600FF00021FFE0007F01C0007C070000F002C
:10174600E0000E03F0001C0FF0003C0F70003C00A0
:10175600E0001800C0000000C0000000C00000004B
:10176600600000002000000037000001FF00007F3D
:10177600F80007F830001F8030000080300000C0FD
:101786003000006060000018E000000FC000000696
:10179600000000000000CCE5000000000000000092
:1017A600000000C0000000E0002001B800703FF813
:1017B6000061FFC000C3030001C60600038C0600DB
:1017C60003080C0006080C000E18183F1E101BF329
:1017D6001F903F0700803C1C0190707C019060FECA
:1017E60001A0C3F801A00FD803A0081803600018D1
:1017F6000340001803C000180380001803000018F7
:10180600000000180000001000000030000000304A
:101816000000000000000000B2E20000000000002E
:1018260000000000000000000000020C1008071F66
:10183600F80403BFF00201BC300303EC3003015C83
:10184600600300D8600300D860038098620361B823
:10185600430771B14306313243063376C3063A6411
:10186600C7063EECC0063E78C0063C3040067C709B
:10187600000678E060067BFFF006F7C00006E4008D
:10188600000640000006000000060000007C000084
:101896008FF000007C0000000000CAD400000000A9
:1018A600000000000000000000003F0000007F80F4
:1018B60000000180000000C0000000C0000000CE53
:1018C600038000CFFFC000DD41800FFE0007FFFC54
:1018D600000C00F000180FC03E19FF40F311BC6069
:1018E60083307FE003B1FE20033380200370003095
:1018F600036000100360001807C0000C07C0000456
:101906000780000201000003000000010000000043
:10191600000000000000000000000000D1A7000049
:101926000000000000000003840000038FC00003D5
:1019360083E0003FC1C0003FFFC00077EF8000EFAB
:10194600DF0001FD9F0003FBFF0000EFFF0000FF2B
:10195600FFF000FF3FFC0061FC3C0077E07E007F6B
:101966003EF80DFC7EC01FE3F8001D9FF000381FF7
:10197600E0007819F00070007F000007FF00000FFC
:10198600F00000047000000070000000700000000D
:10199600E0000001E0000007C000001FC000F3BB2C
:1019A60000000000000600000007E0000007F0004D
:1019B600000EF000001DE000001FC000003F9FC0A9
:1019C600007FFFC0007FE000001F3C0000FE1E00FD
:1019D6000FFFBC000F3FFF8000FFFF8000FFF000FD
:1019E600003E7000007EF000003FFFE0007FFFE059
:1019F600007FBDC007F77F8003FFFF8003FFDF8006
:101A060001FDFF0001FFF9C001FFF8E0007F3FF094
:101A160001E33E380F83F8380E07E03800038000F4
:1077C400900E5DFEE0FCA3E0FD900E5CE02DFD90CC
:0D77D4000E5BE03CFC900E61E0FAA3E0FBD0
:1077E100900EB3EAF0A3EBF012792D900EB3E0FE08
:0677F100A3E0FF027AFA9A
:10652600900D16E0FCA3E0FD900D14E0FAA3E0FB4D
:10653600A3E0FFA3E0900E0CCFF0A3EFF0900DF3D5
:10654600E0FFA3E0900E0ECFF0A3EFF0900D12E067
:04655600FEA3E0FFC1
:0E655A00900E06EEF0A3EFF0A3ECF0A3EDF030
:10656800900E06E0FEA3E0FFC3EB9FFFEA9ECF2458
:1065780001CF3400900E14F0A3EFF0900E08E0FE67
:10658800A3E0FFC3900E0DE09FFF900E0CE09ECF9E
:106598002401CF3400900E16F0A3EFF0900E08E01F
:1065A800FCA3E0FD900E0CE0FFA3E0900D04CFF0FB
:1065B800A3EFF0900E06E0FEA3E0FF12744CE49007
:1065C8000E10F0A3F0900E16E0FEA3E0FFC3900EAD
:1065D80011E09F900E10E09E5047E4900E12F0A339
:1065E800F0900E14E0FEA3E0FFC3900E13E09F901E
:1065F8000E12E09E501B900E0EE0FEA3E0FF127AF2
:10660800FA900E13E004F070D8900E12E004F080B7
:10661800D0900E11E004F070AC900E10E004F08001
:10662800A4900DF8E024FFFB900DF7E034FFFA90FA
:106638000DFAE024FFFE900DF9E034FF900D04F010
:0B664800A3CEF0E4FDFCFFFE02744C4A
:0E5C0D00900D97EEF0A3EFF0A3ECF0A3EDF0F6
:105C1B00E4900DA1F0A3F0A3F0A3F0900D97E0FE9C
:105C2B00A3E0FFC3EB9FFFEA9E900DA5F0A3EFF05F
:105C3B00900D99E0FAA3E0FBC3900D9EE09BFE90C4
:105C4B000D9DE09A900DA7F0A3CEF0900D97E0FF7D
:105C5B00A3E0900DAFCFF0A3EFF0A3EAF0A3EBF02E
:105C6B00900DA5E0FEA3E0FFD39400EE648094803A
:105C7B00400A900DABE4F0A304F08021EF4E7008C6
:105C8B00900DABF0A3F0801574FF900DABF0A3F06B
:105C9B00C3E49FFFE49E900DA5F0A3EFF0900DA73A
:105CAB00E0FEA3E0FFD39400EE64809480400A9062
:105CBB000DADE4F0A304F08021EF4E7008900DAD14
:105CCB00F0A3F0801574FF900DADF0A3F0C3E49F2B
:105CDB00FFE49E900DA7F0A3EFF0900DA7E0FEA3BD
:105CEB00E0FF900DA5E0FCA3E0FDD39FEE6480F8F0
:105CFB00EC648098900DA94007ECF0A3EDF08005C3
:105D0B00EEF0A3EFF0E4900D9FF0A3F0900DAAE05E
:105D1B002401FF900DA9E03400FED3900DA0E09F6D
:105D2B00900D9FE09E4003025DF7900DAFE0FEA348
:105D3B00E0FFA3E0FCA3E0FD127828900DA5E0FEA8
:105D4B00A3E0FF900DA2E02FF0900DA1E03EF090AC
:105D5B000DA7E0FEA3E0FF900DA4E02FF0900DA3A4
:105D6B00E03EF0900DA9E0FEA3E0FF900DA1E0FC5A
:105D7B00A3E0FDD39FEE6480F8EC6480984020EDA7
:105D8B009FFFEC9E900DA1F0A3EFF0900DABE0FE0A
:105D9B00A3E0FF900DB0E02FF0900DAFE03EF09040
:105DAB000DA9E0FEA3E0FF900DA3E0FCA3E0FDD363
:105DBB009FEE6480F8EC6480984020ED9FFFEC9E92
:105DCB00900DA3F0A3EFF0900DADE0FEA3E0FF90DC
:105DDB000DB2E02FF0900DB1E03EF0900DA0E0047D
:0C5DEB00F07006900D9FE004F0025D17C0
:015DF7002289
:0E580D00900D77EEF0A3EFF0A3ECF0A3EDF01A
:10581B00E4900D85F0A3F0A3F0A3F0900D77E0FEDC
:10582B00A3E0FFC3EB9FFFEA9E900D89F0A3EFF07F
:10583B00900D79E0FAA3E0FBC3900D7EE09BFE9008
:10584B000D7DE09A900D8BF0A3CEF0900D77E0FFDD
:10585B00A3E0900D93CFF0A3EFF0A3EAF0A3EBF04E
:10586B00900D89E0FEA3E0FFD39400EE648094805A
:10587B00400A900D8FE4F0A304F08021EF4E7008E6
:10588B00900D8FF0A3F0801574FF900D8FF0A3F0A7
:10589B00C3E49FFFE49E900D89F0A3EFF0900D8B76
:1058AB00E0FEA3E0FFD39400EE64809480400A9066
:1058BB000D91E4F0A304F08021EF4E7008900D9150
:1058CB00F0A3F0801574FF900D91F0A3F0C3E49F4B
:1058DB00FFE49E900D8BF0A3EFF0900D8BE0FEA3F9
:1058EB00E0FF900D89E0FCA3E0FDD39FEE6480F810
:1058FB00EC648098900D8D4007ECF0A3EDF08005E3
:10590B00EEF0A3EFF0E4900D83F0A3F0900D8EE09A
:10591B002401FF900D8DE03400FED3900D84E09FA9
:10592B00900D83E09E4003025A16900D95E0FCA368
:10593B00E0FD900D81E0FAA3E0FB900D7FE0FFA36B
:10594B00E0900E1ECFF0A3EFF0A3E4F0A304F090D1
