:0C0BF800435A434A4A5100303330320067
:10074000E4F594F593F592F591F596F595F5B2F5F6
:10075000B1F5B4F5B3F5CAF5C9F5CCF5CBF5E2F5CD
:10076000E15395FB4396045395FD4396025395FE42
:100770004396015391F74392085391FB439204220D
:100A0100120740120BB2120BEB1209DF7FE87E03D3
:0F0A11001207BA1208237FC87E001207BA80F4BA
:0300130002006286
:01006200326B
:100A5900E4FDFCC3ED9FEC9E500EE4FB0BEBB403ED
:080A6900FB0DBD00010C80EB48
:010A71002262
:0807BA00900024EEF0A3EFF023
:1007C200E4A3F0A3F0900024E0FEA3E0FFC39000B6
:1007D20027E09F900026E09E50137FFA7E00120AC7
:0D07E2008B900026E475F0011200D480D841
:0107EF0022E7
:100A7200E4FDFCC3ED9FEC9E500EE4FB0BEBB401D6
:080A8200FB0DBD00010C80EB2F
:010A8A002249
:100A8B00E4FDFCC3ED9FEC9E500EE4FB0BEBB405B9
:080A9B00FB0DBD00010C80EB16
:010AA3002230
:0807F000900024EEF0A3EFF0ED
:1007F800E4A3F0A3F0900024E0FEA3E0FFC3900080
:1008080027E09F900026E09E50107FFA7E00120A93
:0A0818008BE475F0011200D480DBC0
:0108220022B3
:0E0BA30000007F0A7E1F7D93DDFEDEFCDFFA80
:010BB1002221
:100B93000001020003000000040000000000000048
:10078000410041004100400041004300410042005F
:04000E007F3CDFFE56
:0100120022CB
:10059D00900043E0FE75F8F012000EE5F854F0F00F
:1005AD0075F80F12000EE0FFE5F8540FFDEF4DF05A
:1005BD00E0F4FFF0EE6F705C900040E0FE900043C1
:1005CD00E0900040F06048C2D5EE7004D2D580179F
:1005DD00900040E0B50610900042E004F0C3941482
:1005ED0040057412F0D2D530D52A900040E0FFC4FA
:1005FD00540F900B9393FE601BEF540F93FF6014F9
:10060D00EE1425E025E0FEEF2E900041F08005E48C
:07061D00900042F075F8FFA8
:0106240022B3
:100689007FA0120AD490004AE0900BF893FF600B08
:10069900120AE990004AE004F080EAE490004AF086
:1006A9007FB0120AD490004AE0900BFF93FF600BD1
:1006B900120AE990004AE004F080EAE490004AF066
:1006C90090004AE0FFC39421500E120B3B120BA37A
:0D06D90090004AE004F080E87F30020AD46F
:0E08E200C2A1C2A2AF038F80D2A27F057E000A
:1008F000D3EF9400EE9400400F7DC77C01DCFEDD59
:08090000FAEF1F70EB1E80E806
:0109080022CC
:020AD400AB076E
:100AD600E490002FF07F14FE1208F0C2A01208E284
:020AE600C2A2AA
:010AE80022EB
:020AE900AB0759
:100AEB00E490002FF07F14FE1208F0D2A01208E25F
:020AFB00C2A295
:010AFD0022D6
:10090900E490004BF07F14FE1208F0D2A0D2A1C2ED
:10091900A27F017E001208F0D2A27F017E00120898
:05092900F0AF80C2A246
:01092E0022A6
:0F0BB2007F30120AD47F0C120AD47F01020AD4BA
:1008B4007F34120AD4E4FAEA2480FF120AD47F8037
:1008C400120AD4E4F9E4FF120AE909E9B420F60AA9
:0E08D400EAB420E37F36120AD47F30020AD441
:10095500EF70047F808016EFB401047F90800EEF66
:10096500B402047F888006EFB403027F98EF2DFF61
:03097500020AD49F
:100B3B00AA077F34120AD47F03120AD4EA4440FF77
:030B4B00020AD4C7
:06099B009000241202345A
:1009A100900024120214120066FF600F120AE990EF
:0B09B1000024E475F00112021D80EB31
:0109BC002218
:10023D00900026EAF0A3EBF0900024EFF0A3EDF090
:10024D001209557A06900029E4F0A3DAFCE4FA903D
:10025D000026E0FEA3E0FF7C007D0A12007FEF4E3A
:10026D00603D900026E0FEA3E0FF7C007D0A1200B9
:10027D007FAF05EAFD3395E0FC74292DF5827400FE
:10028D003CF583EFF0900026E0FEA3E0FF7C007DBF
:10029D000A12007F900026EEF0A3EFF00A80B090D6
:1002AD000026A3E0FFEAFD3395E0FC74292DF582CD
:1002BD0074003CF583EFF0A902C3EA64809480409A
:1002CD0017EAFF3395E0FE74292FF58274003EF591
:1002DD0083E02430F01A80E1E4FA900028E0FFEA90
:1002ED00FD3395E0FCC3ED9F7480F86C9850087F4A
:1002FD0020120AE90A80E3900024E0FFA3E0FD123A
:10030D000955AF01AA07C3EA648094804018EAFF3B
:10031D003395E0FE74292FF58274003EF583E0FFDE
:06032D00120AE91A80E04B
:0103330022A7
:08000300080C040602030109C8
:100B6000EFA2E39291A2E29292A2E1929313929465
:010B70002262
:100B7100538E7F5389F0758AE0758CB1C28DD28C0A
:010B81002251
:0D0BDE00538EFB75D70C75D6FE438E10228A
:03000B00020C2CB8
:010C2C003295
:03006300020C2D5F
:010C2D003294
:10092F00759D01EF4488F5BC00000000E5BC30E484
:10093F00FB53BCEFAFBDEF75F004A4ADBE7C002D33
:05094F00FFEC35F0FE95
:010954002280
:100AFE00C4E3BAC3A3A10080828486888A8C8183D2
:050B0E008587898B8D35
:0A0790004700393203021405061772
:100B1300E4FEC2B5EF1392B6EFC313FFD2B50EEEE8
:030B2300B408EF24
:010B260022AC
:100B2700C2CC00C2B500D2CC00120B13AF05120B1A
:040B370013C2CC22F7
:10001600E4FDC2CC0000C2B50000D2CC0000120B39
:1000260013E4FF30B604ED4480FDC2B5EDC313FD05
:10003600000000D2B50FEFB408E9C2CC0000C2CC74
:10004600C2B500000000D2B50000C2B60000D2B6AC
:040056000000AF05F2
:01005A002283
:100B4E00120016EFC4540F75F00AA4FEEF540F2EC8
:010B5E00FF97
:010B5F002273
:1006E600E4FC74392CF582E43400F583E0FF75F000
:1006F6000A84C454F0FEEF75F00A84EE25F0FF7408
:10070600392CF582E43400F583EFF00CECB407D213
:10071600E4FD7F8E120B27E4FCEC900B0593FF742F
:10072600392CF582E43400F583E0FD120B270CEC3E
:0A073600B407E67D807F8E020B27DA
:1003E2007F85120B4E90004CEFF0E4FD7F03120963
:1003F2005590004CE075F00A8475F00A84E5F0240B
:1004020030FF120AE990004CE075F00A84E5F0240E
:1004120030FF120AE97F3A120AE97F83120B4E90EB
:10042200004CEFF075F00A8475F00A84E5F0243090
:10043200FF120AE990004CE075F00A84E5F02430DE
:10044200FF120AE97F81120B4E90004CEFF07F3AC7
:10045200120AE990004CE075F00A8475F00A84E50E
:10046200F02430FF120AE990004CE075F00A84E5AE
:10047200F02430FF120AE97BFF7A0A79FE02099B17
:020C2A002E009A
:0C079A0041000000450011525332333280
:07005B007F0A7E00020A7219
:10062500E4900024F09000097402F020910A9000F3
:1006350009E0FF04F0EF70F312005B12005B12009B
:100645005BE490000EF030910204F0900009740212
:10065500F030910A900009E0FF04F0EF70F390008C
:1006650009E06401601D900019E025E0FFF09000AD
:100675000EE04F900019F0900024E004F0E0C394E0
:030685000840A288
:01068800224F
:10033400C2917F127E001207F0D29112005B12006C
:100344005BD2913091030203E19000097402F02022
:10035400910A900009E0FF04F0EF70F39000097433
:1003640002F030910A900009E0FF04F0EF70F312FC
:100374000625900019E0900016F012062590001949
:10038400E0900017F0120625900019E0900003F0A9
:10039400120625900019E0900004F0120625900042
:1003A40019E0FF90000DF0D291900004E0FE90005F
:1003B40003E0FD2EFC900016E0FB2CFCA3E0FA2CDD
:1003C40090000EF0B50716A3EBF0A3EAF09000013D
:0E03D400EDF0A3EEF090000DE090000BF02293
:1008230012033490000FE0FB7A009000287402F06A
:10083300E4FDFF12023D7BFF7A0C792A12099B909B
:100843000010E0FB7A009000287402F07D03E4FFBF
:0308530002023D61
:0E07A60044003510080402440031020408101B
:10085600E490004DF090004DE0FFC39404501F74E7
:10086600312FF582E43400F583E0F590900030E016
:0E087600FF7E001207BA90004DE004F080D71C
:010884002251
:10088500E490004EF090004EE0FFC39404501F74B6
:10089500352FF582E43400F583E0F590900030E0E3
:0E08A500FF7E001207BA90004EE004F080D7EC
:0108B3002222
:040C2600E4F590223F
:0D0BEB005391DF4392205391BF439240226B
:050C1C00C295C2962202
:050C2100D295D29622DD
:100AA4000000000000000000000000000000000042
:090AB40000000000000000002217
:0F0BC100D2EED2EF120AA4C2EE120AA4C2EF22A1
:0C0C0400C2EED2EF120AA4D2EE020AA443
:0E0BD000A20092EED2EF120AA4C2EF020AA413
:0C0C1000D2EF120AA4A2EEC2EF020AA466
:100A3F00E4FEEF25E0FF92EED2EF120AA4C2EF120E
:0A0A4F000AA40EEEB408EB020C102E
:100A2000E4FFD2EEFEEF25E0FFD2EF120AA4A2EE21
:0E0A3000E4334FFFC2EF120AA40EEEB408E743
:010A3E002295
:100ABD00AC07120BC17FD0120A3FAF04120A3FAF31
:070ACD0005120A3F020C04B0
:0209BD00AD0784
:1009BF00120BC17FD0120A3FAF05120A3F120BC1B3
:1009CF007FD1120A3F120A20D200120BD0020C0460
:1009DF00E4FD7F6B120ABD7D077F19120ABD1D7FD3
:1009EF001A120ABD7D187F1B120ABD7D017F1C02E2
:0209FF000ABD2F
:02097800AC07CA
:10097A001209BDAB07EC04FF1209BDAD07AF03EFC7
:10098A003395E0EFFEED3395E0FCE42DFFEE3CFEFF
:01099A00223A
:0507B40042004800B600
:100B82000000000000000000000000000000000063
:010B92002240
:10048200D294120B82C2939000441201E300000046
:1004920000D2AF2094FDC2AFE4FBD293900044128D
:1004A20001CB78011201B89000441201D7C29330F7
:1004B20094199000441201CBEF2401FFE43EFEE4C4
:1004C2003DFDE43CFC9000441201D70BEBB418CA8A
:1004D200D2939000441201CBED6480FDEC90004475
:1004E2001201D7120B82C293E47B02FAF9F8900050
:1004F200441201CB120126C006C007900048E0FE5C
:0F050200A3E0FBAA06E4F9F8D007D00602012611
:03000000020511E5
:0C051100787FE4F6D8FD758120020558C3
:10006600BB010689828A83E0225002E722BBFE0298
:09007600E32289828A83E49322CB
:10007F00BC000BBE0029EF8DF084FFADF022E4CC65
:10008F00F875F008EF2FFFEE33FEEC33FCEE9DEC2E
:10009F00984005FCEE9DFE0FD5F0E9E4CEFD22ED74
:1000AF00F8F5F0EE8420D21CFEADF075F008EF2FBE
:1000BF00FFED33FD4007985006D5F0F222C398FDAF
:0500CF000FD5F0EA224C
:1000D400C5F0F8A3E028F0C5F0F8E58215827002B7
:0600E4001583E038F02254
:1000EA0075F008758200EF2FFFEE33FECD33CDCCCD
:1000FA0033CCC58233C5829BED9AEC99E582984050
:10010A000CF582EE9BFEED9AFDEC99FC0FD5F0D62C
:10011A00E4CEFBE4CDFAE4CCF9A88222B800C1B956
:10012A000059BA002DEC8BF084CFCECDFCE5F0CB94
:10013A00F97818EF2FFFEE33FEED33FDEC33FCEBCD
:10014A0033FB10D703994004EB99FB0FD8E5E4F988
:10015A00FA227818EF2FFFEE33FEED33FDEC33FC75
:10016A00C933C910D7059BE99A4007EC9BFCE99A69
:10017A00F90FD8E0E4C9FAE4CCFB2275F010EF2FAE
:10018A00FFEE33FEED33FDCC33CCC833C810D707AE
:10019A009BEC9AE899400AED9BFDEC9AFCE899F8E9
:0E01AA000FD5F0DAE4CDFBE4CCFAE4C8F9227C
:1001B800E8600FEFC333FFEE33FEED33FDEC33FCA5
:0301C800D8F12249
:0C01CB00E0FCA3E0FDA3E0FEA3E0FF22A7
:0C01D700ECF0A3EDF0A3EEF0A3EFF0229B
:1001E300A8828583F0D083D0821201FA1201FA1219
:1001F30001FA1201FAE473E493A3C583C5F0C5833E
:10020300C8C582C8F0A3C583C5F0C583C8C582C865
:0102130022C8
:09021400E0FBA3E0FAA3E0F922EB
:10021D00F8E0FBA3A3E025F0F9F0E582158270026A
:07022D001583E038FAF0220E
:09023400EBF0A3EAF0A3E9F022CB
:10051D00020A01E493A3F8E493A34003F68001F2E9
:10052D0008DFF48029E493A3F85407240CC8C333DF
:10053D00C4540F4420C8834004F456800146F6DFAE
:10054D00E4800B0102040810204080900780E47EB7
:10055D00019360BCA3FF543F30E509541FFEE493A3
:10056D00A360010ECF54C025E060A840B8E493A36A
:10057D00FAE493A3F8E493A3C8C582C8CAC583CA95
:10058D00F0A3C8C582C8CAC583CADFE9DEE780BE4D
:0107B900003F
:00000001FF
