:105BFB00BDABBDF8BEC600BEB2BBBCFBA3ACBBC647
:105C0B00BAD3D6AECBAECCECC9CFC0B4A3ACB1BC7F
:105C1B00C1F7B5BDBAA3B2BBB8B4BBD8A1A300BE84
:105C2B00B2BBBCFBA3ACB8DFCCC3C3F7BEB5B1AF43
:105C3B00B0D7B7A2A3ACB3AFC8E7C7E0CBBFC4BA6A
:105C4B00B3C9D1A9A1A300C8CBC9FAB5C3D2E2D0BD
:105C5B00EBBEA1BBB6A3ACC4AACAB9BDF0E9D7BF12
:105C6B00D5B6D4D4C2A1A300CCECC9FACED2B2C45F
:105C7B00B1D8D3D0D3C3A3ACC7A7BDF0C9A2BEA123
:105C8B00BBB9B8B4C0B4A1A300C5EBD1F2D4D7C58E
:105C9B00A3C7D2CEAAC0D6A3ACBBE1D0EBD2BBD2AA
:105CAB00FBC8B0D9B1ADA1A300E1AFB7F2D7D3A375
:105CBB00ACB5A4C7F0C9FAA3ACBDABBDF8BEC6A3C7
:105CCB00ACB1ADC4AACDA3A1A300D3EBBEB8E8D2AF
:105CDB00BBC7FAA3ACC7EBBECEAACED2C7E3B6FA0C
:105CEB00CCA1A300D6D3B9C4E2CDD3F1B2BBD7E3D9
:105CFB00B9F3A3ACB5ABD4B8B3A4D7EDB2BBB8B4BE
:105D0B00D0D1A1A300B9C5C0B4CAA5CFCDBDD4BC59
:105D1B00C5C4AFA3ACCEA9D3D0D2FBD5DFC1F4C6DB
:105D2B00E4C3FBA1A300B3C2CDF5CEF4CAB1D1E756
:105D3B00C6BDC0D6A3ACB6B7BEC6CAAEC7A7EDA785
:105D4B00BBB6DACAA1A300D6F7C8CBBACECEAAD1BE
:105D5B00D4C9D9C7AEA3ACBEB6D0EBB9C1C8A1B636
:105D6B00D4BED7C3A1A300CEE5BBA8C2EDA1A2C7E9
:105D7B00A7BDF0F4C3A3AC00BAF4B6F9BDABB3F650
:105D8B00BBBBC3C0BEC6A3ACD3EBB6FBCDACCFFA8B
:095D9B00CDF2B9C5B3EEA3A100DD
:1084C300E4F594F593F592F591F596F595F5B2F5F6
:1084D300B1F5B4F5B3F5CAF5C9F5CCF5CBF5E2F5CD
:0284E300E12294
:10753500E4900525F0A3F0A3F0126636EF60030290
:1075450075F190027004F0A3743FF07BEF7A00E4CC
:10755500FDFCFFFE127D4990038E7401F0A37405B6
:10756500F0A37421F07B017A00792A7D007C021258
:107575002FA8E4900523F0A3F0900523E0FEA3E0F7
:10758500FFC3EE940150D0EF25E0FDEE33FC742BE4
:107595002DF58274003CF583E0FE742A2DF5827486
:1075A500003CF583E07C002400FFEC3EFE1282984F
:1075B500900527E004F0E0B4F022900526E004F001
:1075C5007006900525E004F0E4900527F090052568
:1075D500E0B40108A3E0B440037F0022900524E055
:0E75E50004F07095900523E004F0808D7F0186
:0175F3002275
:103F9100E4900406F0A3F0900412F0900416F012DD
:103FA1006636EF600302423E7B0190038E04F0A36C
:103FB1007404F0A37404F07A00792A7D367C00122F
:103FC1002FA8900404E07004A3E0643660037F012D
:103FD1002290003CE0900414F0FD900041E0FE903E
:103FE1000040E07A002400FFEA3E90040AF0A3EFCB
:103FF100F0900046E0131313541F900417F0EDC323
:1040010094EF5013900414E0FFC374F09FFFE49405
:1040110000C313EF138001E4900413F090040AE04D
:10402100FEA3E0FFC3943FEE94015018C374409F78
:10403100FF74019EC313FEEF13FF900408EEF0A37B
:10404100EFF08007E4900408F0A3F0900413E090EF
:104051000415F0900408E0FFA3E090040CCFF0A356
:10406100EFF07F04127E0A900415E0F9FF7E00C094
:1040710006C00790040CE0FCA3E0FD900414E0FFEF
:10408100E92FFFE433CF24FFFBEF34FFFA90040A5A
:10409100E0FEA3E0FFA3E0F8A3E02FFFE83ECF247A
:1040A100FFCF34FF900270F0A3EFF0D007D00612DB
:1040B1007D49D2E990038E7401F0A37404F0A374D6
:1040C10004F07B017A00792A7D007C02122FA8E49A
:1040D10090040EF0A3F090040EE0FEA3E0FFC3EE07
:1040E100940250D0900417E0F964027044900416D1
:1040F100E01460280460030241AD742A2FF5827434
:10410100003EF583E0FD541FFF900410E4F0A3EF9F
:10411100F0ED54E025E0FFE433FE806B90040EE007
:10412100FEA3E0242AF58274003EF583E025E080B9
:104131006DE964037076900416E014602814604BF6
:104141002402706890040EE0FEA3E0242AF5827434
:10415100003EF583E0131313541FFF900410E4F0A5
:10416100A3EFF0804790040EE0FEA3E0242AF5823D
:1041710074003EF583E075F008A4FFE5F05407FEF6
:10418100EF54E0FF900411E02F801A90040EE0FE3E
:10419100A3E0242AF58274003EF583E054F8FE90F2
:1041A1000411E02400F0900410E03EF0900416E0C9
:1041B10004F0A3E0FF900416E06F7070900410E02B
:1041C100FEA3E0FF128298E4900410F0A3F09004A3
:1041D10016F0900415E004F0900413E0FFFDA3E055
:1041E1002DFDE433FCA3E07A00B50540EAB5043CBB
:1041F10090040DE024FFF090040CE034FFF09004F3
:1042010015EFF090040AE0FEA3E0FFC3900409E07B
:104211009FFF900408E09EFE90040CE0B5060DA3FC
:10422100E0B507087F01127E0A7F002290040FE0AB
:0F42310004F0700690040EE004F00240D77F0105
:01424000225B
:105029007581801284C31263891286EF7F01127819
:105039001C74FFFFFE127B041260B17B017A0079B8
:10504900001226A7127DAA74FF900230F0A3F0A3E4
:10505900F0A3745BF0A374FBF0A37410F0E4A3F065
:105069007B1FFAFDFC7FC8FE12424174FF9002309B
:10507900F0A3F0A3F0A3745CF0A37402F0A374107E
:10508900F0E4A3F07B1FFA7D14FCFFFE1242417489
:10509900FF900230F0A3F0A3F0A3745CF0A3742A8C
:1050A900F0A37410F0E4A3F07B1FFA7D28FCFFFE47
:1050B90012424174FF900230F0A3F0A3F0A3745C94
:1050C900F0A37452F0A37410F0E4A3F07B1FFA7DEF
:1050D9003CFCFFFE12424174FF900230F0A3F0A3A2
:1050E900F0A3745CF0A37473F0A37410F0E4A3F05C
:1050F9007B1FFA7D50FCFFFE12424174FF90023083
:10510900F0A3F0A3F0A3745CF0A37494F0A374105B
:10511900F0E4A3F07B1FFA7D64FCFFFE12424174A8
:10512900FF900230F0A3F0A3F0A3745CF0A374B471
:10513900F0A37410F0E4A3F07B1FFA7D78FCFFFE66
:1051490012424174FF900230F0A3F0A3F0A3745C03
:10515900F0A374D5F0A37410F0E4A3F07B1FFA7DDB
:105169008CFCFFFE12424174FF900230F0A3F0A3C1
:10517900F0A3745CF0A374EFF0A37410F0E4A3F04F
:105189007B1FFA7DA0FCFFFE12424174FF900230A2
:10519900F0A3F0A3F0A3745DF0A37410F0A374104E
:1051A900F0E4A3F07B1FFA7DB4FCFFFE12424174C8
:1051B900FF900230F0A3F0A3F0A3745DF0A3743163
:1051C900F0A37410F0E4A3F07B1FFA7DC8FCFFFE86
:1051D90012424174FF900230F0A3F0A3F0A3745D72
:1051E900F0A37452F0A37410F0E4A3F07B1FFA7DCE
:1051F900DCFCFFFE12424174FF900230F0A3F0A3E1
:10520900F0A3745DF0A37472F0A37410F0E4A3F03A
:105219007B1FFA7DF0FCFFFE12424174FF900230C1
:10522900F0A3F0A3F0A3745DF0A37483F0A374104A
:10523900F0E4A3F07B1FFA7D047C01FFFE124241DA
:0252490080FEE5
:10856300E4FDFCC3ED9FEC9E500EE4FB0BEBB40368
:08857300FB0DBD00010C80EBC3
:01857B0022DD
:10857C00E4FDFCC3ED9FEC9E500EE4FB0BEBB4054D
:08858C00FB0DBD00010C80EBAA
:0185940022C4
:0881FB00900548EEF0A3EFF03F
:10820300E4A3F0A3F0900548E0FEA3E0FFC39005CC
:108213004BE09F90054AE09E50157FFA7E00128541
:0F8223007CA3E004F070DE90054AE004F080D602
:018232002229
:0882330090022AEEF0A3EFF027
:10823B00E4A3F0A3F090022AE0FEA3E0FFC39002B8
:10824B002DE09F90022CE09E50157FFA7E00128548
:0F825B007CA3E004F070DE90022CE004F080D6EB
:01826A0022F1
:10859500E4FDFCC3ED9FEC9E500EE4FB0BEBB40138
:0885A500FB0DBD00010C80EB91
:0185AD0022AB
:04875A00000000001B
:0A82A3004204540000420456FFFF9D
:0F86C300C2E8C2C28FA0AF058F80D2C2D2E82218
:1085C700C2E8C2C47F017E00128595AFA0EFFEAD61
:0785D70080EDFFD2C4D2E8E1
:0185DE00227A
:0486D2007F367E0071
:0B86D600AD07AC06C2E9ECFF0286C352
:10826B001282987F2A1286D6E4FF128298E4FF12BC
:10827B0082987F011282987F3F1282987F2B128601
:0D828B00D6E4FF128298E4FF1282987F0172
:0B829800AD07AC06D2E9ECFF0286C384
:05875000D2E90285C71B
:0B871500AD07AC06D2E9ECFF0286C302
:10850700AA07ED54FC75F008A4FDEA54F845F0FEFF
:0F851700EDFFEB54F8131313541FFDEF4DFF222C
:107B8500D2E9C2E8C2C47F017E00128595AFA090FC
:107B95000563E4F0A3EFF0E0FFAD80ED900563CF62
:107BA500F0A3EFF0D2C4C2C47F017E00128595AF69
:107BB500A0900563E4F0A3EFF0E0FFAD80ED900544
:107BC50063CFF0A3EFF0D2C4C2C47F017E0012855B
:107BD50095AFA0AD07EDAD80FCD2C4ECFB7A007C7F
:107BE50000900564E0FD900563E0FF7E00EEF0A3E4
:077BF500EFF0D2E802850762
:0E86E100AB05AA041286D6AE02AF0302829841
:1080C00090052AEBF0A3EAF0A3E9F01286D675A09A
:1080D000FF7580FF90052D74FFF5F0121BAC45F085
:1080E000601912875090052AE0FBA3E475F0011295
:1080F0001BACA9F0FAEF121B5080D975A0FF758058
:02810000FF225C
:0B87200090045FE0FEA3E0FF0286D69D
:0B872B00900461E0FEA3E0FF0286D690
:087B040090022AEEF0A3EFF05D
:107B0C00900459E024FFFB900458E034FFFA9004F1
:107B1C005BE024FFFE90045AE034FF900270F0A367
:107B2C00CEF0E4FDFCFFFE127D49E490022CF0A3A4
:107B3C00F0900458E0FEA3E0FFC390022DE09F906C
:107B4C00022CE09E5032E4FBFAD390045BE09B9055
:107B5C00045AE09A401290022AE0FEA3E0FF12873A
:107B6C00150BBB00010A80E190022DE004F070C1FE
:087B7C0090022CE004F080B936
:017B840022DE
:1083DB00AB07AA068D828C83C006C007AE83AF8223
:1083EB00900270EEF0A3EFF0D007D006127D49900B
:0A83FB000454E0FEA3E0FF02871522
:087FF500900565EEF0A3EFF02A
:107FFD00D3900459E09F900458E09E400DD3900417
:10800D005BE09D90045AE09C5004E4FEFF22900535
:10801D0065E0FEA3E0FF12852612872B75A0FF7584
:0B802D0080FF127B8575A0FF7580FFAF
:018038002225
:1085AE007F327E00128233C2EA7F327E0012823325
:0985BE00D2EA7F327E0002823312
:106389001285AE7FF77E001286D67FA91282987F8A
:10639900511282987F2C1282987F821282987FC034
:1063A9001286D67F111282987F091282987FC112B4
:1063B90086D67F411282987FC51286D6E4FF128263
:1063C900987F0A1282987F801282987FB11286D6AE
:1063D9007FB01282987F111282987FB41286D67F7D
:1063E900021282987FB61286D67F021282987F2285
:1063F9001282987FB71286D67FC61282987FBE1204
:1064090086D6E4FF1282987F041282987FE9128669
:10641900D6E4FF1282987F361286D67F08128298B8
:106429007F3A1286D67F551282987FE01286D6E48B
:10643900FF1282987F071282987F101282987F0933
:106449001282987F171282987F0B1282987F4112CD
:1064590082987F891282987F4B1282987F0A1282D2
:10646900987F0C1282987F0E1282987F1812829858
:106479007F1B1282987F0F1282987FE11286D6E4E1
:10648900FF1282987F171282987F1A1282987F04CE
:106499001282987F0E1282987F061282987F2F129D
:1064A90082987F451282987F431282987F021282D6
:1064B900987F0A1282987F091282987F32128298F5
:1064C9007F361282987F0F1282987F111286D67FAB
:1064D900781282337F297E001286D67F0102781CCA
:107D490090026AEEF0A3EFF0A3ECF0A3EDF090043B
:107D590063E0FEA3E0FF1286D690026AE0FF7E0090
:107D6900128298A3E0FF128298EAFF128298AF0369
:107D79007E00128298900465E0FEA3E0FF1286D689
:107D890090026CE0FF7E00128298A3E0FF128298B5
:107D9900900270E0FF128298A3E0FF128298028796
:017DA90020B9
:10852600AB07AA068D828C83C006C007AE83AF82D6
:0F853600900270EEF0A3EFF0D007D006027D495F
:10781C00900463E4F0A3742AF0A3E4F0A3742BF0B7
:10782C0090045FE4F0A3742CF0A3E4F0A3742EF0A6
:10783C00EF14602414603B14605324037072E490C2
:10784C00045EF090045804F0A37440F0A37401F0AB
:10785C00A374E0F07D08804F90045E7401F09004F6
:10786C0058F0A374E0F0A37401F0A37440F07D68A9
:10787C00803590045E7402F090045814F0A37440A8
:10788C00F0A37401F0A374E0F07DC8801A90045E3C
:10789C007403F09004587401F0A374E0F0A3740125
:1078AC00F0A37440F07DA87C007F367E001286E148
:0178BC0022A9
:10831300784C7C057D017BFF7A87795A7E007F0448
:10832300121AE47B017A05794C90052DE4F0A374CD
:1083330004F07FD37E001280C090054EE0FEA3E0E0
:03834300FDEDFF4E
:018346002214
:107E0A00EF24FE601714602A1460332403704612AC
:107E1A0086D27F0812826B7FDF027E5C1286D27F57
:107E2A00681282987F2A1282897FDF1282847F3FBA
:107E3A0080201286D27FC812826B7F3F80141286FE
:107E4A00D27FA81282987F2A1282897FDF128284C7
:0C7E5A007F3F1282987F2C7E000286D6AB
:1086710049443A25730D0A0045525200000000009A
:0186810000F8
:1082AD004A04CE815081588160816881704104CD2E
:0182BD0000C0
:0C870900C2B212823343B10453B2FB220F
:1082DB00900571EFF0D2B2D2EB7F147E0012823395
:1082EB00C2EBC2B27F147E00128233900571E0B4F0
:1082FB002803D38001C392B27F147E00128233D243
:08830B00EB7F147E00028233B7
:10865F00C2EB7F0A7E00128233D2EB7F0A7E0002CA
:02866F00823354
:0687440012875502865F5A
:08849F00900567EEF0A3EFF079
:1084A70012864B7FBA128182900567E0FF128182A4
:0B84B700900567A3E0FF1281827F01A7
:0184C2002297
:0B840500900554EEF0A3EFF0A3EDF0A3
:1084100012864B900554E0FEA3E0FF12849F900566
:0B84200056E0FF1281821285F67F01FA
:01842B00222E
:087A7C007B017D017F4E7E813C
:107A8400900509EEF0A3EFF0A3EDF0A3EBF0A3EA69
:047A9400F0A3E9F082
:107A9800E4A3F012864B900509E0FEA3E0FF1284F0
:107AA8009F12864B7F147E001285957FBB128182C0
:107AB800E4900510F090050BE0FF900510E0FEC380
:107AC8009F502EEF14B50604E4FF80027F01127E5A
:107AD800BD90050CE0FBA3E0FAA3E0F9900510E0E7
:107AE800F582758300EF121B62900510E004F080A8
:0B7AF800C41285F690050F7401F0FF2A
:017B0300225F
:10739C0078187C047D017BFF7A86797D7E007F04E2
:1073AC00121AE41287447FBA1282DB7F327E0012FB
:1073BC0087097B017A0479187D047F407E81127ADB
:1073CC0084900418E06439900344704B74FFF0A36C
:1073DC007486F0A37471F0A37401F0A37404F0A389
:1073EC007418F07B017A04791C12338F900459E0E5
:1073FC0024C8FF900458E034FFFE9005057401F09A
:10740C00A37404F0A3741CF0A37401F07B10E4FDCE
:10741C00FC1275F47F012274FFF0A37486F0A37440
:10742C0071F0A37401F0A37404F0A37418F07B0141
:10743C007A04791C12338F900459E024C8FF90040D
:10744C0058E034FFFE90050574FFF0A37486F0A39A
:10745C007479F0A37401F07B10E4FDFC1275F47FD9
:01746C00001F
:01746D0022FC
:1084E50078727C057D017BFF7A8679817E007F012C
:1084F500121AE47A057972127A7C900572E0540FAB
:01850500FF76
:018506002252
:1039DE00E49004FBF0A3F09004FFF09004CDE0041B
:1039EE00F0E0FF75F00A84E5F06009EFC3940A4039
:1039FE0003023C9F7A0479FF127A7C9004FFE03038
:103A0E00E714540FC39406500DE49004FDF0FD7FAF
:103A1E004E7E811284059004FFE0540FFF70030266
:103A2E003C9FC394064003023C9FA80774FF088086
:103A3E0002C333D8FCFF9004FDF0900403E0900421
:103A4E00FEF0EFF444C0900403F09003EFE0FFA308
:103A5E00E09003F7CFF0A3EFF0A3E0FFA3E0900414
:103A6E0001CFF0A3EFF0E49004FBF09004FBE0FF35
:103A7E00C394054003023C127E007401A80708801F
:103A8E0005C333CE33CED8F9FF900403E0FDEF5DCE
:103A9E007003023C099004FBE025E024CEF582E49D
:103AAE003404F583E0FEA3E0FF7B017A0479F77D11
:103ABE0004127A8490045EE0FD70379004F8E0FE04
:103ACE009004F7E07A002400FFEA3EFE9004FBE04B
:103ADE00FC25E024EFF582E43403F583EEF0A3EF4A
:103AEE00F09004FAE0FE9004F9E02400FFEA3E02B2
:103AFE003BA2ED640170469004F8E0FE9004F7E0FE
:103B0E007C002400FFEC3EFEC390045BE09FFF9020
:103B1E00045AE09EFE9004FBE0FD25E024F9F582B8
:103B2E00E43403F583EEF0A3EFF09004FAE0FE9098
:103B3E0004F9E07A002400FFEA3E023BF790045EAF
:103B4E00E0FD6402705B9004F8E0FE9004F7E07A0A
:103B5E00002400FFEA3EFEC3900459E09FFF90044C
:103B6E0058E09EFE9004FBE0FC25E024EFF582E495
:103B7E003403F583EEF0A3EFF09004FAE0FE900428
:103B8E00F9E02400FFEA3EFEC390045BE09FFF9045
:103B9E00045AE09EFEEC25E024F9F582E43403801D
:103BAE0053ED640370559004F8E0FE9004F7E07C4A
:103BBE00002400FFEC3EFE9004FBE0FD25E024F91E
:103BCE00F582E43403F583EEF0A3EFF09004FAE00F
:103BDE00FE9004F9E07A002400FFEA3EFEC3900452
:103BEE0059E09FFF900458E09EFEED25E024EFF58E
:103BFE0082E43403F583EEF0A3EFF09004FBE004CF
:103C0E00F0023A799004FC7401F0900458E0FEA39F
:103C1E00E0FFD39003F0E09F9003EFE09E501490EE
:103C2E00045AE0FEA3E0FF9003FAE09F9003F9E050
:103C3E009E40599004FFE0540FD39401402090030E
:103C4E00F1E0FFA3E09003EFCFF0A3EFF09003FBC2
:103C5E00E0FFA3E09003F9CFF0A3EFF0802E9003E6
:103C6E00F7E0FFA3E09003EFCFF0A3EFF090040195
:103C7E00E0FFA3E09003F9CFF0A3EFF09004FF7400
:103C8E0080F09004FEE0900403F08005E49004CDF3
:103C9E00F09004FFE0548FFFBF8021900403E030CA
:103CAE00E705547FF0801574FF9003EFF0A3F090BA
:103CBE0003F9F0A3F0900403E054E0F09004CDE09B
:0D3CCE00D394F04003740AF09004FCE0FF72
:013CDB0022C6
:078736007F017E0002859522
:04863700C2EDE4FFAD
:10863B00EFB4010543CB10800353CBEF53CCEF22A8
:05875500D2EDD2EC2280
:10864B00E4FF12863BD2ECD2ED128736C2EC1287D6
:04865B0036C2ED2214
:1085F600E4FF12863BC2EDC2EC128736D2ED12873B
:0686060036D2EC028736BB
:10837A00E4900573F07F0112863BD2EC128736D265
:10838A00ED12873630EC16900573E004F0E0D394D2
:10839A00FA40F11285F6E4FF12863B0F2212863765
:0183AA0022B0
:10869300128637C2EC128736D2ED128736C2ED222C
:1086A300128637D2EC128736D2ED128736C2ED220C
:05818200900569EFF01B
:10818700E4FF12863BC2EDE4A3F0900569E0FF54DB
:1081970080FEC4131313540124FF92ECEF25E0F083
:1081A700D2ED128736C2ED12873690056AE004F0E9
:0981B700E0C3940840D402837A6D
:057EBD00900557EFF0F5
:107EC200E4900559F07F0112863BE4900558F0C218
:107ED200ED7F017E0012857CD2ED900559E0FF25F1
:107EE200E0F030EC03E004F0900558E004F0E0C369
:107EF200940840DB900557E070051286A3800312B8
:0C7F02008693E4FF12863B900559E0FFD7
:017F0E002250
:1082BE005503EF0000000000000000000000000069
:0882CE000000000000000000A8
:06874A0012739C7F002267
:03875E000239DEFF
:10868200EFB40107759140E4F59222E4F591F59279
:0186920022C5
:1085DF00D296D2957F027E0012857CC2967F027E54
:0785EF000012857CC29522F9
:10860C00C295C2967F027E0012857CD295D2967F4F
:06861C00027E0002857CD5
:1081C000E4900574F07F01128682D2967E001285BB
:1081D0007CD2957F017E0012857C309616900574C6
:1081E000E004F0E0D394FA40F112860CE4FF12862A
:0A81F000820F22C295E4FF1286827E
:0181FA002262
:057F610090056BEFF03C
:107F6600E4A3F090056CE0FFC39408503890056BCD
:107F7600E0FEA807088002C333D8FC30E704D29697
:107F86008002C2967F017E0012857CD2957F017E9B
:107F96000012857CC2957F017E0012857C90056C5F
:057FA600E004F080BEC4
:017FAB0022B3
:10807D00E490056DF07F01128682E4A3F0C2957F36
:10808D00017E0012857CD29590056DE025E0F030E3
:10809D009603E004F07F017E0012857C90056EE072
:1080AD0004F0E0C3940840D5E4FF12868290056D7C
:0280BD00E0FFE2
:0180BF00229E
:10854500C295300904C2968002D2967F027E00123F
:0E855500857CD2957F027E0012857CC2952225
:0482D60041057500E9
:107F0F009002B0121EF4000000007FFF1286FCBF2B
:107F1F00FF037F00229002B0E0FCA3E0FDA3E0FE90
:107F2F00A3E02401FFE43EFEE43DFDE43CFC9002AF
:107F3F00B0121EE874FFFFFEFD7C009002B0E0F867
:107F4F00A3E0F9A3E0FAA3E0FBC3121DD340BB7F6C
:017F5F000120
:017F600022FE
:07873D00D2C67FFF0286FC9B
:1086B300C2C6127F0FEF7002FF2212873D7F012295
:10746E00E0FCA3E0FDA3E0FEA3E0FF9002AA121E43
:09747E00E89002AE7401F07F11E8
:057487009002A9EFF0E6
:10748C00E49002AFF012873D1286B3EF60037FFFEA
:10749C0022D2C67FFF1286FC7FFF1286FC7FFF1272
:1074AC0086FCC2C69002A9E04440FF1286FC900202
:1074BC00AAE0FCA3E0FDA3E0FEA3E0FF7818121DF8
:1074CC00E41286FC9002AAE0FCA3E0FDA3E0FEA37C
:1074DC00E0FF7810121DE41286FC9002AAE0FCA3D7
:1074EC00E0FDA3E0FEA3E0FF7808121DE41286FC89
:1074FC009002AAA3A3A3E0FF1286FC9002AEE0FFC9
:10750C001286FC9002A9E0B40C057FFF1286FC9059
:10751C0002AF741FF07FFF1286FCEF30E70A900277
:08752C00AFE0FE14F0EE70ED7B
:017534002234
:1060B1007F0312842CE4900269F07FFF1286FC902A
:1060C1000269E004F0E0C3940A40EF900263E4F057
:1060D100A37414F09002AA121EF4000000009002B2
:1060E100AE7495F0E4FF127487900262EFF06401E0
:1060F100600CA374FFF5F0121BAC45F070D6E49070
:106101000575F0900262E064016003026209900289
:10611100AA121EF4000001AA9002AE7487F07F0853
:10612100127487EF64016003026209900269F07FD3
:10613100FF1286FC900269E02465F582E43402F5E1
:1061410083EFF0900269E004F0E0C3940440E09032
:106151000267E064016003026209A3E064AA6003CC
:1061610002620990026374FFF0A314F09002AA1274
:106171001EF4000000009002AE7401F07F3712742B
:10618100879002AA121EF4400000009002AE740132
:10619100F07F29127487900262EFF0600CA374FF04
:1061A100F5F0121BAC45F070C3900263E07002A3DE
:1061B100E060509002AA121EF4000000009002AEAE
:1061C1007401F07F3A127487EF7038900269F07FA2
:1061D100FF1286FC900269E02465F582E43402F541
:1061E10083EFF0900269E004F0E0C3940440E09092
:1061F1000265E090057530E6057406F0800A7404C6
:10620100F08005E4900575F012873D7F0312842C20
:10621100900575E060037F0022900262E0FF60015B
:03622100227FAA2F
:016224002257
:1078BD009004E3121EE89004E7EBF0A3EAF0A3E9CD
:0178CD00F0CA
:1078CE0012873D1286B3EF60037FFF22900575E0AD
:1078DE00640660199004E3E0FCA3E0FDA3E0FEA3C0
:1078EE00E0FF7809121DF79004E3121EE89004E3FE
:1078FE0012746E9004ECEFF0704D7FFF1286FCBF99
:10790E00FEF8E49004EAF0A3F07FFF1286FC9004E8
:10791E00E7E0FBA3E0FAA3E0F9A3E0FCA3E0F58225
:10792E008C83EF121B629004EBE004F0700690045F
:10793E00EAE004F0C39004EAE0940240CC7FFF1228
:0F794E0086FC7FFF1286FC12873D9004ECE0FF61
:01795D002207
:0581020090055AEFF0AA
:10810700A3740FF0A374FFF07FFF1286FC90055A4B
:10811700E06F6018A3E07002A3E0601090055CE0D8
:1081270024FFF090055BE034FFF080DC90055BE016
:0B8137007002A3E070037FFF227F00B6
:01814200221A
:107CE000900536EBF0A3EAF0A3E9F0A3ECF0A3EDE6
:107CF000F0C2C67FFE128102EF6005D2C67F01226C
:107D000090053974FFF5F0121BAC45F060207FFF41
:107D10001286FC900536E0FBA3E0FAA3E0F9EF122F
:107D20001B50900537E475F001121B9680D27FFF3F
:107D30001286FC7FFF1286FC90053BE0B40107D25F
:097D4000C67FFF1286FC7F0022C1
:0B81430090055DEBF0A3EAF0A3E9F06B
:10814E009002AA121EF4000000009002AE74FFF01E
:10815E007F09127487EF60012290055DE0FBA3E0BA
:10816E00FAA3E0F990053B7401F07D107C00127CBF
:03817E00E07F009F
:0181810022DB
:106225007B017A0379D9128143EF6006E4FFFEFD15
:10623500FC229003D9E054C06440707A9003E1E0F9
:10624500FFE4FCFDFE7808121DF79003E9121EE835
:106255009003E9E0F8A3E0F9A3E0FAA3E0FB9003DB
:10626500E2E0FFEF2401FFE433FEE433FDE433FC19
:10627500EB2FFFEA3EFEE93DFDE83CFC9003E91209
:106285001EE89003E9E0FCA3E0FDA3E0FEA3E0FF28
:10629500E4FB7A04F9F8121CA99003E9121EE890B0
:1062A50003E9E0FCA3E0FDA3E0FEA3E0FFE4FB7A45
:1062B50002F9F80263719003DFE054037D00FCA34B
:1062C500E02DFDE43CFCFEED7802C333CE33CED8A1
:1062D500F9FDAC069003E1E054C0C4131354032D3B
:1062E500FDE43CFCA3E0540325E0FBA3E05480C49B
:1062F50013131354012BFB0B0B9003EDE4F0A304D4
:10630500F0EB60109003EEE025E0F09003EDE03354
:10631500F01B80EDED2401FFE43CFE9003EDE0FC75
:10632500A3E0FD12204D9003E9121EE89003DEE084
:10633500540F7C00FD9003EDE4F0A304F0ED4C60F8
:10634500149003EEE025E0F09003EDE033F0ED1D51
:1063550070EB1C80E89003E9E0F8A3E0F9A3E0FA0C
:10636500A3E0FBA3E0FEA3E0FFE4FCFD121CA99063
:1063750003E9121EE89003E9E0FCA3E0FDA3E0FEBB
:03638500A3E0FF93
:0163880022F2
:1064E90090026A121EE890026EEBF0A3EAF0A3E9AB
:0164F900F0B2
:1064FA00E4900277F0A3F090026AE0FCA3E0FDA327
:10650A00E0FEA3E0FFEE5401FE900279EEF0A3EF65
:10651A00F0FBAA0690026AA3A3E0FEA3E0C39BFFD6
:10652A00EE9AFEED9400FDEC9400FC90027B121EA4
:10653A00E890027B12746E900277EFF0A3E004F009
:10654A00EF6006E0C3940A40E8900278E0C3940A38
:10655A0040037F04227FFF1286FCBFFEF8E490020C
:10656A0075F0A3F0900279E0FEA3E0FFC3900276F3
:10657A00E09F900275E09E50157FFF1286FC900204
:10658A0076E004F07006900275E004F080D6E4909C
:10659A000275F0A3F0900275E0FEA3E0FFE4FCFDB3
:1065AA00900271E0F8A3E0F9A3E0FAA3E0FBD312AA
:1065BA001DD3402F7FFF1286FC90026EE0FBA3E002
:1065CA00FAA3E0F9900275E0FCA3E0F5828C83EF70
:1065DA00121B62900276E004F07006900275E004E5
:1065EA00F080B2E4900275F0A3F0900279E0FEA385
:1065FA00E0FFC3E49FFF74029EFEC3900276E09F11
:10660A00900275E09E50157FFF1286FC900276E09C
:10661A0004F07006900275E004F080CE7FFF1286C7
:0B662A00FC7FFF1286FC12873D7F0002
:016635002242
:0D86EF0043A208E4F5CF75CDC075CED022B2
:0D86FC008FCFE5CD30E7FB75CDC0AFCF22AD
:10842C00EF14600E1460121460162403701853CEEF
:10843C00FC2253CEFC43CE012253CEFC43CE02226F
:07844C0053CEFC43CE0322D6
:1000030053595354454D2F47424B31322E445A4B8B
:1000130000000000000000000000000000000004D9
:1000230004040404040004000000140A0A0000008D
:100033000000000000000014143F140A3F0A0A00E5
:100043000000041E1505060C14150F040000001211
:10005300150D0A142C2A1200000000040A0A1E15AA
:100063001509360000000202010000000000000034
:1000730000002010080808080808102000000204E7
:1000830008080808080804020000000004150E0E02
:10009300150400000000000404041F04040400000D
:1000A3000000000000000000000002020100000048
:1000B30000001F000000000000000000000000001E
:1000C30000000200000010080808040402020201F4
:1000D3000000000E1111111111110E000000000497
:1000E3000604040404040E000000000E11110804A9
:1000F30002011F000000000E11100C1010110E0061
:10010300000000080C0A0A091E0818000000001F5E
:1001130001010F1010110E000000000E09010F1154
:1001230011110E000000001F090804040404040058
:100133000000000E11110E1111110E000000000E2F
:100143001111111E10120E00000000000004000027
:10015300000004000000000000000400000004048C
:100163000000201008040204081020000000000012
:10017300001F00001F0000000000020408102010F0
:10018300080402000000000E11110804040004001A
:100193000000000E111915151D011E0000000004BA
:1001A300040C0A0A1E1233000000000F12120E1272
:1001B30012120F000000001E1101010101110E00B7
:1001C3000000000F1212121212120F000000001F83
:1001D300120A0E0A02121F000000001F120A0E0A62
:1001E300020207000000001C1201013911120C0069
:1001F3000000003312121E12121233000000001FFF
:100203000404040404041F000000003E0808080856
:100213000808090700000037120A060A0A12370005
:10022300000000070202020202223F000000001B3E
:100233001B1B1B15151515000000003B1216161A83
:100243001A1217000000000E1111111111110E00E6
:100253000000000F12120E02020207000000000E3F
:100263001111111117190E180000000F12120E0AA6
:10027300121237000000001E1101060810110F00B2
:100283000000001F1504040404040E0000000033E2
:100293001212121212120C000000003312120A0A78
:1002A3000C0404000000001515150E0A0A0A0A00C2
:1002B3000000001B0A0A04040A0A1B000000001BBA
:1002C3000A0A040404040E000000001F09080404C1
:1002D30002121F0000001C04040404040404041C90
:1002E30000000202020404080808100000000E08BF
:1002F300080808080808080E0000040A00000000A7
:1003030000000000000000000000000000000000EA
:100313003F00040000000000000000000000000097
:1003230000000C121C123C000000000302020E121B
:1003330012120E000000000000001C1202021C003A
:100343000000001810101C1212123C0000000000E4
:1003530000000C121E021C000000003804041E04DE
:1003630004041E000000000000003C120C021E22C8
:100373001C00000302020E121212370000000004D8
:100383000000060404040E000000000800000C082E
:10039300080808080700000302023A0A0E12370091
:1003A300000000070404040404041F00000000000C
:1003B30000000F15151515000000000000000F12B6
:1003C300121237000000000000000C1212120C0081
:1003D3000000000000000F1212120E0207000000BE
:1003E30000001C1212121C103800000000001B0633
:1003F300020207000000000000001E020C101E0095
:100403000000000004040E040404180000000000AF
:1004130000001B1212123C00000000000000371203
:100423000A0C040000000000000015150E0A0A0063
:100433000000000000001B0A040A1B00000000006B
:10044300000037120A0C04040300000000001E0819
:1004530004041E0000001808080804080808081807
:10046300000808080808080808080808080006041F
:100473000404080404040406000225180000000014
:100483000000000000000000000000000000000069
:100493000000000000000000080808080808080021
:1004A300001818000000486C24120000000000002F
:1004B30000000000000000002424247F1212127F99
:1004C30012121200000000081C2A2A0A0C182828FD
:1004D3002A2A1C080800000022251515152A58543D
:1004E30054542200000000000C1212120A7625292F
:1004F30011916E00000006060403000000000000D6
:100503000000000000004020101008080808080838
:1005130010102040000002040808101010101010E2
:1005230008080402000000000008086B1C1C6B088C
:10053300080000000000000000080808087F080801
:100543000808000000000000000000000000000098
:1005530000060604030000000000000000FE000087
:100563000000000000000000000000000000000088
:1005730000060600000000804040202010100808FC
:100583000404020200000000182442424242424294
:100593004224180000000000080E08080808080894
:1005A30008083E00000000003C42424220201008A0
:1005B30004427E00000000003C42422018204040DC
:1005C30042221C0000000000203028242422227E26
:1005D30020207800000000007E0202021A2640401C
:1005E30042221C0000000000382402021A26424264
:1005F30042241800000000007E2222101008080880
:1006030008080800000000003C424242241824422B
:1006130042423C0000000000182442424264584019
:1006230040241C0000000000000000181800000017
:10063300001818000000000000000000080000007F
:100643000000080804000000402010080402040809
:1006530010204000000000000000007F0000007F29
:1006630000000000000000000204081020402010D9
:1006730008040200000000003C42424640201010E3
:1006830000181800000000001C225A555555552D1E
:1006930042221C00000000000808181414243C2205
:1006A3004242E700000000001F2222221E22424293
:1006B30042221F00000000007C42420101010101AF
:1006C30042221C00000000001F22424242424242DA
:1006D30042221F00000000003F4212121E121202AB
:1006E30042423F00000000003F4212121E1212025B
:1006F30002020700000000003C22220101017121D7
:1007030022221C0000000000E7424242427E424295
:100713004242E700000000003E08080808080808F5
:1007230008083E00000000007C101010101010108C
:10073300101010110F0000007722120A0E0A121275
:1007430022227700000000000702020202020202D6
:1007530002427F000000000077363636362A2A2A06
:100763002A2A6B0000000000E346464A4A525252CE
:1007730062624700000000001C22414141414141A7
:1007830041221C00000000003F424242423E02025E
:1007930002020700000000001C2241414141414D7B
:1007A30053321C60000000003F4242423E121222BC
:1007B3002242C700000000007C424202041820408D
:1007C30042423E00000000007F490808080808086C
:1007D30008081C0000000000E74242424242424235
:1007E30042423C0000000000E74242222424141449
:1007F30018080800000000006B494949495555365F
:100803002222220000000000E742242418181824A2
:100813002442E7000000000077222214140808088D
:1008230008081C00000000007E21201010080404AA
:1008330042423F0000007808080808080808080832
:1008430008080878000000020204040808081010D1
:100853002020204040001E10101010101010101007
:100863001010101E000038440000000000000000BB
:100873000000000000000000000000000000000075
:1008830000000000FF000608000000000000000058
:100893000000000000000000000000003C4278441B
:1008A3004242FC0000000000030202021A264242F8
:1008B30042261A0000000000000000003844020233
:1008C3000244380000000000604040407844424247
:1008D3004264D80000000000000000003C427E0299
:1008E30002423C0000000000F08808087E08080867
:1008F30008083E0000000000000000007C22221CCB
:10090300023C42423C000000030202023A464242D9
:100913004242E700000000000C0C00000E0808082B
:1009230008083E000000000030300000382020207E
:10093300202020221E0000000302020272120A1667
:1009430012227700000000000E08080808080808B3
:1009530008083E0000000000000000007F92929211
:100963009292B70000000000000000003B464242A4
:100973004242E70000000000000000003C42424207
:1009830042423C0000000000000000001B264242DF
:1009930042221E0207000000000000007844424289
:1009A30042447840E000000000000000774C04045B
:1009B30004041F0000000000000000007C42023C11
:1009C30040423E0000000000000008083E080808FE
:1009D30008083000000000000000000063424242AB
:1009E3004262DC000000000000000000E742242413
:1009F300140808000000000000000000EB494955FE
:100A03005522220000000000000000007624181880
:100A130018246E000000000000000000E7422424B8
:100A23001418080807000000000000007E221008C8
:100A330008447E000000C020202020201020202019
:100A4300202020C0001010101010101010101010D3
:100A530010101010100006080808080810080808ED
:100A630008080806000C32C2000000000000000065
:100A73000000000000C9EE000027FC140414A48148
:100A83001042084040104017FC2040E0E021502273
:100A9300482C4620400040DBDA11041124112411B4
:100AA300241124FD24112411241124112411241DA3
:100AB30024E124422402040404CAD00200010000F9
:100AC300007FFC0100010001003FF82108210821FB
:100AD3000821082128211001000100C8AB000000F3
:100AE30000018002400430180860061FF90100016C
:100AF3000001003FF80100010001007FFEB6AF00D6
:100B030000000000203E20007C002200227F2210F3
:100B130022102212221222224223423D82009CB53D
:100B2300E70000010001001FF0610C410441047F54
:100B3300FC4104410441047FFC0100010201020164
:100B4300FCD7D3000000003FF800100060008001D4
:100B53000000807FFE00400040002000200020189D
:100B6300400780BCBC00000000104013FE10407C16
:100B730040104013FC1104190830885050106010C5
:100B8300D013087C06CAF5000001000130010801FA
:100B9300007FFE0180034005400520091011082154
:100BA30004410201000100D3D00000010002007FD4
:100BB300FE040008001FFC700490041FFC100410C6
:100BC300041FFC10041004103CCFDE000000007B67
:100BD300FC4A044A044BFC52044A044BFC4A404A74
:100BE300447A2842304210420843C6B9AB000000A1
:100BF30000044004200810101010082104420202CF
:100C03002004100810080810081FFC0004CBBE00C5
:100C13000000003FFC000400043FF400043FE42014
:100C23002420242024202420241FC40004007CBB6F
:100C3300B60000000000807EFC02A202A222A415DE
:100C43002414240C300C300C4812482284428401B2
:100C530002D3AD00000000239824641444044464C8
:100C630044144414441444144415C4125C1040281E
:100C73004047FEC4FA00000000120013FE242225A0
:100C830022652862242224242020E00508148424D9
:100C930044241A47F2B4BF00000020102013FE20A2
:100CA3002026244A247A241224222423FC7C200094
:100CB3002204227822003CC9AB0000000004000F8C
:100CC300F0102020207FFC20842084208420843F77
:100CD300F82000200220021FFECCEE0000000020BE
:100CE3004023FE204079FC220423FC220423FC221F
:100CF3000423FC3A0465FA01980204B3E4000001FA
:100D03000001007FFE02200410040808043FFC04D5
:100D13004204400440044208421042607EBED800B0
:100D2300000000207E3E804880488048FE48827F45
:100D33008208820C8214FA12842280218040FED021
:100D4300CE000000007F842208223022C02202222B
:100D5300047FC8223022C222022204220822304009
:100D630040BBAD000000007FFE00000FF01110112A
:100D730010111051125FF25112511251124FF240E1
:100D8300027FFCD4B2000000007FFE47E248124815
:100D93001247E24FF2501250125112511242924432
:100DA30072580A3FFCC800000000007FFC000000EE
:100DB30000000000003FF8000000000000000000F9
:100DC30000FFFE00000000BDC7080008001FE02070
:100DD300204040BFF8210821083FF8210821083F9F
:100DE300F82108410841288010CDBC000000003FD5
:100DF300FE440247F24C225362408243625E1A4130
:100E0300824062430240C240223FFCC6AC00000065
:100E1300402040204020403FFE2000200020003F93
:100E2300E0201020102010201040104010CFD400DC
:100E33000000003FFC200420043FFC200420041F8A
:100E4300F824441448144814480C5004407FFECA44
:100E5300BE000000003FFC0000000000007FFE0019
:100E6300800890088810881084208420824082079C
:100E730080B2CB0000002008207FFE002000783FD6
:100E8300881108089009207FFE018003400D30314E
:100E93000C4002B5A500000010081004203FF82103
:100EA3000421043FFC210421043FF801007FFE01DB
:100EB3000001000100D6D000000100010001003F45
:100EC300FC2104210421042104210421043FFC0109
:100ED30000010001000100D3A20000000008207FF0
:100EE300FE0820092001003FF82108210821081FDE
:100EF300F4014002200C10700ECEC400000100016A
:100F03000000803F7C081008100410042002200217
:100F1300400180018002601C18E006D7DB0000005E
:100F230000102011FE2202220249FC580030001357
:100F3300FE2528792401240D24722202A2BACF00AF
:100F4300000000018002400430180860061FF8000A
:100F5300001FF8200420042004200420041FF8C1EB
:100F6300C10000010001007FFE00003FF820083FA0
:100F7300F83FF8400647C2482408200822102260A0
:100F83003EB6C80000000000803FFE44105FFC44F2
:100F930010441043F040005FF84408423041C0431E
:100FA30060BC1EB2E20000000067C2145205520585
:100FB30052C552255205520552155217522282220A
:100FC300424442483ECAD4000000002014101417C3
:100FD300FE00120010601013F01090109010901487
:100FE3009214EA1F0A0006B3CC0000000019FE7237
:100FF30002120212027DFC18001BFE342050205303
:10100300FE10201020102013FED0F200000000007C
:10101300803FFE400047FC4208413040C05FFE4035
:101023004240424044404840404440B5F70000003D
:101033000023FE122202FA0222E22212FE1272128E
:101043008A128A128A16BA1A421202040EB9E200EE
:10105300000100010411080908091009207FFE049A
:1010630040044004400440084208421042607CB0FF
:10107300E60000000048FE4900490049007EFE41A9
:101083008241447944452845284510452846440370
:1010930082C8A800001000100013FC7D041104197D
:1010A300041884348850485050102010501088136E
:1010B300041402CBF9000000003F7C204020403E96
:1010C30040227E2244224422443E842084208440C1
:1010D3008441044204C6C100003FF8200820083FB1
:1010E300F8241022202FF8222022203FFC22204225
:1010F30020442084200820C4BB04407FFC04401FFC
:10110300F010101FF010101FF00400FFFE11103F2D
:10111300F8D116115011200100D00020801080104A
:10112300FE0100FE0021FC20243C2424A024A02452
:10113300BC24A024A04560553E8A00D7AA202020C5
:10114300202020FDFC4020504093FEFC40108011E5
:10115300FC1C04F0885050102010101010BFAA007F
:10116300007FFC08200820082008200820FFFE0834
:10117300200820082008201020102020204020D400
:10118300B4000027FE1420144085FC450445FC15DB
:101193000415FC2524E42024A829242A2230A000B5
:1011A30040D2BA0080204017FE11208120423C42E9
:1011B30044166412942348E248223022202250220B
:1011C300880306BEA70FE0082008200FE0082008C8
:1011D300200FE000007EFC428442847EFC42844275
:1011E300847EFC4284CDF800007FFC40044004422E
:1011F3001452944A54442444244A544A5452946101
:1012030004400440144008D5BE1020082008207E66
:1012130020003E04204420442025FC290429040FF7
:1012230004F104410401FC0104B0B4104010201087
:101233002013FEFA02144410401BFE3088D088119C
:101243000810D01020105050882304BCFC2010201C
:10125300103B7C211441FE7A14A27C2710F97C25D3
:101263001025FE22102A10350028FE0000D0A310FE
:10127300401020102011FEFC00108831043A025463
:10128300885088905010501020105010881306D7A3
:10129300BC01404120212023FE022016201BFC120A
:1012A30020222023FCE2202220222023FE220002EF
:1012B30000B4A520202020782049FC91247D2455CA
:1012C3002455247DFC552454207C28542457FE4562
:1012D300028C00C3FE1110111017FC1110FC001337
:1012E300F8120817F81A0833F8D04017FC10A011A9
:1012F3001052082406B6C10020202011FC10200043
:101303002003FEF002109410501110109013FE14DD
:1013130028184410820302BACD04000E0078000896
:101323007C0844FF44084418441C442A442A444883
:1013330044887C084408000800D1D5100008FE7FCB
:10134300102220147C7F444454485452544454483B
:101353005451544228442488423082D6B508400868
:10136300400FFC1040104033F8320853F892081332
:10137300F8120813F8120812081FFE1000C8DD0245
:101383000001007FFE4002882411102288044008D7
:10139300203018DFF61010101010101FF01010D6A8
:1013A300A70100010001007FFC0100010001003FD3
:1013B300F01010082004400280010006C01830E03D
:1013C3000EB3D610201020102011FCFC2010201387
:1013D300FE1008180833FED0081088104810085073
:1013E300282010B5E302000200020003FC02000201
:1013F300003FF02010201020103FF000002488222E
:101403004442448004D1A722081108111000207F10
:10141300FE400280041FE000400180FFFE01000146
:1014230000010005000200F3BB0FE010201FC00005
:1014330040FFFE0C1073200DC072B00C8EF3207CA5
:10144300F854A87CF81224FEFCBFC608101D10F047
:101453009010901010FD10109038903410501E53BF
:10146300F090101010101010101010C9EE000000B2
:101473000000001000000800080C7FFC044010016D
:10148300C8A002186042301832231812C300140394
:101493000004030C047FF0080F80080B40781360EE
:1014A30018332018631818831C1903081803000045
:1014B3000300000000DBDA00000000000004100C51
:1014C30004180C04108C04108C04108C04108C046D
:1014D300D08C3F108C04108C04108C04108C0410DE
:1014E3008C04108C04108C05F08C0E208C78208CCE
:1014F30020408C00808C01000C02000C000000CA0C
:10150300D0000000000000003000001800001808A0
:1015130000001C1FFFE000180000182007FFF00464
:101523001820041820041820041820041820041874
:10153300200418200418200418200418E00418407C
:10154300001800001800000000D6D00000000000C2
:101553000000000000000000180000180000180040
:101563000018003FFFFE301806301806301806300A
:1015730018063018063FFFFE301806001800001842
:101583000000180000180000180000000000000010
:10159300000000CEC400000000000000000000387E
:1015A30000001C00000600FFFFFF060030060030AD
:1015B3000300600300600180C000C18000E30000FD
:1015C3003600001C0000770003C1E01E003C6000F1
:1015D30007000000000000000000000000B2E2006D
:1015E300000000000000000000000040000321FF95
:1015F30033398333118333019B33C19B33719B3362
:10160300199B33019B33019B33119B3319B3333044
:101613003033306C0330C6036383032E01BE0000F6
:1016230000000000000000CAD40000000000000019
:1016330000000000004000D83000CE1800C21C009B
:10164300C001FFFF0000C0F800C01800C019FFC0B0
:101653001818401818601918601B18611E18311CDF
:101663001FB139F01910000F000000000000000046
:1016730000D1A70000000060E00630F00738E00367
:10168300BDC0039D801B9B8C1FFFFE38001E3800CE
:10169300D87FFFF02203E0000780001E00001C1C1F
:1016A3007FFFFE201C00001C00001C00001C00012A
:1016B300FC0000F800003800000000F3BB0000004D
:1016C30001C18001FFC003818003FF8003038C7F7E
:1016D300FFFE20F0E007FBE03EFF0007FFC03CFFFA
:1016E300FE07CE7E3F7FCC03BDC83FFFFC3B7DDCC6
:1016F3003B7DDC3FFFFC3BEDF80371DC7FFFFE3CF1
:101703003F0E000000D7D6000000000006000000D6
:101713000300000000C0000001C0C0000107C000BA
:1017230001FF00021FFE0007F01C0007C070000F3E
:1017330000E0000E03F0001C0FF0003C0F70003CB3
:1017430000E0001800C0000000C0000000C000005E
:1017530000600000002000000037000001FF0000CF
:101763007FF80007F830001F803000008030000051
:10177300C03000006060000018E000000FC00000EF
:1017830006000000000000CCE5000000000000009F
:1017930000000000C0000000E0002001B800703F1E
:1017A300F80061FFC000C3030001C60600038C06F6
:1017B3000003080C0006080C000E18183F1E101B2F
:1017C300F31F903F0700803C1C0190707C019060E8
:1017D300FE01A0C3F801A00FD803A00818036000FE
:1017E300180340001803C00018038000180300000A
:1017F3001800000018000000100000003000000076
:10180300300000000000000000B2E2000000000011
:101813000000000000000000000000020C10080798
:101823001FF80403BFF00201BC300303EC300301D3
:101833005C600300D8600300D86003809862036192
:10184300B8430771B14306313243063376C3063AD0
:1018530064C7063EECC0063E78C0063C3040067CBA
:1018630070000678E060067BFFF006F7C00006E430
:1018730000000640000006000000060000007C0097
:10188300008FF000007C0000000000CAD4000000BC
:1018930000000000000000000000003F0000007F87
:1018A3008000000180000000C0000000C0000000B4
:1018B300CE038000CFFFC000DD41800FFE0007FF95
:1018C300FC000C00F000180FC03E19FF40F311BCE0
:1018D3006083307FE003B1FE200333802003700078
:1018E30030036000100360001807C0000C07C0003D
:1018F3000407800002010000030000000100000053
:1019030000000000000000000000000000D1A7005C
:10191300000000000000000003840000038FC000EB
:101923000383E0003FC1C0003FFFC00077EF8000AA
:10193300EFDF0001FD9F0003FBFF0000EFFF00004E
:10194300FFFFF000FF3FFC0061FC3C0077E07E00FE
:101953007F3EF80DFC7EC01FE3F8001D9FF00038AA
:101963001FE0007819F00070007F000007FF0000FF
:101973000FF0000004700000007000000070000011
:1019830000E0000001E0000007C000001FC000F3FA
:10199300BB00000000000600000007E0000007F0A5
:1019A30000000EF000001DE000001FC000003F9F7C
:1019B300C0007FFFC0007FE000001F3C0000FE1E50
:1019C300000FFFBC000F3FFF8000FFFF8000FFF010
:1019D30000003E7000007EF000003FFFE0007FFF4C
:1019E300E0007FBDC007F77F8003FFFF8003FFDFB9
:1019F3008001FDFF0001FFF9C001FFF8E0007F3F18
:101A0300F001E33E380F83F8380E07E03800038017
:011A130000D2
:107DAA007BFF7A007903126636EF705190000EE07D
:107DBA00F8A3E0F9A3E0FAA3E0FB90001EE0FCA31D
:107DCA00E0FDA3E0FEA3E0C39BFBEE9AFAED99F96E
:107DDA00EC98F8900002E0FFE4FCFDFE121CA9906A
:107DEA000012E0F8A3E0F9A3E0FAA3E02FFFEA3ECD
:0F7DFA00FEE93DFDE83CFC900550121EE87F01BC
:017E09002256
:0E3CDC0090023AEEF0A3EFF0A3ECF0A3EDF0AF
:103CEA00121B0AFF900246F0900001121B23900259
:103CFA0047F0EFC394814011E0FF9440400BEFF48A
:103D0A006007900246E0B4FF037F0122900247E079
:103D1A00C3947F5006E024C0F08007900247E02455
:103D2A00BFF0900246E0247FF0E0FF7E007C007D39
:103D3A00BE12204DA804A905AA06AB07A3E0FFE41A
:103D4A00FCFDFEEB2FFFEE3AFEED39FDEC38FCE40C
:103D5A007B20FAF9F8121CA9C004C005C006C007E6
:103D6A00900550E0FCA3E0FDA3E0FEA3E0FF780984
:103D7A00121DF7D003D002D001D000EB2FFFEA3E8C
:103D8A00FEE93DFDE83CFCC004C005C006C0077B57
:103D9A00017A02794A900271121EF400000020D0C2
:103DAA0007D006D005D0041264E9900243E07004FB
:103DBA00A3E064017003023E93900245E0703690DE
:103DCA00023AE0FAA3E0FBFFAE02C006C007A3E096
:103DDA00FCA3E0FDEB240FFBE43AFA90023CE0FE80
:103DEA00A3E0240FFFE43E900270F0A3EFF0D007A7
:103DFA00D006127D49900245E0B4013690023AE0BD
:103E0A00FAA3E0FBFFAE02C006C007A3E0FCA3E0F2
:103E1A00FDEB240FFBE43AFA90023CE0FEA3E02417
:103E2A000FFFE43E900270F0A3EFF0D007D0061225
:103E3A007D49E4900248F0E4900249F0900248E09B
:103E4A00244AF582E43402F583E030E70590024122
:103E5A008003900243E0FEA3E0FF1282989002489A
:103E6A00E0244AF582E43402F583E025E0F090028A
:103E7A0049E004F0E0C3940840C2900248E004F02C
:103E8A00E0C3942040B1023F8E90023AA3E0900230
:103E9A0046F0E4900248F0E4900249F090023AE0D9
:103EAA00FAA3E0FBFFAE02C007A3E0FCA3E0FD908B
:103EBA00023CE0FFA3E0900270CFF0A3EFF0D0073E
:103ECA00127D49900248E0244AF582E43402F583DF
:103EDA00E030E747900241E0FEA3E0FF12829890AB
:103EEA00023BE004F0700690023AE004F0900246C9
:103EFA00E0FF7E00C390023BE09FFD90023AE09E05
:103F0A00FCED64104C704EF0A3EFF090023DE0041B
:103F1A00F0704290023CE004F0803A90023BE004E8
:103F2A00F0700690023AE004F0900246E0FF7E004C
:103F3A00C390023BE09FFD90023AE09EFCED6410C4
:103F4A004C7012F0A3EFF090023DE004F07006907E
:103F5A00023CE004F0900248E0244AF582E434028C
:103F6A00F583E025E0F0900249E004F0E0C394080C
:103F7A005003023EA6900248E004F0E0C3942050A9
:063F8A0003023EA17F00CE
:013F9000220E
:108347009004F1FEE0FCA3E0FD9004F0E02DFD9029
:0D83570004EFE03CFC9004F5E0FAA3E0FB2D
:1083640090056FEAF0A3EBF012852690056FE0FE0E
:06837400A3E0FF028715E3
:1068B900900329E0FCA3E0FD900327E0FAA3E0FBA5
:1068C900A3E0FFA3E090046DCFF0A3EFF090045490
:1068D900E0FFA3E090046FCFF0A3EFF0900325E071
:0468E900FEA3E0FF2B
:0E68ED00900467EEF0A3EFF0A3ECF0A3EDF043
:1068FB00900467E0FEA3E0FFC3EB9FFFEA9ECF246B
:10690B0001CF3400900475F0A3EFF0900469E0FE22
:10691B00A3E0FFC390046EE09FFF90046DE09ECF59
:10692B002401CF3400900477F0A3EFF0900469E0DA
:10693B00FCA3E0FD90046DE0FFA3E0900270CFF0AC
:10694B00A3EFF0900467E0FEA3E0FF127D49E49013
:10695B000471F0A3F0900477E0FEA3E0FFC3900472
:10696B0072E09F900471E09E5047E4900473F0A393
:10697B00F0900475E0FEA3E0FFC3900474E09F90D9
:10698B000473E09E501B90046FE0FEA3E0FF1287A0
:10699B0015900474E004F070D8900473E004F08058
:1069AB00D0900472E004F070AC900471E004F080BD
:1069BB00A4900459E024FFFB900458E034FFFA90B4
:1069CB00045BE024FFFE90045AE034FF900270F069
:0B69DB00A3CEF0E4FDFCFFFE027D49AE
:0E5863009003A6EEF0A3EFF0A3ECF0A3EDF09F
:10587100E49003B0F0A3F0A3F0A3F09003A6E0FE40
:10588100A3E0FFC3EB9FFFEA9E9003B4F0A3EFF008
:105891009003A8E0FAA3E0FBC39003ADE09BFE9068
:1058A10003ACE09A9003B6F0A3CEF09003A6E0FF1C
:1058B100A3E09003BECFF0A3EFF0A3EAF0A3EBF0D7
:1058C1009003B4E0FEA3E0FFD39400EE64809480E3
:1058D100400A9003BAE4F0A304F08021EF4E70086F
:1058E1009003BAF0A3F0801574FF9003BAF0A3F00F
:1058F100C3E49FFFE49E9003B4F0A3EFF09003B6DE
:10590100E0FEA3E0FFD39400EE64809480400A900F
:1059110003BCE4F0A304F08021EF4E70089003BCB7
:10592100F0A3F0801574FF9003BCF0A3F0C3E49FD3
:10593100FFE49E9003B6F0A3EFF09003B6E0FEA360
:10594100E0FF9003B4E0FCA3E0FDD39FEE6480F898
:10595100EC6480989003B84007ECF0A3EDF080056B
:10596100EEF0A3EFF0E49003AEF0A3F09003B9E002
:105971002401FF9003B8E03400FED39003AFE09F11
:105981009003AEE09E4003025A4D9003BEE0FEA399
:10599100E0FFA3E0FCA3E0FD1283DB9003B4E0FE93
:1059A100A3E0FF9003B1E02FF09003B0E03EF09050
:1059B10003B6E0FEA3E0FF9003B3E02FF09003B243
:1059C100E03EF09003B8E0FEA3E0FF9003B0E0FCFE
:1059D100A3E0FDD39FEE6480F8EC6480984020ED55
:1059E1009FFFEC9E9003B0F0A3EFF09003BAE0FEAE
:1059F100A3E0FF9003BFE02FF09003BEE03EF090E4
:105A010003B8E0FEA3E0FF9003B2E0FCA3E0FDD306
:105A11009FEE6480F8EC6480984020ED9FFFEC9E3F
:105A21009003B2F0A3EFF09003BCE0FEA3E0FF907F
:105A310003C1E02FF09003C0E03EF09003AFE0041B
:0C5A4100F070069003AEE004F002596D16
:015A4D002236
:0E546300900369EEF0A3EFF0A3ECF0A3EDF0E0
:10547100E4900377F0A3F0A3F0A3F0900369E0FEBA
:10548100A3E0FFC3EB9FFFEA9E90037BF0A3EFF045
:1054910090036BE0FAA3E0FBC3900370E09BFE90E6
:1054A100036FE09A90037DF0A3CEF0900369E0FFD3
:1054B100A3E0900385CFF0A3EFF0A3EAF0A3EBF014
:1054C10090037BE0FEA3E0FFD39400EE6480948020
:1054D100400A900381E4F0A304F08021EF4E7008AC
:1054E100900381F0A3F0801574FF900381F0A3F085
:1054F100C3E49FFFE49E90037BF0A3EFF090037D54
:10550100E0FEA3E0FFD39400EE64809480400A9013
:105511000383E4F0A304F08021EF4E70089003832D
:10552100F0A3F0801574FF900383F0A3F0C3E49F10
:10553100FFE49E90037DF0A3EFF090037DE0FEA3D6
:10554100E0FF90037BE0FCA3E0FDD39FEE6480F8D5
:10555100EC64809890037F4007ECF0A3EDF08005A8
:10556100EEF0A3EFF0E4900375F0A3F0900380E078
:105571002401FF90037FE03400FED3900376E09F87
:10558100900375E09E400302566C900387E0FCA3F4
:10559100E0FD900373E0FAA3E0FB900371E0FFA349
:1055A100E090047FCFF0A3EFF0A3E4F0A304F09028
:1055B1000385E0FEA3E0FF12566D90037BE0FEA39E
:1055C100E0FF900378E02FF0900377E03EF0900346
:1055D1007DE0FEA3E0FF90037AE02FF0900379E0F5
:1055E1003EF090037FE0FEA3E0FF900377E0FCA391
:1055F100E0FDD39FEE6480F8EC6480984020ED9F3D
:10560100FFEC9E900377F0A3EFF0900381E0FEA3FF
:10561100E0FF900386E02FF0900385E03EF09003D9
:105621007FE0FEA3E0FF900379E0FCA3E0FDD39FC0
:10563100EE6480F8EC6480984020ED9FFFEC9E9032
:105641000379F0A3EFF0900383E0FEA3E0FF900362
:1056510088E02FF0900387E03EF0900376E004F0BD
:0B5661007006900375E004F002556D28
:01566C00221B
:10777200900515EAF0A3EBF0900511EEF0A3EFF0FF
:10778200A3ECF0A3EDF0C007A3E0FAA3E0FB9005A1
:1077920013E0FFA3E09003ACCFF0A3EFF0D0071209
:1077A2005863900511E0FAA3E0FBFFAE02C007A305
:1077B200E0FCA3E0FD900517E0FFA3E09003ACCF4F
:1077C200F0A3EFF0D007125863900517E0FCA3E096
:1077D200FD900515E0FAA3E0FBA3E0FFA3E0900310
:1077E200ACCFF0A3EFF0900511E0FEA3E0FF12583A
:1077F20063900515E0FAA3E0FBFFAE02C007900517
:1078020013E0FCA3E0FD900517E0FFA3E09003ACBA
:0A781200CFF0A3EFF0D00702586397
:10847A00C00790051FE0FFA3E090046DCFF0A3EFC3
:10848A00F0900454E0FFA3E090046FCFF0A3EFF064
:05849A00D0070268EDAF
:10677C009004F3F0A3EFF090047DE0FFA3E090040D
:0E678C00F5CFF0A3EFF0900479E0FEA3E0FF5C
:10679A009004EFECF0A3EDF09004EDEEF0A3EFF02F
:1067AA009004F1EAF0A3EBF02FFFEE3AA312834A2A
:1067BA009004F1E0FEA3E0FFC39004EEE09FFF9097
:1067CA0004EDE09EFE9004F312834B9004F1E0FE88
:1067DA00A3E0FF9004EEE02FFF9004EDE03EFE9070
:1067EA0004F3E0FCA3E0FDC39004F0E09DFD9004F7
:1067FA00EFE09C12835B9004F1E0FEA3E0FFC390FC
:10680A0004EEE09FFF9004EDE09EFE9004F3E0FCAE
:10681A00A3E0FDC39004F0E09DFD9004EFE09C121C
:10682A00835B9004F3E0FEA3E0FF9004EEE02FFF09
:10683A009004EDE03E1283479004F3E0FEA3E0FFEC
:10684A00C39004EEE09FFF9004EDE09E1283479010
:10685A0004F3E0FEA3E0FF9004EEE02FFF9004EDC6
:10686A00E03EFE9004F1E0FCA3E0FDC39004F0E0FA
:10687A009DFD9004EFE09C12835B9004F3E0FEA37D
:10688A00E0FFC39004EEE09FFF9004EDE09EFE90CF
:10689A0004F1E0FCA3E0FDC39004F0E09DFD900448
:0F68AA00EFE09CFC9004F5E0FAA3E0FB028364AE
:10566D00900479EEF0A3EFF0A3ECF0A3EDF0A3EA34
:04567D00F0A3EBF0BB
:10568100E4900483F0A3F090047FE0FEA3E0FF9098
:105691000485EEF0A3EFF025E0FFEE33FEC37403C3
:1056A1009F90048AF0E49E900489F0900481E07058
:1056B10002A3E070030257B0900485E0FEA3E0FF6F
:1056C100900483E0FCA3E0FDD39FEE6480F8EC64DA
:1056D10080984003025862900487ECF0A3EDF090AB
:1056E1000485E0FEA3E0FFD3900488E09FEE648090
:1056F100F8900487E0648098502B90047BE0FCA331
:10570100E0FD900483E0FAA3E0FB900487E0FFA3AF
:10571100E0CF12677C900488E004F070C2900487A7
:10572100E004F080BA900489E0FCA3E0FDC3EC64DE
:105731008094805023900483E0FEA3E07802C33379
:10574100CE33CED8F92DFFEC3ECF2406CF340090D6
:105751000489F0A3EFF08043900485E0FEA3E0FF0D
:10576100C3900484E09FFF900483E09EFEEF7802E3
:10577100C333CE33CED8F9FF90048AE02FFF9004D3
:1057810089E03ECF240ACF3400F0A3EFF0900486E5
:10579100E024FFF0900485E034FFF0900484E004FD
:1057A100F060030256B9900483E004F00256B99008
:1057B1000485E0FEA3E0FF900483E0FAA3E0FBD3BD
:1057C1009FEE6480F8EA6480984003025862900476
:1057D1007BE0FCA3E0FDEE12677C900489E0FCA372
:1057E100E0FDC3EC648094805023900483E0FEA329
:1057F100E07802C333CE33CED8F92DFFEC3ECF246F
:1058010006CF3400900489F0A3EFF0804390048523
:10581100E0FEA3E0FFC3900484E09FFF900483E0D7
:105821009EFEEF7802C333CE33CED8F9FF90048ABF
:10583100E02FFF900489E03ECF240ACF3400F0A38B
:10584100EFF0900486E024FFF0900485E034FFF04F
:10585100900484E004F07006900483E004F00257A1
:01586100B096
:015862002223
:107BFC009004C1EEF0A3EFF0A3ECF0A3EDF0A3EA38
:107C0C00F0A3EBF0C007A3E0FFA3E09003ACCFF030
:107C1C00A3EFF0D0071258639004C7E0FCA3E0FD7B
:107C2C00A3E0FAA3E0FBA3E0FFA3E09003ACCFF04A
:107C3C00A3EFF09004C5E0FEA3E0FF12586390049C
:107C4C00CBE0FCA3E0FD9004C1E0FAA3E0FBA3E0D1
:107C5C00FFA3E09003ACCFF0A3EFF09004C9E0FEDB
:067C6C00A3E0FF025863D3
:107E660090053F7401F0A37403F0A3741FF07B0127
:047E76007A03791BF7
:0B7E7A0090053CEBF0A3EAF0A3E9F058
:107E8500121BC2FFAEF090053FE0FBA3E0FAA3E0B2
:107E9500F9121BC2FD90053CE0FBA3E0FAA3E0F953
:107EA500E5F08DF0121C5D90053FE0FBA3E0FAA321
:087EB500E0F9EE8FF0021C5D04
:1021AD00900319EEF0A3EFF0A3ECF0A3EDF0A3EA8A
:0421BD00F0A3EBF0B0
:1021C100900339121EF40000000090033D121EF42A
:1021D1000000000090031FE0FEA3E0FF90031BE05E
:1021E100FCA3E0D39FEC9E401A127E6690053F74DB
:1021F10001F0A37403F0A3741DF07B017A03791934
:10220100127E7A900323E0FEA3E0FF90031FE0FC1F
:10221100A3E0D39FEC9E402E90053F7401F0A37480
:1022210003F0A3741FF07B017A037923127E7A9065
:10223100053F7401F0A37403F0A3741DF07B017AD0
:10224100037921127E7A90031FE0FEA3E0FF900341
:102251001BE0FCA3E0D39FEC9E401A127E66900522
:102261003F7401F0A37403F0A3741DF07B017A03A2
:102271007919127E7A900323E0FEA3E0FF90031BFD
:10228100E0FCA3E0FD6F7002EC6E60030223559049
:102291000319E0FEA3E0FF900327EEF0A3EFF09017
:1022A1000325EEF0A3EFF0900325E0FEA3E0FF90FD
:1022B100031DE0FAA3E0FBC39FEA9E500A900325A9
:1022C100EAF0A3EBF0801E900327E0FEA3E0FFD32A
:1022D100EB9FEA9E400F90031DE0FFA3E0900327D0
:1022E100CFF0A3EFF0900325E0FEA3E0FF900321E0
:1022F100E0FAA3E0FBC39FEA9E500A900325EAF0AF
:10230100A3EBF0801E900327E0FEA3E0FFD3EB9F39
:10231100EA9E400F900321E0FFA3E0900327CFF056
:10232100A3EFF0900327E0FAA3E0FB90031BE0FF8B
:10233100A3E090046DCFF0A3EFF0900454E0FFA36D
:10234100E090046FCFF0A3EFF0900325E0FEA3E04F
:10235100FF0268ED900319E0FAA3E0FB90031DE092
:10236100FEA3E0C39BFFEE9A90032DF0A3EFF09044
:10237100031BE0FEA3E0FF90031FE0FCA3E0C39F6B
:10238100FFEC9E90032FF0A3EFF0900321E0FEA35A
:10239100E0C39BFFEE9A900331F0A3EFF090031B93
:1023A100E0FEA3E0FF900323E0FCA3E0C39FFFEC6A
:1023B1009E900333F0A3EFF090031DE0FEA3E0FF36
:1023C100900321E0FCA3E0C39FFFEC9E900335F056
:1023D100A3EFF090031FE0FAA3E0FB900323E0FCDE
:1023E100A3E0FDC39BFEEC9A900337F0A3CEF0EB84
:1023F100B50510EAB5040C90031FFFA3E090032B71
:10240100CF801090031FE0FEA3E024FFFFEE34FF16
:1024110090032BF0A3EFF090031BE0FFA3E09003E8
:1024210029CFF0A3EFF090032BE0FEA3E0FF900390
:1024310029E0FCA3E0D39FEC9E40030225419003D9
:102441002FE0FEA3E0FBAA06EA3395E0F9F890033A
:1024510039E0FCA3E0FDA3E0FEA3E0FF1280399088
:102461000319E0FCA3E02FFFEC3E900325F0A3EF5E
:10247100F0900333E0FEA3E0FBAA06EA3395E0F90E
:10248100F890033DE0FCA3E0FDA3E0FEA3E0FF1212
:102491008039900319E0FCA3E02FFFEC3E90032765
:1024A100F0A3EFF0900339E0F8A3E0F9A3E0FAA379
:1024B100E0FB90032DE0FEA3E0FFEE3395E0FDFC91
:1024C100EB2FFFEA3EFEE93DFDE83CFC90033912AB
:1024D1001EE890033DE0F8A3E0F9A3E0FAA3E0FBD6
:1024E100900331E0FEA3E0FFEE3395E0FDFCEB2F1E
:1024F100FFEA3EFEE93DFDE83CFC90033D121EE88B
:10250100900327E0FEA3E0FF900325E0FCA3E0D3C6
:102511009FEC9E401790053F7401F0A37403F0A354
:102521007427F07B017A037925127E7A1268B990BB
:10253100032AE004F07006900329E004F002242746
:1025410090031FE0FEA3E0FF900329E0FAA3E0FB64
:10255100C39FFFEA9EFE900335E0FCA3E0FD121B42
:1025610084E4FCFD900339121EE890031BE0FEA3F6
:10257100E0FFC3EB9FFFEA9EFE900331E0FCA3E086
:10258100FD121B84E4FCFD90033D121EE890032321
:10259100E0FEA3E0FF900329E0FCA3E0D39FEC9EC3
:1025A10040030226A6900337E0FEA3E0FBAA06EA59
:1025B1003395E0F9F8A3E0FCA3E0FDA3E0FEA3E07E
:1025C100FF12803990031DE0FCA3E02FFFEC3E9049
:1025D1000325F0A3EFF0900333E0FEA3E0FBAA068E
:1025E100EA3395E0F9F890033DE0FCA3E0FDA3E0B8
:1025F100FEA3E0FF128039900319E0FCA3E02FFF56
:10260100EC3E900327F0A3EFF0900339E0F8A3E04C
:10261100F9A3E0FAA3E0FB900335E0FEA3E0FFEEAF
:102621003395E0FDFCEB2FFFEA3EFEE93DFDE83C82
:10263100FC900339121EE890033DE0F8A3E0F9A3F2
:10264100E0FAA3E0FB900331E0FEA3E0FFEE339557
:10265100E0FDFCEB2FFFEA3EFEE93DFDE83CFC908E
:10266100033D121EE8900327E0FEA3E0FF9003253F
:10267100E0FCA3E0D39FEC9E401790053F7401F06E
:10268100A37403F0A37427F07B017A037925127EEA
:102691007A1268B990032AE004F07006900329E0E9
:0526A10004F002258E8B
:0126A6002211
:10524B00F0900236E0900244F090022EE0FAA3E0D8
:01525B00FB57
:10525C0090023AEEF0A3EFF090023EEAF0A3EBF0EE
:08526C0090023CECF0A3EDF010
:10527400900454E0FFA3E0900248CFF0A3EFF09035
:105284000242E024E0F0A3E0F9C313FF7E009002A1
:105294003AE0FAA3E02FFFEE3ACF24FFFBEF34FF0E
:1052A400FAE9FFA3E0F8A3E02FFFEE38CF24FFCF05
:1052B40034FF900270F0A3EFF090023AE0FEA3E016
:1052C400FF127D49900244E0600302536B90024652
:1052D400F0900243E0FF900246E0FEC39F400302C9
:1052E400542AEFB40C17900242E075F00CA4241475
:1052F400F582E5F03400F583E5822E801A900246AB
:10530400E0FF900242E075F010A42488F582E5F0F5
:105314003404F583E5822FF582E43583F583E49341
:10532400900245F0E4900247F0900243E0C313FF7B
:10533400900247E0C39F5026900245E030E005907C
:10534400023E8003900240E0FEA3E0FF1287159026
:105354000245E0C313F0900247E004F080CB9002D2
:1053640046E004F00252D5E4900246F0900243E095
:10537400FF900246E0FEC39F400302542AEFB40CA0
:1053840017900242E075F00CA42414F582E5F03481
:1053940000F583E5822E801A900246E0FF900242D7
:1053A400E075F010A42488F582E5F03404F583E573
:1053B400822FF582E43583F583E493900245F0E48B
:1053C400900247F0900243E0C313FF900247E0FECF
:1053D400C39F504990023EE0FDA3E0900454CDF0F9
:1053E400A3EDF0900245E030E024EEFF90023BE0B4
:1053F4002FFF90023AE03400FE900246E0FD900256
:105404003DE02DFD90023CE03400FC1283DB900271
:1054140045E0C313F0900247E004F080A7900246F1
:10542400E004F0025370900248E0FFA3E0900454BB
:10543400CFF0A3EFF0900459E024FFFB900458E070
:1054440034FFFA90045BE024FFFE90045AE034FF3A
:0F545400900270F0A3CEF0E4FDFCFFFE027D4954
:1075F400900500EEF0A3EFF0A3ECF0A3EDF0A3EB05
:10760400F0900505E0FBA3E0FAA3E0F9121B0AFFE2
:10761400D3947E40030276B2EFC3942050030276E3
:10762400B2900459E024FFFD900458E034FFFC902C
:107634000500E0FEA3E0FFD39DEE9C507190045B37
:10764400E024FFFB90045AE034FFFA900502E0FCCA
:10765400A3E0FDD39BEC9A5055900456E0FBA3E0C5
:10766400900240CBF0A3EBF0900505E0FBA3E0FA19
:10767400121B0A900242F0900504E0900243F0903D
:107684000508E0900244F090045412525790050407
:10769400E0C313FF900501E02FF0900500E03400F3
:0F76A400F0900506E475F001121B9602760522A0
:087FAC00900542EFF0A3EDF097
:107FB400A3121EF400000001900543E0FF14F0EF4B
:107FC4006020A3E0F8A3E0F9A3E0FAA3E0FB9005A6
:107FD40042E0FFE4FCFDFE121CA9900544121EE8D9
:107FE40080D6900544E0FCA3E0FDA3E0FEA3E0FFFF
:017FF400226A
:0E6AF90090049AEEF0A3EFF0A3ECF0A3EDF002
:106B0700E49004A6F09004A4F09004A2E0FF90049F
:106B1700A4E0FEC39F4003026C09C3EF9E14FD7FF0
:106B27000A127FACA804A905AA06AB0790049EE049
:106B3700FCA3E0FDA3E0FEA3E0FF121D34E47B0A03
:106B4700FAF9F8121D349004A5EBF0A3E070579002
:106B570004A2E014FF9004A4E0FEC39F5048A3E002
:106B6700703E9004A3E0F9C3138EF0A4FF90049B3A
:106B7700E02FFF90049AE035F0FEC00790049CE0F8
:106B8700FCA3E0FD900454E0FAA3E0FB900456E078
:106B9700FFA3E0900240CFF0A3EFF0A37420804D55
:106BA7009004A67401F09004A3E0F9C313FFA3E0D7
:106BB700FEEF8EF0A4FF90049BE02FFF90049AE075
:106BC70035F0FEC00790049CE0FCA3E0FD90045460
:106BD700E0FAA3E0FB900456E0FFA3E0900240CF69
:106BE700F0A3EFF09004A5E02430900242F0A3E96F
:106BF700F0E4A3F0D00712525C9004A4E004F00282
:026C07006B1010
:016C09002268
:10471D0090042EECF0A3EDF0A3EAF0A3EBF09004DF
:06472D002CEEF0A3EFF0FA
:1047330090043EEEF0A3EFF090043CE4F0A3744B3E
:10474300F0E490043AF0A3F090043CE0FEA3E0FF11
:1047530090043AE0FCA3E0FDC39FEC9E40030249B2
:1047630036900434E0FBA3E0FAA3E0F9121B0AFF3E
:10477300900A7875F022ED121F49EC75F022A425FA
:1047830083F583E4936F6003024925900001121BB4
:1047930023FF90043AA3E0900A7975F022121F498F
:1047A300EC75F022A42583F583E4936F600302493B
:1047B3002590042CE0FAA3E0FBFFAE02C006C0077D
:1047C300A3E0FCA3E0FDEB240FFBE43AFA90042EF4
:1047D300E0FEA3E0240FFFE43E900270F0A3EFF0AD
:1047E300D007D006127D49E4900438F0E4900439F0
:1047F300F0900439E0FFC394084003024916900483
:1048030037E0705AA3E0FE90043AE0FCA3E0900A7C
:104813007A75F022121F49EC75F022A42583F583E3
:10482300E5822EF582E43583F583E493FD3395E049
:10483300FC7E007480A807088006CEA2E713CE137F
:10484300D8F8FFEE5CFEEF5D4E6005900430800308
:10485300900432E0FEA3E0FF12871502490D900495
:1048630030E0FFA3E0900454CFF0A3EFF0900438BE
:10487300E0FF90043AE0FCA3E0900A7A75F022127C
:104883001F49EC75F022A42583F583E5822FF58279
:10489300E43583F583E493FD3395E0FC900439E03C
:1048A300FF7E007480A807088006CEA2E713CE130C
:1048B300D8F8FFEE5CFEEF5D4E601190042CE0FE35
:1048C300A3E0FFA3E0FCA3E0FD1283DB90042DE053
:1048D30004F0700690042CE004F090043EE0FEA384
:1048E300E0FFC390042DE09FFD90042CE09EFCEDBF
:1048F30064104C7015EEF0A3EFF090042FE004F079
:10490300701190042EE004F08009900439E004F063
:104913000247F4900438E004F0E0C394205003020B
:1049230047EF90043BE004F0700690043AE004F093
:1049330002474B900459E024FFFB900458E034FFF6
:10494300FA90045BE024FFFE90045AE034FF9002E7
:0D49530070F0A3CEF0E4FDFCFFFE027D49F4
:10496000900442ECF0A3EDF0A3EAF0A3EBF0900486
:0649700040EEF0A3EFF0A1
:10497600900452EEF0A3EFF0900450E4F0A3744BD1
:10498600F0E490044EF0A3F0900450E0FEA3E0FFA4
:1049960090044EE0FCA3E0FDC39FEC9E4003024B57
:1049A60079900448E0FBA3E0FAA3E0F9121B0AFFA2
:1049B600900A7875F022ED121F49EC75F022A425B5
:1049C60083F583E4936F6003024B68900001121B2A
:1049D60023FF90044EA3E0900A7975F022121F4936
:1049E600EC75F022A42583F583E4936F6003024BF4
:1049F60068900440E0FAA3E0FBFFAE02C006C007E1
:104A0600A3E0FCA3E0FDEB240FFBE43AFA9004429A
:104A1600E0FEA3E0240FFFE43E900270F0A3EFF067
:104A2600D007D006127D49E490044CF0E490044D82
:104A3600F090044DE0FFC394084003024B599004E4
:104A46004BE0705AA3E0FE90044EE0FCA3E0900A0F
:104A56007A75F022121F49EC75F022A42583F5839E
:104A6600E5822EF582E43583F583E493FD3395E004
:104A7600FC7E007480A807088006CEA2E713CE133A
:104A8600D8F8FFEE5CFEEF5D4E60059004448003AF
:104A9600900446E0FEA3E0FF128715024B509004F7
:104AA60044E0FFA3E0900454CFF0A3EFF090044C51
:104AB600E0FF90044EE0FCA3E0900A7A75F0221223
:104AC6001F49EC75F022A42583F583E5822FF58234
:104AD600E43583F583E493FD3395E0FC90044DE0E3
:104AE600FF7E007480A807088006CEA2E713CE13C7
:104AF600D8F8FFEE5CFEEF5D4E6011900440E0FEDC
:104B0600A3E0FFA3E0FCA3E0FD1283DB900441E0F9
:104B160004F07006900440E004F0900452E0FEA316
:104B2600E0FFC3900441E09FFD900440E09EFCED51
:104B360064104C7015EEF0A3EFF0900443E004F01F
:104B46007011900442E004F0800990044DE004F0F6
:104B5600024A3790044CE004F0E0C394205003026C
:104B66004A3290044FE004F0700690044EE004F0E0
:104B760002498E900459E024FFFB900458E034FF6C
:104B8600FA90045BE024FFFE90045AE034FF9002A2
:0D4B960070F0A3CEF0E4FDFCFFFE027D49AF
:104BA30090023CECF0A3EDF0A3EAF0A3EBF090024B
:064BB3003AEEF0A3EFF062
:104BB90090024CEEF0A3EFF090024AE4F0A37409DE
:104BC900F0E4900248F0A3F090024AE0FEA3E0FF6F
:104BD900900248E0FCA3E0FDC39FEC9E4003024D18
:104BE900BC900242E0FBA3E0FAA3E0F9121B0AFF22
:104BF90090146E75F04AED121F49EC75F04AA42520
:104C090083F583E4936F6003024DAB900001121B9F
:104C190023FF900248A3E090146F75F04A121F49D0
:104C2900EC75F04AA42583F583E4936F6003024D84
:104C3900AB90023AE0FAA3E0FBFFAE02C006C00760
:104C4900A3E0FCA3E0FDEB2417FBE43AFA90023C55
:104C5900E0FEA3E02417FFE43E900270F0A3EFF01A
:104C6900D007D006127D49E4900246F0E49002474D
:104C7900F0900247E0FFC394084003024D9C900264
:104C890045E0705AA3E0FE900248E0FCA3E09014CE
:104C99007075F04A121F49EC75F04AA42583F58313
:104CA900E5822EF582E43583F583E493FD3395E0BF
:104CB900FC7E007480A807088006CEA2E713CE13F5
:104CC900D8F8FFEE5CFEEF5D4E600590023E800372
:104CD900900240E0FEA3E0FF128715024D93900277
:104CE9003EE0FFA3E0900454CFF0A3EFF09002461A
:104CF900E0FF900248E0FCA3E090147075F04A12BE
:104D09001F49EC75F04AA42583F583E5822FF582C6
:104D1900E43583F583E493FD3395E0FC900247E0A5
:104D2900FF7E007480A807088006CEA2E713CE1381
:104D3900D8F8FFEE5CFEEF5D4E601190023AE0FE9E
:104D4900A3E0FFA3E0FCA3E0FD1283DB90023BE0BC
:104D590004F0700690023AE004F090024CE0FEA3E1
:104D6900E0FFC390023BE09FFD90023AE09EFCED1C
:104D790064184C7015EEF0A3EFF090023DE004F0DA
:104D8900701190023CE004F08009900247E004F0C1
:104D9900024C7A900246E004F0E0C39448500302C2
:104DA9004C75900249E004F07006900248E004F066
:104DB900024BD1900459E024FFFB900458E034FFE2
:104DC900FA90045BE024FFFE90045AE034FF90025D
:0D4DD90070F0A3CEF0E4FDFCFFFE027D496A
:104DE60090023CECF0A3EDF0A3EAF0A3EBF0900206
:064DF6003AEEF0A3EFF01D
:104DFC0090024CEEF0A3EFF090024AE4F0A374069C
:104E0C00F0E4900248F0A3F090024AE0FEA3E0FF29
:104E1C00900248E0FCA3E0FDC39FEC9E4003024FD0
:104E2C00FF900242E0FBA3E0FAA3E0F9121B0AFF99
:104E3C0090170875F082ED121F49EC75F082A425CD
:104E4C0083F583E4936F6003024FEE900001121B15
:104E5C0023FF900248A3E090170975F082121F49B6
:104E6C00EC75F082A42583F583E4936F6003024F05
:104E7C00EE90023AE0FAA3E0FBFFAE02C006C007D8
:104E8C00A3E0FCA3E0FDEB241FFBE43AFA90023C08
:104E9C00E0FEA3E0241FFFE43E900270F0A3EFF0CD
:104EAC00D007D006127D49E4900246F0E490024708
:104EBC00F0900247E0FFC394084003024FDF9002DA
:104ECC0045E0705AA3E0FE900248E0FCA3E0901786
:104EDC000A75F082121F49EC75F082A42583F583C4
:104EEC00E5822EF582E43583F583E493FD3395E07A
:104EFC00FC7E007480A807088006CEA2E713CE13B0
:104F0C00D8F8FFEE5CFEEF5D4E600590023E80032C
:104F1C00900240E0FEA3E0FF128715024FD69002EC
:104F2C003EE0FFA3E0900454CFF0A3EFF0900246D4
:104F3C00E0FF900248E0FCA3E090170A75F08212A3
:104F4C001F49EC75F082A42583F583E5822FF58249
:104F5C00E43583F583E493FD3395E0FC900247E060
:104F6C00FF7E007480A807088006CEA2E713CE133C
:104F7C00D8F8FFEE5CFEEF5D4E601190023AE0FE59
:104F8C00A3E0FFA3E0FCA3E0FD1283DB90023BE077
:104F9C0004F0700690023AE004F090024CE0FEA39C
:104FAC00E0FFC390023BE09FFD90023AE09EFCEDD7
:104FBC0064204C7015EEF0A3EFF090023DE004F08D
:104FCC00701190023CE004F08009900247E004F07C
:104FDC00024EBD900246E004F0E0C3948050030200
:104FEC004EB8900249E004F07006900248E004F0DC
:104FFC00024E14900459E024FFFB900458E034FF57
:10500C00FA90045BE024FFFE90045AE034FF900217
:0D501C0070F0A3CEF0E4FDFCFFFE027D4924
:1042410090022CECF0A3EDF0A3EAF0A3EBF09002C6
:064251002AEEF0A3EFF0DD
:10425700900237EEF0A3EFF0E4A3F0900232E0FB18
:10426700A3E0FAA3E0F9121B0A70030244CCD3942B
:104277008040069002397401F0900239E060030231
:104287004391900235E0FFC313FDC3900459E09DAD
:10429700FD900458E09400FCD390022BE09D90021F
:1042A7002AE09C40030244CCC390045BE09FFF904C
:1042B700045AE09400FE90022CE0FCA3E0FDD39F9B
:1042C700EC9E40030244CC900232E0FBA3E0FAA349
:1042D700E0F9121B0AF9B40D2E900235E0FF9002A7
:1042E7002DE02FF090022CE03400F0900237E0FF31
:1042F700A3E090022ACFF0A3EFF0900233E475F029
:1043070001121B96024384900235E0D39410900269
:104317002AE0FEA3E0FF4020900230E0FBA3E090FC
:104327000240CBF0A3EBF0A3E9F0A3741012524BB9
:1043370090022BE02408803DA3E0FCA3E0FD90025F
:1043470030E0FBA3E0900240CBF0A3EBF090023209
:10435700E0FBA3E0FAA3E0F9121B0A900242F090F7
:104367000235E090024312524B900235E0C313FF2F
:1043770090022BE02FF090022AE03400F0900233F5
:10438700E475F001121B96024262900235E0F9FFD4
:104397007E00C3900459E09FFD900458E09EFCD333
:1043A70090022BE09D90022AE09C40030244CCC37C
:1043B70090045BE09FFF90045AE09EFE90022CE081
:1043C700FCA3E0FDD39FEC9E40030244CCE49002A3
:1043D70039F0E9B4204290022AE0FEA3E0FF900200
:1043E70030E0FBA3E0900240CBF0A3EBF090023269
:1043F700E0F9A3E0FAA3E0900242C9F0A3EAF0A330
:10440700E9F0900236E0900245F090022EE0FAA320
:10441700E0FB124DE60244AD900235E064187047A8
:1044270090022AE0FEA3E0FFA3E0FCA3E0FD9002D8
:1044370030E0FBA3E0900240CBF0A3EBF090023218
:10444700E0F9A3E0FAA3E0900242C9F0A3EAF0A3DF
:10445700E9F0900236E0900245F090022EE0FAA3D0
:10446700E0FB124BA3803F90022CE0FCA3E0FD9001
:104477000232E0FBA3E0FAA3E0F990022EE0FFA3EB
:10448700E0900241CFF0A3EFF0900230E0FFA3E00D
:10449700900243CFF0A3EFF0E4A3F090022AE0FEEE
:1044A700A3E0FF123CDC900233E475F002121B9686
:1044B700900235E0FF90022BE02FF090022AE034C3
:0544C70000F00242625A
:0144CC0022CD
:10795E009004A7EEF0A3EFF0A3ECF0A3EDF0A3EAF2
:04796E00F0A3EBF0A7
:107972009004AFE0FBA3E0FAA3E0F9128622EF78CD
:1079820003C333CE33CED8F9FFC3900459E09FFF2F
:10799200900458E09EC313FEEF13FF9004A8E02F5B
:1079A200FF9004A7E03EFE9004A9E0FCA3E0FD9056
:1079B20004ADE0FBA3E0900230CBF0A3EBF0900427
:1079C200AFE0F9A3E0FAA3E0900232C9F0A3EAF033
