:100099003F065B4F666D7D077F6F777C395E7971AF
:0100A9000056
:10007700E4F594F593F592F591F596F595F5B2F5C6
:10008700B1F5B4F5B3F5CAF5C9F5CCF5CBF5E2F59D
:02009700E12264
:0B00B600EF1FAC0670011E4C70F6221C
:10000300E4FDEDC39408748094805067EDB4080058
:10001300504D90001CF82828730200340200380267
:10002300004002004402004C02005002005802004B
:100033005CC2A08002D2A0C2A1C2A28022C2A080C0
:1000430002D2A0D2A1C2A28016C2A08002D2A0C2B4
:10005300A1D2A2800AC2A08002D2A0D2A1D2A2EDD4
:1000630090009993F5807F647E001200B6E4F580DA
:030073000D808F6E
:010076002267
:0800C10012007712000380FB1E
:030000000200AA51
:0C00AA00787FE4F6D8FD7581070200C1E4
:00000001FF
