:105475004453313842323020726561642074656D61
:105485007065726174757265B2E2CAD4B3CCD0F23C
:10549500005468652074656D706572617475726518
:0B54A500003A2020202E20002564008B
:10577E00E4F594F593F592F591F596F595F5B2F568
:10578E00B1F5B4F5B3F5CAF5C9F5CCF5CBF5E2F53F
:02579E00E12206
:103D8C0012577E12436474FFFFFE124D7B9000129B
:103D9C00E4F0A3741FF0A374FFF0A37454F0A374A5
:103DAC0075F0A37410F0A37401F07B007AF87D1009
:103DBC007C00E4FFFE124BD590001F74FFF0A3743F
:103DCC00E0F0A374FFF0A37454F0A37496F0A37402
:103DDC0010F0E4A3F07B1FFA7D38FCFFFE122FE4F9
:103DEC0090001F74FFF0A374E0F0A374FFF0A374B1
:103DFC0054F0A374A6F0A37410F0E4A3F07B1FFAA4
:103E0C007D38FC7F78FE122FE4124DFC90000AEEF8
:103E1C00F0A3EFF0C3EE6480948090001F74FF5009
:103E2C001FF0A374E0F0A3E4F0A3F0A3742DF0A3AF
:103E3C007410F0E4A3F07B1FFA7D38FC7F1C801D0E
:103E4C00F0A374E0F0A3E4F0A3F0A3742BF0A3743C
:103E5C0010F0E4A3F07B1FFA7D38FC7F80FE122F5C
:103E6C00E490000F74FFF0A37454F0A374ADF090C1
:103E7C00000AE0FEA3E0FF7C007D641220947C002D
:103E8C007D0A122094900012ECF0A3EDF07B017AE5
:103E9C000079001228AE90001F74FFF0A374E0F0BC
:103EAC00A37401F0A37400F0A37400F0A37410F0D9
:103EBC00E4A3F07B1FFA7D38FC7F88FE122FE49080
:103ECC00000F74FFF0A37454F0A374ADF090000ACB
:103EDC00E0FEA3E0FF7C007D0A1220947C007D0AAA
:103EEC00122094900012ECF0A3EDF07B017A007993
:103EFC00001228AE90001F74FFF0A374E0F0A374BE
:103F0C0001F0A37400F0A37400F0A37410F0E4A308
:103F1C00F07B1FFA7D38FC7F90FE122FE490000F8F
:103F2C0074FFF0A37454F0A374ADF090000AE0FE9B
:103F3C00A3E0FF7C007D0A122094900012ECF0A309
:103F4C00EDF07B017A0079001228AE90001F74FF0F
:103F5C00F0A374E0F0A37401F0A37400F0A3740058
:103F6C00F0A37410F0E4A3F07B1FFA7D38FC7FA063
:073F7C00FE122FE4023E15C6
:1057C200E4FDFCC3ED9FEC9E5016E4FBEBC3940397
:1057D2007480948050030B80F30DBD00010C80E3B4
:0157E20022A4
:1057E300E4FDFCC3ED9FEC9E5016E4FBEBC3940574
:1057F3007480948050030B80F30DBD00010C80E393
:015803002282
:08552400900189EEF0A3EFF005
:10552C00E4A3F0A3F0900189E0FEA3E0FFC3900197
:10553C008CE09F90018BE09E50157FFA7E001257F5
:0F554C00E3A3E004F070DE90018BE004F080D662
:01555B00222D
:08555C0090000CEEF0A3EFF04B
:10556400E4A3F0A3F090000CE0FEA3E0FFC39000DE
:105574000FE09F90000EE09E50157FFA7E001257B8
:0F558400E3A3E004F070DE90000EE004F080D6A8
:0155930022F5
:10580400E4FDFCC3ED9FEC9E5016E4FBEBC3940156
:105814007480948050030B80F30DBD00010C80E371
:015824002261
:045A2300000000007F
:0A55FD004200D200004200D4FFFF7C
:0F59AB00C2E8C2C28FA0AF058F80D2C2D2E8225D
:10589A00C2E8C2C47F017E00125804AFA0EFFEAD79
:0758AA0080EDFFD2C4D2E83B
:0158B10022D4
:0B59D400AD07AC06C2E9ECFF0259ABC6
:05597B001259D4E4FF05
:0B598000AD07AC06D2E9ECFF0259AB0A
:055A1900D2E902589AD9
:0B59DF00AD07AC06D2E9ECFF0259ABAB
:10582500AA07ED54FC75F008A4FDEA54F845F0FE0E
:0F583500EDFFEB54F8131313541FFDEF4DFF223B
:104E7900D2E9C2E8C2C47F017E00125804AFA090F3
:104E89000197E4F0A3EFF0E0FFAD80ED900197CF3B
:104E9900F0A3EFF0D2C4C2C47F017E00125804AF60
:104EA900A0900197E4F0A3EFF0E0FFAD80ED900151
:104EB90097CFF0A3EFF0D2C4C2C47F017E0012588D
:104EC90004AFA0AD07EDAD80FCD2C4ECFB7A007C49
:104ED90000900198E0FD900197E0FF7E00EEF0A3BD
:074EE900EFF0D2E8025825AA
:0E59BA00AB05AA041259D4AE02AF0302598005
:1053750090016EEBF0A3EAF0A3E9F01259D475A001
:10538500FF7580FF90017174FFF5F01220E045F084
:105395006019125A1990016EE0FBA3E475F0011231
:1053A50020E0A9F0FAEF12204E80D975A0FF758094
:0253B500FF22D5
:0B59EA009000DDE0FEA3E0FF0259D4B6
:0B59F5009000DFE0FEA3E0FF0259D4A9
:084D7B0090000CEEF0A3EFF034
:104D83009000D7E024FFFB9000D6E034FFFA9000B8
:104D9300D9E024FFFE9000D8E034FF900043F0A355
:104DA300CEF0E4FDFCFFFE124FCBE490000EF0A327
:104DB300F09000D6E0FEA3E0FFC390000FE09F90C9
:104DC300000EE09E5032E4FBFAD39000D9E09B90B2
:104DD30000D8E09A401290000CE0FEA3E0FF1259C5
:104DE300DF0BBB00010A80E190000FE004F070C10B
:084DF30090000EE004F080B90D
:014DFB002295
:10569700AB07AA068D828C83C006C007AE83AF8294
:1056A700900043EEF0A3EFF0D007D006124FCB9057
:0A56B70000D2E0FEA3E0FF0259DF7D
:0852AA00900199EEF0A3EFF072
:1052B200D39000D7E09F9000D6E09E400DD390009F
:1052C200D9E09D9000D8E09C5004E4FEFF229001BA
:1052D20099E0FEA3E0FF1258441259F575A0FF753C
:0B52E20080FF124E7975A0FF7580FF61
:0152ED00229E
:105881007F327E0012555CC2EA7F327E0012555C87
:09589100D2EA7F327E0002555C70
:104364001258817FF77E001259D47FA91259807F99
:10437400511259807F2C1259807F821259807FC03C
:104384001259D47F111259807F091259807FC112AA
:1043940059D47F411259807FC512597B7F0A125923
:1043A400807F801259807FB11259D47FB012598016
:1043B4007F111259807FB41259D47F021259807F21
:1043C400B61259D47F021259807F221259807FB7C6
:1043D4001259D47FC61259807FBE12597B7F0412B2
:1043E40059807FE912597B7F361259D47F081259BC
:1043F400807F3A1259D47F551259807FE012597B3D
:104404007F071259807F101259807F091259807FCB
:10441400171259807F0B1259807F411259807F896E
:104424001259807F4B1259807F0A1259807F0C12D7
:1044340059807F0E1259807F181259807F1B1259A0
:10444400807F0F1259807FE112597B7F17125980A8
:104454007F1A1259807F041259807F0E1259807F6F
:10446400061259807F2F1259807F451259807F434D
:104474001259807F021259807F0A1259807F0912D3
:1044840059807F321259807F361259807F0F12591A
:10449400807F111259D47F7812555C7F297E0012D7
:0744A40059D47F01024B34E3
:104FCB0090003DEEF0A3EFF0A3ECF0A3EDF090001A
:104FDB00E1E0FEA3E0FF1259D490003DE0FF7E001C
:104FEB00125980A3E0FF125980EAFF125980AF03D8
:104FFB007E001259809000E3E0FEA3E0FF1259D42B
:10500B0090003FE0FF7E00125980A3E0FF12598011
:10501B00900043E0FF125980A3E0FF125980025920
:01502B00EA9A
:10584400AB07AA068D828C83C006C007AE83AF82E5
:0F585400900043EEF0A3EFF0D007D006024FCB49
:104B34009000E1E4F0A3742AF0A3E4F0A3742BF052
:104B44009000DDE4F0A3742CF0A3E4F0A3742EF041
:104B5400EF14602414603B14605324037072E490D7
:104B640000DCF09000D604F0A37440F0A37401F0CC
:104B7400A374E0F07D08804F9000DC7401F0900095
:104B8400D6F0A374E0F0A37401F0A37440F07D6840
:104B940080359000DC7402F09000D614F0A37440C9
:104BA400F0A37401F0A374E0F07DC8801A9000DCD7
:104BB4007403F09000D67401F0A374E0F0A37401C0
:104BC400F0A37440F07DA87C007F367E001259BAB1
:014BD40022BE
:1055C900788D7C017D017BFF7A5A79237E007F04E7
:1055D900121FE27B017A01798D900171E4F0A374C5
:1055E90004F07FD37E0012537590018FE0FEA3E093
:0355F900FDEDFFC6
:0155FC00228C
:1059590049443A25730D0A004552520000000000DF
:01596900003D
:105607004A0123815081588160816881704101225C
:015617000092
:0C59C800C2B212555C43B10453B2FB2282
:1054EB009001A9EFF0D2B2D2EB7F147E0012555C83
:1054FB00C2EBC2B27F147E0012555C9001A9E0642E
:10550B00287003D38001C392B27F147E0012555CC6
:09551B00D2EB7F147E0002555C06
:10594700C2EB7F0A7E0012555CD2EB7F0A7E000213
:02595700555C9D
:065A0700125A1E0259476D
:08575A0090019BEEF0A3EFF0BB
:1057620012591F7FBA12526390019BE0FF125263DB
:0B57720090019BA3E0FF1252637F0137
:01577D002209
:0B56C100900191EEF0A3EFF0A3EDF0DC
:1056CC0012591F900191E0FEA3E0FF12575A90016E
:0B56DC0093E0FF1252631258C97F01D7
:0156E70022A0
:084CF3007B017D017F4E7E81F3
:104CFB00900154EEF0A3EFF0A3EDF0A3EBF0A3EAD9
:044D0B00F0A3E9F038
:104D0F00E4A3F012591F900154E0FEA3E0FF1257E5
:104D1F005A12591F7F147E001258047FBB12526320
:104D2F00E490015BF0900156E0FF90015BE0FEC361
:104D3F009F502EEF14B50604E4FF80027F0112503E
:104D4F002C900157E0FBA3E0FAA3E0F990015BE0A0
:104D5F00F582758300EF12206090015BE004F08014
:0B4D6F00C41258C990015A7401F0FFF3
:014D7A002216
:1048F90078BE7C007D017BFF7A5979657E007F0453
:10490900121FE2125A077FBA1254EB7F327E00124D
:1049190059C87B017A0079BE7D047F407E81124CA3
:10492900FB9000BEE0643990000F704B74FFF0A358
:104939007459F0A37459F0A37401F0A37400F0A39F
:1049490074BEF07B017A0079C21228AE9000D7E0DC
:1049590024C8FF9000D6E034FFFE9001507401F0A6
:10496900A37400F0A374C2F0A37401F07B10E4FDFA
:10497900FC1249CB7F012274FFF0A37459F0A37490
:1049890059F0A37401F0A37400F0A374BEF07B0185
:104999007A0079C21228AE9000D7E024C8FF9000AF
:1049A900D6E034FFFE90015074FFF0A37459F0A3D0
:1049B9007461F0A37401F07B10E4FDFC1249CB7F14
:0149C90000ED
:0149CA0022CA
:1057A00078AA7C017D017BFF7A5979697E007F01AF
:1057B000121FE27A0179AA124CF39001AAE0540F69
:0157C000FFE9
:0157C10022C5
:102CCC00E4900146F0A3F090014AF0900122E00458
:102CDC00F0E0FF75F00A84E5F0600DC3EF940A7420
:102CEC008094804003022FA37A01794A124CF3900E
:102CFC00014AE030E718540FC39406748094805056
:102D0C000DE4900148F0FD7F4E7E811256C190017A
:102D1C004AE0540F7003022FA3C39406748094806E
:102D2C004003022FA3E0540FFFF874FF088002C386
:102D3C0033D8FCFF900148F09000BDE0900149F0C1
:102D4C00EFF444C09000BDF09000A9E0FFA3E09028
:102D5C0000B1CFF0A3EFF0A3E0FFA3E09000BBCF56
:102D6C00F0A3EFF0E4900146F0900146E0FFC3942D
:102D7C0005748094804003022F127E007401A80712
:102D8C00088005C333CE33CED8F9FF9000BDE0FDEB
:102D9C00EF5D7003022F09900146E025E02423F536
:102DAC0082E43401F583E0FEA3E0FF7B017A017934
:102DBC00427D04124CFB9000DCE0FD703790014327
:102DCC00E0FE900142E07A002400FFEA3EFE900112
:102DDC0046E0FC25E024A9F582E43400F583EEF00E
:102DEC00A3EFF0900145E0FE900144E02400FFEADF
:102DFC003E022EA2ED64017046900143E0FE90016C
:102E0C0042E07C002400FFEC3EFEC39000D9E09F22
:102E1C00FF9000D8E09EFE900146E0FD25E024B333
:102E2C00F582E43400F583EEF0A3EFF0900145E079
:102E3C00FE900144E07A002400FFEA3E022EF79057
:102E4C0000DCE0FD6402705B900143E0FE90014207
:102E5C00E07A002400FFEA3EFEC39000D7E09FFF1B
:102E6C009000D6E09EFE900146E0FC25E024A9F5FA
:102E7C0082E43400F583EEF0A3EFF0900145E0FE20
:102E8C00900144E02400FFEA3EFEC39000D9E09F8D
:102E9C00FF9000D8E09EFEEC25E024B3F582E434EC
:102EAC00008053ED64037055900143E0FE900142A5
:102EBC00E07C002400FFEC3EFE900146E0FD25E0A6
:102ECC0024B3F582E43400F583EEF0A3EFF0900127
:102EDC0045E0FE900144E07A002400FFEA3EFEC388
:102EEC009000D7E09FFF9000D6E09EFEED25E024F9
:102EFC00A9F582E43400F583EEF0A3EFF0900146DF
:102F0C00E004F0022D759001477401F09000D6E0BA
:102F1C00FEA3E0FFD39000AAE09F9000A9E09E5092
:102F2C00149000D8E0FEA3E0FF9000B4E09F900066
:102F3C00B3E09E405D90014AE0540FD3940174803D
:102F4C00948040209000ABE0FFA3E09000A9CFF06C
:102F5C00A3EFF09000B5E0FFA3E09000B3CFF0A397
:102F6C00EFF0802E9000B1E0FFA3E09000A9CFF02D
:102F7C00A3EFF09000BBE0FFA3E09000B3CFF0A371
:102F8C00EFF090014A7480F0900149E09000BDF0A0
:102F9C008005E4900122F090014AE0548F64807027
:102FAC00219000BDE030E705547FF0801574FF9050
:102FBC0000A9F0A3F09000B3F0A3F09000BDE05492
:102FCC00E0F0900122E0D394F0748094804003747C
:072FDC000AF0900147E0FF3D
:012FE30022CB
:075A00007F017E0002580443
:0458F500C2EDE4FF1D
:1058F900EF6401700543CB10800353CBEF53CCEF1A
:01590900227B
:055A1E00D2EDD2EC22E4
:10591F00E4FF1258F9D2ECD2ED125A00C2EC125A2F
:04592F0000C2ED22A3
:1058C900E4FF1258F9C2EDC2EC125A00D2ED125A95
:0658D90000D2EC025A00AF
:10559400E49001ABF07F011258F9D2EC125A00D218
:1055A400ED125A0030EC1A9001ABE004F0E0D39411
:1055B400FA7480948040ED1258C9E4FF1258F90F30
:0455C400221258F562
:0155C80022C0
:10598B001258F5C2EC125A00D2ED125A00C2ED2297
:10599B001258F5D2EC125A00D2ED125A00C2ED2277
:0552630090019DEFF039
:10526800E4FF1258F9C2EDE4A3F090019EE0C39464
:105278000874809480502890019DE0FF5480FEC4FB
:10528800131313540124FF92ECEF25E0F0D2ED1232
:105298005A00C2ED125A0090019EE004F080CB0241
:0252A80055941B
:05502C00900194EFF07B
:10503100E4900196F07F011258F9E4900195F09007
:105041000195E0C39408748094805021C2ED7F01E2
:105051007E001257E3D2ED900196E0FF25E0F0309B
:10506100EC03E004F0900195E004F080D29001940B
:10507100E0700512599B800312598BE4FF1258F915
:05508100900196E0FF24
:015086002207
:105618005500A90000000000000000000000000084
:0856280000000000000000007A
:065A0D001248F97F00229F
:035A2700022CCC82
:10570F00759D01EF4488F5BC00000000E5BC30E456
:10571F00FB53BCEFAFBDEF75F004A4ADBE7C002D05
:05572F00FFEC35F0FE67
:015734002252
:10533200E49001ACF043A210F5D8F5E9F5F975D97E
:1053420002F5F275EA2075FA2075DA42D2DE7FC8DC
:105352007E001255249001ACE0240AF0E0D394C8F8
:10536200748094804002E4F09001ACE0FFF5EA8F93
:03537200FA80DBE3
:0553F70090019FEFF0A2
:1053FC00E4A3F01258B27FA012517F1254369001E0
:10540C009FE0FF12517F1254361258B27FA11251F5
:10541C007F1254361251CE9001A0EFF0C2091258EF
:09542C00631258DF9001A0E0FFBB
:015435002254
:105631009001A1EFF0A3EDF01258B27FA012517FBB
:105641001254369001A1E0FF12517F12543690019D
:10565100A2E0FF12517F1254361258DF7F0A7E00FA
:03566100025524CB
:1053B70090017FEFF0A3EBF0A3EAF0A3E9F09001EF
:1053C70083E0FF14F0EF602790017FE0FFA3E0FB8D
:1053D700A3E0FAA3E0F9122008FD12563190017FED
:1053E700E004F0900181E475F0011220CA80CF2219
:1054B000900184EFF0A3EBF0A3EAF0A3E9F09001F0
:1054C00088E06026900184E0FF04F01253F7900119
:1054D00085E0FBA3E475F0011220E0A9F0FAEF12D9
:0B54E000204E900188E014F080D422E0
:10596A00EF64017006759140F59222E4F591F59283
:01597A00220A
:1058B200D296D2957F027E001257E3C2967F027E75
:0758C200001257E3C295221A
:1058DF00C295C2967F027E001257E3D295D2967F71
:0658EF00027E000257E3F7
:10543600E49001ADF07F0112596AD2967E001257B0
:10544600E3D2957F017E001257E330961A9001ADA4
:10545600E004F0E0D394FA7480948040ED1258DFB3
:0E546600E4FF12596A0F22C295E4FF12596A40
:015474002215
:05517F009001A3EFF018
:10518400E4A3F09001A4E0FFC394087480948050D9
:10519400389001A3E0FEA807088002C333D8FC308E
:1051A400E704D2968002C2967F017E001257E3D2B2
:1051B400957F017E001257E3C2957F017E0012574E
:0951C400E39001A4E004F080BABC
:0151CD0022BF
:1051CE00E49001A5F07F0112596AE4A3F09001A6C4
:1051DE00E0C39408748094805027C2957F017E00AE
:1051EE001257E3D2959001A5E025E0F0309603E04A
:1051FE0004F07F017E001257E39001A6E004F080D8
:0B520E00CCE4FF12596A9001A5E0FFFC
:015219002272
:10586300C295300904C2968002D2967F027E00124E
:0E58730057E3D2957F027E001257E3C29522C2
:10593300D297C2977F7D7E001257E3D2977F047E72
:04594300000257E324
:104F6600E490000EF030971990000EE0C39432746E
:104F7600809480500CE004F07F017E001257E3809D
:104F8600E490000EE0C394647480948040037F0133
:104F960022E490000EF020971990000EE0C3943C96
:104FA60074809480500CE004F07F017E001257E379
:104FB60080E490000EE0C3943C7480948040037FAC
:044FC60001227F0045
:014FCA0022C4
:065A1300125933024F6638
:05512F0090000EEFF0FE
:10513400A37408F090000FE0D3940074809480402E
:105144003990000EE0FF5401FEEF13F0AF06EF605C
:105154000FC2977F017E001257E3D2977F0F800D15
:10516400C2977F0F7E001257E3D2977F017E001211
:0A51740057E390000FE014F080BA3A
:01517E00220E
:1050DE00E490000FF090000E7408F090000EE0D3F4
:1050EE009400748094804031D297A3E013F0C2975D
:1050FE007F027E001257E3D2977F037E001257E3A2
:10510E0030970790000FE04480F07F0D7E0012571D
:10511E00E390000EE014F080C2D29790000FE0FFF3
:01512E00225E
:104DFC00125933124F667FCC12512F7F4412512F10
:104E0C00125933124F667FCC12512F7FBE12512F85
:104E1C001250DE90000CEFF01250DEEFFBD3940733
:104E2C0074809480400EEFF4FF90000CE0F4F0E4FA
:104E3C00A3F0800690000D7401F0EB7B00FA90005B
:104E4C000CE02BFBE43AFAAD03FC121B0EE4FBFA6C
:104E5C007920783F121A03121B47AA06AB07900061
:0C4E6C000DE0600122C3E49BFFE49AFE0D
:014E78002217
:1000030000000000000000000000000000000404E5
:10001300040404040004000000140A0A00000000A1
:1000230000000000000014143F140A3F0A0A0000F5
:1000330000041E1505060C14150F0400000012150C
:100043000D0A142C2A1200000000040A0A1E1515BA
:100053000936000000020201000000000000000059
:1000630000201008080808080810200000020408EF
:10007300080808080804020000000004150E0E1505
:100083000400000000000404041F04040400000032
:100093000000000000000000000202010000000058
:1000A300001F00000000000000000000000000002E
:1000B3000002000000100808080404020202010004
:1000C30000000E1111111111110E000000000406A1
:1000D30004040404040E000000000E1111080402BD
:1000E300011F000000000E11100C1010110E000073
:1000F3000000080C0A0A091E0818000000001F016E
:10010300010F1010110E000000000E09010F111154
:10011300110E000000001F09080404040404000079
:1001230000000E11110E1111110E000000000E112E
:1001330011111E10120E0000000000000400000048
:10014300000400000000000000040000000404009C
:100153000020100804020408102000000000000022
:100163001F00001F000000000002040810201008F8
:100173000402000000000E11110804040004000032
:1001830000000E111915151D011E000000000404C6
:100193000C0A0A1E1233000000000F12120E121274
:1001A300120F000000001E1101010101110E0000D9
:1001B30000000F1212121212120F000000001F1281
:1001C3000A0E0A02121F000000001F120A0E0A0282
:1001D3000207000000001C1201013911120C00007B
:1001E30000003312121E12121233000000001F040B
:1001F30004040404041F000000003E080808080863
:1002030008090700000037120A060A0A123700001D
:100213000000070202020202223F000000001B1B33
:100223001B1B15151515000000003B1216161A1A94
:100233001217000000000E1111111111110E000010
:1002430000000F12120E02020207000000000E113E
:1002530011111117190E180000000F12120E0A12B5
:100263001237000000001E1101060810110F0000D4
:1002730000001F1504040404040E000000003312E0
:1002830012121212120C000000003312120A0A0C8E
:100293000404000000001515150E0A0A0A0A0000DE
:1002A30000001B0A0A04040A0A1B000000001B0AC0
:1002B3000A040404040E000000001F0908040402D9
:1002C300121F0000001C04040404040404041C00A2
:1002D300000202020404080808100000000E0808C7
:1002E3000808080808080E0000040A0000000000BF
:1002F3000000000000000000000000000000003FBC
:1003030000040000000000000000000000000000E6
:10031300000C121C123C000000000302020E121219
:10032300120E000000000000001C1202021C00005C
:1003330000001810101C1212123C000000000000F4
:10034300000C121E021C000000003804041E0404EA
:10035300041E000000000000003C120C021E221CC0
:1003630000000302020E1212123700000000040004
:1003730000060404040E000000000800000C080836
:100383000808080700000302023A0A0E12370000A9
:100393000000070404040404041F0000000000001C
:1003A300000F15151515000000000000000F1212B4
:1003B3001237000000000000000C1212120C0000A3
:1003C30000000000000F1212120E020700000000CE
:1003D300001C1212121C103800000000001B060241
:1003E3000207000000000000001E020C101E0000A7
:1003F30000000004040E04040418000000000000C0
:10040300001B1212123C0000000000000037120A09
:100413000C040000000000000015150E0A0A00007D
:1004230000000000001B0A040A1B0000000000007B
:100433000037120A0C04040300000000001E080425
:10044300041E00000018080808040808080818001B
:10045300080808080808080808080808000604042B
:100463000408040404040600022518000000000028
:100473000000000000000000000000000000000079
:100483000000000000000008080808080808000031
:100493001818000000486C2412000000000000003F
:1004A300000000000000002424247F1212127F1297
:1004B300121200000000081C2A2A0A0C1828282AF5
:1004C3002A1C080800000022251515152A58545423
:1004D300542200000000000C1212120A7625291182
:1004E300916E0000000606040300000000000000F7
:1004F3000000000000402010100808080808081039
:1005030010204000000204080810101010101008FA
:10051300080402000000000008086B1C1C6B08089C
:100523000000000000000000080808087F08080811
:1005330008000000000000000000000000000000B0
:10054300060604030000000000000000FE00000097
:100553000000000000000000000000000000000098
:100563000606000000008040402020101008080408
:100573000402020000000018244242424242424266
:1005830024180000000000080E08080808080808DE
:10059300083E00000000003C4242422020100804B4
:1005A300427E00000000003C4242201820404042AE
:1005B300221C0000000000203028242422227E2058
:1005C300207800000000007E0202021A264040420A
:1005D300221C0000000000382402021A2642424274
:1005E300241800000000007E2222101008080808CA
:1005F300080800000000003C424242241824424202
:10060300423C00000000001824424242645840402B
:10061300241C000000000000000018180000000067
:10062300181800000000000000000008000000008F
:100633000008080400000040201008040204081009
:10064300204000000000000000007F0000007F0049
:1006530000000000000000020408102040201008E1
:10066300040200000000003C4242464020101000FB
:10067300181800000000001C225A555555552D42EC
:10068300221C00000000000808181414243C224215
:1006930042E700000000001F2222221E22424242A3
:1006A300221F00000000007C4242010101010142BF
:1006B300221C00000000001F2242424242424242EA
:1006C300221F00000000003F4212121E12120242BB
:1006D300423F00000000003F4212121E12120202AB
:1006E300020700000000003C2222010101712122C7
:1006F300221C0000000000E7424242427E42424286
:1007030042E700000000003E08080808080808083F
:10071300083E00000000007C101010101010101094
:100723001010110F0000007722120A0E0A12122273
:100733002277000000000007020202020202020206
:10074300427F000000000077363636362A2A2A2AEE
:100753002A6B0000000000E346464A4A52525262A6
:10076300624700000000001C2241414141414141D8
:10077300221C00000000003F424242423E020202AD
:10078300020700000000001C2241414141414D533A
:10079300321C60000000003F4242423E12122222FD
:1007A30042C700000000007C42420204182040427D
:1007B300423E00000000007F4908080808080808B6
:1007C300081C0000000000E742424242424242420B
:1007D300423C0000000000E7424222242414141883
:1007E300080800000000006B494949495555362265
:1007F30022220000000000E74224241818182424B1
:1008030042E70000000000772222141408080808B9
:10081300081C00000000007E212010100804044280
:10082300423F00000078080808080808080808087C
:1008330008087800000002020404080808101020C9
:1008430020204040001E1010101010101010101027
:1008530010101E00003844000000000000000000DB
:100863000000000000000000000000000000000085
:10087300000000FF00060800000000000000000068
:1008830000000000000000000000003C42784442E9
:1008930042FC0000000000030202021A2642424208
:1008A300261A000000000000000000384402020283
:1008B3004438000000000060404040784442424217
:1008C30064D80000000000000000003C427E0202E9
:1008D300423C0000000000F08808087E0808080871
:1008E300083E0000000000000000007C22221C02E1
:1008F3003C42423C000000030202023A46424242AA
:1009030042E700000000000C0C00000E0808080875
:10091300083E000000000030300000382020202076
:100923002020221E0000000302020272120A161285
:10093300227700000000000E0808080808080808CD
:10094300083E0000000000000000007F9292929297
:1009530092B70000000000000000003B4642424204
:1009630042E70000000000000000003C4242424217
:10097300423C0000000000000000001B26424242EF
:10098300221E020700000000000000784442424299
:10099300447840E000000000000000774C040404A9
:1009A300041F0000000000000000007C42023C40E5
:1009B300423E0000000000000008083E0808080846
:1009C3000830000000000000000000634242424281
:1009D30062DC000000000000000000E74224241451
:1009E3000808000000000000000000EB49495555CD
:1009F30022220000000000000000007624181818CE
:100A0300246E000000000000000000E742242414CC
:100A130018080807000000000000007E22100808E4
:100A2300447E000000C02020202020102020202011
:100A33002020C000101010101010101010101010F3
:100A43001010101000060808080808100808080805
:100A5300080806000C32C20000000000000000007D
:100A630000000000C9EE000027FC140414A4811048
:100A730042084040104017FC2040E0E0215022484B
:100A83002C4620400040DBDA1104112411241124E8
:100A93001124FD24112411241124112411241D24B3
:100AA300E124422402040404CAD00200010000002D
:100AB3007FFC0100010001003FF821082108210803
:100AC30021082128211001000100C8AB000000000B
:100AD300018002400430180860061FF9010001007C
:100AE30001003FF80100010001007FFEB6AF0000E6
:100AF300000000203E20007C002200227F221022E2
:100B0300102212221222224223423D82009CB5E788
:100B13000000010001001FF0610C410441047FFC4F
:100B23004104410441047FFC01000102010201FC74
:100B3300D7D3000000003FF80010006000800100E0
:100B430000807FFE0040004000200020002018406D
:100B53000780BCBC00000000104013FE10407C4026
:100B6300104013FC1104190830885050106010D045
:100B730013087C06CAF500000100013001080100DA
:100B83007FFE018003400540052009101108210460
:100B9300410201000100D3D00000010002007FFEEA
:100BA300040008001FFC700490041FFC10041004D0
:100BB3001FFC10041004103CCFDE000000007BFC7F
:100BC3004A044A044BFC52044A044BFC4A404A443C
:100BD3007A2842304210420843C6B9AB00000000F5
:100BE30004400420081010101008210442020220BF
:100BF30004100810080810081FFC0004CBBE0000F6
:100C030000003FFC000400043FF400043FE4202400
:100C130020242024202420241FC40004007CBBB6ED
:100C23000000000000807EFC02A202A222A4152480
:100C330014240C300C300C481248228442840102E4
:100C4300D3AD000000002398246414440444644496
:100C5300144414441444144415C4125C1040284032
:100C630047FEC4FA00000000120013FE24222522CE
:100C7300652862242224242020E0050814842444C7
:100C8300241A47F2B4BF00000020102013FE2020D6
:100C930026244A247A241224222423FC7C200022A2
:100CA30004227822003CC9AB0000000004000FF0CE
:100CB300102020207FFC20842084208420843FF87F
:100CC3002000200220021FFECCEE00000000204086
:100CD30023FE204079FC220423FC220423FC22046B
:100CE30023FC3A0465FA01980204B3E4000001000E
:100CF30001007FFE02200410040808043FFC0442A4
:100D030004400440044208421042607EBED8000002
:100D13000000207E3E804880488048FE48827F82D3
:100D230008820C8214FA12842280218040FED0CEE5
:100D3300000000007F842208223022C02202220405
:100D43007FC8223022C222022204220822304040DD
:100D5300BBAD000000007FFE00000FF0111011106A
:100D6300111051125FF25112511251124FF24002FF
:100D73007FFCD4B2000000007FFE47E24812481215
:100D830047E24FF2501250125112511242924472E2
:100D9300580A3FFCC8FD000000007FFC0000000073
:100DA300000000003FF80000000000000000000009
:100DB300FFFE00000000BDC7080008001FE0202060
:100DC3004040BFF8210821083FF8210821083FF8D7
:100DD3002108410841288010CDBC000000003FFEDF
:100DE300440247F24C225362408243625E1A4182BC
:100DF3004062430240C240223FFCC6AC00000040B8
:100E03002040204020403FFE2000200020003FE003
:100E1300201020102010201040104010CFD40000CC
:100E230000003FFC200420043FFC200420041FF8A2
:100E330024441448144814480C5004407FFECABE8E
:100E4300000000003FFC0000000000007FFE008067
:100E530008900888108810842084208240820780AC
:100E6300B2CB0000002008207FFE002000783F88DE
:100E73001108089009207FFE018003400D30310CDA
:100E83004002B5A500000010081004203FF821041B
:100E930021043FFC210421043FF801007FFE0100EF
:100EA30001000100D6D000000100010001003FFC59
:100EB3002104210421042104210421043FFC010015
:100EC300010001000100D3A20000000008207FFE02
:100ED3000820092001003FF82108210821081FF4F8
:100EE300014002200C10700ECEC40000010001006E
:100EF30000803F7C081008100410042002200240E8
:100F03000180018002601C18E006D7DB00000000AE
:100F1300102011FE2202220249FC5800300013FE69
:100F23002528792401240D24722202A2BACF0000BD
:100F33000000018002400430180860061FF800001A
:100F43001FF8200420042004200420041FF8C1C13A
:100F53000000010001007FFE00003FF820083FF879
:100F63003FF8400647C24824082008221022603E6A
:100F7300B6C80000000000803FFE44105FFC441030
:100F8300441043F040005FF84408423041C04360DE
:100F9300BC1EB2E20000000067C2145205520552A3
:100FA300C55225520552055215521752228222422A
:100FB3004442483ECAD4000000002014101417FE17
:100FC30000120010601013F0109010901090149203
:100FD30014EA1F0A0006B3CC0000000019FE7202D7
:100FE300120212027DFC18001BFE3420502053FE17
:100FF30010201020102013FED0F20000000000800B
:101003003FFE400047FC4208413040C05FFE404283
:1010130040424044404840404440B5F7000000008F
:1010230023FE122202FA0222E22212FE1272128A14
:10103300128A128A16BA1A421202040EB9E2000088
:101043000100010411080908091009207FFE04406A
:10105300044004400440084208421042607CB0E669
:101063000000000048FE4900490049007EFE41821D
:101073004144794445284528451045284644038280
:10108300C8A800001000100013FC7D04110419040B
:10109300188434885048505010201050108813047E
:1010A3001402CBF9000000003F7C204020403E406A
:1010B300227E2244224422443E842084208440848D
:1010C30041044204C6C100003FF8200820083FF84D
:1010D300241022202FF8222022203FFC222042200D
:1010E300442084200820C4BB04407FFC04401FF03C
:1010F30010101FF010101FF00400FFFE11103FF836
:10110300D116115011200100D0FD2080108010FE57
:101113000100FE0021FC20243C2424A024A024BCA4
:1011230024A024A04560553E8A00D7AA2020202071
:101133002020FDFC4020504093FEFC40108011FC19
:101143001C04F0885050102010101010BFAA00008B
:101153007FFC08200820082008200820FFFE082024
:101163000820082008201020102020204020D4B47C
:10117300000027FE1420144085FC450445FC15049B
:1011830015FC2524E42024A829242A2230A0004089
:10119300D2BA0080204017FE11208120423C4244F5
:1011A300166412942348E2482230222022502288D7
:1011B3000306BEA70FE0082008200FE00820082040
:1011C3000FE000007EFC428442847EFC4284428421
:1011D3007EFC4284CDF800007FFC400440044214AE
:1011E30052944A54442444244A544A545294610421
:1011F300400440144008D5BE1020082008207E205B
:10120300003E04204420442025FC290429040F0423
:10121300F104410401FC0104B0B41040102010207B
:1012230013FEFA02144410401BFE3088D0881108C4
:1012330010D01020105050882304BCFC2010201024
:101243003B7C211441FE7A14A27C2710F97C2510E3
:1012530025FE22102A10350028FE0000D0A31040DE
:101263001020102011FEFC00108831043A0254882B
:101273005088905010501020105010881306D7BC7F
:1012830001404120212023FE022016201BFC1220B6
:10129300222023FCE2202220222023FE220002001F
:1012A300B4A520202020782049FC91247D245524B6
:1012B30055247DFC552454207C28542457FE450294
:1012C3008C00C3FE1110111017FC1110FC0013F851
:1012D300120817F81A0833F8D04017FC10A01110A1
:1012E30052082406B6C10020202011FC1020002043
:1012F30003FEF002109410501110109013FE1428E6
:10130300184410820302BACD04000E007800087C52
:101313000844FF44084418441C442A442A444844CB
:10132300887C084408000800D1D5100008FE7F100F
:101333002220147C7F444454485452544454485407
:1013430051544228442488423082D6B5084008408C
:101353000FFC1040104033F8320853F8920813F88A
:10136300120813F8120812081FFE1000C8DD02004D
:1013730001007FFE400288241110228804400820C7
:101383003018DFF61010101010101FF01010D6A731
:101393000100010001007FFC0100010001003FF09A
:1013A3001010082004400280010006C01830E00E2F
:1013B300B3D610201020102011FCFC20102013FEA7
:1013C3001008180833FED008108810481008502859
:1013D3002010B5E302000200020003FC0200020039
:1013E3003FF02010201020103FF0000024882244FA
:1013F30042448004D1A722081108111000207FFE67
:10140300400280041FE000400180FFFE0100010054
:10141300010005000200F3BB0FE010201FC00040D5
:10142300FFFE0C1073200DC072B00C8EF3207CF8FD
:1014330054A87CF81224FEFCBFC608101D10F090BF
:1014430010901010FD10109038903410501E53F06F
:1014530090101010101010101010C9EE00000000B2
:1014630000001000000800080C7FFC04401001C8B5
:10147300A002186042301832231812C3001403006C
:1014830004030C047FF0080F80080B4078136018E6
:10149300332018631818831C19030818030000036A
:1014A30000000000DBDA00000000000004100C0460
:1014B300180C04108C04108C04108C04108C04D0B1
:1014C3008C3F108C04108C04108C04108C04108C32
:1014D30004108C04108C05F08C0E208C78208C204A
:1014E300408C00808C01000C02000C000000CAD06C
:1014F3000000000000000030000018000018080081
:10150300001C1FFFE000180000182007FFF004185C
:10151300200418200418200418200418200418207C
:101523000418200418200418200418E004184000AC
:101533001800001800000000D6D0000000000000D2
:101543000000000000000018000018000018000050
:1015530018003FFFFE301806301806301806301802
:10156300063018063FFFFE3018060018000018006A
:101573000018000018000018000000000000000020
:101583000000CEC40000000000000000000038008E
:10159300001C00000600FFFFFF06003006003003BA
:1015A30000600300600180C000C18000E3000036DA
:1015B30000001C0000770003C1E01E003C60000730
:1015C300000000000000000000000000B2E2000084
:1015D3000000000000000000000040000321FF3372
:1015E300398333118333019B33C19B33719B33198C
:1015F3009B33019B33019B33119B3319B33330303E
:1016030033306C0330C6036383032E01BE00000036
:10161300000000000000CAD4000000000000000029
:10162300000000004000D83000CE1800C21C00C0EB
:1016330001FFFF0000C0F800C01800C019FFC01868
:1016430018401818601918601B18611E18311C1FE8
:10165300B139F01910000F00000000000000000075
:10166300D1A70000000060E00630F00738E003BDBA
:10167300C0039D801B9B8C1FFFFE38001E3800D8C3
:101683007FFFF02203E0000780001E00001C1C7F88
:10169300FFFE201C00001C00001C00001C0001FCBD
:1016A3000000F800003800000000F3BB0000000158
:1016B300C18001FFC003818003FF8003038C7FFF90
:1016C300FE20F0E007FBE03EFF0007FFC03CFFFE0B
:1016D30007CE7E3F7FCC03BDC83FFFFC3B7DDC3B99
:1016E3007DDC3FFFFC3BEDF80371DC7FFFFE3C3FFD
:1016F3000E000000D7D60000000000060000000323
:1017030000000000C0000001C0C0000107C00001CC
:10171300FF00021FFE0007F01C0007C070000F004F
:10172300E0000E03F0001C0FF0003C0F70003C00C3
:10173300E0001800C0000000C0000000C00000006E
:10174300600000002000000037000001FF00007F60
:10175300F80007F830001F8030000080300000C020
:101763003000006060000018E000000FC0000006B9
:10177300000000000000CCE50000000000000000B5
:10178300000000C0000000E0002001B800703FF836
:101793000061FFC000C3030001C60600038C0600FE
:1017A30003080C0006080C000E18183F1E101BF34C
:1017B3001F903F0700803C1C0190707C019060FEED
:1017C30001A0C3F801A00FD803A0081803600018F4
:1017D3000340001803C0001803800018030000181A
:1017E300000000180000001000000030000000306E
:1017F3000000000000000000B2E200000000000052
:1018030000000000000000000000020C1008071F89
:10181300F80403BFF00201BC300303EC3003015CA6
:10182300600300D8600300D860038098620361B846
:10183300430771B14306313243063376C3063A6434
:10184300C7063EECC0063E78C0063C3040067C70BE
:10185300000678E060067BFFF006F7C00006E400B0
:10186300000640000006000000060000007C0000A7
:101873008FF000007C0000000000CAD400000000CC
:10188300000000000000000000003F0000007F8017
:1018930000000180000000C0000000C0000000CE76
:1018A300038000CFFFC000DD41800FFE0007FFFC77
:1018B300000C00F000180FC03E19FF40F311BC608C
:1018C30083307FE003B1FE200333802003700030B8
:1018D300036000100360001807C0000C07C0000479
:1018E3000780000201000003000000010000000067
:1018F300000000000000000000000000D1A700006D
:101903000000000000000003840000038FC00003F8
:1019130083E0003FC1C0003FFFC00077EF8000EFCE
:10192300DF0001FD9F0003FBFF0000EFFF0000FF4E
:10193300FFF000FF3FFC0061FC3C0077E07E007F8E
:101943003EF80DFC7EC01FE3F8001D9FF000381F1A
:10195300E0007819F00070007F000007FF00000F1F
:10196300F000000470000000700000007000000030
:10197300E0000001E0000007C000001FC000F3BB4F
:1019830000000000000600000007E0000007F00070
:10199300000EF000001DE000001FC000003F9FC0CC
:1019A300007FFFC0007FE000001F3C0000FE1E0020
:1019B3000FFFBC000F3FFF8000FFFF8000FFF00020
:1019C300003E7000007EF000003FFFE0007FFFE07C
:1019D300007FBDC007F77F8003FFFF8003FFDF8029
:1019E30001FDFF0001FFF9C001FFF8E0007F3FF0B8
:1019F30001E33E380F83F8380E07E0380003800018
:1056640090013CFEE0FCA3E0FD90013BE02DFD90A9
:0D567400013AE03CFC900140E0FAA3E0FBAD
:105681009001A7EAF0A3EBF01258449001A7E0FEC5
:06569100A3E0FF0259DF57
:1045E800900055E0FCA3E0FD900053E0FAA3E0FB47
:1045F800A3E0FFA3E09000EBCFF0A3EFF09000D290
:10460800E0FFA3E09000EDCFF0A3EFF0900051E0C1
:04461800FEA3E0FF1E
:0E461C009000E5EEF0A3EFF0A3ECF0A3EDF0BC
:10462A009000E5E0FEA3E0FFC3EB9FFFEA9ECF24E4
:10463A0001CF34009000F3F0A3EFF09000E7E0FE22
:10464A00A3E0FFC39000ECE09FFF9000EBE09ECF59
:10465A002401CF34009000F5F0A3EFF09000E7E0DA
:10466A00FCA3E0FD9000EBE0FFA3E0900043CFF055
:10467A00A3EFF09000E5E0FEA3E0FF124FCBE49039
:10468A0000EFF0A3F09000F5E0FEA3E0FFC3900076
:10469A00F0E09F9000EFE09E5047E49000F1F0A315
:1046AA00F09000F3E0FEA3E0FFC39000F2E09F90D9
:1046BA0000F1E09E501B9000EDE0FEA3E0FF1259CE
:1046CA00DF9000F2E004F070D89000F1E004F0808E
:1046DA00D09000F0E004F070AC9000EFE004F080BD
:1046EA00A49000D7E024FFFB9000D6E034FFFA90B4
:1046FA0000D9E024FFFE9000D8E034FF900043F098
:0B470A00A3CEF0E4FDFCFFFE024FCB4D
:0E41790090008DEEF0A3EFF0A3ECF0A3EDF0BC
:10418700E4900097F0A3F0A3F0A3F090008DE0FE79
:10419700A3E0FFC3EB9FFFEA9E90009BF0A3EFF025
:1041A70090008FE0FAA3E0FBC3900094E09BFE90A1
:1041B7000093E09A90009DF0A3CEF090008DE0FF71
:1041C700A3E09000A5CFF0A3EFF0A3EAF0A3EBF0F4
:1041D70090009BE0FEA3E0FFD39400EE6480948000
:1041E700400A9000A1E4F0A304F08021EF4E70088C
:1041F7009000A1F0A3F0801574FF9000A1F0A3F048
:10420700C3E49FFFE49E90009BF0A3EFF090009D16
:10421700E0FEA3E0FFD39400EE64809480400A9010
:1042270000A3E4F0A304F08021EF4E70089000A3F0
:10423700F0A3F0801574FF9000A3F0A3F0C3E49FF0
:10424700FFE49E90009DF0A3EFF090009DE0FEA399
:10425700E0FF90009BE0FCA3E0FDD39FEE6480F8B5
:10426700EC64809890009F4007ECF0A3EDF0800588
:10427700EEF0A3EFF0E4900095F0A3F09000A0E03B
:104287002401FF90009FE03400FED3900096E09F4A
:10429700900095E09E40030243639000A5E0FEA3D3
:1042A700E0FFA3E0FCA3E0FD12569790009BE0FE21
:1042B700A3E0FF900098E02FF0900097E03EF09089
:1042C700009DE0FEA3E0FF90009AE02FF090009998
:1042D700E03EF090009FE0FEA3E0FF900097E0FC37
:1042E700A3E0FDD39FEE6480F8EC6480984020ED56
:1042F7009FFFEC9E900097F0A3EFF09000A1E0FEE7
:10430700A3E0FF9000A6E02FF09000A5E03EF0901C
:10431700009FE0FEA3E0FF900099E0FCA3E0FDD33F
:104327009FEE6480F8EC6480984020ED9FFFEC9E40
:10433700900099F0A3EFF09000A3E0FEA3E0FF90B8
:1043470000A8E02FF09000A7E03EF0900096E00470
:0C435700F07006900095E004F002428334
:014363002237
:0E3B820090006DEEF0A3EFF0A3ECF0A3EDF0D9
:103B9000E490007BF0A3F0A3F0A3F090006DE0FEB2
:103BA000A3E0FFC3EB9FFFEA9E90007FF0A3EFF03E
:103BB00090006FE0FAA3E0FBC3900074E09BFE90DE
:103BC0000073E09A900081F0A3CEF090006DE0FFCA
:103BD000A3E0900089CFF0A3EFF0A3EAF0A3EBF00D
:103BE00090007FE0FEA3E0FFD39400EE6480948019
:103BF000400A900085E4F0A304F08021EF4E7008A5
:103C0000900085F0A3F0801574FF900085F0A3F07C
:103C1000C3E49FFFE49E90007FF0A3EFF09000814B
:103C2000E0FEA3E0FFD39400EE64809480400A900D
:103C30000087E4F0A304F08021EF4E700890008725
:103C4000F0A3F0801574FF900087F0A3F0C3E49F09
:103C5000FFE49E900081F0A3EFF0900081E0FEA3CE
:103C6000E0FF90007FE0FCA3E0FDD39FEE6480F8CE
:103C7000EC6480989000834007ECF0A3EDF08005A1
:103C8000EEF0A3EFF0E4900079F0A3F0900084E070
:103C90002401FF900083E03400FED390007AE09F7F
:103CA000900079E09E4003023D8B90008BE0FCA3E6
:103CB000E0FD900077E0FAA3E0FB900075E0FFA341
:103CC000E09000FDCFF0A3EFF0A3E4F0A304F090A8
:103CD0000089E0FEA3E0FF123F8390007FE0FEA397
:103CE000E0FF90007CE02FF090007BE03EF0900041
:103CF00081E0FEA3E0FF90007EE02FF090007DE0E9
:103D00003EF0900083E0FEA3E0FF90007BE0FCA388
:103D1000E0FDD39FEE6480F8EC6480984020ED9F36
:103D2000FFEC9E90007BF0A3EFF0900085E0FEA3F7
:103D3000E0FF90008AE02FF0900089E03EF09000D4
:103D400083E0FEA3E0FF90007DE0FCA3E0FDD39FB5
:103D5000EE6480F8EC6480984020ED9FFFEC9E902C
:103D6000007DF0A3EFF0900087E0FEA3E0FF90005D
:103D70008CE02FF090008BE03EF090007AE004F0B1
:0B3D80007006900079E004F0023C8C1B
:013D8B002215
:104A8A00900160EAF0A3EBF090015CEEF0A3EFF086
:104A9A00A3ECF0A3EDF0C007A3E0FAA3E0FB9001BA
:104AAA005EE0FFA3E0900093CFF0A3EFF0D00712EF
:104ABA00417990015CE0FAA3E0FBFFAE02C007A3D4
:104ACA00E0FCA3E0FD900162E0FFA3E0900093CF39
:104ADA00F0A3EFF0D007124179900162E0FCA3E065
:104AEA00FD900160E0FAA3E0FBA3E0FFA3E09000E1
:104AFA0093CFF0A3EFF090015CE0FEA3E0FF124138
:104B0A0079900160E0FAA3E0FBFFAE02C0079001D2
:104B1A005EE0FCA3E0FD900162E0FFA3E090009359
:0A4B2A00CFF0A3EFF0D007024179AD
:10573500C00790016AE0FFA3E09000EBCFF0A3EF74
:10574500F09000D2E0FFA3E09000EDCFF0A3EFF0E2
:05575500D00702461C14
:1044AB0090013EF0A3EFF09000FBE0FFA3E0900142
:0E44BB0040CFF0A3EFF09000F7E0FEA3E0FF8B
:1044C90090013AECF0A3EDF0900138EEF0A3EFF093
:1044D90090013CEAF0A3EBF02FFFEE3AA3125667E6
:1044E90090013CE0FEA3E0FFC3900139E09FFF90FB
:1044F9000138E09EFE90013E12566890013CE0FEB4
:10450900A3E0FF900139E02FFF900138E03EFE90D3
:10451900013EE0FCA3E0FDC390013BE09DFD90015D
:104529003AE09C12567890013CE0FEA3E0FFC3906C
:104539000139E09FFF900138E09EFE90013EE0FCCA
:10454900A3E0FDC390013BE09DFD90013AE09C1280
:10455900567890013EE0FEA3E0FF900139E02FFF7D
:10456900900138E03E12566490013EE0FEA3E0FF60
:10457900C3900139E09FFF900138E09E1256649084
:10458900013EE0FEA3E0FF900139E02FFF900138E2
:10459900E03EFE90013CE0FCA3E0FDC390013BE05E
:1045A9009DFD90013AE09C12567890013EE0FEA3F1
:1045B900E0FFC3900139E09FFF900138E09EFE9033
:1045C900013CE0FCA3E0FDC390013BE09DFD9001AF
:0F45D9003AE09CFC900140E0FAA3E0FB0256811F
:103F83009000F7EEF0A3EFF0A3ECF0A3EDF0A3EABB
:043F9300F0A3EBF0BC
:103F9700E4900101F0A3F09000FDE0FEA3E0FF90A4
:103FA7000103EEF0A3EFF025E0FFEE33FEC3740349
:103FB7009F900108F0E49E900107F09000FFE070E9
:103FC70002A3E070030240C6900103E0FEA3E0FFF6
:103FD700900101E0FCA3E0FDD39FEE6480F8EC6460
:103FE70080984003024178900105ECF0A3EDF09032
:103FF7000103E0FEA3E0FFD3900106E09FEE64809B
:10400700F8900105E0648098502B9000F9E0FCA33C
:10401700E0FD900101E0FAA3E0FB900105E0FFA3BA
:10402700E0CF1244AB900106E004F070C2900105A6
:10403700E004F080BA900107E0FCA3E0FDC3EC6464
:104047008094805023900101E0FEA3E07802C333FF
:10405700CE33CED8F92DFFEC3ECF2406CF340090D7
:104067000107F0A3EFF08043900103E0FEA3E0FF18
:10407700C3900102E09FFF900101E09EFEEF7802EE
:10408700C333CE33CED8F9FF900108E02FFF90015C
:1040970007E03ECF240ACF3400F0A3EFF0900104ED
:1040A700E024FFF0900103E034FFF0900102E00408
:1040B700F06003023FCF900101E004F0023FCF9090
:1040C7000103E0FEA3E0FF900101E0FAA3E0FBD3C8
:1040D7009FEE6480F8EA648098400302417890007C
:1040E700F9E0FCA3E0FDEE1244AB900107E0FCA36E
:1040F700E0FDC3EC648094805023900101E0FEA3AF
:10410700E07802C333CE33CED8F92DFFEC3ECF246F
:1041170006CF3400900107F0A3EFF080439001032E
:10412700E0FEA3E0FFC3900102E09FFF900101E0E2
:104137009EFEEF7802C333CE33CED8F9FF90010845
:10414700E02FFF900107E03ECF240ACF3400F0A311
:10415700EFF0900104E024FFF0900103E034FFF05A
:10416700900102E004F07006900101E004F00240C3
:01417700C681
:014178002224
:104EF000900116EEF0A3EFF0A3ECF0A3EDF0A3EA1F
:104F0000F0A3EBF0C007A3E0FFA3E0900093CFF085
:104F1000A3EFF0D00712417990011CE0FCA3E0FD63
:104F2000A3E0FAA3E0FBA3E0FFA3E0900093CFF09F
:104F3000A3EFF090011AE0FEA3E0FF124179900187
:104F400020E0FCA3E0FD900116E0FAA3E0FBA3E063
:104F5000FFA3E0900093CFF0A3EFF090011EE0FEDE
:064F6000A3E0FF0241790D
:105087009001767401F0A37400F0A3744BF07B01D8
:045097007A007947DB
:0B509B00900173EBF0A3EAF0A3E9F032
:1050A6001220F6FFAEF0900176E0FBA3E0FAA3E053
:1050B600F91220F6FD900173E0FBA3E0FAA3E0F9F4
:1050C600E5F08DF0122121900176E0FBA3E0FAA332
:0850D600E0F9EE8FF002212148
:10234F00900045EEF0A3EFF0A3ECF0A3EDF0A3EABD
:04235F00F0A3EBF00C
:102363009000651222770000000090006912227726
:102373000000000090004BE0FEA3E0FF900047E068
:10238300FCA3E0D39FEC9E401A1250879001767411
:1023930001F0A37400F0A37449F07B017A0079453E
:1023A30012509B90004FE0FEA3E0FF90004BE0FC37
:1023B300A3E0D39FEC9E402E9001767401F0A374AA
:1023C30000F0A3744BF07B017A00794F12509B907D
:1023D30001767401F0A37400F0A37449F07B017AD1
:1023E30000794D12509B90004BE0FEA3E0FF90005C
:1023F30047E0FCA3E0D39FEC9E401A125087900164
:10240300767401F0A37400F0A37449F07B017A00A1
:10241300794512509B90004FE0FEA3E0FF900047E8
:10242300E0FCA3E0FD6F7002EC6E60030224F79002
:102433000045E0FEA3E0FF900053EEF0A3EFF09021
:102443000051EEF0A3EFF0900051E0FEA3E0FF9007
:102453000049E0FAA3E0FBC39FEA9E500A900051B3
:10246300EAF0A3EBF0801E900053E0FEA3E0FFD35D
:10247300EB9FEA9E400F900049E0FFA3E0900053DA
:10248300CFF0A3EFF0900051E0FEA3E0FF90004DEA
:10249300E0FAA3E0FBC39FEA9E500A900051EAF0E2
:1024A300A3EBF0801E900053E0FEA3E0FFD3EB9F6D
:1024B300EA9E400F90004DE0FFA3E0900053CFF061
:1024C300A3EFF0900053E0FAA3E0FB900047E0FF96
:1024D300A3E09000EBCFF0A3EFF09000D2E0FFA3D6
:1024E300E09000EDCFF0A3EFF0900051E0FEA3E009
:1024F300FF02461C900045E0FAA3E0FB900049E090
:10250300FEA3E0C39BFFEE9A900059F0A3EFF09077
:102513000047E0FEA3E0FF90004BE0FCA3E0C39F75
:10252300FFEC9E90005BF0A3EFF090004DE0FEA364
:10253300E0C39BFFEE9A90005DF0A3EFF09000479D
:10254300E0FEA3E0FF90004FE0FCA3E0C39FFFEC9D
:102553009E90005FF0A3EFF0900049E0FEA3E0FF40
:1025630090004DE0FCA3E0C39FFFEC9E900061F060
:10257300A3EFF090004BE0FAA3E0FB90004FE0FCE8
:10258300A3E0FDC39BFEEC9A900063F0A3CEF0EBB7
:10259300B50510EAB5040C90004BFFA3E09000577B
:1025A300CF801090004BE0FEA3E024FFFFEE34FF4A
:1025B300900057F0A3EFF0900047E0FFA3E09000F6
:1025C30055CFF0A3EFF0900057E0FEA3E0FF90009B
:1025D30055E0FCA3E0D39FEC9E40030226E390006A
:1025E3005BE0FEA3E0FBAA06EA3395E0F9F890006E
:1025F30065E0FCA3E0FDA3E0FEA3E0FF1252EE9032
:102603000045E0FCA3E02FFFEC3E900051F0A3EF68
:10261300F090005FE0FEA3E0FBAA06EA3395E0F941
:10262300F8900069E0FCA3E0FDA3E0FEA3E0FF1245
:1026330052EE900045E0FCA3E02FFFEC3E900053E8
:10264300F0A3EFF0900065E0F8A3E0F9A3E0FAA3AC
:10265300E0FB900059E0FEA3E0FFEE3395E0FDFCC4
:10266300EB2FFFEA3EFEE93DFDE83CFC90006512DE
:10267300226B900069E0F8A3E0F9A3E0FAA3E0FB82
:1026830090005DE0FEA3E0FFEE3395E0FDFCEB2F51
:10269300FFEA3EFEE93DFDE83CFC90006912226B37
:1026A300900053E0FEA3E0FF900051E0FCA3E0D3D1
:1026B3009FEC9E40179001767401F0A37400F0A381
:1026C3007453F07B017A00795112509B1245E890C4
:1026D3000056E004F07006900055E004F00225C9AE
:1026E30090004BE0FEA3E0FF900055E0FAA3E0FB6F
:1026F300C39FFFEA9EFE900061E0FCA3E0FD122071
:1027030082E4FCFD90006512226B900047E0FEA37B
:10271300E0FFC3EB9FFFEA9EFE90005DE0FCA3E0B9
:10272300FD122082E4FCFD90006912226B90004FA1
:10273300E0FEA3E0FF900055E0FCA3E0D39FEC9EF6
:102743004003022848900063E0FEA3E0FBAA06EAE8
:102753003395E0F9F8A3E0FCA3E0FDA3E0FEA3E0DA
:10276300FF1252EE900049E0FCA3E02FFFEC3E90F5
:102773000051F0A3EFF090005FE0FEA3E0FBAA0698
:10278300EA3395E0F9F8900069E0FCA3E0FDA3E0EB
:10279300FEA3E0FF1252EE900045E0FCA3E02FFF02
:1027A300EC3E900053F0A3EFF0900065E0F8A3E057
:1027B300F9A3E0FAA3E0FB900061E0FEA3E0FFEEE3
:1027C3003395E0FDFCEB2FFFEA3EFEE93DFDE83CDF
:1027D300FC90006512226B900069E0F8A3E0F9A376
:1027E300E0FAA3E0FB90005DE0FEA3E0FFEE33958B
:1027F300E0FDFCEB2FFFEA3EFEE93DFDE83CFC90EB
:10280300006912226B900053E0FEA3E0FF90005199
:10281300E0FCA3E0D39FEC9E40179001767401F097
:10282300A37400F0A37453F07B017A007951125022
:102833009B1245E8900056E004F07006900055E0C6
:0528430004F002273043
:01284800226D
:10396800F0900025E0900033F090001DE0FAA3E00D
:01397800FB53
:10397900900029EEF0A3EFF090002DEAF0A3EBF010
:0839890090002BECF0A3EDF01F
:103991009000D2E0FFA3E0900037CFF0A3EFF090CA
:1039A1000031E024E0F0A3E0F9C313FF7E009000B2
:1039B10029E0FAA3E02FFFEE3ACF24FFFBEF34FF1B
:1039C100FAE9FFA3E0F8A3E02FFFEE38CF24FFCF01
:1039D10034FF900043F0A3EFF0900029E0FEA3E054
:1039E100FF124FCB900033E06003023A899000351B
:1039F100F0900032E0FF900035E0FEC39F400302EB
:103A01003B49EF640C7017900031E075F00CA42471
:103A110003F582E5F03400F583E5822E801A9000EB
:103A210035E0FF900031E075F010A42477F582E5D0
:103A3100F03404F583E5822FF582E43583F583E4E0
:103A410093900034F0E4900036F0900032E0C3131C
:103A5100FF900036E0C39F5026900034E030E0052F
:103A610090002D800390002FE0FEA3E0FF1259DFAC
:103A7100900034E0C313F0900036E004F080CB9066
:103A81000035E004F00239F2E4900035F0900032A4
:103A9100E0FF900035E0FEC39F4003023B49EF6425
:103AA1000C7017900031E075F00CA42403F582E549
:103AB100F03400F583E5822E801A900035E0FF9006
:103AC1000031E075F010A42477F582E5F03404F5B7
:103AD10083E5822FF582E43583F583E49390003406
:103AE100F0E4900036F0900032E0C313FF9000360E
:103AF100E0FEC39F504990002DE0FDA3E09000D26D
:103B0100CDF0A3EDF0900034E030E024EEFF900022
:103B11002AE02FFF900029E03400FE900035E0FDFF
:103B210090002CE02DFD90002BE03400FC12569704
:103B3100900034E0C313F0900036E004F080A790C9
:103B41000035E004F0023A8E900037E0FFA3E090E8
:103B510000D2CFF0A3EFF09000D7E024FFFB90005C
:103B6100D6E034FFFA9000D9E024FFFE9000D8E0BF
:103B710034FF900043F0A3CEF0E4FDFCFFFE024FC2
:013B8100CB78
:1049CB0090014BEEF0A3EFF0A3ECF0A3EDF0A3EB13
:1049DB00F0900150E0FBA3E0FAA3E0F9122008FFEE
:1049EB00D3947E4003024A89EFC394205003024ABA
:1049FB00899000D7E024FFFD9000D6E034FFFC90B7
:104A0B00014BE0FEA3E0FFD39DEE9C50719000D9CB
:104A1B00E024FFFB9000D8E034FFFA90014DE0FC5E
:104A2B00A3E0FDD39BEC9A50559000D4E0FBA3E0A0
:104A3B0090002FCBF0A3EBF0900150E0FBA3E0FA3A
:104A4B00122008900031F090014FE0900032F0906E
:104A5B000153E0900033F09000D212397490014F63
:104A6B00E0C313FF90014CE02FF090014BE03400BA
:0F4A7B00F0900151E475F0011220CA0249DC22CB
:08521A00900179EFF0A3EDF023
:10522200A31222770000000190017AE0FF14F0EF50
:105232006020A3E0F8A3E0F9A3E0FAA3E0FB900169
:1052420079E0FFE4FCFDFE12214090017B12226B0B
:1052520080D690017BE0FCA3E0FDA3E0FEA3E0FF8B
:015262002229
:0E471500900109EEF0A3EFF0A3ECF0A3EDF09D
:10472300E4900115F0900113F0900111E0FF900166
:1047330013E0FEC39F4003024825C3EF9E14FD7F91
:104743000A12521AA804A905AA06AB0790010DE0A4
:10475300FCA3E0FDA3E0FEA3E0FF1221CBE47B0A70
:10476300FAF9F81221CB900114EBF0A3E070579003
:104773000111E014FF900113E0FEC39F5048A3E032
:10478300703E900112E0F9C3138EF0A4FF90010A6A
:10479300E02FFF900109E035F0FEC00790010BE028
:1047A300FCA3E0FD9000D2E0FAA3E0FB9000D4E08C
:1047B300FFA3E090002FCFF0A3EFF0A37420804D70
:1047C3009001157401F0900112E0F9C313FFA3E007
:1047D300FEEF8EF0A4FF90010AE02FFF900109E0A5
:1047E30035F0FEC00790010BE0FCA3E0FD9000D282
:1047F300E0FAA3E0FB9000D4E0FFA3E090002FCF0A
:10480300F0A3EFF0900114E02430900031F0A3E91D
:10481300F0E4A3F0D007123979900113E004F00219
:02482300472C20
:014825002270
:10327B0090002BECF0A3EDF0A3EAF0A3EBF09000A1
:06328B0029EEF0A3EFF0B4
:1032910090003BEEF0A3EFF0900039E4F0A3744B03
:1032A100F0E4900037F0A3F0900039E0FEA3E0FFD6
:1032B100900037E0FCA3E0FDC39FEC9E4003023485
:1032C100A0900031E0FBA3E0FAA3E0F9122008FF8F
:1032D100900A6775F022ED1222A8EC75F022A42560
:1032E10083F583E4936F600302348F900001122011
:1032F10021FF900037A3E0900A6875F0221222A8FE
:10330100EC75F022A42583F583E4936F6003023406
:103311008F900029E0FAA3E0FBFFAE02C006C007D0
:10332100A3E0FCA3E0FDEB240FFBE43AFA90002BB1
:10333100E0FEA3E0240FFFE43E900043F0A3EFF092
:10334100D007D006124FCBE4900035F0900035E065
:10335100C3942074809480400302348FE4A3F090DE
:103361000036E0FFC39408748094804003023486E1
:10337100900034E0705AA3E0FE900037E0FCA3E037
:10338100900A6975F0221222A8EC75F022A4258317
:10339100F583E5822EF582E43583F583E493FD33ED
:1033A10095E0FC7E007480A807088006CEA2E71392
:1033B100CE13D8F8FFEE5CFEEF5D4E600590002D58
:1033C100800390002FE0FEA3E0FF1259DF02347D5D
:1033D10090002DE0FFA3E09000D2CFF0A3EFF0909A
:1033E1000035E0FF900037E0FCA3E0900A6975F03A
:1033F100221222A8EC75F022A42583F583E5822F01
:10340100F582E43583F583E493FD3395E0FC900088
:1034110036E0FF7E007480A807088006CEA2E7137D
:10342100CE13D8F8FFEE5CFEEF5D4E6011900029DF
:10343100E0FEA3E0FFA3E0FCA3E0FD12569790009D
:103441002AE004F07006900029E004F090003BE0CF
:10345100FEA3E0FFC390002AE09FFD900029E09EBB
:10346100FCED64104C7015EEF0A3EFF090002CE031
:1034710004F0701190002BE004F08009900036E018
:1034810004F0023360900035E004F002334D900007
:1034910038E004F07006900037E004F00232A990A1
:1034A10000D7E024FFFB9000D6E034FFFA9000D96A
:1034B100E024FFFE9000D8E034FF900043F0A3CE5B
:0934C100F0E4FDFCFFFE024FCB1C
:1034CA0090002BECF0A3EDF0A3EAF0A3EBF0900050
:0634DA0029EEF0A3EFF063
:1034E00090003BEEF0A3EFF0900039E4F0A37409F4
:1034F000F0E4900037F0A3F0900039E0FEA3E0FF85
:10350000900037E0FCA3E0FDC39FEC9E4003023631
:10351000EF900031E0FBA3E0FAA3E0F9122008FFEE
:1035200090145D75F04AED1222A8EC75F04AA425BE
:1035300083F583E4936F60030236DE90000112206E
:1035400021FF900037A3E090145E75F04A1222A884
:10355000EC75F04AA42583F583E4936F600302368B
:10356000DE900029E0FAA3E0FBFFAE02C006C00730
:10357000A3E0FCA3E0FDEB2417FBE43AFA90002B58
:10358000E0FEA3E02417FFE43E900043F0A3EFF039
:10359000D007D006124FCBE4900035F0900035E014
:1035A000C394487480948040030236DEE4A3F09014
:1035B0000036E0FFC394087480948040030236D53F
:1035C000900034E0705AA3E0FE900037E0FCA3E0E6
:1035D00090145F75F04A1222A8EC75F04AA4258376
:1035E000F583E5822EF582E43583F583E493FD339C
:1035F00095E0FC7E007480A807088006CEA2E71341
:10360000CE13D8F8FFEE5CFEEF5D4E600590002D06
:10361000800390002FE0FEA3E0FF1259DF0236CCBA
:1036200090002DE0FFA3E09000D2CFF0A3EFF09048
:103630000035E0FF900037E0FCA3E090145F75F0E8
:103640004A1222A8EC75F04AA42583F583E5822F5F
:10365000F582E43583F583E493FD3395E0FC900037
:1036600036E0FF7E007480A807088006CEA2E7132C
:10367000CE13D8F8FFEE5CFEEF5D4E60119000298E
:10368000E0FEA3E0FFA3E0FCA3E0FD12569790004C
:103690002AE004F07006900029E004F090003BE07E
:1036A000FEA3E0FFC390002AE09FFD900029E09E6A
:1036B000FCED64184C7015EEF0A3EFF090002CE0D8
:1036C00004F0701190002BE004F08009900036E0C7
:1036D00004F00235AF900035E004F002359C900014
:1036E00038E004F07006900037E004F00234F890FF
:1036F00000D7E024FFFB9000D6E034FFFA9000D919
:10370000E024FFFE9000D8E034FF900043F0A3CE09
:09371000F0E4FDFCFFFE024FCBCA
:1037190090002BECF0A3EDF0A3EAF0A3EBF09000FE
:0637290029EEF0A3EFF011
:10372F0090003BEEF0A3EFF0900039E4F0A37406A5
:10373F00F0E4900037F0A3F0900039E0FEA3E0FF33
:10374F00900037E0FCA3E0FDC39FEC9E40030239DD
:10375F003E900031E0FBA3E0FAA3E0F9122008FF4E
:10376F009016F775F082ED1222A8EC75F082A42561
:10377F0083F583E4936F600302392D9000011220CB
:10378F0021FF900037A3E09016F875F0821222A85F
:10379F00EC75F082A42583F583E4936F60030239FF
:1037AF002D900029E0FAA3E0FBFFAE02C006C00790
:1037BF00A3E0FCA3E0FDEB241FFBE43AFA90002BFF
:1037CF00E0FEA3E0241FFFE43E900043F0A3EFF0E0
:1037DF00D007D006124FCBE4900035F0900035E0C3
:1037EF00C3948074809480400302392DE4A3F09039
:1037FF000036E0FFC394087480948040030239249C
:10380F00900034E0705AA3E0FE900037E0FCA3E094
:10381F009016F975F0821222A8EC75F082A4258318
:10382F00F583E5822EF582E43583F583E493FD334A
:10383F0095E0FC7E007480A807088006CEA2E713EF
:10384F00CE13D8F8FFEE5CFEEF5D4E600590002DB5
:10385F00800390002FE0FEA3E0FF1259DF02391B17
:10386F0090002DE0FFA3E09000D2CFF0A3EFF090F7
:10387F000035E0FF900037E0FCA3E09016F975F0FB
:10388F00821222A8EC75F082A42583F583E5822F9E
:10389F00F582E43583F583E493FD3395E0FC9000E6
:1038AF0036E0FF7E007480A807088006CEA2E713DB
:1038BF00CE13D8F8FFEE5CFEEF5D4E60119000293D
:1038CF00E0FEA3E0FFA3E0FCA3E0FD1256979000FB
:1038DF002AE004F07006900029E004F090003BE02D
:1038EF00FEA3E0FFC390002AE09FFD900029E09E19
:1038FF00FCED64204C7015EEF0A3EFF090002CE07F
:10390F0004F0701190002BE004F08009900036E075
:10391F0004F00237FE900035E004F00237EB900020
:10392F0038E004F07006900037E004F0023747905B
:10393F0000D7E024FFFB9000D6E034FFFA9000D9C7
:10394F00E024FFFE9000D8E034FF900043F0A3CEB8
:09395F00F0E4FDFCFFFE024FCB79
:102FE40090001BECF0A3EDF0A3EAF0A3EBF090004B
:062FF40019EEF0A3EFF05E
:102FFA00900026EEF0A3EFF0E4A3F0900021E0FBAE
:10300A00A3E0FAA3E0F9122008700302327A9000D2
:10301A0028E0600302313B900024E0FFC313FDC3A4
:10302A009000D7E09DFD9000D6E09400FCD390007C
:10303A001AE09D900019E09C400302327AC3900086
:10304A00D9E09FFF9000D8E09400FED390001CE0E6
:10305A009F90001BE09E400302327A122008FF7EF6
:10306A0000D394807480948040089000287401F002
:10307A008089EF640D4E702E900024E0FF90001CB2
:10308A00E02FF090001BE03400F0900026E0FFA350
:10309A00E0900019CFF0A3EFF0900022E475F00160
:1030AA001220CA02312E900024E0D3941074809426
:1030BA0080900019E0FEA3E0FFA3E0FCA3E0FD90EE
:1030CA00001FE0FBA3E090002FCB4024F0A3EBF01D
:1030DA00900021E0FBA3E0FAA3E0F9122008900097
:1030EA0031F0A3741012396890001AE02408802C79
:1030FA00F0A3EBF0900021E0FBA3E0FAA3E0F912C1
:10310A002008900031F0900024E0900032123968D3
:10311A00900024E0C313FF90001AE02FF0900019EA
:10312A00E03400F0900022E475F0011220CA023067
:10313A0005900024E0F9FF7E00C39000D7E09FFDD0
:10314A009000D6E09EFCD390001AE09D900019E012
:10315A009C400302327AC39000D9E09FFF9000D8C6
:10316A00E09EFE90001BE0FCA3E0FDD39FEC9E4096
:10317A000302327AE4900028F0E964207042900059
:10318A0019E0FEA3E0FF90001FE0FBA3E090002FF0
:10319A00CBF0A3EBF0900021E0F9A3E0FAA3E090D2
:1031AA000031C9F0A3EAF0A3E9F0900025E090000D
:1031BA0034F090001DE0FAA3E0FB12371902325BEB
:1031CA00900024E064189000197044E0FEA3E0FF28
:1031DA00A3E0FCA3E0FD90001FE0FBA3E090002F1A
:1031EA00CBF0A3EBF0900021E0F9A3E0FAA3E09082
:1031FA000031C9F0A3EAF0A3E9F0900025E09000BD
:10320A0034F090001DE0FAA3E0FB1234CA8042E0D9
:10321A00FEA3E0FFA3E0FCA3E0FD90001FE0FBA3F8
:10322A00E090002FCBF0A3EBF0900021E0F9A3E0AF
:10323A00FAA3E0900031C9F0A3EAF0A3E9F0900004
:10324A0025E0900034F090001DE0FAA3E0FB123272
:10325A007B900022E475F0021220CA900024E0FF5D
:10326A0090001AE02FF0900019E03400F0023005C7
:01327A002231
:104BD50090000CEEF0A3EFF0A3ECF0A3EDF0A3EA48
:044BE500F0A3EBF05E
:104BE900900014E0FBA3E0FAA3E0F912590AEF7868
:104BF90003C333CE33CED8F9FFC39000D7E09FFF6C
:104C09009000D6E09EC313FEEF13FF90000DE02F36
:104C1900FF90000CE03EFE90000EE0FCA3E0FD904A
:104C29000012E0FBA3E090001FCBF0A3EBF0900093
:104C390014E0F9A3E0FAA3E0900021C9F0A3EAF097
:104C4900A3E9F0900017E0900024F0900018E0909C
:0E4C59000025F0900010E0FAA3E0FB022FE42B
:1048260090012DEEF0A3EFF0900131EBF0A3EAF04A
:0B483600A3E9F090012FECF0A3EDF0DF
:1048410090012DE0FAA3E0FFAE02C006C0072427C5
:10485100FBE43AFAA3E0FEA3E02427FFE43E900044
:1048610043F0A3EFF0D007D006124FCBE490013410
:10487100F0A3F0900135E025E0FF900134E033FE34
:10488100900131E0FBA3E0FAA3E0F98F828E83125D
:104891002021900137F0E92FF9EA3EFA9000011248
:1048A1002021900136F0FEA3E0FDEDFF1259DF90CB
:1048B1000135E004F07006900134E004F0C390018A
:1048C10035E09440900134E06480948640A59000E6
:1048D100D7E024FFFB9000D6E034FFFA9000D9E046
:1048E10024FFFE9000D8E034FF900043F0A3CEF007
:0848F100E4FDFCFFFE024FCBC9
:101A0300EC4D6011E8497017ED33EC3304600DE4DD
:101A1300FCFFFEFD22E933E8330470F8021BB31226
:101A23001B7E58046009E4CC248150062850090227
:101A33001BBD284003021BBAC0E0EB4A7044B980C7
:101A430006D0E0FB021BA9EF4E701CBD8008EBFF24
:101A5300EAFEE9FD80EBE98DF0A4FEE5F0021AEC65
:101A6300E9CDF9EAFEEBFFEF89F0A4FCE5F0CE89BE
:101A7300F0A42EFFE435F0CD89F0A42DFEE435F07B
:101A83008067EF4E7005BD80D780C3EF8BF0A4ACA9
:101A9300F0EE8BF0A42CFCE435F0F8EF8AF0A42CE4
:101AA300E5F038FCE433CB8DF0A42CFCE5F03BF8F7
:101AB300EE8AF0A42CFCE5F038F8E433CF89F0A4E7
:101AC3002CFCE5F038CF3400CE89F0A42FFFE5F0ED
:101AD3003EFEE433C98DF0A42EFEE5F039CD8AF045
:101AE300A42FFFE5F03EFEE43DFD33D0E0FB5007BD
:101AF3000BBB000F021BBDEC2CFCEF33FFEE33FEE0
:061B0300ED33FD021B950D
:101B090075F020800E75F010800575F0087D007E57
:101B1900007F003392D530D50312225DEC3340109B
:101B2900EF33FFEE33FEED33FDEC33FCD5F0ED2260
:0E1B3900E5F0247EA2D513CC92E7CDCEFF229C
:101B4700EDD2E7CD33EC3392D524814006E4FFFE96
:101B5700FDFC22FCE4CFCECDCC24E0501174FF80F5
:101B6700EDC3CC13CCCD13CDCE13CECF13CF047092
:071B7700F030D5DE02225D13
:10284900E508240FF582E43400F583E005082290B9
:10285900000C30070390000FE475F0011222B40256
:1028690020082000E97F2ED2008018EF540F249011
:10287900D43440D4FF30040BEF24BFB41A00500302
:102889002461FFE50960021509050CE50C700205D4
:102899000B30070E90000CE475F0011222B4EF0220
:1028A900204E0256E87403D2078003E4C207F508F4
:1028B90090000C1222CBE4F509F50BF50CE5096043
:1028C900077F2012288C80F5750AFFC201C200C259
:1028D90002C203C205C206C208122858FF700D3091
:1028E90007057F0012289DAF0CAE0B22B4255FC2ED
:1028F900D5C204122858FF24D0B40A00501A75F022
:102909000A780930D50508B6FF0106C6A426F620BF
:10291900D5047002D20380D924CFB41A00EF500431
:10292900C2E5D204022B8FD20180C6D20080C0D268
:102939000280BCD2D580BAD20580B47F2012288CFF
:102949002002077401B5090040F1122849FF122835
:102959008C0228C6D208D2068095122849FB122873
:1029690049FA122849F94A4B7006798D7A2C7BFF6E
:1029790020022EE509602A7E008E827583001220CE
:102989002160060EEE650A70F0C2D5EBC0E0EAC020
:10299900E0E9C0E0EE122BF0D0E0F9D0E0FAD0E0A7
:1029A900FB122008FF60AAEBC0E0EAC0E0E9C0E042
:1029B90012288CD0E02401F9D0E03400FAD0E0FBF1
:1029C900E50A0460DCD50AD98087D20280A2122BDD
:1029D900D260F7E50A700104121BC8A90A600DE567
:1029E9000A600914F50A122C7AEF60F3EA30E7025B
:1029F900F404C3995079EAF4250A0430E701E404A0
:102A0900F50A800D122BD260C1EA050A250A121BAC
:102A1900C8EA90003BF030E701E4250A04D50A042E
:102A290020050114122BF0E4C0E0122C7A90003B2F
:102A3900E0601320E70714F0122874802204F0D014
:102A4900E014C0E07F00122874E50A600712286BC1
:102A5900150A800B30050312286BD0E00228C6D076
:102A6900E00480C4122BD2609EE50A04121BC890B0
:102A7900003BEAF0E50A2005026001042404122B58
:012A8900F05C
:102A8A0074FF04C0E0122C7A122874E50A200502A9
:102A9A00600312286BD0E0B50AE87F4512287E90C1
:102AAA00003BE07F2B30E7047F2DF404C0E01228BE
:102ABA008CD0E075F00A84C0F0122875D0E0122894
:102ACA00750228C6791080027908C206C2088008F1
:102ADA00D2D5790A8004790AC2D5E50A047002F5CA
:102AEA000AE4FAFDFEFF122849FC7B0820011312B2
:102AFA002849FD7B1030000A122849FE122849FF96
:102B0A007B20EC3382D592D55013C3E43000069F64
:102B1A00FFE49EFEE42001039DFDE49CFCE4CBF867
:102B2A00C201EC700CCFCECDCCE824F8F870F3805B
:102B3A0017C3EF33FFEE33FEED33FDEC33FCEB331B
:102B4A00FB994002FB0FD8E9EB300105F8D0E0C44D
:102B5A0048B201C0E00AEC4D4E4F78207B0070C2AB
:102B6A00EAB50A0040BCC0E0122BF2D0F0D0E02057
:102B7A000104C4C0E0C4B201C0F0122875D0F0D577
:102B8A00F0EB0228C61222D42963532ACE582934DC
:102B9A004C2930422AD24F2ADA442ADA49294943AF
:102BAA002AE0552A0D462A6D4529D7472CAD5029CA
:102BBA00382D293C2E295F2B294023295D202C966C
:102BCA002A28F84800002957E50AB4FF03750A06BF
:102BDA00122849FC122849FD122849FE122849FFE9
:102BEA00900034021C05790AA2D520031430050985
:102BFA00B910020404B9080104A2D5200602500142
:102C0A00042002689202B509005034C0E07F2030E7
:102C1A0003197F30A20272067205500F122C49C2A4
:102C2A0002C206C205C2087F30800F300503E9C020
:102C3A00E012288C300503D0E0F9D0E0B509CC3099
:102C4A0005177F30B9100C12288C7F583004077F83
:102C5A00788003B9080312288C3002057F2D0228D8
:102C6A008C7F202008F87F2B2006F322920280CF47
:102C7A007F00B40700500B2434F582E43400F58356
:102C8A00E0FF22286E756C6C2900D20112284930A7
:102C9A0001F8C201780930D50108F60228F82D504A
:102CAA004349581228492403B405004001E4902CF2
:102CBA00A89312287D743A12287DD203750904025A
:022CCA002ACE10
:101B7E00E9D2E7C933E833F892D5EDD2E7CD33ECAD
:071B8E0033FC5002B2D52226
:101B9500EC30E7100FBF000C0EBE00080DBD0004B1
:101BA5000BEB6014A2D5EB13FCED92E7FD2274FF5D
:101BB500FCFDFEFF22E480F8A2D574FF13FC7D80B6
:031BC500E480EFCA
:101BC800F920E73624F950037907E4F42402FBE509
:101BD80082158270021583DBF6E024FB501BE96056
:101BE80014E4F0E582158270021583E004F0B40A6B
:0D1BF80008E4F0D9EE7401F00A22C2D522F3
:101C0500ED33EC3392D5FA602AB4FF33EDC2E77BAE
:101C1500FF60067A1C792AE4227A1C793320D504E0
:101C25007A1C792E224E614E002B494E46002D49D5
:101C35004E4600E47A08F0A3DAFC7B00740722C064
:101C450083C082ECC0E0EDC0E0EEC0E0EFC0E0EAAA
:101C550075F010A4CAABF075F04DA42BFBE435F07C
:101C6500FCEA2410FAEB34C5FBEC34D9FCEDC2E7F1
:101C7500FF75F056A4F42411C5F0F434C58FF0A413
:101C85002AE5F03BE43CF020E714121ED2D0E0FF39
:101C9500D0E0FED0E0FDD0E0FC121E058014F40477
:101CA500121ED2D0E0FFD0E0FED0E0FDD0E0FC1265
:101CB5001A03D082D083E0FAEDD2E7CD33EC33249A
:101CC50082FBE4C3CF33CFCE33CECD33CD33DBF37D
:101CD5007B0775F00A846004F0A31B0AE5F0F0A306
:101CE5008FF0740AA4FFACF08EF0740AA42CFEAC3D
:101CF500F050010C8DF0740AA42CFDE435F0F0A32E
:051D0500DBDE74072283
:101D0A00021BB3E86480F8E933E83360110460F039
:101D1A00ED33EC337009E8FCE9FDEAFEEBFF22043F
:101D2A0060DED3EB9FEA9EE99DE8C2E78CF0C2F73A
:101D3A0095F0400CE8CCF8E9CDF9EACEFAEBCFFB06
:101D4A00121B7E85D0F05804700320D5B3E80470C6
:101D5A00075002B2D5021BBD92D5EC0460F7E4CC61
:101D6A00C0E0C398F8603B94186008400DD0E0FBCF
:101D7A00021B95E4FBFAC9FC8028E830E406E4C9B2
:101D8A00FBE4CAFCE830E305E4C9CACBFCE8540723
:101D9A006010F8C3E913F9EA13FAEB13FBEC13FC2E
:101DAA00D8F130F52FC3E49CFCEF9BFFEE9AFEEDD1
:101DBA0099FDD0E0FBEF4E4D4C701222DB03021B63
:101DCA00BAEC2CFCEF33FFEE33FEED33FDED30E7DA
:101DDA00EB021B95EF2BFFEE3AFEED39FDD0E0FB4F
:101DEA0050130BBB0003021BBDED13FDEE13FEEFF8
:081DFA0013FFEC13FC021B9522
:101E0200021BBDEC5D046005E859047003021BB3BC
:101E1200121B7E580460F6EC4860F2EC7004FDFE82
:101E2200FF22C860DB2481C85009C39860025006B3
:101E3200021BBA9850CAF582E9294B4A7005AB8257
:101E4200021BA975F0007C1A7880C3EF9BEE9AED15
:101E520099400DC3EF9BFFEE9AFEED99FDE842F02B
:101E6200DC23ACF0D0E0FFD0E0FED0E0FDAB82207E
:101E7200E7101BEB60BAEC2CFCEF33FFEE33FEED08
:101E820033FD021B95E803F830E705C0F075F0005A
:101E9200EF2FFFEE33FEED33FD40B830E7C280AAEC
:101EA2003F8000004120000042C80000447A000048
:101EB200461C400047C35000497424004B189680CA
:101EC2004CBEBC205A0E1BCA6753C21C749DC5AEC1
:101ED200FB60065407601C2323121F00EB5438607A
:101EE20009121EEC121EFB121A03ECF8EDF9EEFABF
:101EF200EFCB22EB121EFB80F1543803241C901E00
:101F0200A2FE93FC0EEE93FD0EEE930ECE93FF22F5
:03000000024C6748
:0C4C6700787FE4F6D8FD758121024CAE88
:101F1200E709F608DFFA8046E709F208DFFA803EB1
:101F220088828C83E709F0A3DFFA8032E309F6089E
:101F3200DFFA8078E309F208DFFA807088828C8306
:101F4200E309F0A3DFFA806489828A83E0A3F608BA
:101F5200DFFA805889828A83E0A3F208DFFA804C94
:101F620080D280FA80C680D4806980F2803380106B
:101F720080A680EA809A80A880DA80E280CA8033D4
:101F820089828A83ECFAE493A3C8C582C8CCC5834C
:101F9200CCF0A3C8C582C8CCC583CCDFE9DEE7801C
:101FA2000D89828A83E493A3F608DFF9ECFAA9F09B
:101FB200EDFB2289828A83ECFAE0A3C8C582C8CCF1
:101FC200C583CCF0A3C8C582C8CCC583CCDFEADE0A
:101FD200E880DB89828A83E493A3F208DFF980CC6C
:101FE20088F0EF60010E4E60C388F0ED2402B40465
:101FF2000050B9F582EB2402B4040050AF2323450C
:062002008223901F6273AF
:10200800BB010689828A83E0225002E722BBFE02D6
:09201800E32289828A83E4932209
:10202100BB010CE58229F582E5833AF583E0225074
:1020310006E92582F8E622BBFE06E92582F8E222BE
:0D204100E58229F582E5833AF583E49322D8
:10204E00BB010689828A83F0225002F722BBFE0171
:02205E00F3226B
:10206000F8BB010DE58229F582E5833AF583E8F0B6
:10207000225006E92582C8F622BBFE05E92582C862
:02208000F2224A
:10208200EF8DF0A4A8F0CF8CF0A428CE8DF0A42E72
:02209200FE222C
:10209400C2D5EC30E709B2D5E4C39DFDE49CFCEE67
:1020A40030E715B2D5E4C39FFFE49EFE1222FAC3C3
:1020B400E49DFDE49CFC80031222FA30D507C3E4BE
:0620C4009FFFE49EFE22D6
:1020CA00C5F0F8A3E028F0C5F0F8E58215827002A1
:0620DA001583E038F0223E
:1020E000A3F8E0C5F025F0F0E582158270021583B3
:0620F000E0C838F0E82210
:1020F600BB010A89828A83E0F5F0A3E022500687B5
:10210600F009E71922BBFE07E3F5F009E319228976
:0B211600828A83E493F5F074019322A9
:10212100BB010A89828A83F0E5F0A3F0225006F709
:0F21310009A7F01922BBFE06F3E5F009F3192206
:10214000E88FF0A4CC8BF0A42CFCE98EF0A42CFC3E
:102150008AF0EDA42CFCEA8EF0A4CDA8F08BF0A4BC
:102160002DCC3825F0FDE98FF0A42CCD35F0FCEB1B
:102170008EF0A4FEA9F0EB8FF0A4CFC5F02ECD39E0
:0F218000FEE43CFCEAA42DCE35F0FDE43CFC224D
:10218F0075F008758200EF2FFFEE33FECD33CDCC07
:10219F0033CCC58233C5829BED9AEC99E58298408A
:1021AF000CF582EE9BFEED9AFDEC99FC0FD5F0D667
:1021BF00E4CEFBE4CDFAE4CCF9A88222B800C1B991
:1021CF000059BA002DEC8BF084CFCECDFCE5F0CBCF
:1021DF00F97818EF2FFFEE33FEED33FDEC33FCEB08
:1021EF0033FB10D703994004EB99FB0FD8E5E4F9C3
:1021FF00FA227818EF2FFFEE33FEED33FDEC33FCB0
:10220F00C933C910D7059BE99A4007EC9BFCE99AA3
:10221F00F90FD8E0E4C9FAE4CCFB2275F010EF2FE8
:10222F00FFEE33FEED33FDCC33CCC833C810D707E8
:10223F009BEC9AE899400AED9BFDEC9AFCE899F823
:0E224F000FD5F0DAE4CDFBE4CCFAE4C8F922B6
:1052EE00C2D5E830E70FB2D5E4C39BFBE49AFAE4EB
:1052FE0099F9E498F8EC30E717B2D512532412213D
:10530E00CBE4C39BFBE49AFAE499F9E498F88003A2
:10531E001221CB30D50DE4C39FFFE49EFEE49DFD2C
:04532E00E49CFC22DD
:0E225D00C3E49FFFE49EFEE49DFDE49CFC2292
:0C226B00ECF0A3EDF0A3EEF0A3EFF022E6
:10227700A8828583F0D083D08212228E12228E12FA
:10228700228E12228EE473E493A3C583C5F0C5831F
:10229700C8C582C8F0A3C583C5F0C583C8C582C8B1
:0122A7002214
:0C22A800A42582F582E5F03583F5832241
:1022B400F8E0FBA3A3E0F925F0F0E58215827002B3
:0722C4001583E0FA38F02257
:0922CB00EBF0A3EAF0A3E9F02214
