:10798D00E4F594F593F592F591F596F595F5B2F537
:10799D00B1F5B4F5B3F5CAF5C9F5CCF5CBF5E2F50E
:0279AD00E122D5
:107A720012798D1265C97F0A7E001277C07F1F7E40
:097A8200001273AC12481180FBE4
:101A0300313233343536373839313000D7DBBACF5A
:101A1300B2E2CAD4B3CCD0F200B5E7D7D300332EA9
:101A2300352220494C493934383820333230583440
:101A330038300020323031392D30362D32300042EB
:101A43004C20546573740052454420004752454569
:101A53004E2000424C55452000B2E2CAD4333A47E7
:101A63005549BED8D0CECCEEB3E4B2E2CAD400B26C
:101A7300E2CAD4343A475549BBADD4B2CCEEB3E451
:101A8300B2E2CAD400B2E2CAD4353A475549205427
:101A93007269616E676C65CCEEB3E4B2E2CAD400DE
:101AA300B2E2CAD4363AD3A2CEC4CFD4CABEB2E2CB
:101AB300CAD400365831323A616263646566676836
:101AC300696A6B6C6D6E6F7071727374757677780B
:101AD300797A00365831323A4142434445464748C1
:101AE300494A4B4C4D4E4F503031323334353637F3
:101AF300383900365831323A7E21402324255E2678
:101B03002A28295F2B7B7D3A3C3E3F2F7C2D2B2EB1
:101B130000385831363A6162636465666768696A9A
:101B23006B6C6D6E6F707172737475767700385865
:101B330031363A4142434445464748494A4B4C4D66
:101B43004E303132333435363700385831363A7EF9
:101B530021402324255E262A28295F2B7B7D3A3CBE
:101B63003E3F2F7C00B2E2CAD4373AD6D0CEC4CFA0
:101B7300D4CABEB2E2CAD40031365831363ABBB603
:101B8300D3ADC4FA0031365831363A57656C636FBA
:101B93006D65BFC6BCBC0032345832343AD6D0CEA1
:101BA300C4B2E2CAD40033325833323AD7D6CCE582
:101BB300B2E2CAD400B2E2CAD4383ACDBCC6ACCF82
:101BC300D4CABEB2E2CAD400526F746174696F6E34
:101BD3003A3000526F746174696F6E3A3930005253
:101BE3006F746174696F6E3A31383000526F74618B
:101BF30074696F6E3A32373000B2E2CAD4393AC6EA
:101C0300C1C4BBBDC7B6C8B2E2CAD400B2E2CAD42B
:101C130031303AB5E7C8DD546F756368B2E2CAD4B0
:101C230028D6A7B3D635B5E3B4A5C3FE2920200033
:101C330052535400B2E2CAD4323AB6C14944BACD7F
:101C4300D1D5C9ABD6B5B2E2CAD40049443A30784B
:101C53002578007265616420636F6C6F723A307827
:101C6300257800FFFFFFFFFFFFFFFFFFFFFFFFFFE1
:101C7300FFFFFFFFFFFFFFFFFFFFFFFFFFFFFFFF71
:101C8300FFBEF7FFFFDEFF38C6928C8E6B6E6B10C4
:101C93007C96AD3CE7FFFFFFFFFFFFFFFFFFFFFF6A
:101CA300FFFFFFFFFFFFFFFFFFFFFFFFFFFFFFFF41
:101CB300FFFFFFFFFFFFFFFFFFFFFFFFFFFFFFFF31
:101CC300FFFFFFFFFFFFFFFFFFFFFFFFFFFFFFFF21
:101CD300FF5DEF159D4F636C420A32882946192533
:101CE300194521E8318E6B38C6FFFFFFFFFFFFFF69
:101CF300FFFFFFFFFFFFFFFFFFFFFFFFFFFFFFFFF1
:101D0300FFFFFFFFFFFFFFFFFFFFFFFFFFFFFFFFE0
:101D1300FFFFFFFFFFFFFFFFFFFFFFFFFFFFFF3699
:101D2300A51053104B51530F4B6C3AE931672125E2
:101D330019E410A30862008308CB529AD6FFFFFF71
:101D4300FFFFFFFFFFFFFFFFFFFFFFFFFFFFFFFFA0
:101D5300FFFFFFFFFFFFFFFFFFFFFFFFFFFFFFFF90
:101D6300FFFFFFFFFFFFFFFFFFFFFF3CE77063B3D2
:101D730063B87CF56311434D32EA2988212619059E
:101D830019051904110411E4108300A308728CFFD0
:101D9300FFFFFFFFFFFFFFFFFFFFFFFFFFFFFFFF50
:101DA300FFFFFFFFFFFFFFFFFFFFFFFFFFFFFFFF40
:101DB300FFFFFFFFFFFFFFFFFFDBDE4B3AF0423584
:101DC3006C544BB1322E2AEB21A921671905190452
:101DD3001104110411041104110519E4104200AF98
:101DE30073FFFFFFFFFFFFFFFFFFFFFFFFFFFFFF8C
:101DF300FFFFFFFFFFFFFFFFFFFFFFFFFFFFFFFFF0
:101E0300FFFFFFFFFFFFFF5DEF09324C32104B8FE7
:101E1300324F2A2E2ACC1989198921471905190409
:101E2300110411C410C410041104110411E410426C
:101E3300003184FFFFFFFFFFFFFFFFFFFFFFFFFFF7
:101E4300FFFFFFFFFFFFFFFFFFFFFFFFFFFFFFFF9F
:101E5300FFFFFFFFFFFFFFEC5247194C320B2AEC49
:101E630021EC210C22915BEE4A061126190419E498
:101E730010E410A7296621A308051904110411E42D
:101E8300108200F7BDFFFFFFFFFFFFFFFFFFFFFF14
:101E9300FFFFFFFFFFFFFFFFFFFFFFFFFFFFFFFF4F
:101EA300FFFFFFFFFF35A58308882188218921AA29
:101EB300218A216B42718CFFFF728C83080411C449
:101EC300082942FBDE5DEFEC5A8308041104110478
:101ED300118308E831DFFFFFFFFFFFFFFFFFFFFF75
:101EE300FFFFFFFFFFFFFFFFFFFFFFFFFFFFFFFFFF
:101EF300FFFFFFBEF7C731C410251926194719473D
:101F030019A8298A52284A55ADFFFFE831A30805CD
:101F1300194D6B4D6BFFFF7DEF4521C41004110478
:101F2300110411620076ADFFFFFFFFFFFFFFFFFF0C
:101F3300FFFFFFFFFFFFFFFFFFFFFFFFFFFFFFFFAE
:101F4300FFFFFF96B562000411041905110519C4BA
:101F5300088B4AB6B55DEFF7BDFFFF8E6B620029B4
:101F630042AA5A0842FFFFFFFFCC52830804110420
:101F7300110411A308AD52FFFFFFFFFFFFFFFFFF97
:101F8300FFFFFFFFFFFFFFFFFF1CE7FFFFFFFFFF59
:101F9300FFFFFF4E636200041104110411E4106299
:101FA300008E63FFFFFFFFFFFFFFFFCF730100F30F
:101FB3009C2C6396B5FFFFFFFF2D5B830004110488
:101FC300110411E41067213DEFFFFFFFFFFFFFFF47
:101FD300FFFFFFF8BDB7B59EEFCB52B394FFFFFFF2
:101FE300FFDFFFE831A3080411041104110411A356
:101FF300084942FFF7FFF7FFFFFFFF6A4A0100723C
:1020030084FFFFFFFFFFF7DFEF093AA30804110482
:102013001104110411051118BEFFFFFFFFFFFFFF9D
:10202300FFFFFFF07B6200E831C731410035A5FFB8
:10203300FF5DEF4621C4100411041104110411E4DF
:1020430010A308769DFFF7FFFFB7ADA308A308C74A
:10205300319EE7FFF7FFF776A5A308E41004110408
:102063001104110511051135A5FFFFFFFFFFFFFF48
:10207300FFFFFFDBDEA7298300C410C410C4101CBC
:10208300E79EEF0511E41004110411041104110477
:1020930019C408E510D16BD16BC5086400A50843CA
:1020A300002B32779DB3842519C410041104110445
:1020B30011041125192609359DFFFFFFFFFFFFFFBF
:1020C300FFFFFFFFFFAF7362000419051982000DC4
:1020D3005B8E9B62100511041104110419E4108531
:1020E300000511C439815A407B229C43AC03A4836D
:1020F3009B82728249C218A400C500E4100419042B
:1021030011051947196711EC5ABEFFFFFFFFFFFFC7
:10211300FFFFFFDFFFDBDEC410E41004110511A491
:102123001801C08388E40005190419C50844214334
:102133008323D542FEE4FE27FF07FFA4FE64FE03CC
:10214300FEA3FDE2FC42EC83B32462E510C4080461
:10215300192619A81987210090D3BCFFFFFFFFFFA1
:10216300FFFFFFDFFFFFFF107C420005190511830E
:102173002801D044F8A348E400C508445A02EDE21C
:10218300FD02FE66FE74FFB8FF73FFE7F6A6F64591
:10219300F6A4F5C3FC62FCC2FCC2FCE3CBC4490653
:1021A3001188198701A49001F8EC9AFFFFFFFFFF44
:1021B300FFFFFFFFFFFFFFBEF7E831830005098242
:1021C3004001C023F885F0A348A400445A02FD232C
:1021D300CCC2DC04FE28FE48F646F624F6E4F56499
:1021E300FDE3FC62FCC2FC02E402DCE2FCA47A48EC
:1021F300016701C47824F802F884B07DE7FFFFFF8C
:10220300FFFFFFFFFFFFFFFFFFDBDE2519A300C476
:102213003802E022D844F8A6F8A478630043218367
:10222300728339829B21F561FD22FDE2FCA2FC420F
:10223300FC42FC42FC22AB8341C39204522601259B
:1022430019A49844F823F802F8A4D09EEFFFFFFFE7
:10225300FFFFFFFFFFFFFFFFFFFFFF9AD68729A5C1
:102263000043B822F823E065F8E8F807C983484239
:1022730000A30084006329A27A62B3A2CB62D302D3
:10228300BB828A8339A400E500E500E508C46064E5
:10229300D844F824F823F802F88388DBC6FFFFFF4D
:1022A300FFFFFFFFFFFFFFFFFFFFFFFFFF3DE750C4
:1022B3005B083123E843F844F065F809F9ABF98981
:1022C300D10689A3484218020042006100820062DD
:1022D3000062008300A320C450A58885D865F84414
:1022E300F844F823F823F803D08210C7295DEFFFE1
:1022F300FFFFFFFFFFFFFFFFFFFFFFFFFFFFFFFFEB
:10230300FF6C32A53802D823F865F866F8A7F84AB7
:10231300F90CFA4DFA4CEA0BD2A9B968B147A927CF
:10232300B107B907D1E7E8C7F8A7F865F865F84436
:10233300F823F803F802D0A3280509C408EC5AFFD0
:10234300FFFFFFFFFFFFFFFFFFFFFFFFFFFFFFFB9E
:10235300DE0519C400A741E6C003F886F8A7F8878D
:10236300F886F8C7F829F98AF9ABF9ABF98BF96A5A
:10237300F929F908F9C7F8A6F886F865F864F82387
:10238300F802F006B12529E400E4102519251914F3
:102393009DFFFFFFFFFFFFFFFFFFFFFFFFFFFF9615
:1023A300AD620082083595BACE8BA244D025F8875A
:1023B300F8A7F8C7F8A7F887F886F886F886F887A5
:1023C300F8A7F8A7F8A6F885F865F864F824F06488
:1023D300B80D93BBB6CF6383080411E4106621499B
:1023E3003A5DEFFFFFFFFFFFFFFFFFFFFFFFFFD39D
:1023F300944200E410BBCEFFFFBEE776B5CCAA073C
:10240300C145E045F846F866F886F886F886F8860A
:10241300F865F845F865F865E844D043A801888273
:10242300903CD7FFEF559583080411041105194615
:1024330019B394FFFFFFFFFFFFFFFFFFFFFFFFB392
:1024430094410086215DDFFFFFFFFFFFFFDFE77A97
:10245300C6D3B44EB32AC268D1E6E0A6E8A5E8A580
:10246300E8E6D888C906A922A802A800A000C800E7
:10247300D8F7E5FFE7F8ADC410E4100411E4100544
:10248300118B4AFFFFFFFFFFFFFFFFFFFFFFFF551A
:10249300A54100A7295DDFFFF7FFFFFFFFFFFFFF58
:1024A300FFFFFFFFEF7DDFDBCE59CEF8CDD7CDF7B2
:1024B300C579CEFBBEABA203F045F842D043E8009A
:1024C300F072D4FFDF39AEE410E4100411E4100518
:1024D300118729FFFFFFFFFFFFFFFFFFFFFFFF59EB
:1024E300CE830846211CD7FFF7FFFFFFFFFFFFFF47
:1024F300FFFFFFFFFFFFFFFFFFFFFFFFFFFFFFFFE9
:10250300FFFFFFFFEF8BBA04F845F862E044F000E9
:10251300F88EDBFFDFF8A5C410E410E4100411E427
:10252300102519FFFFFFFFFFFFFFFFFFFFFFFFBEA8
:10253300F78729830839B6FFF7DFF7FFFFFFFFFFB0
:10254300FFFFFFFFFFFFFFFFFFFFFFFFFFFFFFFF98
:10255300FFFFFFBEE74ABA03F845F864F844F80002
:10256300F86EE3FFD7F48C83080411E410E410E45D
:10257300100519FFFFFFFFFFFFFFFFFFFFFFFFFF37
:10258300FFEF7300007284FFEFBEEFDFFFFFFFFF7B
:10259300FFFFFFFFFFFFFFFFFFFFFFFFFFFFFFFF48
:1025A300FFFFFFDFE78BBA03F845F845F823F80090
:1025B300F8D3D4FFD74E5B2100293A55A58308C42D
:1025C300102519FFFFFFFFFFFFFFFFFFFFFFFFFFC7
:1025D300FFFBDEA308E8319EDF9EE7BFEFFFFFFFAF
:1025E300FFFFFFFFFFFFFFFFFFFFFFFFFFFFFFFFF8
:1025F300FFFFFFFFF751BC02E003F803F043E0ECF9
:10260300C27ECFFCBE46212100D394FFFF5184003C
:10261300008729FFFFFFFFFFFFFFFFFFFFFFFFFF14
:10262300FFFFFF51840000F48CFFEF9EE7BFEFDF55
:10263300FFFFFFFFFFFFFFFFFFFFFFFFFFFFFFFFA7
:10264300FFFFFFFFFF3DDF55BD52BC72BCB7B55D59
:10265300C7FFDFF06B0000093ABFF7FFFFFFFF146E
:102663009D55A5FFFFFFFFFFFFFFFFFFFFFFFFFFDD
:10267300FFFFFFFFFFAC4AA408BBBEDFE77EE7BE58
:10268300EFDFF7DFFFFFFFFFFFFFFFFFFFFFFFFFAF
:10269300FFFFFFDFFFDFF7FFEFDFDFBFD79ED7DFF0
:1026A300DFD8A583082611DBD6FFFFFFFFFFFFFF5F
:1026B300FFFFFFFFFFFFFFFFFFFFFFFFFFFFFFFF27
:1026C300FFFFFF79EE8BDC2131A9213DCFBFDF7EF8
:1026D300DF9EE7BEEFBFEFDFF7DFF7DFF7DFF7DF01
:1026E300F7BFEFBEEF9EE77EDF5ED75ED7DFDF9AF1
:1026F300B626194208EDA3BFFFFFFFFFFFFFFFFF51
:10270300FFFFFFFFFFFFFFFFFFFFFFFFFFFFFFFFD6
:10271300FF74DDC0DB00FE42EE024289217BB6DF9F
:10272300DF7ED77EDF7EDF9EE79EE79EE79EE79E06
:10273300E77EDF7EDF5DD75DD79EDFFFE7F8A50786
:1027430011E31802C560FDE6D3DBEEFFFFFFFFFFD9
:10275300FFFFFFFFFFFFFFFFFFFFFFFFFFFFFF9EE7
:10276300F784BAC1FC42FE82FEA2FE818345217436
:10277300745EC7DFDF7ED75ED75DD75ED75ED75D7A
:10278300D75DD75ED79EDFFFE73DC7F1638408427D
:102793005226E629FF86FEE0F36AC3FFFFFFFFFF31
:1027A300FFFFFFFFFFFFFFFFFFFFFFFFFFFFFF181D
:1027B300DEC1D2A2FD22FE42FE42FE62FEE2D4410F
:1027C3006A494253743BA63EC7BFD7BFD7BFD7BFE3
:1027D300DFBFD73EC71AA6F263A729824122B4629C
:1027E300FE83FEAAFE0FFF67FD63BA3CEFFFFFFF08
:1027F300FFFFFFFFFFFFFFFFFFFFFFFFFFFFFF9A4B
:10280300E680D221FDC2FDE2F5C2F582F582FD62CA
:10281300FD61DC219B846AE96A2C63AF6311746EEA
:10282300632C63895A0452817AC2CBE2FC62FD8233
:10283300FDC2FDC2FDE4FD24FD62CA1CE7FFFFFFEC
:10284300FFFFFFFFFFFFFFFFFFFFFFFFFFFFFFFF95
:10285300FFB1CC81D2C0F3C1FC02FD02FDE2FCC298
:10286300FCC2FC81FC80FBC0C9A48135AD59CE718B
:102873009C218100DAA1FB82FCA2FC82FCA2FC0267
:10288300FD22FDE2FC00FC60DA90CCFFFFFFFFFFBE
:10289300FFFFFFFFFFFFFFFFFFFFFFFFFFFFFFFF45
:1028A300FFFFFF59DE0DC406CBE4D203DB03DBE3FA
:1028B300DAC3D2A4C209B3D2BC9EF7FFFFFFFFFF66
:1028C300FFFBE60EB4A6BA83D2E3E202EB22EB22CD
:1028D300E303DBE4D26AC3B6D5FFFFFFFFFFFFFFCD
:1028E300FFFFFFFF1BCBFF1BD6FF1BE2FF1BEF000E
:1028F30000000000000000000000000000000000D5
:0D29030000000000000000000000000000C7
:102910006C800024FFFFFFFFFFFFFFFFFFFFFFFFB3
:10292000FFFFFFFFFFFFFFFFFFFFFFFFFFFFFFFFB7
:10293000FFFFFFFFFFFFFFFFB5AD8E6B528C7ACE1E
:10294000FFFFFFFFFFFFFFFFFFFFFFFFFFFFFFFF97
:10295000FFFFFFFFFFFFFFFFFFFFFFFFFFFFFFFF87
:10296000FFFFFFFFFFFFFFFFFFFFFFFFFFFFFFFF77
:10297000FFFFFFFFFFFFFFFFFFFFFFFFFFFFFFFF67
:10298000FFFFFFFFAD73000000000000000000002B
:10299000C31879CEFFFFFFFFFFFFFFFFFFFFFFFF21
:1029A000FFFFFFFFFFFFFFFFFFFFFFFFFFFFFFFF37
:1029B000FFFFFFFFFFFFFFFFFFFFFFFFFFFFFFFF27
:1029C000FFFFFFFFFFFFFFFFFFFFFFFFFFFFFFFF17
:1029D000FFFFCB5A00000000000000000000831041
:1029E0000521000096B5FFFFFFFFFFFFFFFFFFFF80
:1029F000FFFFFFFFFFFFFFFFFFFFFFFFFFFFFFFFE7
:102A0000FFFFFFFFFFFFFFFFFFFFFFFFFFFFFFFFD6
:102A1000FFFFFFFFFFFFFFFFFFFFFFFFFFFFFFFFC6
:102A20007EEF000000000000000000000000000039
:102A3000000000000000FFFFFFFFFFFFFFFFFFFFA0
:102A4000FFFFFFFFFFFFFFFFFFFFFFFFFFFFFFFF96
:102A5000FFFFFFFFFFFFFFFFFFFFFFFFFFFFFFFF86
:102A6000FFFFFFFFFFFFFFFFFFFFFFFFFFFFFFFF76
:102A7000D4940000000000000000000000000000EE
:102A8000000000000000518CFFFFFFFFFFFFFFFF71
:102A9000FFFFFFFFFFFFFFFFFFFFFFFFFFFFFFFF46
:102AA000FFFFFFFFFFFFFFFFFFFFFFFFFFFFFFFF36
:102AB000FFFFFFFFFFFFFFFFFFFFFFFFFFFFFFFF26
:102AC000AF73000000000000000000000000600084
:102AD0000000000000006631FFFFFFFFFFFFFFFF67
:102AE000FFFFFFFFFFFFFFFFFFFFFFFFFFFFFFFFF6
:102AF000FFFFFFFFFFFFFFFFFFFFFFFFFFFFFFFFE6
:102B0000FFFFFFFFFFFFFFFFFFFFFFFFFFFFFFFFD5
:102B1000EB5A82101BDF894A000000003AE7FFFFF2
:102B2000CE73000000000000FFFFFFFFFFFFFFFF6C
:102B3000FFFFFFFFFFFFFFFFFFFFFFFFFFFFFFFFA5
:102B4000FFFFFFFFFFFFFFFFFFFFFFFFFFFFFFFF95
:102B5000FFFFFFFFFFFFFFFFFFFFFFFFFFFFFFFF85
:102B60000B632B63B09CF7DE0000AEA434CE296B60
:102B7000FFFF000000000000FFFFFFFFFFFFFFFF5F
:102B8000FFFFFFFFFFFFFFFFFFFFFFFFFFFFFFFF55
:102B9000FFFFFFFFFFFFFFFFFFFFFFFFFFFFFFFF45
:102BA000FFFFFFFFFFFFFFFFFFFFFFFFFFFFFFFF35
:102BB000CD834231000089AC6049ABCD604100005B
:102BC00018EF032900000000FFFFFFFFFFFFFFFFDA
:102BD000FFFFFFFFFFFFFFFFFFFFFFFFFFFFFFFF05
:102BE000FFFFFFFFFFFFFFFFFFFFFFFFFFFFFFFFF5
:102BF000FFFFFFFFFFFFFFFFFFFFFFFFFFFFFFFFE5
:102C0000CC834031828B86D529FFA8FE62B4218314
:102C100032DE000000000000FFFFFFFFFFFFFFFFAC
:102C2000FFFFFFFFFFFFFFFFFFFFFFFFFFFFFFFFB4
:102C3000FFFFFFFFFFFFFFFFFFFFFFFFFFFFFFFFA4
:102C4000FFFFFFFFFFFFFFFFFFFFFFFFFFFFFFFF94
:102C5000D0A4A0204AFF24FF23FF23FFC8FFADFF1D
:102C60008BC50000000000001BDFFFFFFFFFFFFF20
:102C7000FFFFFFFFFFFFFFFFFFFFFFFFFFFFFFFF64
:102C8000FFFFFFFFFFFFFFFFFFFFFFFFFFFFFFFF54
:102C9000FFFFFFFFFFFFFFFFFFFFFFFFFFFFFFFF44
:102CA00072B5C26A29FF84FF41FF21FFC2FE86F68A
:102CB000AAC50000000000002F7CFFFFFFFFFFFF00
:102CC000FFFFFFFFFFFFFFFFFFFFFFFFFFFFFFFF14
:102CD000FFFFFFFFFFFFFFFFFFFFFFFFFFFFFFFF04
:102CE000FFFFFFFFFFFFFFFFFFFFFFFFFFFFFFFFF4
:102CF00098D6E02804C564FE81FE61FEE3ED49EE4E
:102D0000ADC500002000C639C210FFFFFFFFFFFF66
:102D1000FFFFFFFFFFFFFFFFFFFFFFFFFFFFFFFFC3
:102D2000FFFFFFFFFFFFFFFFFFFFFFFFFFFFFFFFB3
:102D3000FFFFFFFFFFFFFFFFFFFFFFFFFFFFFFFFA3
:102D400090948131CCCD83B464DD43D509E6F6FFA0
:102D5000FFFF085B000000000000F7BDFFFFFFFF62
:102D6000FFFFFFFFFFFFFFFFFFFFFFFFFFFFFFFF73
:102D7000FFFFFFFFFFFFFFFFFFFFFFFFFFFFFFFF63
:102D8000FFFFFFFFFFFFFFFFFFFFFFFFFFFFFFFF53
:102D900000002E84FFFFABA449A472EEFEFFFFFFEC
:102DA000FFFFFFFF0000000000000000FFFFFFFF2B
:102DB000FFFFFFFFFFFFFFFFFFFFFFFFFFFFFFFF23
:102DC000FFFFFFFFFFFFFFFFFFFFFFFFFFFFFFFF13
:102DD000FFFFFFFFFFFFFFFFFFFFFFFFFFFF494A6E
:102DE0000000FFFFFFFFFFFFDDFFFFFFFFFFFFFF13
:102DF000FFFFFFFFEC5A0000000000002C6BFFFFFC
:102E0000FFFFFFFFFFFFFFFFFFFFFFFFFFFFFFFFD2
:102E1000FFFFFFFFFFFFFFFFFFFFFFFFFFFFFFFFC2
:102E2000FFFFFFFFFFFFFFFFFFFFFFFF15A50000F4
:102E300018BEFFFFFFFFFFFFFFFFFFFFFFFFFFFFCA
:102E4000FFFFFFFF5ACE000000000000000038C660
:102E5000FFFFFFFFFFFFFFFFFFFFFFFFFFFFFFFF82
:102E6000FFFFFFFFFFFFFFFFFFFFFFFFFFFFFFFF72
:102E7000FFFFFFFFFFFFFFFFFFFFFFFF000000005E
:102E80009EEFFFFFFFFFFFFFFFFFFFFFFFFFFFFFC3
:102E9000FFFF7DEFFFFF00000000000000000000CA
:102EA000FFFFFFFFFFFFFFFFFFFFFFFFFFFFFFFF32
:102EB000FFFFFFFFFFFFFFFFFFFFFFFFFFFFFFFF22
:102EC000FFFFFFFFFFFFFFFFFFFF484A00006531E4
:102ED0009DF7FFFFFFFFFFFFFFFFFFFFFFFFFFFF6C
:102EE0003DEFB7BDD8C5CF83000000000000000053
:102EF000694AFFFFFFFFFFFFFFFFFFFFFFFFFFFF2D
:102F0000FFFFFFFFFFFFFFFFFFFFFFFFFFFFFFFFD1
:102F1000FFFFFFFFFFFFFFFF9DEF0000000078CEE7
:102F2000FFFFFFFFFFFFFFFFFFFFFFFFFFFFFFFFB1
:102F3000FFFFFFFFFFFF18CE0000000000000000B1
:102F400000005CE7FFFFFFFFFFFFFFFFFFFFFFFF4A
:102F5000FFFFFFFFFFFFFFFFFFFFFFFFFFFFFFFF81
:102F6000FFFFFFFFFFFFFFFFAE730000E741FFFF22
:102F7000FFFFFFFFFFFFFFFFFFFFFFFFFFFFFFFF61
:102F8000FFFFFFFFFFFFFFFF6E7300000000000068
:102F90000000C731FFFFFFFFFFFFFFFFFFFFFFFF45
:102FA000FFFFFFFFFFFFFFFFFFFFFFFFFFFFFFFF31
:102FB000FFFFFFFFFFFFFFFF610800001DEFFFFFA6
:102FC000FFFFFFFFFFFFFFFFFFFFFFFFFFFFFFFF11
:102FD000FFFFFFFFFFFFFFFFFBE600000000000018
:102FE00000000000FFFFFFFFFFFFFFFFFFFFFFFFED
:102FF000FFFFFFFFFFFFFFFFFFFFFFFFFFFFFFFFE1
:10300000FFFFFFFFFFFF39C600000521FFFFFFFFA5
:10301000FFFFFFFFFFFFFFFFFFFFFFFFFFFFFFFFC0
:10302000FFFFFFFFFFFFFFFFFFFF000000000000AA
:1030300000000000928CFFFFFFFFFFFFFFFFFFFF7C
:10304000FFFFFFFFFFFFFFFFFFFFFFFFFFFFFFFF90
:10305000FFFFFFFFFFFF452900006E6BFFFFFFFF33
:10306000FFFFFFFFFFFFFFFFFFFFFFFFFFFFFFFF70
:10307000FFFFFFFFFFFFFFFFFFFF0000000000005A
:10308000000000004529FFFFFFFFFFFFFFFFFFFFDC
:10309000FFFFFFFFFFFFFFFFFFFFFFFFFFFFFFFF40
:1030A000FFFFFFFFF7BD0000000095B5FFFFFFFF2A
:1030B000FFFFFFFFFFFFFFFFFFFFFFFFFFFFFFFF20
:1030C000FFFFFFFFFFFFFFFFFFFF81080000000081
:1030D000000000000000FFFFFFFFFFFFFFFFFFFFFA
:1030E000FFFFFFFFFFFFFFFFFFFFFFFFFFFFFFFFF0
:1030F000FFFFFFFF654A0000000056D6FFFFFFFFFD
:10310000FFFFFFFFBFFFFFFFFFFFFFFFFFFFFFFF0F
:10311000FFFFFFFFFFFFFFFFFFFF80100000000029
:10312000000000000000FFFFFFFFFFFFFFFFFFFFA9
:10313000FFFFFFFFFFFFFFFFFFFFFFFFFFFFFFFF9F
:10314000FFFFFFFF2AB5617BC0284EBDFFFFFFFFD9
:10315000FFFFFFFFFFFFFFFFFFFFFFFFFFFFFFFF7F
:10316000FFFFFFFFFFFFFFFFFFFF00080000000061
:10317000000000006329FFFFFFFFFFFFFFFFFFFFCD
:10318000FFFFFFFFFFFFFFFFFFFFFFFFFFFFFFFF4F
:10319000FEFFFBFFAEFFCCFFEBFEE05994E6FFFF26
:1031A000FFFFFFFFFFFFFFFFFFFFFFFFFFFFFFFF2F
:1031B000FFFFFFFFFFFFFAFF35FF003100000000B7
:1031C0000000201012CEFFFFFFFFFFFFFFFFFFFFF9
:1031D000FFFFFFFFFFFFFFFFFFFFFFFFFFFFFCFF02
:1031E000F8FF0BFF26FFC7FF87FFA5DD000092C594
:1031F000FFFFFFFFFFFFFFFFFFFFFFFFFFFFFFFFDF
:10320000FFFFFFFFFDFF53FF0FFF00410000000025
:103210000000E8B4F5FFFCFFFFFFFFFFFFFFFFFF2B
:10322000FFFFFFFFFFFFFFFFFFFFFFFFF7FF4FFF66
:1032300047EE64FEA5FF42FFA4FFA8FF808B0000BD
:103240004E94FFFFFFFFFFFFFFFFFFFFFFFFFFFFAA
:10325000FFFFFFFFD7FF69CD0AFFC0A3403800285A
:10326000C0AB2BFF2CFFF8FFFEFFFFFFFFFFFFFFB0
:10327000FFFFFFFFFFFFFFFFFFFFFDFF8AF607FFD6
:1032800046FF44FF42FF82FFA3FF85FF8BFFC03054
:103290000000AB62FFFFFFFFFFFFFFFFFFFFFFFF2D
:1032A000FFFFFFFFB7FFA5BC26FFC0FEA0EDE0FDBE
:1032B00045FF46FF88FFEFFFFAFFFFFFFFFFFFFF1D
:1032C000FFFFFFFFFFFFFFFFFFFFFBFF09FF43FFC4
:1032D00022FF62FF83FF82FF41FF84FFC8FFC6D544
:1032E00000000000FFFFFFFFFFFFFFFFFFFFFFFFEA
:1032F000FFFFFFFFB7FFE1A324FF60FF40FF40FF98
:1033000041FF84FF65FF69FFF3FFFDFFFFFFFFFF44
:10331000FFFFFFFFFFFFFFFFFFFFFCFF28FF42FF54
:1033200082FF61FF61FF82FF82FF42FF84FFA9FFEE
:10333000408B489CFFFFFFFFFFFFFFFFFFFFFFFFEA
:10334000FFFFFFFF2162807266FF40FF80FF60FF8A
:1033500062FF62FF83FF86FF2BFFD4FFFFFFFFFFAB
:10336000FFFFFFFFFFFFFFFFFFFFFBFF28FF63FFE4
:10337000C3FF61FF83FF62FF62FF83FF82FF64FF81
:1033800008FFF2FFFFFFFFFFFFFFFFFFFFFFFFFF51
:103390007DF7A341000083B425FF61FF61FF81FF3A
:1033A000A3FF63FF44FF67FF6DFFF5FFFFFFFFFF14
:1033B000FFFFFFFFFFFFFFFFFFFFF9FF29FF02FFF6
:1033C00022FF82FF62FFA3FF82FF61FF81FF62FF96
:1033D00086FFA1B48BA43CEFDFFFDBDEF39CE73973
:1033E00000000000001026D546FF63FF61FF61FF6B
:1033F00063FF87FF89FF0CFFF4FFFEFFFFFFFFFF66
:10340000FFFFFFFFFFFFFFFFFFFFF9FFAAFE85FEA3
:10341000C5FEC4FE65FF85FF43FF42FF61FF41FF1C
:1034200024FFA5E5000000000000000000000000EF
:1034300000000000001866DD27FF44FF64FFA6FFC0
:1034400026FF87FE6BEED4FFFCFFFFFFFFFFFFFFB1
:10345000FFFFFFFFFFFFFFFFFFFFFEFF74FF0CE614
:10346000C6C4C3C4C0C481E583FE04FFE2FE23FFDB
:1034700002FE21BC001000000000010062100421C7
:10348000600800006028C3CC64FE62FE06FFA3ED66
:1034900004D5EBE5B7FFFCFFFFFFFFFFFFFFFFFFDA
:1034A000FFFFFFFFFFFFFFFFFFFFFFFFFDFFFBFF32
:1034B00077FF91EECBD566CD61BC40C401DDE1DC88
:1034C000E0BB03B4F1D59CFF9EFFDFFFFFFFFFFFD2
:1034D0005CEF75DE2CBD208B20BCA0CC00B443B4C7
:1034E000B0FEB8FFFDFFFFFFFFFFFFFFFFFFFFFF85
:1034F000FFFFFFFFFFFFFFFFFFFFFFFFFFFFFFFFDC
:10350000FFFFFEFFFBFFF9FF55FF91EEACD588B43E
:10351000AED5FAFFFEFFFFFFFFFFFFFFFFFFFFFF3C
:10352000FFFFDDFFBAFF52E6C9BCA8BC6DD556FF50
:10353000FDFFFFFFFFFFFFFFFFFFFFFFFFFFFFFF9D
:10354000FFFFFFFFFFFFFFFFFFFFFFFFFFFFFFFF8B
:10355000FFFFFFFFFFFFFFFFFFFFFFFFFDFFFEFF7E
:10356000FFFFFFFFFFFFFFFFFFFFFFFFFFFFFFFF6B
:10357000FFFFFFFFFFFFFFFFFDFFFDFFFFFFFFFF5F
:10358000FFFFFFFFFFFFFFFFFFFFFFFFFFFFFFFF4B
:10359000FFFFFFFF4A0010F80007E0001FFFE0F800
:1035A0001F4A001AF80007E0001FBC40FFE050006F
:1035B00000F800F81F07E001CF001F0000841F0083
:0135C000000A
:066A8B007BFF7A1C790F6D
:106A9100900CBBEBF0A3EAF0A3E9F074FFFFFE1248
:106AA10073AC900D7FE0FAA3E0FB900CC4E4F0A37B
:106AB1007414F0A3E4F0A3741FF0E4FDFCFFFE12D4
:106AC1006881900D81E0FEA3E0FF24ECFDEE34FF30
:106AD100FC900D7FE0FAA3E0FB900CC4EEF0A3EF75
:106AE100F0A3E4F0A3741FF0E4FFFE12688174FFC9
:106AF100900D7BF0A3F0900CC4E4F0A3741FF09010
:106B01000CBBE0F9A3E0FAA3E0900CC6C9F0A3EA3C
:106B1100F0A3E9F0A37410F0A37401F074FFFBFA81
:106B21007D027C00E4FFFE127206900D82E024EEED
:106B3100FD900D81E034FFFC900CC4E4F0A3741FC0
:106B4100F0A374FFF0A3741AF0A37403F0A37410FC
:0F6B5100F0A37401F074FFFBFAE4FFFE0272067A
:106DD4007BFF7A1A790F126A91900CC4E4F0A374C1
:106DE4001FF0A374FFF0A3741AF0A3741CF0A3742F
:106DF40010F0A37401F07B007AF87D1E7C00E4FFA0
:106E0400FE127206900CC4E4F0A3741FF0A374FF86
:106E1400F0A3741AF0A3740FF0A37410F0A3740118
:106E2400F07B007AF87D3C7C00E4FFFE1272069051
:106E34000CC4E4F0A3741FF0A374FFF0A3741AF05D
:106E4400A37421F0A37410F0A37401F07B1F7AF8EB
:106E54007D5A7C00E4FFFE127206900CC4E4F0A399
:106E6400741FF0A374FFF0A3741AF0A37436F0A394
:106E74007410F0A37401F07B1F7A007D787C00E429
:106E8400FFFE1272067FDC7E051277F87FDC7E053A
:036E94000277F88A
:10646A00900D7FE0FAA3E0FBA3E0FFA3E0900CC449
:10647A00CFF0A3EFF074FFA3F0A3F0E4FDFCFFFE5E
:10648A00126881900CD174FFF0A374E0F0A374FF3A
:10649A00F0A3741AF0A37442F0A37410F0A3740169
:1064AA00F07B1F7A007D1E7C007F147E00124AADAD
:1064BA007F207E031277F8900D7FE0FAA3E0FBA31A
:1064CA00E0FFA3E0900CC4CFF0A3EFF0A374F8F0C0
:1064DA00A3E4F0FDFCFFFE126881900CD174FFF07A
:1064EA00A374E0F0A374FFF0A3741AF0A3744AF043
:1064FA00A37410F0A37401F07B1F7A007D1E7C0048
:10650A007F147E00124AAD7F207E031277F8900D29
:10651A007FE0FAA3E0FBA3E0FFA3E0900CC4CFF076
:10652A00A3EFF0A37407F0A374E0F0E4FDFCFFFE10
:10653A00126881900CD174FFF0A374E0F0A374FF89
:10654A00F0A3741AF0A3744FF0A37410F0A37401AB
:10655A00F07B1F7A007D1E7C007F147E00124AADFC
:10656A007F207E031277F8900D7FE0FAA3E0FBA369
:10657A00E0FFA3E0900CC4CFF0A3EFF0A3E4F0A3F4
:10658A00741FF0E4FDFCFFFE126881900CD174FFC9
:10659A00F0A374E0F0A374FFF0A3741AF0A3745686
:1065AA00F0A37410F0A37401F07B007AF87D1E7CCE
:0F65BA00007F147E00124AAD7F207E030277F827
:105D1E00E4900DF5F07BFF7A1A795C126A91900D82
:105D2E007FE0FAA3E0FB900D82E024ECFE900D8163
:105D3E00E034FF900CC4F0A3CEF074FFA3F0A3F0F8
:105D4E007D147C00E4FFFE126881E4900DF5F09066
:105D5E000DF5E0C39405748094804003025E17E055
:105D6E00FD25E02410F582E43400F583E0FFA3E086
:105D7E00900D7BCFF0A3EFF0900D7FE0C313FEA349
:105D8E00E01324B0FBEE34FFFAED75F00FA4FDAC7A
:105D9E00F02BFFEC3AFEC006C007A3E0C313FEA330
:105DAE00E01324B0FFEE34FFCF2DFDEF3CFCC0041A
:105DBE00C005900D7FE0C313FCA3E013FD900DF51D
:105DCE00E0F975F00FA42DFFE5F03CCF24ECFBEFCE
:105DDE0034FFFA900D81E0C313FCA3E013FDE975C7
:105DEE00F00FA42DFFE5F03CCF24ECCF34FF900D47
:105DFE00D0F0A3EFF0D005D004D007D00612701269
:105E0E00900DF5E004F0025D5D7FDC7E051277F803
:105E1E00900D80E024FFFB900D7FE034FFFA900D93
:105E2E0082E024ECFE900D81E034FF900CC4F0A3D0
:105E3E00CEF074FFA3F0A3F07D147C00E4FFFE12FD
:105E4E006881E4900DF5F0900DF5E0C39405748033
:105E5E0094804003025F0FE0FD25E02410F582E4FC
:105E6E003400F583E0FFA3E0900D7BCFF0A3EFF0BD
:105E7E00900D7FE0C313FEA3E01324B0FBEE34FFBE
:105E8E00FAED75F00FA4FDACF02BFFEC3AFEC00658
:105E9E00C007A3E0C313FEA3E01324B0FFEE34FF4C
:105EAE00CF2DFDEF3CFCC004C005900D7FE0C31369
:105EBE00FCA3E013FD900DF5E0F975F00FA42DFF96
:105ECE00E5F03CCF24ECFBEF34FFFA900D81E0C3FC
:105EDE0013FCA3E013FDE975F00FA42DFFE5F03CD4
:105EEE00CF24ECCF34FF900DD8F0A3EFF0D005D037
:105EFE0004D007D006127944900DF5E004F0025E4E
:085F0E00557FDC7E050277F8E7
:1062F700E4900DF6F07BFF7A1A7972126A91900D8D
:106307007FE0FAA3E0FB900D82E024ECFE900D8184
:10631700E034FF900CC4F0A3CEF074FFA3F0A3F019
:106327007D147C00E4FFFE126881E4900DF6F09086
:106337000DF6E0C3940574809480506A900D7FE059
:10634700C313FEA3E01324B0FDEE34FFFC900DF65B
:10635700E0F975F019A4FBAAF02DFFEA3CFEC00690
:10636700C007900D81E0C313FEA3E01324CEFFEE18
:1063770034FFCF2BFDEF3AFCE925E02410F582E44A
:106387003400F583E0FAA3E0FB900CE1E4F0A3749A
:106397001EF0E4A3F0A3F0D007D006125F16900D0D
:1063A700F6E004F080897FDC7E051277F8900D8097
:1063B700E024FFFB900D7FE034FFFA900D82E0248C
:1063C700ECFE900D81E034FF900CC4F0A3CEF07486
:1063D700FFA3F0A3F07D147C00E4FFFE126881E4C4
:1063E700900DF6F0900DF6E0C394057480948050FC
:1063F7006B900D7FE0C313FEA3E01324B0FDEE34D2
:10640700FFFC900DF6E0F975F019A4FBAAF02DFF3B
:10641700EA3CFEC006C007900D81E0C313FEA3E06F
:106427001324CEFFEE34FFCF2BFDEF3AFCE925E036
:106437002410F582E43400F583E0FAA3E0FB900C26
:10644700E1E4F0A3741EF0A3E4F0A304F0D007D0B6
:1064570006125F16900DF6E004F080887FDC7E055B
:036467000277F8C1
:104D4400E4900DF7F07BFF7A1A7988126A91900D3E
:104D54007FE0FAA3E0FB900D82E024ECFE900D814D
:104D6400E034FF900CC4F0A3CEF074FFA3F0A3F0E2
:104D74007D147C00E4FFFE126881E4900DF7F0904E
:104D84000DF7E0F9C39405748094804003024E88C3
:104D9400E925E02410F582E43400F583E0FFA3E084
:104DA400900D7BCFF0A3EFF0900D7FE0C313FAA337
:104DB400E013FB24B0FDEA34FFFCE975F014A42DE4
:104DC400FFE5F03CFEC006C007A3E0C313FEA3E06A
:104DD4001324ECFDEE34FFFCE975F00FA42DFDE582
:104DE400F03CFCC004C005EB24CDFDEA34FFFCE933
:104DF40075F014A42DFBE5F03CFAC002C003900D3D
:104E040081E0C313FEA3E01324B7FDEE34FFFCE9F5
:104E140075F00FA42DFDE5F03CFCC005C004900D19
:104E24007FE0C313FEA3E01324EBFDEE34FFFCE9A3
:104E340075F014A42DFDE5F03CFCA3E0C313FEA320
:104E4400E01324ECFBEE34FFFAE975F00FA42BFE1B
:104E5400E5F03A900DB2F0A3CEF0900DB0ECF0A3D3
:104E6400EDF0900DAED0E0F0A3D0E0F0D003D0028E
:104E7400D005D004D007D0061274A4900DF7E00436
:104E8400F0024D837FDC7E051277F8900D80E024DC
:104E9400FFFB900D7FE034FFFA900D82E024ECFEDE
:104EA400900D81E034FF900CC4F0A3CEF074FFA306
:104EB400F0A3F07D147C00E4FFFE126881E4900D01
:104EC400F7F0900DF7E0F9C39405748094804003E3
:104ED400024FCBE925E02410F582E43400F583E0A9
:104EE400FFA3E0900D7BCFF0A3EFF0900D7FE0C324
:104EF40013FAA3E013FB24B0FDEA34FFFCE975F0D8
:104F040014A42DFFE5F03CFEC006C007A3E0C313C4
:104F1400FEA3E01324ECFDEE34FFFCE975F00FA4CE
:104F24002DFDE5F03CFCC004C005EB24CDFDEA34C6
:104F3400FFFCE975F014A42DFBE5F03CFAC002C0B7
:104F440003900D81E0C313FEA3E01324B7FDEE34F8
:104F5400FFFCE975F00FA42DFDE5F03CFCC005C095
:104F640004900D7FE0C313FEA3E01324EBFDEE34A5
:104F7400FFFCE975F014A42DFDE5F03CFCA3E0C3AF
:104F840013FEA3E01324ECFBEE34FFFAE975F00FF3
:104F9400A42BFEE5F03A900D0BF0A3CEF0900D0992
:104FA400ECF0A3EDF0900D07D0E0F0A3D0E0F0D04A
:104FB40003D002D005D004D007D0061235F5900DE9
:0E4FC400F7E004F0024EC67FDC7E050277F8AF
:106D05007BFF7A1A79A3126A91900D7B74F8F0A330
:106D1500E4F0900D7DF0A3741FF0900CD474FFF097
:106D2500A3741AF0A374B6F0E4A3F07B0C7D1EFCEB
:106D35007F0AFE126E97900CD474FFF0A3741AF0BC
:106D4500A374D6F0A37401F07B0C7D2D7C007F0A23
:106D55007E00126E97900CD474FFF0A3741AF0A302
:106D650074F6F0E4A3F07B0C7D3CFC7F0AFE126E0A
:106D750097900CD474FFF0A3741BF0A37414F0E483
:106D8500A3F07B107D50FC7F0AFE126E97900CD409
:106D950074FFF0A3741BF0A37431F0A37401F07BAE
:106DA500107D647C007F0A7E00126E97900CD4746F
:106DB500FFF0A3741BF0A3744DF0E4A3F07B107DEA
:0F6DC50078FC7F0AFE126E977FB07E040277F88B
:106F56007BFF7A1B7968126A91900CD174FFF0A3BB
:106F660074E0F0A374FFF0A3741BF0A3747BF0A38A
:106F76007410F0E4A3F07B1FFA7D1EFC7F0AFE125C
:106F86004AAD900CD174FFF0A374E0F0A374FFF047
:106F9600A3741BF0A37488F0A37410F0E4A3F07B31
:106FA6001FFA7D32FC7F0AFE124AAD900CD174FFA7
:106FB600F0A374E0F0A374FFF0A3741BF0A3749A1B
:106FC600F0A37418F0A37401F07B1F7A007D467C51
:106FD600007F0A7E00124AAD900CD174FFF0A374B4
:106FE600E0F0A374FFF0A3741BF0A374A9F0A374DC
:106FF60020F0A37401F07B1F7A007D647C007F0A79
:0C7006007E00124AAD7FB07E040277F8D5
:104510007BFF7A1B79B8126A917BFF7A1C79667DE2
:10452000327C00E4FFFE126B607BFF7A1C79667DB3
:10453000327C007F327E00126B607BFF7A1C7966D2
:104540007D327C007F647E00126B607BFF7A1C7979
:10455000667D327C007F967E00126B607BFF7A1C4A
:1045600079667D327C007FC87E00126B607BFF7AAB
:104570001C79667D327C007FFA7E00126B607BFFC7
:104580007A1C79667D327C007F2C7E01126B607B09
:10459000FF7A1C79667D327C007F5E7E01126B6043
:1045A0007BFF7A1C79667D327C007F907E01126BE6
:1045B000607BFF7A1C79667D647C00E4FFFE126BF1
:1045C000607BFF7A1C79667D647C007F327E0012FE
:1045D0006B607BFF7A1C79667D647C007F647E0063
:1045E000126B607BFF7A1C79667D647C007F967E0F
:1045F00000126B607BFF7A1C79667D647C007FC84B
:104600007E00126B607BFF7A1C79667D647C007F84
:10461000FA7E00126B607BFF7A1C79667D647C00F9
:104620007F2C7E01126B607BFF7A1C79667D647C37
:10463000007F5E7E01126B607BFF7A1C79667D6471
:104640007C007F907E01126B607BFF7A1C79667D17
:10465000967C00E4FFFE126B607BFF7A1C79667D1E
:10466000967C007F327E00126B607BFF7A1C79663D
:104670007D967C007F647E00126B607BFF7A1C79E4
:10468000667D967C007F967E00126B607BFF7A1CB5
:1046900079667D967C007FC87E00126B607BFF7A16
:1046A0001C79667D967C007FFA7E00126B607BFF32
:1046B0007A1C79667D967C007F2C7E01126B607B74
:1046C000FF7A1C79667D967C007F5E7E01126B60AE
:1046D0007BFF7A1C79667D967C007F907E01126B51
:1046E000607BFF7A1C79667DC87C00E4FFFE126B5C
:1046F000607BFF7A1C79667DC87C007F327E001269
:104700006B607BFF7A1C79667DC87C007F647E00CD
:10471000126B607BFF7A1C79667DC87C007F967E79
:1047200000126B607BFF7A1C79667DC87C007FC8B5
:104730007E00126B607BFF7A1C79667DC87C007FEF
:10474000FA7E00126B607BFF7A1C79667DC87C0064
:104750007F2C7E01126B607BFF7A1C79667DC87CA2
:10476000007F5E7E01126B607BFF7A1C79667DC8DC
:104770007C007F907E01126B607BFF7A1C79667DE6
:10478000FA7C00E4FFFE126B607BFF7A1C79667D89
:10479000FA7C007F327E00126B607BFF7A1C7966A8
:1047A0007DFA7C007F647E00126B607BFF7A1C794F
:1047B000667DFA7C007F967E00126B607BFF7A1C20
:1047C00079667DFA7C007FC87E00126B607BFF7A81
:1047D0001C79667DFA7C007FFA7E00126B607BFF9D
:1047E0007A1C79667DFA7C007F2C7E01126B607BDF
:1047F000FF7A1C79667DFA7C007F5E7E01126B6019
:104800007BFF7A1C79667DFA7C007F907E01026BCB
:014810006047
:1070BC00E4900D8EF0788F7C0D7D017BFF7A287922
:1070CC00E6FE7F0C123BBFE4900D8EF0900D8EE02F
:1070DC00FFC3940474809480507A1271657BFF7A9C
:1070EC001B79FC126A91900D8EE075F003A4248F2D
:1070FC00F582E4340DF583E0F9A3E0FAA3E0900CFB
:10710C00D3C9F0A3EAF0A3E9F0900CD174FFF0A37B
:10711C0074E0F0900CD67410F0A37401F07B1F7A1D
:10712C00007D1E7C007F147E00124AAD7BFF7A1C12
:10713C0079667D327C007F1E7E00126B607FE87E5C
:10714C00031277F87FE87E031277F8900D8EE00437
:09715C00F00270D87F0102716598
:10481100E4900CA4F0A3F0A3F0126A8B127BC59074
:104821000D7B74F8F0A3E4F0900CA6E004F0127B89
:10483100D9E4900CA4F0900CA4E0FFC3940574801B
:1048410094804003024A987E007401A807088005FD
:10485100C333CE33CED8F9FF900D7AE0FDEF5D7012
:1048610003024A79900CA4E0FF25E02466F582E476
:10487100340DF583E0FCA3E0FD900D7FE0FAA3E0A9
:10488100FBC3ED9BEC9A4003024A8FEF25E02470B5
:10489100F582E4340DF583E0FEA3E0FF900D81E0A5
:1048A100FCA3E0FDC3EF9DEE9C4003024A8F900CF8
:1048B100A4E025E025E024A7F582E4340CF583E0AB
:1048C100FEA3E0F47002EEF47050900CA4E0FF251A
:1048D100E02466F582E4340DF583E0FCA3E0FDEF0E
:1048E10025E025E024A7F582E4340CF583ECF0A360
:1048F100EDF0900CA4E0FF25E02470F582E4340D86
:10490100F583E0FCA3E0FDEF25E025E024A9F58295
:10491100E4340CF583ECF0A3EDF0900D80E024E895
:10492100FF900D7FE034FFFE900CA4E0FD25E02414
:1049310066F582E4340DF583E0FAA3E0D39FEA9EA5
:10494100405EED25E02470F582E4340DF583E0FE50
:10495100A3E0C39410EE94005046900CA6E094019D
:10496100748094804003024A8F126A8B900D80E01C
:1049710024E8FF900D7FE034FFFE900CD474FFF02B
:10498100A3741CF0A37433F0A37401F07B10E4FD55
:10499100FC126E97900D7B74F8F0A3E4F0024A27A5
:1049A100900CA4E0FD25E025E024A7F582E4340C79
:1049B100F583E0FEA3E0FFC006C007ED25E025E09A
:1049C10024A9F582E4340CF583E0FCA3E0FDC005E5
:1049D100900CA4E0F925E02466F582E4340DF5831A
:1049E100E0FAA3E0FBE925E02470F582E4340DF55B
:1049F10083E0FEA3E0FFE925E0241AF582E4340018
:104A0100F583E0FDA3E0900CC5CDF0A3EDF0900C93
:104A1100C1EEF0A3EFF0A3E4F0A37402F0D005D04F
:104A210007D006125B14900CA4E0FF25E02466F584
:104A310082E4340DF583E0FCA3E0FDEF25E025E001
:104A410024A7F582E4340CF583ECF0A3EDF0900C8F
:104A5100A4E0FF25E02470F582E4340DF583E0FC49
:104A6100A3E0FDEF25E025E024A9F582E4340CF56F
:104A710083ECF0A3EDF08016900CA4E025E025E096
:104A810024A7F582E4340CF58374FFF0A3F0900CB5
:104A9100A4E004F0024837900CA6E0D3940474809B
:0C4AA10094805003024829E4F0024829E8
:1056BF00782B7C0D7D017BFF7A2879F27E007F0AA3
:1056CF00123BBF78367C0D7D017BFF7A2879FC7EFB
:1056DF00007F14123BBF7BFF7A1C7937126A9190BF
:1056EF000D7FE0FAA3E0FB900D82E024ECFE900D1D
:1056FF0081E034FF900CC4F0A3CEF074FFA3F0A3AD
:10570F00F07D147C00E4FFFE126881127865900C26
:10571F00D274FFF0A3741CF0A3744EF0A3EEF0A3A9
:10572F00EFF07B017A0D792B123EF8900CD174FFBC
:10573F00F0A374E0F0A37401F0A3740DF0A3742B25
:10574F00F0A37410F0E4A3F07B1FFA7D19FC7F32F5
:10575F00FE124AADE4900D35F0900D35E0C394077D
:10576F007480948040030258F8E0FD25E02400F592
:10577F0082E43400F583E0FFA3E0900D7BCFF0A32C
:10578F00EFF0900D7FE0C313FEA3E01324B0FBEE08
:10579F0034FFFAED75F00FA4FDACF02BFFEC3AFEE1
:1057AF00C006C007A3E0C313FEA3E01324B0FFEEAF
:1057BF0034FFCF2DFDEF3CFCC004C005900D7FE002
:1057CF00C313FCA3E013FD900D35E0F975F00FA4A2
:1057DF002DFFE5F03CCF24ECFBEF34FFFA900D8169
:1057EF00E0C313FCA3E013FDE975F00FA42DFFE553
:1057FF00F03CCF24ECCF34FF900DD8F0A3EFF0D0D6
:10580F0005D004D007D006127944900D7FE0C31362
:10581F00FEA3E01324B0FDEE34FFFC900D35E0F94C
:10582F0075F00FA42DFBE5F03CFA900D81E0C3134A
:10583F00FEA3E01324B0FDEE34FFFCE975F00FA4D6
:10584F002DFDE5F03CFCAF03AE021276BD900D29A5
:10585F00EEF0A3EFF0900CD274FFF0A3741CF0A342
:10586F007456F0A3EEF0A3EFF07B017A0D793612A8
:10587F003EF8900D7FE0C313FEA3E01324B0FDEEBE
:10588F0034FFFC900D35E075F00FA4FBAAF02DFF4F
:10589F00EA3CFEC006C007900D81E0C313FEA3E0F3
:1058AF00132BFFEA3ECF24A8FDEF34FFFC900CD161
:1058BF0074FFF0A374E0F0A37401F0A3740DF0A3D0
:1058CF007436F0A37410F0E4A3F0900D7BE0FAA30C
:1058DF00E0FBD007D006124AAD7FE87E031277F8BF
:0B58EF00900D35E004F002576880FEC9
:1079D100E4FDFCC3ED9FEC9E5016E4FBEBC3940366
:1079E1007480948050030B80F30DBD00010C80E383
:0179F1002273
:1079F200E4FDFCC3ED9FEC9E5016E4FBEBC3940543
:107A02007480948050030B80F30DBD00010C80E361
:017A12002251
:0877C000900CA4EEF0A3EFF021
:1077C800E4A3F0A3F0900CA4E0FEA3E0FFC3900CA8
:1077D800A7E09F900CA6E09E50157FFA7E001279D4
:0F77E800F2A3E004F070DE900CA6E004F080D66F
:0177F700226F
:0877F800900CD0EEF0A3EFF0BD
:10780000E4A3F0A3F0900CD0E0FEA3E0FFC3900C43
:10781000D3E09F900CD2E09E50157FFA7E00127943
:0F782000F2A3E004F070DE900CD2E004F080D60A
:01782F002236
:107A1300E4FDFCC3ED9FEC9E5016E4FBEBC3940125
:107A23007480948050030B80F30DBD00010C80E340
:017A33002230
:047BD50000000000AC
:0A35C100420D7B0000420D7DFFFF6C
:0F7B6300C2E8C2C28FA0AF058F80D2C2D2E82283
:107AA400C2E8C2C47F017E00127A13AFA0EFFEAD1C
:077AB40080EDFFD2C4D2E80F
:017ABB0022A8
:0B7B8C00AD07AC06C2E9ECFF027B6312
:057B3300127B8CE4FF51
:0B7B3800AD07AC06D2E9ECFF027B6356
:057BCB00D2E9027AA4DA
:0B7B9700AD07AC06D2E9ECFF027B63F7
:107A3400AA07ED54FC75F008A4FDEA54F845F0FEDD
:0F7A4400EDFFEB54F8131313541FFDEF4DFF220A
:10742D00D2E9C2E8C2C47F017E00127A13AFA090E8
:10743D000DF1E4F0A3EFF0E0FFAD80ED900DF1CF95
:10744D00F0A3EFF0D2C4C2C47F017E00127A13AF55
:10745D00A0900DF1E4F0A3EFF0E0FFAD80ED900D05
:10746D00F1CFF0A3EFF0D2C4C2C47F017E00127A37
:10747D0013AFA0AD07EDAD80FCD2C4ECFB7A007C60
:10748D0000900DF2E0FD900DF1E0FF7E00EEF0A317
:07749D00EFF0D2E8027A349F
:0E7B7200AB05AA04127B8CAE02AF03027B3877
:10774500900DDCEBF0A3EAF0A3E9F0127B8C75A0B9
:10775500FF7580FF900DDF74FFF5F0123C8745F053
:107765006019127BCB900DDCE0FBA3E475F00112F0
:107775003C87A9F0FAEF123C2B80D975A0FF7580E4
:02778500FF22E1
:0B7BA200900D86E0FEA3E0FF027B8C4C
:0B7BAD00900D88E0FEA3E0FF027B8C3F
:0873AC00900CBEEEF0A3EFF01F
:1073B400900D80E024FFFB900D7FE034FFFA900DE8
:1073C40082E024FFFE900D81E034FF900CFFF0A3D7
:1073D400CEF0E4FDFCFFFE12751AE4900CC0F0A39D
:1073E400F0900D7FE0FEA3E0FFC3900CC1E09F90FE
:1073F4000CC0E09E5032E4FBFAD3900D82E09B90E7
:107404000D81E09A4012900CBEE0FEA3E0FF127BD7
:10741400970BBB00010A80E1900CC1E004F070C13D
:08742400900CC0E004F080B9F7
:01742C00223D
:1078CC00AB07AA068D828C83C006C007AE83AF823D
:1078DC00900CFFEEF0A3EFF0D007D00612751A90C3
:0A78EC000D7BE0FEA3E0FF027B9796
:0876BD00900DF3EEF0A3EFF0D5
:1076C500D3900D80E09F900D7FE09E400DD3900DEF
:1076D50082E09D900D81E09C5004E4FEFF22900D18
:1076E500F3E0FEA3E0FF127A53127BAD75A0FF75A0
:0B76F50080FF12742D75A0FF7580FF50
:017700002266
:107A8B007F327E001277F8C2EA7F327E001277F8DF
:097A9B00D2EA7F327E000277F886
:1065C900127A8B7FF77E00127B8C7FA9127B387F32
:1065D90051127B387F2C127B387F82127B387FC027
:1065E900127B8C7F11127B387F09127B387FC11295
:1065F9007B8C7F41127B387FC5127B337F0A127BEC
:10660900387F80127B387FB1127B8C7FB0127B3848
:106619007F11127B387FB4127B8C7F02127B387F0B
:10662900B6127B8C7F02127B387F22127B387FB7B0
:10663900127B8C7FC6127B387FBE127B337F04129C
:106649007B387FE9127B337F36127B8C7F08127B84
:10665900387F3A127B8C7F55127B387FE0127B336F
:106669007F07127B387F10127B387F09127B387FB6
:1066790017127B387F0B127B387F41127B387F8959
:10668900127B387F4B127B387F0A127B387F0C12C2
:106699007B387F0E127B387F18127B387F1B127B69
:1066A900387F0F127B387FE1127B337F17127B38DB
:1066B9007F1A127B387F04127B387F0E127B387F5A
:1066C90006127B387F2F127B387F45127B387F4338
:1066D900127B387F02127B387F0A127B387F0912BE
:1066E9007B387F32127B387F36127B387F0F127BE3
:1066F900387F11127B8C7F781277F87F297E001200
:076709007B8C7F010271652A
:10751A00900CF9EEF0A3EFF0A3ECF0A3EDF0900DD0
:10752A008AE0FEA3E0FF127B8C900CF9E0FF7E005C
:10753A00127B38A3E0FF127B38EAFF127B38AF03D5
:10754A007E00127B38900D8CE0FEA3E0FF127B8C4C
:10755A00900CFBE0FF7E00127B38A3E0FF127B3821
:10756A00900CFFE0FF127B38A3E0FF127B38027B0E
:01757A00A26E
:107A5300AB07AA068D828C83C006C007AE83AF82B4
:0F7A6300900CFFEEF0A3EFF0D007D00602751ADB
:10716500900D8AE4F0A3742AF0A3E4F0A3742BF045
:10717500900D86E4F0A3742CF0A3E4F0A3742EF034
:10718500EF14602414603B14605324037072E49080
:107195000D85F0900D7F04F0A37440F0A37401F009
:1071A500A374E0F07D08804F900D857401F0900D7B
:1071B5007FF0A374E0F0A37401F0A37440F07D6840
:1071C5008035900D857402F0900D7F14F0A3744006
:1071D500F0A37401F0A374E0F07DC8801A900D85CA
:1071E5007403F0900D7F7401F0A374E0F0A37401B3
:1071F500F0A37440F07DA87C007F367E00127B7280
:017205002266
:1078650078ED7C0D7D017BFF7A7B79D57E007F04E9
:10787500123BBF7B017A0D79ED900DDFE4F0A37427
:1078850004F07FD37E00127745900DEFE0FEA3E074
:03789500FDEDFF07
:0178980022CD
:107B220049443A25730D0A004552520000000000F4
:017B32000052
:1035CB004A0DB581508158816081688170410DB47D
:0135DB0000EF
:0C7B8000C2B21277F843B10453B2FB22EA
:10778700900CCFEFF0D2B2D2EB7F147E001277F8D5
:10779700C2EBC2B27F147E001277F8900CCFE06480
:1077A700287003D38001C392B27F147E001277F84A
:0977B700D2EB7F147E000277F88A
:107B1000C2EB7F0A7E001277F8D2EB7F0A7E00026A
:027B200077F8F4
:067BBF00127BD0027B10D6
:08796900900CD7EEF0A3EFF043
:10797100127AFC7FBA127676900CD7E0FF127676F7
:0B798100900CD7A3E0FF1276767F0188
:01798C0022D8
:0B78F600900CC4EEF0A3EFF0A3EDF047
:10790100127AFC900CC4E0FEA3E0FF127969900C9E
:0B791100C6E0FF127676127ABC7F0100
:01791C002248
:087324007B017D017F4E7E819B
:10732C00900CCFEEF0A3EFF0A3EDF0A3EBF0A3EAFB
:04733C00F0A3E9F0E1
:10734000E4A3F0127AFC900CCFE0FEA3E0FF1279E8
:1073500069127AFC7F147E00127A137FBB12767654
:10736000E4900CD6F0900CD1E0FF900CD6E0FEC378
:107370009F502EEF14B50604E4FF80027F011275C2
:107380007B900CD2E0FBA3E0FAA3E0F9900CD6E0EE
:10739000F582758300EF123C3D900CD6E004F0803E
:0B73A000C4127ABC900CD57401F0FF01
:0173AB0022BF
:106C330078BB7C0C7D017BFF7A7B792E7E007F0401
:106C4300123BBF127BBF7FBA1277877F327E00125F
:106C53007B807B017A0C79BB7D047F407E8112733C
:106C63002C900CBBE06439900CD2704B74FFF0A3F2
:106C7300747BF0A37422F0A37401F0A3740CF0A34B
:106C830074BBF07B017A0C79BF123EF8900D80E063
:106C930024C8FF900D7FE034FFFE900CD47401F004
:106CA300A3740CF0A374BFF0A37401F07B10E4FD94
:106CB300FC126E977F012274FFF0A3747BF0A37420
:106CC30022F0A37401F0A3740CF0A374BBF07B0156
:106CD3007A0C79BF123EF8900D80E024C8FF900D26
:106CE3007FE034FFFE900CD474FFF0A3747BF0A319
:106CF300742AF0A37401F07B10E4FDFC126E977FFD
:016D0300008F
:016D0400226C
:1079AF0078F87C0D7D017BFF7A7B79327E007F0139
:1079BF00123BBF7A0D79F8127324900DF8E0540F33
:0179CF00FFB8
:0179D0002294
:1041F800E4900CBFF0A3F0900CC3F0900DB4E00471
:10420800F0E0FF75F00A84E5F0600DC3EF940A74DE
:1042180080948040030244CF7A0C79C312732490AF
:104228000CC3E030E718540FC39406748094805090
:104238000DE4900CC1F0FD7F4E7E811278F6900C53
:10424800C3E0540F70030244CFC394067480948073
:1042580040030244CFE0540FFFF874FF088002C304
:1042680033D8FCFF900CC1F0900D7AE0900CC2F0AE
:10427800EFF444C0900D7AF0900D66E0FFA3E09053
:104288000D6ECFF0A3EFF0A3E0FFA3E0900D78CF81
:10429800F0A3EFF0E4900CBFF0900CBFE0FFC394E4
:1042A8000574809480400302443E7E007401A80790
:1042B800088005C333CE33CED8F9FF900D7AE0FDE0
:1042C800EF5D7003024435900CBFE025E024B5F59E
:1042D80082E4340DF583E0FEA3E0FF7B017A0C79DC
:1042E800BB7D0412732C900D85E0FD7037900CBCDB
:1042F800E0FE900CBBE07A002400FFEA3EFE900C42
:10430800BFE0FC25E02466F582E4340DF583EEF089
:10431800A3EFF0900CBEE0FE900CBDE02400FFEA95
:104328003E0243CEED64017046900CBCE0FE900C5A
:10433800BBE07C002400FFEC3EFEC3900D82E09FB2
:10434800FF900D81E09EFE900CBFE0FD25E02470FB
:10435800F582E4340DF583EEF0A3EFF0900CBEE0A7
:10436800FE900CBDE07A002400FFEA3E0244239050
:104378000D85E0FD6402705B900CBCE0FE900CBB08
:10438800E07A002400FFEA3EFEC3900D80E09FFF24
:10439800900D7FE09EFE900CBFE0FC25E02466F5C2
:1043A80082E4340DF583EEF0A3EFF0900CBEE0FE4E
:1043B800900CBDE02400FFEA3EFEC3900D82E09F12
:1043C800FF900D81E09EFEEC25E02470F582E43438
:1043D8000D8053ED64037055900CBCE0FE900CBB4F
:1043E800E07C002400FFEC3EFE900CBFE0FD25E0E1
:1043F8002470F582E4340DF583EEF0A3EFF0900C11
:10440800BEE0FE900CBDE07A002400FFEA3EFEC349
:10441800900D80E09FFF900D7FE09EFEED25E0244B
:1044280066F582E4340DF583EEF0A3EFF0900CBF4F
:10443800E004F00242A1900CC07401F0900D7FE0FE
:10444800FEA3E0FFD3900D67E09F900D66E09E50BD
:1044580014900D81E0FEA3E0FF900D71E09F900D98
:1044680070E09E405D900CC3E0540FD394017480BB
:1044780094804020900D68E0FFA3E0900D66CFF097
:10448800A3EFF0900D72E0FFA3E0900D70CFF0A3C2
:10449800EFF0802E900D6EE0FFA3E0900D66CFF058
:1044A800A3EFF0900D78E0FFA3E0900D70CFF0A39C
:1044B800EFF0900CC37480F0900CC2E0900D7AF08D
:1044C8008005E4900DB4F0900CC3E0548F648070C4
:1044D80021900D7AE030E705547FF0801574FF9045
:1044E8000D66F0A3F0900D70F0A3F0900D7AE054F3
:1044F800E0F0900DB4E0D394F0748094804003749D
:074508000AF0900CC0E0FF77
:01450F002289
:077BB8007F017E00027A1339
:047AD200C2EDE4FF1E
:107AD600EF6401700543CB10800353CBEF53CCEF1B
:017AE600227D
:057BD000D2EDD2EC2211
:107AFC00E4FF127AD6D2ECD2ED127BB8C2EC127B38
:047B0C00B8C2ED22EC
:107ABC00E4FF127AD6C2EDC2EC127BB8D2ED127B87
:067ACC00B8D2EC027BB809
:10783000E4900CDBF07F01127AD6D2EC127BB8D246
:10784000ED127BB830EC1A900CDBE004F0E0D3943E
:10785000FA7480948040ED127ABCE4FF127AD60F5D
:0478600022127AD2A4
:017864002201
:107B4300127AD2C2EC127BB8D2ED127BB8C2ED220C
:107B5300127AD2D2EC127BB8D2ED127BB8C2ED22EC
:05767600900CD9EFF0BB
:10767B00E4FF127AD6C2EDE4A3F0900CDAE0C394E7
:10768B0008748094805028900CD9E0FF5480FEC47D
:10769B00131313540124FF92ECEF25E0F0D2ED12FB
:1076AB007BB8C2ED127BB8900CDAE004F080CB0211
:0276BB00783025
:05757B00900CD7EFF0B9
:10758000E4900CD9F07F01127AD6E4900CD8F090F8
:107590000CD8E0C39408748094805021C2ED7F0120
:1075A0007E001279F2D2ED900CD9E0FF25E0F030A8
:1075B000EC03E004F0900CD8E004F080D2900CD7FB
:1075C000E07005127B538003127B43E4FF127AD6EE
:0575D000900CD9E0FF62
:0175D5002293
:1035DC00550D660000000000000000000000000017
:0835EC000000000000000000D7
:067BC500126C337F002268
:037BD9000241F86E
:1000030000000000000000000000000000000404E5
:10001300040404040004000000140A0A00000000A1
:1000230000000000000014143F140A3F0A0A0000F5
:1000330000041E1505060C14150F0400000012150C
:100043000D0A142C2A1200000000040A0A1E1515BA
:100053000936000000020201000000000000000059
:1000630000201008080808080810200000020408EF
:10007300080808080804020000000004150E0E1505
:100083000400000000000404041F04040400000032
:100093000000000000000000000202010000000058
:1000A300001F00000000000000000000000000002E
:1000B3000002000000100808080404020202010004
:1000C30000000E1111111111110E000000000406A1
:1000D30004040404040E000000000E1111080402BD
:1000E300011F000000000E11100C1010110E000073
:1000F3000000080C0A0A091E0818000000001F016E
:10010300010F1010110E000000000E09010F111154
:10011300110E000000001F09080404040404000079
:1001230000000E11110E1111110E000000000E112E
:1001330011111E10120E0000000000000400000048
:10014300000400000000000000040000000404009C
:100153000020100804020408102000000000000022
:100163001F00001F000000000002040810201008F8
:100173000402000000000E11110804040004000032
:1001830000000E111915151D011E000000000404C6
:100193000C0A0A1E1233000000000F12120E121274
:1001A300120F000000001E1101010101110E0000D9
:1001B30000000F1212121212120F000000001F1281
:1001C3000A0E0A02121F000000001F120A0E0A0282
:1001D3000207000000001C1201013911120C00007B
:1001E30000003312121E12121233000000001F040B
:1001F30004040404041F000000003E080808080863
:1002030008090700000037120A060A0A123700001D
:100213000000070202020202223F000000001B1B33
:100223001B1B15151515000000003B1216161A1A94
:100233001217000000000E1111111111110E000010
:1002430000000F12120E02020207000000000E113E
:1002530011111117190E180000000F12120E0A12B5
:100263001237000000001E1101060810110F0000D4
:1002730000001F1504040404040E000000003312E0
:1002830012121212120C000000003312120A0A0C8E
:100293000404000000001515150E0A0A0A0A0000DE
:1002A30000001B0A0A04040A0A1B000000001B0AC0
:1002B3000A040404040E000000001F0908040402D9
:1002C300121F0000001C04040404040404041C00A2
:1002D300000202020404080808100000000E0808C7
:1002E3000808080808080E0000040A0000000000BF
:1002F3000000000000000000000000000000003FBC
:1003030000040000000000000000000000000000E6
:10031300000C121C123C000000000302020E121219
:10032300120E000000000000001C1202021C00005C
:1003330000001810101C1212123C000000000000F4
:10034300000C121E021C000000003804041E0404EA
:10035300041E000000000000003C120C021E221CC0
:1003630000000302020E1212123700000000040004
:1003730000060404040E000000000800000C080836
:100383000808080700000302023A0A0E12370000A9
:100393000000070404040404041F0000000000001C
:1003A300000F15151515000000000000000F1212B4
:1003B3001237000000000000000C1212120C0000A3
:1003C30000000000000F1212120E020700000000CE
:1003D300001C1212121C103800000000001B060241
:1003E3000207000000000000001E020C101E0000A7
:1003F30000000004040E04040418000000000000C0
:10040300001B1212123C0000000000000037120A09
:100413000C040000000000000015150E0A0A00007D
:1004230000000000001B0A040A1B0000000000007B
:100433000037120A0C04040300000000001E080425
:10044300041E00000018080808040808080818001B
:10045300080808080808080808080808000604042B
:100463000408040404040600022518000000000028
:100473000000000000000000000000000000000079
:100483000000000000000008080808080808000031
:100493001818000000486C2412000000000000003F
:1004A300000000000000002424247F1212127F1297
:1004B300121200000000081C2A2A0A0C1828282AF5
:1004C3002A1C080800000022251515152A58545423
:1004D300542200000000000C1212120A7625291182
:1004E300916E0000000606040300000000000000F7
:1004F3000000000000402010100808080808081039
:1005030010204000000204080810101010101008FA
:10051300080402000000000008086B1C1C6B08089C
:100523000000000000000000080808087F08080811
:1005330008000000000000000000000000000000B0
:10054300060604030000000000000000FE00000097
:100553000000000000000000000000000000000098
:100563000606000000008040402020101008080408
:100573000402020000000018244242424242424266
:1005830024180000000000080E08080808080808DE
:10059300083E00000000003C4242422020100804B4
:1005A300427E00000000003C4242201820404042AE
:1005B300221C0000000000203028242422227E2058
:1005C300207800000000007E0202021A264040420A
:1005D300221C0000000000382402021A2642424274
:1005E300241800000000007E2222101008080808CA
:1005F300080800000000003C424242241824424202
:10060300423C00000000001824424242645840402B
:10061300241C000000000000000018180000000067
:10062300181800000000000000000008000000008F
:100633000008080400000040201008040204081009
:10064300204000000000000000007F0000007F0049
:1006530000000000000000020408102040201008E1
:10066300040200000000003C4242464020101000FB
:10067300181800000000001C225A555555552D42EC
:10068300221C00000000000808181414243C224215
:1006930042E700000000001F2222221E22424242A3
:1006A300221F00000000007C4242010101010142BF
:1006B300221C00000000001F2242424242424242EA
:1006C300221F00000000003F4212121E12120242BB
:1006D300423F00000000003F4212121E12120202AB
:1006E300020700000000003C2222010101712122C7
:1006F300221C0000000000E7424242427E42424286
:1007030042E700000000003E08080808080808083F
:10071300083E00000000007C101010101010101094
:100723001010110F0000007722120A0E0A12122273
:100733002277000000000007020202020202020206
:10074300427F000000000077363636362A2A2A2AEE
:100753002A6B0000000000E346464A4A52525262A6
:10076300624700000000001C2241414141414141D8
:10077300221C00000000003F424242423E020202AD
:10078300020700000000001C2241414141414D533A
:10079300321C60000000003F4242423E12122222FD
:1007A30042C700000000007C42420204182040427D
:1007B300423E00000000007F4908080808080808B6
:1007C300081C0000000000E742424242424242420B
:1007D300423C0000000000E7424222242414141883
:1007E300080800000000006B494949495555362265
:1007F30022220000000000E74224241818182424B1
:1008030042E70000000000772222141408080808B9
:10081300081C00000000007E212010100804044280
:10082300423F00000078080808080808080808087C
:1008330008087800000002020404080808101020C9
:1008430020204040001E1010101010101010101027
:1008530010101E00003844000000000000000000DB
:100863000000000000000000000000000000000085
:10087300000000FF00060800000000000000000068
:1008830000000000000000000000003C42784442E9
:1008930042FC0000000000030202021A2642424208
:1008A300261A000000000000000000384402020283
:1008B3004438000000000060404040784442424217
:1008C30064D80000000000000000003C427E0202E9
:1008D300423C0000000000F08808087E0808080871
:1008E300083E0000000000000000007C22221C02E1
:1008F3003C42423C000000030202023A46424242AA
:1009030042E700000000000C0C00000E0808080875
:10091300083E000000000030300000382020202076
:100923002020221E0000000302020272120A161285
:10093300227700000000000E0808080808080808CD
:10094300083E0000000000000000007F9292929297
:1009530092B70000000000000000003B4642424204
:1009630042E70000000000000000003C4242424217
:10097300423C0000000000000000001B26424242EF
:10098300221E020700000000000000784442424299
:10099300447840E000000000000000774C040404A9
:1009A300041F0000000000000000007C42023C40E5
:1009B300423E0000000000000008083E0808080846
:1009C3000830000000000000000000634242424281
:1009D30062DC000000000000000000E74224241451
:1009E3000808000000000000000000EB49495555CD
:1009F30022220000000000000000007624181818CE
:100A0300246E000000000000000000E742242414CC
:100A130018080807000000000000007E22100808E4
:100A2300447E000000C02020202020102020202011
:100A33002020C000101010101010101010101010F3
:100A43001010101000060808080808100808080805
:100A5300080806000C32C20000000000000000007D
:100A630000000000C9EE000027FC140414A4811048
:100A730042084040104017FC2040E0E0215022484B
:100A83002C4620400040DBDA1104112411241124E8
:100A93001124FD24112411241124112411241D24B3
:100AA300E124422402040404CAD00200010000002D
:100AB3007FFC0100010001003FF821082108210803
:100AC30021082128211001000100C8AB000000000B
:100AD300018002400430180860061FF9010001007C
:100AE30001003FF80100010001007FFEB6AF0000E6
:100AF300000000203E20007C002200227F221022E2
:100B0300102212221222224223423D82009CB5E788
:100B13000000010001001FF0610C410441047FFC4F
:100B23004104410441047FFC01000102010201FC74
:100B3300D7D3000000003FF80010006000800100E0
:100B430000807FFE0040004000200020002018406D
:100B53000780BCBC00000000104013FE10407C4026
:100B6300104013FC1104190830885050106010D045
:100B730013087C06CAF500000100013001080100DA
:100B83007FFE018003400540052009101108210460
:100B9300410201000100D3D00000010002007FFEEA
:100BA300040008001FFC700490041FFC10041004D0
:100BB3001FFC10041004103CCFDE000000007BFC7F
:100BC3004A044A044BFC52044A044BFC4A404A443C
:100BD3007A2842304210420843C6B9AB00000000F5
:100BE30004400420081010101008210442020220BF
:100BF30004100810080810081FFC0004CBBE0000F6
:100C030000003FFC000400043FF400043FE4202400
:100C130020242024202420241FC40004007CBBB6ED
:100C23000000000000807EFC02A202A222A4152480
:100C330014240C300C300C481248228442840102E4
:100C4300D3AD000000002398246414440444644496
:100C5300144414441444144415C4125C1040284032
:100C630047FEC4FA00000000120013FE24222522CE
:100C7300652862242224242020E0050814842444C7
:100C8300241A47F2B4BF00000020102013FE2020D6
:100C930026244A247A241224222423FC7C200022A2
:100CA30004227822003CC9AB0000000004000FF0CE
:100CB300102020207FFC20842084208420843FF87F
:100CC3002000200220021FFECCEE00000000204086
:100CD30023FE204079FC220423FC220423FC22046B
:100CE30023FC3A0465FA01980204B3E4000001000E
:100CF30001007FFE02200410040808043FFC0442A4
:100D030004400440044208421042607EBED8000002
:100D13000000207E3E804880488048FE48827F82D3
:100D230008820C8214FA12842280218040FED0CEE5
:100D3300000000007F842208223022C02202220405
:100D43007FC8223022C222022204220822304040DD
:100D5300BBAD000000007FFE00000FF0111011106A
:100D6300111051125FF25112511251124FF24002FF
:100D73007FFCD4B2000000007FFE47E24812481215
:100D830047E24FF2501250125112511242924472E2
:100D9300580A3FFCC800000000007FFC0000000070
:100DA300000000003FF80000000000000000000009
:100DB300FFFE00000000BDC7080008001FE0202060
:100DC3004040BFF8210821083FF8210821083FF8D7
:100DD3002108410841288010CDBC000000003FFEDF
:100DE300440247F24C225362408243625E1A4182BC
:100DF3004062430240C240223FFCC6AC00000040B8
:100E03002040204020403FFE2000200020003FE003
:100E1300201020102010201040104010CFD40000CC
:100E230000003FFC200420043FFC200420041FF8A2
:100E330024441448144814480C5004407FFECABE8E
:100E4300000000003FFC0000000000007FFE008067
:100E530008900888108810842084208240820780AC
:100E6300B2CB0000002008207FFE002000783F88DE
:100E73001108089009207FFE018003400D30310CDA
:100E83004002B5A500000010081004203FF821041B
:100E930021043FFC210421043FF801007FFE0100EF
:100EA30001000100D6D000000100010001003FFC59
:100EB3002104210421042104210421043FFC010015
:100EC300010001000100D3A20000000008207FFE02
:100ED3000820092001003FF82108210821081FF4F8
:100EE300014002200C10700ECEC40000010001006E
:100EF30000803F7C081008100410042002200240E8
:100F03000180018002601C18E006D7DB00000000AE
:100F1300102011FE2202220249FC5800300013FE69
:100F23002528792401240D24722202A2BACF0000BD
:100F33000000018002400430180860061FF800001A
:100F43001FF8200420042004200420041FF8C1C13A
:100F53000000010001007FFE00003FF820083FF879
:100F63003FF8400647C24824082008221022603E6A
:100F7300B6C80000000000803FFE44105FFC441030
:100F8300441043F040005FF84408423041C04360DE
:100F9300BC1EB2E20000000067C2145205520552A3
:100FA300C55225520552055215521752228222422A
:100FB3004442483ECAD4000000002014101417FE17
:100FC30000120010601013F0109010901090149203
:100FD30014EA1F0A0006B3CC0000000019FE7202D7
:100FE300120212027DFC18001BFE3420502053FE17
:100FF30010201020102013FED0F20000000000800B
:101003003FFE400047FC4208413040C05FFE404283
:1010130040424044404840404440B5F7000000008F
:1010230023FE122202FA0222E22212FE1272128A14
:10103300128A128A16BA1A421202040EB9E2000088
:101043000100010411080908091009207FFE04406A
:10105300044004400440084208421042607CB0E669
:101063000000000048FE4900490049007EFE41821D
:101073004144794445284528451045284644038280
:10108300C8A800001000100013FC7D04110419040B
:10109300188434885048505010201050108813047E
:1010A3001402CBF9000000003F7C204020403E406A
:1010B300227E2244224422443E842084208440848D
:1010C30041044204C6C100003FF8200820083FF84D
:1010D300241022202FF8222022203FFC222042200D
:1010E300442084200820C4BB04407FFC04401FF03C
:1010F30010101FF010101FF00400FFFE11103FF836
:10110300D116115011200100D0002080108010FE54
:101113000100FE0021FC20243C2424A024A024BCA4
:1011230024A024A04560553E8A00D7AA2020202071
:101133002020FDFC4020504093FEFC40108011FC19
:101143001C04F0885050102010101010BFAA00008B
:101153007FFC08200820082008200820FFFE082024
:101163000820082008201020102020204020D4B47C
:10117300000027FE1420144085FC450445FC15049B
:1011830015FC2524E42024A829242A2230A0004089
:10119300D2BA0080204017FE11208120423C4244F5
:1011A300166412942348E2482230222022502288D7
:1011B3000306BEA70FE0082008200FE00820082040
:1011C3000FE000007EFC428442847EFC4284428421
:1011D3007EFC4284CDF800007FFC400440044214AE
:1011E30052944A54442444244A544A545294610421
:1011F300400440144008D5BE1020082008207E205B
:10120300003E04204420442025FC290429040F0423
:10121300F104410401FC0104B0B41040102010207B
:1012230013FEFA02144410401BFE3088D0881108C4
:1012330010D01020105050882304BCFC2010201024
:101243003B7C211441FE7A14A27C2710F97C2510E3
:1012530025FE22102A10350028FE0000D0A31040DE
:101263001020102011FEFC00108831043A0254882B
:101273005088905010501020105010881306D7BC7F
:1012830001404120212023FE022016201BFC1220B6
:10129300222023FCE2202220222023FE220002001F
:1012A300B4A520202020782049FC91247D245524B6
:1012B30055247DFC552454207C28542457FE450294
:1012C3008C00C3FE1110111017FC1110FC0013F851
:1012D300120817F81A0833F8D04017FC10A01110A1
:1012E30052082406B6C10020202011FC1020002043
:1012F30003FEF002109410501110109013FE1428E6
:10130300184410820302BACD04000E007800087C52
:101313000844FF44084418441C442A442A444844CB
:10132300887C084408000800D1D5100008FE7F100F
:101333002220147C7F444454485452544454485407
:1013430051544228442488423082D6B5084008408C
:101353000FFC1040104033F8320853F8920813F88A
:10136300120813F8120812081FFE1000C8DD02004D
:1013730001007FFE400288241110228804400820C7
:101383003018DFF61010101010101FF01010D6A731
:101393000100010001007FFC0100010001003FF09A
:1013A3001010082004400280010006C01830E00E2F
:1013B300B3D610201020102011FCFC20102013FEA7
:1013C3001008180833FED008108810481008502859
:1013D3002010B5E302000200020003FC0200020039
:1013E3003FF02010201020103FF0000024882244FA
:1013F30042448004D1A722081108111000207FFE67
:10140300400280041FE000400180FFFE0100010054
:10141300010005000200F3BB0FE010201FC00040D5
:10142300FFFE0C1073200DC072B00C8EF3207CF8FD
:1014330054A87CF81224FEFCBFC608101D10F090BF
:1014430010901010FD10109038903410501E53F06F
:1014530090101010101010101010C9EE00000000B2
:1014630000001000000800080C7FFC04401001C8B5
:10147300A002186042301832231812C3001403006C
:1014830004030C047FF0080F80080B4078136018E6
:10149300332018631818831C19030818030000036A
:1014A30000000000DBDA00000000000004100C0460
:1014B300180C04108C04108C04108C04108C04D0B1
:1014C3008C3F108C04108C04108C04108C04108C32
:1014D30004108C04108C05F08C0E208C78208C204A
:1014E300408C00808C01000C02000C000000CAD06C
:1014F3000000000000000030000018000018080081
:10150300001C1FFFE000180000182007FFF004185C
:10151300200418200418200418200418200418207C
:101523000418200418200418200418E004184000AC
:101533001800001800000000D6D0000000000000D2
:101543000000000000000018000018000018000050
:1015530018003FFFFE301806301806301806301802
:10156300063018063FFFFE3018060018000018006A
:101573000018000018000018000000000000000020
:101583000000CEC40000000000000000000038008E
:10159300001C00000600FFFFFF06003006003003BA
:1015A30000600300600180C000C18000E3000036DA
:1015B30000001C0000770003C1E01E003C60000730
:1015C300000000000000000000000000B2E2000084
:1015D3000000000000000000000040000321FF3372
:1015E300398333118333019B33C19B33719B33198C
:1015F3009B33019B33019B33119B3319B33330303E
:1016030033306C0330C6036383032E01BE00000036
:10161300000000000000CAD4000000000000000029
:10162300000000004000D83000CE1800C21C00C0EB
:1016330001FFFF0000C0F800C01800C019FFC01868
:1016430018401818601918601B18611E18311C1FE8
:10165300B139F01910000F00000000000000000075
:10166300D1A70000000060E00630F00738E003BDBA
:10167300C0039D801B9B8C1FFFFE38001E3800D8C3
:101683007FFFF02203E0000780001E00001C1C7F88
:10169300FFFE201C00001C00001C00001C0001FCBD
:1016A3000000F800003800000000F3BB0000000158
:1016B300C18001FFC003818003FF8003038C7FFF90
:1016C300FE20F0E007FBE03EFF0007FFC03CFFFE0B
:1016D30007CE7E3F7FCC03BDC83FFFFC3B7DDC3B99
:1016E3007DDC3FFFFC3BEDF80371DC7FFFFE3C3FFD
:1016F3000E000000D7D60000000000060000000323
:1017030000000000C0000001C0C0000107C00001CC
:10171300FF00021FFE0007F01C0007C070000F004F
:10172300E0000E03F0001C0FF0003C0F70003C00C3
:10173300E0001800C0000000C0000000C00000006E
:10174300600000002000000037000001FF00007F60
:10175300F80007F830001F8030000080300000C020
:101763003000006060000018E000000FC0000006B9
:10177300000000000000CCE50000000000000000B5
:10178300000000C0000000E0002001B800703FF836
:101793000061FFC000C3030001C60600038C0600FE
:1017A30003080C0006080C000E18183F1E101BF34C
:1017B3001F903F0700803C1C0190707C019060FEED
:1017C30001A0C3F801A00FD803A0081803600018F4
:1017D3000340001803C0001803800018030000181A
:1017E300000000180000001000000030000000306E
:1017F3000000000000000000B2E200000000000052
:1018030000000000000000000000020C1008071F89
:10181300F80403BFF00201BC300303EC3003015CA6
:10182300600300D8600300D860038098620361B846
:10183300430771B14306313243063376C3063A6434
:10184300C7063EECC0063E78C0063C3040067C70BE
:10185300000678E060067BFFF006F7C00006E400B0
:10186300000640000006000000060000007C0000A7
:101873008FF000007C0000000000CAD400000000CC
:10188300000000000000000000003F0000007F8017
:1018930000000180000000C0000000C0000000CE76
:1018A300038000CFFFC000DD41800FFE0007FFFC77
:1018B300000C00F000180FC03E19FF40F311BC608C
:1018C30083307FE003B1FE200333802003700030B8
:1018D300036000100360001807C0000C07C0000479
:1018E3000780000201000003000000010000000067
:1018F300000000000000000000000000D1A700006D
:101903000000000000000003840000038FC00003F8
:1019130083E0003FC1C0003FFFC00077EF8000EFCE
:10192300DF0001FD9F0003FBFF0000EFFF0000FF4E
:10193300FFF000FF3FFC0061FC3C0077E07E007F8E
:101943003EF80DFC7EC01FE3F8001D9FF000381F1A
:10195300E0007819F00070007F000007FF00000F1F
:10196300F000000470000000700000007000000030
:10197300E0000001E0000007C000001FC000F3BB4F
:1019830000000000000600000007E0000007F00070
:10199300000EF000001DE000001FC000003F9FC0CC
:1019A300007FFFC0007FE000001F3C0000FE1E0020
:1019B3000FFFBC000F3FFF8000FFFF8000FFF00020
:1019C300003E7000007EF000003FFFE0007FFFE07C
:1019D300007FBDC007F77F8003FFFF8003FFDF8029
:1019E30001FDFF0001FFF9C001FFF8E0007F3FF0B8
:1019F30001E33E380F83F8380E07E0380003800018
:10789900900CF1FEE0FCA3E0FD900CF0E02DFD90D2
:0D78A9000CEFE03CFC900CF5E0FAA3E0FBD6
:1078B600900CF7EAF0A3EBF0127A53900CF7E0FE87
:0678C600A3E0FF027B9726
:10684D00900D11E0FCA3E0FD900D0FE0FAA3E0FB2D
:10685D00A3E0FFA3E0900CC4CFF0A3EFF0900D7B6D
:10686D00E0FFA3E0900CC6CFF0A3EFF0900D0DE08C
:04687D00FEA3E0FF97
:0E688100900CBEEEF0A3EFF0A3ECF0A3EDF050
:10688F00900CBEE0FEA3E0FFC3EB9FFFEA9ECF2478
:10689F0001CF3400900CCCF0A3EFF0900CC0E0FED1
:1068AF00A3E0FFC3900CC5E09FFF900CC4E09ECF08
:1068BF002401CF3400900CCEF0A3EFF0900CC0E089
:1068CF00FCA3E0FD900CC4E0FFA3E0900CFFCFF021
:1068DF00A3EFF0900CBEE0FEA3E0FF12751AE49058
:1068EF000CC8F0A3F0900CCEE0FEA3E0FFC3900C19
:1068FF00C9E09F900CC8E09E5047E4900CCAF0A3EB
:10690F00F0900CCCE0FEA3E0FFC3900CCBE09F9087
:10691F000CCAE09E501B900CC6E0FEA3E0FF127B5A
:10692F0097900CCBE004F070D8900CCAE004F08084
:10693F00D0900CC9E004F070AC900CC8E004F0806B
:10694F00A4900D80E024FFFB900D7FE034FFFA90C0
:10695F000D82E024FFFE900D81E034FF900CFFF0DC
:0B696F00A3CEF0E4FDFCFFFE02751A51
:0E610C00900D4AEEF0A3EFF0A3ECF0A3EDF03F
:10611A00E4900D54F0A3F0A3F0A3F0900D4AE0FE32
:10612A00A3E0FFC3EB9FFFEA9E900D58F0A3EFF0A8
:10613A00900D4CE0FAA3E0FBC3900D51E09BFE905A
:10614A000D50E09A900D5AF0A3CEF0900D4AE0FF60
:10615A00A3E0900D62CFF0A3EFF0A3EAF0A3EBF077
:10616A00900D58E0FEA3E0FFD39400EE6480948083
:10617A00400A900D5EE4F0A304F08021EF4E70080F
:10618A00900D5EF0A3F0801574FF900D5EF0A3F001
:10619A00C3E49FFFE49E900D58F0A3EFF0900D5AD0
:1061AA00E0FEA3E0FFD39400EE64809480400A905E
:1061BA000D60E4F0A304F08021EF4E7008900D60AA
:1061CA00F0A3F0801574FF900D60F0A3F0C3E49F74
:1061DA00FFE49E900D5AF0A3EFF0900D5AE0FEA353
:1061EA00E0FF900D58E0FCA3E0FDD39FEE6480F839
:1061FA00EC648098900D5C4007ECF0A3EDF080050C
:10620A00EEF0A3EFF0E4900D52F0A3F0900D5DE0F4
:10621A002401FF900D5CE03400FED3900D53E09F03
:10622A00900D52E09E40030262F6900D62E0FEA3DA
:10623A00E0FFA3E0FCA3E0FD1278CC900D58E0FE4D
:10624A00A3E0FF900D55E02FF0900D54E03EF09042
:10625A000D5AE0FEA3E0FF900D57E02FF0900D5687
:10626A00E03EF0900D5CE0FEA3E0FF900D54E0FCF0
:10627A00A3E0FDD39FEE6480F8EC6480984020EDA3
:10628A009FFFEC9E900D54F0A3EFF0900D5EE0FEA0
:10629A00A3E0FF900D63E02FF0900D62E03EF090D6
:1062AA000D5CE0FEA3E0FF900D56E0FCA3E0FDD3F9
:1062BA009FEE6480F8EC6480984020ED9FFFEC9E8E
:1062CA00900D56F0A3EFF0900D60E0FEA3E0FF9072
:1062DA000D65E02FF0900D64E03EF0900D53E00460
:0C62EA00F07006900D52E004F002621605
:0162F6002285
:0E5B1400900CBBEEF0A3EFF0A3ECF0A3EDF0CD
:105B2200E4900CC9F0A3F0A3F0A3F0900CBBE0FE4C
:105B3200A3E0FFC3EB9FFFEA9E900CCDF0A3EFF032
:105B4200900CBDE0FAA3E0FBC3900CC2E09BFE9078
:105B52000CC1E09A900CCFF0A3CEF0900CBBE0FF0A
:105B6200A3E0900CD7CFF0A3EFF0A3EAF0A3EBF001
:105B7200900CCDE0FEA3E0FFD39400EE648094800D
:105B8200400A900CD3E4F0A304F08021EF4E700899
:105B9200900CD3F0A3F0801574FF900CD3F0A3F017
:105BA200C3E49FFFE49E900CCDF0A3EFF0900CCFE6
:105BB200E0FEA3E0FFD39400EE64809480400A905C
:105BC2000CD5E4F0A304F08021EF4E7008900CD5C0
:105BD200F0A3F0801574FF900CD5F0A3F0C3E49FFE
:105BE200FFE49E900CCFF0A3EFF0900CCFE0FEA369
:105BF200E0FF900CCDE0FCA3E0FDD39FEE6480F8C3
:105C0200EC648098900CD14007ECF0A3EDF0800595
:105C1200EEF0A3EFF0E4900CC7F0A3F0900CD2E00A
