:105E3A005735353030C4A3BFE920544350B7FECE9E
:105E4A00F1C6F7C4A3CABD0D0A000D0A573535308D
:0E5E5A0030B7FECEF1C6F7544553540D0A0082
:0758F7004402C000000000A4
:105FC600E4F594F593F592F591F596F595F5B2F518
:105FD600B1F5B4F5B3F5CAF5C9F5CCF5CBF5E2F5EF
:025FE600E122B6
:1056380090006274C0F0A374A8F0A37401F0A3F002
:1056480090005874FFF0A3F0A3F0E4A3F090005288
:10565800740CF0A37429F0A374ABF0A3747CF0E489
:10566800A3F0A37402F090006B74C0F0A374A8F0C8
:10567800A37401F0A374F6F09000507413F0A374AF
:0856880088F0E490006AF022B2
:0B62CE00124E77124DBEE4FF025E0A84
:105A1300900069E0703D90006AE0700AFF1259CC73
:105A2300EFF4702A801090006AE064017010FF1296
:105A33005B62EFF4700690006904F0228010E4FFCB
:105A4300125C59EFF470079000697403F022E4903C
:045A53000069F022D4
:05586700900132EFF09A
:10586C007B017A007900123DCC900133EEF0A3EF6E
:10587C00F0900133E0FEA3E0FF78287C007D017BF3
:10588C00017A007900121FF3900132E0FF7B017A5C
:10589C00007928A3E0FDA3E0900139CDF0A3EDF051
:0358AC00023FB107
:104C4500758180125FC61262B512619D7BFF7A5E27
:104C5500793A1261F17FD07E07125C9212563812B2
:104C650055181262CE125A1312522D900068E0FFA9
:104C750054016401700BEF54FEF0E4FF1258678095
:104C85005BE47F207E4EFDFC9002C0E0F8A3E0F9D6
:104C9500A3E0FAA3E0FBC31222A34040900069E021
:104CA5006403702E900068E054FDF078287C007D48
:104CB500017BFF7A5E79547E007F1E121FF37B0114
:104CC5007A007928900139E4F0A37413F0E4FF1217
:104CD5003FB19002C01222E6000000009002C0E041
:104CE500FCA3E0FDA3E0FEA3E02401FFE43EFEE417
:0E4CF5003DFDE43CFC9002C01222DA024C6A43
:10600A00E4FDFCC3ED9FEC9E5016E4FBEBC3940346
:10601A007480948050030B80F30DBD00010C80E363
:01602A002253
:10602B00E4FDFCC3ED9FEC9E5016E4FBEBC3940523
:10603B007480948050030B80F30DBD00010C80E342
:01604B002232
:085C9200900137EEF0A3EFF0E2
:105C9A00E4A3F0A3F0900137E0FEA3E0FFC3900174
:105CAA003AE09F900139E09E50157FFA7E0012601B
:0F5CBA002BA3E004F070DE900139E004F080D6F7
:015CC90022B8
:085CCA009002C4EEF0A3EFF01C
:105CD200E4A3F0A3F09002C4E0FEA3E0FFC39002AD
:105CE200C7E09F9002C6E09E50157FFA7E001260C8
:0F5CF2002BA3E004F070DE9002C6E004F080D631
:015D0100227F
:10604C00E4FDFCC3ED9FEC9E5016E4FBEBC3940106
:10605C007480948050030B80F30DBD00010C80E321
:01606C002211
:046331000000000068
:0A58FE004201AC00004201AEFFFFC2
:0F628A00C2CCC2C28FA0AF058F80D2C2D2CC22AD
:1060FC00C2CCC2C47F017E0012604CAFA0EFFEADDB
:07610C0080EDFFD2C4D2CCEC
:016113002269
:0B62D900AD07AC06C2CDECFF02628AEC
:05624A001262D9E4FF1F
:0B624F00AD07AC06D2CDECFF02628A66
:05632700D2CD0260FC74
:0B62E400AD07AC06D2CDECFF02628AD1
:10606D00AA07ED54FC75F008A4FDEA54F845F0FEBE
:0F607D00EDFFEB54F8131313541FFDEF4DFF22EB
:1053C100D2CDC2CCC2C47F017E0012604CAFA0908E
:1053D10002E0E4F0A3EFF0E0FFAD80ED9002E0CF5A
:1053E100F0A3EFF0D2C4C2C47F017E0012604CAFC3
:1053F100A09002E0E4F0A3EFF0E0FFAD80ED9002B9
:10540100E0CFF0A3EFF0D2C4C2C47F017E001260EE
:105411004CAFA0AD07EDAD80FCD2C4ECFB7A007CB3
:10542100009002E1E0FD9002E0E0FF7E00EEF0A3DB
:07543100EFF0D2CC02606D28
:0E629900AB05AA041262D9AE02AF0302624F37
:105ADF009002A2EBF0A3EAF0A3E9F01262D975A04D
:105AEF00FF7580FF9002A574FFF5F012211045F0AD
:105AFF0060191263279002A2E0FBA3E475F0011274
:105B0F002110A9F0FAEF12205F80D975A0FF7580E0
:025B1F00FF2263
:0B62EF009001B7E0FEA3E0FF0262D9BF
:0B62FA009001B9E0FEA3E0FF0262D9B2
:085340009002C8EEF0A3EFF0AB
:105348009001B1E024FFFB9001B0E034FFFA900136
:10535800B3E024FFFE9001B2E034FF90027EF0A398
:10536800CEF0E4FDFCFFFE12557CE49002CAF0A3E7
:10537800F09001B0E0FEA3E0FFC39002CBE09F9065
:1053880002CAE09E5032E4FBFAD39001B3E09B904E
:1053980001B2E09A40129002C8E0FEA3E0FF126258
:1053A800E40BBB00010A80E19002CBE004F070C17D
:0853B8009002CAE004F080B984
:0153C00022CA
:105E9300AB07AA068D828C83C006C007AE83AF8290
:105EA30090027EEEF0A3EFF0D007D00612557C905F
:0A5EB30001ACE0FEA3E0FF0262E490
:085A57009002E2EEF0A3EFF073
:105A5F00D39001B1E09F9001B0E09E400DD3900133
:105A6F00B3E09D9001B2E09C5004E4FEFF2290024F
:105A7F00E2E0FEA3E0FF12608C1262FA75A0FF75E0
:0B5A8F0080FF1253C175A0FF7580FF5F
:015A9A0022E9
:1060E3007F327E00125CCAC2B57F327E00125CCA68
:0960F300D2B57F327E00025CCAC6
:104434001260E37FF77E001262D97FA912624F7F78
:104444005112624F7F2C12624F7F8212624F7FC0E3
:104454001262D97F1112624F7F0912624F7FC1121B
:1044640062D97F4112624F7FC512624A7F0A12628B
:104474004F7F8012624F7FB11262D97FB012624FB8
:104484007F1112624F7FB41262D97F0212624F7F92
:10449400B61262D97F0212624F7F2212624F7FB737
:1044A4001262D97FC612624F7FBE12624A7F041223
:1044B400624F7FE912624A7F361262D97F08126224
:1044C4004F7F3A1262D97F5512624F7FE012624ADF
:1044D4007F0712624F7F1012624F7F0912624F7F73
:1044E4001712624F7F0B12624F7F4112624F7F8916
:1044F40012624F7F4B12624F7F0A12624F7F0C127F
:10450400624F7F0E12624F7F1812624F7F1B12623E
:104514004F7F0F12624F7FE112624A7F1712624F80
:104524007F1A12624F7F0412624F7F0E12624F7F16
:104534000612624F7F2F12624F7F4512624F7F43F4
:1045440012624F7F0212624F7F0A12624F7F09127A
:10455400624F7F3212624F7F3612624F7F0F1262B8
:104564004F7F111262D97F78125CCA7F297E0012B4
:0745740062D9E4FF025113BC
:10557C00900278EEF0A3EFF0A3ECF0A3EDF0900125
:10558C00BBE0FEA3E0FF1262D9900278E0FF7E0040
:10559C0012624FA3E0FF12624FEAFF12624FAF0399
:1055AC007E0012624F9001BDE0FEA3E0FF1262D9B3
:1055BC0090027AE0FF7E0012624FA3E0FF12624F6E
:1055CC0090027EE0FF12624FA3E0FF12624F026274
:0155DC00EFDF
:10608C00AB07AA068D828C83C006C007AE83AF8295
:0F609C0090027EEEF0A3EFF0D007D00602557C05
:105113009001BBE4F0A3742AF0A3E4F0A3742BF092
:105123009001B7E4F0A3742CF0A3E4F0A3742EF081
:10513300EF1460201460331460462403705F900101
:10514300B07401F0A37440F0A37401F0A374E0F011
:105153007D0880409001B07401F0A374E0F0A37463
:1051630001F0A37440F07D68802A9001B07401F0CF
:10517300A37440F0A37401F0A374E0F07DC880141D
:105183009001B07401F0A374E0F0A37401F0A37470
:0E51930040F07DA87C007F367E0012629922DB
:105DA30078CC7C027D017BFF7A6379317E007F04AE
:105DB300121FF37B017A0279CC9002A5E4F0A3745D
:105DC30004F07FD37E00125ADF9002CEE0FEA3E000
:035DD300FDEDFFE4
:015DD60022AA
:1062280049443A25730D0A00455252000000000007
:016238000065
:105908004A023D8150815881608168817041023C22
:01591800008E
:0C62C200C297125CCA43918053927F2265
:105C20009002EEEFF0D297D2937F147E00125CCAFE
:105C3000C293C2977F147E00125CCA9002EEE064A9
:105C4000287003D38001C392977F147E00125CCA30
:095C5000D2937F147E00025CCAAD
:10620400C2937F0A7E00125CCAD2937F0A7E000288
:026214005CCA62
:06631B0012632C02620473
:085F7F009002E4EEF0A3EFF044
:105F87001261DD7FBA12593E9002E4E0FF12593EDA
:0B5F97009002E4A3E0FF12593E7F01DE
:015FA20022DC
:0B5EE5009002D4EEF0A3EFF0A3EDF06C
:105EF0001261DD9002D4E0FEA3E0FF125F7F90020A
:0B5F0000D6E0FF12593E1261717F01D4
:015F0B002273
:0852B8007B017D017F4E7E8128
:1052C000900280EEF0A3EFF0A3EDF0A3EBF0A3EAE1
:0452D000F0A3E9F06E
:1052D400E4A3F01261DD900280E0FEA3E0FF125F20
:1052E4007F1261DD7F147E0012604C7FBB12593E39
:1052F400E4900287F0900282E0FF900287E0FEC310
:105304009F502EEF14B50604E4FF80027F0112556E
:10531400DD900283E0FBA3E0FAA3E0F9900287E0CA
:10532400F582758300EF122071900287E004F0800B
:0B533400C41261719002867401F0FF4A
:01533F00224B
:104AB400785C7C017D017BFF7A6279347E007F041F
:104AC400121FF312631B7FBA125C207F327E001226
:104AD40062C27B017A01795C7D047F407E8112523F
:104AE400C090015CE0643990009E704B74FFF0A3A9
:104AF4007462F0A37428F0A37401F0A37401F0A30A
:104B0400745CF07B017A0179601223FB9001B1E0BF
:104B140024C8FF9001B0E034FFFE9002747401F0E9
:104B2400A37401F0A37460F0A37401F07B10E4FD9E
:104B3400FC124B867F012274FFF0A37462F0A3740D
:104B440028F0A37401F0A37401F0A3745CF07B015A
:104B54007A0179601223FB9001B1E024C8FF90012F
:104B6400B0E034FFFE90027474FFF0A37462F0A30B
:104B74007430F0A37401F07B10E4FDFC124B867FCB
:014B84000030
:014B8500220D
:105FE80078EF7C027D017BFF7A6279387E007F0141
:105FF800121FF37A0279EF1252B89002EFE0540FB1
:01600800FF98
:016009002274
:1026FB00E490026AF0A3F090026EF090023CE004CA
:10270B00F0E0FF75F00A84E5F0600DC3EF940A74F6
:10271B0080948040030229D27A02796E1252B890CB
:10272B00026EE030E718540FC39406748094805007
:10273B000DE490026CF0FD7F4E7E81125EE59002FF
:10274B006EE0540F70030229D2C3940674809480F8
:10275B0040030229D2E0540FFFF874FF088002C334
:10276B0033D8FCFF90026CF090015BE090026DF0AF
:10277B00EFF444C090015BF0900147E0FFA3E090C1
:10278B00014FCFF0A3EFF0A3E0FFA3E0900159CFEF
:10279B00F0A3EFF0E490026AF090026AE0FFC394BA
:1027AB00057480948040030229417E007401A807C0
:1027BB00088005C333CE33CED8F9FF90015BE0FD23
:1027CB00EF5D700302293890026AE025E0243DF5A5
:1027DB0082E43402F583E0FEA3E0FF7B017A027909
:1027EB00667D041252C09001B6E0FD70379002670F
:1027FB00E0FE900266E07A002400FFEA3EFE9002C3
:10280B006AE0FC25E02447F582E43401F583EEF021
:10281B00A3EFF0900269E0FE900268E02400FFEA6B
:10282B003E0228D1ED64017046900267E0FE9002F3
:10283B0066E07C002400FFEC3EFEC39001B3E09FFA
:10284B00FF9001B2E09EFE90026AE0FD25E024516C
:10285B00F582E43401F583EEF0A3EFF0900269E02A
:10286B00FE900268E07A002400FFEA3E02292690DF
:10287B0001B6E0FD6402705B900267E0FE900266B9
:10288B00E07A002400FFEA3EFEC39001B1E09FFF17
:10289B009001B0E09EFE90026AE0FC25E02447F533
:1028AB0082E43401F583EEF0A3EFF0900269E0FED1
:1028BB00900268E02400FFEA3EFEC39001B3E09F64
:1028CB00FF9001B2E09EFEEC25E02451F582E4344A
:1028DB00018053ED64037055900267E0FE90026631
:1028EB00E07C002400FFEC3EFE90026AE0FD25E058
:1028FB002451F582E43401F583EEF0A3EFF090025E
:10290B0069E0FE900268E07A002400FFEA3EFEC315
:10291B009001B1E09FFF9001B0E09EFEED25E02419
:10292B0047F582E43401F583EEF0A3EFF090026AF1
:10293B00E004F00227A490026B7401F09001B0E068
:10294B00FEA3E0FFD3900148E09F900147E09E502B
:10295B00149001B2E0FEA3E0FF900152E09F9001C2
:10296B0051E09E405D90026EE0540FD39401748051
:10297B0094804020900149E0FFA3E0900147CFF005
:10298B00A3EFF0900153E0FFA3E0900151CFF0A330
:10299B00EFF0802E90014FE0FFA3E0900147CFF0C6
:1029AB00A3EFF0900159E0FFA3E0900151CFF0A30A
:1029BB00EFF090026E7480F090026DE090015BF08E
:1029CB008005E490023CF090026EE0548F648070BE
:1029DB002190015BE030E705547FF0801574FF9088
:1029EB000147F0A3F0900151F0A3F090015BE0548C
:1029FB00E0F090023CE0D394F07480948040037438
:072A0B000AF090026BE0FFEE
:012A120022A1
:07630D007F017E0002604CDD
:0461B300C295E4FFAE
:1061B700EF6401700543914080035391BF5392BF31
:0161C70022B5
:05632C00D295D296227B
:1061DD00E4FF1261B7D296D29512630DC296126387
:0461ED000DC2952228
:10617100E4FF1261B7C295C29612630DD295126304
:066181000DD29602630D31
:105D6E00E49002F0F07F011261B7D29612630DD269
:105D7E009512630D30961A9002F0E004F0E0D39481
:105D8E00FA7480948040ED126171E4FF1261B70FD6
:045D9E00221261B3B9
:015DA20022DE
:10625A001261B3C29612630DD29512630DC29522D2
:10626A001261B3D29612630DD29512630DC29522B2
:05593E009002E6EFF00D
:10594300E4FF1261B7C295E4A3F09002E7E0C394C9
:10595300087480948050289002E6E0FF5480FEC4CF
:10596300131313540124FF9296EF25E0F0D29512FE
:10597300630DC29512630D9002E7E004F080CB0241
:025983005D6E57
:0555DD009002D7EFF081
:1055E200E49002D9F07F011261B7E49002D8F09002
:1055F20002D8E0C39408748094805021C2957F0140
:105602007E0012602BD2959002D9E0FF25E0F030A7
:105612009603E004F09002D8E004F080D29002D722
:10562200E0700512626A800312625AE4FF1261B7E7
:055632009002D9E0FF29
:015637002250
:1059190055014700000000000000000000000000E1
:08592900000000000000000076
:06632100124AB47F0022C5
:036335000226FB42
:10623900EF64017006759140F59222E4F591F592AB
:016249002232
:10612C00D296D2957F027E0012602BC2967F027EA1
:07613C000012602BC2952246
:10618700C295C2967F027E0012602BD295D2967F6F
:06619700027E0002602BF5
:105BA200E49002F1F07F01126239D2967E00126017
:105BB2002BD2957F017E0012602B30961A9002F153
:105BC200E004F0E0D394FA7480948040ED1261878F
:0E5BD200E4FF1262390F22C295E4FF1262391D
:015BE00022A2
:055739009002E8EFF012
:10573E00E4A3F09002E9E0FFC394087480948050D3
:10574E00389002E8E0FEA807088002C333D8FC3088
:10575E00E704D2968002C2967F017E0012602BD2A1
:10576E00957F017E0012602BC2957F017E00126034
:09577E002B9002E9E004F080BA6E
:0157870022FF
:10578800E49002EAF07F01126239E4A3F09002EBA0
:10579800E0C39408748094805027C2957F017E00EE
:1057A80012602BD2959002EAE025E0F0309603E0F3
:1057B80004F07F017E0012602B9002EBE004F08081
:0B57C800CCE4FF1262399002EAE0FF1F
:0157D30022B3
:1060AB00C295300904C2968002D2967F027E0012FE
:0E60BB00602BD2957F027E0012602BC29522D0
:045931004102F2003D
:1056E7009002D01222E6000000007FFF1262A7EFAF
:1056F700F47002FF229002D0E0FCA3E0FDA3E0FEDD
:10570700A3E02401FFE43EFEE43DFDE43CFC9002FF
:10571700D01222DA74FFFFFEFD7C009002D0E0F881
:10572700A3E0F9A3E0FAA3E0FBC31222A340BB7FE7
:015737000170
:01573800224E
:07631400D2C67FFF0262A761
:10627A00C2C61256E7EF7002FF221263147F012290
:054F28009002A7EFF06C
:104F2D00E49002ADF012631412627AEF60037FFF1A
:104F3D0022D2C67FFF1262A77FFF1262A77FFF12E8
:104F4D0062A7C2C69002A7E04440FF1262A790027A
:104F5D00A8E0FCA3E0FDA3E0FEA3E0FF7818122279
:104F6D00B41262A79002A8E0FCA3E0FDA3E0FEA3AB
:104F7D00E0FF78101222B41262A79002A8E0FCA301
:104F8D00E0FDA3E0FEA3E0FF78081222B41262A7B1
:104F9D009002A8A3A3A3E0FF1262A79002ACE0FFCA
:104FAD001262A79002A7E0640C70057FFF1262A742
:104FBD009002AD741FF07FFF1262A7EF30E70A90E9
:094FCD0002ADE0FE14F0EE70EDFF
:014FD60022B8
:104141007F03125F0CE490028FF090028FE0C39422
:104151000A74809480500D7FFF1262A790028FE055
:1041610004F080E6900289E4F0A37414F09002A8B0
:104171001222E6000000009002AC7495F0E4FF12F8
:104181004F28900288EFF07E006401600CA374FF59
:10419100F5F012211045F070D4E49002F2F0EF64D2
:1041A100014E60030242B49002A81222E60000010F
:1041B100AA9002AC7487F07F08124F28EF64016067
:1041C100030242B490028FF090028FE0C394047412
:1041D100809480501C7FFF1262A790028FE0248B95
:1041E100F582E43402F583EFF090028FE004F08071
:1041F100D790028DE0640160030242B4A3E064AA97
:1042010060030242B490028974FFF0A314F090029B
:10421100A81222E6000000009002AC7401F07F3782
:10422100124F289002A81222E6400000009002AC32
:104231007401F07F29124F28900288EFF0600CA3DF
:1042410074FFF5F012211045F070C3900289E070FF
:1042510002A3E060599002A81222E600000000903B
:1042610002AC7401F07F3A124F28EF704190028F37
:10427100F090028FE0C3940474809480501C7FFFFF
:104281001262A790028FE0248BF582E43402F58359
:10429100EFF090028FE004F080D790028BE0900263
:1042A100F230E6057406F0800A7404F08005E490AB
:1042B10002F2F0126314E4FF125F0C9002F2E0606C
:0E42C100037F0022900288E0FF6001227FAAA6
:0142CF0022CC
:104D03009002521222DA900256EBF0A3EAF0A3E9E2
:014D1300F0AF
:104D140012631412627AEF60037FFF229002F2E0C2
:104D240064066019900252E0FCA3E0FDA3E0FEA338
:104D3400E0FF78091222C79002521222DA9002523E
:104D4400E0FCA3E0FDA3E0FEA3E0FF9002A8122292
:104D5400DA9002AC7401F07F11124F2890025BEFDD
:104D6400F0704E7FFF1262A7EF64FE70F690025956
:104D7400F0A3F07FFF1262A7900256E0FBA3E0FAD3
:104D8400A3E0F9A3E0FCA3E0F5828C83EF12207189
:104D940090025AE004F07006900259E004F0C390C7
:104DA4000259E0940240CC7FFF1262A77FFF126297
:094DB400A712631490025BE0FFFA
:014DBD0022D3
:055B21009002DAEFF034
:105B2600A3740FF0A374FFF07FFF1262A79002DA4E
:105B3600E06F6018A3E07002A3E060109002DCE062
:105B460024FFF09002DBE034FFF080DC9002DBE023
:0B5B56007002A3E070037FFF227F00BD
:015B61002221
:1054AE009002AEEBF0A3EAF0A3E9F0A3ECF0A3EDCB
:1054BE00F0C2C67FFE125B21EF6005D2C67F0122CD
:1054CE009002B174FFF5F012211045F060207FFFBD
:1054DE001262A79002AEE0FBA3E0FAA3E0F9EF128E
:1054EE00205F9002AFE475F0011220FA80D27FFFA8
:1054FE001262A77FFF1262A79002B3E064017007E9
:0A550E00D2C67FFF1262A77F0022C1
:0B5BE1009002DDEBF0A3EAF0A3E9F076
:105BEC009002A81222E6000000009002AC74FFF0B4
:105BFC007F09124F28EF6001229002DDE0FBA3E049
:105C0C00FAA3E0F99002B37401F07D107C001254F9
:035C1C00AE7F0058
:015C1F002262
:1042D0007B017A01791B125BE1EF6006E4FFFEFDD2
:1042E000FC2290011BE054C06440707A900123E0EE
:1042F000FFE4FCFDFE78081222C790012B1222DA9F
:1043000090012BE0F8A3E0F9A3E0FAA3E0FB900111
:1043100024E0FFEF2401FFE433FEE433FDE433FC4B
:10432000EB2FFFEA3EFEE93DFDE83CFC90012B123D
:1043300022DA90012BE0FCA3E0FDA3E0FEA3E0FF66
:10434000E4FB7A04F9F812217090012B1222DA9022
:10435000012BE0FCA3E0FDA3E0FEA3E0FFE4FB7A79
:1043600002F9F802441C900121E054037D00FCA3F3
:10437000E02DFDE43CFCFEED7802C333CE33CED815
:10438000F9FDAC06900123E054C0C4131354032D6F
:10439000FDE43CFCA3E0540325E0FBA3E05480C40F
:1043A00013131354012BFB0B0B90012FE4F0A30408
:1043B000F0EB6010900130E025E0F090012FE03349
:1043C000F01B80EDED2401FFE43CFE90012FE0FCAA
:1043D000A3E0FD12232390012B1222DA900120E0AA
:1043E000540F7C00FD90012FE4F0A304F0ED4C602D
:1043F00014900130E025E0F090012FE033F0ED1D46
:1044000070EB1C80E890012BE0F8A3E0F9A3E0FA40
:10441000A3E0FBA3E0FEA3E0FFE4FCFD122170900B
:10442000012B1222DA90012BE0FCA3E0FDA3E0FEB9
:03443000A3E0FF07
:014433002266
:0D62B50043A208E4F5CF75CDC075CED02210
:0E62A7008FCFE5CD548060FA75CDC0AFCF2209
:105F0C00EF14600E1460121460162403701853CE34
:105F1C00FC2253CEFC43CE012253CEFC43CE0222B4
:075F2C0053CEFC43CE03221B
:1058AF00D2D4CCABCDF8C1ACBDD3CAA7B0DCA3ACBE
:1058BF00BFC9C4DCCEB4C1ACBDD3CDF8CFDFA3A17B
:1058CF000D0A00D2D4CCABCDF8C1ACBDD3B3C9B99E
:1058DF00A6A3ACD7BCB1B8BDF8C8EBCDA8D1B6D78D
:0858EF00B4CCACA3A10D0A002A
:0859350041006A034100690012
:10614300900142E0FBA3E475F001122110A9F0FADB
:04615300122019FFFE
:036157000262A73A
:0A5FA300F0EBA3F0C292AE04AF05CC
:105FAD00900145EEF0A3EFF0900145E0FF1262A7DE
:095FBD00900145A3E0FF0262A778
:1060C900900133EDF0C292125FAD7F0512615790D6
:0A60D9000133E0FF126157D292225A
:10000300900133ECF0A3EDF0C292125FAD7F0612C4
:100013006157900133E0FEA3E0FF125FADD292225D
:0B57D400900135EBF0A3EAF0A3E9F030
:1057DF00C292125FAD7F04126157E490013AF0A3B9
:1057EF00F0900138E0FEA3E0FFC390013BE09F90F3
:1057FF00013AE09E501690013512614690013BE050
:0E580F0004F070DD90013AE004F080D5D292F2
:01581D002268
:095E6800900132E0FF7D017C0095
:105E7100900142EF125FA3900142E0C43354E02449
:105E8100084405FF126157900143E0FF126157D2A8
:025E910092225B
:0E5D0200E0FEA3E07C002400FBEC3EFAE4FF90
:105D1000900142EFF0A3EA125FA3900142E0C43386
:105D200054E024084406FF126157900143E0FEA3AB
:085D3000E0FF125FADD29222E8
:085D38007B017D0C7C00E4FFFF
:105D4000900141EFF0A3EBF0A3EAF0E9125FA59018
:105D50000141E0C43354E024084407FF12615712A4
:0E5D60006143126143126143126143D29222E9
:10621600C292125FAD7F01126157E4FF126157D23D
:0162260092E5
:016227002254
:095EBD00900132E0FF7D037C003E
:045EC600900141EF17
:105ECA00125FA6900141E0C43354E024084401FF64
:0A5EDA00126157E4FF126157D292E3
:015EE400229B
:04598500900142EF5C
:10598900125FA6900142E0C43354E024084402FFA8
:10599900126157E4FF126157900143E4F0A3EFF05D
:1059A900E0F8E4F0E8900143F0E4FF126157900158
:1059B90044E02FF0900143E03400F0D292E0FEA3DE
:0259C900E0FFFD
:0159CB0022B9
:103DCC00900136EBF0A3EAF0A3E9F0900135EFF0A7
:103DDC007D267C00125985900139EEF0A3EFF04E50
:103DEC007003FEFF22D390013AE094B4900139E0C5
:103DFC00940540077405F0A374B4F0900135E0FF0E
:103E0C007D287C0012598590013BEEF0A3EFF0A3C6
:103E1C00EEF0A3EFF0EE5407FE90013BF0A3EFF0B1
:103E2C00C292125FAD900135E0C43354E02418FF08
:103E3C00126157900141EFF0900139E0FEA3E0FFD1
:103E4C0090013CE02F90013BE03EC394085052E4BB
:103E5C0090013FF0A3F0900139E0FEA3E0FFC39086
:103E6C000140E09F90013FE09E4003023F74E4FF5D
:103E7C00126157900141EFF0900136E0FBA3E0FA9C
:103E8C00A3E0F9EF12205F900137E475F0011220E6
:103E9C00FA900140E004F0700690013FE004F080DD
:103EAC00B590013BE0FEA3E0FFC3E49FF074089ED5
:103EBC0090013BF0E490013FF0A3F090013BE0FE59
:103ECC00A3E0FFC3900140E09F90013FE09E503380
:103EDC00E4FF126157900141EFF0900136E0FBA333
:103EEC00E0FAA3E0F9EF12205F900137E475F001DE
:103EFC001220FA900140E004F0700690013FE004BB
:103F0C00F080B8D292C292E4FFFE125FAD90013500
:103F1C00E0C43354E02418FF126157900141EFF0D4
:103F2C00900139E0FEA3E0FFC3900140E09F9001B7
:103F3C003FE09E5033E4FF126157900141EFF09047
:103F4C000136E0FBA3E0FAA3E0F9EF12205F900149
:103F5C0037E475F0011220FA900140E004F070068D
:103F6C0090013FE004F080B8D292900139E0FEA3BA
:103F7C00E0FF90013EE02FF090013DE03EF090011B
:103F8C0035E0FF90013DE0FAA3E0FB7D287C0012B8
:103F9C005D10900135E0FF7B40125E6D900139E0C1
:043FAC00FEA3E0FF91
:013FB00022EE
:103FB100900136EBF0A3EAF0A3E9F0900135EFF0C0
:103FC100E4FDFC125EC6EF540F6422602B900135B4
:103FD100E0FF7B017A00796F7D0C7C00125D4090DF
:103FE1000066E0FEA3E07C002400FBEC3EFA9001B9
:103FF10035E0FF7D10125D10900135E0FF7D247CDE
:104001000012598590013BEEF0A3EFF0A3EEF0A36F
:10401100EFF0EE5407FE90013BF0A3EFF0C29212D5
:104021005FAD900135E0C43354E024104404FF1225
:104031006157900139E0FEA3E0FF90013CE02F9031
:10404100013BE03EC394085035E490013FF0A3F0FA
:10405100900139E0FEA3E0FFC3900140E09F900191
:104061003FE09E40030241099001361261469001F2
:1040710040E004F0700690013FE004F080D290012E
:104081003BE0FEA3E0FFC3E49FF074089E90013B78
:10409100F0E490013FF0A3F090013BE0FEA3E0FFCC
:1040A100C3900140E09F90013FE09E501690013681
:1040B100126146900140E004F0700690013FE00477
:1040C100F080D5D292C292E4FFFE125FAD9001352D
:1040D100E0C43354E024104404FF126157900139C5
:1040E100E0FEA3E0FFC3900140E09F90013FE09E0E
:1040F1005016900136126146900140E004F07006BE
:1041010090013FE004F080D5D292900139E0FEA306
:10411100E0FF90013EE02FF090013DE03EF0900184
:1041210035E0FF90013DE0FAA3E0FB7D247C001225
:104131005D10900135E0FF7B207D017C00025E7106
:10551800C2B47F327E00125C92D2B47FC87E001281
:105528005C927F2E7E00126216EF20E037900133E6
:10553800E004F07006900132E004F0900132E0FEE1
:10554800A3E0FFE4FCFD7B407A9CF9F8C312228DAE
:1055580070D07BFF7A5879AF1261F1E4900132F094
:10556800A3F080BE7BFF7A5879D21261F17FD07E9A
:0455780007025C9238
:104E7700E4900132F07D80FFFE1260C97F0A7E0058
:104E8700125C927B017A007962900138E4F0A37496
:104E970004F07F017E001257D47B017A0079589085
:104EA7000138E4F0A37404F07F057E001257D47B29
:104EB700017A007952900138E4F0A37406F07F0973
:104EC7007E001257D47B017A00796B900138E4F0A9
:104ED700A37404F07F0F7E001257D4E4900132F0E0
:104EE700900132E0FFC3940874809480501F7B02C6
:104EF7007D1E7C00125E71900132E0FF7B027D1FF8
:104F07007C00125E71900132E004F080D37DD07C8A
:104F1700077F197E001200037D087F1B7E00026059
:014F2700C9C0
:104DBE0090006BE004900132F090006CE0049001E2
:104DCE0033F090006DE004900134F090006EE0043A
:104DDE00900135F07A017932125D387B01E4FDFCE9
:104DEE00FF125E717B017D017C00E4FF125E717F1C
:104DFE00057E00125C927D037C00E4FF125EC6EF1E
:104E0E006413600E7B107D017C00E4FF125E717FE7
:0D4E1E0000227B047D017C00E4FF125E7128
:104E2B00E4900136F07D02FCFF125EC6900136EF76
:104E3B00F0600BE0FB7D027C00E4FF125E717F05EE
:104E4B007E00125C92900136E0540864087002FFF9
:104E5B00227D067C00E4FF125EC6EFF460C27B107D
:0B4E6B007D017C00E4FF125E717FFF00
:014E76002219
:105E0A00900133EFF07BB47A057D127C00E4FF1237
:105E1A005D10900133E070179000507D04125D020E
:105E2A009000607D10125D027A00795C125D382262
:105B6200900132EFF07B01E4FDFC125E7190013294
:105B7200E0FF7B01125E6D7F057E00125C92900158
:105B820032125EC0EF6413900132600AE0FF7B10B4
:105B9200125E6D7F0022E0FF7B04125E6D7FFF22AA
:1059CC00900132EFF07B01E4FDFC125E717B011261
:1059DC005E687F057E00125C92125EBDEF64136000
:1059EC000280147B02125E687F057E00125C9212AC
:1059FC005EBDEF6414600D900132E0FF7B10125E0F
:075A0C006D7F00227FFF22E5
:105C5900900132EFF07B02E4FDFC125E719001329B
:105C6900E0FF7B01125E6D7F057E00125C92900160
:105C790032125EC0EF6422600D900132E0FF7B10AA
:095C8900125E6D7F00227FFF22F4
:10522D007F177E00126216EF54016401706F7D02CC
:10523D00FCFF125EC6900132EFF0FB7D027C00E4B4
:10524D00FF125E71900132E0FD30E007900069E0E1
:10525D004402F0ED30E1157B107D017C00E4FF127E
:10526D005E71E4FF125E0AE4900069F0900132E095
:10527D00FD30E407900068E04402F0ED30E2079065
:10528D000068E04401F0900132E030E3107B107DC6
:10529D00017C00E4FF125E71E4900069F07F177EDF
:0A52AD0000126216EF600302522D9A
:0152B70022D4
:10619D00759850E4F589758E40758B8E758DFDD291
:0661AD008ED2ACD2AF223D
:086305008F993099FDC2992225
:1061F100122019FF600C126305740129F9E43AFABF
:0362010080EE220A
:10615A00AF051DEF6010122019FF126305740129A3
:07616A00F9E43AFA80EA2291
:0300230002611463
:06611400C0E0C083C08260
:0B611A00309808C298900131E599F020
:07612500D082D083D0E032EC
:100026002564000000000000000000000000000041
:10003600000404040404040004000000140A0A0076
:1000460000000000000000000014143F140A3F0ADC
:100056000A000000041E1505060C14150F04000006
:100066000012150D0A142C2A1200000000040A0AB8
:100076001E151509360000000202010000000000EE
:1000860000000000201008080808080810200000DA
:100096000204080808080808040200000000041505
:1000A6000E0E150400000000000404041F040404DE
:1000B6000000000000000000000000000202010035
:1000C600000000001F00000000000000000000000B
:1000D60000000000020000001008080804040202E4
:1000E60002010000000E1111111111110E00000085
:1000F60000040604040404040E000000000E11119E
:10010600080402011F000000000E11100C1010114F
:100116000E00000000080C0A0A091E08180000005C
:10012600001F01010F1010110E000000000E090142
:100136000F1111110E000000001F09080404040429
:1001460004000000000E11110E1111110E00000026
:10015600000E1111111E10120E0000000000000406
:100166000000000004000000000000000400000081
:1001760004040000201008040204081020000000F7
:100186000000001F00001F0000000000020408100D
:100196002010080402000000000E111108040400DB
:1001A60004000000000E111915151D011E000000A7
:1001B6000004040C0A0A1E1233000000000F12127B
:1001C6000E1212120F000000001E11010101011192
:1001D6000E000000000F1212121212120F00000081
:1001E600001F120A0E0A02121F000000001F120A48
:1001F6000E0A020207000000001C1201013911124A
:100206000C000000003312121E12121233000000FE
:10021600001F0404040404041F000000003E080834
:1002260008080808090700000037120A060A0A1219
:100236003700000000070202020202223F0000000F
:10024600001B1B1B1B15151515000000003B121685
:10025600161A1A1217000000000E111111111111B1
:100266000E000000000F12120E020202070000002C
:10027600000E1111111117190E180000000F12129D
:100286000E0A121237000000001E11010608101196
:100296000F000000001F1504040404040E000000F3
:1002A60000331212121212120C0000000033121246
:1002B6000A0A0C0404000000001515150E0A0A0AA5
:1002C6000A000000001B0A0A04040A0A1B000000B8
:1002D600001B0A0A040404040E000000001F09089B
:1002E600040402121F0000001C0404040404040495
:1002F600041C0000020202040408080810000000A2
:100306000E08080808080808080E0000040A00007D
:1003160000000000000000000000000000000000D7
:1003260000003F0004000000000000000000000084
:10033600000000000C121C123C0000000003020228
:100346000E1212120E000000000000001C12020223
:100356001C000000001810101C1212123C000000B5
:10036600000000000C121E021C00000000380404ED
:100376001E0404041E000000000000003C120C02D3
:100386001E221C00000302020E1212123700000089
:1003960000040000060404040E000000000800002B
:1003A6000C08080808080700000302023A0A0E12A1
:1003B6003700000000070404040404041F000000C2
:1003C600000000000F1515151500000000000000C4
:1003D6000F12121237000000000000000C12121259
:1003E6000C000000000000000F1212120E0207009F
:1003F600000000001C1212121C1038000000000041
:100406001B06020207000000000000001E020C107E
:100416001E000000000004040E040404180000007E
:10042600000000001B1212123C0000000000000039
:1004360037120A0C040000000000000015150E0A11
:100446000A000000000000001B0A040A1B0000004E
:100456000000000037120A0C04040300000000002C
:100466001E0804041E0000001808080804080808EE
:1004760008180008080808080808080808080800F6
:1004860006040404080404040406000225180000F7
:100496000000000000000000000000000000000056
:1004A6000000000000000000000008080808080816
:1004B6000800001818000000486C24120000000014
:1004C600000000000000000000002424247F121217
:1004D600127F12121200000000081C2A2A0A0C18A9
:1004E60028282A2A1C080800000022251515152A86
:1004F600585454542200000000000C1212120A76BE
:10050600252911916E000000060604030000000074
:100516000000000000000000402010100808080835
:1005260008081010204000000204080810101010DF
:10053600101008080402000000000008086B1C1CCC
:100546006B08080000000000000000080808087F8B
:100556000808080800000000000000000000000075
:10056600000000060604030000000000000000FE74
:100576000000000000000000000000000000000075
:1005860000000006060000000080404020201010F9
:1005960008080404020200000000182442424242F5
:1005A60042424224180000000000080E080808080D
:1005B600080808083E00000000003C424242202095
:1005C600100804427E00000000003C424220182031
:1005D600404042221C000000000020302824242233
:1005E600227E20207800000000007E0202021A26E9
:1005F600404042221C0000000000382402021A2655
:10060600424242241800000000007E2222101008F8
:10061600080808080800000000003C42424224186E
:10062600244242423C000000000018244242426438
:10063600584040241C00000000000000001818006C
:10064600000000181800000000000000000008006C
:100656000000000008080400000040201008040202
:10066600040810204000000000000000007F000089
:10067600007F000000000000000002040810204077
:10068600201008040200000000003C4242464020C0
:10069600101000181800000000001C225A5555556D
:1006A600552D42221C0000000000080818141424CE
:1006B6003C224242E700000000001F2222221E22A6
:1006C600424242221F00000000007C42420101011A
:1006D600010142221C00000000001F224242424249
:1006E600424242221F00000000003F4212121E1228
:1006F600120242423F00000000003F4212121E1248
:10070600120202020700000000003C222201010141
:10071600712122221C0000000000E7424242427E74
:1007260042424242E700000000003E08080808086E
:10073600080808083E00000000007C101010101089
:100746001010101010110F0000007722120A0E0A66
:1007560012122222770000000000070202020202A3
:10076600020202427F000000000077363636362A43
:100776002A2A2A2A6B0000000000E346464A4A520B
:10078600525262624700000000001C224141414172
:10079600414141221C00000000003F424242423ECD
:1007A600020202020700000000001C2241414141F2
:1007B600414D53321C60000000003F4242423E124F
:1007C60012222242C700000000007C4242020418A6
:1007D600204042423E00000000007F490808080809
:1007E600080808081C0000000000E7424242424296
:1007F600424242423C0000000000E74242222424DA
:10080600141418080800000000006B4949494955AE
:1008160055362222220000000000E7422424181840
:1008260018242442E700000000007722221414084E
:10083600080808081C00000000007E21201010088F
:10084600040442423F000000780808080808080827
:1008560008080808087800000002020404080808CE
:1008660010102020204040001E10101010101010F4
:1008760010101010101E0000384400000000000088
:100886000000000000000000000000000000000062
:10089600000000000000FF00060800000000000045
:1008A60000000000000000000000000000003C42C4
:1008B60078444242FC0000000000030202021A26AD
:1008C600424242261A0000000000000000003844A0
:1008D60002020244380000000000604040407844B4
:1008E60042424264D80000000000000000003C4282
:1008F6007E0202423C0000000000F08808087E08E4
:10090600080808083E0000000000000000007C22E5
:10091600221C023C42423C000000030202023A460C
:1009260042424242E700000000000C0C00000E08A4
:10093600080808083E00000000003030000038209B
:100946002020202020221E00000003020202721234
:100956000A1612227700000000000E080808080890
:10096600080808083E0000000000000000007F9212
:1009760092929292B70000000000000000003B46F1
:1009860042424242E70000000000000000003C42F4
:10099600424242423C0000000000000000001B26CC
:1009A600424242221E020700000000000000784476
:1009B600424242447840E000000000000000774CCC
:1009C600040404041F0000000000000000007C4234
:1009D600023C40423E0000000000000008083E08BD
:1009E600080808083000000000000000000063420C
:1009F60042424262DC000000000000000000E742C4
:100A06002424140808000000000000000000EB4940
:100A160049555522220000000000000000007624FF
:100A2600181818246E000000000000000000E742BD
:100A360024241418080807000000000000007E2285
:100A4600100808447E000000C0202020202010202E
:100A56002020202020C000101010101010101010A0
:100A660010101010101010000608080808081008CA
:100A7600080808080806000C32C200000000000042
:100A860000000000000000C9EE000027FC1404145A
:100A9600A4811042084040104017FC2040E0E021AD
:100AA6005022482C4620400040DBDA110411241164
:100AB6002411241124FD241124112411241124119C
:100AC600241D24E124422402040404CAD0020001A5
:100AD6000000007FFC0100010001003FF821082111
:100AE60008210821082128211001000100C8AB00B7
:100AF600000000018002400430180860061FF9015A
:100B060000010001003FF80100010001007FFEB670
:100B1600AF0000000000203E20007C002200227F63
:100B2600221022102212221222224223423D820049
:100B36009CB5E70000010001001FF0610C41044173
:100B4600047FFC4104410441047FFC0100010201D1
:100B56000201FCD7D3000000003FF800100060003F
:100B660080010000807FFE00400040002000200041
:100B76002018400780BCBC00000000104013FE1087
:100B8600407C40104013FC11041908308850501066
:100B96006010D013087C06CAF50000010001300180
:100BA6000801007FFE018003400540052009101161
:100BB600082104410201000100D3D0000001000217
:100BC600007FFE040008001FFC700490041FFC1048
:100BD6000410041FFC10041004103CCFDE000000BB
:100BE600007BFC4A044A044BFC52044A044BFC4A70
:100BF600404A447A2842304210420843C6B9AB0004
:100C060000000004400420081010101008210442BF
:100C160002022004100810080810081FFC0004CB6C
:100C2600BE000000003FFC000400043FF400043F47
:100C3600E4202420242024202420241FC40004008F
:100C46007CBBB60000000000807EFC02A202A2224D
:100C5600A4152414240C300C300C4812482284426B
:100C6600840102D3AD0000000023982464144404D8
:100C7600446444144414441444144415C4125C10CB
:100C860040284047FEC4FA00000000120013FE246C
:100C9600222522652862242224242020E005081427
:100CA600842444241A47F2B4BF0000002010201305
:100CB600FE202026244A247A241224222423FC7C83
:100CC60020002204227822003CC9AB000000000468
:100CD600000FF0102020207FFC2084208420842018
:100CE600843FF82000200220021FFECCEE00000008
:100CF60000204023FE204079FC220423FC2204230A
:100D0600FC220423FC3A0465FA01980204B3E400C9
:100D160000010001007FFE02200410040808043FC1
:100D2600FC044204400440044208421042607EBE75
:100D3600D800000000207E3E804880488048FE485B
:100D4600827F8208820C8214FA12842280218040DB
:100D5600FED0CE000000007F842208223022C0226E
:100D66000222047FC8223022C22202220422082242
:100D7600304040BBAD000000007FFE00000FF011C8
:100D8600101110111051125FF25112511251124FDF
:100D9600F240027FFCD4B2000000007FFE47E2482A
:100DA60012481247E24FF25012501251125112429B
:100DB600924472580A3FFCC8FD000000007FFC0008
:100DC600000000000000003FF800000000000000E6
:100DD600000000FFFE00000000BDC7080008001F5D
:100DE600E020204040BFF8210821083FF8210821D3
:100DF600083FF82108410841288010CDBC000000BA
:100E0600003FFE440247F24C225362408243625E38
:100E16001A41824062430240C240223FFCC6AC00F7
:100E26000000402040204020403FFE2000200020BF
:100E3600003FE0201020102010201040104010CF5E
:100E4600D4000000003FFC200420043FFC200420C6
:100E5600041FF824441448144814480C5004407FD6
:100E6600FECABE000000003FFC0000000000007F3C
:100E7600FE00800890088810881084208420824014
:100E8600820780B2CB0000002008207FFE002000F1
:100E9600783F881108089009207FFE018003400DE5
:100EA60030310C4002B5A500000010081004203FA8
:100EB600F8210421043FFC210421043FF801007FAE
:100EC600FE010001000100D6D00000010001000172
:100ED600003FFC2104210421042104210421043FB4
:100EE600FC0100010001000100D3A200000000087F
:100EF600207FFE0820092001003FF8210821082153
:100F0600081FF4014002200C10700ECEC400000130
:100F160000010000803F7C08100810041004200225
:100F26002002400180018002601C18E006D7DB0029
:100F3600000000102011FE2202220249FC58003057
:100F46000013FE2528792401240D24722202A2BA58
:100F5600CF00000000018002400430180860061F20
:100F6600F800001FF8200420042004200420041F99
:100F7600F8C1C10000010001007FFE00003FF8201B
:100F8600083FF83FF8400647C248240820082210C8
:100F960022603EB6C80000000000803FFE44105F9D
:100FA600FC4410441043F040005FF84408423041CE
:100FB600C04360BC1EB2E20000000067C2145205C6
:100FC600520552C552255205520552155217522244
:100FD6008222424442483ECAD40000000020141037
:100FE6001417FE00120010601013F01090109010ED
:100FF60090149214EA1F0A0006B3CC0000000019F0
:10100600FE7202120212027DFC18001BFE342050F2
:101016002053FE10201020102013FED0F2000000F6
:101026000000803FFE400047FC4208413040C05F60
:10103600FE404240424044404840404440B5F700EC
:1010460000000023FE122202FA0222E22212FE12FF
:1010560072128A128A128A16BA1A421202040EB939
:10106600E200000100010411080908091009207FA7
:10107600FE04400440044004400842084210426016
:101086007CB0E60000000048FE4900490049007EA9
:10109600FE41824144794445284528451045284665
:1010A600440382C8A800001000100013FC7D041140
:1010B60004190418843488504850501020105010D9
:1010C6008813041402CBF9000000003F7C20402066
:1010D600403E40227E2244224422443E84208420F4
:1010E60084408441044204C6C100003FF820082021
:1010F600083FF8241022202FF8222022203FFC222D
:10110600204220442084200820C4BB04407FFC04E5
:10111600401FF010101FF010101FF00400FFFE110A
:10112600103FF8D116115011200100D0FD2080107B
:101136008010FE0100FE0021FC20243C2424A02473
:10114600A024BC24A024A04560553E8A00D7AA202E
:101156002020202020FDFC4020504093FEFC401023
:101166008011FC1C04F0885050102010101010BF85
:10117600AA00007FFC08200820082008200820FF7D
:10118600FE082008200820082010201020202040DB
:1011960020D4B4000027FE1420144085FC450445E5
:1011A600FC150415FC2524E42024A829242A223031
:1011B600A00040D2BA0080204017FE1120812042B4
:1011C6003C4244166412942348E2482230222022EC
:1011D6005022880306BEA70FE0082008200FE0086B
:1011E6002008200FE000007EFC428442847EFC4200
:1011F6008442847EFC4284CDF800007FFC4004409B
:1012060004421452944A54442444244A544A54529C
:10121600946104400440144008D5BE1020082008FC
:10122600207E20003E04204420442025FC29042959
:10123600040F04F104410401FC0104B0B410401091
:1012460020102013FEFA02144410401BFE3088D0F2
:1012560088110810D01020105050882304BCFC20A0
:101266001020103B7C211441FE7A14A27C2710F931
:101276007C251025FE22102A10350028FE0000D0FD
:10128600A310401020102011FEFC00108831043AF3
:101296000254885088905010501020105010881317
:1012A60006D7BC01404120212023FE022016201B28
:1012B600FC1220222023FCE2202220222023FE22D0
:1012C600000200B4A520202020782049FC91247D2E
:1012D60024552455247DFC552454207C2854245719
:1012E600FE45028C00C3FE1110111017FC1110FCF4
:1012F6000013F8120817F81A0833F8D04017FC1034
:10130600A0111052082406B6C10020202011FC109E
:1013160020002003FEF002109410501110109013BC
:10132600FE1428184410820302BACD04000E007879
:1013360000087C0844FF44084418441C442A442AF4
:10134600444844887C084408000800D1D5100008A9
:10135600FE7F102220147C7F444454485452544447
:1013660054485451544228442488423082D6B50801
:101376004008400FFC1040104033F8320853F892F2
:101386000813F8120813F8120812081FFE1000C8F6
:10139600DD020001007FFE4002882411102288042D
:1013A6004008203018DFF61010101010101FF01033
:1013B60010D6A70100010001007FFC010001000119
:1013C600003FF01010082004400280010006C018FB
:1013D60030E00EB3D610201020102011FCFC201097
:1013E6002013FE1008180833FED008108810481085
:1013F6000850282010B5E302000200020003FC0298
:101406000002003FF02010201020103FF0000024C2
:1014160088224442448004D1A722081108111000F2
:10142600207FFE400280041FE000400180FFFE0195
:10143600000100010005000200F3BB0FE010201FB1
:10144600C00040FFFE0C1073200DC072B00C8EF36E
:10145600207CF854A87CF81224FEFCBFC608101D98
:1014660010F09010901010FD10109038903410501D
:101476001E53F090101010101010101010C9EE002E
:1014860000000000001000000800080C7FFC04406B
:101496001001C8A002186042301832231812C30087
:1014A60014030004030C047FF0080F80080B407837
:1014B600136018332018631818831C1903081803BF
:1014C60000000300000000DBDA000000000000045A
:1014D600100C04180C04108C04108C04108C0410CE
:1014E6008C04D08C3F108C04108C04108C04108C4F
:1014F60004108C04108C04108C05F08C0E208C7853
:10150600208C20408C00808C01000C02000C000016
:1015160000CAD000000000000000300000180000E3
:10152600180800001C1FFFE000180000182007FF25
:10153600F004182004182004182004182004182089
:101546000418200418200418200418200418E004A5
:101556001840001800001800000000D6D000000057
:101566000000000000000000000018000018000045
:1015760018000018003FFFFE301806301806301815
:10158600063018063018063FFFFE30180600180011
:1015960000180000180000180000180000000000E5
:1015A6000000000000CEC4000000000000000000A3
:1015B600003800001C00000600FFFFFF0600300692
:1015C60000300300600300600180C000C18000E3BA
:1015D60000003600001C0000770003C1E01E003C3E
:1015E600600007000000000000000000000000B2DC
:1015F600E2000000000000000000000000400003C0
:1016060021FF33398333118333019B33C19B3371FC
:101616009B33199B33019B33019B33119B3319B3C6
:1016260033303033306C0330C6036383032E01BE80
:10163600000000000000000000CAD4000000000006
:10164600000000000000004000D83000CE1800C2A4
:101656001C00C001FFFF0000C0F800C01800C01940
:10166600FFC01818401818601918601B18611E185A
:10167600311C1FB139F01910000F000000000000E6
:10168600000000D1A70000000060E00630F0073837
:10169600E003BDC0039D801B9B8C1FFFFE38001E10
:1016A6003800D87FFFF02203E0000780001E00000C
:1016B6001C1C7FFFFE201C00001C00001C00001CE0
:1016C6000001FC0000F800003800000000F3BB0039
:1016D600000001C18001FFC003818003FF80030376
:1016E6008C7FFFFE20F0E007FBE03EFF0007FFC017
:1016F6003CFFFE07CE7E3F7FCC03BDC83FFFFC3BD1
:101706007DDC3B7DDC3FFFFC3BEDF80371DC7FFFBE
:10171600FE3C3F0E000000D7D60000000000060089
:1017260000000300000000C0000001C0C000010767
:10173600C00001FF00021FFE0007F01C0007C0707A
:10174600000F00E0000E03F0001C0FF0003C0F70CD
:10175600003C00E0001800C0000000C0000000C00F
:10176600000000600000002000000037000001FFBC
:1017760000007FF80007F830001F8030000080303E
:101786000000C03000006060000018E000000FC0DC
:10179600000006000000000000CCE500000000008C
:1017A600000000000000C0000000E0002001B800BA
:1017B600703FF80061FFC000C3030001C6060003C6
:1017C6008C060003080C0006080C000E18183F1EB5
:1017D600101BF31F903F0700803C1C0190707C019A
:1017E6009060FE01A0C3F801A00FD803A00818035B
:1017F6006000180340001803C00018038000180397
:101806000000180000001800000010000000300062
:101816000000300000000000000000B2E2000000FE
:1018260000000000000000000000000000020C1094
:1018360008071FF80403BFF00201BC300303EC30B5
:1018460003015C600300D8600300D86003809862DF
:101856000361B8430771B14306313243063376C399
:10186600063A64C7063EECC0063E78C0063C3040E9
:10187600067C70000678E060067BFFF006F7C00085
:1018860006E4000006400000060000000600000016
:101896007C00008FF000007C0000000000CAD4002D
:1018A600000000000000000000000000003F0000F3
:1018B600007F8000000180000000C0000000C00022
:1018C6000000CE038000CFFFC000DD41800FFE0088
:1018D60007FFFC000C00F000180FC03E19FF40F394
:1018E60011BC6083307FE003B1FE20033380200308
:1018F600700030036000100360001807C0000C077A
:10190600C00004078000020100000300000001007F
:10191600000000000000000000000000000000D1F0
:10192600A700000000000000000003840000038FF1
:10193600C0000383E0003FC1C0003FFFC00077EF57
:101946008000EFDF0001FD9F0003FBFF0000EFFFBB
:101956000000FFFFF000FF3FFC0061FC3C0077E069
:101966007E007F3EF80DFC7EC01FE3F8001D9FF051
:1019760000381FE0007819F00070007F000007FFB4
:1019860000000FF0000004700000007000000070FE
:10199600000000E0000001E0000007C000001FC0DA
:1019A60000F3BB00000000000600000007E0000096
:1019B60007F000000EF000001DE000001FC0000050
:1019C6003F9FC0007FFFC0007FE000001F3C00007B
:1019D600FE1E000FFFBC000F3FFF8000FFFF8000D0
:1019E600FFF000003E7000007EF000003FFFE000C8
:1019F6007FFFE0007FBDC007F77F8003FFFF800306
:101A0600FFDF8001FDFF0001FFF9C001FFF8E000E4
:101A16007F3FF001E33E380F83F8380E07E03800C9
:031A26000380003A
:105DD700900260FEE0FCA3E0FD90025FE02DFD90E5
:0D5DE700025EE03CFC900264E0FAA3E0FBE9
:105DF4009002ECEAF0A3EBF012608C9002ECE0FE6F
:065E0400A3E0FF0262E4CE
:1046B800900083E0FCA3E0FD900081E0FAA3E0FB1A
:1046C800A3E0FFA3E09001D8CFF0A3EFF09001ACF6
:1046D800E0FFA3E09001DACFF0A3EFF090007FE0D5
:0446E800FEA3E0FF4E
:0E46EC009001D2EEF0A3EFF0A3ECF0A3EDF0FE
:1046FA009001D2E0FEA3E0FFC3EB9FFFEA9ECF2426
:10470A0001CF34009001E0F0A3EFF09001D4E0FE75
:10471A00A3E0FFC39001D9E09FFF9001D8E09ECFAC
:10472A002401CF34009001E2F0A3EFF09001D4E02D
:10473A00FCA3E0FD9001D8E0FFA3E090027ECFF059
:10474A00A3EFF09001D2E0FEA3E0FF12557CE490C3
:10475A0001DCF0A3F09001E2E0FEA3E0FFC39001C8
:10476A00DDE09F9001DCE09E5047E49001DEF0A37B
:10477A00F09001E0E0FEA3E0FFC39001DFE09F902C
:10478A0001DEE09E501B9001DAE0FEA3E0FF126218
:10479A00E49001DFE004F070D89001DEE004F080DC
:1047AA00D09001DDE004F070AC9001DCE004F08010
:1047BA00A49001B1E024FFFB9001B0E034FFFA902D
:1047CA0001B3E024FFFE9001B2E034FF90027EF0D4
:0B47DA00A3CEF0E4FDFCFFFE02557CC6
:0E3BE1009000E3EEF0A3EFF0A3ECF0A3EDF004
:103BEF00E49000EDF0A3F0A3F0A3F09000E3E0FE6B
:103BFF00A3E0FFC3EB9FFFEA9E9000F1F0A3EFF06D
:103C0F009000E5E0FAA3E0FBC39000EAE09BFE9092
:103C1F0000E9E09A9000F3F0A3CEF09000E3E0FF0C
:103C2F00A3E09000FBCFF0A3EFF0A3EAF0A3EBF03B
:103C3F009000F1E0FEA3E0FFD39400EE6480948047
:103C4F00400A9000F7E4F0A304F08021EF4E7008D3
:103C5F009000F7F0A3F0801574FF9000F7F0A3F039
:103C6F00C3E49FFFE49E9000F1F0A3EFF09000F308
:103C7F00E0FEA3E0FFD39400EE64809480400A90AE
:103C8F0000F9E4F0A304F08021EF4E70089000F9E2
:103C9F00F0A3F0801574FF9000F9F0A3F0C3E49F38
:103CAF00FFE49E9000F3F0A3EFF09000F3E0FEA38B
:103CBF00E0FF9000F1E0FCA3E0FDD39FEE6480F8FD
:103CCF00EC6480989000F54007ECF0A3EDF08005D0
:103CDF00EEF0A3EFF0E49000EBF0A3F09000F6E02D
:103CEF002401FF9000F5E03400FED39000ECE09F3C
:103CFF009000EBE09E4003023DCB9000FBE0FEA363
:103D0F00E0FFA3E0FCA3E0FD125E939000F1E0FE64
:103D1F00A3E0FF9000EEE02FF09000EDE03EF0907A
:103D2F0000F3E0FEA3E0FF9000F0E02FF09000EF33
:103D3F00E03EF09000F5E0FEA3E0FF9000EDE0FC28
:103D4F00A3E0FDD39FEE6480F8EC6480984020EDF3
:103D5F009FFFEC9E9000EDF0A3EFF09000F7E0FED8
:103D6F00A3E0FF9000FCE02FF09000FBE03EF0900E
:103D7F0000F5E0FEA3E0FF9000EFE0FCA3E0FDD331
:103D8F009FEE6480F8EC6480984020ED9FFFEC9EDE
:103D9F009000EFF0A3EFF09000F9E0FEA3E0FF90AA
:103DAF0000FEE02FF09000FDE03EF09000ECE0040C
:0C3DBF00F070069000EBE004F0023CEB1A
:013DCB0022D5
:0E37E1009000C3EEF0A3EFF0A3ECF0A3EDF028
:1037EF00E49000D1F0A3F0A3F0A3F09000C3E0FEAB
:1037FF00A3E0FFC3EB9FFFEA9E9000D5F0A3EFF08D
:10380F009000C5E0FAA3E0FBC39000CAE09BFE90D6
:10381F0000C9E09A9000D7F0A3CEF09000C3E0FF6C
:10382F00A3E09000DFCFF0A3EFF0A3EAF0A3EBF05B
:10383F009000D5E0FEA3E0FFD39400EE6480948067
:10384F00400A9000DBE4F0A304F08021EF4E7008F3
:10385F009000DBF0A3F0801574FF9000DBF0A3F075
:10386F00C3E49FFFE49E9000D5F0A3EFF09000D744
:10387F00E0FEA3E0FFD39400EE64809480400A90B2
:10388F0000DDE4F0A304F08021EF4E70089000DD1E
:10389F00F0A3F0801574FF9000DDF0A3F0C3E49F58
:1038AF00FFE49E9000D7F0A3EFF09000D7E0FEA3C7
:1038BF00E0FF9000D5E0FCA3E0FDD39FEE6480F81D
:1038CF00EC6480989000D94007ECF0A3EDF08005F0
:1038DF00EEF0A3EFF0E49000CFF0A3F09000DAE069
:1038EF002401FF9000D9E03400FED39000D0E09F78
:1038FF009000CFE09E40030239EA9000E1E0FCA384
:10390F00E0FD9000CDE0FAA3E0FB9000CBE0FFA339
:10391F00E09001EACFF0A3EFF0A3E4F0A304F0905E
:10392F0000DFE0FEA3E0FF1239EB9000D5E0FEA32D
:10393F00E0FF9000D2E02FF09000D1E03EF0900039
:10394F00D7E0FEA3E0FF9000D4E02FF09000D3E08B
:10395F003EF09000D9E0FEA3E0FF9000D1E0FCA381
:10396F00E0FDD39FEE6480F8EC6480984020ED9FDB
:10397F00FFEC9E9000D1F0A3EFF09000DBE0FEA3F0
:10398F00E0FF9000E0E02FF09000DFE03EF09000CD
:10399F00D9E0FEA3E0FF9000D3E0FCA3E0FDD39FAE
:1039AF00EE6480F8EC6480984020ED9FFFEC9E90D1
:1039BF0000D3F0A3EFF09000DDE0FEA3E0FF900056
:1039CF00E2E02FF09000E1E03EF09000D0E004F054
:0B39DF0070069000CFE004F00238EB0F
:0139EA0022BA
:104FD700900294EAF0A3EBF0900290EEF0A3EFF0CA
:104FE700A3ECF0A3EDF0C007A3E0FAA3E0FB900267
:104FF70092E0FFA3E09000E9CFF0A3EFF0D0071213
:105007003BE1900290E0FAA3E0FBFFAE02C007A3EA
:10501700E0FCA3E0FD900296E0FFA3E09000E9CF5B
:10502700F0A3EFF0D007123BE1900296E0FCA3E07B
:10503700FD900294E0FAA3E0FBA3E0FFA3E0900059
:10504700E9CFF0A3EFF0900290E0FEA3E0FF123B60
:10505700E1900294E0FAA3E0FBFFAE02C0079002E2
:1050670092E0FCA3E0FD900296E0FFA3E09000E948
:0A507700CFF0A3EFF0D007023BE1F9
:105F5A00C00790029EE0FFA3E09001D8CFF0A3EF24
:105F6A00F09001ACE0FFA3E09001DACFF0A3EFF0EC
:055F7A00D0070246EC17
:10457B00900262F0A3EFF09001E8E0FFA3E090025D
:0E458B0064CFF0A3EFF09001E4E0FEA3E0FFA8
:1045990090025EECF0A3EDF090025CEEF0A3EFF078
:1045A900900260EAF0A3EBF02FFFEE3AA3125DDA76
:1045B900900260E0FEA3E0FFC390025DE09FFF90E0
:1045C900025CE09EFE900262125DDB900260E0FEFA
:1045D900A3E0FF90025DE02FFF90025CE03EFE90B9
:1045E9000262E0FCA3E0FDC390025FE09DFD900242
:1045F9005EE09C125DEB900260E0FEA3E0FFC390D9
:10460900025DE09FFF90025CE09EFE900262E0FC8A
:10461900A3E0FDC390025FE09DFD90025EE09C1265
:104629005DEB900262E0FEA3E0FF90025DE02FFFE8
:1046390090025CE03E125DD7900262E0FEA3E0FFCB
:10464900C390025DE09FFF90025CE09E125DD790EF
:104659000262E0FEA3E0FF90025DE02FFF90025CA2
:10466900E03EFE900260E0FCA3E0FDC390025FE043
:104679009DFD90025EE09C125DEB900262E0FEA35C
:10468900E0FFC390025DE09FFF90025CE09EFE9018
:104699000260E0FCA3E0FDC390025FE09DFD900293
:0F46A9005EE09CFC900264E0FAA3E0FB025DF48B
:1039EB009001E4EEF0A3EFF0A3ECF0A3EDF0A3EA6B
:0439FB00F0A3EBF05A
:1039FF00E49001EEF0A3F09001EAE0FEA3E0FF9067
:103A0F0001F0EEF0A3EFF025E0FFEE33FEC37403F9
:103A1F009F9001F5F0E49E9001F4F09001ECE070BE
:103A2F0002A3E07003023B2E9001F0E0FEA3E0FF43
:103A3F009001EEE0FCA3E0FDD39FEE6480F8EC6410
:103A4F0080984003023BE09001F2ECF0A3EDF09080
:103A5F0001F0E0FEA3E0FFD39001F3E09FEE64805E
:103A6F00F89001F2E0648098502B9001E6E0FCA3FF
:103A7F00E0FD9001EEE0FAA3E0FB9001F2E0FFA37E
:103A8F00E0CF12457B9001F3E004F070C29001F299
:103A9F00E004F080BA9001F4E0FCA3E0FDC3EC6415
:103AAF0080948050239001EEE0FEA3E07802C333B0
:103ABF00CE33CED8F92DFFEC3ECF2406CF34009075
:103ACF0001F4F0A3EFF080439001F0E0FEA3E0FFDC
:103ADF00C39001EFE09FFF9001EEE09EFEEF7802B2
:103AEF00C333CE33CED8F9FF9001F5E02FFF90010D
:103AFF00F4E03ECF240ACF3400F0A3EFF09001F1B1
:103B0F00E024FFF09001F0E034FFF09001EFE004CB
:103B1F00F06003023A379001EEE004F0023A37907A
:103B2F0001F0E0FEA3E0FF9001EEE0FAA3E0FBD38B
:103B3F009FEE6480F8EA6480984003023BE09001B6
:103B4F00E6E0FCA3E0FDEE12457B9001F4E0FCA360
:103B5F00E0FDC3EC6480948050239001EEE0FEA35F
:103B6F00E07802C333CE33CED8F92DFFEC3ECF240D
:103B7F0006CF34009001F4F0A3EFF080439001F0F2
:103B8F00E0FEA3E0FFC39001EFE09FFF9001EEE0A6
:103B9F009EFEEF7802C333CE33CED8F9FF9001F5F6
:103BAF00E02FFF9001F4E03ECF240ACF3400F0A3C2
:103BBF00EFF09001F1E024FFF09001F0E034FFF01E
:103BCF009001EFE004F070069001EEE004F0023B8C
:013BDF002EB7
:013BE00022C2
:10543800900230EEF0A3EFF0A3ECF0A3EDF0A3EAB6
:10544800F0A3EBF0C007A3E0FFA3E09000E9CFF0E2
:10545800A3EFF0D007123BE1900236E0FCA3E0FD99
:10546800A3E0FAA3E0FBA3E0FFA3E09000E9CFF0FC
:10547800A3EFF0900234E0FEA3E0FF123BE19002BC
:105488003AE0FCA3E0FD900230E0FAA3E0FBA3E0E1
:10549800FFA3E09000E9CFF0A3EFF0900238E0FE20
:0654A800A3E0FF023BE15E
:105690009002B77401F0A37400F0A37479F07B0159
:0456A0007A0079759E
:0B56A4009002B4EBF0A3EAF0A3E9F0E1
:1056AF00122126FFAEF09002B7E0FBA3E0FAA3E0D1
:1056BF00F9122126FD9002B4E0FBA3E0FAA3E0F972
:1056CF00E5F08DF01221519002B7E0FBA3E0FAA3B1
:0856DF00E0F9EE8FF002215109
:101A2900900073EEF0A3EFF0A3ECF0A3EDF0A3EABE
:041A3900F0A3EBF03B
:101A3D009000931222E6000000009000971222E61B
:101A4D0000000000900079E0FEA3E0FF900075E03B
:101A5D00FCA3E0D39FEC9E401A1256909002B774EF
:101A6D0001F0A37400F0A37477F07B017A00797311
:101A7D001256A490007DE0FEA3E0FF900079E0FCFB
:101A8D00A3E0D39FEC9E402E9002B77401F0A37497
:101A9D0000F0A37479F07B017A00797D1256A49041
:101AAD0002B77401F0A37400F0A37477F07B017A90
:101ABD0000797B1256A4900079E0FEA3E0FF900020
:101ACD0075E0FCA3E0D39FEC9E401A125690900255
:101ADD00B77401F0A37400F0A37477F07B017A0062
:101AED0079731256A490007DE0FEA3E0FF9000757F
:101AFD00E0FCA3E0FD6F7002EC6E6003021BD19061
:101B0D000073E0FEA3E0FF900081EEF0A3EFF090F4
:101B1D00007FEEF0A3EFF090007FE0FEA3E0FF90DA
:101B2D000077E0FAA3E0FBC39FEA9E500A90007F86
:101B3D00EAF0A3EBF0801E900081E0FEA3E0FFD35E
:101B4D00EB9FEA9E400F900077E0FFA3E0900081AD
:101B5D00CFF0A3EFF090007FE0FEA3E0FF90007BBD
:101B6D00E0FAA3E0FBC39FEA9E500A90007FEAF0E3
:101B7D00A3EBF0801E900081E0FEA3E0FFD3EB9F6E
:101B8D00EA9E400F90007BE0FFA3E0900081CFF034
:101B9D00A3EFF0900081E0FAA3E0FB900075E0FF69
:101BAD00A3E09001D8CFF0A3EFF09001ACE0FFA33C
:101BBD00E09001DACFF0A3EFF090007FE0FEA3E01C
:101BCD00FF0246EC900073E0FAA3E0FB900077E093
:101BDD00FEA3E0C39BFFEE9A900087F0A3EFF09079
:101BED000075E0FEA3E0FF900079E0FCA3E0C39F49
:101BFD00FFEC9E900089F0A3EFF090007BE0FEA338
:101C0D00E0C39BFFEE9A90008BF0A3EFF090007570
:101C1D00E0FEA3E0FF90007DE0FCA3E0C39FFFEC9E
:101C2D009E90008DF0A3EFF0900077E0FEA3E0FF13
:101C3D0090007BE0FCA3E0C39FFFEC9E90008FF033
:101C4D00A3EFF0900079E0FAA3E0FB90007DE0FCBB
:101C5D00A3E0FDC39BFEEC9A900091F0A3CEF0EBB8
:101C6D00B50510EAB5040C900079FFA3E09000854E
:101C7D00CF8010900079E0FEA3E024FFFFEE34FF4B
:101C8D00900085F0A3EFF0900075E0FFA3E09000C9
:101C9D0083CFF0A3EFF0900085E0FEA3E0FF90006E
:101CAD0083E0FCA3E0D39FEC9E4003021DBD90009A
:101CBD0089E0FEA3E0FBAA06EA3395E0F9F890006F
:101CCD0093E0FCA3E0FDA3E0FEA3E0FF125A9B907E
:101CDD000073E0FCA3E02FFFEC3E90007FF0A3EF3C
:101CED00F090008DE0FEA3E0FBAA06EA3395E0F943
:101CFD00F8900097E0FCA3E0FDA3E0FEA3E0FF1247
:101D0D005A9B900073E0FCA3E02FFFEC3E90008106
:101D1D00F0A3EFF0900093E0F8A3E0F9A3E0FAA3AD
:101D2D00E0FB900087E0FEA3E0FFEE3395E0FDFCC5
:101D3D00EB2FFFEA3EFEE93DFDE83CFC90009312DF
:101D4D0022DA900097E0F8A3E0F9A3E0FAA3E0FB14
:101D5D0090008BE0FEA3E0FFEE3395E0FDFCEB2F52
:101D6D00FFEA3EFEE93DFDE83CFC9000971222DAC9
:101D7D00900081E0FEA3E0FF90007FE0FCA3E0D3A4
:101D8D009FEC9E40179002B77401F0A37400F0A36E
:101D9D007481F07B017A00797F1256A41246B890B7
:101DAD000084E004F07006900083E004F0021CA3B0
:101DBD00900079E0FEA3E0FF900083E0FAA3E0FB42
:101DCD00C39FFFEA9EFE90008FE0FCA3E0FD122072
:101DDD0093E4FCFD9000931222DA900075E0FEA3CF
:101DED00E0FFC3EB9FFFEA9EFE90008BE0FCA3E0BB
:101DFD00FD122093E4FCFD9000971222DA90007DF5
:101E0D00E0FEA3E0FF900083E0FCA3E0D39FEC9EF7
:101E1D004003021F22900091E0FEA3E0FBAA06EA18
:101E2D003395E0F9F8A3E0FCA3E0FDA3E0FEA3E009
:101E3D00FF125A9B900077E0FCA3E02FFFEC3E9041
:101E4D00007FF0A3EFF090008DE0FEA3E0FBAA066B
:101E5D00EA3395E0F9F8900097E0FCA3E0FDA3E0EC
:101E6D00FEA3E0FF125A9B900073E0FCA3E02FFF4E
:101E7D00EC3E900081F0A3EFF0900093E0F8A3E02A
:101E8D00F9A3E0FAA3E0FB90008FE0FEA3E0FFEEE4
:101E9D003395E0FDFCEB2FFFEA3EFEE93DFDE83C0E
:101EAD00FC9000931222DA900097E0F8A3E0F9A3DA
:101EBD00E0FAA3E0FB90008BE0FEA3E0FFEE33958C
:101ECD00E0FDFCEB2FFFEA3EFEE93DFDE83CFC901A
:101EDD0000971222DA900081E0FEA3E0FF90007FD0
:101EED00E0FCA3E0D39FEC9E40179002B77401F085
:101EFD00A37400F0A37481F07B017A00797F1256F0
:101F0D00A41246B8900084E004F07006900083E0BF
:051F1D0004F0021E0AA1
:011F2200229C
:1035C700F0900212E0900200F090020AE0FAA3E005
:0135D700FBF8
:1035D8009001F6EEF0A3EFF09001FAEAF0A3EBF019
:0835E8009001F8ECF0A3EDF0F6
:1035F0009001ACE0FFA3E0900204CFF0A3EFF090C5
:1036000001FEE024E0F0A3E0F9C313FF7E00900187
:10361000F6E0FAA3E02FFFEE3ACF24FFFBEF34FFF2
:10362000FAE9FFA3E0F8A3E02FFFEE38CF24FFCFA5
:1036300034FF90027EF0A3EFF09001F6E0FEA3E0ED
:10364000FF12557C900200E060030236E89002020F
:10365000F09001FFE0FF900202E0FEC39F400302F2
:1036600037A8EF640C70179001FEE075F00CA424ED
:1036700029F582E5F03400F583E5822E801A900268
:1036800002E0FF9001FEE075F010A4249DF582E5B4
:10369000F03404F583E5822FF582E43583F583E485
:1036A00093900201F0E4900203F09001FFE0C31355
:1036B000FF900203E0C39F5026900201E030E00536
:1036C0009001FA80039001FCE0FEA3E0FF1262E4A7
:1036D000900201E0C313F0900203E004F080CB906D
:1036E0000202E004F0023651E4900202F09001FF81
:1036F000E0FF900202E0FEC39F40030237A8EF64A0
:103700000C70179001FEE075F00CA42429F582E5F9
:10371000F03400F583E5822E801A900202E0FF90DB
:1037200001FEE075F010A4249DF582E5F03404F567
:1037300083E5822FF582E43583F583E493900201DB
:10374000F0E4900203F09001FFE0C313FF90020346
:10375000E0FEC39F50499001FAE0FDA3E09001AC68
:10376000CDF0A3EDF0900201E030E024EEFF9001F7
:10377000F7E02FFF9001F6E03400FE900202E0FD3A
:103780009001F9E02DFD9001F8E03400FC125E9309
:10379000900201E0C313F0900203E004F080A790D0
:1037A0000202E004F00236ED900204E0FFA3E09094
:1037B00001ACCFF0A3EFF09001B1E024FFFB90014A
:1037C000B0E034FFFA9001B3E024FFFE9001B2E0D4
:1037D00034FF90027EF0A3CEF0E4FDFCFFFE025524
:0137E0007C6C
:104B860090026FEEF0A3EFF0A3ECF0A3EDF0A3EB31
:104B9600F0900274E0FBA3E0FAA3E0F9122019FFFB
:104BA600D3947E4003024C44EFC394205003024C3E
:104BB600449001B1E024FFFD9001B0E034FFFC9089
:104BC600026FE0FEA3E0FFD39DEE9C50719001B30F
:104BD600E024FFFB9001B2E034FFFA900271E0FCA2
:104BE600A3E0FDD39BEC9A50559001AEE0FBA3E009
:104BF6009001FCCBF0A3EBF0900274E0FBA3E0FA8B
:104C06001220199001FEF0900273E09001FFF090DF
:104C16000277E0900200F09001AC1235D390027357
:104C2600E0C313FF900270E02FF090026FE03400B3
:0F4C3600F0900275E475F0011220FA024B9722FC
:08581E009002BAEFF0A3EDF0D7
:10582600A31222E6000000019002BBE0FF14F0EF95
:105836006020A3E0F8A3E0F9A3E0FAA3E0FB90025E
:10584600BAE0FFE4FCFDFE1221709002BC1222DADF
:1058560080D69002BCE0FCA3E0FDA3E0FEA3E0FF3F
:01586600221F
:0E47E500900216EEF0A3EFF0A3ECF0A3EDF0BF
:1047F300E4900222F0900220F090021EE0FF90026B
:1048030020E0FEC39F40030248F5C3EF9E14FD7FE3
:104813000A12581EA804A905AA06AB0790021AE0BB
:10482300FCA3E0FDA3E0FEA3E0FF1221FBE47B0A6F
:10483300FAF9F81221FB900221EBF0A3E0705790F4
:10484300021EE014FF900220E0FEC39F5048A3E045
:10485300703E90021FE0F9C3138EF0A4FF9002177D
:10486300E02FFF900216E035F0FEC007900218E03B
:10487300FCA3E0FD9001ACE0FAA3E0FB9001AEE005
:10488300FFA3E09001FCCFF0A3EFF0A37420804DD1
:104893009002227401F090021FE0F9C313FFA3E01A
:1048A300FEEF8EF0A4FF900217E02FFF900216E0B8
:1048B30035F0FEC007900218E0FCA3E0FD9001ACC8
:1048C300E0FAA3E0FB9001AEE0FFA3E09001FCCF90
:1048D300F0A3EFF0900221E024309001FEF0A3E971
:1048E300F0E4A3F0D0071235D8900220E004F002E0
:0248F30047FC80
:0148F50022A0
:102CAA00900172ECF0A3EDF0A3EAF0A3EBF090012F
:062CBA0070EEF0A3EFF044
:102CC000900182EEF0A3EFF0900180E4F0A3744B4A
:102CD000F0E490017EF0A3F0900180E0FEA3E0FF1D
:102CE00090017EE0FCA3E0FDC39FEC9E4003022E1A
:102CF000CF900178E0FBA3E0FAA3E0F9122019FFDE
:102D0000900A8D75F022ED122317EC75F022A425A0
:102D100083F583E4936F6003022EBE9000011220BE
:102D200032FF90017EA3E0900A8E75F022122317E5
:102D3000EC75F022A42583F583E4936F6003022EE3
:102D4000BE900170E0FAA3E0FBFFAE02C006C00730
:102D5000A3E0FCA3E0FDEB240FFBE43AFA90017240
:102D6000E0FEA3E0240FFFE43E90027EF0A3EFF02C
:102D7000D007D00612557CE490017CF090017CE0F5
:102D8000C39420748094804003022EBEE4A3F0908C
:102D9000017DE0FFC39408748094804003022EB547
:102DA00090017BE0705AA3E0FE90017EE0FCA3E07E
:102DB000900A8F75F022122317EC75F022A4258358
:102DC000F583E5822EF582E43583F583E493FD33C4
:102DD00095E0FC7E007480A807088006CEA2E71369
:102DE000CE13D8F8FFEE5CFEEF5D4E6005900174E7
:102DF0008003900176E0FEA3E0FF1262E4022EACB5
:102E0000900174E0FFA3E09001ACCFF0A3EFF0904D
:102E1000017CE0FF90017EE0FCA3E0900A8F75F05A
:102E200022122317EC75F022A42583F583E5822F67
:102E3000F582E43583F583E493FD3395E0FC90015E
:102E40007DE0FF7E007480A807088006CEA2E7130D
:102E5000CE13D8F8FFEE5CFEEF5D4E60119001706E
:102E6000E0FEA3E0FFA3E0FCA3E0FD125E9390016F
:102E700071E004F07006900170E004F0900182E0CF
:102E8000FEA3E0FFC3900171E09FFD900170E09E02
:102E9000FCED64104C7015EEF0A3EFF0900173E0C0
:102EA00004F07011900172E004F0800990017DE05F
:102EB00004F0022D8F90017CE004F0022D7C900143
:102EC0007FE004F0700690017EE004F0022CD890C0
:102ED00001B1E024FFFB9001B0E034FFFA9001B3B0
:102EE000E024FFFE9001B2E034FF90027EF0A3CE1A
:092EF000F0E4FDFCFFFE02557C3C
:102EF900900186ECF0A3EDF0A3EAF0A3EBF09001CA
:062F090084EEF0A3EFF0DE
:102F0F00900196EEF0A3EFF0900194E4F0A3740912
:102F1F00F0E4900192F0A3F0900194E0FEA3E0FFA3
:102F2F00900192E0FCA3E0FDC39FEC9E40030231B1
:102F3F001E90018CE0FBA3E0FAA3E0F9122019FF29
:102F4F0090148375F04AED122317EC75F04AA425FF
:102F5F0083F583E4936F600302310D90000112201B
:102F6F0032FF900192A3E090148475F04A12231758
:102F7F00EC75F04AA42583F583E4936F6003023167
:102F8F000D900184E0FAA3E0FBFFAE02C006C0077C
:102F9F00A3E0FCA3E0FDEB2417FBE43AFA900186D3
:102FAF00E0FEA3E02417FFE43E90027EF0A3EFF0D3
:102FBF00D007D00612557CE4900190F0900190E07C
:102FCF00C3944874809480400302310DE4A3F090C1
:102FDF000191E0FFC3940874809480400302310490
:102FEF0090018FE0705AA3E0FE900192E0FCA3E005
:102FFF0090148575F04A122317EC75F04AA42583B7
:10300F00F583E5822EF582E43583F583E493FD3372
:10301F0095E0FC7E007480A807088006CEA2E71317
:10302F00CE13D8F8FFEE5CFEEF5D4E600590018881
:10303F00800390018AE0FEA3E0FF1262E40230FBFE
:10304F00900188E0FFA3E09001ACCFF0A3EFF090E8
:10305F000190E0FF900192E0FCA3E090148575F0E1
:10306F004A122317EC75F04AA42583F583E5822FC6
:10307F00F582E43583F583E493FD3395E0FC90010D
:10308F0091E0FF7E007480A807088006CEA2E713A8
:10309F00CE13D8F8FFEE5CFEEF5D4E601190018409
:1030AF00E0FEA3E0FFA3E0FCA3E0FD125E9390011E
:1030BF0085E004F07006900184E004F0900196E042
:1030CF00FEA3E0FFC3900185E09FFD900184E09E89
:1030DF00FCED64184C7015EEF0A3EFF0900187E053
:1030EF0004F07011900186E004F08009900191E0E6
:1030FF0004F0022FDE900190E004F0022FCB90013C
:10310F0093E004F07006900192E004F0022F2790F4
:10311F0001B1E024FFFB9001B0E034FFFA9001B35E
:10312F00E024FFFE9001B2E034FF90027EF0A3CEC8
:09313F00F0E4FDFCFFFE02557CEA
:1031480090019AECF0A3EDF0A3EAF0A3EBF0900164
:0631580098EEF0A3EFF079
:10315E009001AAEEF0A3EFF09001A8E4F0A374069C
:10316E00F0E49001A6F0A3F09001A8E0FEA3E0FF2A
:10317E009001A6E0FCA3E0FDC39FEC9E400302334A
:10318E006D9001A0E0FBA3E0FAA3E0F9122019FF75
:10319E0090171D75F082ED122317EC75F082A425A1
:1031AE0083F583E4936F600302335C900001122079
:1031BE0032FF9001A6A3E090171E75F0821223171E
:1031CE00EC75F082A42583F583E4936F60030233DC
:1031DE005C900198E0FAA3E0FBFFAE02C006C007C8
:1031EE00A3E0FCA3E0FDEB241FFBE43AFA90019A66
:1031FE00E0FEA3E0241FFFE43E90027EF0A3EFF07A
:10320E00D007D00612557CE49001A4F09001A4E002
:10321E00C3948074809480400302335CE4A3F090E6
:10322E0001A5E0FFC39408748094804003023353D9
:10323E009001A3E0705AA3E0FE9001A6E0FCA3E08B
:10324E0090171F75F082122317EC75F082A4258358
:10325E00F583E5822EF582E43583F583E493FD3321
:10326E0095E0FC7E007480A807088006CEA2E713C6
:10327E00CE13D8F8FFEE5CFEEF5D4E600590019C1C
:10328E00800390019EE0FEA3E0FF1262E402334A47
:10329E0090019CE0FFA3E09001ACCFF0A3EFF09083
:1032AE0001A4E0FF9001A6E0FCA3E090171F75F0CB
:1032BE0082122317EC75F082A42583F583E5822F05
:1032CE00F582E43583F583E493FD3395E0FC9001BC
:1032DE00A5E0FF7E007480A807088006CEA2E71343
:1032EE00CE13D8F8FFEE5CFEEF5D4E6011900198A4
:1032FE00E0FEA3E0FFA3E0FCA3E0FD125E939001CD
:10330E0099E004F07006900198E004F09001AAE0B4
:10331E00FEA3E0FFC3900199E09FFD900198E09E0F
:10332E00FCED64204C7015EEF0A3EFF090019BE0E5
:10333E0004F0701190019AE004F080099001A5E06C
:10334E0004F002322D9001A4E004F002321A900132
:10335E00A7E004F070069001A6E004F0023176902A
:10336E0001B1E024FFFB9001B0E034FFFA9001B30D
:10337E00E024FFFE9001B2E034FF90027EF0A3CE77
:09338E00F0E4FDFCFFFE02557C99
:102A1300900208ECF0A3EDF0A3EAF0A3EBF0900230
:062A230006EEF0A3EFF047
:102A2900900213EEF0A3EFF0E4A3F090020EE0FBA6
:102A3900A3E0FAA3E0F91220197003022CA990026D
:102A490015E06003022B6A900211E0FFC313FDC376
:102A59009001B1E09DFD9001B0E09400FCD390029B
:102A690007E09D900206E09C4003022CA9C3900157
:102A7900B3E09FFF9001B2E09400FED3900209E019
:102A89009F900208E09E4003022CA9122019FF7EA4
:102A990000D394807480948040089002157401F0EA
:102AA9008089EF640D4E702E900211E0FF900209AB
:102AB900E02FF0900208E03400F0900213E0FFA349
:102AC900E0900206CFF0A3EFF090020FE475F00159
:102AD9001220FA022B5D900211E0D39410748094B5
:102AE90080900206E0FEA3E0FFA3E0FCA3E0FD90D6
:102AF900020CE0FBA3E09001FCCB4024F0A3EBF037
:102B090090020EE0FBA3E0FAA3E0F912201990016C
:102B1900FEF0A374101235C7900207E02408802C38
:102B2900F0A3EBF090020EE0FBA3E0FAA3E0F912A8
:102B390020199001FEF0900211E09001FF1235C7B3
:102B4900900211E0C313FF900207E02FF0900206F4
:102B5900E03400F090020FE475F0011220FA022A25
:102B690034900211E0F9FF7E00C39001B1E09FFDAE
:102B79009001B0E09EFCD3900207E09D900206E030
:102B89009C4003022CA9C39001B3E09FFF9001B2BE
:102B9900E09EFE900208E0FCA3E0FDD39FEC9E407E
:102BA90003022CA9E4900215F0E964207042900216
:102BB90006E0FEA3E0FF90020CE0FBA3E090019E7B
:102BC900CBF0A3EBF090020EE0F9A3E0FAA3E090BA
:102BD90001A0C9F0A3EAF0A3E9F0900212E0900184
:102BE900A3F090020AE0FAA3E0FB123148022C8A12
:102BF900900211E064189002067044E0FEA3E0FF21
:102C0900A3E0FCA3E0FD90020CE0FBA3E090018AA5
:102C1900CBF0A3EBF090020EE0F9A3E0FAA3E09069
:102C2900018CC9F0A3EAF0A3E9F0900212E0900147
:102C39008FF090020AE0FAA3E0FB122EF98042E03D
:102C4900FEA3E0FFA3E0FCA3E0FD90020CE0FBA3E0
:102C5900E0900176CBF0A3EBF090020EE0F9A3E04F
:102C6900FAA3E0900178C9F0A3EAF0A3E9F0900291
:102C790012E090017BF090020AE0FAA3E0FB122C2B
:102C8900AA90020FE475F0021220FA900211E0FFF7
:102C9900900207E02FF0900206E03400F0022A3497
:012CA9002208
:10508100900223EEF0A3EFF0A3ECF0A3EDF0A3EA7E
:04509100F0A3EBF0AD
:1050950090022BE0FBA3E0FAA3E0F91261C8EF78D8
:1050A50003C333CE33CED8F9FFC39001B1E09FFFE0
:1050B5009001B0E09EC313FEEF13FF900224E02F92
:1050C500FF900223E03EFE900225E0FCA3E0FD9068
:1050D5000229E0FBA3E090020CCBF0A3EBF09002D9
:1050E5002BE0F9A3E0FAA3E090020EC9F0A3EAF0E1
:1050F500A3E9F090022EE0900211F090022FE090CB
:0E5105000212F0900227E0FAA3E0FB022A1348
:1049E100900247EEF0A3EFF090024BEBF0A3EAF058
:0B49F100A3E9F0900249ECF0A3EDF008
:1049FC00900247E0FAA3E0FFAE02C006C0072427EE
:104A0C00FBE43AFAA3E0FEA3E02427FFE43E900285
:104A1C007EF0A3EFF0D007D00612557CE490024E46
:104A2C00F0A3F090024FE025E0FF90024EE033FE41
:104A3C0090024BE0FBA3E0FAA3E0F98F828E831285
:104A4C002032900251F0E92FF9EA3EFA900001125F
:104A5C002032900250F0FEA3E0FDEDFF1262E490D4
:104A6C00024FE004F0700690024EE004F0C3900296
:104A7C004FE0944090024EE06480948640A59001F3
:104A8C00B1E024FFFB9001B0E034FFFA9001B3E0F9
:104A9C0024FFFE9001B2E034FF90027EF0A3CEF032
:084AAC00E4FDFCFFFE02557C55
:0B3397009000FFEFF0A3ECF0A3EDF0BE
:1033A200E47B107A27F9F8A3E0FCA3E0FDA3E0FE9A
:1033B200A3E0FF1221FBE47B0AFAF9F81221FBEBEE
:1033C200243090010AF0E47BE87A03F9F8900102D4
:1033D200E0FCA3E0FDA3E0FEA3E0FF1221FBE47BFF
:1033E2000AFAF9F81221FBEB243090010BF0E47B8E
:1033F20064FAF9F8900102E0FCA3E0FDA3E0FEA369
:10340200E0FF1221FBE47B0AFAF9F81221FBEB241C
:103412003090010CF0E47B0AFAF9F8900102E0FC2A
:10342200A3E0FDA3E0FEA3E0FF1221FBE47B0AFA86
:10343200F9F81221FBEB243090010DF0E47B0AFA3B
:10344200F9F8900102E0FCA3E0FDA3E0FEA3E0FF97
:103452001221FBEB243090010EF0E47B107A27F965
:10346200F8900102E0FCA3E0FDA3E0FEA3E0FF125E
:1034720021FBEC4D4E4F60099001107405F00235AE
:103482002EE47BE87A03F9F8900102E0FCA3E0FD68
:10349200A3E0FEA3E0FF1221FBEC4D4E4F6009902A
:1034A20001107404F002352EE47B64FAF9F89001FD
:1034B20002E0FCA3E0FDA3E0FEA3E0FF1221FBEC8F
:1034C2004D4E4F60089001107403F0805FE47B0A58
:1034D200FAF9F8900102E0FCA3E0FDA3E0FEA3E00C
:1034E200FF1221FBEC4D4E4F60089001107402F068
:1034F200803A900102E0FCA3E0FDA3E0FEA3E0FF1E
:10350200EC4D4E4F60089001107401F0801EE4FFF4
