:104D130044485431312020B2E2CAD4B3CCD0F2009B
:104D23005468652074656D70657261747572650091
:104D33003A2020202E20005468652068756D696430
:044D43006974790016
:104E6F00E4F594F593F592F591F596F595F5B2F580
:104E7F00B1F5B4F5B3F5CAF5C9F5CCF5CBF5E2F557
:024E8F00E1221E
:103AA700124E6F123C0E74FFFFFE1246D3900006B3
:103AB700E4F0A3741FF0A374FFF0A3744DF0A37494
:103AC70013F0A37410F0A37401F07B007AF87D1053
:103AD7007C00E4FFFE12452D74FF900013F0A3F065
:103AE700A3F0A3744DF0A37423F0A37410F0E4A320
:103AF700F07B1FFA7D38FCFFFE12291E74FF900031
:103B070013F0A3F0A3F0A3744DF0A37433F0A374E0
:103B170010F0E4A3F07B1FFA7D38FC7F78FE1229B2
:103B27001E74FF900013F0A3F0A3F0A3744DF0A34D
:103B3700743AF0A37410F0E4A3F07B1FFA7D60FCE5
:103B4700FFFE12291E74FF900013F0A3F0A3F0A349
:103B5700744DF0A37433F0A37410F0E4A3F07B1F4B
:103B6700FA7D60FC7F78FE12291E12433490008A8A
:103B7700E0FFE4FCFDFE900004122212900008749E
:103B870002F0A37410F07D387C007F887E00123F1E
:103B9700BF90008BE0FFE4FCFDFE900004122212B0
:103BA7009000087402F0A37410F07D387C007F9AAF
:103BB7007E00123FBF900098E0FFE4FCFDFE9000FE
:103BC700041222129000087402F0A37410F07D60B2
:103BD7007C007F887E00123FBF900099E0FFE4FCE5
:103BE700FDFE9000041222129000087402F0A374E4
:103BF70010F07D607C007F9A7E00123FBF7FD07EF1
:073C070007124CA6023B71FD
:104EB300E4FDFCC3ED9FEC9E5016E4FBEBC39403AF
:104EC3007480948050030B80F30DBD00010C80E3CC
:014ED30022BC
:104ED400E4FDFCC3ED9FEC9E5016E4FBEBC394058C
:104EE4007480948050030B80F30DBD00010C80E3AB
:014EF400229B
:084C6E00900000EEF0A3EFF04E
:104C7600E4A3F0A3F0900000E0FEA3E0FFC39000E1
:104C860003E09F900002E09E50157FFA7E00124ED0
:0F4C9600D4A3E004F070DE900002E004F080D6BA
:014CA50022EC
:084CA600900000EEF0A3EFF016
:104CAE00E4A3F0A3F0900000E0FEA3E0FFC39000A9
:104CBE0003E09F900002E09E50157FFA7E00124E98
:0F4CCE00D4A3E004F070DE900002E004F080D682
:014CDD0022B4
:104EF500E4FDFCC3ED9FEC9E5016E4FBEBC394016F
:104F05007480948050030B80F30DBD00010C80E389
:014F15002279
:0451010000000000AA
:0A4BB6004201120000420114FFFF4B
:0F508800C2E8C2C28FA0AF058F80D2C2D2E82289
:104F8B00C2E8C2C47F017E00124EF5AFA0EFFEADAA
:074F9B0080EDFFD2C4D2E853
:014FA20022EC
:0B50B100AD07AC06C2E9ECFF0250881E
:055058001250B1E4FF5D
:0B505D00AD07AC06D2E9ECFF02508862
:0550F700D2E9024F8B1D
:0B50BC00AD07AC06D2E9ECFF02508803
:104F1600AA07ED54FC75F008A4FDEA54F845F0FE26
:0F4F2600EDFFEB54F8131313541FFDEF4DFF2253
:10475400D2E9C2E8C2C47F017E00124EF5AFA09038
:1047640001B6E4F0A3EFF0E0FFAD80ED9001B6CF29
:10477400F0A3EFF0D2C4C2C47F017E00124EF5AFA5
:10478400A09001B6E4F0A3EFF0E0FFAD80ED90015E
:10479400B6CFF0A3EFF0D2C4C2C47F017E00124EA4
:1047A400F5AFA0AD07EDAD80FCD2C4ECFB7A007C84
:1047B400009001B7E0FD9001B6E0FF7E00EEF0A3AB
:0747C400EFF0D2E8024F16EE
:0E509700AB05AA041250B1AE02AF0302505D89
:104B74009001A1EBF0A3EAF0A3E9F01250B175A003
:104B8400FF7580FF9001A474FFF5F012209545F0A5
:104B940060191250F79001A1E0FBA3E475F0011233
:104BA4002095A9F0FAEF12203980D975A0FF7580FD
:024BB400FF22DE
:0B50C70090011DE0FEA3E0FF0250B1CD
:0B50D20090011FE0FEA3E0FF0250B1C0
:0846D300900000EEF0A3EFF0EF
:1046DB00900117E024FFFB900116E034FFFA9001E4
:1046EB0019E024FFFE900118E034FF900037F0A38F
:1046FB00CEF0E4FDFCFFFE1248AEE4900002F0A306
:10470B00F0900116E0FEA3E0FFC3900003E09F9042
:10471B000002E09E5032E4FBFAD3900119E09B902B
:10472B000118E09A4012900000E0FEA3E0FF125047
:10473B00BC0BBB00010A80E1900003E004F070C1E8
:08474B00900002E004F080B9C7
:014753002243
:104DAE00AB07AA068D828C83C006C007AE83AF8286
:104DBE00900037EEF0A3EFF0D007D0061248AE9079
:0A4DCE000112E0FEA3E0FF0250BC5A
:084AEC009001B8EEF0A3EFF019
:104AF400D3900117E09F900116E09E400DD39001E2
:104B040019E09D900118E09C5004E4FEFF229001FE
:104B1400B8E0FEA3E0FF124F351250D275A0FF7526
:0B4B240080FF12475475A0FF7580FF52
:014B2F002263
:104F72007F327E00124CA6C2EA7F327E00124CA61D
:094F8200D2EA7F327E00024CA647
:103C0E00124F727FF77E001250B17FA912505D7F66
:103C1E005112505D7F2C12505D7F8212505D7FC01D
:103C2E001250B17F1112505D7F0912505D7FC1128B
:103C3E0050B17F4112505D7FC51250587F0A12500D
:103C4E005D7F8012505D7FB11250B17FB012505D1A
:103C5E007F1112505D7FB41250B17F0212505D7F02
:103C6E00B61250B17F0212505D7F2212505D7FB7A7
:103C7E001250B17FC612505D7FBE1250587F041293
:103C8E00505D7FE91250587F361250B17F081250A6
:103C9E005D7F3A1250B17F5512505D7FE012505841
:103CAE007F0712505D7F1012505D7F0912505D7FAD
:103CBE001712505D7F0B12505D7F4112505D7F8950
:103CCE0012505D7F4B12505D7F0A12505D7F0C12B9
:103CDE00505D7F0E12505D7F1812505D7F1B12508B
:103CEE005D7F0F12505D7FE11250587F1712505DAD
:103CFE007F1A12505D7F0412505D7F0E12505D7F51
:103D0E000612505D7F2F12505D7F4512505D7F432E
:103D1E0012505D7F0212505D7F0A12505D7F0912B4
:103D2E00505D7F3212505D7F3612505D7F0F125004
:103D3E005D7F111250B17F78124CA67F297E001242
:073D4E0050B17F0102448C1B
:1048AE00900031EEF0A3EFF0A3ECF0A3EDF0900149
:1048BE0021E0FEA3E0FF1250B1900031E0FF7E0038
:1048CE0012505DA3E0FF12505DEAFF12505DAF0380
:1048DE007E0012505D900123E0FEA3E0FF1250B166
:1048EE00900033E0FF7E0012505DA3E0FF12505D9A
:1048FE00900037E0FF12505DA3E0FF12505D0250B2
:01490E00C7E1
:104F3500AB07AA068D828C83C006C007AE83AF82FD
:0F4F4500900037EEF0A3EFF0D007D0060248AE91
:10448C00900121E4F0A3742AF0A3E4F0A3742BF0C0
:10449C0090011DE4F0A3742CF0A3E4F0A3742EF0AF
:1044AC00EF14602414603B14605324037072E49086
:1044BC00011CF090011604F0A37440F0A37401F0F9
:1044CC00A374E0F07D08804F90011C7401F0900102
:1044DC0016F0A374E0F0A37401F0A37440F07D68AF
:1044EC00803590011C7402F090011614F0A37440F6
:1044FC00F0A37401F0A374E0F07DC8801A90011C45
:10450C007403F09001167401F0A374E0F0A374012D
:10451C00F0A37440F07DA87C007F367E001250978B
:01452C00226C
:104D470078AC7C017D017BFF7A5179017E007F047D
:104D5700121FCD7B017A0179AC9001A4E4F0A37412
:104D670004F07FD37E00124B749001AEE0FEA3E007
:034D7700FDEDFF50
:014D7A002216
:1050360049443A25730D0A0045525200000000000B
:015046000069
:104BC0004A01568150815881608168817041015548
:014BD00000E4
:0C50A500C2B2124CA643B10453B2FB226D
:104C35009001C4EFF0D2B2D2EB7F147E00124CA6E5
:104C4500C2EBC2B27F147E00124CA69001C4E06490
:104C5500287003D38001C392B27F147E00124CA644
:094C6500D2EB7F147E00024CA684
:10502400C2EB7F0A7E00124CA6D2EB7F0A7E0002FE
:025034004CA688
:0650EB001250FC025024EB
:084E4B009001BAEEF0A3EFF0B4
:104E53001250107FBA124AA59001BAE0FF124AA578
:0B4E63009001BAA3E0FF124AA57F01F6
:014E6E002221
:0B4DD8009001B0EEF0A3EFF0A3EDF0AF
:104DE3001250109001B0E0FEA3E0FF124E4B900171
:0B4DF300B2E0FF124AA5124FBA7F0188
:014DFE002292
:08464B007B017D017F4E7E81A1
:10465300900187EEF0A3EFF0A3EDF0A3EBF0A3EA54
:04466300F0A3E9F0E7
:10466700E4A3F0125010900187E0FEA3E0FF124E82
:104677004B1250107F147E00124EF57FBB124AA5D5
:10468700E490018EF0900189E0FF90018EE0FEC377
:104697009F502EEF14B50604E4FF80027F011249F4
:1046A7000F90018AE0FBA3E0FAA3E0F990018EE006
:1046B700F582758300EF12204B90018EE004F080A5
:0B46C700C4124FBA90018D7401F0FF87
:0146D20022C5
:1041A30078FE7C007D017BFF7A5079427E007F049C
:1041B300121FCD1250EB7FBA124C357F327E0012A4
:1041C30050A57B017A0079FE7D047F407E811246F3
:1041D300539000FEE06439900064704B74FFF0A3C9
:1041E3007450F0A37436F0A37401F0A37400F0A329
:1041F30074FEF07B017A017902122306900117E025
:1042030024C8FF900116E034FFFE9001837401F08F
:10421300A37401F0A37402F0A37401F07B10E4FD16
:10422300FC1242757F012274FFF0A37450F0A37453
:1042330036F0A37401F0A37400F0A374FEF07B01C5
:104243007A017902122306900117E024C8FF900136
:1042530016E034FFFE90018374FFF0A37450F0A3C3
:10426300743EF0A37401F07B10E4FDFC1242757FF1
:01427300004A
:014274002227
:104E910078C57C017D017BFF7A5079467E007F01D8
:104EA100121FCD7A0179C512464B9001C5E0540F0E
:014EB100FF01
:014EB20022DD
:10260600E4900179F0A3F090017DF0900155E0048B
:10261600F0E0FF75F00A84E5F0600DC3EF940A74EC
:1026260080948040030228DD7A01797D12464B9022
:10263600017DE030E718540FC394067480948050EF
:102646000DE490017BF0FD7F4E7E81124DD8900106
:102656007DE0540F70030228DDC3940674809480D5
:1026660040030228DDE0540FFFF874FF088002C320
:1026760033D8FCFF90017BF09000FDE090017CF0E8
:10268600EFF444C09000FDF09000E9E0FFA3E09075
:1026960000F1CFF0A3EFF0A3E0FFA3E09000FBCFA3
:1026A600F0A3EFF0E4900179F0900179E0FFC39494
:1026B6000574809480400302284C7E007401A807AC
:1026C600088005C333CE33CED8F9FF9000FDE0FD78
:1026D600EF5D7003022843900179E025E02456F56A
:1026E60082E43401F583E0FEA3E0FF7B017A017901
:1026F600757D0412465390011CE0FD7037900176FB
:10270600E0FE900175E07A002400FFEA3EFE9001AB
:1027160079E0FC25E024E9F582E43400F583EEF067
:10272600A3EFF0900178E0FE900177E02400FFEA45
:102736003E0227DCED64017046900176E0FE9001D2
:1027460075E07C002400FFEC3EFEC3900119E09F7B
:10275600FF900118E09EFE900179E0FD25E024F34C
:10276600F582E43400F583EEF0A3EFF0900178E013
:10277600FE900177E07A002400FFEA3E02283190BD
:10278600011CE0FD6402705B900176E0FE9001752D
:10279600E07A002400FFEA3EFEC3900117E09FFFA7
:1027A600900116E09EFE900179E0FC25E024E9F513
:1027B60082E43400F583EEF0A3EFF0900178E0FEBA
:1027C600900177E02400FFEA3EFEC3900119E09FE6
:1027D600FF900118E09EFEEC25E024F3F582E43438
:1027E600008053ED64037055900176E0FE9001750C
:1027F600E07C002400FFEC3EFE900179E0FD25E040
:1028060024F3F582E43400F583EEF0A3EFF09001B3
:1028160078E0FE900177E07A002400FFEA3EFEC3EE
:10282600900117E09FFF900116E09EFEED25E02443
:10283600E9F582E43400F583EEF0A3EFF090017938
:10284600E004F00226AF90017A7401F0900116E0E0
:10285600FEA3E0FFD39000EAE09F9000E9E09E50DF
:1028660014900118E0FEA3E0FF9000F4E09F9000B2
:10287600F3E09E405D90017DE0540FD39401748097
:10288600948040209000EBE0FFA3E09000E9CFF0B9
:10289600A3EFF09000F5E0FFA3E09000F3CFF0A3E4
:1028A600EFF0802E9000F1E0FFA3E09000E9CFF07A
:1028B600A3EFF09000FBE0FFA3E09000F3CFF0A3BE
:1028C600EFF090017D7480F090017CE09000FDF0C7
:1028D6008005E4900155F090017DE0548F6480708E
:1028E600219000FDE030E705547FF0801574FF90DD
:1028F60000E9F0A3F09000F3F0A3F09000FDE0549F
:10290600E0F0900155E0D394F07480948040037415
:072916000AF090017AE0FFD6
:01291D002297
:0750DD007F017E00024EF589
:044FE600C2EDE4FF35
:104FEA00EF6401700543CB10800353CBEF53CCEF32
:014FFA002294
:0550FC00D2EDD2EC2210
:10501000E4FF124FEAD2ECD2ED1250DDC2EC125096
:04502000DDC2ED22DE
:104FBA00E4FF124FEAC2EDC2EC1250DDD2ED1250FC
:064FCA00DDD2EC0250DD17
:104CDE00E49001C6F07F01124FEAD2EC1250DDD201
:104CEE00ED1250DD30EC1A9001C6E004F0E0D394E2
:104CFE00FA7480948040ED124FBAE4FF124FEA0F1F
:044D0E0022124FE638
:014D1200227E
:10506800124FE6C2EC1250DDD2ED1250DDC2ED2235
:10507800124FE6D2EC1250DDD2ED1250DDC2ED2215
:054AA5009001BCEFF0E0
:104AAA00E4FF124FEAC2EDE4A3F09001BDE0C39423
:104ABA00087480948050289001BCE0FF5480FEC4A2
:104ACA00131313540124FF92ECEF25E0F0D2ED12F8
:104ADA0050DDC2ED1250DD9001BDE004F080CB0242
:024AEA004CDEA0
:05490F009001B3EFF080
:10491400E49001B5F07F01124FEAE49001B4F09005
:1049240001B4E0C39408748094805021C2ED7F01E7
:104934007E00124ED4D2ED9001B5E0FF25E0F030B8
:10494400EC03E004F09001B4E004F080D29001B3F1
:10495400E070051250788003125068E4FF124FEAA9
:054964009001B5E0FF29
:01496900222B
:104BD1005500E90000000000000000000000000096
:084BE1000000000000000000CC
:0650F1001241A37F002222
:0351050002260679
:10504700EF64017006759140F59222E4F591F592AF
:015057002236
:104FA300D296D2957F027E00124ED4C2967F027EA5
:074FB30000124ED4C295224A
:104FD000C295C2967F027E00124ED4D295D2967FA1
:064FE000027E00024ED427
:104BF600E49001C7F07F01125047D2967E00124E14
:104C0600D4D2957F017E00124ED430961A9001C7F9
:104C1600E004F0E0D394FA7480948040ED124FD013
:0E4C2600E4FF1250470F22C295E4FF125047E0
:014C3400225D
:0549C1009001BEEFF0C3
:1049C600E4A3F09001BFE0FFC39408748094805084
:1049D600389001BEE0FEA807088002C333D8FC3039
:1049E600E704D2968002C2967F017E00124ED4D290
:1049F600957F017E00124ED4C2957F017E00124E35
:094A0600D49001BFE004F080BA75
:014A0F002284
:104A1000E49001C0F07F01125047E4A3F09001C17F
:104A2000E0C39408748094805027C2957F017E0073
:104A3000124ED4D2959001C0E025E0F0309603E00C
:104A400004F07F017E00124ED49001C1E004F0809A
:0B4A5000CCE4FF1250479001C0E0FFD3
:014A5B002238
:104F5400C295300904C2968002D2967F027E001266
:0E4F64004ED4D2957F027E00124ED4C295220A
:0C4BE9004100890045009A5253323332DB
:0750E4007F057E00024EB3C0
:10484100E4900000F0900000E0C39408748094802C
:10485100505A9000927402F020910A900092E0FF69
:1048610004F0EF70F31250E41250E41250E4E490BB
:104871000097F030910204F09000927402F03091B0
:104881000A900092E0FF04F0EF70F3900092E06470
:104891000160199000A2E025E0FFF0900097E04F41
:0C48A1009000A2F0900000E004F080996C
:0148AD0022E8
:10433400C2917F127E00124C6ED2911250E4125040
:10434400E4D2913091030243E19000927402F02090
:10435400910A900092E0FF04F0EF70F390009274E1
:1043640002F030910A900092E0FF04F0EF70F31233
:1043740048419000A2E090009FF01248419000A2B2
:10438400E09000A0F01248419000A2E090008CF070
:104394001248419000A2E090008DF0124841900034
:1043A400A2E0FF900096F0D29190008DE0FE900084
:1043B4008CE0FD2EFC90009FE0FB2CFCA3E0FA2C8B
:1043C400900097F0B50716A3EBF0A3EAF090008AEB
:0E43D400EDF0A3EEF0900096E0900094F02241
:1000030000000000000000000000000000000404E5
:10001300040404040004000000140A0A00000000A1
:1000230000000000000014143F140A3F0A0A0000F5
:1000330000041E1505060C14150F0400000012150C
:100043000D0A142C2A1200000000040A0A1E1515BA
:100053000936000000020201000000000000000059
:1000630000201008080808080810200000020408EF
:10007300080808080804020000000004150E0E1505
:100083000400000000000404041F04040400000032
:100093000000000000000000000202010000000058
:1000A300001F00000000000000000000000000002E
:1000B3000002000000100808080404020202010004
:1000C30000000E1111111111110E000000000406A1
:1000D30004040404040E000000000E1111080402BD
:1000E300011F000000000E11100C1010110E000073
:1000F3000000080C0A0A091E0818000000001F016E
:10010300010F1010110E000000000E09010F111154
:10011300110E000000001F09080404040404000079
:1001230000000E11110E1111110E000000000E112E
:1001330011111E10120E0000000000000400000048
:10014300000400000000000000040000000404009C
:100153000020100804020408102000000000000022
:100163001F00001F000000000002040810201008F8
:100173000402000000000E11110804040004000032
:1001830000000E111915151D011E000000000404C6
:100193000C0A0A1E1233000000000F12120E121274
:1001A300120F000000001E1101010101110E0000D9
:1001B30000000F1212121212120F000000001F1281
:1001C3000A0E0A02121F000000001F120A0E0A0282
:1001D3000207000000001C1201013911120C00007B
:1001E30000003312121E12121233000000001F040B
:1001F30004040404041F000000003E080808080863
:1002030008090700000037120A060A0A123700001D
:100213000000070202020202223F000000001B1B33
:100223001B1B15151515000000003B1216161A1A94
:100233001217000000000E1111111111110E000010
:1002430000000F12120E02020207000000000E113E
:1002530011111117190E180000000F12120E0A12B5
:100263001237000000001E1101060810110F0000D4
:1002730000001F1504040404040E000000003312E0
:1002830012121212120C000000003312120A0A0C8E
:100293000404000000001515150E0A0A0A0A0000DE
:1002A30000001B0A0A04040A0A1B000000001B0AC0
:1002B3000A040404040E000000001F0908040402D9
:1002C300121F0000001C04040404040404041C00A2
:1002D300000202020404080808100000000E0808C7
:1002E3000808080808080E0000040A0000000000BF
:1002F3000000000000000000000000000000003FBC
:1003030000040000000000000000000000000000E6
:10031300000C121C123C000000000302020E121219
:10032300120E000000000000001C1202021C00005C
:1003330000001810101C1212123C000000000000F4
:10034300000C121E021C000000003804041E0404EA
:10035300041E000000000000003C120C021E221CC0
:1003630000000302020E1212123700000000040004
:1003730000060404040E000000000800000C080836
:100383000808080700000302023A0A0E12370000A9
:100393000000070404040404041F0000000000001C
:1003A300000F15151515000000000000000F1212B4
:1003B3001237000000000000000C1212120C0000A3
:1003C30000000000000F1212120E020700000000CE
:1003D300001C1212121C103800000000001B060241
:1003E3000207000000000000001E020C101E0000A7
:1003F30000000004040E04040418000000000000C0
:10040300001B1212123C0000000000000037120A09
:100413000C040000000000000015150E0A0A00007D
:1004230000000000001B0A040A1B0000000000007B
:100433000037120A0C04040300000000001E080425
:10044300041E00000018080808040808080818001B
:10045300080808080808080808080808000604042B
:100463000408040404040600022518000000000028
:100473000000000000000000000000000000000079
:100483000000000000000008080808080808000031
:100493001818000000486C2412000000000000003F
:1004A300000000000000002424247F1212127F1297
:1004B300121200000000081C2A2A0A0C1828282AF5
:1004C3002A1C080800000022251515152A58545423
:1004D300542200000000000C1212120A7625291182
:1004E300916E0000000606040300000000000000F7
:1004F3000000000000402010100808080808081039
:1005030010204000000204080810101010101008FA
:10051300080402000000000008086B1C1C6B08089C
:100523000000000000000000080808087F08080811
:1005330008000000000000000000000000000000B0
:10054300060604030000000000000000FE00000097
:100553000000000000000000000000000000000098
:100563000606000000008040402020101008080408
:100573000402020000000018244242424242424266
:1005830024180000000000080E08080808080808DE
:10059300083E00000000003C4242422020100804B4
:1005A300427E00000000003C4242201820404042AE
:1005B300221C0000000000203028242422227E2058
:1005C300207800000000007E0202021A264040420A
:1005D300221C0000000000382402021A2642424274
:1005E300241800000000007E2222101008080808CA
:1005F300080800000000003C424242241824424202
:10060300423C00000000001824424242645840402B
:10061300241C000000000000000018180000000067
:10062300181800000000000000000008000000008F
:100633000008080400000040201008040204081009
:10064300204000000000000000007F0000007F0049
:1006530000000000000000020408102040201008E1
:10066300040200000000003C4242464020101000FB
:10067300181800000000001C225A555555552D42EC
:10068300221C00000000000808181414243C224215
:1006930042E700000000001F2222221E22424242A3
:1006A300221F00000000007C4242010101010142BF
:1006B300221C00000000001F2242424242424242EA
:1006C300221F00000000003F4212121E12120242BB
:1006D300423F00000000003F4212121E12120202AB
:1006E300020700000000003C2222010101712122C7
:1006F300221C0000000000E7424242427E42424286
:1007030042E700000000003E08080808080808083F
:10071300083E00000000007C101010101010101094
:100723001010110F0000007722120A0E0A12122273
:100733002277000000000007020202020202020206
:10074300427F000000000077363636362A2A2A2AEE
:100753002A6B0000000000E346464A4A52525262A6
:10076300624700000000001C2241414141414141D8
:10077300221C00000000003F424242423E020202AD
:10078300020700000000001C2241414141414D533A
:10079300321C60000000003F4242423E12122222FD
:1007A30042C700000000007C42420204182040427D
:1007B300423E00000000007F4908080808080808B6
:1007C300081C0000000000E742424242424242420B
:1007D300423C0000000000E7424222242414141883
:1007E300080800000000006B494949495555362265
:1007F30022220000000000E74224241818182424B1
:1008030042E70000000000772222141408080808B9
:10081300081C00000000007E212010100804044280
:10082300423F00000078080808080808080808087C
:1008330008087800000002020404080808101020C9
:1008430020204040001E1010101010101010101027
:1008530010101E00003844000000000000000000DB
:100863000000000000000000000000000000000085
:10087300000000FF00060800000000000000000068
:1008830000000000000000000000003C42784442E9
:1008930042FC0000000000030202021A2642424208
:1008A300261A000000000000000000384402020283
:1008B3004438000000000060404040784442424217
:1008C30064D80000000000000000003C427E0202E9
:1008D300423C0000000000F08808087E0808080871
:1008E300083E0000000000000000007C22221C02E1
:1008F3003C42423C000000030202023A46424242AA
:1009030042E700000000000C0C00000E0808080875
:10091300083E000000000030300000382020202076
:100923002020221E0000000302020272120A161285
:10093300227700000000000E0808080808080808CD
:10094300083E0000000000000000007F9292929297
:1009530092B70000000000000000003B4642424204
:1009630042E70000000000000000003C4242424217
:10097300423C0000000000000000001B26424242EF
:10098300221E020700000000000000784442424299
:10099300447840E000000000000000774C040404A9
:1009A300041F0000000000000000007C42023C40E5
:1009B300423E0000000000000008083E0808080846
:1009C3000830000000000000000000634242424281
:1009D30062DC000000000000000000E74224241451
:1009E3000808000000000000000000EB49495555CD
:1009F30022220000000000000000007624181818CE
:100A0300246E000000000000000000E742242414CC
:100A130018080807000000000000007E22100808E4
:100A2300447E000000C02020202020102020202011
:100A33002020C000101010101010101010101010F3
:100A43001010101000060808080808100808080805
:100A5300080806000C32C20000000000000000007D
:100A630000000000C9EE000027FC140414A4811048
:100A730042084040104017FC2040E0E0215022484B
:100A83002C4620400040DBDA1104112411241124E8
:100A93001124FD24112411241124112411241D24B3
:100AA300E124422402040404CAD00200010000002D
:100AB3007FFC0100010001003FF821082108210803
:100AC30021082128211001000100C8AB000000000B
:100AD300018002400430180860061FF9010001007C
:100AE30001003FF80100010001007FFEB6AF0000E6
:100AF300000000203E20007C002200227F221022E2
:100B0300102212221222224223423D82009CB5E788
:100B13000000010001001FF0610C410441047FFC4F
:100B23004104410441047FFC01000102010201FC74
:100B3300D7D3000000003FF80010006000800100E0
:100B430000807FFE0040004000200020002018406D
:100B53000780BCBC00000000104013FE10407C4026
:100B6300104013FC1104190830885050106010D045
:100B730013087C06CAF500000100013001080100DA
:100B83007FFE018003400540052009101108210460
:100B9300410201000100D3D00000010002007FFEEA
:100BA300040008001FFC700490041FFC10041004D0
:100BB3001FFC10041004103CCFDE000000007BFC7F
:100BC3004A044A044BFC52044A044BFC4A404A443C
:100BD3007A2842304210420843C6B9AB00000000F5
:100BE30004400420081010101008210442020220BF
:100BF30004100810080810081FFC0004CBBE0000F6
:100C030000003FFC000400043FF400043FE4202400
:100C130020242024202420241FC40004007CBBB6ED
:100C23000000000000807EFC02A202A222A4152480
:100C330014240C300C300C481248228442840102E4
:100C4300D3AD000000002398246414440444644496
:100C5300144414441444144415C4125C1040284032
:100C630047FEC4FA00000000120013FE24222522CE
:100C7300652862242224242020E0050814842444C7
:100C8300241A47F2B4BF00000020102013FE2020D6
:100C930026244A247A241224222423FC7C200022A2
:100CA30004227822003CC9AB0000000004000FF0CE
:100CB300102020207FFC20842084208420843FF87F
:100CC3002000200220021FFECCEE00000000204086
:100CD30023FE204079FC220423FC220423FC22046B
:100CE30023FC3A0465FA01980204B3E4000001000E
:100CF30001007FFE02200410040808043FFC0442A4
:100D030004400440044208421042607EBED8000002
:100D13000000207E3E804880488048FE48827F82D3
:100D230008820C8214FA12842280218040FED0CEE5
:100D3300000000007F842208223022C02202220405
:100D43007FC8223022C222022204220822304040DD
:100D5300BBAD000000007FFE00000FF0111011106A
:100D6300111051125FF25112511251124FF24002FF
:100D73007FFCD4B2000000007FFE47E24812481215
:100D830047E24FF2501250125112511242924472E2
:100D9300580A3FFCC8FD000000007FFC0000000073
:100DA300000000003FF80000000000000000000009
:100DB300FFFE00000000BDC7080008001FE0202060
:100DC3004040BFF8210821083FF8210821083FF8D7
:100DD3002108410841288010CDBC000000003FFEDF
:100DE300440247F24C225362408243625E1A4182BC
:100DF3004062430240C240223FFCC6AC00000040B8
:100E03002040204020403FFE2000200020003FE003
:100E1300201020102010201040104010CFD40000CC
:100E230000003FFC200420043FFC200420041FF8A2
:100E330024441448144814480C5004407FFECABE8E
:100E4300000000003FFC0000000000007FFE008067
:100E530008900888108810842084208240820780AC
:100E6300B2CB0000002008207FFE002000783F88DE
:100E73001108089009207FFE018003400D30310CDA
:100E83004002B5A500000010081004203FF821041B
:100E930021043FFC210421043FF801007FFE0100EF
:100EA30001000100D6D000000100010001003FFC59
:100EB3002104210421042104210421043FFC010015
:100EC300010001000100D3A20000000008207FFE02
:100ED3000820092001003FF82108210821081FF4F8
:100EE300014002200C10700ECEC40000010001006E
:100EF30000803F7C081008100410042002200240E8
:100F03000180018002601C18E006D7DB00000000AE
:100F1300102011FE2202220249FC5800300013FE69
:100F23002528792401240D24722202A2BACF0000BD
:100F33000000018002400430180860061FF800001A
:100F43001FF8200420042004200420041FF8C1C13A
:100F53000000010001007FFE00003FF820083FF879
:100F63003FF8400647C24824082008221022603E6A
:100F7300B6C80000000000803FFE44105FFC441030
:100F8300441043F040005FF84408423041C04360DE
:100F9300BC1EB2E20000000067C2145205520552A3
:100FA300C55225520552055215521752228222422A
:100FB3004442483ECAD4000000002014101417FE17
:100FC30000120010601013F0109010901090149203
:100FD30014EA1F0A0006B3CC0000000019FE7202D7
:100FE300120212027DFC18001BFE3420502053FE17
:100FF30010201020102013FED0F20000000000800B
:101003003FFE400047FC4208413040C05FFE404283
:1010130040424044404840404440B5F7000000008F
:1010230023FE122202FA0222E22212FE1272128A14
:10103300128A128A16BA1A421202040EB9E2000088
:101043000100010411080908091009207FFE04406A
:10105300044004400440084208421042607CB0E669
:101063000000000048FE4900490049007EFE41821D
:101073004144794445284528451045284644038280
:10108300C8A800001000100013FC7D04110419040B
:10109300188434885048505010201050108813047E
:1010A3001402CBF9000000003F7C204020403E406A
:1010B300227E2244224422443E842084208440848D
:1010C30041044204C6C100003FF8200820083FF84D
:1010D300241022202FF8222022203FFC222042200D
:1010E300442084200820C4BB04407FFC04401FF03C
:1010F30010101FF010101FF00400FFFE11103FF836
:10110300D116115011200100D0FD2080108010FE57
:101113000100FE0021FC20243C2424A024A024BCA4
:1011230024A024A04560553E8A00D7AA2020202071
:101133002020FDFC4020504093FEFC40108011FC19
:101143001C04F0885050102010101010BFAA00008B
:101153007FFC08200820082008200820FFFE082024
:101163000820082008201020102020204020D4B47C
:10117300000027FE1420144085FC450445FC15049B
:1011830015FC2524E42024A829242A2230A0004089
:10119300D2BA0080204017FE11208120423C4244F5
:1011A300166412942348E2482230222022502288D7
:1011B3000306BEA70FE0082008200FE00820082040
:1011C3000FE000007EFC428442847EFC4284428421
:1011D3007EFC4284CDF800007FFC400440044214AE
:1011E30052944A54442444244A544A545294610421
:1011F300400440144008D5BE1020082008207E205B
:10120300003E04204420442025FC290429040F0423
:10121300F104410401FC0104B0B41040102010207B
:1012230013FEFA02144410401BFE3088D0881108C4
:1012330010D01020105050882304BCFC2010201024
:101243003B7C211441FE7A14A27C2710F97C2510E3
:1012530025FE22102A10350028FE0000D0A31040DE
:101263001020102011FEFC00108831043A0254882B
:101273005088905010501020105010881306D7BC7F
:1012830001404120212023FE022016201BFC1220B6
:10129300222023FCE2202220222023FE220002001F
:1012A300B4A520202020782049FC91247D245524B6
:1012B30055247DFC552454207C28542457FE450294
:1012C3008C00C3FE1110111017FC1110FC0013F851
:1012D300120817F81A0833F8D04017FC10A01110A1
:1012E30052082406B6C10020202011FC1020002043
:1012F30003FEF002109410501110109013FE1428E6
:10130300184410820302BACD04000E007800087C52
:101313000844FF44084418441C442A442A444844CB
:10132300887C084408000800D1D5100008FE7F100F
:101333002220147C7F444454485452544454485407
:1013430051544228442488423082D6B5084008408C
:101353000FFC1040104033F8320853F8920813F88A
:10136300120813F8120812081FFE1000C8DD02004D
:1013730001007FFE400288241110228804400820C7
:101383003018DFF61010101010101FF01010D6A731
:101393000100010001007FFC0100010001003FF09A
:1013A3001010082004400280010006C01830E00E2F
:1013B300B3D610201020102011FCFC20102013FEA7
:1013C3001008180833FED008108810481008502859
:1013D3002010B5E302000200020003FC0200020039
:1013E3003FF02010201020103FF0000024882244FA
:1013F30042448004D1A722081108111000207FFE67
:10140300400280041FE000400180FFFE0100010054
:10141300010005000200F3BB0FE010201FC00040D5
:10142300FFFE0C1073200DC072B00C8EF3207CF8FD
:1014330054A87CF81224FEFCBFC608101D10F090BF
:1014430010901010FD10109038903410501E53F06F
:1014530090101010101010101010C9EE00000000B2
:1014630000001000000800080C7FFC04401001C8B5
:10147300A002186042301832231812C3001403006C
:1014830004030C047FF0080F80080B4078136018E6
:10149300332018631818831C19030818030000036A
:1014A30000000000DBDA00000000000004100C0460
:1014B300180C04108C04108C04108C04108C04D0B1
:1014C3008C3F108C04108C04108C04108C04108C32
:1014D30004108C04108C05F08C0E208C78208C204A
:1014E300408C00808C01000C02000C000000CAD06C
:1014F3000000000000000030000018000018080081
:10150300001C1FFFE000180000182007FFF004185C
:10151300200418200418200418200418200418207C
:101523000418200418200418200418E004184000AC
:101533001800001800000000D6D0000000000000D2
:101543000000000000000018000018000018000050
:1015530018003FFFFE301806301806301806301802
:10156300063018063FFFFE3018060018000018006A
:101573000018000018000018000000000000000020
:101583000000CEC40000000000000000000038008E
:10159300001C00000600FFFFFF06003006003003BA
:1015A30000600300600180C000C18000E3000036DA
:1015B30000001C0000770003C1E01E003C60000730
:1015C300000000000000000000000000B2E2000084
:1015D3000000000000000000000040000321FF3372
:1015E300398333118333019B33C19B33719B33198C
:1015F3009B33019B33019B33119B3319B33330303E
:1016030033306C0330C6036383032E01BE00000036
:10161300000000000000CAD4000000000000000029
:10162300000000004000D83000CE1800C21C00C0EB
:1016330001FFFF0000C0F800C01800C019FFC01868
:1016430018401818601918601B18611E18311C1FE8
:10165300B139F01910000F00000000000000000075
:10166300D1A70000000060E00630F00738E003BDBA
:10167300C0039D801B9B8C1FFFFE38001E3800D8C3
:101683007FFFF02203E0000780001E00001C1C7F88
:10169300FFFE201C00001C00001C00001C0001FCBD
:1016A3000000F800003800000000F3BB0000000158
:1016B300C18001FFC003818003FF8003038C7FFF90
:1016C300FE20F0E007FBE03EFF0007FFC03CFFFE0B
:1016D30007CE7E3F7FCC03BDC83FFFFC3B7DDC3B99
:1016E3007DDC3FFFFC3BEDF80371DC7FFFFE3C3FFD
:1016F3000E000000D7D60000000000060000000323
:1017030000000000C0000001C0C0000107C00001CC
:10171300FF00021FFE0007F01C0007C070000F004F
:10172300E0000E03F0001C0FF0003C0F70003C00C3
:10173300E0001800C0000000C0000000C00000006E
:10174300600000002000000037000001FF00007F60
:10175300F80007F830001F8030000080300000C020
:101763003000006060000018E000000FC0000006B9
:10177300000000000000CCE50000000000000000B5
:10178300000000C0000000E0002001B800703FF836
:101793000061FFC000C3030001C60600038C0600FE
:1017A30003080C0006080C000E18183F1E101BF34C
:1017B3001F903F0700803C1C0190707C019060FEED
:1017C30001A0C3F801A00FD803A0081803600018F4
:1017D3000340001803C0001803800018030000181A
:1017E300000000180000001000000030000000306E
:1017F3000000000000000000B2E200000000000052
:1018030000000000000000000000020C1008071F89
:10181300F80403BFF00201BC300303EC3003015CA6
:10182300600300D8600300D860038098620361B846
:10183300430771B14306313243063376C3063A6434
:10184300C7063EECC0063E78C0063C3040067C70BE
:10185300000678E060067BFFF006F7C00006E400B0
:10186300000640000006000000060000007C0000A7
:101873008FF000007C0000000000CAD400000000CC
:10188300000000000000000000003F0000007F8017
:1018930000000180000000C0000000C0000000CE76
:1018A300038000CFFFC000DD41800FFE0007FFFC77
:1018B300000C00F000180FC03E19FF40F311BC608C
:1018C30083307FE003B1FE200333802003700030B8
:1018D300036000100360001807C0000C07C0000479
:1018E3000780000201000003000000010000000067
:1018F300000000000000000000000000D1A700006D
:101903000000000000000003840000038FC00003F8
:1019130083E0003FC1C0003FFFC00077EF8000EFCE
:10192300DF0001FD9F0003FBFF0000EFFF0000FF4E
:10193300FFF000FF3FFC0061FC3C0077E07E007F8E
:101943003EF80DFC7EC01FE3F8001D9FF000381F1A
:10195300E0007819F00070007F000007FF00000F1F
:10196300F000000470000000700000007000000030
:10197300E0000001E0000007C000001FC000F3BB4F
:1019830000000000000600000007E0000007F00070
:10199300000EF000001DE000001FC000003F9FC0CC
:1019A300007FFFC0007FE000001F3C0000FE1E0020
:1019B3000FFFBC000F3FFF8000FFFF8000FFF00020
:1019C300003E7000007EF000003FFFE0007FFFE07C
:1019D300007FBDC007F77F8003FFFF8003FFDF8029
:1019E30001FDFF0001FFF9C001FFF8E0007F3FF0B8
:1019F30001E33E380F83F8380E07E0380003800018
:104D7B0090016FFEE0FCA3E0FD90016EE02DFD9035
:0D4D8B00016DE03CFC900173E0FAA3E0FB39
:104D98009001C2EAF0A3EBF0124F359001C2E0FE99
:064DA800A3E0FF0250BC75
:103E9200900049E0FCA3E0FD900047E0FAA3E0FBBC
:103EA200A3E0FFA3E090012BCFF0A3EFF09001126B
:103EB200E0FFA3E090012DCFF0A3EFF0900045E0EA
:043EC200FEA3E0FF7C
:0E3EC600900125EEF0A3EFF0A3ECF0A3EDF0D9
:103ED400900125E0FEA3E0FFC3EB9FFFEA9ECF2401
:103EE40001CF3400900133F0A3EFF0900127E0FEFE
:103EF400A3E0FFC390012CE09FFF90012BE09ECF35
:103F04002401CF3400900135F0A3EFF0900127E0B5
:103F1400FCA3E0FD90012BE0FFA3E0900037CFF07D
:103F2400A3EFF0900125E0FEA3E0FF1248AEE49079
:103F3400012FF0A3F0900135E0FEA3E0FFC3900150
:103F440030E09F90012FE09E5047E4900131F0A3B0
:103F5400F0900133E0FEA3E0FFC3900132E09F90B4
:103F64000131E09E501B90012DE0FEA3E0FF1250B2
:103F7400BC900132E004F070D8900131E004F0808C
:103F8400D0900130E004F070AC90012FE004F08098
:103F9400A4900117E024FFFB900116E034FFFA908F
:103FA4000119E024FFFE900118E034FF900037F07F
:0B3FB400A3CEF0E4FDFCFFFE0248AECF
:0E38BC009000CDEEF0A3EFF0A3ECF0A3EDF042
:1038CA00E49000D7F0A3F0A3F0A3F09000CDE0FEBF
:1038DA00A3E0FFC3EB9FFFEA9E9000DBF0A3EFF0AB
:1038EA009000CFE0FAA3E0FBC39000D4E09BFE90E7
:1038FA0000D3E09A9000DDF0A3CEF09000CDE0FF77
:10390A00A3E09000E5CFF0A3EFF0A3EAF0A3EBF079
:10391A009000DBE0FEA3E0FFD39400EE6480948085
:10392A00400A9000E1E4F0A304F08021EF4E700811
:10393A009000E1F0A3F0801574FF9000E1F0A3F08D
:10394A00C3E49FFFE49E9000DBF0A3EFF09000DD5C
:10395A00E0FEA3E0FFD39400EE64809480400A90D6
:10396A0000E3E4F0A304F08021EF4E70089000E336
:10397A00F0A3F0801574FF9000E3F0A3F0C3E49F76
:10398A00FFE49E9000DDF0A3EFF09000DDE0FEA3DF
:10399A00E0FF9000DBE0FCA3E0FDD39FEE6480F83B
:1039AA00EC6480989000DF4007ECF0A3EDF080050E
:1039BA00EEF0A3EFF0E49000D5F0A3F09000E0E081
:1039CA002401FF9000DFE03400FED39000D6E09F90
:1039DA009000D5E09E4003023AA69000E5E0FEA3DF
:1039EA00E0FFA3E0FCA3E0FD124DAE9000DBE0FE99
:1039FA00A3E0FF9000D8E02FF09000D7E03EF090CF
:103A0A0000DDE0FEA3E0FF9000DAE02FF09000D99D
:103A1A00E03EF09000DFE0FEA3E0FF9000D7E0FC7C
:103A2A00A3E0FDD39FEE6480F8EC6480984020ED1B
:103A3A009FFFEC9E9000D7F0A3EFF09000E1E0FE2C
:103A4A00A3E0FF9000E6E02FF09000E5E03EF09062
:103A5A0000DFE0FEA3E0FF9000D9E0FCA3E0FDD385
:103A6A009FEE6480F8EC6480984020ED9FFFEC9E06
:103A7A009000D9F0A3EFF09000E3E0FEA3E0FF90FE
:103A8A0000E8E02FF09000E7E03EF09000D6E00476
:0C3A9A00F070069000D5E004F00239C680
:013AA60022FD
:0E34BC009000ADEEF0A3EFF0A3ECF0A3EDF066
:1034CA00E49000BBF0A3F0A3F0A3F09000ADE0FEFF
:1034DA00A3E0FFC3EB9FFFEA9E9000BFF0A3EFF0CB
:1034EA009000AFE0FAA3E0FBC39000B4E09BFE902B
:1034FA0000B3E09A9000C1F0A3CEF09000ADE0FFD7
:10350A00A3E09000C9CFF0A3EFF0A3EAF0A3EBF099
:10351A009000BFE0FEA3E0FFD39400EE64809480A5
:10352A00400A9000C5E4F0A304F08021EF4E700831
:10353A009000C5F0A3F0801574FF9000C5F0A3F0C9
:10354A00C3E49FFFE49E9000BFF0A3EFF09000C198
:10355A00E0FEA3E0FFD39400EE64809480400A90DA
:10356A0000C7E4F0A304F08021EF4E70089000C772
:10357A00F0A3F0801574FF9000C7F0A3F0C3E49F96
:10358A00FFE49E9000C1F0A3EFF09000C1E0FEA31B
:10359A00E0FF9000BFE0FCA3E0FDD39FEE6480F85B
:1035AA00EC6480989000C34007ECF0A3EDF080052E
:1035BA00EEF0A3EFF0E49000B9F0A3F09000C4E0BD
:1035CA002401FF9000C3E03400FED39000BAE09FCC
:1035DA009000B9E09E40030236C59000CBE0FCA300
:1035EA00E0FD9000B7E0FAA3E0FB9000B5E0FFA38E
:1035FA00E090013DCFF0A3EFF0A3E4F0A304F09034
:10360A0000C9E0FEA3E0FF1236C69000BFE0FEA3A9
:10361A00E0FF9000BCE02FF09000BBE03EF090008D
:10362A00C1E0FEA3E0FF9000BEE02FF09000BDE0F5
:10363A003EF09000C3E0FEA3E0FF9000BBE0FCA3D5
:10364A00E0FDD39FEE6480F8EC6480984020ED9F03
:10365A00FFEC9E9000BBF0A3EFF09000C5E0FEA344
:10366A00E0FF9000CAE02FF09000C9E03EF0900021
:10367A00C3E0FEA3E0FF9000BDE0FCA3E0FDD39F02
:10368A00EE6480F8EC6480984020ED9FFFEC9E90F9
:10369A0000BDF0A3EFF09000C7E0FEA3E0FF9000AA
:1036AA00CCE02FF09000CBE03EF09000BAE004F0BE
:0B36BA0070069000B9E004F00235C675
:0136C50022E2
:1043E200900193EAF0A3EBF090018FEEF0A3EFF0CF
:1043F200A3ECF0A3EDF0C007A3E0FAA3E0FB900169
:1044020091E0FFA3E09000D3CFF0A3EFF0D007122A
:1044120038BC90018FE0FAA3E0FBFFAE02C007A315
:10442200E0FCA3E0FD900195E0FFA3E09000D3CF74
:10443200F0A3EFF0D0071238BC900195E0FCA3E0A6
:10444200FD900193E0FAA3E0FBA3E0FFA3E090005C
:10445200D3CFF0A3EFF090018FE0FEA3E0FF12387C
:10446200BC900193E0FAA3E0FBFFAE02C00790010B
:1044720091E0FCA3E0FD900195E0FFA3E09000D362
:0A448200CFF0A3EFF0D0070238BC22
:104E2600C00790019DE0FFA3E090012BCFF0A3EF18
:104E3600F0900112E0FFA3E090012DCFF0A3EFF078
:054E4600D007023EC68A
:103D5500900171F0A3EFF090013BE0FFA3E090012B
:0E3D650073CFF0A3EFF0900137E0FEA3E0FF74
:103D730090016DECF0A3EDF090016BEEF0A3EFF08A
:103D830090016FEAF0A3EBF02FFFEE3AA3124D7E02
:103D930090016FE0FEA3E0FFC390016CE09FFF90F2
:103DA300016BE09EFE900171124D7F90016FE0FE6A
:103DB300A3E0FF90016CE02FFF90016BE03EFE90CB
:103DC3000171E0FCA3E0FDC390016EE09DFD900155
:103DD3006DE09C124D8F90016FE0FEA3E0FFC39056
:103DE300016CE09FFF90016BE09EFE900171E0FC8F
:103DF300A3E0FDC390016EE09DFD90016DE09C1278
:103E03004D8F900171E0FEA3E0FF90016CE02FFF66
:103E130090016BE03E124D7B900171E0FEA3E0FF49
:103E2300C390016CE09FFF90016BE09E124D7B906D
:103E33000171E0FEA3E0FF90016CE02FFF90016BA6
:103E4300E03EFE90016FE0FCA3E0FDC390016EE055
:103E53009DFD90016DE09C124D8F900171E0FEA3DA
:103E6300E0FFC390016CE09FFF90016BE09EFE902A
:103E7300016FE0FCA3E0FDC390016EE09DFD9001A6
:0F3E83006DE09CFC900173E0FAA3E0FB024D9808
:1036C600900137EEF0A3EFF0A3ECF0A3EDF0A3EA40
:0436D600F0A3EBF082
:1036DA00E4900141F0A3F090013DE0FEA3E0FF90E9
:1036EA000143EEF0A3EFF025E0FFEE33FEC37403CF
:1036FA009F900148F0E49E900147F090013FE070EE
:10370A0002A3E07003023809900143E0FEA3E0FF40
:10371A00900141E0FCA3E0FDD39FEE6480F8EC64E5
:10372A00809840030238BB900145ECF0A3EDF0907D
:10373A000143E0FEA3E0FFD3900146E09FEE6480E0
:10374A00F8900145E0648098502B900139E0FCA381
:10375A00E0FD900141E0FAA3E0FB900145E0FFA300
:10376A00E0CF123D55900146E004F070C290014549
:10377A00E004F080BA900147E0FCA3E0FDC3EC64EA
:10378A008094805023900141E0FEA3E07802C33385
:10379A00CE33CED8F92DFFEC3ECF2406CF3400909D
:1037AA000147F0A3EFF08043900143E0FEA3E0FF5E
:1037BA00C3900142E09FFF900141E09EFEEF780234
:1037CA00C333CE33CED8F9FF900148E02FFF9001E2
:1037DA0047E03ECF240ACF3400F0A3EFF090014433
:1037EA00E024FFF0900143E034FFF0900142E0044E
:1037FA00F06003023712900141E004F002371290A0
:10380A000143E0FEA3E0FF900141E0FAA3E0FBD30D
:10381A009FEE6480F8EA64809840030238BB900106
:10382A0039E0FCA3E0FDEE123D55900147E0FCA310
:10383A00E0FDC3EC648094805023900141E0FEA334
:10384A00E07802C333CE33CED8F92DFFEC3ECF2435
:10385A0006CF3400900147F0A3EFF0804390014374
:10386A00E0FEA3E0FFC3900142E09FFF900141E028
:10387A009EFEEF7802C333CE33CED8F9FF900148CB
:10388A00E02FFF900147E03ECF240ACF3400F0A397
:10389A00EFF0900144E024FFF0900143E034FFF0A0
:1038AA00900142E004F07006900141E004F0023811
:0138BA000904
:0138BB0022EA
:1047CB00900149EEF0A3EFF0A3ECF0A3EDF0A3EA18
:1047DB00F0A3EBF0C007A3E0FFA3E09000D3CFF072
:1047EB00A3EFF0D0071238BC90014FE0FCA3E0FD23
:1047FB00A3E0FAA3E0FBA3E0FFA3E09000D3CFF08C
:10480B00A3EFF090014DE0FEA3E0FF1238BC900146
:10481B0053E0FCA3E0FD900149E0FAA3E0FBA3E029
:10482B00FFA3E09000D3CFF0A3EFF0900151E0FE97
:06483B00A3E0FF0238BCFF
:10496A009001A97401F0A37400F0A3743FF07B01D5
:04497A007A00793B0B
:0B497E009001A6EBF0A3EAF0A3E9F023
:104989001220ABFFAEF09001A9E0FBA3E0FAA3E08F
:10499900F91220ABFD9001A6E0FBA3E0FAA3E0F930
:1049A900E5F08DF01220D69001A9E0FBA3E0FAA36F
:0849B900E0F9EE8FF00220D6B8
:101A0300900039EEF0A3EFF0A3ECF0A3EDF0A3EA1E
:041A1300F0A3EBF061
:101A170090005912221E0000000090005D12221E45
:101A27000000000090003FE0FEA3E0FF90003BE0D5
:101A3700FCA3E0D39FEC9E401A12496A9001A97457
:101A470001F0A37400F0A3743DF07B017A007939AB
:101A570012497E900043E0FEA3E0FF90003FE0FCC8
:101A6700A3E0D39FEC9E402E9001A97401F0A374CC
:101A770000F0A3743FF07B017A00794312497E900E
:101A870001A97401F0A37400F0A3743DF07B017AFF
:101A970000794112497E90003FE0FEA3E0FF9000ED
:101AA7003BE0FCA3E0D39FEC9E401A12496A9001E9
:101AB700A97401F0A37400F0A3743DF07B017A00D0
:101AC700793912497E900043E0FEA3E0FF90003B86
:101AD700E0FCA3E0FD6F7002EC6E6003021BAB90AD
:101AE7000039E0FEA3E0FF900047EEF0A3EFF0908F
:101AF7000045EEF0A3EFF0900045E0FEA3E0FF9075
:101B0700003DE0FAA3E0FBC39FEA9E500A90004520
:101B1700EAF0A3EBF0801E900047E0FEA3E0FFD3BE
:101B2700EB9FEA9E400F90003DE0FFA3E090004747
:101B3700CFF0A3EFF0900045E0FEA3E0FF90004157
:101B4700E0FAA3E0FBC39FEA9E500A900045EAF043
:101B5700A3EBF0801E900047E0FEA3E0FFD3EB9FCE
:101B6700EA9E400F900041E0FFA3E0900047CFF0CE
:101B7700A3EFF0900047E0FAA3E0FB90003BE0FF03
:101B8700A3E090012BCFF0A3EFF0900112E0FFA3A9
:101B9700E090012DCFF0A3EFF0900045E0FEA3E029
:101BA700FF023EC6900039E0FAA3E0FB90003DE05B
:101BB700FEA3E0C39BFFEE9A90004DF0A3EFF090D9
:101BC700003BE0FEA3E0FF90003FE0FCA3E0C39FE3
:101BD700FFEC9E90004FF0A3EFF0900041E0FEA3D2
:101BE700E0C39BFFEE9A900051F0A3EFF090003B0B
:101BF700E0FEA3E0FF900043E0FCA3E0C39FFFECFF
:101C07009E900053F0A3EFF090003DE0FEA3E0FFAD
:101C1700900041E0FCA3E0C39FFFEC9E900055F0CD
:101C2700A3EFF090003FE0FAA3E0FB900043E0FC55
:101C3700A3E0FDC39BFEEC9A900057F0A3CEF0EB18
:101C4700B50510EAB5040C90003FFFA3E090004BE8
:101C5700CF801090003FE0FEA3E024FFFFEE34FFAB
:101C670090004BF0A3EFF090003BE0FFA3E0900063
:101C770049CFF0A3EFF090004BE0FEA3E0FF900008
:101C870049E0FCA3E0D39FEC9E4003021D97900020
:101C97004FE0FEA3E0FBAA06EA3395E0F9F89000CF
:101CA70059E0FCA3E0FDA3E0FEA3E0FF124B309058
:101CB7000039E0FCA3E02FFFEC3E900045F0A3EFD6
:101CC700F0900053E0FEA3E0FBAA06EA3395E0F9A3
:101CD700F890005DE0FCA3E0FDA3E0FEA3E0FF12A7
:101CE7004B30900039E0FCA3E02FFFEC3E9000471B
:101CF700F0A3EFF0900059E0F8A3E0F9A3E0FAA30E
:101D0700E0FB90004DE0FEA3E0FFEE3395E0FDFC25
:101D1700EB2FFFEA3EFEE93DFDE83CFC900059123F
:101D2700221290005DE0F8A3E0F9A3E0FAA3E0FB3C
:101D3700900051E0FEA3E0FFEE3395E0FDFCEB2FB2
:101D4700FFEA3EFEE93DFDE83CFC90005D122212F1
:101D5700900047E0FEA3E0FF900045E0FCA3E0D33E
:101D67009FEC9E40179001A97401F0A37400F0A3A3
:101D77007447F07B017A00794512497E123E9290B2
:101D8700004AE004F07006900049E004F0021C7D70
:101D970090003FE0FEA3E0FF900049E0FAA3E0FBDC
:101DA700C39FFFEA9EFE900055E0FCA3E0FD1220D2
:101DB7006DE4FCFD90005912221290003BE0FEA357
:101DC700E0FFC3EB9FFFEA9EFE900051E0FCA3E01B
:101DD700FD12206DE4FCFD90005D1222129000437D
:101DE700E0FEA3E0FF900049E0FCA3E0D39FEC9E58
:101DF7004003021EFC900057E0FEA3E0FBAA06EAA0
:101E07003395E0F9F8A3E0FCA3E0FDA3E0FEA3E02F
:101E1700FF124B3090003DE0FCA3E02FFFEC3E901B
:101E27000045F0A3EFF0900053E0FEA3E0FBAA0605
:101E3700EA3395E0F9F890005DE0FCA3E0FDA3E04C
:101E4700FEA3E0FF124B30900039E0FCA3E02FFF28
:101E5700EC3E900047F0A3EFF0900059E0F8A3E0C4
:101E6700F9A3E0FAA3E0FB900055E0FEA3E0FFEE44
:101E77003395E0FDFCEB2FFFEA3EFEE93DFDE83C34
:101E8700FC90005912221290005DE0F8A3E0F9A33C
:101E9700E0FAA3E0FB900051E0FEA3E0FFEE3395EC
:101EA700E0FDFCEB2FFFEA3EFEE93DFDE83CFC9040
:101EB700005D122212900047E0FEA3E0FF9000456C
:101EC700E0FCA3E0D39FEC9E40179001A97401F0BA
:101ED700A37400F0A37447F07B017A007945124997
:101EE7007E123E9290004AE004F07006900049E0AE
:051EF70004F0021DE4EF
:011EFC0022C3
:1032A200F0900019E0900027F0900011E0FAA3E0FE
:0132B200FB20
:1032B30090001DEEF0A3EFF0900021EAF0A3EBF0F5
:0832C30090001FECF0A3EDF0F8
:1032CB00900112E0FFA3E090002BCFF0A3EFF09062
:1032DB000025E024E0F0A3E0F9C313FF7E0090008B
:1032EB001DE0FAA3E02FFFEE3ACF24FFFBEF34FFF4
:1032FB00FAE9FFA3E0F8A3E02FFFEE38CF24FFCFCE
:10330B0034FF900037F0A3EFF090001DE0FEA3E038
:10331B00FF1248AE900027E060030233C3900029F0
:10332B00F0900026E0FF900029E0FEC39F400302CF
:10333B003483EF640C7017900025E075F00CA42417
:10334B0003F582E5F03400F583E5822E801A9000B8
:10335B0029E0FF900025E075F010A42477F582E5B5
:10336B00F03404F583E5822FF582E43583F583E4AD
:10337B0093900028F0E490002AF0900026E0C3130D
:10338B00FF90002AE0C39F5026900028E030E00514
:10339B009000218003900023E0FEA3E0FF1250BCBD
:1033AB00900028E0C313F090002AE004F080CB904B
:1033BB000029E004F002332CE4900029F090002661
:1033CB00E0FF900029E0FEC39F4003023483EF64CB
:1033DB000C7017900025E075F00CA42403F582E522
:1033EB00F03400F583E5822E801A900029E0FF90DF
:1033FB000025E075F010A42477F582E5F03404F590
:10340B0083E5822FF582E43583F583E493900028DE
:10341B00F0E490002AF0900026E0C313FF90002AFE
:10342B00E0FEC39F5049900021E0FDA3E090011204
:10343B00CDF0A3EDF0900028E030E024EEFF9000FB
:10344B001EE02FFF90001DE03400FE900029E0FDF0
:10345B00900020E02DFD90001FE03400FC124DAEDB
:10346B00900028E0C313F090002AE004F080A790AE
:10347B000029E004F00233C890002BE0FFA3E0909A
:10348B000112CFF0A3EFF0900117E024FFFB9001A6
:10349B0016E034FFFA900119E024FFFE900118E0CA
:1034AB0034FF900037F0A3CEF0E4FDFCFFFE0248A2
:0134BB00AE62
:1042750090017EEEF0A3EFF0A3ECF0A3EDF0A3EB3D
:10428500F0900183E0FBA3E0FAA3E0F9121FF3FF2E
:10429500D3947E4003024333EFC39420500302437B
:1042A50033900117E024FFFD900116E034FFFC90E8
:1042B500017EE0FEA3E0FFD39DEE9C5071900119B5
:1042C500E024FFFB900118E034FFFA900180E0FC48
:1042D500A3E0FDD39BEC9A5055900114E0FBA3E0BD
:1042E500900023CBF0A3EBF0900183E0FBA3E0FA71
:1042F500121FF3900025F0900182E0900026F090C7
:104305000186E0900027F09001121232AE900182F2
:10431500E0C313FF90017FE02FF090017EE03400B1
:0F432500F0900184E475F00112207F024286229D
:084A5C0090000DEFF0A3EDF056
:104A6400A312221E0000000190000EE0FF14F0EFDC
:104A74006020A3E0F8A3E0F9A3E0FAA3E0FB900030
:104A84000DE0FFE4FCFDFE1220F590000F1222124F
:104A940080D690000FE0FCA3E0FDA3E0FEA3E0FFBE
:014AA40022EF
:0E3FBF00900000EEF0A3EFF0A3ECF0A3EDF005
:103FCD00E490000CF090000AF0900008E0FF9000E3
:103FDD000AE0FEC39F40030240CFC3EF9E14FD7F56
:103FED000A124A5CA804A905AA06AB07900004E0D2
:103FFD00FCA3E0FDA3E0FEA3E0FF122180E47B0A19
:10400D00FAF9F812218090000BEBF0A3E0705790B5
:10401D000008E014FF90000AE0FEC39F5048A3E0A3
:10402D00703E900009E0F9C3138EF0A4FF900001DB
:10403D00E02FFF900000E035F0FEC007900002E099
:10404D00FCA3E0FD900112E0FAA3E0FB900114E067
:10405D00FFA3E0900023CFF0A3EFF0A37420804DD9
:10406D0090000C7401F0900009E0F9C313FFA3E078
:10407D00FEEF8EF0A4FF900001E02FFF900000E016
:10408D0035F0FEC007900002E0FCA3E0FD900112A8
:10409D00E0FAA3E0FB900114E0FFA3E0900023CF32
:1040AD00F0A3EFF090000BE02430900025F0A3E991
:1040BD00F0E4A3F0D0071232B390000AE004F0024E
:0240CD003FD6DC
:0140CF0022CE
:102BB50090001FECF0A3EDF0A3EAF0A3EBF090007A
:062BC5001DEEF0A3EFF08D
:102BCB0090002FEEF0A3EFF090002DE4F0A3744BE8
:102BDB00F0E490002BF0A3F090002DE0FEA3E0FFBB
:102BEB0090002BE0FCA3E0FDC39FEC9E4003022D65
:102BFB00DA900025E0FBA3E0FAA3E0F9121FF3FF44
:102C0B00900A6775F022ED12224FEC75F022A42585
:102C1B0083F583E4936F6003022DC99000011220AA
:102C2B000CFF90002BA3E0900A6875F02212224F44
:102C3B00EC75F022A42583F583E4936F6003022DDA
:102C4B00C990001DE0FAA3E0FBFFAE02C006C0076F
:102C5B00A3E0FCA3E0FDEB240FFBE43AFA90001F8A
:102C6B00E0FEA3E0240FFFE43E900037F0A3EFF06B
:102C7B00D007D0061248AEE4900029F0900029E06E
:102C8B00C39420748094804003022DC9E4A3F09078
:102C9B00002AE0FFC39408748094804003022DC087
:102CAB00900028E0705AA3E0FE90002BE0FCA3E01C
:102CBB00900A6975F02212224FEC75F022A425833D
:102CCB00F583E5822EF582E43583F583E493FD33BA
:102CDB0095E0FC7E007480A807088006CEA2E7135F
:102CEB00CE13D8F8FFEE5CFEEF5D4E600590002131
:102CFB008003900023E0FEA3E0FF1250BC022DB72F
:102D0B00900021E0FFA3E0900112CFF0A3EFF09031
:102D1B000029E0FF90002BE0FCA3E0900A6975F01E
:102D2B002212224FEC75F022A42583F583E5822F26
:102D3B00F582E43583F583E493FD3395E0FC900055
:102D4B002AE0FF7E007480A807088006CEA2E71356
:102D5B00CE13D8F8FFEE5CFEEF5D4E601190001DB8
:102D6B00E0FEA3E0FFA3E0FCA3E0FD124DAE90005C
:102D7B001EE004F0700690001DE004F090002FE0C0
:102D8B00FEA3E0FFC390001EE09FFD90001DE09EA0
:102D9B00FCED64104C7015EEF0A3EFF0900020E00A
:102DAB0004F0701190001FE004F0800990002AE0FD
:102DBB0004F0022C9A900029E004F0022C8790007A
:102DCB002CE004F0700690002BE004F0022BE39053
:102DDB000117E024FFFB900116E034FFFA90011974
:102DEB00E024FFFE900118E034FF900037F0A3CEF3
:092DFB00F0E4FDFCFFFE0248AE0D
:102E040090001FECF0A3EDF0A3EAF0A3EBF0900028
:062E14001DEEF0A3EFF03B
:102E1A0090002FEEF0A3EFF090002DE4F0A37409D8
:102E2A00F0E490002BF0A3F090002DE0FEA3E0FF69
:102E3A0090002BE0FCA3E0FDC39FEC9E4003023010
:102E4A0029900025E0FBA3E0FAA3E0F9121FF3FFA3
:102E5A0090145D75F04AED12224FEC75F04AA425E4
:102E6A0083F583E4936F6003023018900001122007
:102E7A000CFF90002BA3E090145E75F04A12224FCB
:102E8A00EC75F04AA42583F583E4936F600302305E
:102E9A001890001DE0FAA3E0FBFFAE02C006C007CF
:102EAA00A3E0FCA3E0FDEB2417FBE43AFA90001F31
:102EBA00E0FEA3E02417FFE43E900037F0A3EFF012
:102ECA00D007D0061248AEE4900029F0900029E01D
:102EDA00C39448748094804003023018E4A3F090AD
:102EEA00002AE0FFC3940874809480400302300FE4
:102EFA00900028E0705AA3E0FE90002BE0FCA3E0CB
:102F0A0090145F75F04A12224FEC75F04AA425839B
:102F1A00F583E5822EF582E43583F583E493FD3368
:102F2A0095E0FC7E007480A807088006CEA2E7130D
:102F3A00CE13D8F8FFEE5CFEEF5D4E6005900021DF
:102F4A008003900023E0FEA3E0FF1250BC0230068B
:102F5A00900021E0FFA3E0900112CFF0A3EFF090E0
:102F6A000029E0FF90002BE0FCA3E090145F75F0CD
:102F7A004A12224FEC75F04AA42583F583E5822F85
:102F8A00F582E43583F583E493FD3395E0FC900004
:102F9A002AE0FF7E007480A807088006CEA2E71305
:102FAA00CE13D8F8FFEE5CFEEF5D4E601190001D67
:102FBA00E0FEA3E0FFA3E0FCA3E0FD124DAE90000B
:102FCA001EE004F0700690001DE004F090002FE06F
:102FDA00FEA3E0FFC390001EE09FFD90001DE09E4F
:102FEA00FCED64184C7015EEF0A3EFF0900020E0B1
:102FFA0004F0701190001FE004F0800990002AE0AC
:10300A0004F0022EE9900029E004F0022ED6900086
:10301A002CE004F0700690002BE004F0022E3290AF
:10302A000117E024FFFB900116E034FFFA90011922
:10303A00E024FFFE900118E034FF900037F0A3CEA1
:09304A00F0E4FDFCFFFE0248AEBB
:1030530090001FECF0A3EDF0A3EAF0A3EBF09000D7
:063063001DEEF0A3EFF0EA
:1030690090002FEEF0A3EFF090002DE4F0A374068A
:10307900F0E490002BF0A3F090002DE0FEA3E0FF18
:1030890090002BE0FCA3E0FDC39FEC9E40030232BD
:1030990078900025E0FBA3E0FAA3E0F9121FF3FF03
:1030A9009016F775F082ED12224FEC75F082A42587
:1030B90083F583E4936F6003023267900001122065
:1030C9000CFF90002BA3E09016F875F08212224FA6
:1030D900EC75F082A42583F583E4936F60030232D3
:1030E9006790001DE0FAA3E0FBFFAE02C006C0072F
:1030F900A3E0FCA3E0FDEB241FFBE43AFA90001FD8
:10310900E0FEA3E0241FFFE43E900037F0A3EFF0B8
:10311900D007D0061248AEE4900029F0900029E0CB
:10312900C39480748094804003023267E4A3F090D2
:10313900002AE0FFC3940874809480400302325E41
:10314900900028E0705AA3E0FE90002BE0FCA3E079
:103159009016F975F08212224FEC75F082A425833E
:10316900F583E5822EF582E43583F583E493FD3317
:1031790095E0FC7E007480A807088006CEA2E713BC
:10318900CE13D8F8FFEE5CFEEF5D4E60059000218E
:103199008003900023E0FEA3E0FF1250BC023255E9
:1031A900900021E0FFA3E0900112CFF0A3EFF0908F
:1031B9000029E0FF90002BE0FCA3E09016F975F0E0
:1031C9008212224FEC75F082A42583F583E5822FC4
:1031D900F582E43583F583E493FD3395E0FC9000B3
:1031E9002AE0FF7E007480A807088006CEA2E713B4
:1031F900CE13D8F8FFEE5CFEEF5D4E601190001D16
:10320900E0FEA3E0FFA3E0FCA3E0FD124DAE9000B9
:103219001EE004F0700690001DE004F090002FE01D
:10322900FEA3E0FFC390001EE09FFD90001DE09EFD
:10323900FCED64204C7015EEF0A3EFF0900020E057
:1032490004F0701190001FE004F0800990002AE05A
:1032590004F0023138900029E004F0023125900091
:103269002CE004F0700690002BE004F0023081900D
:103279000117E024FFFB900116E034FFFA900119D1
:10328900E024FFFE900118E034FF900037F0A3CE50
:09329900F0E4FDFCFFFE0248AE6A
:10291E0090000FECF0A3EDF0A3EAF0A3EBF0900023
:06292E000DEEF0A3EFF036
:1029340090001AEEF0A3EFF0E4A3F0900015E0FB92
:10294400A3E0FAA3E0F9121FF37003022BB4900082
:102954001CE06003022A75900018E0FFC313FDC356
:10296400900117E09DFD900116E09400FCD39000C7
:102974000EE09D90000DE09C4003022BB4C3900137
:1029840019E09FFF900118E09400FED3900010E03E
:102994009F90000FE09E4003022BB4121FF3FF7EB2
:1029A40000D3948074809480400890001C7401F0DB
:1029B4008089EF640D4E702E900018E0FF90001097
:1029C400E02FF090000FE03400F090001AE0FFA335
:1029D400E090000DCFF0A3EFF0900016E475F00145
:1029E40012207F022A68900018E0D3941074809417
:1029F4008090000DE0FEA3E0FFA3E0FCA3E0FD90C7
:102A04000013E0FBA3E0900023CB4024F0A3EBF001
:102A1400900015E0FBA3E0FAA3E0F9121FF3900085
:102A240025F0A374101232A290000EE02408802C2A
:102A3400F0A3EBF0900015E0FBA3E0FAA3E0F91299
:102A44001FF3900025F0900018E09000261232A2A7
:102A5400900018E0C313FF90000EE02FF090000DDB
:102A6400E03400F0900016E475F00112207F022992
:102A74003F900018E0F9FF7E00C3900117E09FFD2E
:102A8400900116E09EFCD390000EE09D90000DE0B6
:102A94009C4003022BB4C3900119E09FFF900118DE
:102AA400E09EFE90000FE0FCA3E0FDD39FEC9E406F
:102AB40003022BB4E490001CF0E9642070429000FF
:102AC4000DE0FEA3E0FF900013E0FBA3E0900023E1
:102AD400CBF0A3EBF0900015E0F9A3E0FAA3E090AB
:102AE4000025C9F0A3EAF0A3E9F0900019E09000F2
:102AF40028F0900011E0FAA3E0FB123053022B956A
:102B0400900018E0641890000D7044E0FEA3E0FF0C
:102B1400A3E0FCA3E0FD900013E0FBA3E0900023FE
:102B2400CBF0A3EBF0900015E0F9A3E0FAA3E0905A
:102B34000025C9F0A3EAF0A3E9F0900019E09000A1
:102B440028F0900011E0FAA3E0FB122E048042E08A
:102B5400FEA3E0FFA3E0FCA3E0FD900013E0FBA3D1
:102B6400E0900023CBF0A3EBF0900015E0F9A3E094
:102B7400FAA3E0900025C9F0A3EAF0A3E9F09000DD
:102B840019E0900028F0900011E0FAA3E0FB122B6A
:102B9400B5900016E475F00212207F900018E0FF53
:102BA40090000EE02FF090000DE03400F002293F79
:012BB40022FE
:10452D00900000EEF0A3EFF0A3ECF0A3EDF0A3EA02
:04453D00F0A3EBF00C
:10454100900008E0FBA3E0FAA3E0F9124FFBEF783B
:1045510003C333CE33CED8F9FFC3900117E09FFFD9
:10456100900116E09EC313FEEF13FF900001E02FB0
:10457100FF900000E03EFE900002E0FCA3E0FD9011
:104581000006E0FBA3E0900013CBF0A3EBF090005A
:1045910008E0F9A3E0FAA3E0900015C9F0A3EAF05E
:1045A100A3E9F090000BE0900018F090000CE0906F
:0E45B1000019F0900004E0FAA3E0FB02291EBE
:1040D000900160EEF0A3EFF0900164EBF0A3EAF042
:0B40E000A3E9F0900162ECF0A3EDF00A
:1040EB00900160E0FAA3E0FFAE02C006C0072427F0
:1040FB00FBE43AFAA3E0FEA3E02427FFE43E9000A2
:10410B0037F0A3EFF0D007D0061248AEE49001676A
:10411B00F0A3F0900168E025E0FF900167E033FE2B
:10412B00900164E0FBA3E0FAA3E0F98F828E831287
:10413B00200C90016AF0E92FF9EA3EFA9000011287
:10414B00200C900169F0FEA3E0FDEDFF1250BC9036
:10415B000168E004F07006900167E004F0C3900181
:10416B0068E09440900167E06480948640A59001DC
:10417B0017E024FFFB900116E034FFFA900119E0E1
:10418B0024FFFE900118E034FF900037F0A3CEF02F
:08419B00E4FDFCFFFE0248AE4A
:030000000245BFF7
:0C45BF00787FE4F6D8FD758121024606E5
:101EFD00E709F608DFFA8046E709F208DFFA803EC7
:101F0D0088828C83E709F0A3DFFA8032E309F608B3
:101F1D00DFFA8078E309F208DFFA807088828C831B
:101F2D00E309F0A3DFFA806489828A83E0A3F608CF
:101F3D00DFFA805889828A83E0A3F208DFFA804CA9
:101F4D0080D280FA80C680D4806980F28033801080
:101F5D0080A680EA809A80A880DA80E280CA8033E9
:101F6D0089828A83ECFAE493A3C8C582C8CCC58361
:101F7D00CCF0A3C8C582C8CCC583CCDFE9DEE78031
:101F8D000D89828A83E493A3F608DFF9ECFAA9F0B0
:101F9D00EDFB2289828A83ECFAE0A3C8C582C8CC06
:101FAD00C583CCF0A3C8C582C8CCC583CCDFEADE1F
:101FBD00E880DB89828A83E493A3F208DFF980CC81
:101FCD0088F0EF60010E4E60C388F0ED2402B4047A
:101FDD000050B9F582EB2402B4040050AF23234521
:061FED008223901F4D73DA
:101FF300BB010689828A83E0225002E722BBFE02EC
:09200300E32289828A83E493221E
:10200C00BB010CE58229F582E5833AF583E0225089
:10201C0006E92582F8E622BBFE06E92582F8E222D3
:0D202C00E58229F582E5833AF583E49322ED
:10203900BB010689828A83F0225002F722BBFE0186
:02204900F32280
:10204B00F8BB010DE58229F582E5833AF583E8F0CB
:10205B00225006E92582C8F622BBFE05E92582C877
:02206B00F2225F
:10206D00EF8DF0A4A8F0CF8CF0A428CE8DF0A42E87
:02207D00FE2241
:10207F00C5F0F8A3E028F0C5F0F8E58215827002EC
:06208F001583E038F02289
:10209500A3F8E0C5F025F0F0E582158270021583FE
:0620A500E0C838F0E8225B
:1020AB00BB010A89828A83E0F5F0A3E02250068700
:1020BB00F009E71922BBFE07E3F5F009E3192289C2
:0B20CB00828A83E493F5F074019322F5
:1020D600BB010A89828A83F0E5F0A3F0225006F755
:0F20E60009A7F01922BBFE06F3E5F009F3192252
:1020F500E88FF0A4CC8BF0A42CFCE98EF0A42CFC8A
:102105008AF0EDA42CFCEA8EF0A4CDA8F08BF0A407
:102115002DCC3825F0FDE98FF0A42CCD35F0FCEB66
:102125008EF0A4FEA9F0EB8FF0A4CFC5F02ECD392B
:0F213500FEE43CFCEAA42DCE35F0FDE43CFC2298
:1021440075F008758200EF2FFFEE33FECD33CDCC52
:1021540033CCC58233C5829BED9AEC99E5829840D5
:102164000CF582EE9BFEED9AFDEC99FC0FD5F0D6B2
:10217400E4CEFBE4CDFAE4CCF9A88222B800C1B9DC
:102184000059BA002DEC8BF084CFCECDFCE5F0CB1A
:10219400F97818EF2FFFEE33FEED33FDEC33FCEB53
:1021A40033FB10D703994004EB99FB0FD8E5E4F90E
:1021B400FA227818EF2FFFEE33FEED33FDEC33FCFB
:1021C400C933C910D7059BE99A4007EC9BFCE99AEF
:1021D400F90FD8E0E4C9FAE4CCFB2275F010EF2F34
:1021E400FFEE33FEED33FDCC33CCC833C810D70734
:1021F4009BEC9AE899400AED9BFDEC9AFCE899F86F
:0E2204000FD5F0DAE4CDFBE4CCFAE4C8F92201
:104B3000C2D5E830E70FB2D5E4C39BFBE49AFAE4B0
:104B400099F9E498F8EC30E717B2D5124B661221C8
:104B500080E4C39BFBE49AFAE499F9E498F88003B3
:104B600012218030D50DE4C39FFFE49EFEE49DFD3D
:044B7000E49CFC22A3
:0C221200ECF0A3EDF0A3EEF0A3EFF0223F
:10221E00A8828583F0D083D0821222351222351205
:10222E002235122235E473E493A3C583C5F0C5832A
:10223E00C8C582C8F0A3C583C5F0C583C8C582C80A
:01224E00226D
:0C224F00A42582F582E5F03583F583229A
:1022A100E5082464F582E43400F583E00508229012
:1022B1000061300703900064E475F00112225B02B3
:1022C1001FF32000E97F2ED2008018EF540F2490D5
:1022D100D43440D4FF30040BEF24BFB41A005003B0
:1022E1002461FFE50960021509050CE50C70020582
:1022F1000B30070E900061E475F00112225BEF02D2
:102301002039024DFF7403D2078003E4C207F508A8
:10231100900061122272E4F509F50BF50CE50960F4
:10232100077F201222E480F5750AFFC201C200C2B4
:1023310002C203C205C206C2081222B0FF700D30EC
:1023410007057F001222F5AF0CAE0B22B4255FC248
:10235100D5C2041222B0FF24D0B40A00501A75F07D
:102361000A780930D50508B6FF0106C6A426F6206D
:10237100D5047002D20380D924CFB41A00EF5004DF
:10238100C2E5D2040224F6D20180C6D20080C0D2B6
:102391000280BCD2D580BAD20580B47F201222E45B
:1023A1002002077401B5090040F11222A1FF122297
:1023B100E402231ED208D20680951222A1FB12222A
:1023C100A1FA1222A1F94A4B700679C77A257BFF3F
:1023D10020022EE509602A7E008E8275830012207C
:1023E1000C60060EEE650A70F0C2D5EBC0E0EAC0E3
:1023F100E0E9C0E0EE12253DD0E0F9D0E0FAD0E00E
:10240100FB121FF3FF60AAEBC0E0EAC0E0E9C0E005
:102411001222E4D0E02401F9D0E03400FAD0E0FB4C
:10242100E50A0460DCD50AD980877BFF7A257939F2
:10243100D202809C791080027908C206C208800805
:10244100D2D5790A8004790AC2D5E50A047002F569
:102451000AE4FAFDFEFF1222A1FC7B0820011312FF
:1024610022A1FD7B1030000A1222A1FE1222A1FF3F
:102471007B20EC3382D592D55013C3E43000069F04
:10248100FFE49EFEE42001039DFDE49CFCE4CBF807
:10249100C201EC700CCFCECDCCE824F8F870F380FB
:1024A10017C3EF33FFEE33FEED33FDEC33FCEB33BB
:1024B100FB994002FB0FD8E9EB300105F8D0E0C4ED
:1024C10048B201C0E00AEC4D4E4F78207B0070C24B
:1024D100EAB50A0040BCC0E012253FD0F0D0E020B0
:1024E1000104C4C0E0C4B201C0F01222CDD0F0D5C5
:1024F100F0EB02231E12227B23BB53243558238C7D
:102501004C23884224394F24414424414923A14387
:08251100244755242B46242B1E
:1025190045242B4725E75023902D23942E23B72BB1
:1025290023982323B52025D02A235048000023AF20
:102539003F3F3F00790AA2D5200314300509B9109D
:10254900020404B9080104A2D5200602500104209E
:1025590002689202B509005034C0E07F20300319A7
:102569007F30A20272067205500F122596C202C26E
:1025790006C205C2087F30800F300503E9C0E012AA
:1025890022E4300503D0E0F9D0E0B509CC300517D5
:102599007F30B9100C1222E47F583004077F78800D
:1025A90003B908031222E43002057F2D0222E47FD9
:1025B900202008F87F2B2006F322920280CF286E74
:1025C900756C6C2900D2011222A13001F8C2017880
:1025D9000930D50108F60223502D504349581222DB
:1025E900A12403B405004001E49025E2931222D509
:0D25F900743A1222D5D2037509040224356C
:104FFB00E4FFFE121FF3600C0FEF70010E09E97056
:05500B00F20A80EF2213
:1045CB00023AA7E493A3F8E493A34003F68001F225
:1045DB0008DFF48029E493A3F85407240CC8C333F1
:1045EB00C4540F4420C8834004F456800146F6DFC0
:1045FB00E4800B0102040810204080904BB6E47E4F
:10460B00019360BCA3FF543F30E509541FFEE493B4
:10461B00A360010ECF54C025E060A840B8E493A37B
:10462B00FAE493A3F8E493A3C8C582C8CAC583CAA6
:10463B00F0A3C8C582C8CAC583CADFE9DEE780BE5E
:014BF50000BF
:10225B00F8E0FBA3A3E0F925F0F0E582158270020C
:07226B001583E0FA38F022B0
:09227200EBF0A3EAF0A3E9F0226D
:10227B00D083D082F8E4937012740193700DA3A3F2
:10228B0093F8740193F5828883E473740293686006
:06229B00EFA3A3A380DF06
:104DFF00EFB40A07740D124E0A740A309811A8996D
:104E0F00B8130CC2983098FDA899C298B811F63013
:074E1F0099FDC299F59922EB
:00000001FF
