:104C700044485431312020B2E2CAD4B3CCD0F2003F
:104C80005468652074656D70657261747572650035
:104C90003A2020202E20005468652068756D6964D4
:044CA00069747900BA
:104DFD00E4F594F593F592F591F596F595F5B2F5F3
:104E0D00B1F5B4F5B3F5CAF5C9F5CCF5CBF5E2F5C9
:024E1D00E12290
:103A6600124DFD123BCD74FFFFFE124692900006EA
:103A7600E4F0A3741FF0A374FFF0A3744CF0A374D6
:103A860070F0A37410F0A37401F07B007AF87D1037
:103A96007C00E4FFFE1244EC74FF900013F0A3F0E8
:103AA600A3F0A3744CF0A37480F0A37410F0E4A305
:103AB600F07B1FFA7D38FCFFFE12290474FF90008C
:103AC60013F0A3F0A3F0A3744CF0A37490F0A374C6
:103AD60010F0E4A3F07B1FFA7D38FC7F78FE1229F4
:103AE6000474FF900013F0A3F0A3F0A3744CF0A3AA
:103AF6007497F0A37410F0E4A3F07B1FFA7D60FCCA
:103B0600FFFE12290474FF900013F0A3F0A3F0A3A4
:103B1600744CF0A37490F0A37410F0E4A3F07B1F30
:103B2600FA7D60FC7F78FE1229041242F390008A27
:103B3600E0FFE4FCFDFE90000412221290000874DF
:103B460002F0A37410F07D387C007F887E00123F5F
:103B56007E90008BE0FFE4FCFDFE90000412221232
:103B66009000087402F0A37410F07D387C007F9AF0
:103B76007E00123F7E900098E0FFE4FCFDFE900080
:103B8600041222129000087402F0A37410F07D60F3
:103B96007C007F887E00123F7E900099E0FFE4FC67
:103BA600FDFE9000041222129000087402F0A37425
:103BB60010F07D607C007F9A7E00123F7E7FD07E73
:073BC60007124C00023B3026
:104E9D00E4FDFCC3ED9FEC9E500EE4FB0BEBB40365
:084EAD00FB0DBD00010C80EBC0
:014EB50022DA
:104EB600E4FDFCC3ED9FEC9E500EE4FB0BEBB4054A
:084EC600FB0DBD00010C80EBA7
:014ECE0022C1
:084BC800900000EEF0A3EFF0F5
:104BD000E4A3F0A3F0900000E0FEA3E0FFC3900088
:104BE00003E09F900002E09E50157FFA7E00124E77
:0F4BF000B6A3E004F070DE900002E004F080D67F
:014BFF002293
:084C0000900000EEF0A3EFF0BC
:104C0800E4A3F0A3F0900000E0FEA3E0FFC390004F
:104C180003E09F900002E09E50157FFA7E00124E3E
:0F4C2800B6A3E004F070DE900002E004F080D646
:014C3700225A
:104ECF00E4FDFCC3ED9FEC9E500EE4FB0BEBB40135
:084EDF00FB0DBD00010C80EB8E
:014EE70022A8
:045076000000000036
:0A4B0F004201120000420114FFFFF2
:0F4FFD00C2E8C2C28FA0AF058F80D2C2D2E82215
:104F0100C2E8C2C47F017E00124ECFAFA0EFFEAD5A
:074F110080EDFFD2C4D2E8DD
:014F18002276
:0B502600AD07AC06C2E9ECFF024FFD35
:054FCD00125026E4FF74
:0B4FD200AD07AC06D2E9ECFF024FFD7A
:05506C00D2E9024F0132
:0B503100AD07AC06D2E9ECFF024FFD1A
:104E4100AA07ED54FC75F008A4FDEA54F845F0FEFC
:0F4E5100EDFFEB54F8131313541FFDEF4DFF2229
:10471300D2E9C2E8C2C47F017E00124ECFAFA0909F
:1047230001B6E4F0A3EFF0E0FFAD80ED9001B6CF6A
:10473300F0A3EFF0D2C4C2C47F017E00124ECFAF0C
:10474300A09001B6E4F0A3EFF0E0FFAD80ED90019F
:10475300B6CFF0A3EFF0D2C4C2C47F017E00124EE5
:10476300CFAFA0AD07EDAD80FCD2C4ECFB7A007CEB
:10477300009001B7E0FD9001B6E0FF7E00EEF0A3EC
:07478300EFF0D2E8024E4105
:0E500C00AB05AA04125026AE02AF03024FD22B
:104ACD009001A1EBF0A3EAF0A3E9F012502675A036
:104ADD00FF7580FF9001A474FFF5F012209545F04D
:104AED00601912506C9001A1E0FBA3E475F0011266
:104AFD002095A9F0FAEF12203980D975A0FF7580A5
:024B0D00FF2285
:0B503C0090011DE0FEA3E0FF025026E3
:0B50470090011FE0FEA3E0FF025026D6
:08469200900000EEF0A3EFF030
:10469A00900117E024FFFB900116E034FFFA900125
:1046AA0019E024FFFE900118E034FF900037F0A3D0
:1046BA00CEF0E4FDFCFFFE124864E4900002F0A391
:1046CA00F0900116E0FEA3E0FFC3900003E09F9084
:1046DA000002E09E5032E4FBFAD3900119E09B906D
:1046EA000118E09A4012900000E0FEA3E0FF125089
:1046FA00310BBB00010A80E1900003E004F070C1B5
:08470A00900002E004F080B908
:014712002284
:104D3C00AB07AA068D828C83C006C007AE83AF82F8
:104D4C00900037EEF0A3EFF0D007D0061248649035
:0A4D5C000112E0FEA3E0FF02503157
:084A02009001B8EEF0A3EFF003
:104A0A00D3900117E09F900116E09E400DD39001CC
:104A1A0019E09D900118E09C5004E4FEFF229001E9
:104A2A00B8E0FEA3E0FF124E6012504775A0FF7572
:0B4A3A0080FF12471375A0FF7580FF7E
:014A4500224E
:104EE8007F327E00124C00C2EA7F327E00124C00F4
:094EF800D2EA7F327E00024C0078
:103BCD00124EE87FF77E001250267FA9124FD27F4A
:103BDD0051124FD27F2C124FD27F82124FD27FC003
:103BED001250267F11124FD27F09124FD27FC11270
:103BFD0050267F41124FD27FC5124FCD7F0A124FF3
:103C0D00D27F80124FD27FB11250267FB0124FD289
:103C1D007F11124FD27FB41250267F02124FD27FE6
:103C2D00B61250267F02124FD27F22124FD27FB78B
:103C3D001250267FC6124FD27FBE124FCD7F041277
:103C4D004FD27FE9124FCD7F361250267F08124F8B
:103C5D00D27F3A1250267F55124FD27FE0124FCDB0
:103C6D007F07124FD27F10124FD27F09124FD27F92
:103C7D0017124FD27F0B124FD27F41124FD27F8935
:103C8D00124FD27F4B124FD27F0A124FD27F0C129E
:103C9D004FD27F0E124FD27F18124FD27F1B124F71
:103CAD00D27F0F124FD27FE1124FCD7F17124FD21D
:103CBD007F1A124FD27F04124FD27F0E124FD27F36
:103CCD0006124FD27F2F124FD27F45124FD27F4314
:103CDD00124FD27F02124FD27F0A124FD27F09129A
:103CED004FD27F32124FD27F36124FD27F0F124FEB
:103CFD00D27F111250267F78124C007F297E001240
:073D0D0050267F0102444B28
:10486400900031EEF0A3EFF0A3ECF0A3EDF0900193
:1048740021E0FEA3E0FF125026900031E0FF7E000D
:10488400124FD2A3E0FF124FD2EAFF124FD2AF036E
:104894007E00124FD2900123E0FEA3E0FF125026C7
:1048A400900033E0FF7E00124FD2A3E0FF124FD2FC
:1048B400900037E0FF124FD2A3E0FF124FD2025014
:0148C4003CB7
:104E6000AB07AA068D828C83C006C007AE83AF82D3
:0F4E7000900037EEF0A3EFF0D007D006024864B1
:10444B00900121E4F0A3742AF0A3E4F0A3742BF001
:10445B0090011DE4F0A3742CF0A3E4F0A3742EF0F0
:10446B00EF14602414603B14605324037072E490C7
:10447B00011CF090011604F0A37440F0A37401F03A
:10448B00A374E0F07D08804F90011C7401F0900143
:10449B0016F0A374E0F0A37401F0A37440F07D68F0
:1044AB00803590011C7402F090011614F0A3744037
:1044BB00F0A37401F0A374E0F07DC8801A90011C86
:1044CB007403F09001167401F0A374E0F0A374016F
:1044DB00F0A37440F07DA87C007F367E0012500C58
:0144EB0022AE
:104CA40078AC7C017D017BFF7A5079767E007F04AD
:104CB400121FCD7B017A0179AC9001A4E4F0A374B6
:104CC40004F07FD37E00124ACD9001AEE0FEA3E053
:034CD400FDEDFFF4
:014CD70022BA
:104FAB0049443A25730D0A00455252000000000097
:014FBB0000F5
:104B19004A015681508158816081688170410155EF
:014B2900008B
:0C501A00C2B2124C0043B10453B2FB229E
:104C38009001C4EFF0D2B2D2EB7F147E00124C0088
:104C4800C2EBC2B27F147E00124C009001C4E0B4E3
:104C58002803D38001C392B27F147E00124C00D285
:084C6800EB7F147E00024C00FA
:104F9900C2EB7F0A7E00124C00D2EB7F0A7E000230
:024FA9004C00BA
:06506000125071024F998D
:084DD9009001BAEEF0A3EFF027
:104DE100124F857FBA124B4F9001BAE0FF124B4F21
:0B4DF1009001BAA3E0FF124B4F7F01BE
:014DFC002294
:0B4D66009001B0EEF0A3EFF0A3EDF021
:104D7100124F859001B0E0FEA3E0FF124DD99001E2
:0B4D8100B2E0FF124B4F124F307F01D9
:014D8C002204
:08460A007B017D017F4E7E81E2
:10461200900187EEF0A3EFF0A3EDF0A3EBF0A3EA95
:04462200F0A3E9F028
:10462600E4A3F0124F85900187E0FEA3E0FF124D50
:10463600D9124F857F147E00124ECF7FBB124B4F8F
:10464600E490018EF0900189E0FF90018EE0FEC3B8
:104656009F502EEF14B50604E4FF80027F01124935
:104666001C90018AE0FBA3E0FAA3E0F990018EE03A
:10467600F582758300EF12204B90018EE004F080E6
:0B468600C4124F3090018D7401F0FF52
:014691002206
:1041620078FE7C007D017BFF7A4F79B77E007F0469
:10417200121FCD1250607FBA124C387F327E00126D
:10418200501A7B017A0079FE7D047F407E811246BF
:10419200129000FEE06439900064704B74FFF0A34B
:1041A200744FF0A374ABF0A37401F0A37400F0A3F6
:1041B20074FEF07B017A017902122306900117E066
:1041C20024C8FF900116E034FFFE9001837401F0D1
:1041D200A37401F0A37402F0A37401F07B10E4FD58
:1041E200FC1242347F012274FFF0A3744FF0A374D7
:1041F200ABF0A37401F0A37400F0A374FEF07B0192
:104202007A017902122306900117E024C8FF900177
:1042120016E034FFFE90018374FFF0A3744FF0A305
:1042220074B3F0A37401F07B10E4FDFC1242347FFE
:01423200008B
:014233002268
:104E1F0078C57C017D017BFF7A4F79BB7E007F01D6
:104E2F00121FCD7A0179C512460A9001C5E0540FC1
:014E3F00FF73
:014E4000224F
:10260600E4900179F0A3F090017DF0900155E0048B
:10261600F0E0FF75F00A84E5F06009EFC3940A4024
:10262600030228C77A01797D12460A90017DE030BF
:10263600E714540FC39406500DE490017BF0FD7F20
:102646004E7E81124D6690017DE0540FFF700302AD
:1026560028C7C3940640030228C7A80774FF08804A
:1026660002C333D8FCFF90017BF09000FDE090019F
:102676007CF0EFF444C09000FDF09000E9E0FFA389
:10268600E09000F1CFF0A3EFF0A3E0FFA3E090000D
:10269600FBCFF0A3EFF0E4900179F0900179E0FF31
:1026A600C39405400302283A7E007401A8070880F7
:1026B60005C333CE33CED8F9FF9000FDE0FDEF5DC4
:1026C6007003022831900179E025E02456F582E472
:1026D6003401F583E0FEA3E0FF7B017A0179757D85
:1026E6000412461290011CE0FD7037900176E0FE60
:1026F600900175E07A002400FFEA3EFE900179E041
:10270600FC25E024E9F582E43400F583EEF0A3EF3E
:10271600F0900178E0FE900177E02400FFEA3E02A7
:1027260027CAED64017046900176E0FE900175E0DF
:102736007C002400FFEC3EFEC3900119E09FFF9051
:102746000118E09EFE900179E0FD25E024F3F58274
:10275600E43400F583EEF0A3EFF0900178E0FE900C
:102766000177E07A002400FFEA3E02281F90011C50
:10277600E0FD6402705B900176E0FE900175E07A00
:10278600002400FFEA3EFEC3900117E09FFF900180
:1027960016E09EFE900179E0FC25E024E9F582E44E
:1027A6003400F583EEF0A3EFF0900178E0FE90019F
:1027B60077E02400FFEA3EFEC3900119E09FFF90F8
:1027C6000118E09EFEEC25E024F3F582E434008057
:1027D60053ED64037055900176E0FE900175E07C40
:1027E600002400FFEC3EFE900179E0FD25E024F395
:1027F600F582E43400F583EEF0A3EFF0900178E083
:10280600FE900177E07A002400FFEA3EFEC39001C5
:1028160017E09FFF900116E09EFEED25E024E9F506
:1028260082E43400F583EEF0A3EFF0900179E00442
:10283600F00226A190017A7401F0900116E0FEA341
:10284600E0FFD39000EAE09F9000E9E09E501490EC
:102856000118E0FEA3E0FF9000F4E09F9000F3E093
:102866009E405990017DE0540FD394014020900082
:10287600EBE0FFA3E09000E9CFF0A3EFF09000F5C6
:10288600E0FFA3E09000F3CFF0A3EFF0802E9000DE
:10289600F1E0FFA3E09000E9CFF0A3EFF09000FB9A
:1028A600E0FFA3E09000F3CFF0A3EFF090017D747A
:1028B60080F090017CE09000FDF08005E4900155E9
:1028C600F090017DE0548FFFBF80219000FDE03045
:1028D600E705547FF0801574FF9000E9F0A3F090AF
:1028E60000F3F0A3F09000FDE054E0F0900155E015
:0D28F600D394F04003740AF090017AE0FFE3
:0129030022B1
:075052007F017E00024ECF3A
:044F7100C2EDE4FFAA
:104F7500EFB4010543CB10800353CBEF53CCEF22A5
:05507100D2EDD2EC229B
:104F8500E4FF124F75D2ECD2ED125052C2EC125022
:044F950052C2ED22F5
:104F3000E4FF124F75C2EDC2EC125052D2ED125086
:064F400052D2EC025052B7
:104D0B00E49001C6F07F01124F75D2EC125052D2D3
:104D1B00ED12505230EC169001C6E004F0E0D39443
:104D2B00FA40F1124F30E4FF124F750F22124F7100
:014D3B002255
:104FDD00124F71C2EC125052D2ED125052C2ED224C
:104FED00124F71D2EC125052D2ED125052C2ED222C
:054B4F009001BCEFF035
:104B5400E4FF124F75C2EDE4A3F09001BCE0FF54F2
:104B640080FEC4131313540124FF92ECEF25E0F0EC
:104B7400D2ED125052C2ED1250529001BDE004F039
:094B8400E0C3940840D4024D0B7B
:05491C009001B3EFF073
:10492100E49001B5F07F01124F75E49001B4F0C23B
:10493100ED7F017E00124EB6D2ED9001B5E0FF256C
:10494100E0F030EC03E004F09001B4E004F0E0C3E7
:10495100940840DB9001B3E07005124FED80031223
:0C4961004FDDE4FF124F759001B5E0FF40
:01496D002227
:104B2A005500E9000000000000000000000000003D
:084B3A00000000000000000073
:065066001241627F0022EE
:03507A0002260605
:104FBC00EFB40107759140E4F59222E4F591F59276
:014FCC0022C2
:104F1900D296D2957F027E00124EB6C2967F027E4D
:074F290000124EB6C29522F2
:104F4600C295C2967F027E00124EB6D295D2967F49
:064F5600027E00024EB6CF
:104B8D00E49001C7F07F01124FBCD2967E00124E09
:104B9D00B6D2957F017E00124EB63096169001C7A3
:104BAD00E004F0E0D394FA40F1124F46E4FF124FC7
:0A4BBD00BC0F22C295E4FF124FBCAA
:014BC70022CB
:05496E009001BEEFF016
:10497300E4A3F09001BFE0FFC3940850389001BE58
:10498300E0FEA807088002C333D8FC30E704D296C0
:104993008002C2967F017E00124EB6D2957F017EC1
:1049A30000124EB6C2957F017E00124EB69001BF33
:0549B300E004F080BEED
:0149B80022DC
:104A8A00E49001C0F07F01124FBCE4A3F0C2957F0D
:104A9A00017E00124EB6D2959001C0E025E0F030BA
:104AAA009603E004F07F017E00124EB69001C1E049
:104ABA0004F0E0C3940840D5E4FF124FBC9001C053
:024ACA00E0FF0B
:014ACC0022C7
:104E7F00C295300904C2968002D2967F027E00123C
:0E4E8F004EB6D2957F027E00124EB6C295221C
:0C4B42004100890045009A525332333282
:075059007F057E00024E9D61
:10480000E4900000F09000927402F020910A900071
:1048100092E0FF04F0EF70F3125059125059125009
:1048200059E4900097F030910204F09000927402E5
:10483000F030910A900092E0FF04F0EF70F39000E6
:1048400092E06401601D9000A2E025E0FFF090007E
:1048500097E04F9000A2F0900000E004F0E0C394D5
:034860000840A26B
:014863002232
:1042F300C2917F127E00124BC8D2911250591250B4
:1043030059D2913091030243A09000927402F0209D
:10431300910A900092E0FF04F0EF70F39000927422
:1043230002F030910A900092E0FF04F0EF70F31274
:1043330048009000A2E090009FF01248009000A275
:10434300E09000A0F01248009000A2E090008CF0F2
:104353001248009000A2E090008DF01248009000F7
:10436300A2E0FF900096F0D29190008DE0FE9000C5
:104373008CE0FD2EFC90009FE0FB2CFCA3E0FA2CCC
:10438300900097F0B50716A3EBF0A3EAF090008A2C
:0E439300EDF0A3EEF0900096E0900094F02282
:1000030000000000000000000000000000000404E5
:10001300040404040004000000140A0A00000000A1
:1000230000000000000014143F140A3F0A0A0000F5
:1000330000041E1505060C14150F0400000012150C
:100043000D0A142C2A1200000000040A0A1E1515BA
:100053000936000000020201000000000000000059
:1000630000201008080808080810200000020408EF
:10007300080808080804020000000004150E0E1505
:100083000400000000000404041F04040400000032
:100093000000000000000000000202010000000058
:1000A300001F00000000000000000000000000002E
:1000B3000002000000100808080404020202010004
:1000C30000000E1111111111110E000000000406A1
:1000D30004040404040E000000000E1111080402BD
:1000E300011F000000000E11100C1010110E000073
:1000F3000000080C0A0A091E0818000000001F016E
:10010300010F1010110E000000000E09010F111154
:10011300110E000000001F09080404040404000079
:1001230000000E11110E1111110E000000000E112E
:1001330011111E10120E0000000000000400000048
:10014300000400000000000000040000000404009C
:100153000020100804020408102000000000000022
:100163001F00001F000000000002040810201008F8
:100173000402000000000E11110804040004000032
:1001830000000E111915151D011E000000000404C6
:100193000C0A0A1E1233000000000F12120E121274
:1001A300120F000000001E1101010101110E0000D9
:1001B30000000F1212121212120F000000001F1281
:1001C3000A0E0A02121F000000001F120A0E0A0282
:1001D3000207000000001C1201013911120C00007B
:1001E30000003312121E12121233000000001F040B
:1001F30004040404041F000000003E080808080863
:1002030008090700000037120A060A0A123700001D
:100213000000070202020202223F000000001B1B33
:100223001B1B15151515000000003B1216161A1A94
:100233001217000000000E1111111111110E000010
:1002430000000F12120E02020207000000000E113E
:1002530011111117190E180000000F12120E0A12B5
:100263001237000000001E1101060810110F0000D4
:1002730000001F1504040404040E000000003312E0
:1002830012121212120C000000003312120A0A0C8E
:100293000404000000001515150E0A0A0A0A0000DE
:1002A30000001B0A0A04040A0A1B000000001B0AC0
:1002B3000A040404040E000000001F0908040402D9
:1002C300121F0000001C04040404040404041C00A2
:1002D300000202020404080808100000000E0808C7
:1002E3000808080808080E0000040A0000000000BF
:1002F3000000000000000000000000000000003FBC
:1003030000040000000000000000000000000000E6
:10031300000C121C123C000000000302020E121219
:10032300120E000000000000001C1202021C00005C
:1003330000001810101C1212123C000000000000F4
:10034300000C121E021C000000003804041E0404EA
:10035300041E000000000000003C120C021E221CC0
:1003630000000302020E1212123700000000040004
:1003730000060404040E000000000800000C080836
:100383000808080700000302023A0A0E12370000A9
:100393000000070404040404041F0000000000001C
:1003A300000F15151515000000000000000F1212B4
:1003B3001237000000000000000C1212120C0000A3
:1003C30000000000000F1212120E020700000000CE
:1003D300001C1212121C103800000000001B060241
:1003E3000207000000000000001E020C101E0000A7
:1003F30000000004040E04040418000000000000C0
:10040300001B1212123C0000000000000037120A09
:100413000C040000000000000015150E0A0A00007D
:1004230000000000001B0A040A1B0000000000007B
:100433000037120A0C04040300000000001E080425
:10044300041E00000018080808040808080818001B
:10045300080808080808080808080808000604042B
:100463000408040404040600022518000000000028
:100473000000000000000000000000000000000079
:100483000000000000000008080808080808000031
:100493001818000000486C2412000000000000003F
:1004A300000000000000002424247F1212127F1297
:1004B300121200000000081C2A2A0A0C1828282AF5
:1004C3002A1C080800000022251515152A58545423
:1004D300542200000000000C1212120A7625291182
:1004E300916E0000000606040300000000000000F7
:1004F3000000000000402010100808080808081039
:1005030010204000000204080810101010101008FA
:10051300080402000000000008086B1C1C6B08089C
:100523000000000000000000080808087F08080811
:1005330008000000000000000000000000000000B0
:10054300060604030000000000000000FE00000097
:100553000000000000000000000000000000000098
:100563000606000000008040402020101008080408
:100573000402020000000018244242424242424266
:1005830024180000000000080E08080808080808DE
:10059300083E00000000003C4242422020100804B4
:1005A300427E00000000003C4242201820404042AE
:1005B300221C0000000000203028242422227E2058
:1005C300207800000000007E0202021A264040420A
:1005D300221C0000000000382402021A2642424274
:1005E300241800000000007E2222101008080808CA
:1005F300080800000000003C424242241824424202
:10060300423C00000000001824424242645840402B
:10061300241C000000000000000018180000000067
:10062300181800000000000000000008000000008F
:100633000008080400000040201008040204081009
:10064300204000000000000000007F0000007F0049
:1006530000000000000000020408102040201008E1
:10066300040200000000003C4242464020101000FB
:10067300181800000000001C225A555555552D42EC
:10068300221C00000000000808181414243C224215
:1006930042E700000000001F2222221E22424242A3
:1006A300221F00000000007C4242010101010142BF
:1006B300221C00000000001F2242424242424242EA
:1006C300221F00000000003F4212121E12120242BB
:1006D300423F00000000003F4212121E12120202AB
:1006E300020700000000003C2222010101712122C7
:1006F300221C0000000000E7424242427E42424286
:1007030042E700000000003E08080808080808083F
:10071300083E00000000007C101010101010101094
:100723001010110F0000007722120A0E0A12122273
:100733002277000000000007020202020202020206
:10074300427F000000000077363636362A2A2A2AEE
:100753002A6B0000000000E346464A4A52525262A6
:10076300624700000000001C2241414141414141D8
:10077300221C00000000003F424242423E020202AD
:10078300020700000000001C2241414141414D533A
:10079300321C60000000003F4242423E12122222FD
:1007A30042C700000000007C42420204182040427D
:1007B300423E00000000007F4908080808080808B6
:1007C300081C0000000000E742424242424242420B
:1007D300423C0000000000E7424222242414141883
:1007E300080800000000006B494949495555362265
:1007F30022220000000000E74224241818182424B1
:1008030042E70000000000772222141408080808B9
:10081300081C00000000007E212010100804044280
:10082300423F00000078080808080808080808087C
:1008330008087800000002020404080808101020C9
:1008430020204040001E1010101010101010101027
:1008530010101E00003844000000000000000000DB
:100863000000000000000000000000000000000085
:10087300000000FF00060800000000000000000068
:1008830000000000000000000000003C42784442E9
:1008930042FC0000000000030202021A2642424208
:1008A300261A000000000000000000384402020283
:1008B3004438000000000060404040784442424217
:1008C30064D80000000000000000003C427E0202E9
:1008D300423C0000000000F08808087E0808080871
:1008E300083E0000000000000000007C22221C02E1
:1008F3003C42423C000000030202023A46424242AA
:1009030042E700000000000C0C00000E0808080875
:10091300083E000000000030300000382020202076
:100923002020221E0000000302020272120A161285
:10093300227700000000000E0808080808080808CD
:10094300083E0000000000000000007F9292929297
:1009530092B70000000000000000003B4642424204
:1009630042E70000000000000000003C4242424217
:10097300423C0000000000000000001B26424242EF
:10098300221E020700000000000000784442424299
:10099300447840E000000000000000774C040404A9
:1009A300041F0000000000000000007C42023C40E5
:1009B300423E0000000000000008083E0808080846
:1009C3000830000000000000000000634242424281
:1009D30062DC000000000000000000E74224241451
:1009E3000808000000000000000000EB49495555CD
:1009F30022220000000000000000007624181818CE
:100A0300246E000000000000000000E742242414CC
:100A130018080807000000000000007E22100808E4
:100A2300447E000000C02020202020102020202011
:100A33002020C000101010101010101010101010F3
:100A43001010101000060808080808100808080805
:100A5300080806000C32C20000000000000000007D
:100A630000000000C9EE000027FC140414A4811048
:100A730042084040104017FC2040E0E0215022484B
:100A83002C4620400040DBDA1104112411241124E8
:100A93001124FD24112411241124112411241D24B3
:100AA300E124422402040404CAD00200010000002D
:100AB3007FFC0100010001003FF821082108210803
:100AC30021082128211001000100C8AB000000000B
:100AD300018002400430180860061FF9010001007C
:100AE30001003FF80100010001007FFEB6AF0000E6
:100AF300000000203E20007C002200227F221022E2
:100B0300102212221222224223423D82009CB5E788
:100B13000000010001001FF0610C410441047FFC4F
:100B23004104410441047FFC01000102010201FC74
:100B3300D7D3000000003FF80010006000800100E0
:100B430000807FFE0040004000200020002018406D
:100B53000780BCBC00000000104013FE10407C4026
:100B6300104013FC1104190830885050106010D045
:100B730013087C06CAF500000100013001080100DA
:100B83007FFE018003400540052009101108210460
:100B9300410201000100D3D00000010002007FFEEA
:100BA300040008001FFC700490041FFC10041004D0
:100BB3001FFC10041004103CCFDE000000007BFC7F
:100BC3004A044A044BFC52044A044BFC4A404A443C
:100BD3007A2842304210420843C6B9AB00000000F5
:100BE30004400420081010101008210442020220BF
:100BF30004100810080810081FFC0004CBBE0000F6
:100C030000003FFC000400043FF400043FE4202400
:100C130020242024202420241FC40004007CBBB6ED
:100C23000000000000807EFC02A202A222A4152480
:100C330014240C300C300C481248228442840102E4
:100C4300D3AD000000002398246414440444644496
:100C5300144414441444144415C4125C1040284032
:100C630047FEC4FA00000000120013FE24222522CE
:100C7300652862242224242020E0050814842444C7
:100C8300241A47F2B4BF00000020102013FE2020D6
:100C930026244A247A241224222423FC7C200022A2
:100CA30004227822003CC9AB0000000004000FF0CE
:100CB300102020207FFC20842084208420843FF87F
:100CC3002000200220021FFECCEE00000000204086
:100CD30023FE204079FC220423FC220423FC22046B
:100CE30023FC3A0465FA01980204B3E4000001000E
:100CF30001007FFE02200410040808043FFC0442A4
:100D030004400440044208421042607EBED8000002
:100D13000000207E3E804880488048FE48827F82D3
:100D230008820C8214FA12842280218040FED0CEE5
:100D3300000000007F842208223022C02202220405
:100D43007FC8223022C222022204220822304040DD
:100D5300BBAD000000007FFE00000FF0111011106A
:100D6300111051125FF25112511251124FF24002FF
:100D73007FFCD4B2000000007FFE47E24812481215
:100D830047E24FF2501250125112511242924472E2
:100D9300580A3FFCC800000000007FFC0000000070
:100DA300000000003FF80000000000000000000009
:100DB300FFFE00000000BDC7080008001FE0202060
:100DC3004040BFF8210821083FF8210821083FF8D7
:100DD3002108410841288010CDBC000000003FFEDF
:100DE300440247F24C225362408243625E1A4182BC
:100DF3004062430240C240223FFCC6AC00000040B8
:100E03002040204020403FFE2000200020003FE003
:100E1300201020102010201040104010CFD40000CC
:100E230000003FFC200420043FFC200420041FF8A2
:100E330024441448144814480C5004407FFECABE8E
:100E4300000000003FFC0000000000007FFE008067
:100E530008900888108810842084208240820780AC
:100E6300B2CB0000002008207FFE002000783F88DE
:100E73001108089009207FFE018003400D30310CDA
:100E83004002B5A500000010081004203FF821041B
:100E930021043FFC210421043FF801007FFE0100EF
:100EA30001000100D6D000000100010001003FFC59
:100EB3002104210421042104210421043FFC010015
:100EC300010001000100D3A20000000008207FFE02
:100ED3000820092001003FF82108210821081FF4F8
:100EE300014002200C10700ECEC40000010001006E
:100EF30000803F7C081008100410042002200240E8
:100F03000180018002601C18E006D7DB00000000AE
:100F1300102011FE2202220249FC5800300013FE69
:100F23002528792401240D24722202A2BACF0000BD
:100F33000000018002400430180860061FF800001A
:100F43001FF8200420042004200420041FF8C1C13A
:100F53000000010001007FFE00003FF820083FF879
:100F63003FF8400647C24824082008221022603E6A
:100F7300B6C80000000000803FFE44105FFC441030
:100F8300441043F040005FF84408423041C04360DE
:100F9300BC1EB2E20000000067C2145205520552A3
:100FA300C55225520552055215521752228222422A
:100FB3004442483ECAD4000000002014101417FE17
:100FC30000120010601013F0109010901090149203
:100FD30014EA1F0A0006B3CC0000000019FE7202D7
:100FE300120212027DFC18001BFE3420502053FE17
:100FF30010201020102013FED0F20000000000800B
:101003003FFE400047FC4208413040C05FFE404283
:1010130040424044404840404440B5F7000000008F
:1010230023FE122202FA0222E22212FE1272128A14
:10103300128A128A16BA1A421202040EB9E2000088
:101043000100010411080908091009207FFE04406A
:10105300044004400440084208421042607CB0E669
:101063000000000048FE4900490049007EFE41821D
:101073004144794445284528451045284644038280
:10108300C8A800001000100013FC7D04110419040B
:10109300188434885048505010201050108813047E
:1010A3001402CBF9000000003F7C204020403E406A
:1010B300227E2244224422443E842084208440848D
:1010C30041044204C6C100003FF8200820083FF84D
:1010D300241022202FF8222022203FFC222042200D
:1010E300442084200820C4BB04407FFC04401FF03C
:1010F30010101FF010101FF00400FFFE11103FF836
:10110300D116115011200100D0002080108010FE54
:101113000100FE0021FC20243C2424A024A024BCA4
:1011230024A024A04560553E8A00D7AA2020202071
:101133002020FDFC4020504093FEFC40108011FC19
:101143001C04F0885050102010101010BFAA00008B
:101153007FFC08200820082008200820FFFE082024
:101163000820082008201020102020204020D4B47C
:10117300000027FE1420144085FC450445FC15049B
:1011830015FC2524E42024A829242A2230A0004089
:10119300D2BA0080204017FE11208120423C4244F5
:1011A300166412942348E2482230222022502288D7
:1011B3000306BEA70FE0082008200FE00820082040
:1011C3000FE000007EFC428442847EFC4284428421
:1011D3007EFC4284CDF800007FFC400440044214AE
:1011E30052944A54442444244A544A545294610421
:1011F300400440144008D5BE1020082008207E205B
:10120300003E04204420442025FC290429040F0423
:10121300F104410401FC0104B0B41040102010207B
:1012230013FEFA02144410401BFE3088D0881108C4
:1012330010D01020105050882304BCFC2010201024
:101243003B7C211441FE7A14A27C2710F97C2510E3
:1012530025FE22102A10350028FE0000D0A31040DE
:101263001020102011FEFC00108831043A0254882B
:101273005088905010501020105010881306D7BC7F
:1012830001404120212023FE022016201BFC1220B6
:10129300222023FCE2202220222023FE220002001F
:1012A300B4A520202020782049FC91247D245524B6
:1012B30055247DFC552454207C28542457FE450294
:1012C3008C00C3FE1110111017FC1110FC0013F851
:1012D300120817F81A0833F8D04017FC10A01110A1
:1012E30052082406B6C10020202011FC1020002043
:1012F30003FEF002109410501110109013FE1428E6
:10130300184410820302BACD04000E007800087C52
:101313000844FF44084418441C442A442A444844CB
:10132300887C084408000800D1D5100008FE7F100F
:101333002220147C7F444454485452544454485407
:1013430051544228442488423082D6B5084008408C
:101353000FFC1040104033F8320853F8920813F88A
:10136300120813F8120812081FFE1000C8DD02004D
:1013730001007FFE400288241110228804400820C7
:101383003018DFF61010101010101FF01010D6A731
:101393000100010001007FFC0100010001003FF09A
:1013A3001010082004400280010006C01830E00E2F
:1013B300B3D610201020102011FCFC20102013FEA7
:1013C3001008180833FED008108810481008502859
:1013D3002010B5E302000200020003FC0200020039
:1013E3003FF02010201020103FF0000024882244FA
:1013F30042448004D1A722081108111000207FFE67
:10140300400280041FE000400180FFFE0100010054
:10141300010005000200F3BB0FE010201FC00040D5
:10142300FFFE0C1073200DC072B00C8EF3207CF8FD
:1014330054A87CF81224FEFCBFC608101D10F090BF
:1014430010901010FD10109038903410501E53F06F
:1014530090101010101010101010C9EE00000000B2
:1014630000001000000800080C7FFC04401001C8B5
:10147300A002186042301832231812C3001403006C
:1014830004030C047FF0080F80080B4078136018E6
:10149300332018631818831C19030818030000036A
:1014A30000000000DBDA00000000000004100C0460
:1014B300180C04108C04108C04108C04108C04D0B1
:1014C3008C3F108C04108C04108C04108C04108C32
:1014D30004108C04108C05F08C0E208C78208C204A
:1014E300408C00808C01000C02000C000000CAD06C
:1014F3000000000000000030000018000018080081
:10150300001C1FFFE000180000182007FFF004185C
:10151300200418200418200418200418200418207C
:101523000418200418200418200418E004184000AC
:101533001800001800000000D6D0000000000000D2
:101543000000000000000018000018000018000050
:1015530018003FFFFE301806301806301806301802
:10156300063018063FFFFE3018060018000018006A
:101573000018000018000018000000000000000020
:101583000000CEC40000000000000000000038008E
:10159300001C00000600FFFFFF06003006003003BA
:1015A30000600300600180C000C18000E3000036DA
:1015B30000001C0000770003C1E01E003C60000730
:1015C300000000000000000000000000B2E2000084
:1015D3000000000000000000000040000321FF3372
:1015E300398333118333019B33C19B33719B33198C
:1015F3009B33019B33019B33119B3319B33330303E
:1016030033306C0330C6036383032E01BE00000036
:10161300000000000000CAD4000000000000000029
:10162300000000004000D83000CE1800C21C00C0EB
:1016330001FFFF0000C0F800C01800C019FFC01868
:1016430018401818601918601B18611E18311C1FE8
:10165300B139F01910000F00000000000000000075
:10166300D1A70000000060E00630F00738E003BDBA
:10167300C0039D801B9B8C1FFFFE38001E3800D8C3
:101683007FFFF02203E0000780001E00001C1C7F88
:10169300FFFE201C00001C00001C00001C0001FCBD
:1016A3000000F800003800000000F3BB0000000158
:1016B300C18001FFC003818003FF8003038C7FFF90
:1016C300FE20F0E007FBE03EFF0007FFC03CFFFE0B
:1016D30007CE7E3F7FCC03BDC83FFFFC3B7DDC3B99
:1016E3007DDC3FFFFC3BEDF80371DC7FFFFE3C3FFD
:1016F3000E000000D7D60000000000060000000323
:1017030000000000C0000001C0C0000107C00001CC
:10171300FF00021FFE0007F01C0007C070000F004F
:10172300E0000E03F0001C0FF0003C0F70003C00C3
:10173300E0001800C0000000C0000000C00000006E
:10174300600000002000000037000001FF00007F60
:10175300F80007F830001F8030000080300000C020
:101763003000006060000018E000000FC0000006B9
:10177300000000000000CCE50000000000000000B5
:10178300000000C0000000E0002001B800703FF836
:101793000061FFC000C3030001C60600038C0600FE
:1017A30003080C0006080C000E18183F1E101BF34C
:1017B3001F903F0700803C1C0190707C019060FEED
:1017C30001A0C3F801A00FD803A0081803600018F4
:1017D3000340001803C0001803800018030000181A
:1017E300000000180000001000000030000000306E
:1017F3000000000000000000B2E200000000000052
:1018030000000000000000000000020C1008071F89
:10181300F80403BFF00201BC300303EC3003015CA6
:10182300600300D8600300D860038098620361B846
:10183300430771B14306313243063376C3063A6434
:10184300C7063EECC0063E78C0063C3040067C70BE
:10185300000678E060067BFFF006F7C00006E400B0
:10186300000640000006000000060000007C0000A7
:101873008FF000007C0000000000CAD400000000CC
:10188300000000000000000000003F0000007F8017
:1018930000000180000000C0000000C0000000CE76
:1018A300038000CFFFC000DD41800FFE0007FFFC77
:1018B300000C00F000180FC03E19FF40F311BC608C
:1018C30083307FE003B1FE200333802003700030B8
:1018D300036000100360001807C0000C07C0000479
:1018E3000780000201000003000000010000000067
:1018F300000000000000000000000000D1A700006D
:101903000000000000000003840000038FC00003F8
:1019130083E0003FC1C0003FFFC00077EF8000EFCE
:10192300DF0001FD9F0003FBFF0000EFFF0000FF4E
:10193300FFF000FF3FFC0061FC3C0077E07E007F8E
:101943003EF80DFC7EC01FE3F8001D9FF000381F1A
:10195300E0007819F00070007F000007FF00000F1F
:10196300F000000470000000700000007000000030
:10197300E0000001E0000007C000001FC000F3BB4F
:1019830000000000000600000007E0000007F00070
:10199300000EF000001DE000001FC000003F9FC0CC
:1019A300007FFFC0007FE000001F3C0000FE1E0020
:1019B3000FFFBC000F3FFF8000FFFF8000FFF00020
:1019C300003E7000007EF000003FFFE0007FFFE07C
:1019D300007FBDC007F77F8003FFFF8003FFDF8029
:1019E30001FDFF0001FFF9C001FFF8E0007F3FF0B8
:1019F30001E33E380F83F8380E07E0380003800018
:104CD80090016FFEE0FCA3E0FD90016EE02DFD90D9
:0D4CE800016DE03CFC900173E0FAA3E0FBDD
:104CF5009001C2EAF0A3EBF0124E609001C2E0FE13
:064D0500A3E0FF025031A3
:103E5100900049E0FCA3E0FD900047E0FAA3E0FBFD
:103E6100A3E0FFA3E090012BCFF0A3EFF0900112AC
:103E7100E0FFA3E090012DCFF0A3EFF0900045E02B
:043E8100FEA3E0FFBD
:0E3E8500900125EEF0A3EFF0A3ECF0A3EDF01A
:103E9300900125E0FEA3E0FFC3EB9FFFEA9ECF2442
:103EA30001CF3400900133F0A3EFF0900127E0FE3F
:103EB300A3E0FFC390012CE09FFF90012BE09ECF76
:103EC3002401CF3400900135F0A3EFF0900127E0F7
:103ED300FCA3E0FD90012BE0FFA3E0900037CFF0BF
:103EE300A3EFF0900125E0FEA3E0FF124864E49005
:103EF300012FF0A3F0900135E0FEA3E0FFC3900192
:103F030030E09F90012FE09E5047E4900131F0A3F1
:103F1300F0900133E0FEA3E0FFC3900132E09F90F5
:103F23000131E09E501B90012DE0FEA3E0FF1250F3
:103F330031900132E004F070D8900131E004F08058
:103F4300D0900130E004F070AC90012FE004F080D9
:103F5300A4900117E024FFFB900116E034FFFA90D0
:103F63000119E024FFFE900118E034FF900037F0C0
:0B3F7300A3CEF0E4FDFCFFFE0248645A
:0E387B009000CDEEF0A3EFF0A3ECF0A3EDF083
:10388900E49000D7F0A3F0A3F0A3F09000CDE0FE00
:10389900A3E0FFC3EB9FFFEA9E9000DBF0A3EFF0EC
:1038A9009000CFE0FAA3E0FBC39000D4E09BFE9028
:1038B90000D3E09A9000DDF0A3CEF09000CDE0FFB8
:1038C900A3E09000E5CFF0A3EFF0A3EAF0A3EBF0BB
:1038D9009000DBE0FEA3E0FFD39400EE64809480C7
:1038E900400A9000E1E4F0A304F08021EF4E700853
:1038F9009000E1F0A3F0801574FF9000E1F0A3F0CF
:10390900C3E49FFFE49E9000DBF0A3EFF09000DD9D
:10391900E0FEA3E0FFD39400EE64809480400A9017
:1039290000E3E4F0A304F08021EF4E70089000E377
:10393900F0A3F0801574FF9000E3F0A3F0C3E49FB7
:10394900FFE49E9000DDF0A3EFF09000DDE0FEA320
:10395900E0FF9000DBE0FCA3E0FDD39FEE6480F87C
:10396900EC6480989000DF4007ECF0A3EDF080054F
:10397900EEF0A3EFF0E49000D5F0A3F09000E0E0C2
:103989002401FF9000DFE03400FED39000D6E09FD1
:103999009000D5E09E4003023A659000E5E0FEA361
:1039A900E0FFA3E0FCA3E0FD124D3C9000DBE0FE4C
:1039B900A3E0FF9000D8E02FF09000D7E03EF09010
:1039C90000DDE0FEA3E0FF9000DAE02FF09000D9DF
:1039D900E03EF09000DFE0FEA3E0FF9000D7E0FCBE
:1039E900A3E0FDD39FEE6480F8EC6480984020ED5D
:1039F9009FFFEC9E9000D7F0A3EFF09000E1E0FE6E
:103A0900A3E0FF9000E6E02FF09000E5E03EF090A3
:103A190000DFE0FEA3E0FF9000D9E0FCA3E0FDD3C6
:103A29009FEE6480F8EC6480984020ED9FFFEC9E47
:103A39009000D9F0A3EFF09000E3E0FEA3E0FF903F
:103A490000E8E02FF09000E7E03EF09000D6E004B7
:0C3A5900F070069000D5E004F002398502
:013A6500223E
:0E347B009000ADEEF0A3EFF0A3ECF0A3EDF0A7
:10348900E49000BBF0A3F0A3F0A3F09000ADE0FE40
:10349900A3E0FFC3EB9FFFEA9E9000BFF0A3EFF00C
:1034A9009000AFE0FAA3E0FBC39000B4E09BFE906C
:1034B90000B3E09A9000C1F0A3CEF09000ADE0FF18
:1034C900A3E09000C9CFF0A3EFF0A3EAF0A3EBF0DB
:1034D9009000BFE0FEA3E0FFD39400EE64809480E7
:1034E900400A9000C5E4F0A304F08021EF4E700873
:1034F9009000C5F0A3F0801574FF9000C5F0A3F00B
:10350900C3E49FFFE49E9000BFF0A3EFF09000C1D9
:10351900E0FEA3E0FFD39400EE64809480400A901B
:1035290000C7E4F0A304F08021EF4E70089000C7B3
:10353900F0A3F0801574FF9000C7F0A3F0C3E49FD7
:10354900FFE49E9000C1F0A3EFF09000C1E0FEA35C
:10355900E0FF9000BFE0FCA3E0FDD39FEE6480F89C
:10356900EC6480989000C34007ECF0A3EDF080056F
:10357900EEF0A3EFF0E49000B9F0A3F09000C4E0FE
:103589002401FF9000C3E03400FED39000BAE09F0D
:103599009000B9E09E40030236849000CBE0FCA382
:1035A900E0FD9000B7E0FAA3E0FB9000B5E0FFA3CF
:1035B900E090013DCFF0A3EFF0A3E4F0A304F09075
:1035C90000C9E0FEA3E0FF1236859000BFE0FEA32C
:1035D900E0FF9000BCE02FF09000BBE03EF09000CF
:1035E900C1E0FEA3E0FF9000BEE02FF09000BDE037
:1035F9003EF09000C3E0FEA3E0FF9000BBE0FCA317
:10360900E0FDD39FEE6480F8EC6480984020ED9F44
:10361900FFEC9E9000BBF0A3EFF09000C5E0FEA385
:10362900E0FF9000CAE02FF09000C9E03EF0900062
:10363900C3E0FEA3E0FF9000BDE0FCA3E0FDD39F43
:10364900EE6480F8EC6480984020ED9FFFEC9E903A
:1036590000BDF0A3EFF09000C7E0FEA3E0FF9000EB
:10366900CCE02FF09000CBE03EF09000BAE004F0FF
:0B36790070069000B9E004F0023585F7
:013684002223
:1043A100900193EAF0A3EBF090018FEEF0A3EFF010
:1043B100A3ECF0A3EDF0C007A3E0FAA3E0FB9001AA
:1043C10091E0FFA3E09000D3CFF0A3EFF0D007126C
:1043D100387B90018FE0FAA3E0FBFFAE02C007A398
:1043E100E0FCA3E0FD900195E0FFA3E09000D3CFB6
:1043F100F0A3EFF0D00712387B900195E0FCA3E029
:10440100FD900193E0FAA3E0FBA3E0FFA3E090009D
:10441100D3CFF0A3EFF090018FE0FEA3E0FF1238BD
:104421007B900193E0FAA3E0FBFFAE02C00790018D
:1044310091E0FCA3E0FD900195E0FFA3E09000D3A3
:0A444100CFF0A3EFF0D00702387BA4
:104DB400C00790019DE0FFA3E090012BCFF0A3EF8B
:104DC400F0900112E0FFA3E090012DCFF0A3EFF0EB
:054DD400D007023E853E
:103D1400900171F0A3EFF090013BE0FFA3E090016C
:0E3D240073CFF0A3EFF0900137E0FEA3E0FFB5
:103D320090016DECF0A3EDF090016BEEF0A3EFF0CB
:103D420090016FEAF0A3EBF02FFFEE3AA3124CDBE7
:103D520090016FE0FEA3E0FFC390016CE09FFF9033
:103D6200016BE09EFE900171124CDC90016FE0FE4F
:103D7200A3E0FF90016CE02FFF90016BE03EFE900C
:103D82000171E0FCA3E0FDC390016EE09DFD900196
:103D92006DE09C124CEC90016FE0FEA3E0FFC3903B
:103DA200016CE09FFF90016BE09EFE900171E0FCD0
:103DB200A3E0FDC390016EE09DFD90016DE09C12B9
:103DC2004CEC900171E0FEA3E0FF90016CE02FFF4C
:103DD20090016BE03E124CD8900171E0FEA3E0FF2F
:103DE200C390016CE09FFF90016BE09E124CD89053
:103DF2000171E0FEA3E0FF90016CE02FFF90016BE8
:103E0200E03EFE90016FE0FCA3E0FDC390016EE096
:103E12009DFD90016DE09C124CEC900171E0FEA3BF
:103E2200E0FFC390016CE09FFF90016BE09EFE906B
:103E3200016FE0FCA3E0FDC390016EE09DFD9001E7
:0F3E42006DE09CFC900173E0FAA3E0FB024CF5ED
:10368500900137EEF0A3EFF0A3ECF0A3EDF0A3EA81
:04369500F0A3EBF0C3
:10369900E4900141F0A3F090013DE0FEA3E0FF902A
:1036A9000143EEF0A3EFF025E0FFEE33FEC3740310
:1036B9009F900148F0E49E900147F090013FE0702F
:1036C90002A3E070030237C8900143E0FEA3E0FFC4
:1036D900900141E0FCA3E0FDD39FEE6480F8EC6427
:1036E9008098400302387A900145ECF0A3EDF09000
:1036F9000143E0FEA3E0FFD3900146E09FEE648022
:10370900F8900145E0648098502B900139E0FCA3C2
:10371900E0FD900141E0FAA3E0FB900145E0FFA341
:10372900E0CF123D14900146E004F070C2900145CB
:10373900E004F080BA900147E0FCA3E0FDC3EC642B
:103749008094805023900141E0FEA3E07802C333C6
:10375900CE33CED8F92DFFEC3ECF2406CF340090DE
:103769000147F0A3EFF08043900143E0FEA3E0FF9F
:10377900C3900142E09FFF900141E09EFEEF780275
:10378900C333CE33CED8F9FF900148E02FFF900123
:1037990047E03ECF240ACF3400F0A3EFF090014474
:1037A900E024FFF0900143E034FFF0900142E0048F
:1037B900F060030236D1900141E004F00236D19065
:1037C9000143E0FEA3E0FF900141E0FAA3E0FBD34F
:1037D9009FEE6480F8EA648098400302387A900189
:1037E90039E0FCA3E0FDEE123D14900147E0FCA393
:1037F900E0FDC3EC648094805023900141E0FEA376
:10380900E07802C333CE33CED8F92DFFEC3ECF2476
:1038190006CF3400900147F0A3EFF08043900143B5
:10382900E0FEA3E0FFC3900142E09FFF900141E069
:103839009EFEEF7802C333CE33CED8F9FF9001480C
:10384900E02FFF900147E03ECF240ACF3400F0A3D8
:10385900EFF0900144E024FFF0900143E034FFF0E1
:10386900900142E004F07006900141E004F0023753
:01387900C886
:01387A00222B
:10478A00900149EEF0A3EFF0A3ECF0A3EDF0A3EA59
:10479A00F0A3EBF0C007A3E0FFA3E09000D3CFF0B3
:1047AA00A3EFF0D00712387B90014FE0FCA3E0FDA5
:1047BA00A3E0FAA3E0FBA3E0FFA3E09000D3CFF0CD
:1047CA00A3EFF090014DE0FEA3E0FF12387B9001C9
:1047DA0053E0FCA3E0FD900149E0FAA3E0FBA3E06B
:1047EA00FFA3E09000D3CFF0A3EFF0900151E0FED9
:0647FA00A3E0FF02387B82
:1048C5009001A97401F0A37400F0A3743FF07B017B
:0448D5007A00793BB1
:0B48D9009001A6EBF0A3EAF0A3E9F0C9
:1048E4001220ABFFAEF09001A9E0FBA3E0FAA3E035
:1048F400F91220ABFD9001A6E0FBA3E0FAA3E0F9D6
:10490400E5F08DF01220D69001A9E0FBA3E0FAA314
:08491400E0F9EE8FF00220D65D
:101A0300900039EEF0A3EFF0A3ECF0A3EDF0A3EA1E
:041A1300F0A3EBF061
:101A170090005912221E0000000090005D12221E45
:101A27000000000090003FE0FEA3E0FF90003BE0D5
:101A3700FCA3E0D39FEC9E401A1248C59001A974FD
:101A470001F0A37400F0A3743DF07B017A007939AB
:101A57001248D9900043E0FEA3E0FF90003FE0FC6E
:101A6700A3E0D39FEC9E402E9001A97401F0A374CC
:101A770000F0A3743FF07B017A0079431248D990B4
:101A870001A97401F0A37400F0A3743DF07B017AFF
:101A97000079411248D990003FE0FEA3E0FF900093
:101AA7003BE0FCA3E0D39FEC9E401A1248C590018F
:101AB700A97401F0A37400F0A3743DF07B017A00D0
:101AC70079391248D9900043E0FEA3E0FF90003B2C
:101AD700E0FCA3E0FD6F7002EC6E6003021BAB90AD
:101AE7000039E0FEA3E0FF900047EEF0A3EFF0908F
:101AF7000045EEF0A3EFF0900045E0FEA3E0FF9075
:101B0700003DE0FAA3E0FBC39FEA9E500A90004520
:101B1700EAF0A3EBF0801E900047E0FEA3E0FFD3BE
:101B2700EB9FEA9E400F90003DE0FFA3E090004747
:101B3700CFF0A3EFF0900045E0FEA3E0FF90004157
:101B4700E0FAA3E0FBC39FEA9E500A900045EAF043
:101B5700A3EBF0801E900047E0FEA3E0FFD3EB9FCE
:101B6700EA9E400F900041E0FFA3E0900047CFF0CE
:101B7700A3EFF0900047E0FAA3E0FB90003BE0FF03
:101B8700A3E090012BCFF0A3EFF0900112E0FFA3A9
:101B9700E090012DCFF0A3EFF0900045E0FEA3E029
:101BA700FF023E85900039E0FAA3E0FB90003DE09C
:101BB700FEA3E0C39BFFEE9A90004DF0A3EFF090D9
:101BC700003BE0FEA3E0FF90003FE0FCA3E0C39FE3
:101BD700FFEC9E90004FF0A3EFF0900041E0FEA3D2
:101BE700E0C39BFFEE9A900051F0A3EFF090003B0B
:101BF700E0FEA3E0FF900043E0FCA3E0C39FFFECFF
:101C07009E900053F0A3EFF090003DE0FEA3E0FFAD
:101C1700900041E0FCA3E0C39FFFEC9E900055F0CD
:101C2700A3EFF090003FE0FAA3E0FB900043E0FC55
:101C3700A3E0FDC39BFEEC9A900057F0A3CEF0EB18
:101C4700B50510EAB5040C90003FFFA3E090004BE8
:101C5700CF801090003FE0FEA3E024FFFFEE34FFAB
:101C670090004BF0A3EFF090003BE0FFA3E0900063
:101C770049CFF0A3EFF090004BE0FEA3E0FF900008
:101C870049E0FCA3E0D39FEC9E4003021D97900020
:101C97004FE0FEA3E0FBAA06EA3395E0F9F89000CF
:101CA70059E0FCA3E0FDA3E0FEA3E0FF124A469043
:101CB7000039E0FCA3E02FFFEC3E900045F0A3EFD6
:101CC700F0900053E0FEA3E0FBAA06EA3395E0F9A3
:101CD700F890005DE0FCA3E0FDA3E0FEA3E0FF12A7
:101CE7004A46900039E0FCA3E02FFFEC3E90004706
:101CF700F0A3EFF0900059E0F8A3E0F9A3E0FAA30E
:101D0700E0FB90004DE0FEA3E0FFEE3395E0FDFC25
:101D1700EB2FFFEA3EFEE93DFDE83CFC900059123F
:101D2700221290005DE0F8A3E0F9A3E0FAA3E0FB3C
:101D3700900051E0FEA3E0FFEE3395E0FDFCEB2FB2
:101D4700FFEA3EFEE93DFDE83CFC90005D122212F1
:101D5700900047E0FEA3E0FF900045E0FCA3E0D33E
:101D67009FEC9E40179001A97401F0A37400F0A3A3
:101D77007447F07B017A0079451248D9123E519099
:101D8700004AE004F07006900049E004F0021C7D70
:101D970090003FE0FEA3E0FF900049E0FAA3E0FBDC
:101DA700C39FFFEA9EFE900055E0FCA3E0FD1220D2
:101DB7006DE4FCFD90005912221290003BE0FEA357
:101DC700E0FFC3EB9FFFEA9EFE900051E0FCA3E01B
:101DD700FD12206DE4FCFD90005D1222129000437D
:101DE700E0FEA3E0FF900049E0FCA3E0D39FEC9E58
:101DF7004003021EFC900057E0FEA3E0FBAA06EAA0
:101E07003395E0F9F8A3E0FCA3E0FDA3E0FEA3E02F
:101E1700FF124A4690003DE0FCA3E02FFFEC3E9006
:101E27000045F0A3EFF0900053E0FEA3E0FBAA0605
:101E3700EA3395E0F9F890005DE0FCA3E0FDA3E04C
:101E4700FEA3E0FF124A46900039E0FCA3E02FFF13
:101E5700EC3E900047F0A3EFF0900059E0F8A3E0C4
:101E6700F9A3E0FAA3E0FB900055E0FEA3E0FFEE44
:101E77003395E0FDFCEB2FFFEA3EFEE93DFDE83C34
:101E8700FC90005912221290005DE0F8A3E0F9A33C
:101E9700E0FAA3E0FB900051E0FEA3E0FFEE3395EC
:101EA700E0FDFCEB2FFFEA3EFEE93DFDE83CFC9040
:101EB700005D122212900047E0FEA3E0FF9000456C
:101EC700E0FCA3E0D39FEC9E40179001A97401F0BA
:101ED700A37400F0A37447F07B017A007945124898
:101EE700D9123E5190004AE004F07006900049E094
:051EF70004F0021DE4EF
:011EFC0022C3
:10326300F0900019E0900027F0900011E0FAA3E03D
:01327300FB5F
:1032740090001DEEF0A3EFF0900021EAF0A3EBF034
:0832840090001FECF0A3EDF037
:10328C00900112E0FFA3E090002BCFF0A3EFF090A1
:10329C000025E024E0F0A3E0F9C313FF7E009000CA
:1032AC001DE0FAA3E02FFFEE3ACF24FFFBEF34FF33
:1032BC00FAE9FFA3E0F8A3E02FFFEE38CF24FFCF0D
:1032CC0034FF900037F0A3EFF090001DE0FEA3E078
:1032DC00FF124864900027E06003023383900029BA
:1032EC00F0900026E0FF900029E0FEC39F4003020F
:1032FC003442EFB40C17900025E075F00CA42403B5
:10330C00F582E5F03400F583E5822E801A900029D1
:10331C00E0FF900025E075F010A42477F582E5F02D
:10332C003404F583E5822FF582E43583F583E49349
:10333C00900028F0E490002AF0900026E0C313FFE0
:10334C0090002AE0C39F5026900028E030E00590C2
:10335C0000218003900023E0FEA3E0FF1250319087
:10336C000028E0C313F090002AE004F080CB90001A
:10337C0029E004F00232EDE4900029F0900026E000
:10338C00FF900029E0FEC39F4003023442EFB40CCF
:10339C0017900025E075F00CA42403F582E5F034B9
:1033AC0000F583E5822E801A900029E0FF9000251D
:1033BC00E075F010A42477F582E5F03404F583E58C
:1033CC00822FF582E43583F583E493900028F0E4B2
:1033DC0090002AF0900026E0C313FF90002AE0FE34
:1033EC00C39F5049900021E0FDA3E0900112CDF065
:1033FC00A3EDF0900028E030E024EEFF90001EE0FA
:10340C002FFF90001DE03400FE900029E0FD90009D
:10341C0020E02DFD90001FE03400FC124D3C90008C
:10342C0028E0C313F090002AE004F080A790002954
:10343C00E004F002338890002BE0FFA3E09001122F
:10344C00CFF0A3EFF0900117E024FFFB900116E002
:10345C0034FFFA900119E024FFFE900118E034FFCC
:0F346C00900037F0A3CEF0E4FDFCFFFE024864B1
:1042340090017EEEF0A3EFF0A3ECF0A3EDF0A3EB7E
:10424400F0900183E0FBA3E0FAA3E0F9121FF3FF6F
:10425400D3947E40030242F2EFC3942050030242FF
:10426400F2900117E024FFFD900116E034FFFC906A
:10427400017EE0FEA3E0FFD39DEE9C5071900119F6
:10428400E024FFFB900118E034FFFA900180E0FC89
:10429400A3E0FDD39BEC9A5055900114E0FBA3E0FE
:1042A400900023CBF0A3EBF0900183E0FBA3E0FAB2
:1042B400121FF3900025F0900182E0900026F09008
:1042C4000186E0900027F090011212326F90018273
:1042D400E0C313FF90017FE02FF090017EE03400F3
:0F42E400F0900184E475F00112207F0242452220
:0849B90090000DEFF0A3EDF0FA
:1049C100A312221E0000000190000EE0FF14F0EF80
:1049D1006020A3E0F8A3E0F9A3E0FAA3E0FB9000D4
:1049E1000DE0FFE4FCFDFE1220F590000F122212F3
:1049F10080D690000FE0FCA3E0FDA3E0FEA3E0FF62
:014A01002292
:0E3F7E00900000EEF0A3EFF0A3ECF0A3EDF046
:103F8C00E490000CF090000AF0900008E0FF900024
:103F9C000AE0FEC39F400302408EC3EF9E14FD7FD8
:103FAC000A1249B9A804A905AA06AB07900004E0B7
:103FBC00FCA3E0FDA3E0FEA3E0FF122180E47B0A5A
:103FCC00FAF9F812218090000BEBF0A3E0705790F7
:103FDC000008E014FF90000AE0FEC39F5048A3E0E5
:103FEC00703E900009E0F9C3138EF0A4FF9000011D
:103FFC00E02FFF900000E035F0FEC007900002E0DB
:10400C00FCA3E0FD900112E0FAA3E0FB900114E0A8
:10401C00FFA3E0900023CFF0A3EFF0A37420804D1A
:10402C0090000C7401F0900009E0F9C313FFA3E0B9
:10403C00FEEF8EF0A4FF900001E02FFF900000E057
:10404C0035F0FEC007900002E0FCA3E0FD900112E9
:10405C00E0FAA3E0FB900114E0FFA3E0900023CF73
:10406C00F0A3EFF090000BE02430900025F0A3E9D2
:10407C00F0E4A3F0D00712327490000AE004F002CE
:02408C003F955E
:01408E00220F
:102B9A0090001FECF0A3EDF0A3EAF0A3EBF0900095
:062BAA001DEEF0A3EFF0A8
:102BB00090002FEEF0A3EFF090002DE4F0A3744B03
:102BC000F0E490002BF0A3F090002DE0FEA3E0FFD6
:102BD00090002BE0FCA3E0FDC39FEC9E4003022D80
:102BE000B3900025E0FBA3E0FAA3E0F9121FF3FF86
:102BF000900A6775F022ED12224FEC75F022A425A1
:102C000083F583E4936F6003022DA29000011220EC
:102C10000CFF90002BA3E0900A6875F02212224F5F
:102C2000EC75F022A42583F583E4936F6003022DF5
:102C3000A290001DE0FAA3E0FBFFAE02C006C007B1
:102C4000A3E0FCA3E0FDEB240FFBE43AFA90001FA5
:102C5000E0FEA3E0240FFFE43E900037F0A3EFF086
:102C6000D007D006124864E4900029F0E490002ACE
:102C7000F090002AE0FFC394084003022D939000D7
:102C800028E0705AA3E0FE90002BE0FCA3E0900A3D
:102C90006975F02212224FEC75F022A42583F5838A
:102CA000E5822EF582E43583F583E493FD3395E0E8
:102CB000FC7E007480A807088006CEA2E713CE131E
:102CC000D8F8FFEE5CFEEF5D4E60059000218003BA
:102CD000900023E0FEA3E0FF125031022D8A900005
:102CE00021E0FFA3E0900112CFF0A3EFF0900029C4
:102CF000E0FF90002BE0FCA3E0900A6975F022123F
:102D0000224FEC75F022A42583F583E5822FF5820E
:102D1000E43583F583E493FD3395E0FC90002AE0ED
:102D2000FF7E007480A807088006CEA2E713CE13AA
:102D3000D8F8FFEE5CFEEF5D4E601190001DE0FEE6
:102D4000A3E0FFA3E0FCA3E0FD124D3C90001EE0D9
:102D500004F0700690001DE004F090002FE0FEA348
:102D6000E0FFC390001EE09FFD90001DE09EFCED83
:102D700064104C7015EEF0A3EFF0900020E004F02A
:102D8000701190001FE004F0800990002AE004F028
:102D9000022C71900029E004F0E0C394205003025B
:102DA0002C6C90002CE004F0700690002BE004F0F6
:102DB000022BC8900117E024FFFB900116E034FFBE
:102DC000FA900119E024FFFE900118E034FF900012
:0D2DD00037F0A3CEF0E4FDFCFFFE024864E6
:102DDD0090001FECF0A3EDF0A3EAF0A3EBF0900050
:062DED001DEEF0A3EFF063
:102DF30090002FEEF0A3EFF090002DE4F0A3740900
:102E0300F0E490002BF0A3F090002DE0FEA3E0FF90
:102E130090002BE0FCA3E0FDC39FEC9E4003022F38
:102E2300F6900025E0FBA3E0FAA3E0F9121FF3FFFD
:102E330090145D75F04AED12224FEC75F04AA4250B
:102E430083F583E4936F6003022FE5900001122062
:102E53000CFF90002BA3E090145E75F04A12224FF2
:102E6300EC75F04AA42583F583E4936F6003022F86
:102E7300E590001DE0FAA3E0FBFFAE02C006C00729
:102E8300A3E0FCA3E0FDEB2417FBE43AFA90001F58
:102E9300E0FEA3E02417FFE43E900037F0A3EFF039
:102EA300D007D006124864E4900029F0E490002A89
:102EB300F090002AE0FFC394084003022FD690004D
:102EC30028E0705AA3E0FE90002BE0FCA3E09014EE
:102ED3005F75F04A12224FEC75F04AA42583F583FF
:102EE300E5822EF582E43583F583E493FD3395E0A3
:102EF300FC7E007480A807088006CEA2E713CE13D9
:102F0300D8F8FFEE5CFEEF5D4E6005900021800374
:102F1300900023E0FEA3E0FF125031022FCD90007A
:102F230021E0FFA3E0900112CFF0A3EFF09000297E
:102F3300E0FF90002BE0FCA3E090145F75F04A12D1
:102F4300224FEC75F04AA42583F583E5822FF582A1
:102F5300E43583F583E493FD3395E0FC90002AE0A8
:102F6300FF7E007480A807088006CEA2E713CE1365
:102F7300D8F8FFEE5CFEEF5D4E601190001DE0FEA1
:102F8300A3E0FFA3E0FCA3E0FD124D3C90001EE094
:102F930004F0700690001DE004F090002FE0FEA303
:102FA300E0FFC390001EE09FFD90001DE09EFCED3E
:102FB30064184C7015EEF0A3EFF0900020E004F0DD
:102FC300701190001FE004F0800990002AE004F0E3
:102FD300022EB4900029E004F0E0C39448500302A9
:102FE3002EAF90002CE004F0700690002BE004F06C
:102FF300022E0B900117E024FFFB900116E034FF33
:10300300FA900119E024FFFE900118E034FF9000CC
:0D30130037F0A3CEF0E4FDFCFFFE024864A0
:1030200090001FECF0A3EDF0A3EAF0A3EBF090000A
:063030001DEEF0A3EFF01D
:1030360090002FEEF0A3EFF090002DE4F0A37406BD
:10304600F0E490002BF0A3F090002DE0FEA3E0FF4B
:1030560090002BE0FCA3E0FDC39FEC9E40030232F0
:1030660039900025E0FBA3E0FAA3E0F9121FF3FF75
:103076009016F775F082ED12224FEC75F082A425BA
:1030860083F583E4936F60030232289000011220D7
:103096000CFF90002BA3E09016F875F08212224FD9
:1030A600EC75F082A42583F583E4936F6003023206
:1030B6002890001DE0FAA3E0FBFFAE02C006C007A1
:1030C600A3E0FCA3E0FDEB241FFBE43AFA90001F0B
:1030D600E0FEA3E0241FFFE43E900037F0A3EFF0EC
:1030E600D007D006124864E4900029F0E490002A44
:1030F600F090002AE0FFC3940840030232199000C2
:1031060028E0705AA3E0FE90002BE0FCA3E09016A6
:10311600F975F08212224FEC75F082A42583F583AF
:10312600E5822EF582E43583F583E493FD3395E05D
:10313600FC7E007480A807088006CEA2E713CE1393
:10314600D8F8FFEE5CFEEF5D4E600590002180032F
:10315600900023E0FEA3E0FF1250310232109000EF
:1031660021E0FFA3E0900112CFF0A3EFF090002939
:10317600E0FF90002BE0FCA3E09016F975F08212B8
:10318600224FEC75F082A42583F583E5822FF58224
:10319600E43583F583E493FD3395E0FC90002AE063
:1031A600FF7E007480A807088006CEA2E713CE1320
:1031B600D8F8FFEE5CFEEF5D4E601190001DE0FE5C
:1031C600A3E0FFA3E0FCA3E0FD124D3C90001EE04F
:1031D60004F0700690001DE004F090002FE0FEA3BE
:1031E600E0FFC390001EE09FFD90001DE09EFCEDF9
:1031F60064204C7015EEF0A3EFF0900020E004F090
:10320600701190001FE004F0800990002AE004F09D
:103216000230F7900029E004F0E0C39480500302E6
:1032260030F290002CE004F0700690002BE004F0E1
:1032360002304E900117E024FFFB900116E034FFA8
:10324600FA900119E024FFFE900118E034FF900087
:0D32560037F0A3CEF0E4FDFCFFFE0248645B
:1029040090000FECF0A3EDF0A3EAF0A3EBF090003D
:062914000DEEF0A3EFF050
:10291A0090001AEEF0A3EFF0E4A3F0900015E0FBAC
:10292A00A3E0FAA3E0F9121FF37003022B999000B7
:10293A001CE06003022A5B900018E0FFC313FDC38A
:10294A00900117E09DFD900116E09400FCD39000E1
:10295A000EE09D90000DE09C4003022B99C390016C
:10296A0019E09FFF900118E09400FE90000FE0FC30
:10297A00A3E0FDD39FEC9E4003022B99121FF3FFA5
:10298A00D39480400890001C7401F0808EEFB40D3F
:10299A002E900018E0FF900010E02FF090000FE05A
:1029AA003400F090001AE0FFA3E090000DCFF0A3EE
:1029BA00EFF0900016E475F00112207F022A4E9083
:1029CA000018E0D3941090000DE0FEA3E0FF402F22
:1029DA00900013E0FBA3E0900023CBF0A3EBF09070
:1029EA000015E0FBA3E0FAA3E0F9121FF39000251B
:1029FA00F0A3741012326390000EE02408803DA305
:102A0A00E0FCA3E0FD900013E0FBA3E0900023CBE1
:102A1A00F0A3EBF0900015E0FBA3E0FAA3E0F912B3
:102A2A001FF3900025F0900018E090002612326300
:102A3A00900018E0C313FF90000EE02FF090000DF5
:102A4A00E03400F0900016E475F00112207F0229AC
:102A5A0025900018E0F9FF7E00C3900117E09FFD62
:102A6A00900116E09EFCD390000EE09D90000DE0D0
:102A7A009C4003022B99C3900119E09FFF90011813
:102A8A00E09EFE90000FE0FCA3E0FDD39FEC9E4089
:102A9A0003022B99E490001CF0E9B4204290000D47
:102AAA00E0FEA3E0FF900013E0FBA3E0900023CB3D
:102ABA00F0A3EBF0900015E0F9A3E0FAA3E0900090
:102ACA0025C9F0A3EAF0A3E9F0900019E0900028E4
:102ADA00F0900011E0FAA3E0FB123020022B7A906A
:102AEA000018E0641890000D7044E0FEA3E0FFA314
:102AFA00E0FCA3E0FD900013E0FBA3E0900023CBF1
:102B0A00F0A3EBF0900015E0F9A3E0FAA3E090003F
:102B1A0025C9F0A3EAF0A3E9F0900019E090002893
:102B2A00F0900011E0FAA3E0FB122DDD8042E0FEF6
:102B3A00A3E0FFA3E0FCA3E0FD900013E0FBA3E009
:102B4A00900023CBF0A3EBF0900015E0F9A3E0FA94
:102B5A00A3E0900025C9F0A3EAF0A3E9F0900019D8
:102B6A00E0900028F0900011E0FAA3E0FB122B9A03
:102B7A00900016E475F00212207F900018E0FF9092
:0F2B8A00000EE02FF090000DE03400F00229253E
:012B99002219
:1044EC00900000EEF0A3EFF0A3ECF0A3EDF0A3EA44
:0444FC00F0A3EBF04E
:10450000900008E0FBA3E0FAA3E0F9124F5CEF781B
:1045100003C333CE33CED8F9FFC3900117E09FFF1A
:10452000900116E09EC313FEEF13FF900001E02FF1
:10453000FF900000E03EFE900002E0FCA3E0FD9052
:104540000006E0FBA3E0900013CBF0A3EBF090009B
:1045500008E0F9A3E0FAA3E0900015C9F0A3EAF09F
:10456000A3E9F090000BE0900018F090000CE090B0
:0E4570000019F0900004E0FAA3E0FB02290419
:10408F00900160EEF0A3EFF0900164EBF0A3EAF083
:0B409F00A3E9F0900162ECF0A3EDF04B
:1040AA00900160E0FAA3E0FFAE02C006C007242731
:1040BA00FBE43AFAA3E0FEA3E02427FFE43E9000E3
:1040CA0037F0A3EFF0D007D006124864E4900167F6
:1040DA00F0A3F0900168E025E0FF900167E033FE6D
:1040EA00900164E0FBA3E0FAA3E0F98F828E8312C9
:1040FA00200C90016AF0E92FF9EA3EFA90000112C9
:10410A00200C900169F0FEA3E0FDEDFF1250319002
:10411A000168E004F07006900167E004F0C39001C2
:10412A0068E09440900167E06480948640A590011D
:10413A0017E024FFFB900116E034FFFA900119E022
:10414A0024FFFE900118E034FF900037F0A3CEF070
:08415A00E4FDFCFFFE024864D5
:0300000002457E38
:0C457E00787FE4F6D8FD7581210245C568
:101EFD00E709F608DFFA8046E709F208DFFA803EC7
:101F0D0088828C83E709F0A3DFFA8032E309F608B3
:101F1D00DFFA8078E309F208DFFA807088828C831B
:101F2D00E309F0A3DFFA806489828A83E0A3F608CF
:101F3D00DFFA805889828A83E0A3F208DFFA804CA9
:101F4D0080D280FA80C680D4806980F28033801080
:101F5D0080A680EA809A80A880DA80E280CA8033E9
:101F6D0089828A83ECFAE493A3C8C582C8CCC58361
:101F7D00CCF0A3C8C582C8CCC583CCDFE9DEE78031
:101F8D000D89828A83E493A3F608DFF9ECFAA9F0B0
:101F9D00EDFB2289828A83ECFAE0A3C8C582C8CC06
:101FAD00C583CCF0A3C8C582C8CCC583CCDFEADE1F
:101FBD00E880DB89828A83E493A3F208DFF980CC81
:101FCD0088F0EF60010E4E60C388F0ED2402B4047A
:101FDD000050B9F582EB2402B4040050AF23234521
:061FED008223901F4D73DA
:101FF300BB010689828A83E0225002E722BBFE02EC
:09200300E32289828A83E493221E
:10200C00BB010CE58229F582E5833AF583E0225089
:10201C0006E92582F8E622BBFE06E92582F8E222D3
:0D202C00E58229F582E5833AF583E49322ED
:10203900BB010689828A83F0225002F722BBFE0186
:02204900F32280
:10204B00F8BB010DE58229F582E5833AF583E8F0CB
:10205B00225006E92582C8F622BBFE05E92582C877
:02206B00F2225F
:10206D00EF8DF0A4A8F0CF8CF0A428CE8DF0A42E87
:02207D00FE2241
:10207F00C5F0F8A3E028F0C5F0F8E58215827002EC
:06208F001583E038F02289
:10209500A3F8E0C5F025F0F0E582158270021583FE
:0620A500E0C838F0E8225B
:1020AB00BB010A89828A83E0F5F0A3E02250068700
:1020BB00F009E71922BBFE07E3F5F009E3192289C2
:0B20CB00828A83E493F5F074019322F5
:1020D600BB010A89828A83F0E5F0A3F0225006F755
:0F20E60009A7F01922BBFE06F3E5F009F3192252
:1020F500E88FF0A4CC8BF0A42CFCE98EF0A42CFC8A
:102105008AF0EDA42CFCEA8EF0A4CDA8F08BF0A407
:102115002DCC3825F0FDE98FF0A42CCD35F0FCEB66
:102125008EF0A4FEA9F0EB8FF0A4CFC5F02ECD392B
:0F213500FEE43CFCEAA42DCE35F0FDE43CFC2298
:1021440075F008758200EF2FFFEE33FECD33CDCC52
:1021540033CCC58233C5829BED9AEC99E5829840D5
:102164000CF582EE9BFEED9AFDEC99FC0FD5F0D6B2
:10217400E4CEFBE4CDFAE4CCF9A88222B800C1B9DC
:102184000059BA002DEC8BF084CFCECDFCE5F0CB1A
:10219400F97818EF2FFFEE33FEED33FDEC33FCEB53
:1021A40033FB10D703994004EB99FB0FD8E5E4F90E
:1021B400FA227818EF2FFFEE33FEED33FDEC33FCFB
:1021C400C933C910D7059BE99A4007EC9BFCE99AEF
:1021D400F90FD8E0E4C9FAE4CCFB2275F010EF2F34
:1021E400FFEE33FEED33FDCC33CCC833C810D70734
:1021F4009BEC9AE899400AED9BFDEC9AFCE899F86F
:0E2204000FD5F0DAE4CDFBE4CCFAE4C8F92201
:104A4600C2D5E830E70FB2D5E4C39BFBE49AFAE49B
:104A560099F9E498F8EC30E717B2D5124A7C12219E
:104A660080E4C39BFBE49AFAE499F9E498F880039E
:104A760012218030D50DE4C39FFFE49EFEE49DFD28
:044A8600E49CFC228E
:0C221200ECF0A3EDF0A3EEF0A3EFF0223F
:10221E00A8828583F0D083D0821222351222351205
:10222E002235122235E473E493A3C583C5F0C5832A
:10223E00C8C582C8F0A3C583C5F0C583C8C582C80A
:01224E00226D
:0C224F00A42582F582E5F03583F583229A
:1022A100E5082464F582E43400F583E00508229012
:1022B1000061300703900064E475F00112225B02B3
:1022C1001FF32000E97F2ED2008018EF540F2490D5
:1022D100D43440D4FF30040BEF24BFB41A005003B0
:1022E1002461FFE50960021509050CE50C70020582
:1022F1000B30070E900061E475F00112225BEF02D2
:102301002039024D8D7403D2078003E4C207F5081A
:10231100900061122272E4F509F50BF50CE50960F4
:10232100077F201222E480F5750AFFC201C200C2B4
:1023310002C203C205C206C2081222B0FF700D30EC
:1023410007057F001222F5AF0CAE0B22B4255FC248
:10235100D5C2041222B0FF24D0B40A00501A75F07D
:102361000A780930D50508B6FF0106C6A426F6206D
:10237100D5047002D20380D924CFB41A00EF5004DF
:10238100C2E5D2040224F6D20180C6D20080C0D2B6
:102391000280BCD2D580BAD20580B47F201222E45B
:1023A1002002077401B5090040F11222A1FF122297
:1023B100E402231ED208D20680951222A1FB12222A
:1023C100A1FA1222A1F94A4B700679C77A257BFF3F
:1023D10020022EE509602A7E008E8275830012207C
:1023E1000C60060EEE650A70F0C2D5EBC0E0EAC0E3
:1023F100E0E9C0E0EE12253DD0E0F9D0E0FAD0E00E
:10240100FB121FF3FF60AAEBC0E0EAC0E0E9C0E005
:102411001222E4D0E02401F9D0E03400FAD0E0FB4C
:10242100E50A0460DCD50AD980877BFF7A257939F2
:10243100D202809C791080027908C206C208800805
:10244100D2D5790A8004790AC2D5E50A047002F569
:102451000AE4FAFDFEFF1222A1FC7B0820011312FF
:1024610022A1FD7B1030000A1222A1FE1222A1FF3F
:102471007B20EC3382D592D55013C3E43000069F04
:10248100FFE49EFEE42001039DFDE49CFCE4CBF807
:10249100C201EC700CCFCECDCCE824F8F870F380FB
:1024A10017C3EF33FFEE33FEED33FDEC33FCEB33BB
:1024B100FB994002FB0FD8E9EB300105F8D0E0C4ED
:1024C10048B201C0E00AEC4D4E4F78207B0070C24B
:1024D100EAB50A0040BCC0E012253FD0F0D0E020B0
:1024E1000104C4C0E0C4B201C0F01222CDD0F0D5C5
:1024F100F0EB02231E12227B23BB53243558238C7D
:102501004C23884224394F24414424414923A14387
:08251100244755242B46242B1E
:1025190045242B4725E75023902D23942E23B72BB1
:1025290023982323B52025D02A235048000023AF20
:102539003F3F3F00790AA2D5200314300509B9109D
:10254900020404B9080104A2D5200602500104209E
:1025590002689202B509005034C0E07F20300319A7
:102569007F30A20272067205500F122596C202C26E
:1025790006C205C2087F30800F300503E9C0E012AA
:1025890022E4300503D0E0F9D0E0B509CC300517D5
:102599007F30B9100C1222E47F583004077F78800D
:1025A90003B908031222E43002057F2D0222E47FD9
:1025B900202008F87F2B2006F322920280CF286E74
:1025C900756C6C2900D2011222A13001F8C2017880
:1025D9000930D50108F60223502D504349581222DB
:1025E900A12403B405004001E49025E2931222D509
:0D25F900743A1222D5D2037509040224356C
:104F5C00E4FFFE121FF3600C0FEF70010E09E970F5
:054F6C00F20A80EF22B3
:10458A00023A66E493A3F8E493A34003F68001F2A7
:10459A0008DFF48029E493A3F85407240CC8C33332
:1045AA00C4540F4420C8834004F456800146F6DF01
:1045BA00E4800B0102040810204080904B0FE47E37
:1045CA00019360BCA3FF543F30E509541FFEE493F6
:1045DA00A360010ECF54C025E060A840B8E493A3BD
:1045EA00FAE493A3F8E493A3C8C582C8CAC583CAE8
:1045FA00F0A3C8C582C8CAC583CADFE9DEE780BEA0
:014B4E000066
:10225B00F8E0FBA3A3E0F925F0F0E582158270020C
:07226B001583E0FA38F022B0
:09227200EBF0A3EAF0A3E9F0226D
:10227B00D083D082F8E4937012740193700DA3A3F2
:10228B0093F8740193F5828883E473740293686006
:06229B00EFA3A3A380DF06
:104D8D00EFB40A07740D124D98740A309811A89952
:104D9D00B8130CC2983098FDA899C298B811F63086
:074DAD0099FDC299F599225E
:00000001FF
