:0D7C2F002F3234626D702F322E626D7000A6
:107A3800E4F594F593F592F591F596F595F5B2F58B
:107A4800B1F5B4F5B3F5CAF5C9F5CCF5CBF5E2F562
:027A5800E12229
:106ACA00E490053CF0A3F0A3F0125C8FEF600302A0
:106ADA006B8790024404F0A3743FF07BEF7A00E4E2
:106AEA00FDFCFFFE1273A99002437401F0A3740522
:106AFA00F0A37438F07B017A00792A7D007C0212B7
:106B0A002F98E490053AF0A3F090053AE0FEA3E04E
:106B1A00FFC3EE940150D0EF25E0FDEE33FC742B59
:106B2A002DF58274003CF583E0FE742A2DF58274FB
:106B3A00003CF583E07C002400FFEC3EFE12781A4C
:106B4A0090053EE004F0E064F0702290053DE00418
:106B5A00F0700690053CE004F0E490053EF09005E4
:106B6A003CE0B40108A3E0B440037F002290053B57
:0F6B7A00E004F0709490053AE004F0808C7F0105
:016B890022E9
:103CE600E490022CF0A3F0900238F090023CF0121F
:103CF6005C8FEF6003023F947B0190024304F0A3C4
:103D06007402F0A3742AF07A00792A7D367C0012B8
:103D16002F9890022AE07004A3E0643660037F01C6
:103D26002290003CE090023AF0FD900041E0FE90C7
:103D36000040E07A002400FFEA3E900230F0A3EF54
:103D4600F0900046E0131313541F90023DF0EDFF70
:103D56007E00C394EF74809480500DC374F09FFF6F
:103D6600E49EC313EF138001E4900239F090023011
:103D7600E0FEA3E0FFC3943FEE94015018C37440E5
:103D86009FFF74019EC313FEEF13FF90022EEEF009
:103D9600A3EFF08007E490022EF0A3F0900239E042
:103DA60090023BF090022EE0FFA3E0900232CFF0AB
:103DB600A3EFF07F0412740A90023BE0F9FF7E0045
:103DC600C006C007900232E0FCA3E0FD90023AE094
:103DD600FFE92FFFE433CF24FFFBEF34FFFA900215
:103DE60030E0FEA3E0FFA3E0F8A3E02FFFE83ECF1C
:103DF60024FFCF34FF900244F0A3EFF0D007D006A3
:103E06001273A9D2E99002437401F0A37402F0A3DD
:103E1600742AF07B017A00792A7D007C02122F98A1
:103E2600E4900234F0A3F0900234E0FEA3E0FFC376
:103E3600EE940250D090023DE0F964027044900284
:103E46003CE0146028046003023F03742A2FF582C5
:103E560074003EF583E0FD541FFF900236E4F0A3A4
:103E6600EFF0ED54E025E0FFE433FE806B90023482
:103E7600E0FEA3E0242AF58274003EF583E025E007
:103E8600806DE96403707690023CE014602814604B
:103E96004B24027068900234E0FEA3E0242AF582E7
:103EA60074003EF583E0131313541FFF900236E4AB
:103EB600F0A3EFF08047900234E0FEA3E0242AF559
:103EC6008274003EF583E075F008A4FFE5F0540720
:103ED600FEEF54E0FF900237E02F801A900234E0A4
:103EE600FEA3E0242AF58274003EF583E054F8FE32
:103EF600900237E02400F0900236E03EF090023C5B
:103F0600E004F0A3E0FF90023CE06F707090023690
:103F1600E0FEA3E0FF12781AE4900236F0A3F090D8
:103F2600023CF090023BE004F0900239E0FFFDA372
:103F3600E02DFDE433FCA3E07A00B50540EAB504C4
:103F46003C900233E024FFF0900232E034FFF09020
:103F5600023BEFF0900230E0FEA3E0FFC390022F99
:103F6600E09FFF90022EE09EFE900232E0B5060D25
:103F7600A3E0B507087F0112740A7F00229002357C
:103F8600E004F07006900234E004F0023E2D7F015A
:013F96002208
:10795300127A38125B2F127C3C74FFFFFE127163A4
:107963001256C07B017A0079001226967BFF7A7C3F
:07797300792F123CE680FEB3
:107A7C00E4FDFCC3ED9FEC9E5016E4FBEBC39403BA
:107A8C007480948050030B80F30DBD00010C80E3D7
:017A9C0022C7
:107A9D00E4FDFCC3ED9FEC9E5016E4FBEBC3940597
:107AAD007480948050030B80F30DBD00010C80E3B6
:017ABD0022A6
:08777D0090055FEEF0A3EFF0B0
:10778500E4A3F0A3F090055FE0FEA3E0FFC390053E
:1077950062E09F900561E09E50157FFA7E00127AA7
:0F77A5009DA3E004F070DE900561E004F080D653
:0177B40022B2
:0877B50090022AEEF0A3EFF0B0
:1077BD00E4A3F0A3F090022AE0FEA3E0FFC3900241
:1077CD002DE09F90022CE09E50157FFA7E00127ADC
:0F77DD009DA3E004F070DE90022CE004F080D653
:0177EC00227A
:107ABE00E4FDFCC3ED9FEC9E5016E4FBEBC394017A
:107ACE007480948050030B80F30DBD00010C80E395
:017ADE002285
:047C9A0000000000E6
:0A78250042044B000042044DFFFF37
:0F7BF500C2E8C2C28FA0AF058F80D2C2D2E822F1
:107B3600C2E8C2C47F017E00127ABEAFA0EFFEADDE
:077B460080EDFFD2C4D2E87C
:017B4D002215
:047C04007F367E0049
:0B7C0800AD07AC06C2E9ECFF027BF503
:1077ED0012781A7F2A127C08E4FF12781AE4FF122D
:1077FD00781A7F0112781A7F3F12781A7F2B127C2C
:0D780D0008E4FF12781AE4FF12781A7F01D8
:0B781A00AD07AC06D2E9ECFF027BF5E5
:057C9000D2E9027B3681
:0B7C5500AD07AC06D2E9ECFF027BF5A6
:107ADF00AA07ED54FC75F008A4FDEA54F845F0FE32
:0F7AEF00EDFFEB54F8131313541FFDEF4DFF225F
:1071E400D2E9C2E8C2C47F017E00127ABEAFA09089
:1071F4000576E4F0A3EFF0E0FFAD80ED900576CFE7
:10720400F0A3EFF0D2C4C2C47F017E00127ABEAFF5
:10721400A0900576E4F0A3EFF0E0FFAD80ED9005DB
:1072240076CFF0A3EFF0D2C4C2C47F017E00127AFD
:10723400BEAFA0AD07EDAD80FCD2C4ECFB7A007C00
:1072440000900577E0FD900576E0FF7E00EEF0A368
:07725400EFF0D2E8027ADF3F
:0E7C1300AB05AA04127C08AE02AF0302781A79
:10768200900541EBF0A3EAF0A3E9F0127C0875A0A3
:10769200FF7580FF90054474FFF5F0121B9B45F0C7
:1076A2006019127C90900541E0FBA3E475F0011291
:1076B2001B9BA9F0FAEF121B3F80D975A0FF7580C2
:0276C200FF22A5
:0B7C6000900456E0FEA3E0FF027C0849
:0B7C6B00900458E0FEA3E0FF027C083C
:0871630090022AEEF0A3EFF008
:10716B00900450E024FFFB90044FE034FFFA9004AE
:10717B0052E024FFFE900451E034FF900244F0A350
:10718B00CEF0E4FDFCFFFE1273A9E490022CF0A3F9
:10719B00F090044FE0FEA3E0FFC390022DE09F9020
:1071AB00022CE09E5032E4FBFAD3900452E09B9009
:1071BB000451E09A401290022AE0FEA3E0FF127CF9
:1071CB00550BBB00010A80E190022DE004F070C169
:0871DB0090022CE004F080B9E1
:0171E3002289
:10792900AB07AA068D828C83C006C007AE83AF82DF
:10793900900244EEF0A3EFF0D007D0061273A9909D
:0A794900044BE0FEA3E0FF027C55B2
:0875FA00900578EEF0A3EFF01C
:10760200D3900450E09F90044FE09E400DD390042D
:1076120052E09D900451E09C5004E4FEFF2290054C
:1076220078E0FEA3E0FF127AFE127C6B75A0FF7574
:0B76320080FF1271E475A0FF7580FF5F
:01763D00222A
:107B1D007F327E001277B5C2EA7F327E001277B5D2
:097B2D00D2EA7F327E000277B536
:105B2F00127B1D7FF77E00127C087FA912781A7FE7
:105B3F005112781A7F2C12781A7F8212781A7FC02E
:105B4F00127C087F1112781A7F0912781A7FC112FE
:105B5F007C087F4112781A7FC5127C08E4FF127807
:105B6F001A7F0A12781A7F8012781A7FB1127C0876
:105B7F007FB012781A7F1112781A7FB4127C087FC7
:105B8F000212781A7FB6127C087F0212781A7F22CF
:105B9F0012781A7FB7127C087FC612781A7FBE124E
:105BAF007C08E4FF12781A7F0412781A7FE9127CBE
:105BBF0008E4FF12781A7F36127C087F0812781AD1
:105BCF007F3A127C087F5512781A7FE0127C08E426
:105BDF00FF12781A7F0712781A7F1012781A7F092E
:105BEF0012781A7F1712781A7F0B12781A7F4112C8
:105BFF00781A7F8912781A7F4B12781A7F0A1278D7
:105C0F001A7F0C12781A7F0E12781A7F1812781AD0
:105C1F007F1B12781A7F0F12781A7FE1127C08E42B
:105C2F00FF12781A7F1712781A7F1A12781A7F04C8
:105C3F0012781A7F0E12781A7F0612781A7F2F1297
:105C4F00781A7F4512781A7F4312781A7F021278DA
:105C5F001A7F0A12781A7F0912781A7F3212781A6D
:105C6F007F3612781A7F0F12781A7F11127C087FF5
:105C7F00781277B57F297E00127C087F01026F1C96
:1073A90090023EEEF0A3EFF0A3ECF0A3EDF0900411
:1073B9005AE0FEA3E0FF127C0890023EE0FF7E0047
:1073C90012781AA3E0FF12781AEAFF12781AAF03AB
:1073D9007E0012781A90045CE0FEA3E0FF127C089C
:1073E900900240E0FF7E0012781AA3E0FF12781A9B
:1073F900900244E0FF12781AA3E0FF12781A027C87
:017409006022
:107AFE00AB07AA068D828C83C006C007AE83AF8209
:0F7B0E00900244EEF0A3EFF0D007D0060273A967
:106F1C0090045AE4F0A3742AF0A3E4F0A3742BF0C9
:106F2C00900456E4F0A3742CF0A3E4F0A3742EF0B8
:106F3C00EF14602414603B14605324037072E490CB
:106F4C000455F090044F04F0A37440F0A37401F0C6
:106F5C00A374E0F07D08804F9004557401F0900408
:106F6C004FF0A374E0F0A37401F0A37440F07D68BB
:106F7C0080359004557402F090044F14F0A37440C3
:106F8C00F0A37401F0A374E0F07DC8801A9004554E
:106F9C007403F090044F7401F0A374E0F0A3740137
:106FAC00F0A37440F07DA87C007F367E00127C1329
:016FBC0022B2
:1078920078637C057D017BFF7A7C799A7E007F0488
:1078A200121AD37B017A057963900544E4F0A3743C
:1078B20004F07FD37E00127682900565E0FEA3E09D
:0378C200FDEDFFDA
:0178C50022A0
:10740A00EF24FE601714602A1460332403704612B6
:10741A007C047F081277ED7FDF02745C127C047FA4
:10742A006812781A7F2A12780B7FDF1278067F3F5C
:10743A008020127C047FC81277ED7F3F8014127C73
:10744A00047FA812781A7F2A12780B7FDF12780637
:0C745A007F3F12781A7F2C7E00027C0815
:107BB40049443A25730D0A00455252000000000062
:017BC40000C0
:10782F004A04E5815081588160816881704104E488
:01783F000048
:0C7C4900C2B21277B543B10453B2FB2263
:10774400900580EFF0D2B2D2EB7F147E001277B5B1
:10775400C2EBC2B27F147E001277B5900580E0645C
:10776400287003D38001C392B27F147E001277B5D0
:09777400D2EB7F147E000277B510
:107BA200C2EB7F0A7E001277B5D2EB7F0A7E00021B
:027BB20077B5A5
:067C8400127C95027BA2B8
:087A140090057AEEF0A3EFF0FB
:107A1C00127B8E7FBA1275B390057AE0FF1275B3A4
:0B7A2C0090057AA3E0FF1275B37F0104
:017A3700222C
:0B797A00900567EEF0A3EFF0A3EDF026
:10798500127B8E900567E0FEA3E0FF127A14900546
:0B79950069E0FF1275B3127B4E7F010A
:0179A00022C4
:0870DB007B017D017F4E7E81E7
:1070E300900520EEF0A3EFF0A3EDF0A3EBF0A3EAFD
:0470F300F0A3E9F02D
:1070F700E4A3F0127B8E900520E0FEA3E0FF127A56
:1071070014127B8E7F147E00127ABE7FBB1275B37A
:10711700E4900527F0900522E0FF900527E0FEC3E5
:107127009F502EEF14B50604E4FF80027F0112740E
:1071370066900523E0FBA3E0FAA3E0F9900527E0BA
:10714700F582758300EF121B51900527E004F0804C
:0B715700C4127B4E9005267401F0FF6F
:01716200220A
:1069F80078FB7C037D017BFF7A7B79C07E007F0476
:106A0800121AD3127C847FBA1277447F327E001226
:106A18007C497B017A0379FB7D047F407E8112707B
:106A2800E39003FBE06439900358704B74FFF0A3C4
:106A3800747BF0A374B4F0A37401F0A37403F0A3FF
:106A480074FBF07B017A0379FF12337F900450E0E6
:106A580024C8FF90044FE034FFFE90051C7401F039
:106A6800A37403F0A374FFF0A37401F07B10E4FD9A
:106A7800FC126B8A7F012274FFF0A3747BF0A3746D
:106A8800B4F0A37401F0A37403F0A374FBF07B01CA
:106A98007A0379FF12337F900450E024C8FF9004F2
:106AA8004FE034FFFE90051C74FFF0A3747BF0A345
:106AB80074BCF0A37401F07B10E4FDFC126B8A7FB8
:016AC80000CD
:016AC90022AA
:107A5A0078817C057D017BFF7A7B79C47E007F017A
:107A6A00121AD37A0579811270DB900581E0540FDE
:017A7A00FF0C
:017A7B0022E8
:1039CE00E4900512F0A3F0900516F09004E4E004E4
:1039DE00F0E0FF75F00A84E5F0600DC3EF940A7411
:1039EE008094804003023CA57A0579161270DB9014
:1039FE000516E030E718540FC39406748094805077
:103A0E000DE4900514F0FD7F4E7E8112797A9005BB
:103A1E0016E0540F7003023CA5C394067480948084
:103A2E004003023CA5E0540FFFF874FF088002C368
:103A3E0033D8FCFF900514F09003FAE0900515F0D2
:103A4E00EFF444C09003FAF09003E6E0FFA3E09099
:103A5E0003EECFF0A3EFF0A3E0FFA3E09003F8CFC7
:103A6E00F0A3EFF0E4900512F0900512E0FFC3947E
:103A7E0005748094804003023C147E007401A807F4
:103A8E00088005C333CE33CED8F9FF9003FAE0FD9C
:103A9E00EF5D7003023C0B900512E025E024E5F586
:103AAE0082E43404F583E0FEA3E0FF7B017A05791E
:103ABE000E7D041270E3900455E0FD703790050FF3
:103ACE00E0FE90050EE07A002400FFEA3EFE90052F
:103ADE0012E0FC25E024E6F582E43403F583EEF0F3
:103AEE00A3EFF0900511E0FE900510E02400FFEA30
:103AFE003E023BA4ED6401704690050FE0FE90057A
:103B0E000EE07C002400FFEC3EFEC3900452E09FCA
:103B1E00FF900451E09EFE900512E0FD25E024F09A
:103B2E00F582E43403F583EEF0A3EFF0900511E097
:103B3E00FE900510E07A002400FFEA3E023BF99069
:103B4E000455E0FD6402705B90050FE0FE90050EDB
:103B5E00E07A002400FFEA3EFEC3900450E09FFF8F
:103B6E0090044FE09EFE900512E0FC25E024E6F561
:103B7E0082E43403F583EEF0A3EFF0900511E0FE3E
:103B8E00900510E02400FFEA3EFEC3900452E09F31
:103B9E00FF900451E09EFEEC25E024F0F582E43423
:103BAE00038053ED6403705590050FE0FE90050EF3
:103BBE00E07C002400FFEC3EFE900512E0FD25E0C7
:103BCE0024F0F582E43403F583EEF0A3EFF09005D4
:103BDE0011E0FE900510E07A002400FFEA3EFEC3DD
:103BEE00900450E09FFF90044FE09EFEED25E024F0
:103BFE00E6F582E43403F583EEF0A3EFF0900512C0
:103C0E00E004F0023A779005137401F090044FE04F
:103C1E00FEA3E0FFD39003E7E09F9003E6E09E5003
:103C2E0014900451E0FEA3E0FF9003F1E09F900397
:103C3E00F0E09E405D900516E0540FD39401748021
:103C4E00948040209003E8E0FFA3E09003E6CFF0DD
:103C5E00A3EFF09003F2E0FFA3E09003F0CFF0A308
:103C6E00EFF0802E9003EEE0FFA3E09003E6CFF09E
:103C7E00A3EFF09003F8E0FFA3E09003F0CFF0A3E2
:103C8E00EFF09005167480F0900515E09003FAF0B1
:103C9E008005E49004E4F0900516E0548F64807083
:103CAE00219003FAE030E705547FF0801574FF9001
:103CBE0003E6F0A3F09003F0F0A3F09003FAE054C3
:103CCE00E0F09004E4E0D394F074809480400374A8
:073CDE000AF0900513E0FF5E
:013CE50022BC
:077C76007F017E00027ABECF
:047B6400C2EDE4FF8B
:107B6800EF6401700543CB10800353CBEF53CCEF88
:017B780022EA
:057C9500D2EDD2EC224B
:107B8E00E4FF127B68D2ECD2ED127C76C2EC127C52
:047B9E0076C2ED229C
:107B4E00E4FF127B68C2EDC2EC127C76D2ED127CA1
:067B5E0076D2EC027C76F9
:10785D00E4900582F07F01127B68D2EC127C76D227
:10786D00ED127C7630EC1A900582E004F0E0D394B2
:10787D00FA7480948040ED127B4EE4FF127B680F0A
:04788D0022127B64E4
:0178910022D4
:107BC500127B64C2EC127C76D2ED127C76C2ED2279
:107BD500127B64D2EC127C76D2ED127C76C2ED2259
:0575B30090057CEFF0E3
:1075B800E4FF127B68C2EDE4A3F090057DE0C3947C
:1075C8000874809480502890057CE0FF5480FEC4A5
:1075D800131313540124FF92ECEF25E0F0D2ED12BF
:1075E8007C76C2ED127C7690057DE004F080CB02BB
:0275F800785DBC
:0574660090056AEFF043
:10746B00E490056CF07F01127B68E490056BF09063
:10747B00056BE0C39408748094805021C2ED7F01AA
:10748B007E00127A9DD2ED90056CE0FF25E0F03086
:10749B00EC03E004F090056BE004F080D290056AF9
:1074AB00E07005127BD58003127BC5E4FF127B686D
:0574BB0090056CE0FFEC
:0174C00022A9
:107840005503E600000000000000000000000000FA
:08785000000000000000000030
:067C8A001269F87F0022E0
:037C9E000239CEDA
:047858004105830063
:107518009002C4121EE3000000007FFF127C21EFDE
:10752800F47002FF229002C4E0FCA3E0FDA3E0FE99
:10753800A3E02401FFE43EFEE43DFDE43CFC9002B0
:10754800C4121ED774FFFFFEFD7C009002C4E0F851
:10755800A3E0F9A3E0FAA3E0FBC3121DC240BB7F7E
:017568000121
:0175690022FF
:077C7D00D2C67FFF027C214B
:107BE500C2C6127518EF7002FF22127C7D7F01223A
:056DC3009002BDEFF09D
:106DC800E49002C3F0127C7D127BE5EF60037FFF45
:106DD80022D2C67FFF127C217FFF127C217FFF1207
:106DE8007C21C2C69002BDE04440FF127C21900283
:106DF800BEE0FCA3E0FDA3E0FEA3E0FF7818121DAF
:106E0800D3127C219002BEE0FCA3E0FDA3E0FEA328
:106E1800E0FF7810121DD3127C219002BEE0FCA383
:106E2800E0FDA3E0FEA3E0FF7808121DD3127C2149
:106E38009002BEA3A3A3E0FF127C219002C2E0FF50
:106E4800127C219002BDE0640C70057FFF127C214A
:106E58009002C3741FF07FFF127C21EF30E70A9085
:096E680002C3E0FE14F0EE70ED2F
:016E710022FE
:1056C0007F031279A1E4900269F0900269E0C3942B
:1056D0000A74809480500D7FFF127C21900269E053
:1056E00004F080E6900263E4F0A37414F09002BE2C
:1056F000121EE3000000009002C27495F0E4FF1255
:105700006DC3900262EFF07E006401600CA374FF31
:10571000F5F0121B9B45F070D4E4900583F0EF6424
:10572000014E60030258339002BE121EE3000001D6
:10573000AA9002C27487F07F08126DC3EF64016003
:1057400003025833900269F0900269E0C394047434
:10575000809480501C7FFF127C21900269E02465B8
:10576000F582E43402F583EFF0900269E004F08002
:10577000D7900267E064016003025833A3E064AA93
:10578000600302583390026374FFF0A314F0900298
:10579000BE121EE3000000009002C27401F07F37C9
:1057A000126DC39002BE121EE3400000009002C2C0
:1057B0007401F07F29126DC3900262EFF0600CA3B8
:1057C00074FFF5F0121B9B45F070C3900263E0700C
:1057D00002A3E060599002BE121EE3000000009098
:1057E00002C27401F07F3A126DC3EF7041900269FA
:1057F000F0900269E0C3940474809480501C7FFF91
:10580000127C21900269E02465F582E43402F5837C
:10581000EFF0900269E004F080D7900265E0900517
:105820008330E6057406F0800A7404F08005E49085
:105830000583F0127C7DE4FF1279A1900583E0607E
:0E584000037F0022900262E0FF6001227FAA37
:01584E002237
:106D08009004FA121ED79004FEEBF0A3EAF0A3E970
:016D1800F08A
:106D1900127C7D127BE5EF60037FFF22900583E003
:106D2900640660199004FAE0FCA3E0FDA3E0FEA369
:106D3900E0FF7809121DE69004FA121ED79004FAB2
:106D4900E0FCA3E0FDA3E0FEA3E0FF9002BE121E5B
:106D5900D79002C27401F07F11126DC3900503EF41
:106D6900F0704E7FFF127C21EF64FE70F6900501F2
:106D7900F0A3F07FFF127C219004FEE0FBA3E0FA70
:106D8900A3E0F9A3E0FCA3E0F5828C83EF121B5189
:106D9900900502E004F07006900501E004F0C3904C
:106DA9000501E0940240CC7FFF127C217FFF127C19
:096DB90021127C7D900503E0FF2E
:016DC20022AE
:0576C40090056DEFF0E0
:1076C900A3740FF0A374FFF07FFF127C2190056D66
:1076D900E06F6018A3E07002A3E0601090056FE00E
:1076E90024FFF090056EE034FFF080DC90056EE039
:0B76F9007002A3E070037FFF227F00FF
:017704002262
:10733F0090054DEBF0A3EAF0A3E9F0A3ECF0A3ED79
:10734F00F0C2C67FFE1276C4EF6005D2C67F01225F
:10735F0090055074FFF5F0121B9B45F060207FFFE6
:10736F00127C2190054DE0FBA3E0FAA3E0F9EF12A8
:10737F001B3F90054EE475F001121B8580D27FFFF5
:10738F00127C217FFF127C21900552E0640170076F
:0A739F00D2C67FFF127C217F00227E
:0B770500900570EBF0A3EAF0A3E9F0A0
:107710009002BE121EE3000000009002C274FFF04F
:107720007F09126DC3EF600122900570E0FBA3E0BA
:10773000FAA3E0F99005527401F07D107C001273F9
:037740003F7F0088
:017743002223
:1059CB007B017A0379D0127705EF6006E4FFFEFDC9
:1059DB00FC229003D0E054C06440707A9003D8E06E
:1059EB00FFE4FCFDFE7808121DE69003E0121ED7C3
:1059FB009003E0E0F8A3E0F9A3E0FAA3E0FB900347
:105A0B00D9E0FFEF2401FFE433FEE433FDE433FC84
:105A1B00EB2FFFEA3EFEE93DFDE83CFC9003E01274
:105A2B001ED79003E0E0FCA3E0FDA3E0FEA3E0FFA4
:105A3B00E4FB7A04F9F8121C989003E0121ED7903D
:105A4B0003E0E0FCA3E0FDA3E0FEA3E0FFE4FB7AB0
:105A5B0002F9F8025B179003D6E054037D00FCA318
:105A6B00E02DFDE43CFCFEED7802C333CE33CED803
:105A7B00F9FDAC069003D8E054C0C4131354032DA6
:105A8B00FDE43CFCA3E0540325E0FBA3E05480C4FD
:105A9B0013131354012BFB0B0B9003E4E4F0A3043F
:105AAB00F0EB60109003E5E025E0F09003E4E033C9
:105ABB00F01B80EDED2401FFE43CFE9003E4E0FCE1
:105ACB00A3E0FD12203C9003E0121ED79003D5E01B
:105ADB00540F7C00FD9003E4E4F0A304F0ED4C6064
:105AEB00149003E5E025E0F09003E4E033F0ED1DC6
:105AFB0070EB1C80E89003E0E0F8A3E0F9A3E0FA78
:105B0B00A3E0FBA3E0FEA3E0FFE4FCFD121C9890D6
:105B1B0003E0121ED79003E0E0FCA3E0FDA3E0FE40
:035B2B00A3E0FFF5
:015B2E002254
:0D7C3C0043A208E4F5CF75CDC075CED0226F
:0E7C21008FCFE5CD548060FA75CDC0AFCF2275
:1079A100EF14600E1460121460162403701853CE85
:1079B100FC2253CEFC43CE012253CEFC43CE022205
:0779C10053CEFC43CE03226C
:1000030000000000000000000000000000000404E5
:10001300040404040004000000140A0A00000000A1
:1000230000000000000014143F140A3F0A0A0000F5
:1000330000041E1505060C14150F0400000012150C
:100043000D0A142C2A1200000000040A0A1E1515BA
:100053000936000000020201000000000000000059
:1000630000201008080808080810200000020408EF
:10007300080808080804020000000004150E0E1505
:100083000400000000000404041F04040400000032
:100093000000000000000000000202010000000058
:1000A300001F00000000000000000000000000002E
:1000B3000002000000100808080404020202010004
:1000C30000000E1111111111110E000000000406A1
:1000D30004040404040E000000000E1111080402BD
:1000E300011F000000000E11100C1010110E000073
:1000F3000000080C0A0A091E0818000000001F016E
:10010300010F1010110E000000000E09010F111154
:10011300110E000000001F09080404040404000079
:1001230000000E11110E1111110E000000000E112E
:1001330011111E10120E0000000000000400000048
:10014300000400000000000000040000000404009C
:100153000020100804020408102000000000000022
:100163001F00001F000000000002040810201008F8
:100173000402000000000E11110804040004000032
:1001830000000E111915151D011E000000000404C6
:100193000C0A0A1E1233000000000F12120E121274
:1001A300120F000000001E1101010101110E0000D9
:1001B30000000F1212121212120F000000001F1281
:1001C3000A0E0A02121F000000001F120A0E0A0282
:1001D3000207000000001C1201013911120C00007B
:1001E30000003312121E12121233000000001F040B
:1001F30004040404041F000000003E080808080863
:1002030008090700000037120A060A0A123700001D
:100213000000070202020202223F000000001B1B33
:100223001B1B15151515000000003B1216161A1A94
:100233001217000000000E1111111111110E000010
:1002430000000F12120E02020207000000000E113E
:1002530011111117190E180000000F12120E0A12B5
:100263001237000000001E1101060810110F0000D4
:1002730000001F1504040404040E000000003312E0
:1002830012121212120C000000003312120A0A0C8E
:100293000404000000001515150E0A0A0A0A0000DE
:1002A30000001B0A0A04040A0A1B000000001B0AC0
:1002B3000A040404040E000000001F0908040402D9
:1002C300121F0000001C04040404040404041C00A2
:1002D300000202020404080808100000000E0808C7
:1002E3000808080808080E0000040A0000000000BF
:1002F3000000000000000000000000000000003FBC
:1003030000040000000000000000000000000000E6
:10031300000C121C123C000000000302020E121219
:10032300120E000000000000001C1202021C00005C
:1003330000001810101C1212123C000000000000F4
:10034300000C121E021C000000003804041E0404EA
:10035300041E000000000000003C120C021E221CC0
:1003630000000302020E1212123700000000040004
:1003730000060404040E000000000800000C080836
:100383000808080700000302023A0A0E12370000A9
:100393000000070404040404041F0000000000001C
:1003A300000F15151515000000000000000F1212B4
:1003B3001237000000000000000C1212120C0000A3
:1003C30000000000000F1212120E020700000000CE
:1003D300001C1212121C103800000000001B060241
:1003E3000207000000000000001E020C101E0000A7
:1003F30000000004040E04040418000000000000C0
:10040300001B1212123C0000000000000037120A09
:100413000C040000000000000015150E0A0A00007D
:1004230000000000001B0A040A1B0000000000007B
:100433000037120A0C04040300000000001E080425
:10044300041E00000018080808040808080818001B
:10045300080808080808080808080808000604042B
:100463000408040404040600022518000000000028
:100473000000000000000000000000000000000079
:100483000000000000000008080808080808000031
:100493001818000000486C2412000000000000003F
:1004A300000000000000002424247F1212127F1297
:1004B300121200000000081C2A2A0A0C1828282AF5
:1004C3002A1C080800000022251515152A58545423
:1004D300542200000000000C1212120A7625291182
:1004E300916E0000000606040300000000000000F7
:1004F3000000000000402010100808080808081039
:1005030010204000000204080810101010101008FA
:10051300080402000000000008086B1C1C6B08089C
:100523000000000000000000080808087F08080811
:1005330008000000000000000000000000000000B0
:10054300060604030000000000000000FE00000097
:100553000000000000000000000000000000000098
:100563000606000000008040402020101008080408
:100573000402020000000018244242424242424266
:1005830024180000000000080E08080808080808DE
:10059300083E00000000003C4242422020100804B4
:1005A300427E00000000003C4242201820404042AE
:1005B300221C0000000000203028242422227E2058
:1005C300207800000000007E0202021A264040420A
:1005D300221C0000000000382402021A2642424274
:1005E300241800000000007E2222101008080808CA
:1005F300080800000000003C424242241824424202
:10060300423C00000000001824424242645840402B
:10061300241C000000000000000018180000000067
:10062300181800000000000000000008000000008F
:100633000008080400000040201008040204081009
:10064300204000000000000000007F0000007F0049
:1006530000000000000000020408102040201008E1
:10066300040200000000003C4242464020101000FB
:10067300181800000000001C225A555555552D42EC
:10068300221C00000000000808181414243C224215
:1006930042E700000000001F2222221E22424242A3
:1006A300221F00000000007C4242010101010142BF
:1006B300221C00000000001F2242424242424242EA
:1006C300221F00000000003F4212121E12120242BB
:1006D300423F00000000003F4212121E12120202AB
:1006E300020700000000003C2222010101712122C7
:1006F300221C0000000000E7424242427E42424286
:1007030042E700000000003E08080808080808083F
:10071300083E00000000007C101010101010101094
:100723001010110F0000007722120A0E0A12122273
:100733002277000000000007020202020202020206
:10074300427F000000000077363636362A2A2A2AEE
:100753002A6B0000000000E346464A4A52525262A6
:10076300624700000000001C2241414141414141D8
:10077300221C00000000003F424242423E020202AD
:10078300020700000000001C2241414141414D533A
:10079300321C60000000003F4242423E12122222FD
:1007A30042C700000000007C42420204182040427D
:1007B300423E00000000007F4908080808080808B6
:1007C300081C0000000000E742424242424242420B
:1007D300423C0000000000E7424222242414141883
:1007E300080800000000006B494949495555362265
:1007F30022220000000000E74224241818182424B1
:1008030042E70000000000772222141408080808B9
:10081300081C00000000007E212010100804044280
:10082300423F00000078080808080808080808087C
:1008330008087800000002020404080808101020C9
:1008430020204040001E1010101010101010101027
:1008530010101E00003844000000000000000000DB
:100863000000000000000000000000000000000085
:10087300000000FF00060800000000000000000068
:1008830000000000000000000000003C42784442E9
:1008930042FC0000000000030202021A2642424208
:1008A300261A000000000000000000384402020283
:1008B3004438000000000060404040784442424217
:1008C30064D80000000000000000003C427E0202E9
:1008D300423C0000000000F08808087E0808080871
:1008E300083E0000000000000000007C22221C02E1
:1008F3003C42423C000000030202023A46424242AA
:1009030042E700000000000C0C00000E0808080875
:10091300083E000000000030300000382020202076
:100923002020221E0000000302020272120A161285
:10093300227700000000000E0808080808080808CD
:10094300083E0000000000000000007F9292929297
:1009530092B70000000000000000003B4642424204
:1009630042E70000000000000000003C4242424217
:10097300423C0000000000000000001B26424242EF
:10098300221E020700000000000000784442424299
:10099300447840E000000000000000774C040404A9
:1009A300041F0000000000000000007C42023C40E5
:1009B300423E0000000000000008083E0808080846
:1009C3000830000000000000000000634242424281
:1009D30062DC000000000000000000E74224241451
:1009E3000808000000000000000000EB49495555CD
:1009F30022220000000000000000007624181818CE
:100A0300246E000000000000000000E742242414CC
:100A130018080807000000000000007E22100808E4
:100A2300447E000000C02020202020102020202011
:100A33002020C000101010101010101010101010F3
:100A43001010101000060808080808100808080805
:100A5300080806000C32C20000000000000000007D
:100A630000000000C9EE000027FC140414A4811048
:100A730042084040104017FC2040E0E0215022484B
:100A83002C4620400040DBDA1104112411241124E8
:100A93001124FD24112411241124112411241D24B3
:100AA300E124422402040404CAD00200010000002D
:100AB3007FFC0100010001003FF821082108210803
:100AC30021082128211001000100C8AB000000000B
:100AD300018002400430180860061FF9010001007C
:100AE30001003FF80100010001007FFEB6AF0000E6
:100AF300000000203E20007C002200227F221022E2
:100B0300102212221222224223423D82009CB5E788
:100B13000000010001001FF0610C410441047FFC4F
:100B23004104410441047FFC01000102010201FC74
:100B3300D7D3000000003FF80010006000800100E0
:100B430000807FFE0040004000200020002018406D
:100B53000780BCBC00000000104013FE10407C4026
:100B6300104013FC1104190830885050106010D045
:100B730013087C06CAF500000100013001080100DA
:100B83007FFE018003400540052009101108210460
:100B9300410201000100D3D00000010002007FFEEA
:100BA300040008001FFC700490041FFC10041004D0
:100BB3001FFC10041004103CCFDE000000007BFC7F
:100BC3004A044A044BFC52044A044BFC4A404A443C
:100BD3007A2842304210420843C6B9AB00000000F5
:100BE30004400420081010101008210442020220BF
:100BF30004100810080810081FFC0004CBBE0000F6
:100C030000003FFC000400043FF400043FE4202400
:100C130020242024202420241FC40004007CBBB6ED
:100C23000000000000807EFC02A202A222A4152480
:100C330014240C300C300C481248228442840102E4
:100C4300D3AD000000002398246414440444644496
:100C5300144414441444144415C4125C1040284032
:100C630047FEC4FA00000000120013FE24222522CE
:100C7300652862242224242020E0050814842444C7
:100C8300241A47F2B4BF00000020102013FE2020D6
:100C930026244A247A241224222423FC7C200022A2
:100CA30004227822003CC9AB0000000004000FF0CE
:100CB300102020207FFC20842084208420843FF87F
:100CC3002000200220021FFECCEE00000000204086
:100CD30023FE204079FC220423FC220423FC22046B
:100CE30023FC3A0465FA01980204B3E4000001000E
:100CF30001007FFE02200410040808043FFC0442A4
:100D030004400440044208421042607EBED8000002
:100D13000000207E3E804880488048FE48827F82D3
:100D230008820C8214FA12842280218040FED0CEE5
:100D3300000000007F842208223022C02202220405
:100D43007FC8223022C222022204220822304040DD
:100D5300BBAD000000007FFE00000FF0111011106A
:100D6300111051125FF25112511251124FF24002FF
:100D73007FFCD4B2000000007FFE47E24812481215
:100D830047E24FF2501250125112511242924472E2
:100D9300580A3FFCC8FD000000007FFC0000000073
:100DA300000000003FF80000000000000000000009
:100DB300FFFE00000000BDC7080008001FE0202060
:100DC3004040BFF8210821083FF8210821083FF8D7
:100DD3002108410841288010CDBC000000003FFEDF
:100DE300440247F24C225362408243625E1A4182BC
:100DF3004062430240C240223FFCC6AC00000040B8
:100E03002040204020403FFE2000200020003FE003
:100E1300201020102010201040104010CFD40000CC
:100E230000003FFC200420043FFC200420041FF8A2
:100E330024441448144814480C5004407FFECABE8E
:100E4300000000003FFC0000000000007FFE008067
:100E530008900888108810842084208240820780AC
:100E6300B2CB0000002008207FFE002000783F88DE
:100E73001108089009207FFE018003400D30310CDA
:100E83004002B5A500000010081004203FF821041B
:100E930021043FFC210421043FF801007FFE0100EF
:100EA30001000100D6D000000100010001003FFC59
:100EB3002104210421042104210421043FFC010015
:100EC300010001000100D3A20000000008207FFE02
:100ED3000820092001003FF82108210821081FF4F8
:100EE300014002200C10700ECEC40000010001006E
:100EF30000803F7C081008100410042002200240E8
:100F03000180018002601C18E006D7DB00000000AE
:100F1300102011FE2202220249FC5800300013FE69
:100F23002528792401240D24722202A2BACF0000BD
:100F33000000018002400430180860061FF800001A
:100F43001FF8200420042004200420041FF8C1C13A
:100F53000000010001007FFE00003FF820083FF879
:100F63003FF8400647C24824082008221022603E6A
:100F7300B6C80000000000803FFE44105FFC441030
:100F8300441043F040005FF84408423041C04360DE
:100F9300BC1EB2E20000000067C2145205520552A3
:100FA300C55225520552055215521752228222422A
:100FB3004442483ECAD4000000002014101417FE17
:100FC30000120010601013F0109010901090149203
:100FD30014EA1F0A0006B3CC0000000019FE7202D7
:100FE300120212027DFC18001BFE3420502053FE17
:100FF30010201020102013FED0F20000000000800B
:101003003FFE400047FC4208413040C05FFE404283
:1010130040424044404840404440B5F7000000008F
:1010230023FE122202FA0222E22212FE1272128A14
:10103300128A128A16BA1A421202040EB9E2000088
:101043000100010411080908091009207FFE04406A
:10105300044004400440084208421042607CB0E669
:101063000000000048FE4900490049007EFE41821D
:101073004144794445284528451045284644038280
:10108300C8A800001000100013FC7D04110419040B
:10109300188434885048505010201050108813047E
:1010A3001402CBF9000000003F7C204020403E406A
:1010B300227E2244224422443E842084208440848D
:1010C30041044204C6C100003FF8200820083FF84D
:1010D300241022202FF8222022203FFC222042200D
:1010E300442084200820C4BB04407FFC04401FF03C
:1010F30010101FF010101FF00400FFFE11103FF836
:10110300D116115011200100D0FD2080108010FE57
:101113000100FE0021FC20243C2424A024A024BCA4
:1011230024A024A04560553E8A00D7AA2020202071
:101133002020FDFC4020504093FEFC40108011FC19
:101143001C04F0885050102010101010BFAA00008B
:101153007FFC08200820082008200820FFFE082024
:101163000820082008201020102020204020D4B47C
:10117300000027FE1420144085FC450445FC15049B
:1011830015FC2524E42024A829242A2230A0004089
:10119300D2BA0080204017FE11208120423C4244F5
:1011A300166412942348E2482230222022502288D7
:1011B3000306BEA70FE0082008200FE00820082040
:1011C3000FE000007EFC428442847EFC4284428421
:1011D3007EFC4284CDF800007FFC400440044214AE
:1011E30052944A54442444244A544A545294610421
:1011F300400440144008D5BE1020082008207E205B
:10120300003E04204420442025FC290429040F0423
:10121300F104410401FC0104B0B41040102010207B
:1012230013FEFA02144410401BFE3088D0881108C4
:1012330010D01020105050882304BCFC2010201024
:101243003B7C211441FE7A14A27C2710F97C2510E3
:1012530025FE22102A10350028FE0000D0A31040DE
:101263001020102011FEFC00108831043A0254882B
:101273005088905010501020105010881306D7BC7F
:1012830001404120212023FE022016201BFC1220B6
:10129300222023FCE2202220222023FE220002001F
:1012A300B4A520202020782049FC91247D245524B6
:1012B30055247DFC552454207C28542457FE450294
:1012C3008C00C3FE1110111017FC1110FC0013F851
:1012D300120817F81A0833F8D04017FC10A01110A1
:1012E30052082406B6C10020202011FC1020002043
:1012F30003FEF002109410501110109013FE1428E6
:10130300184410820302BACD04000E007800087C52
:101313000844FF44084418441C442A442A444844CB
:10132300887C084408000800D1D5100008FE7F100F
:101333002220147C7F444454485452544454485407
:1013430051544228442488423082D6B5084008408C
:101353000FFC1040104033F8320853F8920813F88A
:10136300120813F8120812081FFE1000C8DD02004D
:1013730001007FFE400288241110228804400820C7
:101383003018DFF61010101010101FF01010D6A731
:101393000100010001007FFC0100010001003FF09A
:1013A3001010082004400280010006C01830E00E2F
:1013B300B3D610201020102011FCFC20102013FEA7
:1013C3001008180833FED008108810481008502859
:1013D3002010B5E302000200020003FC0200020039
:1013E3003FF02010201020103FF0000024882244FA
:1013F30042448004D1A722081108111000207FFE67
:10140300400280041FE000400180FFFE0100010054
:10141300010005000200F3BB0FE010201FC00040D5
:10142300FFFE0C1073200DC072B00C8EF3207CF8FD
:1014330054A87CF81224FEFCBFC608101D10F090BF
:1014430010901010FD10109038903410501E53F06F
:1014530090101010101010101010C9EE00000000B2
:1014630000001000000800080C7FFC04401001C8B5
:10147300A002186042301832231812C3001403006C
:1014830004030C047FF0080F80080B4078136018E6
:10149300332018631818831C19030818030000036A
:1014A30000000000DBDA00000000000004100C0460
:1014B300180C04108C04108C04108C04108C04D0B1
:1014C3008C3F108C04108C04108C04108C04108C32
:1014D30004108C04108C05F08C0E208C78208C204A
:1014E300408C00808C01000C02000C000000CAD06C
:1014F3000000000000000030000018000018080081
:10150300001C1FFFE000180000182007FFF004185C
:10151300200418200418200418200418200418207C
:101523000418200418200418200418E004184000AC
:101533001800001800000000D6D0000000000000D2
:101543000000000000000018000018000018000050
:1015530018003FFFFE301806301806301806301802
:10156300063018063FFFFE3018060018000018006A
:101573000018000018000018000000000000000020
:101583000000CEC40000000000000000000038008E
:10159300001C00000600FFFFFF06003006003003BA
:1015A30000600300600180C000C18000E3000036DA
:1015B30000001C0000770003C1E01E003C60000730
:1015C300000000000000000000000000B2E2000084
:1015D3000000000000000000000040000321FF3372
:1015E300398333118333019B33C19B33719B33198C
:1015F3009B33019B33019B33119B3319B33330303E
:1016030033306C0330C6036383032E01BE00000036
:10161300000000000000CAD4000000000000000029
:10162300000000004000D83000CE1800C21C00C0EB
:1016330001FFFF0000C0F800C01800C019FFC01868
:1016430018401818601918601B18611E18311C1FE8
:10165300B139F01910000F00000000000000000075
:10166300D1A70000000060E00630F00738E003BDBA
:10167300C0039D801B9B8C1FFFFE38001E3800D8C3
:101683007FFFF02203E0000780001E00001C1C7F88
:10169300FFFE201C00001C00001C00001C0001FCBD
:1016A3000000F800003800000000F3BB0000000158
:1016B300C18001FFC003818003FF8003038C7FFF90
:1016C300FE20F0E007FBE03EFF0007FFC03CFFFE0B
:1016D30007CE7E3F7FCC03BDC83FFFFC3B7DDC3B99
:1016E3007DDC3FFFFC3BEDF80371DC7FFFFE3C3FFD
:1016F3000E000000D7D60000000000060000000323
:1017030000000000C0000001C0C0000107C00001CC
:10171300FF00021FFE0007F01C0007C070000F004F
:10172300E0000E03F0001C0FF0003C0F70003C00C3
:10173300E0001800C0000000C0000000C00000006E
:10174300600000002000000037000001FF00007F60
:10175300F80007F830001F8030000080300000C020
:101763003000006060000018E000000FC0000006B9
:10177300000000000000CCE50000000000000000B5
:10178300000000C0000000E0002001B800703FF836
:101793000061FFC000C3030001C60600038C0600FE
:1017A30003080C0006080C000E18183F1E101BF34C
:1017B3001F903F0700803C1C0190707C019060FEED
:1017C30001A0C3F801A00FD803A0081803600018F4
:1017D3000340001803C0001803800018030000181A
:1017E300000000180000001000000030000000306E
:1017F3000000000000000000B2E200000000000052
:1018030000000000000000000000020C1008071F89
:10181300F80403BFF00201BC300303EC3003015CA6
:10182300600300D8600300D860038098620361B846
:10183300430771B14306313243063376C3063A6434
:10184300C7063EECC0063E78C0063C3040067C70BE
:10185300000678E060067BFFF006F7C00006E400B0
:10186300000640000006000000060000007C0000A7
:101873008FF000007C0000000000CAD400000000CC
:10188300000000000000000000003F0000007F8017
:1018930000000180000000C0000000C0000000CE76
:1018A300038000CFFFC000DD41800FFE0007FFFC77
:1018B300000C00F000180FC03E19FF40F311BC608C
:1018C30083307FE003B1FE200333802003700030B8
:1018D300036000100360001807C0000C07C0000479
:1018E3000780000201000003000000010000000067
:1018F300000000000000000000000000D1A700006D
:101903000000000000000003840000038FC00003F8
:1019130083E0003FC1C0003FFFC00077EF8000EFCE
:10192300DF0001FD9F0003FBFF0000EFFF0000FF4E
:10193300FFF000FF3FFC0061FC3C0077E07E007F8E
:101943003EF80DFC7EC01FE3F8001D9FF000381F1A
:10195300E0007819F00070007F000007FF00000F1F
:10196300F000000470000000700000007000000030
:10197300E0000001E0000007C000001FC000F3BB4F
:1019830000000000000600000007E0000007F00070
:10199300000EF000001DE000001FC000003F9FC0CC
:1019A300007FFFC0007FE000001F3C0000FE1E0020
:1019B3000FFFBC000F3FFF8000FFFF8000FFF00020
:1019C300003E7000007EF000003FFFE0007FFFE07C
:1019D300007FBDC007F77F8003FFFF8003FFDF8029
:1019E30001FDFF0001FFF9C001FFF8E0007F3FF0B8
:1019F30001E33E380F83F8380E07E0380003800018
:1078C600900508FEE0FCA3E0FD900507E02DFD9085
:0D78D6000506E03CFC90050CE0FAA3E0FB89
:1078E30090057EEAF0A3EBF0127AFE90057EE0FEAF
:0678F300A3E0FF027C553A
:105F120090033DE0FCA3E0FD90033BE0FAA3E0FB2D
:105F2200A3E0FFA3E0900464CFF0A3EFF090044B52
:105F3200E0FFA3E0900466CFF0A3EFF0900339E016
:045F4200FEA3E0FFDB
:0E5F460090045EEEF0A3EFF0A3ECF0A3EDF0FC
:105F540090045EE0FEA3E0FFC3EB9FFFEA9ECF2424
:105F640001CF340090046CF0A3EFF0900460E0FEE5
:105F7400A3E0FFC3900465E09FFF900464E09ECF1C
:105F84002401CF340090046EF0A3EFF0900460E09D
:105F9400FCA3E0FD900464E0FFA3E0900244CFF092
:105FA400A3EFF090045EE0FEA3E0FF1273A9E49077
:105FB4000468F0A3F090046EE0FEA3E0FFC3900435
:105FC40069E09F900468E09E5047E490046AF0A35F
:105FD400F090046CE0FEA3E0FFC390046BE09F909C
:105FE400046AE09E501B900466E0FEA3E0FF127C6E
:105FF4005590046BE004F070D890046AE004F080DB
:10600400D0900469E004F070AC900468E004F0807F
:10601400A4900450E024FFFB90044FE034FFFA9076
:106024000452E024FFFE900451E034FF900244F057
:0B603400A3CEF0E4FDFCFFFE0273A908
:0E51960090039DEEF0A3EFF0A3ECF0A3EDF07C
:1051A400E49003A7F0A3F0A3F0A3F090039DE0FE26
:1051B400A3E0FFC3EB9FFFEA9E9003ABF0A3EFF0E5
:1051C40090039FE0FAA3E0FBC39003A4E09BFE904E
:1051D40003A3E09A9003ADF0A3CEF090039DE0FF0B
:1051E400A3E09003B5CFF0A3EFF0A3EAF0A3EBF0B4
:1051F4009003ABE0FEA3E0FFD39400EE64809480C0
:10520400400A9003B1E4F0A304F08021EF4E70084B
:105214009003B1F0A3F0801574FF9003B1F0A3F0F4
:10522400C3E49FFFE49E9003ABF0A3EFF09003ADC3
:10523400E0FEA3E0FFD39400EE64809480400A90E3
:1052440003B3E4F0A304F08021EF4E70089003B39D
:10525400F0A3F0801574FF9003B3F0A3F0C3E49FB0
:10526400FFE49E9003ADF0A3EFF09003ADE0FEA346
:10527400E0FF9003ABE0FCA3E0FDD39FEE6480F875
:10528400EC6480989003AF4007ECF0A3EDF0800548
:10529400EEF0A3EFF0E49003A5F0A3F09003B0E0E8
:1052A4002401FF9003AFE03400FED39003A6E09FF7
:1052B4009003A5E09E40030253809003B5E0FEA353
:1052C400E0FFA3E0FCA3E0FD1279299003ABE0FE2C
:1052D400A3E0FF9003A8E02FF09003A7E03EF09036
:1052E40003ADE0FEA3E0FF9003AAE02FF09003A932
:1052F400E03EF09003AFE0FEA3E0FF9003A7E0FCE4
:10530400A3E0FDD39FEE6480F8EC6480984020ED28
:105314009FFFEC9E9003A7F0A3EFF09003B1E0FE93
:10532400A3E0FF9003B6E02FF09003B5E03EF090C9
:1053340003AFE0FEA3E0FF9003A9E0FCA3E0FDD3EC
:105344009FEE6480F8EC6480984020ED9FFFEC9E13
:105354009003A9F0A3EFF09003B3E0FEA3E0FF9065
:1053640003B8E02FF09003B7E03EF09003A6E0040A
:0C537400F070069003A5E004F00252A0C7
:01538000220A
:0E4D960090037DEEF0A3EFF0A3ECF0A3EDF0A0
:104DA400E490038BF0A3F0A3F0A3F090037DE0FE66
:104DB400A3E0FFC3EB9FFFEA9E90038FF0A3EFF005
:104DC40090037FE0FAA3E0FBC3900384E09BFE9092
:104DD4000383E09A900391F0A3CEF090037DE0FF6B
:104DE400A3E0900399CFF0A3EFF0A3EAF0A3EBF0D4
:104DF40090038FE0FEA3E0FFD39400EE64809480E0
:104E0400400A900395E4F0A304F08021EF4E70086B
:104E1400900395F0A3F0801574FF900395F0A3F030
:104E2400C3E49FFFE49E90038FF0A3EFF0900391FF
:104E3400E0FEA3E0FFD39400EE64809480400A90E7
:104E44000397E4F0A304F08021EF4E7008900397D9
:104E5400F0A3F0801574FF900397F0A3F0C3E49FD0
:104E6400FFE49E900391F0A3EFF0900391E0FEA382
:104E7400E0FF90038FE0FCA3E0FDD39FEE6480F895
:104E8400EC6480989003934007ECF0A3EDF0800568
:104E9400EEF0A3EFF0E4900389F0A3F0900394E024
:104EA4002401FF900393E03400FED390038AE09F33
:104EB400900389E09E4003024F9F90039BE0FCA374
:104EC400E0FD900387E0FAA3E0FB900385E0FFA3F5
:104ED400E0900476CFF0A3EFF0A3E4F0A304F09005
:104EE4000399E0FEA3E0FF124FA090038FE0FEA31E
:104EF400E0FF90038CE02FF090038BE03EF09003F2
:104F040091E0FEA3E0FF90038EE02FF090038DE08C
:104F14003EF0900393E0FEA3E0FF90038BE0FCA33C
:104F2400E0FDD39FEE6480F8EC6480984020ED9F10
:104F3400FFEC9E90038BF0A3EFF0900395E0FEA3AB
:104F4400E0FF90039AE02FF0900399E03EF0900385
:104F540093E0FEA3E0FF90038DE0FCA3E0FDD39F6C
:104F6400EE6480F8EC6480984020ED9FFFEC9E9006
:104F7400038DF0A3EFF0900397E0FEA3E0FF90030E
:104F84009CE02FF090039BE03EF090038AE004F055
:0B4F94007006900389E004F0024EA0BC
:014F9F0022EF
:106E720090052CEAF0A3EBF0900528EEF0A3EFF0DA
:106E8200A3ECF0A3EDF0C007A3E0FAA3E0FB9005AA
:106E92002AE0FFA3E09003A3CFF0A3EFF0D0071204
:106EA2005196900528E0FAA3E0FBFFAE02C007A3CB
:106EB200E0FCA3E0FD90052EE0FFA3E09003A3CF4A
:106EC200F0A3EFF0D00712519690052EE0FCA3E05C
:106ED200FD90052CE0FAA3E0FBA3E0FFA3E0900302
:106EE200A3CFF0A3EFF0900528E0FEA3E0FF12513C
:106EF2009690052CE0FAA3E0FBFFAE02C0079005D6
:106F02002AE0FCA3E0FD90052EE0FFA3E09003A39E
:0A6F1200CFF0A3EFF0D00702519674
:1079EF00C007900536E0FFA3E0900464CFF0A3EF4B
:1079FF00F090044BE0FFA3E0900466CFF0A3EFF00C
:057A0F00D007025F46F4
:105DD50090050AF0A3EFF0900474E0FFA3E09005AE
:0E5DE5000CCFF0A3EFF0900470E0FEA3E0FFFF
:105DF300900506ECF0A3EDF0900504EEF0A3EFF0B0
:105E0300900508EAF0A3EBF02FFFEE3AA31278C94E
:105E1300900508E0FEA3E0FFC3900505E09FFF9017
:105E23000504E09EFE90050A1278CA900508E0FE7C
:105E3300A3E0FF900505E02FFF900504E03EFE90F0
:105E4300050AE0FCA3E0FDC3900507E09DFD900576
:105E530006E09C1278DA900508E0FEA3E0FFC39009
:105E63000505E09FFF900504E09EFE90050AE0FC17
:105E7300A3E0FDC3900507E09DFD900506E09C129D
:105E830078DA90050AE0FEA3E0FF900505E02FFF16
:105E9300900504E03E1278C690050AE0FEA3E0FFF9
:105EA300C3900505E09FFF900504E09E1278C6901D
:105EB300050AE0FEA3E0FF900505E02FFF9005042F
:105EC300E03EFE900508E0FCA3E0FDC3900507E07B
:105ED3009DFD900506E09C1278DA90050AE0FEA38A
:105EE300E0FFC3900505E09FFF900504E09EFE9050
:105EF3000508E0FCA3E0FDC3900507E09DFD9005C8
:0F5F030006E09CFC90050CE0FAA3E0FB0278E3BB
:104FA000900470EEF0A3EFF0A3ECF0A3EDF0A3EA11
:044FB000F0A3EBF08F
:104FB400E490047AF0A3F0900476E0FEA3E0FF907E
:104FC400047CEEF0A3EFF025E0FFEE33FEC37403A0
:104FD4009F900481F0E49E900480F0900478E07047
:104FE40002A3E070030250E390047CE0FEA3E0FF20
:104FF40090047AE0FCA3E0FDD39FEE6480F8EC64B7
:105004008098400302519590047EECF0A3EDF0905B
:10501400047CE0FEA3E0FFD390047FE09FEE648075
:10502400F890047EE0648098502B900472E0FCA316
:10503400E0FD90047AE0FAA3E0FB90047EE0FFA395
:10504400E0CF125DD590047FE004F070C290047E3E
:10505400E004F080BA900480E0FCA3E0FDC3EC64BB
:10506400809480502390047AE0FEA3E07802C33356
:10507400CE33CED8F92DFFEC3ECF2406CF340090AA
:105084000480F0A3EFF0804390047CE0FEA3E0FFF3
:10509400C390047BE09FFF90047AE09EFEEF7802C9
:1050A400C333CE33CED8F9FF900481E02FFF9004B0
:1050B40080E03ECF240ACF3400F0A3EFF090047DCB
:1050C400E024FFF090047CE034FFF090047BE004E3
:1050D400F06003024FEC90047AE004F0024FEC908D
:1050E400047CE0FEA3E0FF90047AE0FAA3E0FBD3A3
:1050F4009FEE6480F8EA648098400302519590041E
:1051040072E0FCA3E0FDEE125DD5900480E0FCA308
:10511400E0FDC3EC64809480502390047AE0FEA305
:10512400E07802C333CE33CED8F92DFFEC3ECF2442
:1051340006CF3400900480F0A3EFF0804390047C09
:10514400E0FEA3E0FFC390047BE09FFF90047AE0BD
:105154009EFEEF7802C333CE33CED8F9FF9004819C
:10516400E02FFF900480E03ECF240ACF3400F0A368
:10517400EFF090047DE024FFF090047CE034FFF035
:1051840090047BE004F0700690047AE004F002508E
:01519400E337
:0151950022F7
:10725B009004D8EEF0A3EFF0A3ECF0A3EDF0A3EACB
:10726B00F0A3EBF0C007A3E0FFA3E09003A3CFF0E4
:10727B00A3EFF0D0071251969004DEE0FCA3E0FDE3
:10728B00A3E0FAA3E0FBA3E0FFA3E09003A3CFF0FE
:10729B00A3EFF09004DCE0FEA3E0FF125196900404
:1072AB00E2E0FCA3E0FD9004D8E0FAA3E0FBA3E04E
:1072BB00FFA3E09003A3CFF0A3EFF09004E0E0FE78
:0672CB00A3E0FF02519652
:1074C1009005567401F0A37403F0A37433F07B01AB
:0474D1007A03792F92
:0B74D500900553EBF0A3EAF0A3E9F0F0
:1074E000121BB1FFAEF0900556E0FBA3E0FAA3E05B
:1074F000F9121BB1FD900553E0FBA3E0FAA3E0F9FC
:10750000E5F08DF0121C4C900556E0FBA3E0FAA3C9
:08751000E0F9EE8FF0021C4CC3
:10219C0090032DEEF0A3EFF0A3ECF0A3EDF0A3EA87
:0421AC00F0A3EBF0C1
:1021B00090034D121EE300000000900351121EE335
:1021C00000000000900333E0FEA3E0FF90032FE047
:1021D000FCA3E0D39FEC9E401A1274C19005567484
:1021E00001F0A37403F0A37431F07B017A03792D1D
:1021F0001274D5900337E0FEA3E0FF900333E0FCB8
:10220000A3E0D39FEC9E402E9005567401F0A3747A
:1022100003F0A37433F07B017A0379371274D590FD
:1022200005567401F0A37403F0A37431F07B017AB6
:102230000379351274D5900333E0FEA3E0FF9003D9
:102240002FE0FCA3E0D39FEC9E401A1274C19005CE
:10225000567401F0A37403F0A37431F07B017A0388
:10226000792D1274D5900337E0FEA3E0FF90032F81
:10227000E0FCA3E0FD6F7002EC6E6003022344906B
:10228000032DE0FEA3E0FF90033BEEF0A3EFF09000
:102290000339EEF0A3EFF0900339E0FEA3E0FF90E6
:1022A0000331E0FAA3E0FBC39FEA9E500A90033992
:1022B000EAF0A3EBF0801E90033BE0FEA3E0FFD327
:1022C000EB9FEA9E400F900331E0FFA3E090033BB9
:1022D000CFF0A3EFF0900339E0FEA3E0FF900335C9
:1022E000E0FAA3E0FBC39FEA9E500A900339EAF0AC
:1022F000A3EBF0801E90033BE0FEA3E0FFD3EB9F37
:10230000EA9E400F900335E0FFA3E090033BCFF03F
:10231000A3EFF090033BE0FAA3E0FB90032FE0FF74
:10232000A3E0900464CFF0A3EFF090044BE0FFA390
:10233000E0900466CFF0A3EFF0900339E0FEA3E055
:10234000FF025F4690032DE0FAA3E0FB900331E02B
:10235000FEA3E0C39BFFEE9A900341F0A3EFF09041
:10236000032FE0FEA3E0FF900333E0FCA3E0C39F54
:10237000FFEC9E900343F0A3EFF0900335E0FEA343
:10238000E0C39BFFEE9A900345F0A3EFF090032F7C
:10239000E0FEA3E0FF900337E0FCA3E0C39FFFEC67
:1023A0009E900347F0A3EFF0900331E0FEA3E0FF1F
:1023B000900335E0FCA3E0C39FFFEC9E900349F03F
:1023C000A3EFF0900333E0FAA3E0FB900337E0FCC7
:1023D000A3E0FDC39BFEEC9A90034BF0A3CEF0EB81
:1023E000B50510EAB5040C900333FFA3E090033F5A
:1023F000CF8010900333E0FEA3E024FFFFEE34FF14
:1024000090033FF0A3EFF090032FE0FFA3E09003D1
:102410003DCFF0A3EFF090033FE0FEA3E0FF900379
:102420003DE0FCA3E0D39FEC9E40030225309003E7
:1024300043E0FEA3E0FBAA06EA3395E0F9F8900337
:102440004DE0FCA3E0FDA3E0FEA3E0FF12763E908A
:10245000032DE0FCA3E02FFFEC3E900339F0A3EF47
:10246000F0900347E0FEA3E0FBAA06EA3395E0F90B
:10247000F8900351E0FCA3E0FDA3E0FEA3E0FF120F
:10248000763E90032DE0FCA3E02FFFEC3E90033B53
:10249000F0A3EFF090034DE0F8A3E0F9A3E0FAA376
:1024A000E0FB900341E0FEA3E0FFEE3395E0FDFC8E
:1024B000EB2FFFEA3EFEE93DFDE83CFC90034D12A8
:1024C0001ED7900351E0F8A3E0F9A3E0FAA3E0FBE4
:1024D000900345E0FEA3E0FFEE3395E0FDFCEB2F1B
:1024E000FFEA3EFEE93DFDE83CFC900351121ED799
:1024F00090033BE0FEA3E0FF900339E0FCA3E0D3B0
:102500009FEC9E40179005567401F0A37403F0A34E
:10251000743BF07B017A0379391274D5125F129003
:10252000033EE004F0700690033DE004F002241640
:10253000900333E0FEA3E0FF90033DE0FAA3E0FB4D
:10254000C39FFFEA9EFE900349E0FCA3E0FD121B3F
:1025500073E4FCFD90034D121ED790032FE0FEA301
:10256000E0FFC3EB9FFFEA9EFE900345E0FCA3E083
:10257000FD121B73E4FCFD900351121ED79003372C
:10258000E0FEA3E0FF90033DE0FCA3E0D39FEC9EC0
:10259000400302269590034BE0FEA3E0FBAA06EA67
:1025A0003395E0F9F8A3E0FCA3E0FDA3E0FEA3E08F
:1025B000FF12763E900331E0FCA3E02FFFEC3E904B
:1025C0000339F0A3EFF0900347E0FEA3E0FBAA0677
:1025D000EA3395E0F9F8900351E0FCA3E0FDA3E0B5
:1025E000FEA3E0FF12763E90032DE0FCA3E02FFF58
:1025F000EC3E90033BF0A3EFF090034DE0F8A3E036
:10260000F9A3E0FAA3E0FB900349E0FEA3E0FFEEAC
:102610003395E0FDFCEB2FFFEA3EFEE93DFDE83C93
:10262000FC90034D121ED7900351E0F8A3E0F9A3EC
:10263000E0FAA3E0FB900345E0FEA3E0FFEE339554
:10264000E0FDFCEB2FFFEA3EFEE93DFDE83CFC909F
:102650000351121ED790033BE0FEA3E0FF90033925
:10266000E0FCA3E0D39FEC9E40179005567401F068
:10267000A37403F0A3743BF07B017A0379391274DD
:10268000D5125F1290033EE004F0700690033DE027
:0526900004F002257DAD
:012695002222
:104B7C00F090049EE090048CF0900496E0FAA3E090
:014B8C00FB2D
:104B8D00900482EEF0A3EFF0900486EAF0A3EBF030
:084B9D00900484ECF0A3EDF09C
:104BA50090044BE0FFA3E0900490CFF0A3EFF090CA
:104BB500048AE024E0F0A3E0F9C313FF7E0090042B
:104BC50082E0FAA3E02FFFEE3ACF24FFFBEF34FF9C
:104BD500FAE9FFA3E0F8A3E02FFFEE38CF24FFCFDB
:104BE50034FF900244F0A3EFF0900482E0FEA3E0CE
:104BF500FF1273A990048CE06003024C9D90048E13
:104C0500F090048BE0FF90048EE0FEC39F4003020A
:104C15004D5DEF640C701790048AE075F00CA424C8
:104C250003F582E5F03400F583E5822E801A9004C1
:104C35008EE0FF90048AE075F010A42477F582E5F4
:104C4500F03404F583E5822FF582E43583F583E4BA
:104C55009390048DF0E490048FF090048BE0C313DF
:104C6500FF90048FE0C39F502690048DE030E0054F
:104C75009004868003900488E0FEA3E0FF127C5533
:104C850090048DE0C313F090048FE004F080CB9086
:104C9500048EE004F0024C06E490048EF090048B40
:104CA500E0FF90048EE0FEC39F4003024D5DEF647C
:104CB5000C701790048AE075F00CA42403F582E5C6
:104CC500F03400F583E5822E801A90048EE0FF9083
:104CD500048AE075F010A42477F582E5F03404F534
:104CE50083E5822FF582E43583F583E49390048D83
:104CF500F0E490048FF090048BE0C313FF90048FD1
:104D0500E0FEC39F5049900486E0FDA3E090044B6C
:104D1500CDF0A3EDF090048DE030E024EEFF90049B
:104D250083E02FFF900482E03400FE90048EE0FDC6
:104D3500900485E02DFD900484E03400FC1279296F
:104D450090048DE0C313F090048FE004F080A790E9
:104D5500048EE004F0024CA2900490E0FFA3E090E2
:104D6500044BCFF0A3EFF0900450E024FFFB900438
:104D75004FE034FFFA900452E024FFFE900451E026
:104D850034FF900244F0A3CEF0E4FDFCFFFE027375
:014D9500A974
:106B8A00900517EEF0A3EFF0A3ECF0A3EDF0A3EB62
:106B9A00F090051CE0FBA3E0FAA3E0F9121AF9FF52
:106BAA00D3947E4003026C48EFC394205003026CD6
:106BBA0048900450E024FFFD90044FE034FFFC901D
:106BCA000517E0FEA3E0FFD39DEE9C50719004529E
:106BDA00E024FFFB900451E034FFFA900519E0FC31
:106BEA00A3E0FDD39BEC9A505590044DE0FBA3E043
:106BFA00900488CBF0A3EBF090051CE0FBA3E0FA2D
:106C0A00121AF990048AF090051BE090048BF09018
:106C1A00051FE090048CF090044B124B8890051BE2
:106C2A00E0C313FF900518E02FF0900517E0340039
:0F6C3A00F090051DE475F001121B85026B9B2283
:08756A00900559EFF0A3EDF0CC
:10757200A3121EE30000000190055AE0FF14F0EF91
:107582006020A3E0F8A3E0F9A3E0FAA3E0FB9005F2
:1075920059E0FFE4FCFDFE121C9890055B121ED719
:1075A20080D690055BE0FCA3E0FDA3E0FEA3E0FF34
:0175B20022B6
:0E6153009004B1EEF0A3EFF0A3ECF0A3EDF09A
:10616100E49004BDF09004BBF09004B9E0FF90040A
:10617100BBE0FEC39F4003026263C3EF9E14FD7F39
:106181000A12756AA804A905AA06AB079004B5E02E
:10619100FCA3E0FDA3E0FEA3E0FF121D23E47B0AC4
:1061A100FAF9F8121D239004BCEBF0A3E0705790AC
:1061B10004B9E014FF9004BBE0FEC39F5048A3E084
:1061C100703E9004BAE0F9C3138EF0A4FF9004B2BC
:1061D100E02FFF9004B1E035F0FEC0079004B3E07A
:1061E100FCA3E0FD90044BE0FAA3E0FB90044DE03A
:1061F100FFA3E0900488CFF0A3EFF0A37420804DBB
:106201009004BD7401F09004BAE0F9C313FFA3E058
:10621100FEEF8EF0A4FF9004B2E02FFF9004B1E0F6
:1062210035F0FEC0079004B3E0FCA3E0FD90044B01
:10623100E0FAA3E0FB90044DE0FFA3E0900488CFD7
:10624100F0A3EFF09004BCE0243090048AF0A3E9BD
:10625100F0E4A3F0D007124B8D9004BBE004F002F0
:02626100616A70
:016263002218
:10448F00900411ECF0A3EDF0A3EAF0A3EBF090048D
:06449F000FEEF0A3EFF0A8
:1044A500900421EEF0A3EFF090041FE4F0A3744B09
:1044B500F0E490041DF0A3F090041FE0FEA3E0FFDC
:1044C50090041DE0FCA3E0FDC39FEC9E4003024663
:1044D500B4900417E0FBA3E0FAA3E0F9121AF9FF80
:1044E500900A6775F022ED121F38EC75F022A425AD
:1044F50083F583E4936F60030246A3900001121BCA
:1045050012FF90041DA3E0900A6875F022121F386F
:10451500EC75F022A42583F583E4936F60030246CE
:10452500A390040FE0FAA3E0FBFFAE02C006C007AC
:10453500A3E0FCA3E0FDEB240FFBE43AFA900411A1
:10454500E0FEA3E0240FFFE43E900244F0A3EFF069
:10455500D007D0061273A9E490041BF090041BE069
:10456500C394207480948040030246A3E4A3F09092
:10457500041CE0FFC3940874809480400302469AAB
:1045850090041AE0705AA3E0FE90041DE0FCA3E03D
:10459500900A6975F022121F38EC75F022A4258364
:1045A500F583E5822EF582E43583F583E493FD33C7
:1045B50095E0FC7E007480A807088006CEA2E7136C
:1045C500CE13D8F8FFEE5CFEEF5D4E600590041348
:1045D5008003900415E0FEA3E0FF127C550246918E
:1045E500900413E0FFA3E090044BCFF0A3EFF0900D
:1045F500041BE0FF90041DE0FCA3E0900A6975F040
:1046050022121F38EC75F022A42583F583E5822F4D
:10461500F582E43583F583E493FD3395E0FC90045E
:104625001CE0FF7E007480A807088006CEA2E71371
:10463500CE13D8F8FFEE5CFEEF5D4E601190040FCF
:10464500E0FEA3E0FFA3E0FCA3E0FD1279299004BE
:1046550010E004F0700690040FE004F0900421E0EF
:10466500FEA3E0FFC3900410E09FFD90040FE09EC1
:10467500FCED64104C7015EEF0A3EFF0900412E021
:1046850004F07011900411E004F0800990041CE01E
:1046950004F002457490041BE004F00245619004A7
:1046A5001EE004F0700690041DE004F00244BD9085
:1046B5000450E024FFFB90044FE034FFFA900452CD
:1046C500E024FFFE900451E034FF900244F0A3CEB5
:0946D500F0E4FDFCFFFE0273A9F4
:1046DE00900425ECF0A3EDF0A3EAF0A3EBF0900428
:0646EE0023EEF0A3EFF043
:1046F400900435EEF0A3EFF0900433E4F0A37409D2
:10470400F0E4900431F0A3F0900433E0FEA3E0FF62
:10471400900431E0FCA3E0FDC39FEC9E40030249FA
:104724000390042BE0FBA3E0FAA3E0F9121AF9FFCB
:1047340090145D75F04AED121F38EC75F04AA4250B
:1047440083F583E4936F60030248F2900001121B27
:1047540012FF900431A3E090145E75F04A121F38E2
:10476400EC75F04AA42583F583E4936F6003024853
:10477400F2900423E0FAA3E0FBFFAE02C006C007F8
:10478400A3E0FCA3E0FDEB2417FBE43AFA90042534
:10479400E0FEA3E02417FFE43E900244F0A3EFF010
:1047A400D007D0061273A9E490042FF090042FE0F0
:1047B400C394487480948040030248F2E4A3F090C8
:1047C4000430E0FFC394087480948040030248E9F5
:1047D40090042EE0705AA3E0FE900431E0FCA3E0C4
:1047E40090145F75F04A121F38EC75F04AA42583C3
:1047F400F583E5822EF582E43583F583E493FD3376
:1048040095E0FC7E007480A807088006CEA2E7131A
:10481400CE13D8F8FFEE5CFEEF5D4E6005900427E2
:104824008003900429E0FEA3E0FF127C550248E0D7
:10483400900427E0FFA3E090044BCFF0A3EFF090A7
:10484400042FE0FF900431E0FCA3E090145F75F0C6
:104854004A121F38EC75F04AA42583F583E5822FAC
:10486400F582E43583F583E493FD3395E0FC90040D
:1048740030E0FF7E007480A807088006CEA2E7130C
:10488400CE13D8F8FFEE5CFEEF5D4E60119004236A
:10489400E0FEA3E0FFA3E0FCA3E0FD12792990046D
:1048A40024E004F07006900423E004F0900435E062
:1048B400FEA3E0FFC3900424E09FFD900423E09E48
:1048C400FCED64184C7015EEF0A3EFF0900426E0B4
:1048D40004F07011900425E004F08009900430E0A5
:1048E40004F00247C390042FE004F00247B09004A0
:1048F40032E004F07006900431E004F002470C90BA
:104904000450E024FFFB90044FE034FFFA9004527B
:10491400E024FFFE900451E034FF900244F0A3CE63
:09492400F0E4FDFCFFFE0273A9A2
:10492D00900439ECF0A3EDF0A3EAF0A3EBF09004C2
:06493D0037EEF0A3EFF0DD
:10494300900449EEF0A3EFF0900447E4F0A374065B
:10495300F0E4900445F0A3F0900447E0FEA3E0FFE9
:10496300900445E0FCA3E0FDC39FEC9E4003024B93
:104973005290043FE0FBA3E0FAA3E0F9121AF9FF17
:104983009016F775F082ED121F38EC75F082A425AE
:1049930083F583E4936F6003024B41900001121B84
:1049A30012FF900445A3E09016F875F082121F38A9
:1049B300EC75F082A42583F583E4936F6003024BC7
:1049C30041900437E0FAA3E0FBFFAE02C006C00744
:1049D300A3E0FCA3E0FDEB241FFBE43AFA900439C7
:1049E300E0FEA3E0241FFFE43E900244F0A3EFF0B7
:1049F300D007D0061273A9E4900443F0900443E077
:104A0300C39480748094804003024B41E4A3F090EC
:104A13000444E0FFC39408748094804003024B383D
:104A2300900442E0705AA3E0FE900445E0FCA3E04A
:104A33009016F975F082121F38EC75F082A4258365
:104A4300F583E5822EF582E43583F583E493FD3324
:104A530095E0FC7E007480A807088006CEA2E713C9
:104A6300CE13D8F8FFEE5CFEEF5D4E600590043B7D
:104A7300800390043DE0FEA3E0FF127C55024B2F20
:104A830090043BE0FFA3E090044BCFF0A3EFF09042
:104A93000443E0FF900445E0FCA3E09016F975F0B1
:104AA30082121F38EC75F082A42583F583E5822FEB
:104AB300F582E43583F583E493FD3395E0FC9004BC
:104AC30044E0FF7E007480A807088006CEA2E713A7
:104AD300CE13D8F8FFEE5CFEEF5D4E601190043705
:104AE300E0FEA3E0FFA3E0FCA3E0FD12792990041C
:104AF30038E004F07006900437E004F0900449E0D5
:104B0300FEA3E0FFC3900438E09FFD900437E09ECE
:104B1300FCED64204C7015EEF0A3EFF090043AE046
:104B230004F07011900439E004F08009900444E02B
:104B330004F0024A12900443E004F00249FF900497
:104B430046E004F07006900445E004F002495B90EF
:104B53000450E024FFFB90044FE034FFFA9004522A
:104B6300E024FFFE900451E034FF900244F0A3CE12
:094B7300F0E4FDFCFFFE0273A951
:103F9700900494ECF0A3EDF0A3EAF0A3EBF0900407
:063FA70092EEF0A3EFF022
:103FAD0090049FEEF0A3EFF0E4A3F090049AE0FBF1
:103FBD00A3E0FAA3E0F9121AF9700302422D90045E
:103FCD00A1E060030240EE90049DE0FFC313FDC32A
:103FDD00900450E09DFD90044FE09400FCD39004BC
:103FED0093E09D900492E09C400302422DC3900407
:103FFD0052E09FFF900451E09400FED3900495E0B1
:10400D009F900494E09E400302422D121AF9FF7E08
:10401D0000D394807480948040089004A17401F0C2
:10402D008089EF640D4E702E90049DE0FF900495F5
:10403D00E02FF0900494E03400F090049FE0FFA393
:10404D00E0900492CFF0A3EFF090049BE475F001A3
:10405D00121B850240E190049DE0D394107480946E
:10406D0080900492E0FEA3E0FFA3E0FCA3E0FD90AE
:10407D000498E0FBA3E0900488CB4024F0A3EBF080
:10408D0090049AE0FBA3E0FAA3E0F9121AF9900468
:10409D008AF0A37410124B7C900493E02408802CBA
:1040AD00F0A3EBF090049AE0FBA3E0FAA3E0F91281
:1040BD001AF990048AF090049DE090048B124B7CC9
:1040CD0090049DE0C313FF900493E02FF0900492B1
:1040DD00E03400F090049BE475F001121B85023F63
:1040ED00B890049DE0F9FF7E00C3900450E09FFD61
:1040FD0090044FE09EFCD3900493E09D900492E0D9
:10410D009C400302422DC3900452E09FFF90045146
:10411D00E09EFE900494E0FCA3E0FDD39FEC9E4056
:10412D000302422DE49004A1F0E964207042900452
:10413D0092E0FEA3E0FF900498E0FBA3E090043D25
:10414D00CBF0A3EBF090049AE0F9A3E0FAA3E09092
:10415D00043FC9F0A3EAF0A3E9F090049EE09004B7
:10416D0042F0900496E0FAA3E0FB12492D02420EB4
:10417D0090049DE064189004927044E0FEA3E0FF6B
:10418D00A3E0FCA3E0FD900498E0FBA3E0900429DC
:10419D00CBF0A3EBF090049AE0F9A3E0FAA3E09042
:1041AD00042BC9F0A3EAF0A3E9F090049EE090047B
:1041BD002EF0900496E0FAA3E0FB1246DE8042E07A
:1041CD00FEA3E0FFA3E0FCA3E0FD900498E0FBA3B9
:1041DD00E0900415CBF0A3EBF090049AE0F9A3E086
:1041ED00FAA3E0900417C9F0A3EAF0A3E9F0900454
:1041FD009EE090041AF0900496E0FAA3E0FB1244BE
:10420D008F90049BE475F002121B8590049DE0FFD6
:10421D00900493E02FF0900492E03400F0023FB848
:01422D00226E
:106FBD009004BEEEF0A3EFF0A3ECF0A3EDF0A3EA86
:046FCD00F0A3EBF052
:106FD1009004C6E0FBA3E0FAA3E0F9127B79EF7815
:106FE10003C333CE33CED8F9FFC3900450E09FFFE3
:106FF10090044FE09EC313FEEF13FF9004BFE02FF8
:10700100FF9004BEE03EFE9004C0E0FCA3E0FD90D2
:1070110004C4E0FBA3E0900498CBF0A3EBF0900450
:10702100C6E0F9A3E0FAA3E090049AC9F0A3EAF05C
:10703100A3E9F09004C9E090049DF09004CAE090A7
:0E704100049EF09004C2E0FAA3E0FB023F9729
:106925009004EFEEF0A3EFF09004F3EBF0A3EAF0A0
:0B693500A3E9F09004F1ECF0A3EDF0FA
:106940009004EFE0FAA3E0FFAE02C006C0072427E0
:10695000FBE43AFAA3E0FEA3E02427FFE43E900222
:1069600044F0A3EFF0D007D0061273A9E49004F628
:10697000F0A3F09004F7E025E0FF9004F6E033FE8A
:106980009004F3E0FBA3E0FAA3E0F98F828E831278
:106990001B129004F9F0E92FF9EA3EFA9000011277
:1069A0001B129004F8F0FEA3E0FDEDFF127C559061
:1069B00004F7E004F070069004F6E004F0C39004DD
:1069C000F7E094409004F6E06480948640A590043B
:1069D00050E024FFFB90044FE034FFFA900452E0B3
:1069E00024FFFE900451E034FF900244F0A3CEF067
:0869F000E4FDFCFFFE0273A9A7
:037CA1000256C0C8
:0F584F009002ADEBF0A3EAF0A3E9F0A3121ED78D
:10585E009002B87401F09002B0E0FCA3E0FDA3E06A
:10586E00FEA3E0FF7809121DE69002BE121ED7902D
:10587E0002C27401F07F11126DC3EF60030259BBB7
:10588E007FFF127C21EF64FE70F69002B4E070028E
:10589E00A3E06076E49002BBF0A3F09002B4E0FEC9
:1058AE00A3E0FFC39002BCE09F9002BBE09E5015A8
:1058BE007FFF127C219002BCE004F070DE9002BBF0
:1058CE00E004F080D6E49002BBF0A3F09002B6E0C4
:1058DE00FEA3E0FFC39002BCE09F9002BBE09E508F
:1058EE006E7FFF127C219002ADE0FBA3E475F00108
:1058FE00121B9BA9F0FAEF121B3F9002BCE004F0C2
:10590E0070CA9002BBE004F080C2E49002BBF0A328
:10591E00F09002B6E0FEA3E0FFC39002BCE09F90C1
:10592E0002BBE09E50297FFF127C219002ADE0FB6E
:10593E00A3E475F001121B9BA9F0FAEF121B3F9026
:10594E0002BCE004F070CA9002BBE004F080C2908A
:10595E0002B4E0FEA3E0FFC3E49FFF74029EFEA329
:10596E00E0FCA3E0FDC3EF9DFFEE9C9002B9F0A317
:10597E00EFF0E4A3F0A3F09002B9E0FEA3E0FFC3C2
:10598E009002BCE09F9002BBE09E50157FFF127C00
:10599E00219002BCE004F070DE9002BBE004F080C7
:1059AE00D67FFF127C217FFF127C2180069002B8E9
:0C59BE00E0FF22127C7DE49002B8F0FFB4
:0159CA0022BA
:106264009004A5121ED79004A2EBF0A3EAF0A3E9D0
:01627400F039
:106275009004A97401F0EA494B6003026334900469
:10628500A5E0FCA3E0FDA3E0FEA3E0FFEC4D4E4F2F
:1062950060719004A5A3A3A3E07809121DE69002FE
:1062A500BE121ED79002C27401F07F18126DC39002
:1062B50004AAEFF0600302636E7FFF127C21EFF406
:1062C500603A9004ADE0FCA3E0FDA3E0FEA3E0246A
:1062D50001FFE43EFEE43DFDE43CFC9004AD121EEE
:1062E500D774FFFFFEFD7C009004ADE0F8A3E0F954
:1062F500A3E0FAA3E0FBC3121DC240BD7FFE127CE2
:106305002180617FFF127C217FFF127C217FFF129C
:106315007C219004AAEFF0541F64056005127C7D72
:1063250080477FFF127C21EF60F8127C7D8035E489
:106335009004ABF0A3F09004A2E0FBA3E475F00198
:10634500121B9BA9F0FA121AF9FF127C219004ACDA
:10635500E004F070069004ABE004F0C39004ABE0F9
:0E636500940240D2E49004A9F09004A9E0FF55
:016373002207
:1078F9009002A1EBF0A3EAF0A3E9F090029F74FFD4
:10790900F5F0121B9B45F060169002A1E0FBA3E481
:0F79190075F001121B9BA9F0FAED121B3F80DCE9
:01792800223C
:1072D10090029AEBF0A3EAF0A3E9F0900295E0F9AD
:1072E100A3E0FAA3E090029DC9F0A3EAF0A3E9F0BC
:1072F100E4FFFE90029874FFF5F0121B9B45F060CD
:107301003C90029DE0FBA3E475F001121B9BA9F0E8
:10731100FA121AF9FF3395E0FE90029AE0FBA3E41A
:1073210075F001121B9BA9F0FA121AF9FD3395E0D1
:0D733100FCC3ED9FFDEC9EFEAF054D60B668
:01733E00222C
:06367F0090029E121ED70E
:10368500900573E0F9A3E0FAA3E09002AAC9F0A3BC
:10369500EAF0A3E9F0E47F02FEFDFC90029EE0F86B
:1036A500A3E0F9A3E0FAA3E0FBC3121DC2402590F5
:1036B50002AAE0FBA3E0FAA3E0F9900006121E19A6
:1036C50090029EE0F8A3E0F9A3E0FAA3E0FBC312A1
:1036D5001DC240030239C79002AAE0FBA3E0FAA38A
:1036E500E0F9121AF924FE7003023855147003022A
:1036F50038E2240260030239C790029EA3A3E0FFCB
:10370500A3E0A3CFF0A3EFF09002A2E0C313FEA3C2
:10371500E013FFE02FF09002A2E03EF0E0FEA3E010
:10372500FFEE5401FCAD07A3F0A3EDF0EEC313FFCC
:103735009002A2E4F0A3EFF0EDF47003EC640160F5
:103745004B9002AAE0FBA3E0FAA3E0F990000A126D
:103755001EA79002A2E0FEA3E0FFEF2BFFEE3AFECC
:10376500E439FDE438FCA3E0FBA3E09002B4CBF020
:10377500A3EBF0A3E4F0A37402F07B017A0279A62F
:1037850012584FEF70030238200239C79002AAE0A1
:10379500FBA3E0FAA3E0F990000A121EA79002A28B
:1037A500E0FEA3E0FFEF2BFFEE3AFEE439FDE4383F
:1037B500FC9002B47401F0A374FFF0A3E4F0A30439
:1037C500F0FB7A0279A612584FEF60030239C790D1
:1037D50002AAE0FBA3E0FAA3E0F990000A121EA7F3
:1037E5009002A2E0FEA3E0FFEF2BFFEE3AFEE439E4
:1037F500FDE438FCEF2401FFE43EFEE43DFDE43C3E
:10380500FCE49002B4F0A3F0A3F0A304F0FB7A0269
:1038150079A712584FEF60030239C79002A7E0FE5F
:103825009002A6E0FDEDFBAA0690029EA3A3A3E0ED
:103835005401FFEF6011EAC4F854F0C868FEEBC408
:10384500540F48FF0238DEAF03EA540FFE0238DE9C
:103855009002AAE0FBA3E0FAA3E0F990000A121E89
:1038650019C004C005C006C007E4FB7A01F9F89049
:10387500029EE0FCA3E0FDA3E0FEA3E0FF121D23F2
:10388500A804A905AA06AB07D007D006D005D00421
:10389500EB2FFFEA3EFEE93DFDE83CFCC006C00714
:1038A50090029EA3A3A3E025E0FEE4339002B4F0CA
:1038B500A3CEF0A3E4F0A37402F07B017A0279A60B
:1038C500D007D00612584FEF60030239C79002A700
:1038D500E0FE9002A6E0FDEDFFE4FCFD229002AAC9
:1038E500E0FBA3E0FAA3E0F990000A121E19C00458
:1038F500C005C006C007E47B80FAF9F890029EE097
:10390500FCA3E0FDA3E0FEA3E0FF121D23A804A98C
:1039150005AA06AB07D007D006D005D004EB2FFFCC
:10392500EA3EFEE93DFDE83CFCC004C005C006C01A
:103935000790029EA3A3A3E07E00547F7802C333C1
:10394500CE33CED8F9FF9002B4EEF0A3EFF0A3E4A6
:10395500F0A37404F07B017A0279A6D007D006D0D3
:1039650005D00412584FEF70599002A8E0FFE4FC0F
:10397500FDFE7810121DE6C004C005C006C007A3F1
:10398500E0FFE4FCFDFE7818121DE6D003D002D05E
:1039950001D000EF4BFFEE4AFEED49FDEC48FCA8D7
:1039A50004A905AA06AB079002A7E0FEEA4EFA9025
:1039B50002A6E0FFEB4FFFEAFEE9FDE8FCEC540F41
:0839C500FC22E47F01FEFDFC81
:0139CD0022D7
:0B6C4900E0FCA3E0FDA3E0FEA3E0FFE1
:066C540090029E121ED703
:106C5A00900573E0FBA3E0FAA3E0F99002A2EBF03F
:106C6A00A3EAF0A3E9F090029EE0FCA3E0FDA3E012
:106C7A00FEA3E0C39402FFEE9400FEED9400FDEC47
:106C8A009400FC90029E121ED7900006121E19EF65
:106C9A0024FEFFEE34FFFEED34FFFDEC34FFFC90E2
:106CAA00029EE0F8A3E0F9A3E0FAA3E0FBC3121DF9
:106CBA00C24006E4FFFEFDFC229002A2E0FBA3E034
:106CCA00FAA3E0F9900002121B12FFE4FCFDFE9009
:106CDA00029EE0F8A3E0F9A3E0FAA3E0FB121C98F5
:106CEA009002A2E0FBA3E0FAA3E0F9900012121EC0
:0D6CFA00A7EF2BFFEE3AFEED39FDEC38FC64
:016D07002269
:08603F00E0FBA3E0FAA3E0F985
:0B604700900292EBF0A3EAF0A3E9F056
:10605200900573E0F9A3E0FAA3E0900299C9F0A3D6
:10606200EAF0A3E9F0900292E0FBA3E0FAA3E0F9E0
:10607200E4F5F0121C4C900292E0FBA3E0FAA3E0DC
:10608200F9900005121E19900295121ED7E47F01A5
:10609200FEFDFC900295E0F8A3E0F9A3E0FAA3E08C
:1060A200FBC3121DC26025900299E0FBA3E0FAA394
:1060B200E0F9900006121E19900295E0F8A3E0F9AB
:1060C200A3E0FAA3E0FBC3121DC240037F012290AA
:1060D2000295E0FCA3E0FDA3E0FEA3E0FFEC4D4E41
:1060E2004F701CA3E0FBA3E0FAA3E0F9121AF964D3
:1060F20003700C90000E121E19900295121ED7907A
:106102000295E0FCA3E0FDA3E0FEA3E0FF90029273
:10611200E0FBA3E0FAA3E0F9900009121E63EC4D44
:106122004E4F6008900295126C498011900299E0DE
:10613200FBA3E0FAA3E0F990000E121E199002925E
:10614200E0FBA3E0FAA3E0F990000D121E637F00CA
:01615200222A
:08552D00E0FBA3E0FAA3E0F9A2
:0B553500900292EBF0A3EAF0A3E9F073
:10554000900573E0F9A3E0FAA3E090029BC9F0A3F1
:10555000EAF0A3E9F0900292E0FBA3E0FAA3E0F9FD
:10556000121BB12401FFE435F0FE900299F0A3EF85
:10557000F04E600C90000D121E19EC4D4E4F700352
:105580007F032290029AE0540F60030256A5900018
:105590000D121E19EF2401FFE43EFEE43DFDE43C44
:1055A000FC90000D121E63900009121E19E4FBFA14
:1055B000F9F8C3121DC2702690029BE0FBA3E0FA2B
:1055C000A3E0F9900004121BDCFFC390029AE09F55
:1055D000900299E095F050030256A57F03229002B5
:1055E0009BE0FBA3E0FAA3E0F9900002121B122457
:1055F000FFFDE434FFFC900299E0C4F854F0C86861
:10560000FEA3E0C4540F48FFEE5CFEEF5D4E600366
:105610000256A5900292E0FBA3E0FAA3E0F9900005
:1056200009121E1912367F900295121ED7E47F01CF
:10563000FEFDFC900295E0F8A3E0F9A3E0FAA3E0F8
:10564000FBD3121DC250037F012290029BE0FBA3FB
:10565000E0FAA3E0F9900006121E19900295E0F816
:10566000A3E0F9A3E0FAA3E0FBC3121DC240037F4D
:105670000322900295E0FCA3E0FDA3E0FEA3E0FF7F
:10568000900292E0FBA3E0FAA3E0F9900009121E59
:1056900063126C54900292E0FBA3E0FAA3E0F9904D
:1056A000000D121E63900299E0F9A3E0FF900292B0
:0F56B000E0FBA3E0FAA3E0C98FF0121C4C7F00CF
:0156BF0022C8
